{
  "_format": "hh-sol-artifact-1",
  "contractName": "GovernorBravoDelegate",
  "sourceName": "contracts/governance.sol",
  "abi": [
    {
      "anonymous": false,
      "inputs": [
        {
          "indexed": false,
          "internalType": "address",
          "name": "previousAdmin",
          "type": "address"
        },
        {
          "indexed": false,
          "internalType": "address",
          "name": "newAdmin",
          "type": "address"
        }
      ],
      "name": "AdminChanged",
      "type": "event"
    },
    {
      "anonymous": false,
      "inputs": [
        {
          "indexed": true,
          "internalType": "address",
          "name": "beacon",
          "type": "address"
        }
      ],
      "name": "BeaconUpgraded",
      "type": "event"
    },
    {
      "anonymous": false,
      "inputs": [
        {
          "indexed": false,
          "internalType": "address",
          "name": "governanceAddress",
          "type": "address"
        }
      ],
      "name": "GovernanceInitiated",
      "type": "event"
    },
    {
      "anonymous": false,
      "inputs": [
        {
          "indexed": false,
          "internalType": "address",
          "name": "investee",
          "type": "address"
        },
        {
          "indexed": false,
          "internalType": "uint256",
          "name": "id",
          "type": "uint256"
        }
      ],
      "name": "InvesteeFunded",
      "type": "event"
    },
    {
      "anonymous": false,
      "inputs": [
        {
          "indexed": false,
          "internalType": "address",
          "name": "investee",
          "type": "address"
        },
        {
          "indexed": false,
          "internalType": "uint256",
          "name": "id",
          "type": "uint256"
        }
      ],
      "name": "InvesteeSet",
      "type": "event"
    },
    {
      "anonymous": false,
      "inputs": [
        {
          "indexed": false,
          "internalType": "address",
          "name": "oldAdmin",
          "type": "address"
        },
        {
          "indexed": false,
          "internalType": "address",
          "name": "newAdmin",
          "type": "address"
        }
      ],
      "name": "NewAdmin",
      "type": "event"
    },
    {
      "anonymous": false,
      "inputs": [
        {
          "indexed": false,
          "internalType": "address",
          "name": "oldImplementation",
          "type": "address"
        },
        {
          "indexed": false,
          "internalType": "address",
          "name": "newImplementation",
          "type": "address"
        }
      ],
      "name": "NewImplementation",
      "type": "event"
    },
    {
      "anonymous": false,
      "inputs": [
        {
          "indexed": false,
          "internalType": "address",
          "name": "oldPendingAdmin",
          "type": "address"
        },
        {
          "indexed": false,
          "internalType": "address",
          "name": "newPendingAdmin",
          "type": "address"
        }
      ],
      "name": "NewPendingAdmin",
      "type": "event"
    },
    {
      "anonymous": false,
      "inputs": [
        {
          "indexed": false,
          "internalType": "uint256",
          "name": "id",
          "type": "uint256"
        }
      ],
      "name": "ProposalCanceled",
      "type": "event"
    },
    {
      "anonymous": false,
      "inputs": [
        {
          "indexed": false,
          "internalType": "uint256",
          "name": "id",
          "type": "uint256"
        },
        {
          "indexed": false,
          "internalType": "address",
          "name": "proposer",
          "type": "address"
        },
        {
          "indexed": false,
          "internalType": "address[]",
          "name": "targets",
          "type": "address[]"
        },
        {
          "indexed": false,
          "internalType": "uint256[]",
          "name": "values",
          "type": "uint256[]"
        },
        {
          "indexed": false,
          "internalType": "string[]",
          "name": "signatures",
          "type": "string[]"
        },
        {
          "indexed": false,
          "internalType": "bytes[]",
          "name": "calldatas",
          "type": "bytes[]"
        },
        {
          "indexed": false,
          "internalType": "uint256",
          "name": "startBlock",
          "type": "uint256"
        },
        {
          "indexed": false,
          "internalType": "uint256",
          "name": "endBlock",
          "type": "uint256"
        },
        {
          "indexed": false,
          "internalType": "string",
          "name": "description",
          "type": "string"
        }
      ],
      "name": "ProposalCreated",
      "type": "event"
    },
    {
      "anonymous": false,
      "inputs": [
        {
          "indexed": false,
          "internalType": "uint256",
          "name": "id",
          "type": "uint256"
        }
      ],
      "name": "ProposalExecuted",
      "type": "event"
    },
    {
      "anonymous": false,
      "inputs": [
        {
          "indexed": false,
          "internalType": "uint256",
          "name": "id",
          "type": "uint256"
        },
        {
          "indexed": false,
          "internalType": "uint256",
          "name": "eta",
          "type": "uint256"
        }
      ],
      "name": "ProposalQueued",
      "type": "event"
    },
    {
      "anonymous": false,
      "inputs": [
        {
          "indexed": false,
          "internalType": "uint256",
          "name": "oldProposalThreshold",
          "type": "uint256"
        },
        {
          "indexed": false,
          "internalType": "uint256",
          "name": "newProposalThreshold",
          "type": "uint256"
        }
      ],
      "name": "ProposalThresholdSet",
      "type": "event"
    },
    {
      "anonymous": false,
      "inputs": [
        {
          "indexed": true,
          "internalType": "address",
          "name": "implementation",
          "type": "address"
        }
      ],
      "name": "Upgraded",
      "type": "event"
    },
    {
      "anonymous": false,
      "inputs": [
        {
          "indexed": true,
          "internalType": "address",
          "name": "voter",
          "type": "address"
        },
        {
          "indexed": false,
          "internalType": "uint256",
          "name": "proposalId",
          "type": "uint256"
        },
        {
          "indexed": false,
          "internalType": "uint8",
          "name": "support",
          "type": "uint8"
        },
        {
          "indexed": false,
          "internalType": "uint256",
          "name": "votes",
          "type": "uint256"
        },
        {
          "indexed": false,
          "internalType": "string",
          "name": "reason",
          "type": "string"
        }
      ],
      "name": "VoteCast",
      "type": "event"
    },
    {
      "anonymous": false,
      "inputs": [
        {
          "indexed": false,
          "internalType": "uint256",
          "name": "oldVotingDelay",
          "type": "uint256"
        },
        {
          "indexed": false,
          "internalType": "uint256",
          "name": "newVotingDelay",
          "type": "uint256"
        }
      ],
      "name": "VotingDelaySet",
      "type": "event"
    },
    {
      "anonymous": false,
      "inputs": [
        {
          "indexed": false,
          "internalType": "uint256",
          "name": "oldVotingPeriod",
          "type": "uint256"
        },
        {
          "indexed": false,
          "internalType": "uint256",
          "name": "newVotingPeriod",
          "type": "uint256"
        }
      ],
      "name": "VotingPeriodSet",
      "type": "event"
    },
    {
      "anonymous": false,
      "inputs": [
        {
          "indexed": false,
          "internalType": "address",
          "name": "account",
          "type": "address"
        },
        {
          "indexed": false,
          "internalType": "uint256",
          "name": "expiration",
          "type": "uint256"
        }
      ],
      "name": "WhitelistAccountExpirationSet",
      "type": "event"
    },
    {
      "anonymous": false,
      "inputs": [
        {
          "indexed": false,
          "internalType": "address",
          "name": "oldGuardian",
          "type": "address"
        },
        {
          "indexed": false,
          "internalType": "address",
          "name": "newGuardian",
          "type": "address"
        }
      ],
      "name": "WhitelistGuardianSet",
      "type": "event"
    },
    {
      "inputs": [],
      "name": "BALLOT_TYPEHASH",
      "outputs": [
        {
          "internalType": "bytes32",
          "name": "",
          "type": "bytes32"
        }
      ],
      "stateMutability": "view",
      "type": "function"
    },
    {
      "inputs": [],
      "name": "DOMAIN_TYPEHASH",
      "outputs": [
        {
          "internalType": "bytes32",
          "name": "",
          "type": "bytes32"
        }
      ],
      "stateMutability": "view",
      "type": "function"
    },
    {
      "inputs": [],
      "name": "MAX_VOTING_DELAY",
      "outputs": [
        {
          "internalType": "uint256",
          "name": "",
          "type": "uint256"
        }
      ],
      "stateMutability": "view",
      "type": "function"
    },
    {
      "inputs": [],
      "name": "MAX_VOTING_PERIOD",
      "outputs": [
        {
          "internalType": "uint256",
          "name": "",
          "type": "uint256"
        }
      ],
      "stateMutability": "view",
      "type": "function"
    },
    {
      "inputs": [],
      "name": "MIN_VOTING_DELAY",
      "outputs": [
        {
          "internalType": "uint256",
          "name": "",
          "type": "uint256"
        }
      ],
      "stateMutability": "view",
      "type": "function"
    },
    {
      "inputs": [],
      "name": "MIN_VOTING_PERIOD",
      "outputs": [
        {
          "internalType": "uint256",
          "name": "",
          "type": "uint256"
        }
      ],
      "stateMutability": "view",
      "type": "function"
    },
    {
      "inputs": [],
      "name": "_AcceptTimelockAdmin",
      "outputs": [],
      "stateMutability": "nonpayable",
      "type": "function"
    },
    {
      "inputs": [],
      "name": "_acceptAdmin",
      "outputs": [],
      "stateMutability": "nonpayable",
      "type": "function"
    },
    {
      "inputs": [
        {
          "internalType": "address",
          "name": "governorAlpha",
          "type": "address"
        }
      ],
      "name": "_initiate",
      "outputs": [],
      "stateMutability": "nonpayable",
      "type": "function"
    },
    {
      "inputs": [
        {
          "internalType": "address",
          "name": "newPendingAdmin",
          "type": "address"
        }
      ],
      "name": "_setPendingAdmin",
      "outputs": [],
      "stateMutability": "nonpayable",
      "type": "function"
    },
    {
      "inputs": [
        {
          "internalType": "uint256",
          "name": "newVotingDelay",
          "type": "uint256"
        }
      ],
      "name": "_setVotingDelay",
      "outputs": [],
      "stateMutability": "nonpayable",
      "type": "function"
    },
    {
      "inputs": [
        {
          "internalType": "uint256",
          "name": "newVotingPeriod",
          "type": "uint256"
        }
      ],
      "name": "_setVotingPeriod",
      "outputs": [],
      "stateMutability": "nonpayable",
      "type": "function"
    },
    {
      "inputs": [
        {
          "internalType": "address",
          "name": "account",
          "type": "address"
        },
        {
          "internalType": "uint256",
          "name": "expiration",
          "type": "uint256"
        }
      ],
      "name": "_setWhitelistAccountExpiration",
      "outputs": [],
      "stateMutability": "nonpayable",
      "type": "function"
    },
    {
      "inputs": [
        {
          "internalType": "address",
          "name": "account",
          "type": "address"
        }
      ],
      "name": "_setWhitelistGuardian",
      "outputs": [],
      "stateMutability": "nonpayable",
      "type": "function"
    },
    {
      "inputs": [],
      "name": "admin",
      "outputs": [
        {
          "internalType": "address",
          "name": "",
          "type": "address"
        }
      ],
      "stateMutability": "view",
      "type": "function"
    },
    {
      "inputs": [
        {
          "internalType": "uint256",
          "name": "proposalId",
          "type": "uint256"
        }
      ],
      "name": "cancel",
      "outputs": [],
      "stateMutability": "nonpayable",
      "type": "function"
    },
    {
      "inputs": [
        {
          "internalType": "uint256",
          "name": "proposalId",
          "type": "uint256"
        },
        {
          "internalType": "uint8",
          "name": "support",
          "type": "uint8"
        }
      ],
      "name": "castVote",
      "outputs": [],
      "stateMutability": "nonpayable",
      "type": "function"
    },
    {
      "inputs": [
        {
          "internalType": "uint256",
          "name": "proposalId",
          "type": "uint256"
        },
        {
          "internalType": "uint8",
          "name": "support",
          "type": "uint8"
        },
        {
          "internalType": "uint8",
          "name": "v",
          "type": "uint8"
        },
        {
          "internalType": "bytes32",
          "name": "r",
          "type": "bytes32"
        },
        {
          "internalType": "bytes32",
          "name": "s",
          "type": "bytes32"
        }
      ],
      "name": "castVoteBySig",
      "outputs": [],
      "stateMutability": "nonpayable",
      "type": "function"
    },
    {
      "inputs": [
        {
          "internalType": "uint256",
          "name": "proposalId",
          "type": "uint256"
        },
        {
          "internalType": "uint8",
          "name": "support",
          "type": "uint8"
        },
        {
          "internalType": "string",
          "name": "reason",
          "type": "string"
        }
      ],
      "name": "castVoteWithReason",
      "outputs": [],
      "stateMutability": "nonpayable",
      "type": "function"
    },
    {
      "inputs": [
        {
          "internalType": "uint256",
          "name": "proposalId",
          "type": "uint256"
        }
      ],
      "name": "execute",
      "outputs": [],
      "stateMutability": "payable",
      "type": "function"
    },
    {
      "inputs": [
        {
          "internalType": "uint256",
          "name": "proposalId",
          "type": "uint256"
        }
      ],
      "name": "getActions",
      "outputs": [
        {
          "internalType": "address[]",
          "name": "targets",
          "type": "address[]"
        },
        {
          "internalType": "uint256[]",
          "name": "values",
          "type": "uint256[]"
        },
        {
          "internalType": "string[]",
          "name": "signatures",
          "type": "string[]"
        },
        {
          "internalType": "bytes[]",
          "name": "calldatas",
          "type": "bytes[]"
        }
      ],
      "stateMutability": "view",
      "type": "function"
    },
    {
      "inputs": [
        {
          "internalType": "uint256",
          "name": "proposalId",
          "type": "uint256"
        },
        {
          "internalType": "address",
          "name": "voter",
          "type": "address"
        }
      ],
      "name": "getReceipt",
      "outputs": [
        {
          "components": [
            {
              "internalType": "bool",
              "name": "hasVoted",
              "type": "bool"
            },
            {
              "internalType": "uint8",
              "name": "support",
              "type": "uint8"
            },
            {
              "internalType": "uint256",
              "name": "votes",
              "type": "uint256"
            }
          ],
          "internalType": "struct GovernorBravoDelegateStorageV1.Receipt",
          "name": "",
          "type": "tuple"
        }
      ],
      "stateMutability": "view",
      "type": "function"
    },
    {
      "inputs": [],
      "name": "implementation",
      "outputs": [
        {
          "internalType": "address",
          "name": "",
          "type": "address"
        }
      ],
      "stateMutability": "view",
      "type": "function"
    },
    {
      "inputs": [],
      "name": "initialProposalId",
      "outputs": [
        {
          "internalType": "uint256",
          "name": "",
          "type": "uint256"
        }
      ],
      "stateMutability": "view",
      "type": "function"
    },
    {
      "inputs": [
        {
          "internalType": "address",
          "name": "timelock_",
          "type": "address"
        },
        {
          "internalType": "address",
          "name": "maia_",
          "type": "address"
        },
        {
          "internalType": "uint256",
          "name": "votingPeriod_",
          "type": "uint256"
        },
        {
          "internalType": "uint256",
          "name": "votingDelay_",
          "type": "uint256"
        },
        {
          "internalType": "address",
          "name": "valar_",
          "type": "address"
        }
      ],
      "name": "initialize",
      "outputs": [],
      "stateMutability": "nonpayable",
      "type": "function"
    },
    {
      "inputs": [
        {
          "internalType": "address",
          "name": "account",
          "type": "address"
        }
      ],
      "name": "isWhitelisted",
      "outputs": [
        {
          "internalType": "bool",
          "name": "",
          "type": "bool"
        }
      ],
      "stateMutability": "view",
      "type": "function"
    },
    {
      "inputs": [
        {
          "internalType": "address",
          "name": "",
          "type": "address"
        }
      ],
      "name": "latestProposalIds",
      "outputs": [
        {
          "internalType": "uint256",
          "name": "",
          "type": "uint256"
        }
      ],
      "stateMutability": "view",
      "type": "function"
    },
    {
      "inputs": [],
      "name": "maia",
      "outputs": [
        {
          "internalType": "contract maiaInterface",
          "name": "",
          "type": "address"
        }
      ],
      "stateMutability": "view",
      "type": "function"
    },
    {
      "inputs": [],
      "name": "name",
      "outputs": [
        {
          "internalType": "string",
          "name": "",
          "type": "string"
        }
      ],
      "stateMutability": "view",
      "type": "function"
    },
    {
      "inputs": [],
      "name": "pendingAdmin",
      "outputs": [
        {
          "internalType": "address",
          "name": "",
          "type": "address"
        }
      ],
      "stateMutability": "view",
      "type": "function"
    },
    {
      "inputs": [],
      "name": "proposalCount",
      "outputs": [
        {
          "internalType": "uint256",
          "name": "",
          "type": "uint256"
        }
      ],
      "stateMutability": "view",
      "type": "function"
    },
    {
      "inputs": [],
      "name": "proposalMaxOperations",
      "outputs": [
        {
          "internalType": "uint256",
          "name": "",
          "type": "uint256"
        }
      ],
      "stateMutability": "view",
      "type": "function"
    },
    {
      "inputs": [],
      "name": "proposalThreshold",
      "outputs": [
        {
          "internalType": "uint256",
          "name": "",
          "type": "uint256"
        }
      ],
      "stateMutability": "view",
      "type": "function"
    },
    {
      "inputs": [
        {
          "internalType": "uint256",
          "name": "",
          "type": "uint256"
        }
      ],
      "name": "proposals",
      "outputs": [
        {
          "internalType": "uint256",
          "name": "id",
          "type": "uint256"
        },
        {
          "internalType": "address",
          "name": "proposer",
          "type": "address"
        },
        {
          "internalType": "uint256",
          "name": "eta",
          "type": "uint256"
        },
        {
          "internalType": "uint256",
          "name": "startBlock",
          "type": "uint256"
        },
        {
          "internalType": "uint256",
          "name": "endBlock",
          "type": "uint256"
        },
        {
          "internalType": "uint256",
          "name": "forVotes",
          "type": "uint256"
        },
        {
          "internalType": "uint256",
          "name": "againstVotes",
          "type": "uint256"
        },
        {
          "internalType": "uint256",
          "name": "abstainVotes",
          "type": "uint256"
        },
        {
          "internalType": "bool",
          "name": "canceled",
          "type": "bool"
        },
        {
          "internalType": "bool",
          "name": "executed",
          "type": "bool"
        }
      ],
      "stateMutability": "view",
      "type": "function"
    },
    {
      "inputs": [
        {
          "internalType": "address[]",
          "name": "targets",
          "type": "address[]"
        },
        {
          "internalType": "uint256[]",
          "name": "values",
          "type": "uint256[]"
        },
        {
          "internalType": "string[]",
          "name": "signatures",
          "type": "string[]"
        },
        {
          "internalType": "bytes[]",
          "name": "calldatas",
          "type": "bytes[]"
        },
        {
          "internalType": "string",
          "name": "description",
          "type": "string"
        }
      ],
      "name": "propose",
      "outputs": [
        {
          "internalType": "uint256",
          "name": "",
          "type": "uint256"
        }
      ],
      "stateMutability": "nonpayable",
      "type": "function"
    },
    {
      "inputs": [
        {
          "internalType": "uint256",
          "name": "proposalId",
          "type": "uint256"
        }
      ],
      "name": "queue",
      "outputs": [],
      "stateMutability": "nonpayable",
      "type": "function"
    },
    {
      "inputs": [],
      "name": "quorumVotes",
      "outputs": [
        {
          "internalType": "uint256",
          "name": "",
          "type": "uint256"
        }
      ],
      "stateMutability": "view",
      "type": "function"
    },
    {
      "inputs": [
        {
          "internalType": "uint256",
          "name": "proposalId",
          "type": "uint256"
        }
      ],
      "name": "state",
      "outputs": [
        {
          "internalType": "enum GovernorBravoDelegateStorageV1.ProposalState",
          "name": "",
          "type": "uint8"
        }
      ],
      "stateMutability": "view",
      "type": "function"
    },
    {
      "inputs": [],
      "name": "timelock",
      "outputs": [
        {
          "internalType": "contract TimelockInterface",
          "name": "",
          "type": "address"
        }
      ],
      "stateMutability": "view",
      "type": "function"
    },
    {
      "inputs": [
        {
          "internalType": "address",
          "name": "newImplementation",
          "type": "address"
        }
      ],
      "name": "upgradeTo",
      "outputs": [],
      "stateMutability": "nonpayable",
      "type": "function"
    },
    {
      "inputs": [
        {
          "internalType": "address",
          "name": "newImplementation",
          "type": "address"
        },
        {
          "internalType": "bytes",
          "name": "data",
          "type": "bytes"
        }
      ],
      "name": "upgradeToAndCall",
      "outputs": [],
      "stateMutability": "payable",
      "type": "function"
    },
    {
      "inputs": [],
      "name": "votingDelay",
      "outputs": [
        {
          "internalType": "uint256",
          "name": "",
          "type": "uint256"
        }
      ],
      "stateMutability": "view",
      "type": "function"
    },
    {
      "inputs": [],
      "name": "votingPeriod",
      "outputs": [
        {
          "internalType": "uint256",
          "name": "",
          "type": "uint256"
        }
      ],
      "stateMutability": "view",
      "type": "function"
    },
    {
      "inputs": [
        {
          "internalType": "address",
          "name": "",
          "type": "address"
        }
      ],
      "name": "whitelistAccountExpirations",
      "outputs": [
        {
          "internalType": "uint256",
          "name": "",
          "type": "uint256"
        }
      ],
      "stateMutability": "view",
      "type": "function"
    },
    {
      "inputs": [],
      "name": "whitelistGuardian",
      "outputs": [
        {
          "internalType": "address",
          "name": "",
          "type": "address"
        }
      ],
      "stateMutability": "view",
      "type": "function"
    }
  ],
  "bytecode": "0x60a06040523060601b60805234801561001757600080fd5b5060805160601c6143ba61004b60003960008181610e7201528181610eb201528181611737015261177701526143ba6000f3fe6080604052600436106102725760003560e01c806357fb25cc1161014f578063d33219b4116100c1578063e48083fe1161007a578063e48083fe14610460578063e9c714f2146108f9578063f851a4401461090e578063f9d28b801461092e578063fc4eee421461094e578063fe0d94c11461096457610272565b8063d33219b414610799578063da35c664146107b9578063da95691a146107cf578063ddf0b009146107ef578063deaaa7cc1461080f578063e23a9a521461084357610272565b8063a37ee07d11610113578063a37ee07d14610701578063a64e024a14610716578063b11262631461072d578063b58131b014610743578063b71d1a0c14610759578063c5a8425d1461077957610272565b806357fb25cc1461066c5780635c60da1b1461068c5780637b3c71d3146106ac5780637bdbe4d0146106cc57806399533365146106e157610272565b80633659cfe6116101e85780633e4f49e6116101ac5780633e4f49e6146105ac57806340e58ee5146105d95780634c340179146105f95780634d6733d2146106195780634f1ef28614610639578063567813881461064c57610272565b80633659cfe6146104f957806338bd0dda146105195780633932abb1146105465780633af32abf1461055c5780633bccf4fd1461058c57610272565b80631dfb1b5a1161023a5780631dfb1b5a1461040c57806320606b701461042c578063215809ca1461046057806324bc1a64146104755780632678224714610491578063328dd982146104c957610272565b8063013cf08b1461027757806302a251a31461034e57806306fdde03146103725780630ea2d98c146103bd57806317977c61146103df575b600080fd5b34801561028357600080fd5b506102f3610292366004613c54565b606f602052600090815260409020805460018201546002830154600784015460088501546009860154600a870154600b880154600c9098015496976001600160a01b0390961696949593949293919290919060ff808216916101009004168a565b604080519a8b526001600160a01b0390991660208b0152978901969096526060880194909452608087019290925260a086015260c085015260e084015215156101008301521515610120820152610140015b60405180910390f35b34801561035a57600080fd5b5061036460695481565b604051908152602001610345565b34801561037e57600080fd5b506103b06040518060400160405280601281526020017144414f20476f7665726e6f7220427261766f60701b81525081565b6040516103459190614039565b3480156103c957600080fd5b506103dd6103d8366004613c54565b610977565b005b3480156103eb57600080fd5b506103646103fa366004613a01565b60706020526000908152604090205481565b34801561041857600080fd5b506103dd610427366004613c54565b610aaf565b34801561043857600080fd5b506103647f8cad95687ba82c2ce50e74f7b754645e5117c3a5bec8151c0726d5857980a86681565b34801561046c57600080fd5b50610364600181565b34801561048157600080fd5b50610364670de0b6b3a764000081565b34801561049d57600080fd5b506066546104b1906001600160a01b031681565b6040516001600160a01b039091168152602001610345565b3480156104d557600080fd5b506104e96104e4366004613c54565b610bd6565b6040516103459493929190613fb9565b34801561050557600080fd5b506103dd610514366004613a01565b610e67565b34801561052557600080fd5b50610364610534366004613a01565b60716020526000908152604090205481565b34801561055257600080fd5b5061036460685481565b34801561056857600080fd5b5061057c610577366004613a01565b610f30565b6040519015158152602001610345565b34801561059857600080fd5b506103dd6105a7366004613d3b565b610f51565b3480156105b857600080fd5b506105cc6105c7366004613c54565b6111c0565b6040516103459190614011565b3480156105e557600080fd5b506103dd6105f4366004613c54565b61138b565b34801561060557600080fd5b50606e546104b1906001600160a01b031681565b34801561062557600080fd5b506103dd610634366004613abd565b611646565b6103dd610647366004613a71565b61172c565b34801561065857600080fd5b506103dd610667366004613c97565b6117e6565b34801561067857600080fd5b506103dd610687366004613a1b565b611848565b34801561069857600080fd5b506067546104b1906001600160a01b031681565b3480156106b857600080fd5b506103dd6106c7366004613cb9565b611b4f565b3480156106d857600080fd5b50610364600a81565b3480156106ed57600080fd5b506103dd6106fc366004613a01565b611b9f565b34801561070d57600080fd5b506103dd611cdc565b34801561072257600080fd5b5061036462013b0081565b34801561073957600080fd5b50610364619d8081565b34801561074f57600080fd5b50610364606a5481565b34801561076557600080fd5b506103dd610774366004613a01565b611d46565b34801561078557600080fd5b506072546104b1906001600160a01b031681565b3480156107a557600080fd5b50606d546104b1906001600160a01b031681565b3480156107c557600080fd5b50610364606c5481565b3480156107db57600080fd5b506103646107ea366004613ae6565b611e78565b3480156107fb57600080fd5b506103dd61080a366004613c54565b6123b5565b34801561081b57600080fd5b506103647f150214d74d59b7d1e90c73fc22ef3d991dd0a76b046543d4d80ab92d2a50328f81565b34801561084f57600080fd5b506108d261085e366004613c6c565b6040805160608101825260008082526020820181905291810191909152506000918252606f602090815260408084206001600160a01b03939093168452600d9092018152918190208151606081018352815460ff808216151583526101009091041693810193909352600101549082015290565b6040805182511515815260208084015160ff16908201529181015190820152606001610345565b34801561090557600080fd5b506103dd612702565b34801561091a57600080fd5b506065546104b1906001600160a01b031681565b34801561093a57600080fd5b506103dd610949366004613a01565b61282c565b34801561095a57600080fd5b50610364606b5481565b6103dd610972366004613c54565b612a14565b6065546001600160a01b031633146109ea5760405162461bcd60e51b815260206004820152602b60248201527f476f7665726e6f72427261766f3a3a5f736574566f74696e67506572696f643a60448201526a2061646d696e206f6e6c7960a81b60648201526084015b60405180910390fd5b600181101580156109fe575062013b008111155b610a695760405162461bcd60e51b815260206004820152603660248201527f476f7665726e6f72427261766f3a3a5f736574566f74696e67506572696f643a604482015275081a5b9d985b1a59081d9bdd1a5b99c81c195c9a5bd960521b60648201526084016109e1565b606980549082905560408051828152602081018490527f7e3f7f0708a84de9203036abaa450dccc85ad5ff52f78c170f3edb55cf5e882891015b60405180910390a15050565b6065546001600160a01b03163314610b1c5760405162461bcd60e51b815260206004820152602a60248201527f476f7665726e6f72427261766f3a3a5f736574566f74696e6744656c61793a2060448201526961646d696e206f6e6c7960b01b60648201526084016109e1565b60018110158015610b2f5750619d808111155b610b985760405162461bcd60e51b815260206004820152603460248201527f476f7665726e6f72427261766f3a3a5f736574566f74696e6744656c61793a20604482015273696e76616c696420766f74696e672064656c617960601b60648201526084016109e1565b606880549082905560408051828152602081018490527fc565b045403dc03c2eea82b81a0465edad9e2e7fc4d97e11421c209da93d7a939101610aa3565b6060806060806000606f600087815260200190815260200160002090508060030181600401826005018360060183805480602002602001604051908101604052809291908181526020018280548015610c5857602002820191906000526020600020905b81546001600160a01b03168152600190910190602001808311610c3a575b5050505050935082805480602002602001604051908101604052809291908181526020018280548015610caa57602002820191906000526020600020905b815481526020019060010190808311610c96575b5050505050925081805480602002602001604051908101604052809291908181526020016000905b82821015610d7e578382906000526020600020018054610cf1906142c1565b80601f0160208091040260200160405190810160405280929190818152602001828054610d1d906142c1565b8015610d6a5780601f10610d3f57610100808354040283529160200191610d6a565b820191906000526020600020905b815481529060010190602001808311610d4d57829003601f168201915b505050505081526020019060010190610cd2565b50505050915080805480602002602001604051908101604052809291908181526020016000905b82821015610e51578382906000526020600020018054610dc4906142c1565b80601f0160208091040260200160405190810160405280929190818152602001828054610df0906142c1565b8015610e3d5780601f10610e1257610100808354040283529160200191610e3d565b820191906000526020600020905b815481529060010190602001808311610e2057829003601f168201915b505050505081526020019060010190610da5565b5050505090509450945094509450509193509193565b306001600160a01b037f0000000000000000000000000000000000000000000000000000000000000000161415610eb05760405162461bcd60e51b81526004016109e19061404c565b7f00000000000000000000000000000000000000000000000000000000000000006001600160a01b0316610ee2612cf7565b6001600160a01b031614610f085760405162461bcd60e51b81526004016109e190614098565b610f1181612d25565b60408051600080825260208201909252610f2d91839190612d8d565b50565b6001600160a01b03811660009081526071602052604090205442105b919050565b604080518082018252601281527144414f20476f7665726e6f7220427261766f60701b60209182015281517f8cad95687ba82c2ce50e74f7b754645e5117c3a5bec8151c0726d5857980a866818301527f573b95fd0a084985a7a662f6070c491894af81fd46809f0eebc2112f7257b83e81840152466060820152306080808301919091528351808303909101815260a0820184528051908301207f150214d74d59b7d1e90c73fc22ef3d991dd0a76b046543d4d80ab92d2a50328f60c083015260e0820189905260ff8816610100808401919091528451808403909101815261012083019094528351939092019290922061190160f01b6101408401526101428301829052610162830181905290916000906101820160408051601f198184030181528282528051602091820120600080855291840180845281905260ff8a169284019290925260608301889052608083018790529092509060019060a0016020604051602081039080840390855afa1580156110d3573d6000803e3d6000fd5b5050604051601f1901519150506001600160a01b03811661114e5760405162461bcd60e51b815260206004820152602f60248201527f476f7665726e6f72427261766f3a3a63617374566f746542795369673a20696e60448201526e76616c6964207369676e617475726560881b60648201526084016109e1565b806001600160a01b03167fb8e138887d0aa13bab447e82de9d5c1777041ecd21ca36ba824ff1e6c07ddda48a8a611186858e8e612ed8565b6040805193845260ff90921660208401529082015260806060820181905260009082015260a00160405180910390a2505050505050505050565b600081606c54101580156111d55750606b5482115b6112335760405162461bcd60e51b815260206004820152602960248201527f476f7665726e6f72427261766f3a3a73746174653a20696e76616c69642070726044820152681bdc1bdcd85b081a5960ba1b60648201526084016109e1565b6000828152606f60205260409020600c81015460ff1615611258576002915050610f4c565b8060070154431161126d576000915050610f4c565b80600801544311611282576001915050610f4c565b80600a015481600901541115806112a45750670de0b6b3a76400008160090154105b156112b3576003915050610f4c565b60028101546112c6576004915050610f4c565b600c810154610100900460ff16156112e2576007915050610f4c565b6002810154606d54604080516360d143f160e11b8152905161136b93926001600160a01b03169163c1a287e2916004808301926020929190829003018186803b15801561132e57600080fd5b505afa158015611342573d6000803e3d6000fd5b505050506040513d601f19601f820116820180604052508101906113669190613bd2565b61319d565b421061137b576006915050610f4c565b6005915050610f4c565b50919050565b6007611396826111c0565b60078111156113b557634e487b7160e01b600052602160045260246000fd5b14156114225760405162461bcd60e51b815260206004820152603660248201527f476f7665726e6f72427261766f3a3a63616e63656c3a2063616e6e6f742063616044820152751b98d95b08195e1958dd5d1959081c1c9bdc1bdcd85b60521b60648201526084016109e1565b6000818152606f6020526040902060018101546001600160a01b031633146114b25760405162461bcd60e51b815260206004820152603860248201527f476f7665726e6f72427261766f3a3a63616e63656c3a204f746865722075736560448201527f722063616e6e6f742063616e63656c2070726f706f73616c000000000000000060648201526084016109e1565b600c8101805460ff1916600117905560005b600382015481101561161557606d546003830180546001600160a01b039092169163591fcdfe91908490811061150a57634e487b7160e01b600052603260045260246000fd5b6000918252602090912001546004850180546001600160a01b03909216918590811061154657634e487b7160e01b600052603260045260246000fd5b906000526020600020015485600501858154811061157457634e487b7160e01b600052603260045260246000fd5b906000526020600020018660060186815481106115a157634e487b7160e01b600052603260045260246000fd5b9060005260206000200187600201546040518663ffffffff1660e01b81526004016115d0959493929190613f80565b600060405180830381600087803b1580156115ea57600080fd5b505af11580156115fe573d6000803e3d6000fd5b50505050808061160d906142f6565b9150506114c4565b506040518281527f789cf55be980739dad1d0699b93b58e806b51c9d96619bfa8fe0a28abaa7b30c90602001610aa3565b6065546001600160a01b031633148061166957506072546001600160a01b031633145b6116db5760405162461bcd60e51b815260206004820152603960248201527f476f7665726e6f72427261766f3a3a5f73657457686974656c6973744163636f60448201527f756e7445787069726174696f6e3a2061646d696e206f6e6c790000000000000060648201526084016109e1565b6001600160a01b038216600081815260716020908152604091829020849055815192835282018390527f4e7b7545bc5744d0e30425959f4687475774b6c7edad77d24cb51c7d967d45159101610aa3565b306001600160a01b037f00000000000000000000000000000000000000000000000000000000000000001614156117755760405162461bcd60e51b81526004016109e19061404c565b7f00000000000000000000000000000000000000000000000000000000000000006001600160a01b03166117a7612cf7565b6001600160a01b0316146117cd5760405162461bcd60e51b81526004016109e190614098565b6117d682612d25565b6117e282826001612d8d565b5050565b337fb8e138887d0aa13bab447e82de9d5c1777041ecd21ca36ba824ff1e6c07ddda48383611815848383612ed8565b6040805193845260ff90921660208401529082015260806060820181905260009082015260a00160405180910390a25050565b600054610100900460ff166118635760005460ff1615611867565b303b155b6118ca5760405162461bcd60e51b815260206004820152602e60248201527f496e697469616c697a61626c653a20636f6e747261637420697320616c72656160448201526d191e481a5b9a5d1a585b1a5e995960921b60648201526084016109e1565b600054610100900460ff161580156118f5576000805460ff1961ff0019909116610100171660011790555b606d546001600160a01b03161561196a5760405162461bcd60e51b815260206004820152603360248201527f476f7665726e6f72427261766f3a3a696e697469616c697a653a2063616e206f6044820152726e6c7920696e697469616c697a65206f6e636560681b60648201526084016109e1565b6001600160a01b0386166119ca5760405162461bcd60e51b8152602060048201526033602482015260008051602061433e83398151915260448201527269642074696d656c6f636b206164647265737360681b60648201526084016109e1565b6001600160a01b0385166119f05760405162461bcd60e51b81526004016109e1906140e4565b6001600160a01b038216611a165760405162461bcd60e51b81526004016109e1906140e4565b60018410158015611a2a575062013b008411155b611a7d5760405162461bcd60e51b8152602060048201526030602482015260008051602061433e83398151915260448201526f1a59081d9bdd1a5b99c81c195c9a5bd960821b60648201526084016109e1565b60018310158015611a905750619d808311155b611ae25760405162461bcd60e51b815260206004820152602f602482015260008051602061433e83398151915260448201526e696420766f74696e672064656c617960881b60648201526084016109e1565b606d80546001600160a01b038089166001600160a01b03199283168117909355606e805489831690841617905560738054918616918316919091179055606986905560688590556065805490911690911790558015611b47576000805461ff00191690555b505050505050565b337fb8e138887d0aa13bab447e82de9d5c1777041ecd21ca36ba824ff1e6c07ddda48585611b7e848383612ed8565b8686604051611b919594939291906141b9565b60405180910390a250505050565b6001600160a01b038116611c0f5760405162461bcd60e51b815260206004820152603160248201527f476f7665726e6f72427261766f3a5f73657457686974656c697374477561726460448201527069616e3a207a65726f206164647265737360781b60648201526084016109e1565b6065546001600160a01b03163314611c825760405162461bcd60e51b815260206004820152603060248201527f476f7665726e6f72427261766f3a3a5f73657457686974656c6973744775617260448201526f6469616e3a2061646d696e206f6e6c7960801b60648201526084016109e1565b607280546001600160a01b038381166001600160a01b031983161792839055604080519282168084529390911660208301527f80a07e73e552148844a9c216d9724212d609cfa54e9c1a2e97203bdd2c4ad3419101610aa3565b606d60009054906101000a90046001600160a01b03166001600160a01b0316630e18b6816040518163ffffffff1660e01b8152600401600060405180830381600087803b158015611d2c57600080fd5b505af1158015611d40573d6000803e3d6000fd5b50505050565b6001600160a01b038116611db15760405162461bcd60e51b815260206004820152602c60248201527f476f7665726e6f72427261766f3a5f73657450656e64696e6741646d696e3a2060448201526b7a65726f206164647265737360a01b60648201526084016109e1565b6065546001600160a01b03163314611e1e5760405162461bcd60e51b815260206004820152602a60248201527f476f7665726e6f72427261766f3a5f73657450656e64696e6741646d696e3a2060448201526961646d696e206f6e6c7960b01b60648201526084016109e1565b606680546001600160a01b038381166001600160a01b031983168117909355604080519190921680825260208201939093527fca4f2f25d0898edd99413412fb94012f9e54ec8142f9b093e7720646a95b16a99101610aa3565b6073546040516370a0823160e01b815233600482015260009182916001600160a01b03909116906370a082319060240160206040518083038186803b158015611ec057600080fd5b505afa158015611ed4573d6000803e3d6000fd5b505050506040513d601f19601f82011682018060405250810190611ef89190613bd2565b11611f505760405162461bcd60e51b815260206004820152602260248201527f476f7665726e6f72427261766f3a3a70726f706f73653a206f6e6c792076616c60448201526130b960f11b60648201526084016109e1565b84518651148015611f62575083518651145b8015611f6f575082518651145b611fef5760405162461bcd60e51b8152602060048201526044602482018190527f476f7665726e6f72427261766f3a3a70726f706f73653a2070726f706f73616c908201527f2066756e6374696f6e20696e666f726d6174696f6e206172697479206d69736d6064820152630c2e8c6d60e31b608482015260a4016109e1565b600a865111156120525760405162461bcd60e51b815260206004820152602860248201527f476f7665726e6f72427261766f3a3a70726f706f73653a20746f6f206d616e7960448201526720616374696f6e7360c01b60648201526084016109e1565b3360009081526070602052604090205480156121ef576000612073826111c0565b9050600181600781111561209757634e487b7160e01b600052602160045260246000fd5b14156121315760405162461bcd60e51b815260206004820152605860248201527f476f7665726e6f72427261766f3a3a70726f706f73653a206f6e65206c69766560448201527f2070726f706f73616c207065722070726f706f7365722c20666f756e6420616e60648201527f20616c7265616479206163746976652070726f706f73616c0000000000000000608482015260a4016109e1565b600081600781111561215357634e487b7160e01b600052602160045260246000fd5b14156121ed5760405162461bcd60e51b815260206004820152605960248201527f476f7665726e6f72427261766f3a3a70726f706f73653a206f6e65206c69766560448201527f2070726f706f73616c207065722070726f706f7365722c20666f756e6420616e60648201527f20616c72656164792070656e64696e672070726f706f73616c00000000000000608482015260a4016109e1565b505b60006121fd4360685461319d565b9050600061220d8260695461319d565b606c8054919250600061221f836142f6565b9091555050606c546000818152606f6020908152604082209283556001830180546001600160a01b0319163317905560028301919091558a5161226a916003840191908d01906135c6565b50885161228090600483019060208c019061362b565b50875161229690600583019060208b0190613666565b5086516122ac90600683019060208a01906136bf565b5082816007018190555081816008018190555060008160090181905550600081600a0181905550600081600b0181905550600081600c0160006101000a81548160ff021916908315150217905550600081600c0160016101000a81548160ff0219169083151502179055508060000154607060008360010160009054906101000a90046001600160a01b03166001600160a01b03166001600160a01b03168152602001908152602001600020819055507f7d84a6263ae0d98d3329bd7b46bb4e8d6f98cd35a7adb45c274c8b7fd5ebd5e08160000154338c8c8c8c89898e60405161239f99989796959493929190614121565b60405180910390a1549998505050505050505050565b60046123c0826111c0565b60078111156123df57634e487b7160e01b600052602160045260246000fd5b146124605760405162461bcd60e51b8152602060048201526044602482018190527f476f7665726e6f72427261766f3a3a71756575653a2070726f706f73616c2063908201527f616e206f6e6c79206265207175657565642069662069742069732073756363656064820152631959195960e21b608482015260a4016109e1565b6000818152606f60209081526040808320606d548251630d48571f60e31b815292519194936124ba9342936001600160a01b0390931692636a42b8f892600480840193919291829003018186803b15801561132e57600080fd5b905060005b60038301548110156126bc576126aa8360030182815481106124f157634e487b7160e01b600052603260045260246000fd5b6000918252602090912001546004850180546001600160a01b03909216918490811061252d57634e487b7160e01b600052603260045260246000fd5b906000526020600020015485600501848154811061255b57634e487b7160e01b600052603260045260246000fd5b906000526020600020018054612570906142c1565b80601f016020809104026020016040519081016040528092919081815260200182805461259c906142c1565b80156125e95780601f106125be576101008083540402835291602001916125e9565b820191906000526020600020905b8154815290600101906020018083116125cc57829003601f168201915b505050505086600601858154811061261157634e487b7160e01b600052603260045260246000fd5b906000526020600020018054612626906142c1565b80601f0160208091040260200160405190810160405280929190818152602001828054612652906142c1565b801561269f5780601f106126745761010080835404028352916020019161269f565b820191906000526020600020905b81548152906001019060200180831161268257829003601f168201915b5050505050866131f0565b806126b4816142f6565b9150506124bf565b506002820181905560408051848152602081018390527f9a2e42fd6722813d69113e7d0079d3d940171428df7373df9c7f7617cfda2892910160405180910390a1505050565b6066546001600160a01b03163314801561271b57503315155b61277e5760405162461bcd60e51b815260206004820152602e60248201527f476f7665726e6f72427261766f3a5f61636365707441646d696e3a2070656e6460448201526d696e672061646d696e206f6e6c7960901b60648201526084016109e1565b60658054606680546001600160a01b038082166001600160a01b031980861682179687905590921690925560408051938316808552949092166020840152917ff9ffabca9c8276e99321725bcb43fb076a6c66a54b7f21c4e8146d8519b417dc910160405180910390a1606654604080516001600160a01b03808516825290921660208301527fca4f2f25d0898edd99413412fb94012f9e54ec8142f9b093e7720646a95b16a99101610aa3565b6065546001600160a01b031633146128925760405162461bcd60e51b8152602060048201526024808201527f476f7665726e6f72427261766f3a3a5f696e6974696174653a2061646d696e206044820152636f6e6c7960e01b60648201526084016109e1565b606b54156128fb5760405162461bcd60e51b815260206004820152603060248201527f476f7665726e6f72427261766f3a3a5f696e6974696174653a2063616e206f6e60448201526f6c7920696e697469617465206f6e636560801b60648201526084016109e1565b806001600160a01b031663da35c6646040518163ffffffff1660e01b8152600401602060405180830381600087803b15801561293657600080fd5b505af115801561294a573d6000803e3d6000fd5b505050506040513d601f19601f8201168201806040525081019061296e9190613bd2565b606c819055606b55606d5460408051630e18b68160e01b815290516001600160a01b0390921691630e18b6819160048082019260009290919082900301818387803b1580156129bc57600080fd5b505af11580156129d0573d6000803e3d6000fd5b50506040516001600160a01b03841681527fc6055e6fe22e34bcdffce73c5d2968b6b2b71a5202db09bf28a9cda3002c479a9250602001905060405180910390a150565b6005612a1f826111c0565b6007811115612a3e57634e487b7160e01b600052602160045260246000fd5b14612abf5760405162461bcd60e51b815260206004820152604560248201527f476f7665726e6f72427261766f3a3a657865637574653a2070726f706f73616c60448201527f2063616e206f6e6c7920626520657865637574656420696620697420697320716064820152641d595d595960da1b608482015260a4016109e1565b6000818152606f60205260409020600c8101805461ff0019166101001790556003810154612b20576040518281527f712ae1383f79ac853f8d882153778e0260ef8f03b504e2866e0593e04d2b291f9060200160405180910390a150610f2d565b60005b6003820154811015612cc657606d546004830180546001600160a01b0390921691630825f38f919084908110612b6957634e487b7160e01b600052603260045260246000fd5b9060005260206000200154846003018481548110612b9757634e487b7160e01b600052603260045260246000fd5b6000918252602090912001546004860180546001600160a01b039092169186908110612bd357634e487b7160e01b600052603260045260246000fd5b9060005260206000200154866005018681548110612c0157634e487b7160e01b600052603260045260246000fd5b90600052602060002001876006018781548110612c2e57634e487b7160e01b600052603260045260246000fd5b9060005260206000200188600201546040518763ffffffff1660e01b8152600401612c5d959493929190613f80565b6000604051808303818588803b158015612c7657600080fd5b505af1158015612c8a573d6000803e3d6000fd5b50505050506040513d6000823e601f3d908101601f19168201604052612cb39190810190613bea565b5080612cbe816142f6565b915050612b23565b506040518281527f712ae1383f79ac853f8d882153778e0260ef8f03b504e2866e0593e04d2b291f90602001610aa3565b7f360894a13ba1a3210667c828492db98dca3e2076cc3735a920a3ca505d382bbc546001600160a01b031690565b6065546001600160a01b03163314610f2d5760405162461bcd60e51b815260206004820152602560248201527f4f6e6c792061646d696e2063616e207570677261646520696d706c656d656e7460448201526430ba34b7b760d91b60648201526084016109e1565b6000612d97612cf7565b9050612da2846133bd565b600083511180612daf5750815b15612dc057612dbe8484613462565b505b7f4910fdfa16fed3260ed0e7147f7cc6da11a60208b5b9406d12a635614ffd9143805460ff16612ed157805460ff191660011781556040516001600160a01b0383166024820152612e3f90869060440160408051601f198184030181529190526020810180516001600160e01b0316631b2ce7f360e11b179052613462565b50805460ff19168155612e50612cf7565b6001600160a01b0316826001600160a01b031614612ec85760405162461bcd60e51b815260206004820152602f60248201527f45524331393637557067726164653a207570677261646520627265616b73206660448201526e75727468657220757067726164657360881b60648201526084016109e1565b612ed18561354d565b5050505050565b60006001612ee5846111c0565b6007811115612f0457634e487b7160e01b600052602160045260246000fd5b14612f6b5760405162461bcd60e51b815260206004820152603160248201527f476f7665726e6f72427261766f3a3a63617374566f7465496e7465726e616c3a604482015270081d9bdd1a5b99c81a5cc818db1bdcd959607a1b60648201526084016109e1565b60028260ff161115612fda5760405162461bcd60e51b815260206004820152603260248201527f476f7665726e6f72427261766f3a3a63617374566f7465496e7465726e616c3a60448201527120696e76616c696420766f7465207479706560701b60648201526084016109e1565b6000838152606f602090815260408083206001600160a01b0388168452600d8101909252909120805460ff16156130705760405162461bcd60e51b815260206004820152603460248201527f476f7665726e6f72427261766f3a3a63617374566f7465496e7465726e616c3a604482015273081d9bdd195c88185b1c9958591e481d9bdd195960621b60648201526084016109e1565b606e546007830154604051630748d63560e31b81526000926001600160a01b031691633a46b1a8916130ba918b916004016001600160a01b03929092168252602082015260400190565b60206040518083038186803b1580156130d257600080fd5b505afa1580156130e6573d6000803e3d6000fd5b505050506040513d601f19601f8201168201806040525081019061310a9190613bd2565b905060ff851661312c5761312283600a01548261319d565b600a840155613170565b8460ff16600114156131505761314683600901548261319d565b6009840155613170565b8460ff16600214156131705761316a83600b01548261319d565b600b8401555b8154600160ff19909116811761ff00191661010060ff8816021783559091018190559150505b9392505050565b6000806131aa838561427d565b9050838110156131965760405162461bcd60e51b81526020600482015260116024820152706164646974696f6e206f766572666c6f7760781b60448201526064016109e1565b606d546040516001600160a01b039091169063f2b065379061321e9088908890889088908890602001613f34565b604051602081830303815290604052805190602001206040518263ffffffff1660e01b815260040161325291815260200190565b60206040518083038186803b15801561326a57600080fd5b505afa15801561327e573d6000803e3d6000fd5b505050506040513d601f19601f820116820180604052508101906132a29190613bb2565b156133335760405162461bcd60e51b815260206004820152605560248201527f476f7665726e6f72427261766f3a3a71756575654f72526576657274496e746560448201527f726e616c3a206964656e746963616c2070726f706f73616c20616374696f6e20606482015274616c7265616479207175657565642061742065746160581b608482015260a4016109e1565b606d54604051633a66f90160e01b81526001600160a01b0390911690633a66f9019061336b9088908890889088908890600401613f34565b602060405180830381600087803b15801561338557600080fd5b505af1158015613399573d6000803e3d6000fd5b505050506040513d601f19601f82011682018060405250810190611b479190613bd2565b803b6134215760405162461bcd60e51b815260206004820152602d60248201527f455243313936373a206e657720696d706c656d656e746174696f6e206973206e60448201526c1bdd08184818dbdb9d1c9858dd609a1b60648201526084016109e1565b7f360894a13ba1a3210667c828492db98dca3e2076cc3735a920a3ca505d382bbc80546001600160a01b0319166001600160a01b0392909216919091179055565b6060823b6134c15760405162461bcd60e51b815260206004820152602660248201527f416464726573733a2064656c65676174652063616c6c20746f206e6f6e2d636f6044820152651b9d1c9858dd60d21b60648201526084016109e1565b600080846001600160a01b0316846040516134dc9190613f18565b600060405180830381855af49150503d8060008114613517576040519150601f19603f3d011682016040523d82523d6000602084013e61351c565b606091505b5091509150613544828260405180606001604052806027815260200161435e6027913961358d565b95945050505050565b613556816133bd565b6040516001600160a01b038216907fbc7cd75a20ee27fd9adebab32041f755214dbc6bffa90cc0225b39da2e5c2d3b90600090a250565b6060831561359c575081613196565b8251156135ac5782518084602001fd5b8160405162461bcd60e51b81526004016109e19190614039565b82805482825590600052602060002090810192821561361b579160200282015b8281111561361b57825182546001600160a01b0319166001600160a01b039091161782556020909201916001909101906135e6565b50613627929150613718565b5090565b82805482825590600052602060002090810192821561361b579160200282015b8281111561361b57825182559160200191906001019061364b565b8280548282559060005260206000209081019282156136b3579160200282015b828111156136b357825180516136a391849160209091019061372d565b5091602001919060010190613686565b506136279291506137a0565b82805482825590600052602060002090810192821561370c579160200282015b8281111561370c57825180516136fc91849160209091019061372d565b50916020019190600101906136df565b506136279291506137bd565b5b808211156136275760008155600101613719565b828054613739906142c1565b90600052602060002090601f01602090048101928261375b576000855561361b565b82601f1061377457805160ff191683800117855561361b565b8280016001018555821561361b579182018281111561361b57825182559160200191906001019061364b565b808211156136275760006137b482826137da565b506001016137a0565b808211156136275760006137d182826137da565b506001016137bd565b5080546137e6906142c1565b6000825580601f106137f85750610f2d565b601f016020900490600052602060002090810190610f2d9190613718565b80356001600160a01b0381168114610f4c57600080fd5b600082601f83011261383d578081fd5b8135602061385261384d83614231565b614200565b828152818101908583018385028701840188101561386e578586fd5b855b858110156138935761388182613816565b84529284019290840190600101613870565b5090979650505050505050565b600082601f8301126138b0578081fd5b813560206138c061384d83614231565b82815281810190858301855b85811015613893576138e3898684358b01016139a4565b845292840192908401906001016138cc565b600082601f830112613905578081fd5b8135602061391561384d83614231565b82815281810190858301855b8581101561389357613938898684358b01016139a4565b84529284019290840190600101613921565b600082601f83011261395a578081fd5b8135602061396a61384d83614231565b8281528181019085830183850287018401881015613986578586fd5b855b8581101561389357813584529284019290840190600101613988565b600082601f8301126139b4578081fd5b81356139c261384d82614255565b8181528460208386010111156139d6578283fd5b816020850160208301379081016020019190915292915050565b803560ff81168114610f4c57600080fd5b600060208284031215613a12578081fd5b61319682613816565b600080600080600060a08688031215613a32578081fd5b613a3b86613816565b9450613a4960208701613816565b93506040860135925060608601359150613a6560808701613816565b90509295509295909350565b60008060408385031215613a83578182fd5b613a8c83613816565b9150602083013567ffffffffffffffff811115613aa7578182fd5b613ab3858286016139a4565b9150509250929050565b60008060408385031215613acf578182fd5b613ad883613816565b946020939093013593505050565b600080600080600060a08688031215613afd578283fd5b853567ffffffffffffffff80821115613b14578485fd5b613b2089838a0161382d565b96506020880135915080821115613b35578485fd5b613b4189838a0161394a565b95506040880135915080821115613b56578485fd5b613b6289838a016138f5565b94506060880135915080821115613b77578283fd5b613b8389838a016138a0565b93506080880135915080821115613b98578283fd5b50613ba5888289016139a4565b9150509295509295909350565b600060208284031215613bc3578081fd5b81518015158114613196578182fd5b600060208284031215613be3578081fd5b5051919050565b600060208284031215613bfb578081fd5b815167ffffffffffffffff811115613c11578182fd5b8201601f81018413613c21578182fd5b8051613c2f61384d82614255565b818152856020838501011115613c43578384fd5b613544826020830160208601614295565b600060208284031215613c65578081fd5b5035919050565b60008060408385031215613c7e578182fd5b82359150613c8e60208401613816565b90509250929050565b60008060408385031215613ca9578182fd5b82359150613c8e602084016139f0565b60008060008060608587031215613cce578182fd5b84359350613cde602086016139f0565b9250604085013567ffffffffffffffff80821115613cfa578384fd5b818701915087601f830112613d0d578384fd5b813581811115613d1b578485fd5b886020828501011115613d2c578485fd5b95989497505060200194505050565b600080600080600060a08688031215613d52578283fd5b85359450613d62602087016139f0565b9350613d70604087016139f0565b94979396509394606081013594506080013592915050565b6000815180845260208085019450808401835b83811015613dc05781516001600160a01b031687529582019590820190600101613d9b565b509495945050505050565b6000815180845260208085018081965082840281019150828601855b85811015613e11578284038952613dff848351613e4d565b98850198935090840190600101613de7565b5091979650505050505050565b6000815180845260208085019450808401835b83811015613dc057815187529582019590820190600101613e31565b60008151808452613e65816020860160208601614295565b601f01601f19169290920160200192915050565b805460009060028104600180831680613e9357607f831692505b6020808410821415613eb357634e487b7160e01b86526022600452602486fd5b838852818015613eca5760018114613ede57613f0c565b60ff19861689830152604089019650613f0c565b876000528160002060005b86811015613f045781548b8201850152908501908301613ee9565b8a0183019750505b50505050505092915050565b60008251613f2a818460208701614295565b9190910192915050565b600060018060a01b038716825285602083015260a06040830152613f5b60a0830186613e4d565b8281036060840152613f6d8186613e4d565b9150508260808301529695505050505050565b600060018060a01b038716825285602083015260a06040830152613fa760a0830186613e79565b8281036060840152613f6d8186613e79565b600060808252613fcc6080830187613d88565b8281036020840152613fde8187613e1e565b90508281036040840152613ff28186613dcb565b905082810360608401526140068185613dcb565b979650505050505050565b602081016008831061403357634e487b7160e01b600052602160045260246000fd5b91905290565b6000602082526131966020830184613e4d565b6020808252602c908201527f46756e6374696f6e206d7573742062652063616c6c6564207468726f7567682060408201526b19195b1959d85d1958d85b1b60a21b606082015260800190565b6020808252602c908201527f46756e6374696f6e206d7573742062652063616c6c6564207468726f7567682060408201526b6163746976652070726f787960a01b606082015260800190565b6020808252602f9082015260008051602061433e83398151915260408201526e6964206d616961206164647265737360881b606082015260800190565b8981526001600160a01b03891660208201526101206040820181905260009061414c8382018b613d88565b90508281036060840152614160818a613e1e565b905082810360808401526141748189613dcb565b905082810360a08401526141888188613dcb565b90508560c08401528460e08401528281036101008401526141a98185613e4d565b9c9b505050505050505050505050565b600086825260ff8616602083015284604083015260806060830152826080830152828460a084013781830160a090810191909152601f909201601f19160101949350505050565b604051601f8201601f1916810167ffffffffffffffff8111828210171561422957614229614327565b604052919050565b600067ffffffffffffffff82111561424b5761424b614327565b5060209081020190565b600067ffffffffffffffff82111561426f5761426f614327565b50601f01601f191660200190565b6000821982111561429057614290614311565b500190565b60005b838110156142b0578181015183820152602001614298565b83811115611d405750506000910152565b6002810460018216806142d557607f821691505b6020821081141561138557634e487b7160e01b600052602260045260246000fd5b600060001982141561430a5761430a614311565b5060010190565b634e487b7160e01b600052601160045260246000fd5b634e487b7160e01b600052604160045260246000fdfe476f7665726e6f72427261766f3a3a696e697469616c697a653a20696e76616c416464726573733a206c6f772d6c6576656c2064656c65676174652063616c6c206661696c6564a26469706673582212200f0db52a9d06eab064ba0c8ca5bf9d990ad760ab3d092888ea45c59208898cd664736f6c63430008020033",
  "linkReferences": {},
  "deployedLinkReferences": {}
}