{
  "_format": "hh-sol-artifact-1",
  "contractName": "GovernorBravoDelegate",
  "sourceName": "contracts/governance.sol",
  "abi": [
    {
      "anonymous": false,
      "inputs": [
        {
          "indexed": false,
          "internalType": "address",
          "name": "previousAdmin",
          "type": "address"
        },
        {
          "indexed": false,
          "internalType": "address",
          "name": "newAdmin",
          "type": "address"
        }
      ],
      "name": "AdminChanged",
      "type": "event"
    },
    {
      "anonymous": false,
      "inputs": [
        {
          "indexed": true,
          "internalType": "address",
          "name": "beacon",
          "type": "address"
        }
      ],
      "name": "BeaconUpgraded",
      "type": "event"
    },
    {
      "anonymous": false,
      "inputs": [
        {
          "indexed": false,
          "internalType": "address",
          "name": "governanceAddress",
          "type": "address"
        }
      ],
      "name": "GovernanceInitiated",
      "type": "event"
    },
    {
      "anonymous": false,
      "inputs": [
        {
          "indexed": false,
          "internalType": "address",
          "name": "investee",
          "type": "address"
        },
        {
          "indexed": false,
          "internalType": "uint256",
          "name": "id",
          "type": "uint256"
        }
      ],
      "name": "InvesteeFunded",
      "type": "event"
    },
    {
      "anonymous": false,
      "inputs": [
        {
          "indexed": false,
          "internalType": "address",
          "name": "investee",
          "type": "address"
        },
        {
          "indexed": false,
          "internalType": "uint256",
          "name": "id",
          "type": "uint256"
        }
      ],
      "name": "InvesteeSet",
      "type": "event"
    },
    {
      "anonymous": false,
      "inputs": [
        {
          "indexed": false,
          "internalType": "address",
          "name": "oldAdmin",
          "type": "address"
        },
        {
          "indexed": false,
          "internalType": "address",
          "name": "newAdmin",
          "type": "address"
        }
      ],
      "name": "NewAdmin",
      "type": "event"
    },
    {
      "anonymous": false,
      "inputs": [
        {
          "indexed": false,
          "internalType": "address",
          "name": "oldImplementation",
          "type": "address"
        },
        {
          "indexed": false,
          "internalType": "address",
          "name": "newImplementation",
          "type": "address"
        }
      ],
      "name": "NewImplementation",
      "type": "event"
    },
    {
      "anonymous": false,
      "inputs": [
        {
          "indexed": false,
          "internalType": "address",
          "name": "oldPendingAdmin",
          "type": "address"
        },
        {
          "indexed": false,
          "internalType": "address",
          "name": "newPendingAdmin",
          "type": "address"
        }
      ],
      "name": "NewPendingAdmin",
      "type": "event"
    },
    {
      "anonymous": false,
      "inputs": [
        {
          "indexed": false,
          "internalType": "uint256",
          "name": "id",
          "type": "uint256"
        }
      ],
      "name": "ProposalCanceled",
      "type": "event"
    },
    {
      "anonymous": false,
      "inputs": [
        {
          "indexed": false,
          "internalType": "uint256",
          "name": "id",
          "type": "uint256"
        },
        {
          "indexed": false,
          "internalType": "address",
          "name": "proposer",
          "type": "address"
        },
        {
          "indexed": false,
          "internalType": "address[]",
          "name": "targets",
          "type": "address[]"
        },
        {
          "indexed": false,
          "internalType": "uint256[]",
          "name": "values",
          "type": "uint256[]"
        },
        {
          "indexed": false,
          "internalType": "string[]",
          "name": "signatures",
          "type": "string[]"
        },
        {
          "indexed": false,
          "internalType": "bytes[]",
          "name": "calldatas",
          "type": "bytes[]"
        },
        {
          "indexed": false,
          "internalType": "uint256",
          "name": "startBlock",
          "type": "uint256"
        },
        {
          "indexed": false,
          "internalType": "uint256",
          "name": "endBlock",
          "type": "uint256"
        },
        {
          "indexed": false,
          "internalType": "string",
          "name": "description",
          "type": "string"
        }
      ],
      "name": "ProposalCreated",
      "type": "event"
    },
    {
      "anonymous": false,
      "inputs": [
        {
          "indexed": false,
          "internalType": "uint256",
          "name": "id",
          "type": "uint256"
        }
      ],
      "name": "ProposalExecuted",
      "type": "event"
    },
    {
      "anonymous": false,
      "inputs": [
        {
          "indexed": false,
          "internalType": "uint256",
          "name": "id",
          "type": "uint256"
        },
        {
          "indexed": false,
          "internalType": "uint256",
          "name": "eta",
          "type": "uint256"
        }
      ],
      "name": "ProposalQueued",
      "type": "event"
    },
    {
      "anonymous": false,
      "inputs": [
        {
          "indexed": false,
          "internalType": "uint256",
          "name": "oldProposalThreshold",
          "type": "uint256"
        },
        {
          "indexed": false,
          "internalType": "uint256",
          "name": "newProposalThreshold",
          "type": "uint256"
        }
      ],
      "name": "ProposalThresholdSet",
      "type": "event"
    },
    {
      "anonymous": false,
      "inputs": [
        {
          "indexed": true,
          "internalType": "address",
          "name": "implementation",
          "type": "address"
        }
      ],
      "name": "Upgraded",
      "type": "event"
    },
    {
      "anonymous": false,
      "inputs": [
        {
          "indexed": true,
          "internalType": "address",
          "name": "voter",
          "type": "address"
        },
        {
          "indexed": false,
          "internalType": "uint256",
          "name": "proposalId",
          "type": "uint256"
        },
        {
          "indexed": false,
          "internalType": "uint8",
          "name": "support",
          "type": "uint8"
        },
        {
          "indexed": false,
          "internalType": "uint256",
          "name": "votes",
          "type": "uint256"
        },
        {
          "indexed": false,
          "internalType": "string",
          "name": "reason",
          "type": "string"
        }
      ],
      "name": "VoteCast",
      "type": "event"
    },
    {
      "anonymous": false,
      "inputs": [
        {
          "indexed": false,
          "internalType": "uint256",
          "name": "oldVotingDelay",
          "type": "uint256"
        },
        {
          "indexed": false,
          "internalType": "uint256",
          "name": "newVotingDelay",
          "type": "uint256"
        }
      ],
      "name": "VotingDelaySet",
      "type": "event"
    },
    {
      "anonymous": false,
      "inputs": [
        {
          "indexed": false,
          "internalType": "uint256",
          "name": "oldVotingPeriod",
          "type": "uint256"
        },
        {
          "indexed": false,
          "internalType": "uint256",
          "name": "newVotingPeriod",
          "type": "uint256"
        }
      ],
      "name": "VotingPeriodSet",
      "type": "event"
    },
    {
      "anonymous": false,
      "inputs": [
        {
          "indexed": false,
          "internalType": "address",
          "name": "account",
          "type": "address"
        },
        {
          "indexed": false,
          "internalType": "uint256",
          "name": "expiration",
          "type": "uint256"
        }
      ],
      "name": "WhitelistAccountExpirationSet",
      "type": "event"
    },
    {
      "anonymous": false,
      "inputs": [
        {
          "indexed": false,
          "internalType": "address",
          "name": "oldGuardian",
          "type": "address"
        },
        {
          "indexed": false,
          "internalType": "address",
          "name": "newGuardian",
          "type": "address"
        }
      ],
      "name": "WhitelistGuardianSet",
      "type": "event"
    },
    {
      "inputs": [],
      "name": "BALLOT_TYPEHASH",
      "outputs": [
        {
          "internalType": "bytes32",
          "name": "",
          "type": "bytes32"
        }
      ],
      "stateMutability": "view",
      "type": "function"
    },
    {
      "inputs": [],
      "name": "DOMAIN_TYPEHASH",
      "outputs": [
        {
          "internalType": "bytes32",
          "name": "",
          "type": "bytes32"
        }
      ],
      "stateMutability": "view",
      "type": "function"
    },
    {
      "inputs": [],
      "name": "MAX_PROPOSAL_THRESHOLD",
      "outputs": [
        {
          "internalType": "uint256",
          "name": "",
          "type": "uint256"
        }
      ],
      "stateMutability": "view",
      "type": "function"
    },
    {
      "inputs": [],
      "name": "MAX_VOTING_DELAY",
      "outputs": [
        {
          "internalType": "uint256",
          "name": "",
          "type": "uint256"
        }
      ],
      "stateMutability": "view",
      "type": "function"
    },
    {
      "inputs": [],
      "name": "MAX_VOTING_PERIOD",
      "outputs": [
        {
          "internalType": "uint256",
          "name": "",
          "type": "uint256"
        }
      ],
      "stateMutability": "view",
      "type": "function"
    },
    {
      "inputs": [],
      "name": "MIN_PROPOSAL_THRESHOLD",
      "outputs": [
        {
          "internalType": "uint256",
          "name": "",
          "type": "uint256"
        }
      ],
      "stateMutability": "view",
      "type": "function"
    },
    {
      "inputs": [],
      "name": "MIN_VOTING_DELAY",
      "outputs": [
        {
          "internalType": "uint256",
          "name": "",
          "type": "uint256"
        }
      ],
      "stateMutability": "view",
      "type": "function"
    },
    {
      "inputs": [],
      "name": "MIN_VOTING_PERIOD",
      "outputs": [
        {
          "internalType": "uint256",
          "name": "",
          "type": "uint256"
        }
      ],
      "stateMutability": "view",
      "type": "function"
    },
    {
      "inputs": [],
      "name": "_AcceptTimelockAdmin",
      "outputs": [],
      "stateMutability": "nonpayable",
      "type": "function"
    },
    {
      "inputs": [],
      "name": "_acceptAdmin",
      "outputs": [],
      "stateMutability": "nonpayable",
      "type": "function"
    },
    {
      "inputs": [],
      "name": "_fundInvestee",
      "outputs": [
        {
          "internalType": "address",
          "name": "",
          "type": "address"
        }
      ],
      "stateMutability": "nonpayable",
      "type": "function"
    },
    {
      "inputs": [
        {
          "internalType": "address",
          "name": "governorAlpha",
          "type": "address"
        }
      ],
      "name": "_initiate",
      "outputs": [],
      "stateMutability": "nonpayable",
      "type": "function"
    },
    {
      "inputs": [
        {
          "internalType": "address",
          "name": "_investee",
          "type": "address"
        }
      ],
      "name": "_setInvesteeDetails",
      "outputs": [],
      "stateMutability": "nonpayable",
      "type": "function"
    },
    {
      "inputs": [
        {
          "internalType": "address",
          "name": "newPendingAdmin",
          "type": "address"
        }
      ],
      "name": "_setPendingAdmin",
      "outputs": [],
      "stateMutability": "nonpayable",
      "type": "function"
    },
    {
      "inputs": [
        {
          "internalType": "uint256",
          "name": "newProposalThreshold",
          "type": "uint256"
        }
      ],
      "name": "_setProposalThreshold",
      "outputs": [],
      "stateMutability": "nonpayable",
      "type": "function"
    },
    {
      "inputs": [
        {
          "internalType": "uint256",
          "name": "newVotingDelay",
          "type": "uint256"
        }
      ],
      "name": "_setVotingDelay",
      "outputs": [],
      "stateMutability": "nonpayable",
      "type": "function"
    },
    {
      "inputs": [
        {
          "internalType": "uint256",
          "name": "newVotingPeriod",
          "type": "uint256"
        }
      ],
      "name": "_setVotingPeriod",
      "outputs": [],
      "stateMutability": "nonpayable",
      "type": "function"
    },
    {
      "inputs": [
        {
          "internalType": "address",
          "name": "account",
          "type": "address"
        },
        {
          "internalType": "uint256",
          "name": "expiration",
          "type": "uint256"
        }
      ],
      "name": "_setWhitelistAccountExpiration",
      "outputs": [],
      "stateMutability": "nonpayable",
      "type": "function"
    },
    {
      "inputs": [
        {
          "internalType": "address",
          "name": "account",
          "type": "address"
        }
      ],
      "name": "_setWhitelistGuardian",
      "outputs": [],
      "stateMutability": "nonpayable",
      "type": "function"
    },
    {
      "inputs": [],
      "name": "admin",
      "outputs": [
        {
          "internalType": "address",
          "name": "",
          "type": "address"
        }
      ],
      "stateMutability": "view",
      "type": "function"
    },
    {
      "inputs": [
        {
          "internalType": "uint256",
          "name": "proposalId",
          "type": "uint256"
        }
      ],
      "name": "cancel",
      "outputs": [],
      "stateMutability": "nonpayable",
      "type": "function"
    },
    {
      "inputs": [
        {
          "internalType": "uint256",
          "name": "proposalId",
          "type": "uint256"
        },
        {
          "internalType": "uint8",
          "name": "support",
          "type": "uint8"
        }
      ],
      "name": "castVote",
      "outputs": [],
      "stateMutability": "nonpayable",
      "type": "function"
    },
    {
      "inputs": [
        {
          "internalType": "uint256",
          "name": "proposalId",
          "type": "uint256"
        },
        {
          "internalType": "uint8",
          "name": "support",
          "type": "uint8"
        },
        {
          "internalType": "uint8",
          "name": "v",
          "type": "uint8"
        },
        {
          "internalType": "bytes32",
          "name": "r",
          "type": "bytes32"
        },
        {
          "internalType": "bytes32",
          "name": "s",
          "type": "bytes32"
        }
      ],
      "name": "castVoteBySig",
      "outputs": [],
      "stateMutability": "nonpayable",
      "type": "function"
    },
    {
      "inputs": [
        {
          "internalType": "uint256",
          "name": "proposalId",
          "type": "uint256"
        },
        {
          "internalType": "uint8",
          "name": "support",
          "type": "uint8"
        },
        {
          "internalType": "string",
          "name": "reason",
          "type": "string"
        }
      ],
      "name": "castVoteWithReason",
      "outputs": [],
      "stateMutability": "nonpayable",
      "type": "function"
    },
    {
      "inputs": [
        {
          "internalType": "uint256",
          "name": "proposalId",
          "type": "uint256"
        }
      ],
      "name": "execute",
      "outputs": [],
      "stateMutability": "payable",
      "type": "function"
    },
    {
      "inputs": [
        {
          "internalType": "uint256",
          "name": "proposalId",
          "type": "uint256"
        }
      ],
      "name": "getActions",
      "outputs": [
        {
          "internalType": "address[]",
          "name": "targets",
          "type": "address[]"
        },
        {
          "internalType": "uint256[]",
          "name": "values",
          "type": "uint256[]"
        },
        {
          "internalType": "string[]",
          "name": "signatures",
          "type": "string[]"
        },
        {
          "internalType": "bytes[]",
          "name": "calldatas",
          "type": "bytes[]"
        }
      ],
      "stateMutability": "view",
      "type": "function"
    },
    {
      "inputs": [
        {
          "internalType": "uint256",
          "name": "proposalId",
          "type": "uint256"
        },
        {
          "internalType": "address",
          "name": "voter",
          "type": "address"
        }
      ],
      "name": "getReceipt",
      "outputs": [
        {
          "components": [
            {
              "internalType": "bool",
              "name": "hasVoted",
              "type": "bool"
            },
            {
              "internalType": "uint8",
              "name": "support",
              "type": "uint8"
            },
            {
              "internalType": "uint256",
              "name": "votes",
              "type": "uint256"
            }
          ],
          "internalType": "struct GovernorBravoDelegateStorageV1.Receipt",
          "name": "",
          "type": "tuple"
        }
      ],
      "stateMutability": "view",
      "type": "function"
    },
    {
      "inputs": [],
      "name": "implementation",
      "outputs": [
        {
          "internalType": "address",
          "name": "",
          "type": "address"
        }
      ],
      "stateMutability": "view",
      "type": "function"
    },
    {
      "inputs": [],
      "name": "initialProposalId",
      "outputs": [
        {
          "internalType": "uint256",
          "name": "",
          "type": "uint256"
        }
      ],
      "stateMutability": "view",
      "type": "function"
    },
    {
      "inputs": [
        {
          "internalType": "address",
          "name": "timelock_",
          "type": "address"
        },
        {
          "internalType": "address",
          "name": "maia_",
          "type": "address"
        },
        {
          "internalType": "uint256",
          "name": "votingPeriod_",
          "type": "uint256"
        },
        {
          "internalType": "uint256",
          "name": "votingDelay_",
          "type": "uint256"
        },
        {
          "internalType": "uint256",
          "name": "proposalThreshold_",
          "type": "uint256"
        },
        {
          "internalType": "address",
          "name": "treasury_",
          "type": "address"
        },
        {
          "internalType": "address",
          "name": "valar_",
          "type": "address"
        }
      ],
      "name": "initialize",
      "outputs": [],
      "stateMutability": "nonpayable",
      "type": "function"
    },
    {
      "inputs": [
        {
          "internalType": "uint256",
          "name": "",
          "type": "uint256"
        }
      ],
      "name": "investeeDetails",
      "outputs": [
        {
          "internalType": "address",
          "name": "",
          "type": "address"
        }
      ],
      "stateMutability": "view",
      "type": "function"
    },
    {
      "inputs": [
        {
          "internalType": "address",
          "name": "account",
          "type": "address"
        }
      ],
      "name": "isWhitelisted",
      "outputs": [
        {
          "internalType": "bool",
          "name": "",
          "type": "bool"
        }
      ],
      "stateMutability": "view",
      "type": "function"
    },
    {
      "inputs": [
        {
          "internalType": "address",
          "name": "",
          "type": "address"
        }
      ],
      "name": "latestProposalIds",
      "outputs": [
        {
          "internalType": "uint256",
          "name": "",
          "type": "uint256"
        }
      ],
      "stateMutability": "view",
      "type": "function"
    },
    {
      "inputs": [],
      "name": "maia",
      "outputs": [
        {
          "internalType": "contract maiaInterface",
          "name": "",
          "type": "address"
        }
      ],
      "stateMutability": "view",
      "type": "function"
    },
    {
      "inputs": [],
      "name": "name",
      "outputs": [
        {
          "internalType": "string",
          "name": "",
          "type": "string"
        }
      ],
      "stateMutability": "view",
      "type": "function"
    },
    {
      "inputs": [],
      "name": "nextInvestee",
      "outputs": [
        {
          "internalType": "uint256",
          "name": "",
          "type": "uint256"
        }
      ],
      "stateMutability": "view",
      "type": "function"
    },
    {
      "inputs": [],
      "name": "nextInvesteeFund",
      "outputs": [
        {
          "internalType": "uint256",
          "name": "",
          "type": "uint256"
        }
      ],
      "stateMutability": "view",
      "type": "function"
    },
    {
      "inputs": [],
      "name": "pendingAdmin",
      "outputs": [
        {
          "internalType": "address",
          "name": "",
          "type": "address"
        }
      ],
      "stateMutability": "view",
      "type": "function"
    },
    {
      "inputs": [],
      "name": "proposalCount",
      "outputs": [
        {
          "internalType": "uint256",
          "name": "",
          "type": "uint256"
        }
      ],
      "stateMutability": "view",
      "type": "function"
    },
    {
      "inputs": [],
      "name": "proposalMaxOperations",
      "outputs": [
        {
          "internalType": "uint256",
          "name": "",
          "type": "uint256"
        }
      ],
      "stateMutability": "view",
      "type": "function"
    },
    {
      "inputs": [],
      "name": "proposalThreshold",
      "outputs": [
        {
          "internalType": "uint256",
          "name": "",
          "type": "uint256"
        }
      ],
      "stateMutability": "view",
      "type": "function"
    },
    {
      "inputs": [
        {
          "internalType": "uint256",
          "name": "",
          "type": "uint256"
        }
      ],
      "name": "proposals",
      "outputs": [
        {
          "internalType": "uint256",
          "name": "id",
          "type": "uint256"
        },
        {
          "internalType": "address",
          "name": "proposer",
          "type": "address"
        },
        {
          "internalType": "uint256",
          "name": "eta",
          "type": "uint256"
        },
        {
          "internalType": "uint256",
          "name": "startBlock",
          "type": "uint256"
        },
        {
          "internalType": "uint256",
          "name": "endBlock",
          "type": "uint256"
        },
        {
          "internalType": "uint256",
          "name": "forVotes",
          "type": "uint256"
        },
        {
          "internalType": "uint256",
          "name": "againstVotes",
          "type": "uint256"
        },
        {
          "internalType": "uint256",
          "name": "abstainVotes",
          "type": "uint256"
        },
        {
          "internalType": "bool",
          "name": "canceled",
          "type": "bool"
        },
        {
          "internalType": "bool",
          "name": "executed",
          "type": "bool"
        }
      ],
      "stateMutability": "view",
      "type": "function"
    },
    {
      "inputs": [
        {
          "internalType": "address[]",
          "name": "targets",
          "type": "address[]"
        },
        {
          "internalType": "uint256[]",
          "name": "values",
          "type": "uint256[]"
        },
        {
          "internalType": "string[]",
          "name": "signatures",
          "type": "string[]"
        },
        {
          "internalType": "bytes[]",
          "name": "calldatas",
          "type": "bytes[]"
        },
        {
          "internalType": "string",
          "name": "description",
          "type": "string"
        }
      ],
      "name": "propose",
      "outputs": [
        {
          "internalType": "uint256",
          "name": "",
          "type": "uint256"
        }
      ],
      "stateMutability": "nonpayable",
      "type": "function"
    },
    {
      "inputs": [
        {
          "internalType": "uint256",
          "name": "proposalId",
          "type": "uint256"
        }
      ],
      "name": "queue",
      "outputs": [],
      "stateMutability": "nonpayable",
      "type": "function"
    },
    {
      "inputs": [],
      "name": "quorumVotes",
      "outputs": [
        {
          "internalType": "uint256",
          "name": "",
          "type": "uint256"
        }
      ],
      "stateMutability": "view",
      "type": "function"
    },
    {
      "inputs": [
        {
          "internalType": "uint256",
          "name": "proposalId",
          "type": "uint256"
        }
      ],
      "name": "state",
      "outputs": [
        {
          "internalType": "enum GovernorBravoDelegateStorageV1.ProposalState",
          "name": "",
          "type": "uint8"
        }
      ],
      "stateMutability": "view",
      "type": "function"
    },
    {
      "inputs": [],
      "name": "timelock",
      "outputs": [
        {
          "internalType": "contract TimelockInterface",
          "name": "",
          "type": "address"
        }
      ],
      "stateMutability": "view",
      "type": "function"
    },
    {
      "inputs": [],
      "name": "treasury",
      "outputs": [
        {
          "internalType": "address",
          "name": "",
          "type": "address"
        }
      ],
      "stateMutability": "view",
      "type": "function"
    },
    {
      "inputs": [
        {
          "internalType": "address",
          "name": "newImplementation",
          "type": "address"
        }
      ],
      "name": "upgradeTo",
      "outputs": [],
      "stateMutability": "nonpayable",
      "type": "function"
    },
    {
      "inputs": [
        {
          "internalType": "address",
          "name": "newImplementation",
          "type": "address"
        },
        {
          "internalType": "bytes",
          "name": "data",
          "type": "bytes"
        }
      ],
      "name": "upgradeToAndCall",
      "outputs": [],
      "stateMutability": "payable",
      "type": "function"
    },
    {
      "inputs": [],
      "name": "votingDelay",
      "outputs": [
        {
          "internalType": "uint256",
          "name": "",
          "type": "uint256"
        }
      ],
      "stateMutability": "view",
      "type": "function"
    },
    {
      "inputs": [],
      "name": "votingPeriod",
      "outputs": [
        {
          "internalType": "uint256",
          "name": "",
          "type": "uint256"
        }
      ],
      "stateMutability": "view",
      "type": "function"
    },
    {
      "inputs": [
        {
          "internalType": "address",
          "name": "",
          "type": "address"
        }
      ],
      "name": "whitelistAccountExpirations",
      "outputs": [
        {
          "internalType": "uint256",
          "name": "",
          "type": "uint256"
        }
      ],
      "stateMutability": "view",
      "type": "function"
    },
    {
      "inputs": [],
      "name": "whitelistGuardian",
      "outputs": [
        {
          "internalType": "address",
          "name": "",
          "type": "address"
        }
      ],
      "stateMutability": "view",
      "type": "function"
    }
  ],
  "bytecode": "0x60a06040523060601b60805234801561001757600080fd5b5060805160601c614b9461004b600039600081816117050152818161174501528181611fce015261200e0152614b946000f3fe6080604052600436106103355760003560e01c806361d027b3116101ab578063d33219b4116100f7578063e48083fe11610095578063f851a4401161006f578063f851a44014610aeb578063f9d28b8014610b0b578063fc4eee4214610b2b578063fe0d94c114610b4157610335565b8063e48083fe14610583578063e9c714f214610ac1578063f03cd27114610ad657610335565b8063da95691a116100d1578063da95691a14610997578063ddf0b009146109b7578063deaaa7cc146109d7578063e23a9a5214610a0b57610335565b8063d33219b41461094b578063d54db3481461096b578063da35c6641461098157610335565b80639953336511610164578063b11262631161013e578063b1126263146108df578063b58131b0146108f5578063b71d1a0c1461090b578063c5a8425d1461092b57610335565b80639953336514610893578063a37ee07d146108b3578063a64e024a146108c857610335565b806361d027b3146107d4578063647abf78146107f45780636754ae561461080a578063791f5d23146108405780637b3c71d31461085e5780637bdbe4d01461087e57610335565b806326782247116102855780633e4f49e6116102235780634d6733d2116101fd5780634d6733d2146107615780634f1ef2861461078157806356781388146107945780635c60da1b146107b457610335565b80633e4f49e6146106f457806340e58ee5146107215780634c3401791461074157610335565b806338bd0dda1161025f57806338bd0dda146106615780633932abb11461068e5780633af32abf146106a45780633bccf4fd146106d457610335565b806326782247146105d9578063328dd982146106115780633659cfe61461064157610335565b806317977c61116102f257806320606b70116102cc57806320606b701461054f578063215809ca1461058357806324bc1a641461059857806325fd935a146105b857610335565b806317977c61146104e257806317ba1b8b1461050f5780631dfb1b5a1461052f57610335565b8063013cf08b1461033a57806302a251a31461041157806306b8aa491461043557806306fdde03146104575780630729da0b146104a25780630ea2d98c146104c2575b600080fd5b34801561034657600080fd5b506103b6610355366004614417565b606f602052600090815260409020805460018201546002830154600784015460088501546009860154600a870154600b880154600c9098015496976001600160a01b0390961696949593949293919290919060ff808216916101009004168a565b604080519a8b526001600160a01b0390991660208b0152978901969096526060880194909452608087019290925260a086015260c085015260e084015215156101008301521515610120820152610140015b60405180910390f35b34801561041d57600080fd5b5061042760695481565b604051908152602001610408565b34801561044157600080fd5b506104556104503660046141aa565b610b54565b005b34801561046357600080fd5b506104956040518060400160405280601281526020017144414f20476f7665726e6f7220427261766f60701b81525081565b60405161040891906147fc565b3480156104ae57600080fd5b506104556104bd3660046141c4565b610ccb565b3480156104ce57600080fd5b506104556104dd366004614417565b6110c3565b3480156104ee57600080fd5b506104276104fd3660046141aa565b60706020526000908152604090205481565b34801561051b57600080fd5b5061045561052a366004614417565b6111f6565b34801561053b57600080fd5b5061045561054a366004614417565b611342565b34801561055b57600080fd5b506104277f8cad95687ba82c2ce50e74f7b754645e5117c3a5bec8151c0726d5857980a86681565b34801561058f57600080fd5b50610427600181565b3480156105a457600080fd5b506104276b033b2e3c9fd0803ce800000081565b3480156105c457600080fd5b506104276c4bbb0bace1a6bd937d8000000081565b3480156105e557600080fd5b506066546105f9906001600160a01b031681565b6040516001600160a01b039091168152602001610408565b34801561061d57600080fd5b5061063161062c366004614417565b611469565b604051610408949392919061477c565b34801561064d57600080fd5b5061045561065c3660046141aa565b6116fa565b34801561066d57600080fd5b5061042761067c3660046141aa565b60716020526000908152604090205481565b34801561069a57600080fd5b5061042760685481565b3480156106b057600080fd5b506106c46106bf3660046141aa565b6117c3565b6040519015158152602001610408565b3480156106e057600080fd5b506104556106ef3660046144fe565b6117e4565b34801561070057600080fd5b5061071461070f366004614417565b611a53565b60405161040891906147d4565b34801561072d57600080fd5b5061045561073c366004614417565b611c22565b34801561074d57600080fd5b50606e546105f9906001600160a01b031681565b34801561076d57600080fd5b5061045561077c366004614280565b611edd565b61045561078f366004614234565b611fc3565b3480156107a057600080fd5b506104556107af36600461445a565b61207d565b3480156107c057600080fd5b506067546105f9906001600160a01b031681565b3480156107e057600080fd5b506076546105f9906001600160a01b031681565b34801561080057600080fd5b5061042760755481565b34801561081657600080fd5b506105f9610825366004614417565b6073602052600090815260409020546001600160a01b031681565b34801561084c57600080fd5b50610427690a968163f0a57b40000081565b34801561086a57600080fd5b5061045561087936600461447c565b6120df565b34801561088a57600080fd5b50610427600a81565b34801561089f57600080fd5b506104556108ae3660046141aa565b61212f565b3480156108bf57600080fd5b5061045561226c565b3480156108d457600080fd5b5061042762013b0081565b3480156108eb57600080fd5b50610427619d8081565b34801561090157600080fd5b50610427606a5481565b34801561091757600080fd5b506104556109263660046141aa565b6122d6565b34801561093757600080fd5b506072546105f9906001600160a01b031681565b34801561095757600080fd5b50606d546105f9906001600160a01b031681565b34801561097757600080fd5b5061042760745481565b34801561098d57600080fd5b50610427606c5481565b3480156109a357600080fd5b506104276109b23660046142a9565b612408565b3480156109c357600080fd5b506104556109d2366004614417565b6129a8565b3480156109e357600080fd5b506104277f150214d74d59b7d1e90c73fc22ef3d991dd0a76b046543d4d80ab92d2a50328f81565b348015610a1757600080fd5b50610a9a610a2636600461442f565b6040805160608101825260008082526020820181905291810191909152506000918252606f602090815260408084206001600160a01b03939093168452600d9092018152918190208151606081018352815460ff808216151583526101009091041693810193909352600101549082015290565b6040805182511515815260208084015160ff16908201529181015190820152606001610408565b348015610acd57600080fd5b50610455612cf5565b348015610ae257600080fd5b506105f9612e1f565b348015610af757600080fd5b506065546105f9906001600160a01b031681565b348015610b1757600080fd5b50610455610b263660046141aa565b612fbc565b348015610b3757600080fd5b50610427606b5481565b610455610b4f366004614417565b61319e565b6065546001600160a01b03163314610bca5760405162461bcd60e51b815260206004820152602e60248201527f476f7665726e6f72427261766f3a3a5f736574496e766573746565446574616960448201526d6c733a2061646d696e206f6e6c7960901b60648201526084015b60405180910390fd5b6001600160a01b038116610c395760405162461bcd60e51b815260206004820152603060248201527f476f7665726e6f72427261766f3a3a5f736574496e766573746565446574616960448201526f6c733a207a65726f206164647265737360801b6064820152608401610bc1565b60748054600090815260736020526040902080546001600160a01b0319166001600160a01b03841617905554610c7090600161343e565b6074819055507f59f0b8051a7417e410325aa8686c7c34f2dbabef2f0d168ae2753b7a8049f63781610ca56074546001613498565b604080516001600160a01b0390931683526020830191909152015b60405180910390a150565b600054610100900460ff16610ce65760005460ff1615610cea565b303b155b610d4d5760405162461bcd60e51b815260206004820152602e60248201527f496e697469616c697a61626c653a20636f6e747261637420697320616c72656160448201526d191e481a5b9a5d1a585b1a5e995960921b6064820152608401610bc1565b600054610100900460ff16158015610d78576000805460ff1961ff0019909116610100171660011790555b606d546001600160a01b031615610ded5760405162461bcd60e51b815260206004820152603360248201527f476f7665726e6f72427261766f3a3a696e697469616c697a653a2063616e206f6044820152726e6c7920696e697469616c697a65206f6e636560681b6064820152608401610bc1565b6001600160a01b038816610e4d5760405162461bcd60e51b81526020600482015260336024820152600080516020614b1883398151915260448201527269642074696d656c6f636b206164647265737360681b6064820152608401610bc1565b6001600160a01b038716610e735760405162461bcd60e51b8152600401610bc1906148a7565b6001600160a01b038216610e995760405162461bcd60e51b8152600401610bc1906148a7565b60018610158015610ead575062013b008611155b610f005760405162461bcd60e51b81526020600482015260306024820152600080516020614b1883398151915260448201526f1a59081d9bdd1a5b99c81c195c9a5bd960821b6064820152608401610bc1565b60018510158015610f135750619d808511155b610f655760405162461bcd60e51b815260206004820152602f6024820152600080516020614b1883398151915260448201526e696420766f74696e672064656c617960881b6064820152608401610bc1565b690a968163f0a57b4000008410158015610f8c57506c4bbb0bace1a6bd937d800000008411155b610fe45760405162461bcd60e51b81526020600482015260356024820152600080516020614b188339815191526044820152741a59081c1c9bdc1bdcd85b081d1a1c995cda1bdb19605a1b6064820152608401610bc1565b6001600160a01b0383166110445760405162461bcd60e51b81526020600482015260336024820152600080516020614b188339815191526044820152726964207472656173757279206164647265737360681b6064820152608401610bc1565b606d80546001600160a01b03199081166001600160a01b038b8116918217909355606e805483168b851617905560778054831686851617905560698990556068889055606a87905560658054831690911790556076805490911691851691909117905580156110b9576000805461ff00191690555b5050505050505050565b6065546001600160a01b031633146111315760405162461bcd60e51b815260206004820152602b60248201527f476f7665726e6f72427261766f3a3a5f736574566f74696e67506572696f643a60448201526a2061646d696e206f6e6c7960a81b6064820152608401610bc1565b60018110158015611145575062013b008111155b6111b05760405162461bcd60e51b815260206004820152603660248201527f476f7665726e6f72427261766f3a3a5f736574566f74696e67506572696f643a604482015275081a5b9d985b1a59081d9bdd1a5b99c81c195c9a5bd960521b6064820152608401610bc1565b606980549082905560408051828152602081018490527f7e3f7f0708a84de9203036abaa450dccc85ad5ff52f78c170f3edb55cf5e882891015b60405180910390a15050565b6065546001600160a01b031633146112695760405162461bcd60e51b815260206004820152603060248201527f476f7665726e6f72427261766f3a3a5f73657450726f706f73616c546872657360448201526f686f6c643a2061646d696e206f6e6c7960801b6064820152608401610bc1565b690a968163f0a57b400000811015801561129057506c4bbb0bace1a6bd937d800000008111155b611304576040805162461bcd60e51b81526020600482015260248101919091527f476f7665726e6f72427261766f3a3a5f73657450726f706f73616c546872657360448201527f686f6c643a20696e76616c69642070726f706f73616c207468726573686f6c646064820152608401610bc1565b606a80549082905560408051828152602081018490527fccb45da8d5717e6c4544694297c4ba5cf151d455c9bb0ed4fc7a38411bc0546191016111ea565b6065546001600160a01b031633146113af5760405162461bcd60e51b815260206004820152602a60248201527f476f7665726e6f72427261766f3a3a5f736574566f74696e6744656c61793a2060448201526961646d696e206f6e6c7960b01b6064820152608401610bc1565b600181101580156113c25750619d808111155b61142b5760405162461bcd60e51b815260206004820152603460248201527f476f7665726e6f72427261766f3a3a5f736574566f74696e6744656c61793a20604482015273696e76616c696420766f74696e672064656c617960601b6064820152608401610bc1565b606880549082905560408051828152602081018490527fc565b045403dc03c2eea82b81a0465edad9e2e7fc4d97e11421c209da93d7a9391016111ea565b6060806060806000606f6000878152602001908152602001600020905080600301816004018260050183600601838054806020026020016040519081016040528092919081815260200182805480156114eb57602002820191906000526020600020905b81546001600160a01b031681526001909101906020018083116114cd575b505050505093508280548060200260200160405190810160405280929190818152602001828054801561153d57602002820191906000526020600020905b815481526020019060010190808311611529575b5050505050925081805480602002602001604051908101604052809291908181526020016000905b8282101561161157838290600052602060002001805461158490614a9b565b80601f01602080910402602001604051908101604052809291908181526020018280546115b090614a9b565b80156115fd5780601f106115d2576101008083540402835291602001916115fd565b820191906000526020600020905b8154815290600101906020018083116115e057829003601f168201915b505050505081526020019060010190611565565b50505050915080805480602002602001604051908101604052809291908181526020016000905b828210156116e457838290600052602060002001805461165790614a9b565b80601f016020809104026020016040519081016040528092919081815260200182805461168390614a9b565b80156116d05780601f106116a5576101008083540402835291602001916116d0565b820191906000526020600020905b8154815290600101906020018083116116b357829003601f168201915b505050505081526020019060010190611638565b5050505090509450945094509450509193509193565b306001600160a01b037f00000000000000000000000000000000000000000000000000000000000000001614156117435760405162461bcd60e51b8152600401610bc19061480f565b7f00000000000000000000000000000000000000000000000000000000000000006001600160a01b03166117756134ec565b6001600160a01b03161461179b5760405162461bcd60e51b8152600401610bc19061485b565b6117a48161351a565b604080516000808252602082019092526117c091839190613582565b50565b6001600160a01b03811660009081526071602052604090205442105b919050565b604080518082018252601281527144414f20476f7665726e6f7220427261766f60701b60209182015281517f8cad95687ba82c2ce50e74f7b754645e5117c3a5bec8151c0726d5857980a866818301527f573b95fd0a084985a7a662f6070c491894af81fd46809f0eebc2112f7257b83e81840152466060820152306080808301919091528351808303909101815260a0820184528051908301207f150214d74d59b7d1e90c73fc22ef3d991dd0a76b046543d4d80ab92d2a50328f60c083015260e0820189905260ff8816610100808401919091528451808403909101815261012083019094528351939092019290922061190160f01b6101408401526101428301829052610162830181905290916000906101820160408051601f198184030181528282528051602091820120600080855291840180845281905260ff8a169284019290925260608301889052608083018790529092509060019060a0016020604051602081039080840390855afa158015611966573d6000803e3d6000fd5b5050604051601f1901519150506001600160a01b0381166119e15760405162461bcd60e51b815260206004820152602f60248201527f476f7665726e6f72427261766f3a3a63617374566f746542795369673a20696e60448201526e76616c6964207369676e617475726560881b6064820152608401610bc1565b806001600160a01b03167fb8e138887d0aa13bab447e82de9d5c1777041ecd21ca36ba824ff1e6c07ddda48a8a611a19858e8e6136cd565b6040805193845260ff90921660208401529082015260806060820181905260009082015260a00160405180910390a2505050505050505050565b600081606c5410158015611a685750606b5482115b611ac65760405162461bcd60e51b815260206004820152602960248201527f476f7665726e6f72427261766f3a3a73746174653a20696e76616c69642070726044820152681bdc1bdcd85b081a5960ba1b6064820152608401610bc1565b6000828152606f60205260409020600c81015460ff1615611aeb5760029150506117df565b80600701544311611b005760009150506117df565b80600801544311611b155760019150506117df565b80600a01548160090154111580611b3b57506b033b2e3c9fd0803ce80000008160090154105b15611b4a5760039150506117df565b6002810154611b5d5760049150506117df565b600c810154610100900460ff1615611b795760079150506117df565b6002810154606d54604080516360d143f160e11b81529051611c0293926001600160a01b03169163c1a287e2916004808301926020929190829003018186803b158015611bc557600080fd5b505afa158015611bd9573d6000803e3d6000fd5b505050506040513d601f19601f82011682018060405250810190611bfd9190614395565b61343e565b4210611c125760069150506117df565b60059150506117df565b50919050565b6007611c2d82611a53565b6007811115611c4c57634e487b7160e01b600052602160045260246000fd5b1415611cb95760405162461bcd60e51b815260206004820152603660248201527f476f7665726e6f72427261766f3a3a63616e63656c3a2063616e6e6f742063616044820152751b98d95b08195e1958dd5d1959081c1c9bdc1bdcd85b60521b6064820152608401610bc1565b6000818152606f6020526040902060018101546001600160a01b03163314611d495760405162461bcd60e51b815260206004820152603860248201527f476f7665726e6f72427261766f3a3a63616e63656c3a204f746865722075736560448201527f722063616e6e6f742063616e63656c2070726f706f73616c00000000000000006064820152608401610bc1565b600c8101805460ff1916600117905560005b6003820154811015611eac57606d546003830180546001600160a01b039092169163591fcdfe919084908110611da157634e487b7160e01b600052603260045260246000fd5b6000918252602090912001546004850180546001600160a01b039092169185908110611ddd57634e487b7160e01b600052603260045260246000fd5b9060005260206000200154856005018581548110611e0b57634e487b7160e01b600052603260045260246000fd5b90600052602060002001866006018681548110611e3857634e487b7160e01b600052603260045260246000fd5b9060005260206000200187600201546040518663ffffffff1660e01b8152600401611e67959493929190614743565b600060405180830381600087803b158015611e8157600080fd5b505af1158015611e95573d6000803e3d6000fd5b505050508080611ea490614ad0565b915050611d5b565b506040518281527f789cf55be980739dad1d0699b93b58e806b51c9d96619bfa8fe0a28abaa7b30c906020016111ea565b6065546001600160a01b0316331480611f0057506072546001600160a01b031633145b611f725760405162461bcd60e51b815260206004820152603960248201527f476f7665726e6f72427261766f3a3a5f73657457686974656c6973744163636f60448201527f756e7445787069726174696f6e3a2061646d696e206f6e6c79000000000000006064820152608401610bc1565b6001600160a01b038216600081815260716020908152604091829020849055815192835282018390527f4e7b7545bc5744d0e30425959f4687475774b6c7edad77d24cb51c7d967d451591016111ea565b306001600160a01b037f000000000000000000000000000000000000000000000000000000000000000016141561200c5760405162461bcd60e51b8152600401610bc19061480f565b7f00000000000000000000000000000000000000000000000000000000000000006001600160a01b031661203e6134ec565b6001600160a01b0316146120645760405162461bcd60e51b8152600401610bc19061485b565b61206d8261351a565b61207982826001613582565b5050565b337fb8e138887d0aa13bab447e82de9d5c1777041ecd21ca36ba824ff1e6c07ddda483836120ac8483836136cd565b6040805193845260ff90921660208401529082015260806060820181905260009082015260a00160405180910390a25050565b337fb8e138887d0aa13bab447e82de9d5c1777041ecd21ca36ba824ff1e6c07ddda4858561210e8483836136cd565b868660405161212195949392919061497c565b60405180910390a250505050565b6001600160a01b03811661219f5760405162461bcd60e51b815260206004820152603160248201527f476f7665726e6f72427261766f3a5f73657457686974656c697374477561726460448201527069616e3a207a65726f206164647265737360781b6064820152608401610bc1565b6065546001600160a01b031633146122125760405162461bcd60e51b815260206004820152603060248201527f476f7665726e6f72427261766f3a3a5f73657457686974656c6973744775617260448201526f6469616e3a2061646d696e206f6e6c7960801b6064820152608401610bc1565b607280546001600160a01b038381166001600160a01b031983161792839055604080519282168084529390911660208301527f80a07e73e552148844a9c216d9724212d609cfa54e9c1a2e97203bdd2c4ad34191016111ea565b606d60009054906101000a90046001600160a01b03166001600160a01b0316630e18b6816040518163ffffffff1660e01b8152600401600060405180830381600087803b1580156122bc57600080fd5b505af11580156122d0573d6000803e3d6000fd5b50505050565b6001600160a01b0381166123415760405162461bcd60e51b815260206004820152602c60248201527f476f7665726e6f72427261766f3a5f73657450656e64696e6741646d696e3a2060448201526b7a65726f206164647265737360a01b6064820152608401610bc1565b6065546001600160a01b031633146123ae5760405162461bcd60e51b815260206004820152602a60248201527f476f7665726e6f72427261766f3a5f73657450656e64696e6741646d696e3a2060448201526961646d696e206f6e6c7960b01b6064820152608401610bc1565b606680546001600160a01b038381166001600160a01b031983168117909355604080519190921680825260208201939093527fca4f2f25d0898edd99413412fb94012f9e54ec8142f9b093e7720646a95b16a991016111ea565b6077546040516370a0823160e01b815233600482015260009182916001600160a01b03909116906370a082319060240160206040518083038186803b15801561245057600080fd5b505afa158015612464573d6000803e3d6000fd5b505050506040513d601f19601f820116820180604052508101906124889190614395565b116124e05760405162461bcd60e51b815260206004820152602260248201527f476f7665726e6f72427261766f3a3a70726f706f73653a206f6e6c792076616c60448201526130b960f11b6064820152608401610bc1565b845186511480156124f2575083518651145b80156124ff575082518651145b61257f5760405162461bcd60e51b8152602060048201526044602482018190527f476f7665726e6f72427261766f3a3a70726f706f73653a2070726f706f73616c908201527f2066756e6374696f6e20696e666f726d6174696f6e206172697479206d69736d6064820152630c2e8c6d60e31b608482015260a401610bc1565b85516125e25760405162461bcd60e51b815260206004820152602c60248201527f476f7665726e6f72427261766f3a3a70726f706f73653a206d7573742070726f60448201526b7669646520616374696f6e7360a01b6064820152608401610bc1565b600a865111156126455760405162461bcd60e51b815260206004820152602860248201527f476f7665726e6f72427261766f3a3a70726f706f73653a20746f6f206d616e7960448201526720616374696f6e7360c01b6064820152608401610bc1565b3360009081526070602052604090205480156127e257600061266682611a53565b9050600181600781111561268a57634e487b7160e01b600052602160045260246000fd5b14156127245760405162461bcd60e51b815260206004820152605860248201527f476f7665726e6f72427261766f3a3a70726f706f73653a206f6e65206c69766560448201527f2070726f706f73616c207065722070726f706f7365722c20666f756e6420616e60648201527f20616c7265616479206163746976652070726f706f73616c0000000000000000608482015260a401610bc1565b600081600781111561274657634e487b7160e01b600052602160045260246000fd5b14156127e05760405162461bcd60e51b815260206004820152605960248201527f476f7665726e6f72427261766f3a3a70726f706f73653a206f6e65206c69766560448201527f2070726f706f73616c207065722070726f706f7365722c20666f756e6420616e60648201527f20616c72656164792070656e64696e672070726f706f73616c00000000000000608482015260a401610bc1565b505b60006127f04360685461343e565b905060006128008260695461343e565b606c8054919250600061281283614ad0565b9091555050606c546000818152606f6020908152604082209283556001830180546001600160a01b0319163317905560028301919091558a5161285d916003840191908d0190613d6f565b50885161287390600483019060208c0190613dd4565b50875161288990600583019060208b0190613e0f565b50865161289f90600683019060208a0190613e68565b5082816007018190555081816008018190555060008160090181905550600081600a0181905550600081600b0181905550600081600c0160006101000a81548160ff021916908315150217905550600081600c0160016101000a81548160ff0219169083151502179055508060000154607060008360010160009054906101000a90046001600160a01b03166001600160a01b03166001600160a01b03168152602001908152602001600020819055507f7d84a6263ae0d98d3329bd7b46bb4e8d6f98cd35a7adb45c274c8b7fd5ebd5e08160000154338c8c8c8c89898e604051612992999897969594939291906148e4565b60405180910390a1549998505050505050505050565b60046129b382611a53565b60078111156129d257634e487b7160e01b600052602160045260246000fd5b14612a535760405162461bcd60e51b8152602060048201526044602482018190527f476f7665726e6f72427261766f3a3a71756575653a2070726f706f73616c2063908201527f616e206f6e6c79206265207175657565642069662069742069732073756363656064820152631959195960e21b608482015260a401610bc1565b6000818152606f60209081526040808320606d548251630d48571f60e31b81529251919493612aad9342936001600160a01b0390931692636a42b8f892600480840193919291829003018186803b158015611bc557600080fd5b905060005b6003830154811015612caf57612c9d836003018281548110612ae457634e487b7160e01b600052603260045260246000fd5b6000918252602090912001546004850180546001600160a01b039092169184908110612b2057634e487b7160e01b600052603260045260246000fd5b9060005260206000200154856005018481548110612b4e57634e487b7160e01b600052603260045260246000fd5b906000526020600020018054612b6390614a9b565b80601f0160208091040260200160405190810160405280929190818152602001828054612b8f90614a9b565b8015612bdc5780601f10612bb157610100808354040283529160200191612bdc565b820191906000526020600020905b815481529060010190602001808311612bbf57829003601f168201915b5050505050866006018581548110612c0457634e487b7160e01b600052603260045260246000fd5b906000526020600020018054612c1990614a9b565b80601f0160208091040260200160405190810160405280929190818152602001828054612c4590614a9b565b8015612c925780601f10612c6757610100808354040283529160200191612c92565b820191906000526020600020905b815481529060010190602001808311612c7557829003601f168201915b505050505086613991565b80612ca781614ad0565b915050612ab2565b506002820181905560408051848152602081018390527f9a2e42fd6722813d69113e7d0079d3d940171428df7373df9c7f7617cfda2892910160405180910390a1505050565b6066546001600160a01b031633148015612d0e57503315155b612d715760405162461bcd60e51b815260206004820152602e60248201527f476f7665726e6f72427261766f3a5f61636365707441646d696e3a2070656e6460448201526d696e672061646d696e206f6e6c7960901b6064820152608401610bc1565b60658054606680546001600160a01b038082166001600160a01b031980861682179687905590921690925560408051938316808552949092166020840152917ff9ffabca9c8276e99321725bcb43fb076a6c66a54b7f21c4e8146d8519b417dc910160405180910390a1606654604080516001600160a01b03808516825290921660208301527fca4f2f25d0898edd99413412fb94012f9e54ec8142f9b093e7720646a95b16a991016111ea565b6076546000906001600160a01b03163314612e905760405162461bcd60e51b815260206004820152602b60248201527f476f7665726e6f72427261766f3a3a5f66756e64496e7665737465653a20747260448201526a656173757279206f6e6c7960a81b6064820152608401610bc1565b6074546075541115612efa5760405162461bcd60e51b815260206004820152602d60248201527f476f7665726e6f72427261766f3a3a5f66756e64496e7665737465653a204e6f60448201526c206e657720696e76657374656560981b6064820152608401610bc1565b612f07607554600161343e565b6075819055507fc5c30592579df2868ccc9809f55485e57c9503d99abf37c40e084f99709f2e2060736000612f3f6075546001613498565b81526020810191909152604001600020546075546001600160a01b0390911690612f6a906001613498565b604080516001600160a01b03909316835260208301919091520160405180910390a160736000612f9d6075546001613498565b81526020810191909152604001600020546001600160a01b0316905090565b6065546001600160a01b031633146130225760405162461bcd60e51b8152602060048201526024808201527f476f7665726e6f72427261766f3a3a5f696e6974696174653a2061646d696e206044820152636f6e6c7960e01b6064820152608401610bc1565b606b541561308b5760405162461bcd60e51b815260206004820152603060248201527f476f7665726e6f72427261766f3a3a5f696e6974696174653a2063616e206f6e60448201526f6c7920696e697469617465206f6e636560801b6064820152608401610bc1565b806001600160a01b031663da35c6646040518163ffffffff1660e01b8152600401602060405180830381600087803b1580156130c657600080fd5b505af11580156130da573d6000803e3d6000fd5b505050506040513d601f19601f820116820180604052508101906130fe9190614395565b606c819055606b55606d5460408051630e18b68160e01b815290516001600160a01b0390921691630e18b6819160048082019260009290919082900301818387803b15801561314c57600080fd5b505af1158015613160573d6000803e3d6000fd5b50506040516001600160a01b03841681527fc6055e6fe22e34bcdffce73c5d2968b6b2b71a5202db09bf28a9cda3002c479a92506020019050610cc0565b60056131a982611a53565b60078111156131c857634e487b7160e01b600052602160045260246000fd5b146132495760405162461bcd60e51b815260206004820152604560248201527f476f7665726e6f72427261766f3a3a657865637574653a2070726f706f73616c60448201527f2063616e206f6e6c7920626520657865637574656420696620697420697320716064820152641d595d595960da1b608482015260a401610bc1565b6000818152606f60205260408120600c8101805461ff001916610100179055905b600382015481101561340d57606d546004830180546001600160a01b0390921691630825f38f9190849081106132b057634e487b7160e01b600052603260045260246000fd5b90600052602060002001548460030184815481106132de57634e487b7160e01b600052603260045260246000fd5b6000918252602090912001546004860180546001600160a01b03909216918690811061331a57634e487b7160e01b600052603260045260246000fd5b906000526020600020015486600501868154811061334857634e487b7160e01b600052603260045260246000fd5b9060005260206000200187600601878154811061337557634e487b7160e01b600052603260045260246000fd5b9060005260206000200188600201546040518763ffffffff1660e01b81526004016133a4959493929190614743565b6000604051808303818588803b1580156133bd57600080fd5b505af11580156133d1573d6000803e3d6000fd5b50505050506040513d6000823e601f3d908101601f191682016040526133fa91908101906143ad565b508061340581614ad0565b91505061326a565b506040518281527f712ae1383f79ac853f8d882153778e0260ef8f03b504e2866e0593e04d2b291f906020016111ea565b60008061344b8385614a40565b9050838110156134915760405162461bcd60e51b81526020600482015260116024820152706164646974696f6e206f766572666c6f7760781b6044820152606401610bc1565b9392505050565b6000828211156134e25760405162461bcd60e51b81526020600482015260156024820152747375627472616374696f6e20756e646572666c6f7760581b6044820152606401610bc1565b6134918284614a58565b7f360894a13ba1a3210667c828492db98dca3e2076cc3735a920a3ca505d382bbc546001600160a01b031690565b6065546001600160a01b031633146117c05760405162461bcd60e51b815260206004820152602560248201527f4f6e6c792061646d696e2063616e207570677261646520696d706c656d656e7460448201526430ba34b7b760d91b6064820152608401610bc1565b600061358c6134ec565b905061359784613b66565b6000835111806135a45750815b156135b5576135b38484613c0b565b505b7f4910fdfa16fed3260ed0e7147f7cc6da11a60208b5b9406d12a635614ffd9143805460ff166136c657805460ff191660011781556040516001600160a01b038316602482015261363490869060440160408051601f198184030181529190526020810180516001600160e01b0316631b2ce7f360e11b179052613c0b565b50805460ff191681556136456134ec565b6001600160a01b0316826001600160a01b0316146136bd5760405162461bcd60e51b815260206004820152602f60248201527f45524331393637557067726164653a207570677261646520627265616b73206660448201526e75727468657220757067726164657360881b6064820152608401610bc1565b6136c685613cf6565b5050505050565b600060016136da84611a53565b60078111156136f957634e487b7160e01b600052602160045260246000fd5b146137605760405162461bcd60e51b815260206004820152603160248201527f476f7665726e6f72427261766f3a3a63617374566f7465496e7465726e616c3a604482015270081d9bdd1a5b99c81a5cc818db1bdcd959607a1b6064820152608401610bc1565b60028260ff1611156137cf5760405162461bcd60e51b815260206004820152603260248201527f476f7665726e6f72427261766f3a3a63617374566f7465496e7465726e616c3a60448201527120696e76616c696420766f7465207479706560701b6064820152608401610bc1565b6000838152606f602090815260408083206001600160a01b0388168452600d8101909252909120805460ff16156138655760405162461bcd60e51b815260206004820152603460248201527f476f7665726e6f72427261766f3a3a63617374566f7465496e7465726e616c3a604482015273081d9bdd195c88185b1c9958591e481d9bdd195960621b6064820152608401610bc1565b606e546007830154604051630748d63560e31b81526000926001600160a01b031691633a46b1a8916138af918b916004016001600160a01b03929092168252602082015260400190565b60206040518083038186803b1580156138c757600080fd5b505afa1580156138db573d6000803e3d6000fd5b505050506040513d601f19601f820116820180604052508101906138ff9190614395565b905060ff85166139215761391783600a01548261343e565b600a840155613965565b8460ff16600114156139455761393b83600901548261343e565b6009840155613965565b8460ff16600214156139655761395f83600b01548261343e565b600b8401555b8154600160ff19909116811761ff00191661010060ff8816021783559091018190559150509392505050565b606d546040516001600160a01b039091169063f2b06537906139bf90889088908890889088906020016146f7565b604051602081830303815290604052805190602001206040518263ffffffff1660e01b81526004016139f391815260200190565b60206040518083038186803b158015613a0b57600080fd5b505afa158015613a1f573d6000803e3d6000fd5b505050506040513d601f19601f82011682018060405250810190613a439190614375565b15613ad45760405162461bcd60e51b815260206004820152605560248201527f476f7665726e6f72427261766f3a3a71756575654f72526576657274496e746560448201527f726e616c3a206964656e746963616c2070726f706f73616c20616374696f6e20606482015274616c7265616479207175657565642061742065746160581b608482015260a401610bc1565b606d54604051633a66f90160e01b81526001600160a01b0390911690633a66f90190613b0c90889088908890889088906004016146f7565b602060405180830381600087803b158015613b2657600080fd5b505af1158015613b3a573d6000803e3d6000fd5b505050506040513d601f19601f82011682018060405250810190613b5e9190614395565b505050505050565b803b613bca5760405162461bcd60e51b815260206004820152602d60248201527f455243313936373a206e657720696d706c656d656e746174696f6e206973206e60448201526c1bdd08184818dbdb9d1c9858dd609a1b6064820152608401610bc1565b7f360894a13ba1a3210667c828492db98dca3e2076cc3735a920a3ca505d382bbc80546001600160a01b0319166001600160a01b0392909216919091179055565b6060823b613c6a5760405162461bcd60e51b815260206004820152602660248201527f416464726573733a2064656c65676174652063616c6c20746f206e6f6e2d636f6044820152651b9d1c9858dd60d21b6064820152608401610bc1565b600080846001600160a01b031684604051613c8591906146db565b600060405180830381855af49150503d8060008114613cc0576040519150601f19603f3d011682016040523d82523d6000602084013e613cc5565b606091505b5091509150613ced8282604051806060016040528060278152602001614b3860279139613d36565b95945050505050565b613cff81613b66565b6040516001600160a01b038216907fbc7cd75a20ee27fd9adebab32041f755214dbc6bffa90cc0225b39da2e5c2d3b90600090a250565b60608315613d45575081613491565b825115613d555782518084602001fd5b8160405162461bcd60e51b8152600401610bc191906147fc565b828054828255906000526020600020908101928215613dc4579160200282015b82811115613dc457825182546001600160a01b0319166001600160a01b03909116178255602090920191600190910190613d8f565b50613dd0929150613ec1565b5090565b828054828255906000526020600020908101928215613dc4579160200282015b82811115613dc4578251825591602001919060010190613df4565b828054828255906000526020600020908101928215613e5c579160200282015b82811115613e5c5782518051613e4c918491602090910190613ed6565b5091602001919060010190613e2f565b50613dd0929150613f49565b828054828255906000526020600020908101928215613eb5579160200282015b82811115613eb55782518051613ea5918491602090910190613ed6565b5091602001919060010190613e88565b50613dd0929150613f66565b5b80821115613dd05760008155600101613ec2565b828054613ee290614a9b565b90600052602060002090601f016020900481019282613f045760008555613dc4565b82601f10613f1d57805160ff1916838001178555613dc4565b82800160010185558215613dc45791820182811115613dc4578251825591602001919060010190613df4565b80821115613dd0576000613f5d8282613f83565b50600101613f49565b80821115613dd0576000613f7a8282613f83565b50600101613f66565b508054613f8f90614a9b565b6000825580601f10613fa157506117c0565b601f0160209004906000526020600020908101906117c09190613ec1565b80356001600160a01b03811681146117df57600080fd5b600082601f830112613fe6578081fd5b81356020613ffb613ff6836149f4565b6149c3565b8281528181019085830183850287018401881015614017578586fd5b855b8581101561403c5761402a82613fbf565b84529284019290840190600101614019565b5090979650505050505050565b600082601f830112614059578081fd5b81356020614069613ff6836149f4565b82815281810190858301855b8581101561403c5761408c898684358b010161414d565b84529284019290840190600101614075565b600082601f8301126140ae578081fd5b813560206140be613ff6836149f4565b82815281810190858301855b8581101561403c576140e1898684358b010161414d565b845292840192908401906001016140ca565b600082601f830112614103578081fd5b81356020614113613ff6836149f4565b828152818101908583018385028701840188101561412f578586fd5b855b8581101561403c57813584529284019290840190600101614131565b600082601f83011261415d578081fd5b813561416b613ff682614a18565b81815284602083860101111561417f578283fd5b816020850160208301379081016020019190915292915050565b803560ff811681146117df57600080fd5b6000602082840312156141bb578081fd5b61349182613fbf565b600080600080600080600060e0888a0312156141de578283fd5b6141e788613fbf565b96506141f560208901613fbf565b955060408801359450606088013593506080880135925061421860a08901613fbf565b915061422660c08901613fbf565b905092959891949750929550565b60008060408385031215614246578182fd5b61424f83613fbf565b9150602083013567ffffffffffffffff81111561426a578182fd5b6142768582860161414d565b9150509250929050565b60008060408385031215614292578182fd5b61429b83613fbf565b946020939093013593505050565b600080600080600060a086880312156142c0578283fd5b853567ffffffffffffffff808211156142d7578485fd5b6142e389838a01613fd6565b965060208801359150808211156142f8578485fd5b61430489838a016140f3565b95506040880135915080821115614319578485fd5b61432589838a0161409e565b9450606088013591508082111561433a578283fd5b61434689838a01614049565b9350608088013591508082111561435b578283fd5b506143688882890161414d565b9150509295509295909350565b600060208284031215614386578081fd5b81518015158114613491578182fd5b6000602082840312156143a6578081fd5b5051919050565b6000602082840312156143be578081fd5b815167ffffffffffffffff8111156143d4578182fd5b8201601f810184136143e4578182fd5b80516143f2613ff682614a18565b818152856020838501011115614406578384fd5b613ced826020830160208601614a6f565b600060208284031215614428578081fd5b5035919050565b60008060408385031215614441578182fd5b8235915061445160208401613fbf565b90509250929050565b6000806040838503121561446c578182fd5b8235915061445160208401614199565b60008060008060608587031215614491578182fd5b843593506144a160208601614199565b9250604085013567ffffffffffffffff808211156144bd578384fd5b818701915087601f8301126144d0578384fd5b8135818111156144de578485fd5b8860208285010111156144ef578485fd5b95989497505060200194505050565b600080600080600060a08688031215614515578283fd5b8535945061452560208701614199565b935061453360408701614199565b94979396509394606081013594506080013592915050565b6000815180845260208085019450808401835b838110156145835781516001600160a01b03168752958201959082019060010161455e565b509495945050505050565b6000815180845260208085018081965082840281019150828601855b858110156145d45782840389526145c2848351614610565b988501989350908401906001016145aa565b5091979650505050505050565b6000815180845260208085019450808401835b83811015614583578151875295820195908201906001016145f4565b60008151808452614628816020860160208601614a6f565b601f01601f19169290920160200192915050565b80546000906002810460018083168061465657607f831692505b602080841082141561467657634e487b7160e01b86526022600452602486fd5b83885281801561468d57600181146146a1576146cf565b60ff198616898301526040890196506146cf565b876000528160002060005b868110156146c75781548b82018501529085019083016146ac565b8a0183019750505b50505050505092915050565b600082516146ed818460208701614a6f565b9190910192915050565b600060018060a01b038716825285602083015260a0604083015261471e60a0830186614610565b82810360608401526147308186614610565b9150508260808301529695505050505050565b600060018060a01b038716825285602083015260a0604083015261476a60a083018661463c565b8281036060840152614730818661463c565b60006080825261478f608083018761454b565b82810360208401526147a181876145e1565b905082810360408401526147b5818661458e565b905082810360608401526147c9818561458e565b979650505050505050565b60208101600883106147f657634e487b7160e01b600052602160045260246000fd5b91905290565b6000602082526134916020830184614610565b6020808252602c908201527f46756e6374696f6e206d7573742062652063616c6c6564207468726f7567682060408201526b19195b1959d85d1958d85b1b60a21b606082015260800190565b6020808252602c908201527f46756e6374696f6e206d7573742062652063616c6c6564207468726f7567682060408201526b6163746976652070726f787960a01b606082015260800190565b6020808252602f90820152600080516020614b1883398151915260408201526e6964206d616961206164647265737360881b606082015260800190565b8981526001600160a01b03891660208201526101206040820181905260009061490f8382018b61454b565b90508281036060840152614923818a6145e1565b90508281036080840152614937818961458e565b905082810360a084015261494b818861458e565b90508560c08401528460e084015282810361010084015261496c8185614610565b9c9b505050505050505050505050565b600086825260ff8616602083015284604083015260806060830152826080830152828460a084013781830160a090810191909152601f909201601f19160101949350505050565b604051601f8201601f1916810167ffffffffffffffff811182821017156149ec576149ec614b01565b604052919050565b600067ffffffffffffffff821115614a0e57614a0e614b01565b5060209081020190565b600067ffffffffffffffff821115614a3257614a32614b01565b50601f01601f191660200190565b60008219821115614a5357614a53614aeb565b500190565b600082821015614a6a57614a6a614aeb565b500390565b60005b83811015614a8a578181015183820152602001614a72565b838111156122d05750506000910152565b600281046001821680614aaf57607f821691505b60208210811415611c1c57634e487b7160e01b600052602260045260246000fd5b6000600019821415614ae457614ae4614aeb565b5060010190565b634e487b7160e01b600052601160045260246000fd5b634e487b7160e01b600052604160045260246000fdfe476f7665726e6f72427261766f3a3a696e697469616c697a653a20696e76616c416464726573733a206c6f772d6c6576656c2064656c65676174652063616c6c206661696c6564a2646970667358221220fd64dd747fb4c442ace13c252dcecdcc306aff07acaf9630a2ae01e14e8cce6c64736f6c63430008020033",
  "linkReferences": {},
  "deployedLinkReferences": {}
}