{
  "_format": "hh-sol-artifact-1",
  "contractName": "GovernorBravoDelegate",
  "sourceName": "contracts/governance.sol",
  "abi": [
    {
      "anonymous": false,
      "inputs": [
        {
          "indexed": false,
          "internalType": "address",
          "name": "previousAdmin",
          "type": "address"
        },
        {
          "indexed": false,
          "internalType": "address",
          "name": "newAdmin",
          "type": "address"
        }
      ],
      "name": "AdminChanged",
      "type": "event"
    },
    {
      "anonymous": false,
      "inputs": [
        {
          "indexed": true,
          "internalType": "address",
          "name": "beacon",
          "type": "address"
        }
      ],
      "name": "BeaconUpgraded",
      "type": "event"
    },
    {
      "anonymous": false,
      "inputs": [
        {
          "indexed": false,
          "internalType": "address",
          "name": "governanceAddress",
          "type": "address"
        }
      ],
      "name": "GovernanceInitiated",
      "type": "event"
    },
    {
      "anonymous": false,
      "inputs": [
        {
          "indexed": false,
          "internalType": "address",
          "name": "investee",
          "type": "address"
        },
        {
          "indexed": false,
          "internalType": "uint256",
          "name": "id",
          "type": "uint256"
        }
      ],
      "name": "InvesteeFunded",
      "type": "event"
    },
    {
      "anonymous": false,
      "inputs": [
        {
          "indexed": false,
          "internalType": "address",
          "name": "investee",
          "type": "address"
        },
        {
          "indexed": false,
          "internalType": "uint256",
          "name": "id",
          "type": "uint256"
        }
      ],
      "name": "InvesteeSet",
      "type": "event"
    },
    {
      "anonymous": false,
      "inputs": [
        {
          "indexed": false,
          "internalType": "address",
          "name": "oldAdmin",
          "type": "address"
        },
        {
          "indexed": false,
          "internalType": "address",
          "name": "newAdmin",
          "type": "address"
        }
      ],
      "name": "NewAdmin",
      "type": "event"
    },
    {
      "anonymous": false,
      "inputs": [
        {
          "indexed": false,
          "internalType": "address",
          "name": "oldImplementation",
          "type": "address"
        },
        {
          "indexed": false,
          "internalType": "address",
          "name": "newImplementation",
          "type": "address"
        }
      ],
      "name": "NewImplementation",
      "type": "event"
    },
    {
      "anonymous": false,
      "inputs": [
        {
          "indexed": false,
          "internalType": "address",
          "name": "oldPendingAdmin",
          "type": "address"
        },
        {
          "indexed": false,
          "internalType": "address",
          "name": "newPendingAdmin",
          "type": "address"
        }
      ],
      "name": "NewPendingAdmin",
      "type": "event"
    },
    {
      "anonymous": false,
      "inputs": [
        {
          "indexed": false,
          "internalType": "uint256",
          "name": "id",
          "type": "uint256"
        }
      ],
      "name": "ProposalCanceled",
      "type": "event"
    },
    {
      "anonymous": false,
      "inputs": [
        {
          "indexed": false,
          "internalType": "uint256",
          "name": "id",
          "type": "uint256"
        },
        {
          "indexed": false,
          "internalType": "address",
          "name": "proposer",
          "type": "address"
        },
        {
          "indexed": false,
          "internalType": "address[]",
          "name": "targets",
          "type": "address[]"
        },
        {
          "indexed": false,
          "internalType": "uint256[]",
          "name": "values",
          "type": "uint256[]"
        },
        {
          "indexed": false,
          "internalType": "string[]",
          "name": "signatures",
          "type": "string[]"
        },
        {
          "indexed": false,
          "internalType": "bytes[]",
          "name": "calldatas",
          "type": "bytes[]"
        },
        {
          "indexed": false,
          "internalType": "uint256",
          "name": "startBlock",
          "type": "uint256"
        },
        {
          "indexed": false,
          "internalType": "uint256",
          "name": "endBlock",
          "type": "uint256"
        },
        {
          "indexed": false,
          "internalType": "string",
          "name": "description",
          "type": "string"
        }
      ],
      "name": "ProposalCreated",
      "type": "event"
    },
    {
      "anonymous": false,
      "inputs": [
        {
          "indexed": false,
          "internalType": "uint256",
          "name": "id",
          "type": "uint256"
        }
      ],
      "name": "ProposalExecuted",
      "type": "event"
    },
    {
      "anonymous": false,
      "inputs": [
        {
          "indexed": false,
          "internalType": "uint256",
          "name": "id",
          "type": "uint256"
        },
        {
          "indexed": false,
          "internalType": "uint256",
          "name": "eta",
          "type": "uint256"
        }
      ],
      "name": "ProposalQueued",
      "type": "event"
    },
    {
      "anonymous": false,
      "inputs": [
        {
          "indexed": false,
          "internalType": "uint256",
          "name": "oldProposalThreshold",
          "type": "uint256"
        },
        {
          "indexed": false,
          "internalType": "uint256",
          "name": "newProposalThreshold",
          "type": "uint256"
        }
      ],
      "name": "ProposalThresholdSet",
      "type": "event"
    },
    {
      "anonymous": false,
      "inputs": [
        {
          "indexed": true,
          "internalType": "address",
          "name": "implementation",
          "type": "address"
        }
      ],
      "name": "Upgraded",
      "type": "event"
    },
    {
      "anonymous": false,
      "inputs": [
        {
          "indexed": true,
          "internalType": "address",
          "name": "voter",
          "type": "address"
        },
        {
          "indexed": false,
          "internalType": "uint256",
          "name": "proposalId",
          "type": "uint256"
        },
        {
          "indexed": false,
          "internalType": "uint8",
          "name": "support",
          "type": "uint8"
        },
        {
          "indexed": false,
          "internalType": "uint256",
          "name": "votes",
          "type": "uint256"
        },
        {
          "indexed": false,
          "internalType": "string",
          "name": "reason",
          "type": "string"
        }
      ],
      "name": "VoteCast",
      "type": "event"
    },
    {
      "anonymous": false,
      "inputs": [
        {
          "indexed": false,
          "internalType": "uint256",
          "name": "oldVotingDelay",
          "type": "uint256"
        },
        {
          "indexed": false,
          "internalType": "uint256",
          "name": "newVotingDelay",
          "type": "uint256"
        }
      ],
      "name": "VotingDelaySet",
      "type": "event"
    },
    {
      "anonymous": false,
      "inputs": [
        {
          "indexed": false,
          "internalType": "uint256",
          "name": "oldVotingPeriod",
          "type": "uint256"
        },
        {
          "indexed": false,
          "internalType": "uint256",
          "name": "newVotingPeriod",
          "type": "uint256"
        }
      ],
      "name": "VotingPeriodSet",
      "type": "event"
    },
    {
      "anonymous": false,
      "inputs": [
        {
          "indexed": false,
          "internalType": "address",
          "name": "account",
          "type": "address"
        },
        {
          "indexed": false,
          "internalType": "uint256",
          "name": "expiration",
          "type": "uint256"
        }
      ],
      "name": "WhitelistAccountExpirationSet",
      "type": "event"
    },
    {
      "anonymous": false,
      "inputs": [
        {
          "indexed": false,
          "internalType": "address",
          "name": "oldGuardian",
          "type": "address"
        },
        {
          "indexed": false,
          "internalType": "address",
          "name": "newGuardian",
          "type": "address"
        }
      ],
      "name": "WhitelistGuardianSet",
      "type": "event"
    },
    {
      "inputs": [],
      "name": "BALLOT_TYPEHASH",
      "outputs": [
        {
          "internalType": "bytes32",
          "name": "",
          "type": "bytes32"
        }
      ],
      "stateMutability": "view",
      "type": "function"
    },
    {
      "inputs": [],
      "name": "DOMAIN_TYPEHASH",
      "outputs": [
        {
          "internalType": "bytes32",
          "name": "",
          "type": "bytes32"
        }
      ],
      "stateMutability": "view",
      "type": "function"
    },
    {
      "inputs": [],
      "name": "MAX_VOTING_DELAY",
      "outputs": [
        {
          "internalType": "uint256",
          "name": "",
          "type": "uint256"
        }
      ],
      "stateMutability": "view",
      "type": "function"
    },
    {
      "inputs": [],
      "name": "MAX_VOTING_PERIOD",
      "outputs": [
        {
          "internalType": "uint256",
          "name": "",
          "type": "uint256"
        }
      ],
      "stateMutability": "view",
      "type": "function"
    },
    {
      "inputs": [],
      "name": "MIN_VOTING_DELAY",
      "outputs": [
        {
          "internalType": "uint256",
          "name": "",
          "type": "uint256"
        }
      ],
      "stateMutability": "view",
      "type": "function"
    },
    {
      "inputs": [],
      "name": "MIN_VOTING_PERIOD",
      "outputs": [
        {
          "internalType": "uint256",
          "name": "",
          "type": "uint256"
        }
      ],
      "stateMutability": "view",
      "type": "function"
    },
    {
      "inputs": [],
      "name": "_AcceptTimelockAdmin",
      "outputs": [],
      "stateMutability": "nonpayable",
      "type": "function"
    },
    {
      "inputs": [],
      "name": "_acceptAdmin",
      "outputs": [],
      "stateMutability": "nonpayable",
      "type": "function"
    },
    {
      "inputs": [
        {
          "internalType": "address",
          "name": "governorAlpha",
          "type": "address"
        }
      ],
      "name": "_initiate",
      "outputs": [],
      "stateMutability": "nonpayable",
      "type": "function"
    },
    {
      "inputs": [
        {
          "internalType": "address",
          "name": "newPendingAdmin",
          "type": "address"
        }
      ],
      "name": "_setPendingAdmin",
      "outputs": [],
      "stateMutability": "nonpayable",
      "type": "function"
    },
    {
      "inputs": [
        {
          "internalType": "uint256",
          "name": "_newQuorumThreshold",
          "type": "uint256"
        }
      ],
      "name": "_setQuorumVotes",
      "outputs": [],
      "stateMutability": "nonpayable",
      "type": "function"
    },
    {
      "inputs": [
        {
          "internalType": "uint256",
          "name": "newVotingDelay",
          "type": "uint256"
        }
      ],
      "name": "_setVotingDelay",
      "outputs": [],
      "stateMutability": "nonpayable",
      "type": "function"
    },
    {
      "inputs": [
        {
          "internalType": "uint256",
          "name": "newVotingPeriod",
          "type": "uint256"
        }
      ],
      "name": "_setVotingPeriod",
      "outputs": [],
      "stateMutability": "nonpayable",
      "type": "function"
    },
    {
      "inputs": [
        {
          "internalType": "address",
          "name": "account",
          "type": "address"
        },
        {
          "internalType": "uint256",
          "name": "expiration",
          "type": "uint256"
        }
      ],
      "name": "_setWhitelistAccountExpiration",
      "outputs": [],
      "stateMutability": "nonpayable",
      "type": "function"
    },
    {
      "inputs": [
        {
          "internalType": "address",
          "name": "account",
          "type": "address"
        }
      ],
      "name": "_setWhitelistGuardian",
      "outputs": [],
      "stateMutability": "nonpayable",
      "type": "function"
    },
    {
      "inputs": [],
      "name": "admin",
      "outputs": [
        {
          "internalType": "address",
          "name": "",
          "type": "address"
        }
      ],
      "stateMutability": "view",
      "type": "function"
    },
    {
      "inputs": [
        {
          "internalType": "uint256",
          "name": "proposalId",
          "type": "uint256"
        }
      ],
      "name": "cancel",
      "outputs": [],
      "stateMutability": "nonpayable",
      "type": "function"
    },
    {
      "inputs": [
        {
          "internalType": "uint256",
          "name": "proposalId",
          "type": "uint256"
        },
        {
          "internalType": "uint8",
          "name": "support",
          "type": "uint8"
        }
      ],
      "name": "castVote",
      "outputs": [],
      "stateMutability": "nonpayable",
      "type": "function"
    },
    {
      "inputs": [
        {
          "internalType": "uint256",
          "name": "proposalId",
          "type": "uint256"
        },
        {
          "internalType": "uint8",
          "name": "support",
          "type": "uint8"
        },
        {
          "internalType": "uint8",
          "name": "v",
          "type": "uint8"
        },
        {
          "internalType": "bytes32",
          "name": "r",
          "type": "bytes32"
        },
        {
          "internalType": "bytes32",
          "name": "s",
          "type": "bytes32"
        }
      ],
      "name": "castVoteBySig",
      "outputs": [],
      "stateMutability": "nonpayable",
      "type": "function"
    },
    {
      "inputs": [
        {
          "internalType": "uint256",
          "name": "proposalId",
          "type": "uint256"
        },
        {
          "internalType": "uint8",
          "name": "support",
          "type": "uint8"
        },
        {
          "internalType": "string",
          "name": "reason",
          "type": "string"
        }
      ],
      "name": "castVoteWithReason",
      "outputs": [],
      "stateMutability": "nonpayable",
      "type": "function"
    },
    {
      "inputs": [
        {
          "internalType": "uint256",
          "name": "proposalId",
          "type": "uint256"
        }
      ],
      "name": "execute",
      "outputs": [],
      "stateMutability": "payable",
      "type": "function"
    },
    {
      "inputs": [
        {
          "internalType": "uint256",
          "name": "proposalId",
          "type": "uint256"
        }
      ],
      "name": "getActions",
      "outputs": [
        {
          "internalType": "address[]",
          "name": "targets",
          "type": "address[]"
        },
        {
          "internalType": "uint256[]",
          "name": "values",
          "type": "uint256[]"
        },
        {
          "internalType": "string[]",
          "name": "signatures",
          "type": "string[]"
        },
        {
          "internalType": "bytes[]",
          "name": "calldatas",
          "type": "bytes[]"
        }
      ],
      "stateMutability": "view",
      "type": "function"
    },
    {
      "inputs": [
        {
          "internalType": "uint256",
          "name": "proposalId",
          "type": "uint256"
        },
        {
          "internalType": "address",
          "name": "voter",
          "type": "address"
        }
      ],
      "name": "getReceipt",
      "outputs": [
        {
          "components": [
            {
              "internalType": "bool",
              "name": "hasVoted",
              "type": "bool"
            },
            {
              "internalType": "uint8",
              "name": "support",
              "type": "uint8"
            },
            {
              "internalType": "uint256",
              "name": "votes",
              "type": "uint256"
            }
          ],
          "internalType": "struct GovernorBravoDelegateStorageV1.Receipt",
          "name": "",
          "type": "tuple"
        }
      ],
      "stateMutability": "view",
      "type": "function"
    },
    {
      "inputs": [],
      "name": "implementation",
      "outputs": [
        {
          "internalType": "address",
          "name": "",
          "type": "address"
        }
      ],
      "stateMutability": "view",
      "type": "function"
    },
    {
      "inputs": [],
      "name": "initialProposalId",
      "outputs": [
        {
          "internalType": "uint256",
          "name": "",
          "type": "uint256"
        }
      ],
      "stateMutability": "view",
      "type": "function"
    },
    {
      "inputs": [
        {
          "internalType": "address",
          "name": "timelock_",
          "type": "address"
        },
        {
          "internalType": "address",
          "name": "maia_",
          "type": "address"
        },
        {
          "internalType": "uint256",
          "name": "votingPeriod_",
          "type": "uint256"
        },
        {
          "internalType": "uint256",
          "name": "votingDelay_",
          "type": "uint256"
        },
        {
          "internalType": "address",
          "name": "valar_",
          "type": "address"
        }
      ],
      "name": "initialize",
      "outputs": [],
      "stateMutability": "nonpayable",
      "type": "function"
    },
    {
      "inputs": [
        {
          "internalType": "address",
          "name": "account",
          "type": "address"
        }
      ],
      "name": "isWhitelisted",
      "outputs": [
        {
          "internalType": "bool",
          "name": "",
          "type": "bool"
        }
      ],
      "stateMutability": "view",
      "type": "function"
    },
    {
      "inputs": [
        {
          "internalType": "address",
          "name": "",
          "type": "address"
        }
      ],
      "name": "latestProposalIds",
      "outputs": [
        {
          "internalType": "uint256",
          "name": "",
          "type": "uint256"
        }
      ],
      "stateMutability": "view",
      "type": "function"
    },
    {
      "inputs": [],
      "name": "maia",
      "outputs": [
        {
          "internalType": "contract maiaInterface",
          "name": "",
          "type": "address"
        }
      ],
      "stateMutability": "view",
      "type": "function"
    },
    {
      "inputs": [],
      "name": "name",
      "outputs": [
        {
          "internalType": "string",
          "name": "",
          "type": "string"
        }
      ],
      "stateMutability": "view",
      "type": "function"
    },
    {
      "inputs": [],
      "name": "pendingAdmin",
      "outputs": [
        {
          "internalType": "address",
          "name": "",
          "type": "address"
        }
      ],
      "stateMutability": "view",
      "type": "function"
    },
    {
      "inputs": [],
      "name": "proposalCount",
      "outputs": [
        {
          "internalType": "uint256",
          "name": "",
          "type": "uint256"
        }
      ],
      "stateMutability": "view",
      "type": "function"
    },
    {
      "inputs": [],
      "name": "proposalMaxOperations",
      "outputs": [
        {
          "internalType": "uint256",
          "name": "",
          "type": "uint256"
        }
      ],
      "stateMutability": "view",
      "type": "function"
    },
    {
      "inputs": [],
      "name": "proposalThreshold",
      "outputs": [
        {
          "internalType": "uint256",
          "name": "",
          "type": "uint256"
        }
      ],
      "stateMutability": "view",
      "type": "function"
    },
    {
      "inputs": [
        {
          "internalType": "uint256",
          "name": "",
          "type": "uint256"
        }
      ],
      "name": "proposals",
      "outputs": [
        {
          "internalType": "uint256",
          "name": "id",
          "type": "uint256"
        },
        {
          "internalType": "address",
          "name": "proposer",
          "type": "address"
        },
        {
          "internalType": "uint256",
          "name": "eta",
          "type": "uint256"
        },
        {
          "internalType": "uint256",
          "name": "startBlock",
          "type": "uint256"
        },
        {
          "internalType": "uint256",
          "name": "endBlock",
          "type": "uint256"
        },
        {
          "internalType": "uint256",
          "name": "forVotes",
          "type": "uint256"
        },
        {
          "internalType": "uint256",
          "name": "againstVotes",
          "type": "uint256"
        },
        {
          "internalType": "uint256",
          "name": "abstainVotes",
          "type": "uint256"
        },
        {
          "internalType": "bool",
          "name": "canceled",
          "type": "bool"
        },
        {
          "internalType": "bool",
          "name": "executed",
          "type": "bool"
        }
      ],
      "stateMutability": "view",
      "type": "function"
    },
    {
      "inputs": [
        {
          "internalType": "address[]",
          "name": "targets",
          "type": "address[]"
        },
        {
          "internalType": "uint256[]",
          "name": "values",
          "type": "uint256[]"
        },
        {
          "internalType": "string[]",
          "name": "signatures",
          "type": "string[]"
        },
        {
          "internalType": "bytes[]",
          "name": "calldatas",
          "type": "bytes[]"
        },
        {
          "internalType": "string",
          "name": "description",
          "type": "string"
        }
      ],
      "name": "propose",
      "outputs": [
        {
          "internalType": "uint256",
          "name": "",
          "type": "uint256"
        }
      ],
      "stateMutability": "nonpayable",
      "type": "function"
    },
    {
      "inputs": [
        {
          "internalType": "uint256",
          "name": "proposalId",
          "type": "uint256"
        }
      ],
      "name": "queue",
      "outputs": [],
      "stateMutability": "nonpayable",
      "type": "function"
    },
    {
      "inputs": [],
      "name": "quorumVotes",
      "outputs": [
        {
          "internalType": "uint256",
          "name": "",
          "type": "uint256"
        }
      ],
      "stateMutability": "view",
      "type": "function"
    },
    {
      "inputs": [
        {
          "internalType": "uint256",
          "name": "proposalId",
          "type": "uint256"
        }
      ],
      "name": "state",
      "outputs": [
        {
          "internalType": "enum GovernorBravoDelegateStorageV1.ProposalState",
          "name": "",
          "type": "uint8"
        }
      ],
      "stateMutability": "view",
      "type": "function"
    },
    {
      "inputs": [],
      "name": "timelock",
      "outputs": [
        {
          "internalType": "contract TimelockInterface",
          "name": "",
          "type": "address"
        }
      ],
      "stateMutability": "view",
      "type": "function"
    },
    {
      "inputs": [
        {
          "internalType": "address",
          "name": "newImplementation",
          "type": "address"
        }
      ],
      "name": "upgradeTo",
      "outputs": [],
      "stateMutability": "nonpayable",
      "type": "function"
    },
    {
      "inputs": [
        {
          "internalType": "address",
          "name": "newImplementation",
          "type": "address"
        },
        {
          "internalType": "bytes",
          "name": "data",
          "type": "bytes"
        }
      ],
      "name": "upgradeToAndCall",
      "outputs": [],
      "stateMutability": "payable",
      "type": "function"
    },
    {
      "inputs": [],
      "name": "votingDelay",
      "outputs": [
        {
          "internalType": "uint256",
          "name": "",
          "type": "uint256"
        }
      ],
      "stateMutability": "view",
      "type": "function"
    },
    {
      "inputs": [],
      "name": "votingPeriod",
      "outputs": [
        {
          "internalType": "uint256",
          "name": "",
          "type": "uint256"
        }
      ],
      "stateMutability": "view",
      "type": "function"
    },
    {
      "inputs": [
        {
          "internalType": "address",
          "name": "",
          "type": "address"
        }
      ],
      "name": "whitelistAccountExpirations",
      "outputs": [
        {
          "internalType": "uint256",
          "name": "",
          "type": "uint256"
        }
      ],
      "stateMutability": "view",
      "type": "function"
    },
    {
      "inputs": [],
      "name": "whitelistGuardian",
      "outputs": [
        {
          "internalType": "address",
          "name": "",
          "type": "address"
        }
      ],
      "stateMutability": "view",
      "type": "function"
    }
  ],
  "bytecode": "0x60a06040523060601b608052670de0b6b3a764000060735534801561002357600080fd5b5060805160601c61441361005760003960008181610e5701528181610e9701528181611716015261175601526144136000f3fe60806040526004361061027d5760003560e01c80635c60da1b1161014f578063d33219b4116100c1578063e48083fe1161007a578063e48083fe1461046b578063e9c714f21461091e578063f851a44014610933578063f9d28b8014610953578063fc4eee4214610973578063fe0d94c1146109895761027d565b8063d33219b4146107be578063da35c664146107de578063da95691a146107f4578063ddf0b00914610814578063deaaa7cc14610834578063e23a9a52146108685761027d565b8063a37ee07d11610113578063a37ee07d14610726578063a64e024a1461073b578063b112626314610752578063b58131b014610768578063b71d1a0c1461077e578063c5a8425d1461079e5761027d565b80635c60da1b146106915780637b3c71d3146106b15780637bdbe4d0146106d157806386d37e8b146106e657806399533365146107065761027d565b80633659cfe6116101f357806340e58ee5116101ac57806340e58ee5146105de5780634c340179146105fe5780634d6733d21461061e5780634f1ef2861461063e578063567813881461065157806357fb25cc146106715761027d565b80633659cfe6146104fe57806338bd0dda1461051e5780633932abb11461054b5780633af32abf146105615780633bccf4fd146105915780633e4f49e6146105b15761027d565b80631dfb1b5a116102455780631dfb1b5a1461041757806320606b7014610437578063215809ca1461046b57806324bc1a64146104805780632678224714610496578063328dd982146104ce5761027d565b8063013cf08b1461028257806302a251a31461035957806306fdde031461037d5780630ea2d98c146103c857806317977c61146103ea575b600080fd5b34801561028e57600080fd5b506102fe61029d366004613c62565b606f602052600090815260409020805460018201546002830154600784015460088501546009860154600a870154600b880154600c9098015496976001600160a01b0390961696949593949293919290919060ff808216916101009004168a565b604080519a8b526001600160a01b0390991660208b0152978901969096526060880194909452608087019290925260a086015260c085015260e084015215156101008301521515610120820152610140015b60405180910390f35b34801561036557600080fd5b5061036f60695481565b604051908152602001610350565b34801561038957600080fd5b506103bb6040518060400160405280601281526020017144414f20476f7665726e6f7220427261766f60701b81525081565b6040516103509190614047565b3480156103d457600080fd5b506103e86103e3366004613c62565b61099c565b005b3480156103f657600080fd5b5061036f610405366004613a0f565b60706020526000908152604090205481565b34801561042357600080fd5b506103e8610432366004613c62565b610a94565b34801561044357600080fd5b5061036f7f8cad95687ba82c2ce50e74f7b754645e5117c3a5bec8151c0726d5857980a86681565b34801561047757600080fd5b5061036f600181565b34801561048c57600080fd5b5061036f60735481565b3480156104a257600080fd5b506066546104b6906001600160a01b031681565b6040516001600160a01b039091168152602001610350565b3480156104da57600080fd5b506104ee6104e9366004613c62565b610bbb565b6040516103509493929190613fc7565b34801561050a57600080fd5b506103e8610519366004613a0f565b610e4c565b34801561052a57600080fd5b5061036f610539366004613a0f565b60716020526000908152604090205481565b34801561055757600080fd5b5061036f60685481565b34801561056d57600080fd5b5061058161057c366004613a0f565b610f15565b6040519015158152602001610350565b34801561059d57600080fd5b506103e86105ac366004613d49565b610f36565b3480156105bd57600080fd5b506105d16105cc366004613c62565b6111a5565b604051610350919061401f565b3480156105ea57600080fd5b506103e86105f9366004613c62565b61136a565b34801561060a57600080fd5b50606e546104b6906001600160a01b031681565b34801561062a57600080fd5b506103e8610639366004613acb565b611625565b6103e861064c366004613a7f565b61170b565b34801561065d57600080fd5b506103e861066c366004613ca5565b6117c5565b34801561067d57600080fd5b506103e861068c366004613a29565b611827565b34801561069d57600080fd5b506067546104b6906001600160a01b031681565b3480156106bd57600080fd5b506103e86106cc366004613cc7565b611b2e565b3480156106dd57600080fd5b5061036f600a81565b3480156106f257600080fd5b506103e8610701366004613c62565b611b7e565b34801561071257600080fd5b506103e8610721366004613a0f565b611bad565b34801561073257600080fd5b506103e8611cea565b34801561074757600080fd5b5061036f62013b0081565b34801561075e57600080fd5b5061036f619d8081565b34801561077457600080fd5b5061036f606a5481565b34801561078a57600080fd5b506103e8610799366004613a0f565b611d54565b3480156107aa57600080fd5b506072546104b6906001600160a01b031681565b3480156107ca57600080fd5b50606d546104b6906001600160a01b031681565b3480156107ea57600080fd5b5061036f606c5481565b34801561080057600080fd5b5061036f61080f366004613af4565b611e86565b34801561082057600080fd5b506103e861082f366004613c62565b6123c3565b34801561084057600080fd5b5061036f7f150214d74d59b7d1e90c73fc22ef3d991dd0a76b046543d4d80ab92d2a50328f81565b34801561087457600080fd5b506108f7610883366004613c7a565b6040805160608101825260008082526020820181905291810191909152506000918252606f602090815260408084206001600160a01b03939093168452600d9092018152918190208151606081018352815460ff808216151583526101009091041693810193909352600101549082015290565b6040805182511515815260208084015160ff16908201529181015190820152606001610350565b34801561092a57600080fd5b506103e8612710565b34801561093f57600080fd5b506065546104b6906001600160a01b031681565b34801561095f57600080fd5b506103e861096e366004613a0f565b61283a565b34801561097f57600080fd5b5061036f606b5481565b6103e8610997366004613c62565b612a22565b6065546001600160a01b031633146109cf5760405162461bcd60e51b81526004016109c69061405a565b60405180910390fd5b600181101580156109e3575062013b008111155b610a4e5760405162461bcd60e51b815260206004820152603660248201527f476f7665726e6f72427261766f3a3a5f736574566f74696e67506572696f643a604482015275081a5b9d985b1a59081d9bdd1a5b99c81c195c9a5bd960521b60648201526084016109c6565b606980549082905560408051828152602081018490527f7e3f7f0708a84de9203036abaa450dccc85ad5ff52f78c170f3edb55cf5e882891015b60405180910390a15050565b6065546001600160a01b03163314610b015760405162461bcd60e51b815260206004820152602a60248201527f476f7665726e6f72427261766f3a3a5f736574566f74696e6744656c61793a2060448201526961646d696e206f6e6c7960b01b60648201526084016109c6565b60018110158015610b145750619d808111155b610b7d5760405162461bcd60e51b815260206004820152603460248201527f476f7665726e6f72427261766f3a3a5f736574566f74696e6744656c61793a20604482015273696e76616c696420766f74696e672064656c617960601b60648201526084016109c6565b606880549082905560408051828152602081018490527fc565b045403dc03c2eea82b81a0465edad9e2e7fc4d97e11421c209da93d7a939101610a88565b6060806060806000606f600087815260200190815260200160002090508060030181600401826005018360060183805480602002602001604051908101604052809291908181526020018280548015610c3d57602002820191906000526020600020905b81546001600160a01b03168152600190910190602001808311610c1f575b5050505050935082805480602002602001604051908101604052809291908181526020018280548015610c8f57602002820191906000526020600020905b815481526020019060010190808311610c7b575b5050505050925081805480602002602001604051908101604052809291908181526020016000905b82821015610d63578382906000526020600020018054610cd69061431a565b80601f0160208091040260200160405190810160405280929190818152602001828054610d029061431a565b8015610d4f5780601f10610d2457610100808354040283529160200191610d4f565b820191906000526020600020905b815481529060010190602001808311610d3257829003601f168201915b505050505081526020019060010190610cb7565b50505050915080805480602002602001604051908101604052809291908181526020016000905b82821015610e36578382906000526020600020018054610da99061431a565b80601f0160208091040260200160405190810160405280929190818152602001828054610dd59061431a565b8015610e225780601f10610df757610100808354040283529160200191610e22565b820191906000526020600020905b815481529060010190602001808311610e0557829003601f168201915b505050505081526020019060010190610d8a565b5050505090509450945094509450509193509193565b306001600160a01b037f0000000000000000000000000000000000000000000000000000000000000000161415610e955760405162461bcd60e51b81526004016109c6906140a5565b7f00000000000000000000000000000000000000000000000000000000000000006001600160a01b0316610ec7612d05565b6001600160a01b031614610eed5760405162461bcd60e51b81526004016109c6906140f1565b610ef681612d33565b60408051600080825260208201909252610f1291839190612d9b565b50565b6001600160a01b03811660009081526071602052604090205442105b919050565b604080518082018252601281527144414f20476f7665726e6f7220427261766f60701b60209182015281517f8cad95687ba82c2ce50e74f7b754645e5117c3a5bec8151c0726d5857980a866818301527f573b95fd0a084985a7a662f6070c491894af81fd46809f0eebc2112f7257b83e81840152466060820152306080808301919091528351808303909101815260a0820184528051908301207f150214d74d59b7d1e90c73fc22ef3d991dd0a76b046543d4d80ab92d2a50328f60c083015260e0820189905260ff8816610100808401919091528451808403909101815261012083019094528351939092019290922061190160f01b6101408401526101428301829052610162830181905290916000906101820160408051601f198184030181528282528051602091820120600080855291840180845281905260ff8a169284019290925260608301889052608083018790529092509060019060a0016020604051602081039080840390855afa1580156110b8573d6000803e3d6000fd5b5050604051601f1901519150506001600160a01b0381166111335760405162461bcd60e51b815260206004820152602f60248201527f476f7665726e6f72427261766f3a3a63617374566f746542795369673a20696e60448201526e76616c6964207369676e617475726560881b60648201526084016109c6565b806001600160a01b03167fb8e138887d0aa13bab447e82de9d5c1777041ecd21ca36ba824ff1e6c07ddda48a8a61116b858e8e612ee6565b6040805193845260ff90921660208401529082015260806060820181905260009082015260a00160405180910390a2505050505050505050565b600081606c54101580156111ba5750606b5482115b6112185760405162461bcd60e51b815260206004820152602960248201527f476f7665726e6f72427261766f3a3a73746174653a20696e76616c69642070726044820152681bdc1bdcd85b081a5960ba1b60648201526084016109c6565b6000828152606f60205260409020600c81015460ff161561123d576002915050610f31565b80600701544311611252576000915050610f31565b80600801544311611267576001915050610f31565b80600a0154816009015411158061128357506073548160090154105b15611292576003915050610f31565b60028101546112a5576004915050610f31565b600c810154610100900460ff16156112c1576007915050610f31565b6002810154606d54604080516360d143f160e11b8152905161134a93926001600160a01b03169163c1a287e2916004808301926020929190829003018186803b15801561130d57600080fd5b505afa158015611321573d6000803e3d6000fd5b505050506040513d601f19601f820116820180604052508101906113459190613be0565b6131ab565b421061135a576006915050610f31565b6005915050610f31565b50919050565b6007611375826111a5565b600781111561139457634e487b7160e01b600052602160045260246000fd5b14156114015760405162461bcd60e51b815260206004820152603660248201527f476f7665726e6f72427261766f3a3a63616e63656c3a2063616e6e6f742063616044820152751b98d95b08195e1958dd5d1959081c1c9bdc1bdcd85b60521b60648201526084016109c6565b6000818152606f6020526040902060018101546001600160a01b031633146114915760405162461bcd60e51b815260206004820152603860248201527f476f7665726e6f72427261766f3a3a63616e63656c3a204f746865722075736560448201527f722063616e6e6f742063616e63656c2070726f706f73616c000000000000000060648201526084016109c6565b600c8101805460ff1916600117905560005b60038201548110156115f457606d546003830180546001600160a01b039092169163591fcdfe9190849081106114e957634e487b7160e01b600052603260045260246000fd5b6000918252602090912001546004850180546001600160a01b03909216918590811061152557634e487b7160e01b600052603260045260246000fd5b906000526020600020015485600501858154811061155357634e487b7160e01b600052603260045260246000fd5b9060005260206000200186600601868154811061158057634e487b7160e01b600052603260045260246000fd5b9060005260206000200187600201546040518663ffffffff1660e01b81526004016115af959493929190613f8e565b600060405180830381600087803b1580156115c957600080fd5b505af11580156115dd573d6000803e3d6000fd5b5050505080806115ec9061434f565b9150506114a3565b506040518281527f789cf55be980739dad1d0699b93b58e806b51c9d96619bfa8fe0a28abaa7b30c90602001610a88565b6065546001600160a01b031633148061164857506072546001600160a01b031633145b6116ba5760405162461bcd60e51b815260206004820152603960248201527f476f7665726e6f72427261766f3a3a5f73657457686974656c6973744163636f60448201527f756e7445787069726174696f6e3a2061646d696e206f6e6c790000000000000060648201526084016109c6565b6001600160a01b038216600081815260716020908152604091829020849055815192835282018390527f4e7b7545bc5744d0e30425959f4687475774b6c7edad77d24cb51c7d967d45159101610a88565b306001600160a01b037f00000000000000000000000000000000000000000000000000000000000000001614156117545760405162461bcd60e51b81526004016109c6906140a5565b7f00000000000000000000000000000000000000000000000000000000000000006001600160a01b0316611786612d05565b6001600160a01b0316146117ac5760405162461bcd60e51b81526004016109c6906140f1565b6117b582612d33565b6117c182826001612d9b565b5050565b337fb8e138887d0aa13bab447e82de9d5c1777041ecd21ca36ba824ff1e6c07ddda483836117f4848383612ee6565b6040805193845260ff90921660208401529082015260806060820181905260009082015260a00160405180910390a25050565b600054610100900460ff166118425760005460ff1615611846565b303b155b6118a95760405162461bcd60e51b815260206004820152602e60248201527f496e697469616c697a61626c653a20636f6e747261637420697320616c72656160448201526d191e481a5b9a5d1a585b1a5e995960921b60648201526084016109c6565b600054610100900460ff161580156118d4576000805460ff1961ff0019909116610100171660011790555b606d546001600160a01b0316156119495760405162461bcd60e51b815260206004820152603360248201527f476f7665726e6f72427261766f3a3a696e697469616c697a653a2063616e206f6044820152726e6c7920696e697469616c697a65206f6e636560681b60648201526084016109c6565b6001600160a01b0386166119a95760405162461bcd60e51b8152602060048201526033602482015260008051602061439783398151915260448201527269642074696d656c6f636b206164647265737360681b60648201526084016109c6565b6001600160a01b0385166119cf5760405162461bcd60e51b81526004016109c69061413d565b6001600160a01b0382166119f55760405162461bcd60e51b81526004016109c69061413d565b60018410158015611a09575062013b008411155b611a5c5760405162461bcd60e51b8152602060048201526030602482015260008051602061439783398151915260448201526f1a59081d9bdd1a5b99c81c195c9a5bd960821b60648201526084016109c6565b60018310158015611a6f5750619d808311155b611ac15760405162461bcd60e51b815260206004820152602f602482015260008051602061439783398151915260448201526e696420766f74696e672064656c617960881b60648201526084016109c6565b606d80546001600160a01b038089166001600160a01b03199283168117909355606e805489831690841617905560748054918616918316919091179055606986905560688590556065805490911690911790558015611b26576000805461ff00191690555b505050505050565b337fb8e138887d0aa13bab447e82de9d5c1777041ecd21ca36ba824ff1e6c07ddda48585611b5d848383612ee6565b8686604051611b70959493929190614212565b60405180910390a250505050565b6065546001600160a01b03163314611ba85760405162461bcd60e51b81526004016109c69061405a565b607355565b6001600160a01b038116611c1d5760405162461bcd60e51b815260206004820152603160248201527f476f7665726e6f72427261766f3a5f73657457686974656c697374477561726460448201527069616e3a207a65726f206164647265737360781b60648201526084016109c6565b6065546001600160a01b03163314611c905760405162461bcd60e51b815260206004820152603060248201527f476f7665726e6f72427261766f3a3a5f73657457686974656c6973744775617260448201526f6469616e3a2061646d696e206f6e6c7960801b60648201526084016109c6565b607280546001600160a01b038381166001600160a01b031983161792839055604080519282168084529390911660208301527f80a07e73e552148844a9c216d9724212d609cfa54e9c1a2e97203bdd2c4ad3419101610a88565b606d60009054906101000a90046001600160a01b03166001600160a01b0316630e18b6816040518163ffffffff1660e01b8152600401600060405180830381600087803b158015611d3a57600080fd5b505af1158015611d4e573d6000803e3d6000fd5b50505050565b6001600160a01b038116611dbf5760405162461bcd60e51b815260206004820152602c60248201527f476f7665726e6f72427261766f3a5f73657450656e64696e6741646d696e3a2060448201526b7a65726f206164647265737360a01b60648201526084016109c6565b6065546001600160a01b03163314611e2c5760405162461bcd60e51b815260206004820152602a60248201527f476f7665726e6f72427261766f3a5f73657450656e64696e6741646d696e3a2060448201526961646d696e206f6e6c7960b01b60648201526084016109c6565b606680546001600160a01b038381166001600160a01b031983168117909355604080519190921680825260208201939093527fca4f2f25d0898edd99413412fb94012f9e54ec8142f9b093e7720646a95b16a99101610a88565b6074546040516370a0823160e01b815233600482015260009182916001600160a01b03909116906370a082319060240160206040518083038186803b158015611ece57600080fd5b505afa158015611ee2573d6000803e3d6000fd5b505050506040513d601f19601f82011682018060405250810190611f069190613be0565b11611f5e5760405162461bcd60e51b815260206004820152602260248201527f476f7665726e6f72427261766f3a3a70726f706f73653a206f6e6c792076616c60448201526130b960f11b60648201526084016109c6565b84518651148015611f70575083518651145b8015611f7d575082518651145b611ffd5760405162461bcd60e51b8152602060048201526044602482018190527f476f7665726e6f72427261766f3a3a70726f706f73653a2070726f706f73616c908201527f2066756e6374696f6e20696e666f726d6174696f6e206172697479206d69736d6064820152630c2e8c6d60e31b608482015260a4016109c6565b600a865111156120605760405162461bcd60e51b815260206004820152602860248201527f476f7665726e6f72427261766f3a3a70726f706f73653a20746f6f206d616e7960448201526720616374696f6e7360c01b60648201526084016109c6565b3360009081526070602052604090205480156121fd576000612081826111a5565b905060018160078111156120a557634e487b7160e01b600052602160045260246000fd5b141561213f5760405162461bcd60e51b815260206004820152605860248201527f476f7665726e6f72427261766f3a3a70726f706f73653a206f6e65206c69766560448201527f2070726f706f73616c207065722070726f706f7365722c20666f756e6420616e60648201527f20616c7265616479206163746976652070726f706f73616c0000000000000000608482015260a4016109c6565b600081600781111561216157634e487b7160e01b600052602160045260246000fd5b14156121fb5760405162461bcd60e51b815260206004820152605960248201527f476f7665726e6f72427261766f3a3a70726f706f73653a206f6e65206c69766560448201527f2070726f706f73616c207065722070726f706f7365722c20666f756e6420616e60648201527f20616c72656164792070656e64696e672070726f706f73616c00000000000000608482015260a4016109c6565b505b600061220b436068546131ab565b9050600061221b826069546131ab565b606c8054919250600061222d8361434f565b9091555050606c546000818152606f6020908152604082209283556001830180546001600160a01b0319163317905560028301919091558a51612278916003840191908d01906135d4565b50885161228e90600483019060208c0190613639565b5087516122a490600583019060208b0190613674565b5086516122ba90600683019060208a01906136cd565b5082816007018190555081816008018190555060008160090181905550600081600a0181905550600081600b0181905550600081600c0160006101000a81548160ff021916908315150217905550600081600c0160016101000a81548160ff0219169083151502179055508060000154607060008360010160009054906101000a90046001600160a01b03166001600160a01b03166001600160a01b03168152602001908152602001600020819055507f7d84a6263ae0d98d3329bd7b46bb4e8d6f98cd35a7adb45c274c8b7fd5ebd5e08160000154338c8c8c8c89898e6040516123ad9998979695949392919061417a565b60405180910390a1549998505050505050505050565b60046123ce826111a5565b60078111156123ed57634e487b7160e01b600052602160045260246000fd5b1461246e5760405162461bcd60e51b8152602060048201526044602482018190527f476f7665726e6f72427261766f3a3a71756575653a2070726f706f73616c2063908201527f616e206f6e6c79206265207175657565642069662069742069732073756363656064820152631959195960e21b608482015260a4016109c6565b6000818152606f60209081526040808320606d548251630d48571f60e31b815292519194936124c89342936001600160a01b0390931692636a42b8f892600480840193919291829003018186803b15801561130d57600080fd5b905060005b60038301548110156126ca576126b88360030182815481106124ff57634e487b7160e01b600052603260045260246000fd5b6000918252602090912001546004850180546001600160a01b03909216918490811061253b57634e487b7160e01b600052603260045260246000fd5b906000526020600020015485600501848154811061256957634e487b7160e01b600052603260045260246000fd5b90600052602060002001805461257e9061431a565b80601f01602080910402602001604051908101604052809291908181526020018280546125aa9061431a565b80156125f75780601f106125cc576101008083540402835291602001916125f7565b820191906000526020600020905b8154815290600101906020018083116125da57829003601f168201915b505050505086600601858154811061261f57634e487b7160e01b600052603260045260246000fd5b9060005260206000200180546126349061431a565b80601f01602080910402602001604051908101604052809291908181526020018280546126609061431a565b80156126ad5780601f10612682576101008083540402835291602001916126ad565b820191906000526020600020905b81548152906001019060200180831161269057829003601f168201915b5050505050866131fe565b806126c28161434f565b9150506124cd565b506002820181905560408051848152602081018390527f9a2e42fd6722813d69113e7d0079d3d940171428df7373df9c7f7617cfda2892910160405180910390a1505050565b6066546001600160a01b03163314801561272957503315155b61278c5760405162461bcd60e51b815260206004820152602e60248201527f476f7665726e6f72427261766f3a5f61636365707441646d696e3a2070656e6460448201526d696e672061646d696e206f6e6c7960901b60648201526084016109c6565b60658054606680546001600160a01b038082166001600160a01b031980861682179687905590921690925560408051938316808552949092166020840152917ff9ffabca9c8276e99321725bcb43fb076a6c66a54b7f21c4e8146d8519b417dc910160405180910390a1606654604080516001600160a01b03808516825290921660208301527fca4f2f25d0898edd99413412fb94012f9e54ec8142f9b093e7720646a95b16a99101610a88565b6065546001600160a01b031633146128a05760405162461bcd60e51b8152602060048201526024808201527f476f7665726e6f72427261766f3a3a5f696e6974696174653a2061646d696e206044820152636f6e6c7960e01b60648201526084016109c6565b606b54156129095760405162461bcd60e51b815260206004820152603060248201527f476f7665726e6f72427261766f3a3a5f696e6974696174653a2063616e206f6e60448201526f6c7920696e697469617465206f6e636560801b60648201526084016109c6565b806001600160a01b031663da35c6646040518163ffffffff1660e01b8152600401602060405180830381600087803b15801561294457600080fd5b505af1158015612958573d6000803e3d6000fd5b505050506040513d601f19601f8201168201806040525081019061297c9190613be0565b606c819055606b55606d5460408051630e18b68160e01b815290516001600160a01b0390921691630e18b6819160048082019260009290919082900301818387803b1580156129ca57600080fd5b505af11580156129de573d6000803e3d6000fd5b50506040516001600160a01b03841681527fc6055e6fe22e34bcdffce73c5d2968b6b2b71a5202db09bf28a9cda3002c479a9250602001905060405180910390a150565b6005612a2d826111a5565b6007811115612a4c57634e487b7160e01b600052602160045260246000fd5b14612acd5760405162461bcd60e51b815260206004820152604560248201527f476f7665726e6f72427261766f3a3a657865637574653a2070726f706f73616c60448201527f2063616e206f6e6c7920626520657865637574656420696620697420697320716064820152641d595d595960da1b608482015260a4016109c6565b6000818152606f60205260409020600c8101805461ff0019166101001790556003810154612b2e576040518281527f712ae1383f79ac853f8d882153778e0260ef8f03b504e2866e0593e04d2b291f9060200160405180910390a150610f12565b60005b6003820154811015612cd457606d546004830180546001600160a01b0390921691630825f38f919084908110612b7757634e487b7160e01b600052603260045260246000fd5b9060005260206000200154846003018481548110612ba557634e487b7160e01b600052603260045260246000fd5b6000918252602090912001546004860180546001600160a01b039092169186908110612be157634e487b7160e01b600052603260045260246000fd5b9060005260206000200154866005018681548110612c0f57634e487b7160e01b600052603260045260246000fd5b90600052602060002001876006018781548110612c3c57634e487b7160e01b600052603260045260246000fd5b9060005260206000200188600201546040518763ffffffff1660e01b8152600401612c6b959493929190613f8e565b6000604051808303818588803b158015612c8457600080fd5b505af1158015612c98573d6000803e3d6000fd5b50505050506040513d6000823e601f3d908101601f19168201604052612cc19190810190613bf8565b5080612ccc8161434f565b915050612b31565b506040518281527f712ae1383f79ac853f8d882153778e0260ef8f03b504e2866e0593e04d2b291f90602001610a88565b7f360894a13ba1a3210667c828492db98dca3e2076cc3735a920a3ca505d382bbc546001600160a01b031690565b6065546001600160a01b03163314610f125760405162461bcd60e51b815260206004820152602560248201527f4f6e6c792061646d696e2063616e207570677261646520696d706c656d656e7460448201526430ba34b7b760d91b60648201526084016109c6565b6000612da5612d05565b9050612db0846133cb565b600083511180612dbd5750815b15612dce57612dcc8484613470565b505b7f4910fdfa16fed3260ed0e7147f7cc6da11a60208b5b9406d12a635614ffd9143805460ff16612edf57805460ff191660011781556040516001600160a01b0383166024820152612e4d90869060440160408051601f198184030181529190526020810180516001600160e01b0316631b2ce7f360e11b179052613470565b50805460ff19168155612e5e612d05565b6001600160a01b0316826001600160a01b031614612ed65760405162461bcd60e51b815260206004820152602f60248201527f45524331393637557067726164653a207570677261646520627265616b73206660448201526e75727468657220757067726164657360881b60648201526084016109c6565b612edf8561355b565b5050505050565b60006001612ef3846111a5565b6007811115612f1257634e487b7160e01b600052602160045260246000fd5b14612f795760405162461bcd60e51b815260206004820152603160248201527f476f7665726e6f72427261766f3a3a63617374566f7465496e7465726e616c3a604482015270081d9bdd1a5b99c81a5cc818db1bdcd959607a1b60648201526084016109c6565b60028260ff161115612fe85760405162461bcd60e51b815260206004820152603260248201527f476f7665726e6f72427261766f3a3a63617374566f7465496e7465726e616c3a60448201527120696e76616c696420766f7465207479706560701b60648201526084016109c6565b6000838152606f602090815260408083206001600160a01b0388168452600d8101909252909120805460ff161561307e5760405162461bcd60e51b815260206004820152603460248201527f476f7665726e6f72427261766f3a3a63617374566f7465496e7465726e616c3a604482015273081d9bdd195c88185b1c9958591e481d9bdd195960621b60648201526084016109c6565b606e546007830154604051630748d63560e31b81526000926001600160a01b031691633a46b1a8916130c8918b916004016001600160a01b03929092168252602082015260400190565b60206040518083038186803b1580156130e057600080fd5b505afa1580156130f4573d6000803e3d6000fd5b505050506040513d601f19601f820116820180604052508101906131189190613be0565b905060ff851661313a5761313083600a0154826131ab565b600a84015561317e565b8460ff166001141561315e576131548360090154826131ab565b600984015561317e565b8460ff166002141561317e5761317883600b0154826131ab565b600b8401555b8154600160ff19909116811761ff00191661010060ff8816021783559091018190559150505b9392505050565b6000806131b883856142d6565b9050838110156131a45760405162461bcd60e51b81526020600482015260116024820152706164646974696f6e206f766572666c6f7760781b60448201526064016109c6565b606d546040516001600160a01b039091169063f2b065379061322c9088908890889088908890602001613f42565b604051602081830303815290604052805190602001206040518263ffffffff1660e01b815260040161326091815260200190565b60206040518083038186803b15801561327857600080fd5b505afa15801561328c573d6000803e3d6000fd5b505050506040513d601f19601f820116820180604052508101906132b09190613bc0565b156133415760405162461bcd60e51b815260206004820152605560248201527f476f7665726e6f72427261766f3a3a71756575654f72526576657274496e746560448201527f726e616c3a206964656e746963616c2070726f706f73616c20616374696f6e20606482015274616c7265616479207175657565642061742065746160581b608482015260a4016109c6565b606d54604051633a66f90160e01b81526001600160a01b0390911690633a66f901906133799088908890889088908890600401613f42565b602060405180830381600087803b15801561339357600080fd5b505af11580156133a7573d6000803e3d6000fd5b505050506040513d601f19601f82011682018060405250810190611b269190613be0565b803b61342f5760405162461bcd60e51b815260206004820152602d60248201527f455243313936373a206e657720696d706c656d656e746174696f6e206973206e60448201526c1bdd08184818dbdb9d1c9858dd609a1b60648201526084016109c6565b7f360894a13ba1a3210667c828492db98dca3e2076cc3735a920a3ca505d382bbc80546001600160a01b0319166001600160a01b0392909216919091179055565b6060823b6134cf5760405162461bcd60e51b815260206004820152602660248201527f416464726573733a2064656c65676174652063616c6c20746f206e6f6e2d636f6044820152651b9d1c9858dd60d21b60648201526084016109c6565b600080846001600160a01b0316846040516134ea9190613f26565b600060405180830381855af49150503d8060008114613525576040519150601f19603f3d011682016040523d82523d6000602084013e61352a565b606091505b509150915061355282826040518060600160405280602781526020016143b76027913961359b565b95945050505050565b613564816133cb565b6040516001600160a01b038216907fbc7cd75a20ee27fd9adebab32041f755214dbc6bffa90cc0225b39da2e5c2d3b90600090a250565b606083156135aa5750816131a4565b8251156135ba5782518084602001fd5b8160405162461bcd60e51b81526004016109c69190614047565b828054828255906000526020600020908101928215613629579160200282015b8281111561362957825182546001600160a01b0319166001600160a01b039091161782556020909201916001909101906135f4565b50613635929150613726565b5090565b828054828255906000526020600020908101928215613629579160200282015b82811115613629578251825591602001919060010190613659565b8280548282559060005260206000209081019282156136c1579160200282015b828111156136c157825180516136b191849160209091019061373b565b5091602001919060010190613694565b506136359291506137ae565b82805482825590600052602060002090810192821561371a579160200282015b8281111561371a578251805161370a91849160209091019061373b565b50916020019190600101906136ed565b506136359291506137cb565b5b808211156136355760008155600101613727565b8280546137479061431a565b90600052602060002090601f0160209004810192826137695760008555613629565b82601f1061378257805160ff1916838001178555613629565b828001600101855582156136295791820182811115613629578251825591602001919060010190613659565b808211156136355760006137c282826137e8565b506001016137ae565b808211156136355760006137df82826137e8565b506001016137cb565b5080546137f49061431a565b6000825580601f106138065750610f12565b601f016020900490600052602060002090810190610f129190613726565b80356001600160a01b0381168114610f3157600080fd5b600082601f83011261384b578081fd5b8135602061386061385b8361428a565b614259565b828152818101908583018385028701840188101561387c578586fd5b855b858110156138a15761388f82613824565b8452928401929084019060010161387e565b5090979650505050505050565b600082601f8301126138be578081fd5b813560206138ce61385b8361428a565b82815281810190858301855b858110156138a1576138f1898684358b01016139b2565b845292840192908401906001016138da565b600082601f830112613913578081fd5b8135602061392361385b8361428a565b82815281810190858301855b858110156138a157613946898684358b01016139b2565b8452928401929084019060010161392f565b600082601f830112613968578081fd5b8135602061397861385b8361428a565b8281528181019085830183850287018401881015613994578586fd5b855b858110156138a157813584529284019290840190600101613996565b600082601f8301126139c2578081fd5b81356139d061385b826142ae565b8181528460208386010111156139e4578283fd5b816020850160208301379081016020019190915292915050565b803560ff81168114610f3157600080fd5b600060208284031215613a20578081fd5b6131a482613824565b600080600080600060a08688031215613a40578081fd5b613a4986613824565b9450613a5760208701613824565b93506040860135925060608601359150613a7360808701613824565b90509295509295909350565b60008060408385031215613a91578182fd5b613a9a83613824565b9150602083013567ffffffffffffffff811115613ab5578182fd5b613ac1858286016139b2565b9150509250929050565b60008060408385031215613add578182fd5b613ae683613824565b946020939093013593505050565b600080600080600060a08688031215613b0b578283fd5b853567ffffffffffffffff80821115613b22578485fd5b613b2e89838a0161383b565b96506020880135915080821115613b43578485fd5b613b4f89838a01613958565b95506040880135915080821115613b64578485fd5b613b7089838a01613903565b94506060880135915080821115613b85578283fd5b613b9189838a016138ae565b93506080880135915080821115613ba6578283fd5b50613bb3888289016139b2565b9150509295509295909350565b600060208284031215613bd1578081fd5b815180151581146131a4578182fd5b600060208284031215613bf1578081fd5b5051919050565b600060208284031215613c09578081fd5b815167ffffffffffffffff811115613c1f578182fd5b8201601f81018413613c2f578182fd5b8051613c3d61385b826142ae565b818152856020838501011115613c51578384fd5b6135528260208301602086016142ee565b600060208284031215613c73578081fd5b5035919050565b60008060408385031215613c8c578182fd5b82359150613c9c60208401613824565b90509250929050565b60008060408385031215613cb7578182fd5b82359150613c9c602084016139fe565b60008060008060608587031215613cdc578182fd5b84359350613cec602086016139fe565b9250604085013567ffffffffffffffff80821115613d08578384fd5b818701915087601f830112613d1b578384fd5b813581811115613d29578485fd5b886020828501011115613d3a578485fd5b95989497505060200194505050565b600080600080600060a08688031215613d60578283fd5b85359450613d70602087016139fe565b9350613d7e604087016139fe565b94979396509394606081013594506080013592915050565b6000815180845260208085019450808401835b83811015613dce5781516001600160a01b031687529582019590820190600101613da9565b509495945050505050565b6000815180845260208085018081965082840281019150828601855b85811015613e1f578284038952613e0d848351613e5b565b98850198935090840190600101613df5565b5091979650505050505050565b6000815180845260208085019450808401835b83811015613dce57815187529582019590820190600101613e3f565b60008151808452613e738160208601602086016142ee565b601f01601f19169290920160200192915050565b805460009060028104600180831680613ea157607f831692505b6020808410821415613ec157634e487b7160e01b86526022600452602486fd5b838852818015613ed85760018114613eec57613f1a565b60ff19861689830152604089019650613f1a565b876000528160002060005b86811015613f125781548b8201850152908501908301613ef7565b8a0183019750505b50505050505092915050565b60008251613f388184602087016142ee565b9190910192915050565b600060018060a01b038716825285602083015260a06040830152613f6960a0830186613e5b565b8281036060840152613f7b8186613e5b565b9150508260808301529695505050505050565b600060018060a01b038716825285602083015260a06040830152613fb560a0830186613e87565b8281036060840152613f7b8186613e87565b600060808252613fda6080830187613d96565b8281036020840152613fec8187613e2c565b905082810360408401526140008186613dd9565b905082810360608401526140148185613dd9565b979650505050505050565b602081016008831061404157634e487b7160e01b600052602160045260246000fd5b91905290565b6000602082526131a46020830184613e5b565b6020808252602b908201527f476f7665726e6f72427261766f3a3a5f736574566f74696e67506572696f643a60408201526a2061646d696e206f6e6c7960a81b606082015260800190565b6020808252602c908201527f46756e6374696f6e206d7573742062652063616c6c6564207468726f7567682060408201526b19195b1959d85d1958d85b1b60a21b606082015260800190565b6020808252602c908201527f46756e6374696f6e206d7573742062652063616c6c6564207468726f7567682060408201526b6163746976652070726f787960a01b606082015260800190565b6020808252602f9082015260008051602061439783398151915260408201526e6964206d616961206164647265737360881b606082015260800190565b8981526001600160a01b0389166020820152610120604082018190526000906141a58382018b613d96565b905082810360608401526141b9818a613e2c565b905082810360808401526141cd8189613dd9565b905082810360a08401526141e18188613dd9565b90508560c08401528460e08401528281036101008401526142028185613e5b565b9c9b505050505050505050505050565b600086825260ff8616602083015284604083015260806060830152826080830152828460a084013781830160a090810191909152601f909201601f19160101949350505050565b604051601f8201601f1916810167ffffffffffffffff8111828210171561428257614282614380565b604052919050565b600067ffffffffffffffff8211156142a4576142a4614380565b5060209081020190565b600067ffffffffffffffff8211156142c8576142c8614380565b50601f01601f191660200190565b600082198211156142e9576142e961436a565b500190565b60005b838110156143095781810151838201526020016142f1565b83811115611d4e5750506000910152565b60028104600182168061432e57607f821691505b6020821081141561136457634e487b7160e01b600052602260045260246000fd5b60006000198214156143635761436361436a565b5060010190565b634e487b7160e01b600052601160045260246000fd5b634e487b7160e01b600052604160045260246000fdfe476f7665726e6f72427261766f3a3a696e697469616c697a653a20696e76616c416464726573733a206c6f772d6c6576656c2064656c65676174652063616c6c206661696c6564a2646970667358221220dc7d2e077e07c8c44429866a7c639b7cc9c7b2e5116b14a9ced7e8df21bb5fc864736f6c63430008020033",
  "linkReferences": {},
  "deployedLinkReferences": {}
}