{
  "_format": "hh-sol-artifact-1",
  "contractName": "Maia",
  "sourceName": "contracts/Maia.sol",
  "abi": [
    {
      "anonymous": false,
      "inputs": [
        {
          "indexed": false,
          "internalType": "address",
          "name": "previousAdmin",
          "type": "address"
        },
        {
          "indexed": false,
          "internalType": "address",
          "name": "newAdmin",
          "type": "address"
        }
      ],
      "name": "AdminChanged",
      "type": "event"
    },
    {
      "anonymous": false,
      "inputs": [
        {
          "indexed": false,
          "internalType": "address",
          "name": "newAdmin",
          "type": "address"
        }
      ],
      "name": "AdminUpdated",
      "type": "event"
    },
    {
      "anonymous": false,
      "inputs": [
        {
          "indexed": true,
          "internalType": "address",
          "name": "owner",
          "type": "address"
        },
        {
          "indexed": true,
          "internalType": "address",
          "name": "spender",
          "type": "address"
        },
        {
          "indexed": false,
          "internalType": "uint256",
          "name": "value",
          "type": "uint256"
        }
      ],
      "name": "Approval",
      "type": "event"
    },
    {
      "anonymous": false,
      "inputs": [
        {
          "indexed": true,
          "internalType": "address",
          "name": "beacon",
          "type": "address"
        }
      ],
      "name": "BeaconUpgraded",
      "type": "event"
    },
    {
      "anonymous": false,
      "inputs": [
        {
          "indexed": true,
          "internalType": "address",
          "name": "delegator",
          "type": "address"
        },
        {
          "indexed": true,
          "internalType": "address",
          "name": "fromDelegate",
          "type": "address"
        },
        {
          "indexed": true,
          "internalType": "address",
          "name": "toDelegate",
          "type": "address"
        }
      ],
      "name": "DelegateChanged",
      "type": "event"
    },
    {
      "anonymous": false,
      "inputs": [
        {
          "indexed": true,
          "internalType": "address",
          "name": "delegate",
          "type": "address"
        },
        {
          "indexed": false,
          "internalType": "uint256",
          "name": "previousBalance",
          "type": "uint256"
        },
        {
          "indexed": false,
          "internalType": "uint256",
          "name": "newBalance",
          "type": "uint256"
        }
      ],
      "name": "DelegateVotesChanged",
      "type": "event"
    },
    {
      "anonymous": false,
      "inputs": [
        {
          "indexed": true,
          "internalType": "address",
          "name": "user",
          "type": "address"
        },
        {
          "indexed": true,
          "internalType": "uint256",
          "name": "pid",
          "type": "uint256"
        },
        {
          "indexed": false,
          "internalType": "uint256",
          "name": "amount",
          "type": "uint256"
        }
      ],
      "name": "Deposit",
      "type": "event"
    },
    {
      "anonymous": false,
      "inputs": [
        {
          "indexed": true,
          "internalType": "address",
          "name": "user",
          "type": "address"
        },
        {
          "indexed": true,
          "internalType": "uint256",
          "name": "pid",
          "type": "uint256"
        },
        {
          "indexed": false,
          "internalType": "uint256",
          "name": "amount",
          "type": "uint256"
        }
      ],
      "name": "EmergencyWithdraw",
      "type": "event"
    },
    {
      "anonymous": false,
      "inputs": [
        {
          "indexed": true,
          "internalType": "address",
          "name": "previousOwner",
          "type": "address"
        },
        {
          "indexed": true,
          "internalType": "address",
          "name": "newOwner",
          "type": "address"
        }
      ],
      "name": "OwnershipTransferred",
      "type": "event"
    },
    {
      "anonymous": false,
      "inputs": [
        {
          "indexed": false,
          "internalType": "address",
          "name": "account",
          "type": "address"
        }
      ],
      "name": "Paused",
      "type": "event"
    },
    {
      "anonymous": false,
      "inputs": [
        {
          "indexed": true,
          "internalType": "address",
          "name": "from",
          "type": "address"
        },
        {
          "indexed": true,
          "internalType": "address",
          "name": "to",
          "type": "address"
        },
        {
          "indexed": false,
          "internalType": "uint256",
          "name": "value",
          "type": "uint256"
        }
      ],
      "name": "Transfer",
      "type": "event"
    },
    {
      "anonymous": false,
      "inputs": [
        {
          "indexed": false,
          "internalType": "address",
          "name": "account",
          "type": "address"
        }
      ],
      "name": "Unpaused",
      "type": "event"
    },
    {
      "anonymous": false,
      "inputs": [
        {
          "indexed": true,
          "internalType": "address",
          "name": "implementation",
          "type": "address"
        }
      ],
      "name": "Upgraded",
      "type": "event"
    },
    {
      "anonymous": false,
      "inputs": [
        {
          "indexed": true,
          "internalType": "address",
          "name": "user",
          "type": "address"
        },
        {
          "indexed": true,
          "internalType": "uint256",
          "name": "pid",
          "type": "uint256"
        },
        {
          "indexed": false,
          "internalType": "uint256",
          "name": "amount",
          "type": "uint256"
        }
      ],
      "name": "Withdraw",
      "type": "event"
    },
    {
      "inputs": [],
      "name": "BONUS_MULTIPLIER",
      "outputs": [
        {
          "internalType": "uint256",
          "name": "",
          "type": "uint256"
        }
      ],
      "stateMutability": "view",
      "type": "function"
    },
    {
      "inputs": [],
      "name": "DOMAIN_SEPARATOR",
      "outputs": [
        {
          "internalType": "bytes32",
          "name": "",
          "type": "bytes32"
        }
      ],
      "stateMutability": "view",
      "type": "function"
    },
    {
      "inputs": [],
      "name": "GOLD",
      "outputs": [
        {
          "internalType": "contract IERC20",
          "name": "",
          "type": "address"
        }
      ],
      "stateMutability": "view",
      "type": "function"
    },
    {
      "inputs": [],
      "name": "Valar",
      "outputs": [
        {
          "internalType": "contract IERC20",
          "name": "",
          "type": "address"
        }
      ],
      "stateMutability": "view",
      "type": "function"
    },
    {
      "inputs": [
        {
          "internalType": "uint256",
          "name": "_pid",
          "type": "uint256"
        },
        {
          "internalType": "address",
          "name": "_to",
          "type": "address"
        },
        {
          "internalType": "uint256",
          "name": "_amount",
          "type": "uint256"
        }
      ],
      "name": "accessGOLDTokens",
      "outputs": [],
      "stateMutability": "nonpayable",
      "type": "function"
    },
    {
      "inputs": [
        {
          "internalType": "uint256",
          "name": "_allocPoint",
          "type": "uint256"
        },
        {
          "internalType": "contract IERC20",
          "name": "_lpToken",
          "type": "address"
        },
        {
          "internalType": "bool",
          "name": "_withUpdate",
          "type": "bool"
        }
      ],
      "name": "add",
      "outputs": [],
      "stateMutability": "nonpayable",
      "type": "function"
    },
    {
      "inputs": [
        {
          "internalType": "address",
          "name": "_adminAddress",
          "type": "address"
        }
      ],
      "name": "admin",
      "outputs": [],
      "stateMutability": "nonpayable",
      "type": "function"
    },
    {
      "inputs": [],
      "name": "adminAddress",
      "outputs": [
        {
          "internalType": "address",
          "name": "",
          "type": "address"
        }
      ],
      "stateMutability": "view",
      "type": "function"
    },
    {
      "inputs": [
        {
          "internalType": "address",
          "name": "owner",
          "type": "address"
        },
        {
          "internalType": "address",
          "name": "spender",
          "type": "address"
        }
      ],
      "name": "allowance",
      "outputs": [
        {
          "internalType": "uint256",
          "name": "",
          "type": "uint256"
        }
      ],
      "stateMutability": "view",
      "type": "function"
    },
    {
      "inputs": [
        {
          "internalType": "address",
          "name": "spender",
          "type": "address"
        },
        {
          "internalType": "uint256",
          "name": "amount",
          "type": "uint256"
        }
      ],
      "name": "approve",
      "outputs": [
        {
          "internalType": "bool",
          "name": "",
          "type": "bool"
        }
      ],
      "stateMutability": "nonpayable",
      "type": "function"
    },
    {
      "inputs": [
        {
          "internalType": "address",
          "name": "account",
          "type": "address"
        }
      ],
      "name": "balanceOf",
      "outputs": [
        {
          "internalType": "uint256",
          "name": "",
          "type": "uint256"
        }
      ],
      "stateMutability": "view",
      "type": "function"
    },
    {
      "inputs": [
        {
          "internalType": "address",
          "name": "account",
          "type": "address"
        },
        {
          "internalType": "uint32",
          "name": "pos",
          "type": "uint32"
        }
      ],
      "name": "checkpoints",
      "outputs": [
        {
          "components": [
            {
              "internalType": "uint32",
              "name": "fromBlock",
              "type": "uint32"
            },
            {
              "internalType": "uint224",
              "name": "votes",
              "type": "uint224"
            }
          ],
          "internalType": "struct ERC20VotesUpgradeable.Checkpoint",
          "name": "",
          "type": "tuple"
        }
      ],
      "stateMutability": "view",
      "type": "function"
    },
    {
      "inputs": [
        {
          "internalType": "uint256",
          "name": "_pid",
          "type": "uint256"
        }
      ],
      "name": "claimGOLD",
      "outputs": [],
      "stateMutability": "nonpayable",
      "type": "function"
    },
    {
      "inputs": [],
      "name": "decimals",
      "outputs": [
        {
          "internalType": "uint8",
          "name": "",
          "type": "uint8"
        }
      ],
      "stateMutability": "view",
      "type": "function"
    },
    {
      "inputs": [
        {
          "internalType": "address",
          "name": "spender",
          "type": "address"
        },
        {
          "internalType": "uint256",
          "name": "subtractedValue",
          "type": "uint256"
        }
      ],
      "name": "decreaseAllowance",
      "outputs": [
        {
          "internalType": "bool",
          "name": "",
          "type": "bool"
        }
      ],
      "stateMutability": "nonpayable",
      "type": "function"
    },
    {
      "inputs": [
        {
          "internalType": "address",
          "name": "delegatee",
          "type": "address"
        }
      ],
      "name": "delegate",
      "outputs": [],
      "stateMutability": "nonpayable",
      "type": "function"
    },
    {
      "inputs": [
        {
          "internalType": "address",
          "name": "delegatee",
          "type": "address"
        },
        {
          "internalType": "uint256",
          "name": "nonce",
          "type": "uint256"
        },
        {
          "internalType": "uint256",
          "name": "expiry",
          "type": "uint256"
        },
        {
          "internalType": "uint8",
          "name": "v",
          "type": "uint8"
        },
        {
          "internalType": "bytes32",
          "name": "r",
          "type": "bytes32"
        },
        {
          "internalType": "bytes32",
          "name": "s",
          "type": "bytes32"
        }
      ],
      "name": "delegateBySig",
      "outputs": [],
      "stateMutability": "nonpayable",
      "type": "function"
    },
    {
      "inputs": [
        {
          "internalType": "address",
          "name": "account",
          "type": "address"
        }
      ],
      "name": "delegates",
      "outputs": [
        {
          "internalType": "address",
          "name": "",
          "type": "address"
        }
      ],
      "stateMutability": "view",
      "type": "function"
    },
    {
      "inputs": [
        {
          "internalType": "uint256",
          "name": "_pid",
          "type": "uint256"
        },
        {
          "internalType": "uint256",
          "name": "_amount",
          "type": "uint256"
        }
      ],
      "name": "deposit",
      "outputs": [],
      "stateMutability": "nonpayable",
      "type": "function"
    },
    {
      "inputs": [
        {
          "internalType": "uint256",
          "name": "_from",
          "type": "uint256"
        },
        {
          "internalType": "uint256",
          "name": "_to",
          "type": "uint256"
        }
      ],
      "name": "getMultiplier",
      "outputs": [
        {
          "internalType": "uint256",
          "name": "",
          "type": "uint256"
        }
      ],
      "stateMutability": "pure",
      "type": "function"
    },
    {
      "inputs": [
        {
          "internalType": "uint256",
          "name": "blockNumber",
          "type": "uint256"
        }
      ],
      "name": "getPastTotalSupply",
      "outputs": [
        {
          "internalType": "uint256",
          "name": "",
          "type": "uint256"
        }
      ],
      "stateMutability": "view",
      "type": "function"
    },
    {
      "inputs": [
        {
          "internalType": "address",
          "name": "account",
          "type": "address"
        },
        {
          "internalType": "uint256",
          "name": "blockNumber",
          "type": "uint256"
        }
      ],
      "name": "getPastVotes",
      "outputs": [
        {
          "internalType": "uint256",
          "name": "",
          "type": "uint256"
        }
      ],
      "stateMutability": "view",
      "type": "function"
    },
    {
      "inputs": [
        {
          "internalType": "uint256",
          "name": "_pid",
          "type": "uint256"
        }
      ],
      "name": "getPool",
      "outputs": [
        {
          "components": [
            {
              "internalType": "contract IERC20",
              "name": "lpToken",
              "type": "address"
            },
            {
              "internalType": "uint256",
              "name": "allocPoint",
              "type": "uint256"
            },
            {
              "internalType": "uint256",
              "name": "lastRewardBlock",
              "type": "uint256"
            },
            {
              "internalType": "uint256",
              "name": "accGOLDPerShare",
              "type": "uint256"
            },
            {
              "internalType": "uint256",
              "name": "lastTotalGOLDReward",
              "type": "uint256"
            },
            {
              "internalType": "uint256",
              "name": "lastGOLDRewardBalance",
              "type": "uint256"
            },
            {
              "internalType": "uint256",
              "name": "totalGOLDReward",
              "type": "uint256"
            }
          ],
          "internalType": "struct Maia.PoolInfo",
          "name": "",
          "type": "tuple"
        }
      ],
      "stateMutability": "view",
      "type": "function"
    },
    {
      "inputs": [
        {
          "internalType": "uint256",
          "name": "_pid",
          "type": "uint256"
        },
        {
          "internalType": "address",
          "name": "_user",
          "type": "address"
        }
      ],
      "name": "getUser",
      "outputs": [
        {
          "components": [
            {
              "internalType": "uint256",
              "name": "amount",
              "type": "uint256"
            },
            {
              "internalType": "uint256",
              "name": "rewardDebt",
              "type": "uint256"
            },
            {
              "internalType": "uint256",
              "name": "rewargoldDebt",
              "type": "uint256"
            },
            {
              "internalType": "uint256",
              "name": "stakeEnd",
              "type": "uint256"
            }
          ],
          "internalType": "struct Maia.UserInfo",
          "name": "",
          "type": "tuple"
        }
      ],
      "stateMutability": "view",
      "type": "function"
    },
    {
      "inputs": [
        {
          "internalType": "uint256",
          "name": "_pid",
          "type": "uint256"
        }
      ],
      "name": "getVPOOL",
      "outputs": [
        {
          "components": [
            {
              "internalType": "uint256",
              "name": "lastGOLDRewardBalance",
              "type": "uint256"
            },
            {
              "internalType": "uint256",
              "name": "totalGOLDReward",
              "type": "uint256"
            },
            {
              "internalType": "uint256",
              "name": "totalValar",
              "type": "uint256"
            }
          ],
          "internalType": "struct Maia.ValarPoolInfo",
          "name": "",
          "type": "tuple"
        }
      ],
      "stateMutability": "view",
      "type": "function"
    },
    {
      "inputs": [
        {
          "internalType": "address",
          "name": "account",
          "type": "address"
        }
      ],
      "name": "getVotes",
      "outputs": [
        {
          "internalType": "uint256",
          "name": "",
          "type": "uint256"
        }
      ],
      "stateMutability": "view",
      "type": "function"
    },
    {
      "inputs": [],
      "name": "gold",
      "outputs": [
        {
          "internalType": "contract IERC20",
          "name": "",
          "type": "address"
        }
      ],
      "stateMutability": "view",
      "type": "function"
    },
    {
      "inputs": [
        {
          "internalType": "address",
          "name": "spender",
          "type": "address"
        },
        {
          "internalType": "uint256",
          "name": "addedValue",
          "type": "uint256"
        }
      ],
      "name": "increaseAllowance",
      "outputs": [
        {
          "internalType": "bool",
          "name": "",
          "type": "bool"
        }
      ],
      "stateMutability": "nonpayable",
      "type": "function"
    },
    {
      "inputs": [
        {
          "internalType": "address",
          "name": "_GOLD",
          "type": "address"
        },
        {
          "internalType": "address",
          "name": "_Valar",
          "type": "address"
        },
        {
          "internalType": "address",
          "name": "_adminAddress",
          "type": "address"
        },
        {
          "internalType": "uint256",
          "name": "_startBlock",
          "type": "uint256"
        },
        {
          "internalType": "uint256",
          "name": "_topStakerNumber",
          "type": "uint256"
        }
      ],
      "name": "initialize",
      "outputs": [],
      "stateMutability": "nonpayable",
      "type": "function"
    },
    {
      "inputs": [],
      "name": "massUpdatePools",
      "outputs": [],
      "stateMutability": "nonpayable",
      "type": "function"
    },
    {
      "inputs": [],
      "name": "name",
      "outputs": [
        {
          "internalType": "string",
          "name": "",
          "type": "string"
        }
      ],
      "stateMutability": "view",
      "type": "function"
    },
    {
      "inputs": [
        {
          "internalType": "address",
          "name": "owner",
          "type": "address"
        }
      ],
      "name": "nonces",
      "outputs": [
        {
          "internalType": "uint256",
          "name": "",
          "type": "uint256"
        }
      ],
      "stateMutability": "view",
      "type": "function"
    },
    {
      "inputs": [
        {
          "internalType": "address",
          "name": "account",
          "type": "address"
        }
      ],
      "name": "numCheckpoints",
      "outputs": [
        {
          "internalType": "uint32",
          "name": "",
          "type": "uint32"
        }
      ],
      "stateMutability": "view",
      "type": "function"
    },
    {
      "inputs": [],
      "name": "owner",
      "outputs": [
        {
          "internalType": "address",
          "name": "",
          "type": "address"
        }
      ],
      "stateMutability": "view",
      "type": "function"
    },
    {
      "inputs": [],
      "name": "paused",
      "outputs": [
        {
          "internalType": "bool",
          "name": "",
          "type": "bool"
        }
      ],
      "stateMutability": "view",
      "type": "function"
    },
    {
      "inputs": [
        {
          "internalType": "uint256",
          "name": "_pid",
          "type": "uint256"
        },
        {
          "internalType": "address",
          "name": "_user",
          "type": "address"
        }
      ],
      "name": "pendingGOLD",
      "outputs": [
        {
          "internalType": "uint256",
          "name": "",
          "type": "uint256"
        }
      ],
      "stateMutability": "view",
      "type": "function"
    },
    {
      "inputs": [
        {
          "internalType": "address",
          "name": "owner",
          "type": "address"
        },
        {
          "internalType": "address",
          "name": "spender",
          "type": "address"
        },
        {
          "internalType": "uint256",
          "name": "value",
          "type": "uint256"
        },
        {
          "internalType": "uint256",
          "name": "deadline",
          "type": "uint256"
        },
        {
          "internalType": "uint8",
          "name": "v",
          "type": "uint8"
        },
        {
          "internalType": "bytes32",
          "name": "r",
          "type": "bytes32"
        },
        {
          "internalType": "bytes32",
          "name": "s",
          "type": "bytes32"
        }
      ],
      "name": "permit",
      "outputs": [],
      "stateMutability": "nonpayable",
      "type": "function"
    },
    {
      "inputs": [
        {
          "internalType": "uint256",
          "name": "",
          "type": "uint256"
        }
      ],
      "name": "poolInfo",
      "outputs": [
        {
          "internalType": "contract IERC20",
          "name": "lpToken",
          "type": "address"
        },
        {
          "internalType": "uint256",
          "name": "allocPoint",
          "type": "uint256"
        },
        {
          "internalType": "uint256",
          "name": "lastRewardBlock",
          "type": "uint256"
        },
        {
          "internalType": "uint256",
          "name": "accGOLDPerShare",
          "type": "uint256"
        },
        {
          "internalType": "uint256",
          "name": "lastTotalGOLDReward",
          "type": "uint256"
        },
        {
          "internalType": "uint256",
          "name": "lastGOLDRewardBalance",
          "type": "uint256"
        },
        {
          "internalType": "uint256",
          "name": "totalGOLDReward",
          "type": "uint256"
        }
      ],
      "stateMutability": "view",
      "type": "function"
    },
    {
      "inputs": [],
      "name": "poolLength",
      "outputs": [
        {
          "internalType": "uint256",
          "name": "",
          "type": "uint256"
        }
      ],
      "stateMutability": "view",
      "type": "function"
    },
    {
      "inputs": [],
      "name": "renounceOwnership",
      "outputs": [],
      "stateMutability": "nonpayable",
      "type": "function"
    },
    {
      "inputs": [
        {
          "internalType": "uint256",
          "name": "_pid",
          "type": "uint256"
        },
        {
          "internalType": "uint256",
          "name": "_allocPoint",
          "type": "uint256"
        },
        {
          "internalType": "bool",
          "name": "_withUpdate",
          "type": "bool"
        }
      ],
      "name": "set",
      "outputs": [],
      "stateMutability": "nonpayable",
      "type": "function"
    },
    {
      "inputs": [],
      "name": "startBlock",
      "outputs": [
        {
          "internalType": "uint256",
          "name": "",
          "type": "uint256"
        }
      ],
      "stateMutability": "view",
      "type": "function"
    },
    {
      "inputs": [],
      "name": "symbol",
      "outputs": [
        {
          "internalType": "string",
          "name": "",
          "type": "string"
        }
      ],
      "stateMutability": "view",
      "type": "function"
    },
    {
      "inputs": [],
      "name": "topStakerNumber",
      "outputs": [
        {
          "internalType": "uint256",
          "name": "",
          "type": "uint256"
        }
      ],
      "stateMutability": "view",
      "type": "function"
    },
    {
      "inputs": [],
      "name": "totalAllocPoint",
      "outputs": [
        {
          "internalType": "uint256",
          "name": "",
          "type": "uint256"
        }
      ],
      "stateMutability": "view",
      "type": "function"
    },
    {
      "inputs": [],
      "name": "totalGOLDStaked",
      "outputs": [
        {
          "internalType": "uint256",
          "name": "",
          "type": "uint256"
        }
      ],
      "stateMutability": "view",
      "type": "function"
    },
    {
      "inputs": [],
      "name": "totalGOLDUsedForPurchase",
      "outputs": [
        {
          "internalType": "uint256",
          "name": "",
          "type": "uint256"
        }
      ],
      "stateMutability": "view",
      "type": "function"
    },
    {
      "inputs": [],
      "name": "totalSupply",
      "outputs": [
        {
          "internalType": "uint256",
          "name": "",
          "type": "uint256"
        }
      ],
      "stateMutability": "view",
      "type": "function"
    },
    {
      "inputs": [
        {
          "internalType": "address",
          "name": "recipient",
          "type": "address"
        },
        {
          "internalType": "uint256",
          "name": "amount",
          "type": "uint256"
        }
      ],
      "name": "transfer",
      "outputs": [
        {
          "internalType": "bool",
          "name": "",
          "type": "bool"
        }
      ],
      "stateMutability": "nonpayable",
      "type": "function"
    },
    {
      "inputs": [
        {
          "internalType": "address",
          "name": "sender",
          "type": "address"
        },
        {
          "internalType": "address",
          "name": "recipient",
          "type": "address"
        },
        {
          "internalType": "uint256",
          "name": "amount",
          "type": "uint256"
        }
      ],
      "name": "transferFrom",
      "outputs": [
        {
          "internalType": "bool",
          "name": "",
          "type": "bool"
        }
      ],
      "stateMutability": "nonpayable",
      "type": "function"
    },
    {
      "inputs": [
        {
          "internalType": "address",
          "name": "newOwner",
          "type": "address"
        }
      ],
      "name": "transferOwnership",
      "outputs": [],
      "stateMutability": "nonpayable",
      "type": "function"
    },
    {
      "inputs": [
        {
          "internalType": "uint256",
          "name": "_pid",
          "type": "uint256"
        }
      ],
      "name": "updatePool",
      "outputs": [],
      "stateMutability": "nonpayable",
      "type": "function"
    },
    {
      "inputs": [
        {
          "internalType": "uint256",
          "name": "_pid",
          "type": "uint256"
        }
      ],
      "name": "updatePoolHelper",
      "outputs": [
        {
          "internalType": "uint256",
          "name": "",
          "type": "uint256"
        }
      ],
      "stateMutability": "view",
      "type": "function"
    },
    {
      "inputs": [
        {
          "internalType": "address",
          "name": "newImplementation",
          "type": "address"
        }
      ],
      "name": "upgradeTo",
      "outputs": [],
      "stateMutability": "nonpayable",
      "type": "function"
    },
    {
      "inputs": [
        {
          "internalType": "address",
          "name": "newImplementation",
          "type": "address"
        },
        {
          "internalType": "bytes",
          "name": "data",
          "type": "bytes"
        }
      ],
      "name": "upgradeToAndCall",
      "outputs": [],
      "stateMutability": "payable",
      "type": "function"
    },
    {
      "inputs": [
        {
          "internalType": "uint256",
          "name": "",
          "type": "uint256"
        },
        {
          "internalType": "address",
          "name": "",
          "type": "address"
        }
      ],
      "name": "userInfo",
      "outputs": [
        {
          "internalType": "uint256",
          "name": "amount",
          "type": "uint256"
        },
        {
          "internalType": "uint256",
          "name": "rewardDebt",
          "type": "uint256"
        },
        {
          "internalType": "uint256",
          "name": "rewargoldDebt",
          "type": "uint256"
        },
        {
          "internalType": "uint256",
          "name": "stakeEnd",
          "type": "uint256"
        }
      ],
      "stateMutability": "view",
      "type": "function"
    },
    {
      "inputs": [
        {
          "internalType": "uint256",
          "name": "",
          "type": "uint256"
        }
      ],
      "name": "valarPoolInfo",
      "outputs": [
        {
          "internalType": "uint256",
          "name": "lastGOLDRewardBalance",
          "type": "uint256"
        },
        {
          "internalType": "uint256",
          "name": "totalGOLDReward",
          "type": "uint256"
        },
        {
          "internalType": "uint256",
          "name": "totalValar",
          "type": "uint256"
        }
      ],
      "stateMutability": "view",
      "type": "function"
    },
    {
      "inputs": [
        {
          "internalType": "uint256",
          "name": "_pid",
          "type": "uint256"
        },
        {
          "internalType": "address",
          "name": "_user",
          "type": "address"
        }
      ],
      "name": "valarRewards",
      "outputs": [
        {
          "internalType": "uint256",
          "name": "",
          "type": "uint256"
        }
      ],
      "stateMutability": "nonpayable",
      "type": "function"
    },
    {
      "inputs": [
        {
          "internalType": "uint256",
          "name": "",
          "type": "uint256"
        },
        {
          "internalType": "address",
          "name": "",
          "type": "address"
        }
      ],
      "name": "valarUserInfo",
      "outputs": [
        {
          "internalType": "uint256",
          "name": "rewardDebt",
          "type": "uint256"
        }
      ],
      "stateMutability": "view",
      "type": "function"
    },
    {
      "inputs": [
        {
          "internalType": "uint256",
          "name": "_pid",
          "type": "uint256"
        },
        {
          "internalType": "uint256",
          "name": "_amount",
          "type": "uint256"
        }
      ],
      "name": "withdraw",
      "outputs": [],
      "stateMutability": "nonpayable",
      "type": "function"
    }
  ],
  "bytecode": "0x60a06040523060601b60805234801561001757600080fd5b5060805160601c6150eb61004b60003960008181611878015281816118b801528181611dbe0152611dfe01526150eb6000f3fe6080604052600436106103975760003560e01c806364482f79116101dc5780639ab24eb011610102578063d505accf116100a0578063f2fde38b1161006f578063f2fde38b14610c59578063f8b535ac14610c79578063fbec6f2114610c90578063fc6f946814610cb157610397565b8063d505accf14610b89578063dd62ed3e14610ba9578063e2bbb15814610bef578063f1127ed814610c0f57610397565b8063a87492c8116100dc578063a87492c814610af0578063a9059cbb14610b10578063c3cda52014610b30578063d2371d5014610b5057610397565b80639ab24eb014610a90578063a457c2d714610ab0578063a6b63eb814610ad057610397565b80637ecebe001161017a5780638dbb1e3a116101495780638dbb1e3a146109cd5780638e539e8c146109ed57806393f1a40b14610a0d57806395d89b4114610a7b57610397565b80637ecebe001461093e57806381fbc5a71461095e5780638aa28550146109995780638da5cb5b146109ae57610397565b80636fcfff45116101b65780636fcfff451461089e57806370a08231146108d3578063715018a6146109095780637be7ce521461091e57610397565b806364482f791461082557806368b5ab2f146108455780636f10947c1461088757610397565b80633659cfe6116102c15780634f1ef2861161025f5780635c19a95c1161022e5780635c19a95c146107b75780635c975abb146107d7578063630b5ba1146107f057806363a846f81461080557610397565b80634f1ef2861461072a57806351eb05a61461073d578063587cde1e1461075d5780635b3c25ce1461079757610397565b80633e4bee381161029b5780633e4bee3814610699578063441a3e70146106d257806347790166146106f257806348cd4cb11461071357610397565b80633659cfe61461063957806339509351146106595780633a46b1a81461067957610397565b80631526fe271161033957806323b872dd1161030857806323b872dd14610595578063257664a4146105b5578063313ce567146106085780633644e5151461062457610397565b80631526fe27146104ea57806317caf6f11461054957806318160ddd146105605780631eaaa0451461057557610397565b8063081e3eda11610375578063081e3eda14610462578063095ea7b3146104785780630bc1a005146104a85780630d3c5df0146104c857610397565b8063017e58ca1461039c578063068bcd8d146103c657806306fdde0314610440575b600080fd5b3480156103a857600080fd5b506103b36101d15481565b6040519081526020015b60405180910390f35b3480156103d257600080fd5b506103e66103e1366004614ce5565b610cd2565b6040516103bd919081516001600160a01b031681526020808301519082015260408083015190820152606080830151908201526080808301519082015260a0828101519082015260c0918201519181019190915260e00190565b34801561044c57600080fd5b50610455610dad565b6040516103bd9190614e0a565b34801561046e57600080fd5b506101cb546103b3565b34801561048457600080fd5b50610498610493366004614c10565b610e3f565b60405190151581526020016103bd565b3480156104b457600080fd5b506103b36104c3366004614d15565b610e56565b3480156104d457600080fd5b506104e86104e3366004614d39565b611108565b005b3480156104f657600080fd5b5061050a610505366004614ce5565b61145a565b604080516001600160a01b0390981688526020880196909652948601939093526060850191909152608084015260a083015260c082015260e0016103bd565b34801561055557600080fd5b506103b36101cf5481565b34801561056c57600080fd5b506099546103b3565b34801561058157600080fd5b506104e8610590366004614d5f565b6114b4565b3480156105a157600080fd5b506104986105b0366004614aa4565b61172f565b3480156105c157600080fd5b506105d56105d0366004614d15565b6117db565b6040516103bd91908151815260208083015190820152604080830151908201526060918201519181019190915260800190565b34801561061457600080fd5b50604051601281526020016103bd565b34801561063057600080fd5b506103b361185e565b34801561064557600080fd5b506104e86106543660046149f6565b61186d565b34801561066557600080fd5b50610498610674366004614c10565b611936565b34801561068557600080fd5b506103b3610694366004614c10565b611972565b3480156106a557600080fd5b506101c7546106ba906001600160a01b031681565b6040516001600160a01b0390911681526020016103bd565b3480156106de57600080fd5b506104e86106ed366004614da0565b6119e6565b3480156106fe57600080fd5b506101c8546106ba906001600160a01b031681565b34801561071f57600080fd5b506103b36101d05481565b6104e8610738366004614b51565b611db3565b34801561074957600080fd5b506104e8610758366004614ce5565b611e6d565b34801561076957600080fd5b506106ba6107783660046149f6565b6001600160a01b03908116600090815261013060205260409020541690565b3480156107a357600080fd5b506104e86107b2366004614ce5565b612131565b3480156107c357600080fd5b506104e86107d23660046149f6565b61236e565b3480156107e357600080fd5b506101945460ff16610498565b3480156107fc57600080fd5b506104e8612378565b34801561081157600080fd5b506104e86108203660046149f6565b6123a0565b34801561083157600080fd5b506104e8610840366004614dc1565b61248a565b34801561085157600080fd5b50610865610860366004614ce5565b612554565b60408051825181526020808401519082015291810151908201526060016103bd565b34801561089357600080fd5b506103b36101ca5481565b3480156108aa57600080fd5b506108be6108b93660046149f6565b6125d8565b60405163ffffffff90911681526020016103bd565b3480156108df57600080fd5b506103b36108ee3660046149f6565b6001600160a01b031660009081526097602052604090205490565b34801561091557600080fd5b506104e86125fb565b34801561092a57600080fd5b506103b3610939366004614d15565b612632565b34801561094a57600080fd5b506103b36109593660046149f6565b61275f565b34801561096a57600080fd5b5061097e610979366004614ce5565b61277d565b604080519384526020840192909252908201526060016103bd565b3480156109a557600080fd5b506103b3600181565b3480156109ba57600080fd5b50610162546001600160a01b03166106ba565b3480156109d957600080fd5b506103b36109e8366004614da0565b6127b1565b3480156109f957600080fd5b506103b3610a08366004614ce5565b6127da565b348015610a1957600080fd5b50610a5b610a28366004614d15565b6101cd60209081526000928352604080842090915290825290208054600182015460028301546003909301549192909184565b6040805194855260208501939093529183015260608201526080016103bd565b348015610a8757600080fd5b50610455612837565b348015610a9c57600080fd5b506103b3610aab3660046149f6565b612846565b348015610abc57600080fd5b50610498610acb366004614c10565b6128dd565b348015610adc57600080fd5b506104e8610aeb366004614a4a565b612976565b348015610afc57600080fd5b506103b3610b0b366004614ce5565b612b5e565b348015610b1c57600080fd5b50610498610b2b366004614c10565b612c1a565b348015610b3c57600080fd5b506104e8610b4b366004614c3b565b612c27565b348015610b5c57600080fd5b506103b3610b6b366004614d15565b6101ce60209081526000928352604080842090915290825290205481565b348015610b9557600080fd5b506104e8610ba4366004614ae4565b612d5d565b348015610bb557600080fd5b506103b3610bc4366004614a12565b6001600160a01b03918216600090815260986020908152604080832093909416825291909152205490565b348015610bfb57600080fd5b506104e8610c0a366004614da0565b612ea3565b348015610c1b57600080fd5b50610c2f610c2a366004614c94565b6131be565b60408051825163ffffffff1681526020928301516001600160e01b031692810192909252016103bd565b348015610c6557600080fd5b506104e8610c743660046149f6565b613251565b348015610c8557600080fd5b506103b36101d25481565b348015610c9c57600080fd5b506101c6546106ba906001600160a01b031681565b348015610cbd57600080fd5b506101c9546106ba906001600160a01b031681565b610d1b6040518060e0016040528060006001600160a01b031681526020016000815260200160008152602001600081526020016000815260200160008152602001600081525090565b6101cb8281548110610d3d57634e487b7160e01b600052603260045260246000fd5b60009182526020918290206040805160e081018252600790930290910180546001600160a01b031683526001810154938301939093526002830154908201526003820154606082015260048201546080820152600582015460a082015260069091015460c082015290505b919050565b6060609a8054610dbc90614fef565b80601f0160208091040260200160405190810160405280929190818152602001828054610de890614fef565b8015610e355780601f10610e0a57610100808354040283529160200191610e35565b820191906000526020600020905b815481529060010190602001808311610e1857829003601f168201915b5050505050905090565b6000610e4c3384846132ea565b5060015b92915050565b6000806101cb8481548110610e7b57634e487b7160e01b600052603260045260246000fd5b9060005260206000209060070201905060006101cc8581548110610eaf57634e487b7160e01b600052603260045260246000fd5b600091825260208083208884526101cd825260408085206001600160a01b038a168087529084528186208b87526101ce8552828720918752935284206003878101546101d15460028a015492909602909301965092949093919243118015610f1657508115155b156110c8576000610fd06064610fca605a610fc4610f436101d2546101d15461340e90919063ffffffff16565b8d546040516370a0823160e01b81523060048201526001600160a01b03909116906370a08231906024015b60206040518083038186803b158015610f8657600080fd5b505afa158015610f9a573d6000803e3d6000fd5b505050506040513d601f19601f82011682018060405250810190610fbe9190614cfd565b9061340e565b9061341a565b90613426565b90506000610feb89600501548361340e90919063ffffffff16565b905061100a61100385610fca8464e8d4a5100061341a565b8690613432565b6101c8546040516370a0823160e01b81526001600160a01b038e81166004830152929750600092909116906370a082319060240160206040518083038186803b15801561105657600080fd5b505afa15801561106a573d6000803e3d6000fd5b505050506040513d601f19601f8201168201806040525081019061108e9190614cfd565b11156110c55760006110b189600201548a6001015461342690919063ffffffff16565b87549091506110c190829061340e565b9350505b50505b6110fa816110f48760020154610fbe64e8d4a51000610fca898c6000015461341a90919063ffffffff16565b90613432565b9a9950505050505050505050565b6101c9546001600160a01b031633146111685760405162461bcd60e51b815260206004820152601c60248201527f73656e646572206d7573742062652061646d696e20616464726573730000000060448201526064015b60405180910390fd5b806111826101d2546101d15461340e90919063ffffffff16565b10156111e45760405162461bcd60e51b815260206004820152602b60248201527f416d6f756e74206d757374206265206c657373207468616e207374616b65642060448201526a11d3d31108185b5bdd5b9d60aa1b606482015260840161115f565b60006101cb848154811061120857634e487b7160e01b600052603260045260246000fd5b6000918252602082206007919091020180546040516370a0823160e01b81523060048201529193506001600160a01b0316906370a082319060240160206040518083038186803b15801561125b57600080fd5b505afa15801561126f573d6000803e3d6000fd5b505050506040513d601f19601f820116820180604052508101906112939190614cfd565b90508083111561137a57815460405163a9059cbb60e01b81526001600160a01b038681166004830152602482018490529091169063a9059cbb90604401602060405180830381600087803b1580156112ea57600080fd5b505af11580156112fe573d6000803e3d6000fd5b505050506040513d601f19601f820116820180604052508101906113229190614cc9565b506101d2546113319082613432565b6101d25560405181815285906001600160a01b038616907fbb757047c2b5f3974fe26b7c10f732e7bce710b0952a71082702781e62ae05959060200160405180910390a3611453565b815460405163a9059cbb60e01b81526001600160a01b038681166004830152602482018690529091169063a9059cbb90604401602060405180830381600087803b1580156113c757600080fd5b505af11580156113db573d6000803e3d6000fd5b505050506040513d601f19601f820116820180604052508101906113ff9190614cc9565b506101d25461140e9084613432565b6101d25560405183815285906001600160a01b038616907fbb757047c2b5f3974fe26b7c10f732e7bce710b0952a71082702781e62ae05959060200160405180910390a35b5050505050565b6101cb818154811061146b57600080fd5b600091825260209091206007909102018054600182015460028301546003840154600485015460058601546006909601546001600160a01b039095169650929491939092919087565b610162546001600160a01b031633146114df5760405162461bcd60e51b815260040161115f90614ed5565b80156114ed576114ed612378565b60006101d0544311611502576101d054611504565b435b6101cf549091506115159085613432565b6101cf556040805160e0810182526001600160a01b0394851681526020808201968752818301938452600060608084018281526080850183815260a0860184815260c087018581526101cb80546001808201835591885298517fe8bbfecd380c4167d6a1f763a233ec73e73f534b1970c4e1683f437ec23c1f446007909a02998a0180546001600160a01b03191691909e1617909c559b517fe8bbfecd380c4167d6a1f763a233ec73e73f534b1970c4e1683f437ec23c1f4588015597517fe8bbfecd380c4167d6a1f763a233ec73e73f534b1970c4e1683f437ec23c1f4687015590517fe8bbfecd380c4167d6a1f763a233ec73e73f534b1970c4e1683f437ec23c1f47860155517fe8bbfecd380c4167d6a1f763a233ec73e73f534b1970c4e1683f437ec23c1f4885015594517fe8bbfecd380c4167d6a1f763a233ec73e73f534b1970c4e1683f437ec23c1f4984015596517fe8bbfecd380c4167d6a1f763a233ec73e73f534b1970c4e1683f437ec23c1f4a909201919091558151928301825285835282018581529082018581526101cc8054958601815590955290517f9a37fbd5e796e9046c2f5f7e29046a230a4ba9ada48a80535ed93a51fec5cfbc600390940293840155517f9a37fbd5e796e9046c2f5f7e29046a230a4ba9ada48a80535ed93a51fec5cfbd8301555090517f9a37fbd5e796e9046c2f5f7e29046a230a4ba9ada48a80535ed93a51fec5cfbe90910155565b600061173c84848461343e565b6001600160a01b0384166000908152609860209081526040808320338452909152902054828110156117c15760405162461bcd60e51b815260206004820152602860248201527f45524332303a207472616e7366657220616d6f756e74206578636565647320616044820152676c6c6f77616e636560c01b606482015260840161115f565b6117ce85338584036132ea565b60019150505b9392505050565b6118066040518060800160405280600081526020016000815260200160008152602001600081525090565b5060009182526101cd602090815260408084206001600160a01b039390931684529181529181902081516080810183528154815260018201549381019390935260028101549183019190915260030154606082015290565b6000611868613623565b905090565b306001600160a01b037f00000000000000000000000000000000000000000000000000000000000000001614156118b65760405162461bcd60e51b815260040161115f90614e3d565b7f00000000000000000000000000000000000000000000000000000000000000006001600160a01b03166118e861369e565b6001600160a01b03161461190e5760405162461bcd60e51b815260040161115f90614e89565b611917816136cc565b6040805160008082526020820190925261193391839190613744565b50565b3360008181526098602090815260408083206001600160a01b03871684529091528120549091610e4c91859061196d908690614f55565b6132ea565b60004382106119c35760405162461bcd60e51b815260206004820152601f60248201527f4552433230566f7465733a20626c6f636b206e6f7420796574206d696e656400604482015260640161115f565b6001600160a01b0383166000908152610131602052604090206117d49083613888565b60006101cb8381548110611a0a57634e487b7160e01b600052603260045260246000fd5b9060005260206000209060070201905060006101cc8481548110611a3e57634e487b7160e01b600052603260045260246000fd5b600091825260208083208784526101cd82526040808520338087529084528186208a87526101ce855282872091875293528420600390930201935091611a8a6064610fca88600461341a565b611a949087614fac565b90508083600001541015611adf5760405162461bcd60e51b81526020600482015260126024820152711dda5d1a191c985dce881b9bdd0819dbdbd960721b604482015260640161115f565b8260030154421015611b285760405162461bcd60e51b81526020600482015260126024820152713bb4ba34323930bb9d103a37b79039b7b7b760711b604482015260640161115f565b611b3187611e6d565b6000611b3d8833612632565b90506000611b6d8560020154610fbe64e8d4a51000610fca8b600301548a6000015461341a90919063ffffffff16565b90506000811180611b7e5750600082115b15611c1e5786546001600160a01b031663a9059cbb33611b9e8486613432565b6040516001600160e01b031960e085901b1681526001600160a01b0390921660048301526024820152604401602060405180830381600087803b158015611be457600080fd5b505af1158015611bf8573d6000803e3d6000fd5b505050506040513d601f19601f82011682018060405250810190611c1c9190614cc9565b505b611c736064610fca605a610fc4611c446101d2546101d15461340e90919063ffffffff16565b8c546040516370a0823160e01b81523060048201526001600160a01b03909116906370a0823190602401610f6e565b8760050181905550611ca16064610fca600a610fc4611c446101d2546101d15461340e90919063ffffffff16565b86558454611caf908461340e565b85556101d154611cbf908461340e565b6101d15560038701548554611cde9164e8d4a5100091610fca9161341a565b6002860155865460405163a9059cbb60e01b8152336004820152602481018590526001600160a01b039091169063a9059cbb90604401602060405180830381600087803b158015611d2e57600080fd5b505af1158015611d42573d6000803e3d6000fd5b505050506040513d601f19601f82011682018060405250810190611d669190614cc9565b50611d713384613961565b604051838152899033907ff279e6a1f5e320cca91135676d9cb6e44ca8a08c0b88342bcdb1144f6511b5689060200160405180910390a3505050505050505050565b306001600160a01b037f0000000000000000000000000000000000000000000000000000000000000000161415611dfc5760405162461bcd60e51b815260040161115f90614e3d565b7f00000000000000000000000000000000000000000000000000000000000000006001600160a01b0316611e2e61369e565b6001600160a01b031614611e545760405162461bcd60e51b815260040161115f90614e89565b611e5d826136cc565b611e6982826001613744565b5050565b60006101cb8281548110611e9157634e487b7160e01b600052603260045260246000fd5b9060005260206000209060070201905060006101cc8381548110611ec557634e487b7160e01b600052603260045260246000fd5b600091825260208083208684526101cd82526040808520338087529084528186208987526101ce8552828720918752935290932060028601546003909302909301935091904311611f195750505050611933565b6000611f706064610fca605a610fc4611f416101d2546101d15461340e90919063ffffffff16565b8a546040516370a0823160e01b81523060048201526001600160a01b03909116906370a0823190602401610f6e565b90506000611f99611f8e87600501548461340e90919063ffffffff16565b600688015490613432565b90508186600501819055508086600601819055506000611fd56064610fca600a610fc4611c446101d2546101d15461340e90919063ffffffff16565b90506000611ffe611ff388600001548461340e90919063ffffffff16565b600189015490613432565b828855600188018190556101c854604080516318160ddd60e01b815290519293506001600160a01b03909116916318160ddd91600480820192602092909190829003018186803b15801561205157600080fd5b505afa158015612065573d6000803e3d6000fd5b505050506040513d601f19601f820116820180604052508101906120899190614cfd565b60028801556101d154806120dc5750504360028089019190915560006003890181905560048901819055950185905550505060058401829055600690930181905560018201819055908190559055611933565b60006120f58a600401548661340e90919063ffffffff16565b905061211861210d83610fca8464e8d4a5100061341a565b60038c015490613432565b60038b0155505050506004909501949094555050505050565b60006101cb828154811061215557634e487b7160e01b600052603260045260246000fd5b9060005260206000209060070201905060006101cc838154811061218957634e487b7160e01b600052603260045260246000fd5b600091825260208083208684526101cd82526040808520338087529084528186208987526101ce85528287209187529352909320600390920290920192506121d085611e6d565b60006121fe8360020154610fbe64e8d4a51000610fca8960030154886000015461341a90919063ffffffff16565b9050600061220c8733612632565b9050600082118061221d5750600081115b156122bd5785546001600160a01b031663a9059cbb3361223d8585613432565b6040516001600160e01b031960e085901b1681526001600160a01b0390921660048301526024820152604401602060405180830381600087803b15801561228357600080fd5b505af1158015612297573d6000803e3d6000fd5b505050506040513d601f19601f820116820180604052508101906122bb9190614cc9565b505b6123126064610fca605a610fc46122e36101d2546101d15461340e90919063ffffffff16565b8b546040516370a0823160e01b81523060048201526001600160a01b03909116906370a0823190602401610f6e565b86600501819055506123406064610fca600a610fc46122e36101d2546101d15461340e90919063ffffffff16565b85556003860154845461235d9164e8d4a5100091610fca9161341a565b846002018190555050505050505050565b611933338261396b565b6101cb5460005b81811015611e695761239081611e6d565b61239981615024565b905061237f565b6001600160a01b0381166123ec5760405162461bcd60e51b815260206004820152601360248201527261646d696e3a205a65726f206164647265737360681b604482015260640161115f565b6101c9546001600160a01b031633146124355760405162461bcd60e51b815260206004820152600b60248201526a61646d696e3a207775743f60a81b604482015260640161115f565b6101c980546001600160a01b0319166001600160a01b0383169081179091556040519081527f54e4612788f90384e6843298d7854436f3a585b2c3831ab66abf1de63bfa6c2d9060200160405180910390a150565b610162546001600160a01b031633146124b55760405162461bcd60e51b815260040161115f90614ed5565b80156124c3576124c3612378565b612510826110f46101cb86815481106124ec57634e487b7160e01b600052603260045260246000fd5b9060005260206000209060070201600101546101cf5461340e90919063ffffffff16565b6101cf81905550816101cb848154811061253a57634e487b7160e01b600052603260045260246000fd5b906000526020600020906007020160010181905550505050565b61257860405180606001604052806000815260200160008152602001600081525090565b6101cc828154811061259a57634e487b7160e01b600052603260045260246000fd5b906000526020600020906003020160405180606001604052908160008201548152602001600182015481526020016002820154815250509050919050565b6001600160a01b03811660009081526101316020526040812054610e5090613975565b610162546001600160a01b031633146126265760405162461bcd60e51b815260040161115f90614ed5565b61263060006139de565b565b6101c8546040516370a0823160e01b81526001600160a01b03838116600483015260009216906370a082319060240160206040518083038186803b15801561267957600080fd5b505afa15801561268d573d6000803e3d6000fd5b505050506040513d601f19601f820116820180604052508101906126b19190614cfd565b6126bd57506000610e50565b60006101cc84815481106126e157634e487b7160e01b600052603260045260246000fd5b600091825260208083208784526101ce825260408085203386529092529220600260039092029092019081015490925061272057600092505050610e50565b600061273d8360020154846001015461342690919063ffffffff16565b825490915060009061275090839061340e565b92839055509095945050505050565b6001600160a01b038116600090815260fd6020526040812054610e50565b6101cc818154811061278e57600080fd5b600091825260209091206003909102018054600182015460029092015490925083565b60008282106127d0576127c96001610fc4848661340e565b9050610e50565b6127c9838361340e565b600043821061282b5760405162461bcd60e51b815260206004820152601f60248201527f4552433230566f7465733a20626c6f636b206e6f7420796574206d696e656400604482015260640161115f565b610e5061013283613888565b6060609b8054610dbc90614fef565b6001600160a01b0381166000908152610131602052604081205480156128ca576001600160a01b03831660009081526101316020526040902061288a600183614fac565b815481106128a857634e487b7160e01b600052603260045260246000fd5b60009182526020909120015464010000000090046001600160e01b03166128cd565b60005b6001600160e01b03169392505050565b3360009081526098602090815260408083206001600160a01b03861684529091528120548281101561295f5760405162461bcd60e51b815260206004820152602560248201527f45524332303a2064656372656173656420616c6c6f77616e63652062656c6f77604482015264207a65726f60d81b606482015260840161115f565b61296c33858584036132ea565b5060019392505050565b600054610100900460ff166129915760005460ff1615612995565b303b155b6129f85760405162461bcd60e51b815260206004820152602e60248201527f496e697469616c697a61626c653a20636f6e747261637420697320616c72656160448201526d191e481a5b9a5d1a585b1a5e995960921b606482015260840161115f565b600054610100900460ff16158015612a23576000805460ff1961ff0019909116610100171660011790555b6001600160a01b038416612a795760405162461bcd60e51b815260206004820152601860248201527f696e697469616c697a653a205a65726f20616464726573730000000000000000604482015260640161115f565b612a81613a31565b612ac36040518060400160405280600481526020016319dbdb1960e21b8152506040518060400160405280600481526020016319dbdb1960e21b815250613a68565b612acb613abb565b612af06040518060400160405280600481526020016319dbdb1960e21b815250613aef565b612af8613b4a565b6101c780546001600160a01b038089166001600160a01b0319928316179092556101c880548884169083161790556101c98054928716929091169190911790556101d08390556101ca8290558015612b56576000805461ff00191690555b505050505050565b6000806101cb8381548110612b8357634e487b7160e01b600052603260045260246000fd5b600091825260208083208684526101cd82526040808520338652909252922060026007909202909201908101549092504311612bc457600092505050610da8565b6000612c11612be26101d2546101d15461340e90919063ffffffff16565b84546040516370a0823160e01b81523060048201526001600160a01b03909116906370a0823190602401610f6e565b95945050505050565b6000610e4c33848461343e565b83421115612c775760405162461bcd60e51b815260206004820152601d60248201527f4552433230566f7465733a207369676e61747572652065787069726564000000604482015260640161115f565b604080517fe48329057bfd03d55e49b547132e39cffd9c1820ad7b9d4c5307691425d15adf60208201526001600160a01b038816918101919091526060810186905260808101859052600090612cf190612ce99060a00160405160208183030381529060405280519060200120613b71565b858585613bbf565b9050612cfc81613be7565b8614612d4a5760405162461bcd60e51b815260206004820152601960248201527f4552433230566f7465733a20696e76616c6964206e6f6e636500000000000000604482015260640161115f565b612d54818861396b565b50505050505050565b83421115612dad5760405162461bcd60e51b815260206004820152601d60248201527f45524332305065726d69743a206578706972656420646561646c696e65000000604482015260640161115f565b600060fe54888888612dbe8c613be7565b6040805160208101969096526001600160a01b0394851690860152929091166060840152608083015260a082015260c0810186905260e0016040516020818303038152906040528051906020012090506000612e1982613b71565b90506000612e2982878787613bbf565b9050896001600160a01b0316816001600160a01b031614612e8c5760405162461bcd60e51b815260206004820152601e60248201527f45524332305065726d69743a20696e76616c6964207369676e61747572650000604482015260640161115f565b612e978a8a8a6132ea565b50505050505050505050565b60006101cb8381548110612ec757634e487b7160e01b600052603260045260246000fd5b9060005260206000209060070201905060006101cc8481548110612efb57634e487b7160e01b600052603260045260246000fd5b600091825260208083208784526101cd82526040808520338087529084528186208a87526101ce8552828720918752935290932060039092029092019250612f4286611e6d565b81541561307b576000612f558733612632565b90506000612f858460020154610fbe64e8d4a51000610fca8a60030154896000015461341a90919063ffffffff16565b86549091506001600160a01b031663a9059cbb33612fa38486613432565b6040516001600160e01b031960e085901b1681526001600160a01b0390921660048301526024820152604401602060405180830381600087803b158015612fe957600080fd5b505af1158015612ffd573d6000803e3d6000fd5b505050506040513d601f19601f820116820180604052508101906130219190614cc9565b506130486064610fca605a610fc46122e36101d2546101d15461340e90919063ffffffff16565b86600501819055506130766064610fca600a610fc46122e36101d2546101d15461340e90919063ffffffff16565b855550505b60006130976130906064610fca89600461341a565b879061340e565b85546040516323b872dd60e01b8152336004820152306024820152604481018990529192506001600160a01b0316906323b872dd90606401602060405180830381600087803b1580156130e957600080fd5b505af11580156130fd573d6000803e3d6000fd5b505050506040513d601f19601f820116820180604052508101906131219190614cc9565b506101d1546131309082613432565b6101d15582546131409082613432565b808455600386015461315d9164e8d4a5100091610fca919061341a565b600284015561316f4262093a80614f55565b600384015561317e3382613c0f565b604051818152879033907f90890809c654f11d6e72a28fa60149770a0d11ec6c92319d6ceb2bb0a4ea1a159060200160405180910390a350505050505050565b60408051808201909152600080825260208201526001600160a01b038316600090815261013160205260409020805463ffffffff841690811061321157634e487b7160e01b600052603260045260246000fd5b60009182526020918290206040805180820190915291015463ffffffff8116825264010000000090046001600160e01b0316918101919091529392505050565b610162546001600160a01b0316331461327c5760405162461bcd60e51b815260040161115f90614ed5565b6001600160a01b0381166132e15760405162461bcd60e51b815260206004820152602660248201527f4f776e61626c653a206e6577206f776e657220697320746865207a65726f206160448201526564647265737360d01b606482015260840161115f565b611933816139de565b6001600160a01b03831661334c5760405162461bcd60e51b8152602060048201526024808201527f45524332303a20617070726f76652066726f6d20746865207a65726f206164646044820152637265737360e01b606482015260840161115f565b6001600160a01b0382166133ad5760405162461bcd60e51b815260206004820152602260248201527f45524332303a20617070726f766520746f20746865207a65726f206164647265604482015261737360f01b606482015260840161115f565b6001600160a01b0383811660008181526098602090815260408083209487168084529482529182902085905590518481527f8c5be1e5ebec7d5bd14f71427d1e84f3dd0314c0f7b2291e5b200ac8c7c3b925910160405180910390a3505050565b60006117d48284614fac565b60006117d48284614f8d565b60006117d48284614f6d565b60006117d48284614f55565b6001600160a01b0383166134a25760405162461bcd60e51b815260206004820152602560248201527f45524332303a207472616e736665722066726f6d20746865207a65726f206164604482015264647265737360d81b606482015260840161115f565b6001600160a01b0382166135045760405162461bcd60e51b815260206004820152602360248201527f45524332303a207472616e7366657220746f20746865207a65726f206164647260448201526265737360e81b606482015260840161115f565b61350f838383613c19565b6001600160a01b038316600090815260976020526040902054818110156135875760405162461bcd60e51b815260206004820152602660248201527f45524332303a207472616e7366657220616d6f756e7420657863656564732062604482015265616c616e636560d01b606482015260840161115f565b6001600160a01b038085166000908152609760205260408082208585039055918516815290812080548492906135be908490614f55565b92505081905550826001600160a01b0316846001600160a01b03167fddf252ad1be2c89b69c2b068fc378daa952ba7f163c4a11628f55a4df523b3ef8460405161360a91815260200190565b60405180910390a361361d848484613c81565b50505050565b60006118687f8b73c3c69bb8fe3d512ecc4cf759cc79239f7b179b0ffacaa9a75d522b39400f61365260c95490565b60ca546040805160208101859052908101839052606081018290524660808201523060a082015260009060c0016040516020818303038152906040528051906020012090509392505050565b7f360894a13ba1a3210667c828492db98dca3e2076cc3735a920a3ca505d382bbc546001600160a01b031690565b336136e0610162546001600160a01b031690565b6001600160a01b0316146119335760405162461bcd60e51b815260206004820152602560248201527f4f6e6c79206f776e65722063616e207570677261646520696d706c656d656e7460448201526430ba34b7b760d91b606482015260840161115f565b600061374e61369e565b905061375984613c8c565b6000835111806137665750815b15613777576137758484613d31565b505b7f4910fdfa16fed3260ed0e7147f7cc6da11a60208b5b9406d12a635614ffd9143805460ff1661145357805460ff191660011781556040516001600160a01b03831660248201526137f690869060440160408051601f198184030181529190526020810180516001600160e01b0316631b2ce7f360e11b179052613d31565b50805460ff1916815561380761369e565b6001600160a01b0316826001600160a01b03161461387f5760405162461bcd60e51b815260206004820152602f60248201527f45524331393637557067726164653a207570677261646520627265616b73206660448201526e75727468657220757067726164657360881b606482015260840161115f565b61145385613e13565b8154600090815b818110156138fa5760006138a38284613e53565b9050848682815481106138c657634e487b7160e01b600052603260045260246000fd5b60009182526020909120015463ffffffff1611156138e6578092506138f4565b6138f1816001614f55565b91505b5061388f565b811561394c578461390c600184614fac565b8154811061392a57634e487b7160e01b600052603260045260246000fd5b60009182526020909120015464010000000090046001600160e01b031661394f565b60005b6001600160e01b031695945050505050565b611e698282613e6e565b611e698282613e87565b600063ffffffff8211156139da5760405162461bcd60e51b815260206004820152602660248201527f53616665436173743a2076616c756520646f65736e27742066697420696e203360448201526532206269747360d01b606482015260840161115f565b5090565b61016280546001600160a01b038381166001600160a01b0319831681179093556040519116919082907f8be0079c531659141344cd1fd0a4f28419497f9722a3daafe3b4186f6b6457e090600090a35050565b600054610100900460ff16613a585760405162461bcd60e51b815260040161115f90614f0a565b613a60613b4a565b612630613f02565b600054610100900460ff16613a8f5760405162461bcd60e51b815260040161115f90614f0a565b8151613aa290609a906020850190614955565b508051613ab690609b906020840190614955565b505050565b600054610100900460ff16613ae25760405162461bcd60e51b815260040161115f90614f0a565b610194805460ff19169055565b600054610100900460ff16613b165760405162461bcd60e51b815260040161115f90614f0a565b613b1e613b4a565b613b4181604051806040016040528060018152602001603160f81b815250613f32565b61193381613f73565b600054610100900460ff166126305760405162461bcd60e51b815260040161115f90614f0a565b6000610e50613b7e613623565b8360405161190160f01b6020820152602281018390526042810182905260009060620160405160208183030381529060405280519060200120905092915050565b6000806000613bd087878787613fc1565b91509150613bdd816140ae565b5095945050505050565b6001600160a01b038116600090815260fd602052604090208054600181018255905b50919050565b611e6982826142b1565b6001600160a01b0383161580613c3657506001600160a01b038216155b15613c4057613ab6565b60405162461bcd60e51b81526020600482015260166024820152752737b7103a3930b739b332b930b13632903a37b5b2b760511b604482015260640161115f565b613ab683838361433c565b803b613cf05760405162461bcd60e51b815260206004820152602d60248201527f455243313936373a206e657720696d706c656d656e746174696f6e206973206e60448201526c1bdd08184818dbdb9d1c9858dd609a1b606482015260840161115f565b7f360894a13ba1a3210667c828492db98dca3e2076cc3735a920a3ca505d382bbc80546001600160a01b0319166001600160a01b0392909216919091179055565b6060823b613d905760405162461bcd60e51b815260206004820152602660248201527f416464726573733a2064656c65676174652063616c6c20746f206e6f6e2d636f6044820152651b9d1c9858dd60d21b606482015260840161115f565b600080846001600160a01b031684604051613dab9190614dee565b600060405180830381855af49150503d8060008114613de6576040519150601f19603f3d011682016040523d82523d6000602084013e613deb565b606091505b5091509150612c11828260405180606001604052806027815260200161508f6027913961436f565b613e1c81613c8c565b6040516001600160a01b038216907fbc7cd75a20ee27fd9adebab32041f755214dbc6bffa90cc0225b39da2e5c2d3b90600090a250565b6000613e626002848418614f6d565b6117d490848416614f55565b613e7882826143a8565b61361d61013261340e83614509565b6001600160a01b0382811660008181526101306020818152604080842080546097845282862054949093528787166001600160a01b03198416811790915590519190951694919391928592917f3134e8a2e6d97e929a7e54011ea5485d7d196dd5f0ba4d4ef95803e8e3fc257f9190a461361d8284836146ba565b600054610100900460ff16613f295760405162461bcd60e51b815260040161115f90614f0a565b612630336139de565b600054610100900460ff16613f595760405162461bcd60e51b815260040161115f90614f0a565b81516020928301208151919092012060c99190915560ca55565b600054610100900460ff16613f9a5760405162461bcd60e51b815260040161115f90614f0a565b507f6e71edae12b1b97f4d1f60370fef10105fa2faae0126114a169c64845d6126c960fe55565b6000807f7fffffffffffffffffffffffffffffff5d576e7357a4501ddfe92f46681b20a0831115613ff857506000905060036140a5565b8460ff16601b1415801561401057508460ff16601c14155b1561402157506000905060046140a5565b6040805160008082526020820180845289905260ff881692820192909252606081018690526080810185905260019060a0016020604051602081039080840390855afa158015614075573d6000803e3d6000fd5b5050604051601f1901519150506001600160a01b03811661409e576000600192509250506140a5565b9150600090505b94509492505050565b60008160048111156140d057634e487b7160e01b600052602160045260246000fd5b14156140db57611933565b60018160048111156140fd57634e487b7160e01b600052602160045260246000fd5b141561414b5760405162461bcd60e51b815260206004820152601860248201527f45434453413a20696e76616c6964207369676e61747572650000000000000000604482015260640161115f565b600281600481111561416d57634e487b7160e01b600052602160045260246000fd5b14156141bb5760405162461bcd60e51b815260206004820152601f60248201527f45434453413a20696e76616c6964207369676e6174757265206c656e67746800604482015260640161115f565b60038160048111156141dd57634e487b7160e01b600052602160045260246000fd5b14156142365760405162461bcd60e51b815260206004820152602260248201527f45434453413a20696e76616c6964207369676e6174757265202773272076616c604482015261756560f01b606482015260840161115f565b600481600481111561425857634e487b7160e01b600052602160045260246000fd5b14156119335760405162461bcd60e51b815260206004820152602260248201527f45434453413a20696e76616c6964207369676e6174757265202776272076616c604482015261756560f01b606482015260840161115f565b6142bb82826147f9565b6099546001600160e01b03101561432d5760405162461bcd60e51b815260206004820152603060248201527f4552433230566f7465733a20746f74616c20737570706c79207269736b73206f60448201526f766572666c6f77696e6720766f74657360801b606482015260840161115f565b61361d61013261343283614509565b6001600160a01b0383811660009081526101306020526040808220548584168352912054613ab6929182169116836146ba565b6060831561437e5750816117d4565b82511561438e5782518084602001fd5b8160405162461bcd60e51b815260040161115f9190614e0a565b6001600160a01b0382166144085760405162461bcd60e51b815260206004820152602160248201527f45524332303a206275726e2066726f6d20746865207a65726f206164647265736044820152607360f81b606482015260840161115f565b61441482600083613c19565b6001600160a01b038216600090815260976020526040902054818110156144885760405162461bcd60e51b815260206004820152602260248201527f45524332303a206275726e20616d6f756e7420657863656564732062616c616e604482015261636560f01b606482015260840161115f565b6001600160a01b03831660009081526097602052604081208383039055609980548492906144b7908490614fac565b90915550506040518281526000906001600160a01b038516907fddf252ad1be2c89b69c2b068fc378daa952ba7f163c4a11628f55a4df523b3ef9060200160405180910390a3613ab683600084613c81565b8254600090819080156145625785614522600183614fac565b8154811061454057634e487b7160e01b600052603260045260246000fd5b60009182526020909120015464010000000090046001600160e01b0316614565565b60005b6001600160e01b0316925061457e83858763ffffffff16565b91506000811180156145ca57504386614598600184614fac565b815481106145b657634e487b7160e01b600052603260045260246000fd5b60009182526020909120015463ffffffff16145b15614638576145d8826148ec565b866145e4600184614fac565b8154811061460257634e487b7160e01b600052603260045260246000fd5b9060005260206000200160000160046101000a8154816001600160e01b0302191690836001600160e01b031602179055506146b1565b85604051806040016040528061464d43613975565b63ffffffff168152602001614661856148ec565b6001600160e01b039081169091528254600181018455600093845260209384902083519101805493909401519091166401000000000263ffffffff91821663ffffffff1990931692909217161790555b50935093915050565b816001600160a01b0316836001600160a01b0316141580156146dc5750600081115b15613ab6576001600160a01b0383161561476b576001600160a01b03831660009081526101316020526040812081906147189061340e85614509565b91509150846001600160a01b03167fdec2bacdd2f05b59de34da9b523dff8be42e5e38e818c82fdb0bae774387a7248383604051614760929190918252602082015260400190565b60405180910390a250505b6001600160a01b03821615613ab6576001600160a01b03821660009081526101316020526040812081906147a29061343285614509565b91509150836001600160a01b03167fdec2bacdd2f05b59de34da9b523dff8be42e5e38e818c82fdb0bae774387a72483836040516147ea929190918252602082015260400190565b60405180910390a25050505050565b6001600160a01b03821661484f5760405162461bcd60e51b815260206004820152601f60248201527f45524332303a206d696e7420746f20746865207a65726f206164647265737300604482015260640161115f565b61485b60008383613c19565b806099600082825461486d9190614f55565b90915550506001600160a01b0382166000908152609760205260408120805483929061489a908490614f55565b90915550506040518181526001600160a01b038316906000907fddf252ad1be2c89b69c2b068fc378daa952ba7f163c4a11628f55a4df523b3ef9060200160405180910390a3611e6960008383613c81565b60006001600160e01b038211156139da5760405162461bcd60e51b815260206004820152602760248201527f53616665436173743a2076616c756520646f65736e27742066697420696e20326044820152663234206269747360c81b606482015260840161115f565b82805461496190614fef565b90600052602060002090601f01602090048101928261498357600085556149c9565b82601f1061499c57805160ff19168380011785556149c9565b828001600101855582156149c9579182015b828111156149c95782518255916020019190600101906149ae565b506139da9291505b808211156139da57600081556001016149d1565b803560ff81168114610da857600080fd5b600060208284031215614a07578081fd5b81356117d48161506b565b60008060408385031215614a24578081fd5b8235614a2f8161506b565b91506020830135614a3f8161506b565b809150509250929050565b600080600080600060a08688031215614a61578081fd5b8535614a6c8161506b565b94506020860135614a7c8161506b565b93506040860135614a8c8161506b565b94979396509394606081013594506080013592915050565b600080600060608486031215614ab8578283fd5b8335614ac38161506b565b92506020840135614ad38161506b565b929592945050506040919091013590565b600080600080600080600060e0888a031215614afe578182fd5b8735614b098161506b565b96506020880135614b198161506b565b95506040880135945060608801359350614b35608089016149e5565b925060a0880135915060c0880135905092959891949750929550565b60008060408385031215614b63578182fd5b8235614b6e8161506b565b9150602083013567ffffffffffffffff80821115614b8a578283fd5b818501915085601f830112614b9d578283fd5b813581811115614baf57614baf615055565b604051601f8201601f19908116603f01168101908382118183101715614bd757614bd7615055565b81604052828152886020848701011115614bef578586fd5b82602086016020830137856020848301015280955050505050509250929050565b60008060408385031215614c22578182fd5b8235614c2d8161506b565b946020939093013593505050565b60008060008060008060c08789031215614c53578182fd5b8635614c5e8161506b565b95506020870135945060408701359350614c7a606088016149e5565b92506080870135915060a087013590509295509295509295565b60008060408385031215614ca6578182fd5b8235614cb18161506b565b9150602083013563ffffffff81168114614a3f578182fd5b600060208284031215614cda578081fd5b81516117d481615080565b600060208284031215614cf6578081fd5b5035919050565b600060208284031215614d0e578081fd5b5051919050565b60008060408385031215614d27578182fd5b823591506020830135614a3f8161506b565b600080600060608486031215614d4d578081fd5b833592506020840135614ad38161506b565b600080600060608486031215614d73578081fd5b833592506020840135614d858161506b565b91506040840135614d9581615080565b809150509250925092565b60008060408385031215614db2578182fd5b50508035926020909101359150565b600080600060608486031215614dd5578081fd5b83359250602084013591506040840135614d9581615080565b60008251614e00818460208701614fc3565b9190910192915050565b6000602082528251806020840152614e29816040850160208701614fc3565b601f01601f19169190910160400192915050565b6020808252602c908201527f46756e6374696f6e206d7573742062652063616c6c6564207468726f7567682060408201526b19195b1959d85d1958d85b1b60a21b606082015260800190565b6020808252602c908201527f46756e6374696f6e206d7573742062652063616c6c6564207468726f7567682060408201526b6163746976652070726f787960a01b606082015260800190565b6020808252818101527f4f776e61626c653a2063616c6c6572206973206e6f7420746865206f776e6572604082015260600190565b6020808252602b908201527f496e697469616c697a61626c653a20636f6e7472616374206973206e6f74206960408201526a6e697469616c697a696e6760a81b606082015260800190565b60008219821115614f6857614f6861503f565b500190565b600082614f8857634e487b7160e01b81526012600452602481fd5b500490565b6000816000190483118215151615614fa757614fa761503f565b500290565b600082821015614fbe57614fbe61503f565b500390565b60005b83811015614fde578181015183820152602001614fc6565b8381111561361d5750506000910152565b60028104600182168061500357607f821691505b60208210811415613c0957634e487b7160e01b600052602260045260246000fd5b60006000198214156150385761503861503f565b5060010190565b634e487b7160e01b600052601160045260246000fd5b634e487b7160e01b600052604160045260246000fd5b6001600160a01b038116811461193357600080fd5b801515811461193357600080fdfe416464726573733a206c6f772d6c6576656c2064656c65676174652063616c6c206661696c6564a2646970667358221220071fde681b15fa0013a1400f29c65354099fa1e74c553e56aa5870eb0e49d38f64736f6c63430008020033",
  "linkReferences": {},
  "deployedLinkReferences": {}
}