{
  "_format": "hh-sol-artifact-1",
  "contractName": "Maia",
  "sourceName": "contracts/Maia.sol",
  "abi": [
    {
      "anonymous": false,
      "inputs": [
        {
          "indexed": false,
          "internalType": "address",
          "name": "previousAdmin",
          "type": "address"
        },
        {
          "indexed": false,
          "internalType": "address",
          "name": "newAdmin",
          "type": "address"
        }
      ],
      "name": "AdminChanged",
      "type": "event"
    },
    {
      "anonymous": false,
      "inputs": [
        {
          "indexed": false,
          "internalType": "address",
          "name": "newAdmin",
          "type": "address"
        }
      ],
      "name": "AdminUpdated",
      "type": "event"
    },
    {
      "anonymous": false,
      "inputs": [
        {
          "indexed": true,
          "internalType": "address",
          "name": "owner",
          "type": "address"
        },
        {
          "indexed": true,
          "internalType": "address",
          "name": "spender",
          "type": "address"
        },
        {
          "indexed": false,
          "internalType": "uint256",
          "name": "value",
          "type": "uint256"
        }
      ],
      "name": "Approval",
      "type": "event"
    },
    {
      "anonymous": false,
      "inputs": [
        {
          "indexed": true,
          "internalType": "address",
          "name": "beacon",
          "type": "address"
        }
      ],
      "name": "BeaconUpgraded",
      "type": "event"
    },
    {
      "anonymous": false,
      "inputs": [
        {
          "indexed": true,
          "internalType": "address",
          "name": "delegator",
          "type": "address"
        },
        {
          "indexed": true,
          "internalType": "address",
          "name": "fromDelegate",
          "type": "address"
        },
        {
          "indexed": true,
          "internalType": "address",
          "name": "toDelegate",
          "type": "address"
        }
      ],
      "name": "DelegateChanged",
      "type": "event"
    },
    {
      "anonymous": false,
      "inputs": [
        {
          "indexed": true,
          "internalType": "address",
          "name": "delegate",
          "type": "address"
        },
        {
          "indexed": false,
          "internalType": "uint256",
          "name": "previousBalance",
          "type": "uint256"
        },
        {
          "indexed": false,
          "internalType": "uint256",
          "name": "newBalance",
          "type": "uint256"
        }
      ],
      "name": "DelegateVotesChanged",
      "type": "event"
    },
    {
      "anonymous": false,
      "inputs": [
        {
          "indexed": true,
          "internalType": "address",
          "name": "user",
          "type": "address"
        },
        {
          "indexed": true,
          "internalType": "uint256",
          "name": "pid",
          "type": "uint256"
        },
        {
          "indexed": false,
          "internalType": "uint256",
          "name": "amount",
          "type": "uint256"
        }
      ],
      "name": "Deposit",
      "type": "event"
    },
    {
      "anonymous": false,
      "inputs": [
        {
          "indexed": true,
          "internalType": "address",
          "name": "user",
          "type": "address"
        },
        {
          "indexed": true,
          "internalType": "uint256",
          "name": "pid",
          "type": "uint256"
        },
        {
          "indexed": false,
          "internalType": "uint256",
          "name": "amount",
          "type": "uint256"
        }
      ],
      "name": "EmergencyWithdraw",
      "type": "event"
    },
    {
      "anonymous": false,
      "inputs": [
        {
          "indexed": true,
          "internalType": "address",
          "name": "previousOwner",
          "type": "address"
        },
        {
          "indexed": true,
          "internalType": "address",
          "name": "newOwner",
          "type": "address"
        }
      ],
      "name": "OwnershipTransferred",
      "type": "event"
    },
    {
      "anonymous": false,
      "inputs": [
        {
          "indexed": false,
          "internalType": "address",
          "name": "account",
          "type": "address"
        }
      ],
      "name": "Paused",
      "type": "event"
    },
    {
      "anonymous": false,
      "inputs": [
        {
          "indexed": true,
          "internalType": "address",
          "name": "from",
          "type": "address"
        },
        {
          "indexed": true,
          "internalType": "address",
          "name": "to",
          "type": "address"
        },
        {
          "indexed": false,
          "internalType": "uint256",
          "name": "value",
          "type": "uint256"
        }
      ],
      "name": "Transfer",
      "type": "event"
    },
    {
      "anonymous": false,
      "inputs": [
        {
          "indexed": false,
          "internalType": "address",
          "name": "account",
          "type": "address"
        }
      ],
      "name": "Unpaused",
      "type": "event"
    },
    {
      "anonymous": false,
      "inputs": [
        {
          "indexed": true,
          "internalType": "address",
          "name": "implementation",
          "type": "address"
        }
      ],
      "name": "Upgraded",
      "type": "event"
    },
    {
      "anonymous": false,
      "inputs": [
        {
          "indexed": true,
          "internalType": "address",
          "name": "user",
          "type": "address"
        },
        {
          "indexed": true,
          "internalType": "uint256",
          "name": "pid",
          "type": "uint256"
        },
        {
          "indexed": false,
          "internalType": "uint256",
          "name": "amount",
          "type": "uint256"
        }
      ],
      "name": "Withdraw",
      "type": "event"
    },
    {
      "inputs": [],
      "name": "BONUS_MULTIPLIER",
      "outputs": [
        {
          "internalType": "uint256",
          "name": "",
          "type": "uint256"
        }
      ],
      "stateMutability": "view",
      "type": "function"
    },
    {
      "inputs": [],
      "name": "DOMAIN_SEPARATOR",
      "outputs": [
        {
          "internalType": "bytes32",
          "name": "",
          "type": "bytes32"
        }
      ],
      "stateMutability": "view",
      "type": "function"
    },
    {
      "inputs": [],
      "name": "GOLD",
      "outputs": [
        {
          "internalType": "contract IERC20Upgradeable",
          "name": "",
          "type": "address"
        }
      ],
      "stateMutability": "view",
      "type": "function"
    },
    {
      "inputs": [
        {
          "internalType": "uint256",
          "name": "_pid",
          "type": "uint256"
        },
        {
          "internalType": "address",
          "name": "_to",
          "type": "address"
        },
        {
          "internalType": "uint256",
          "name": "_amount",
          "type": "uint256"
        }
      ],
      "name": "accessGOLDTokens",
      "outputs": [],
      "stateMutability": "nonpayable",
      "type": "function"
    },
    {
      "inputs": [
        {
          "internalType": "uint256",
          "name": "_allocPoint",
          "type": "uint256"
        },
        {
          "internalType": "contract IERC20Upgradeable",
          "name": "_lpToken",
          "type": "address"
        },
        {
          "internalType": "bool",
          "name": "_withUpdate",
          "type": "bool"
        }
      ],
      "name": "add",
      "outputs": [],
      "stateMutability": "nonpayable",
      "type": "function"
    },
    {
      "inputs": [
        {
          "internalType": "address",
          "name": "_adminAddress",
          "type": "address"
        }
      ],
      "name": "admin",
      "outputs": [],
      "stateMutability": "nonpayable",
      "type": "function"
    },
    {
      "inputs": [],
      "name": "adminAddress",
      "outputs": [
        {
          "internalType": "address",
          "name": "",
          "type": "address"
        }
      ],
      "stateMutability": "view",
      "type": "function"
    },
    {
      "inputs": [
        {
          "internalType": "address",
          "name": "owner",
          "type": "address"
        },
        {
          "internalType": "address",
          "name": "spender",
          "type": "address"
        }
      ],
      "name": "allowance",
      "outputs": [
        {
          "internalType": "uint256",
          "name": "",
          "type": "uint256"
        }
      ],
      "stateMutability": "view",
      "type": "function"
    },
    {
      "inputs": [
        {
          "internalType": "address",
          "name": "spender",
          "type": "address"
        },
        {
          "internalType": "uint256",
          "name": "amount",
          "type": "uint256"
        }
      ],
      "name": "approve",
      "outputs": [
        {
          "internalType": "bool",
          "name": "",
          "type": "bool"
        }
      ],
      "stateMutability": "nonpayable",
      "type": "function"
    },
    {
      "inputs": [
        {
          "internalType": "address",
          "name": "account",
          "type": "address"
        }
      ],
      "name": "balanceOf",
      "outputs": [
        {
          "internalType": "uint256",
          "name": "",
          "type": "uint256"
        }
      ],
      "stateMutability": "view",
      "type": "function"
    },
    {
      "inputs": [
        {
          "internalType": "uint256",
          "name": "_pid",
          "type": "uint256"
        },
        {
          "internalType": "address",
          "name": "user",
          "type": "address"
        }
      ],
      "name": "checkHighestStaker",
      "outputs": [
        {
          "internalType": "bool",
          "name": "",
          "type": "bool"
        }
      ],
      "stateMutability": "view",
      "type": "function"
    },
    {
      "inputs": [
        {
          "internalType": "address",
          "name": "account",
          "type": "address"
        },
        {
          "internalType": "uint32",
          "name": "pos",
          "type": "uint32"
        }
      ],
      "name": "checkpoints",
      "outputs": [
        {
          "components": [
            {
              "internalType": "uint32",
              "name": "fromBlock",
              "type": "uint32"
            },
            {
              "internalType": "uint224",
              "name": "votes",
              "type": "uint224"
            }
          ],
          "internalType": "struct ERC20VotesUpgradeable.Checkpoint",
          "name": "",
          "type": "tuple"
        }
      ],
      "stateMutability": "view",
      "type": "function"
    },
    {
      "inputs": [
        {
          "internalType": "uint256",
          "name": "_pid",
          "type": "uint256"
        }
      ],
      "name": "claimGOLD",
      "outputs": [],
      "stateMutability": "nonpayable",
      "type": "function"
    },
    {
      "inputs": [],
      "name": "decimals",
      "outputs": [
        {
          "internalType": "uint8",
          "name": "",
          "type": "uint8"
        }
      ],
      "stateMutability": "view",
      "type": "function"
    },
    {
      "inputs": [
        {
          "internalType": "address",
          "name": "spender",
          "type": "address"
        },
        {
          "internalType": "uint256",
          "name": "subtractedValue",
          "type": "uint256"
        }
      ],
      "name": "decreaseAllowance",
      "outputs": [
        {
          "internalType": "bool",
          "name": "",
          "type": "bool"
        }
      ],
      "stateMutability": "nonpayable",
      "type": "function"
    },
    {
      "inputs": [
        {
          "internalType": "address",
          "name": "delegatee",
          "type": "address"
        }
      ],
      "name": "delegate",
      "outputs": [],
      "stateMutability": "nonpayable",
      "type": "function"
    },
    {
      "inputs": [
        {
          "internalType": "address",
          "name": "delegatee",
          "type": "address"
        },
        {
          "internalType": "uint256",
          "name": "nonce",
          "type": "uint256"
        },
        {
          "internalType": "uint256",
          "name": "expiry",
          "type": "uint256"
        },
        {
          "internalType": "uint8",
          "name": "v",
          "type": "uint8"
        },
        {
          "internalType": "bytes32",
          "name": "r",
          "type": "bytes32"
        },
        {
          "internalType": "bytes32",
          "name": "s",
          "type": "bytes32"
        }
      ],
      "name": "delegateBySig",
      "outputs": [],
      "stateMutability": "nonpayable",
      "type": "function"
    },
    {
      "inputs": [
        {
          "internalType": "address",
          "name": "account",
          "type": "address"
        }
      ],
      "name": "delegates",
      "outputs": [
        {
          "internalType": "address",
          "name": "",
          "type": "address"
        }
      ],
      "stateMutability": "view",
      "type": "function"
    },
    {
      "inputs": [
        {
          "internalType": "uint256",
          "name": "_pid",
          "type": "uint256"
        },
        {
          "internalType": "uint256",
          "name": "_amount",
          "type": "uint256"
        }
      ],
      "name": "deposit",
      "outputs": [],
      "stateMutability": "nonpayable",
      "type": "function"
    },
    {
      "inputs": [
        {
          "internalType": "uint256",
          "name": "_from",
          "type": "uint256"
        },
        {
          "internalType": "uint256",
          "name": "_to",
          "type": "uint256"
        }
      ],
      "name": "getMultiplier",
      "outputs": [
        {
          "internalType": "uint256",
          "name": "",
          "type": "uint256"
        }
      ],
      "stateMutability": "pure",
      "type": "function"
    },
    {
      "inputs": [
        {
          "internalType": "uint256",
          "name": "blockNumber",
          "type": "uint256"
        }
      ],
      "name": "getPastTotalSupply",
      "outputs": [
        {
          "internalType": "uint256",
          "name": "",
          "type": "uint256"
        }
      ],
      "stateMutability": "view",
      "type": "function"
    },
    {
      "inputs": [
        {
          "internalType": "address",
          "name": "account",
          "type": "address"
        },
        {
          "internalType": "uint256",
          "name": "blockNumber",
          "type": "uint256"
        }
      ],
      "name": "getPastVotes",
      "outputs": [
        {
          "internalType": "uint256",
          "name": "",
          "type": "uint256"
        }
      ],
      "stateMutability": "view",
      "type": "function"
    },
    {
      "inputs": [
        {
          "internalType": "address",
          "name": "account",
          "type": "address"
        }
      ],
      "name": "getVotes",
      "outputs": [
        {
          "internalType": "uint256",
          "name": "",
          "type": "uint256"
        }
      ],
      "stateMutability": "view",
      "type": "function"
    },
    {
      "inputs": [],
      "name": "gold",
      "outputs": [
        {
          "internalType": "contract IERC20Upgradeable",
          "name": "",
          "type": "address"
        }
      ],
      "stateMutability": "view",
      "type": "function"
    },
    {
      "inputs": [
        {
          "internalType": "uint256",
          "name": "",
          "type": "uint256"
        },
        {
          "internalType": "uint256",
          "name": "",
          "type": "uint256"
        }
      ],
      "name": "highestStakerInPool",
      "outputs": [
        {
          "internalType": "uint256",
          "name": "deposited",
          "type": "uint256"
        },
        {
          "internalType": "address",
          "name": "addr",
          "type": "address"
        }
      ],
      "stateMutability": "view",
      "type": "function"
    },
    {
      "inputs": [
        {
          "internalType": "address",
          "name": "spender",
          "type": "address"
        },
        {
          "internalType": "uint256",
          "name": "addedValue",
          "type": "uint256"
        }
      ],
      "name": "increaseAllowance",
      "outputs": [
        {
          "internalType": "bool",
          "name": "",
          "type": "bool"
        }
      ],
      "stateMutability": "nonpayable",
      "type": "function"
    },
    {
      "inputs": [
        {
          "internalType": "contract IERC20Upgradeable",
          "name": "_GOLD",
          "type": "address"
        },
        {
          "internalType": "address",
          "name": "_adminAddress",
          "type": "address"
        },
        {
          "internalType": "uint256",
          "name": "_startBlock",
          "type": "uint256"
        },
        {
          "internalType": "uint256",
          "name": "_topStakerNumber",
          "type": "uint256"
        }
      ],
      "name": "initialize",
      "outputs": [],
      "stateMutability": "nonpayable",
      "type": "function"
    },
    {
      "inputs": [],
      "name": "massUpdatePools",
      "outputs": [],
      "stateMutability": "nonpayable",
      "type": "function"
    },
    {
      "inputs": [],
      "name": "name",
      "outputs": [
        {
          "internalType": "string",
          "name": "",
          "type": "string"
        }
      ],
      "stateMutability": "view",
      "type": "function"
    },
    {
      "inputs": [
        {
          "internalType": "address",
          "name": "owner",
          "type": "address"
        }
      ],
      "name": "nonces",
      "outputs": [
        {
          "internalType": "uint256",
          "name": "",
          "type": "uint256"
        }
      ],
      "stateMutability": "view",
      "type": "function"
    },
    {
      "inputs": [
        {
          "internalType": "address",
          "name": "account",
          "type": "address"
        }
      ],
      "name": "numCheckpoints",
      "outputs": [
        {
          "internalType": "uint32",
          "name": "",
          "type": "uint32"
        }
      ],
      "stateMutability": "view",
      "type": "function"
    },
    {
      "inputs": [],
      "name": "owner",
      "outputs": [
        {
          "internalType": "address",
          "name": "",
          "type": "address"
        }
      ],
      "stateMutability": "view",
      "type": "function"
    },
    {
      "inputs": [],
      "name": "paused",
      "outputs": [
        {
          "internalType": "bool",
          "name": "",
          "type": "bool"
        }
      ],
      "stateMutability": "view",
      "type": "function"
    },
    {
      "inputs": [
        {
          "internalType": "uint256",
          "name": "_pid",
          "type": "uint256"
        },
        {
          "internalType": "address",
          "name": "_user",
          "type": "address"
        }
      ],
      "name": "pendingGOLD",
      "outputs": [
        {
          "internalType": "uint256",
          "name": "",
          "type": "uint256"
        }
      ],
      "stateMutability": "view",
      "type": "function"
    },
    {
      "inputs": [
        {
          "internalType": "address",
          "name": "owner",
          "type": "address"
        },
        {
          "internalType": "address",
          "name": "spender",
          "type": "address"
        },
        {
          "internalType": "uint256",
          "name": "value",
          "type": "uint256"
        },
        {
          "internalType": "uint256",
          "name": "deadline",
          "type": "uint256"
        },
        {
          "internalType": "uint8",
          "name": "v",
          "type": "uint8"
        },
        {
          "internalType": "bytes32",
          "name": "r",
          "type": "bytes32"
        },
        {
          "internalType": "bytes32",
          "name": "s",
          "type": "bytes32"
        }
      ],
      "name": "permit",
      "outputs": [],
      "stateMutability": "nonpayable",
      "type": "function"
    },
    {
      "inputs": [
        {
          "internalType": "uint256",
          "name": "",
          "type": "uint256"
        }
      ],
      "name": "poolInfo",
      "outputs": [
        {
          "internalType": "contract IERC20Upgradeable",
          "name": "lpToken",
          "type": "address"
        },
        {
          "internalType": "uint256",
          "name": "allocPoint",
          "type": "uint256"
        },
        {
          "internalType": "uint256",
          "name": "lastRewardBlock",
          "type": "uint256"
        },
        {
          "internalType": "uint256",
          "name": "accGOLDPerShare",
          "type": "uint256"
        },
        {
          "internalType": "uint256",
          "name": "lastTotalGOLDReward",
          "type": "uint256"
        },
        {
          "internalType": "uint256",
          "name": "lastGOLDRewardBalance",
          "type": "uint256"
        },
        {
          "internalType": "uint256",
          "name": "totalGOLDReward",
          "type": "uint256"
        }
      ],
      "stateMutability": "view",
      "type": "function"
    },
    {
      "inputs": [],
      "name": "poolLength",
      "outputs": [
        {
          "internalType": "uint256",
          "name": "",
          "type": "uint256"
        }
      ],
      "stateMutability": "view",
      "type": "function"
    },
    {
      "inputs": [],
      "name": "renounceOwnership",
      "outputs": [],
      "stateMutability": "nonpayable",
      "type": "function"
    },
    {
      "inputs": [
        {
          "internalType": "uint256",
          "name": "_pid",
          "type": "uint256"
        },
        {
          "internalType": "uint256",
          "name": "_allocPoint",
          "type": "uint256"
        },
        {
          "internalType": "bool",
          "name": "_withUpdate",
          "type": "bool"
        }
      ],
      "name": "set",
      "outputs": [],
      "stateMutability": "nonpayable",
      "type": "function"
    },
    {
      "inputs": [],
      "name": "startBlock",
      "outputs": [
        {
          "internalType": "uint256",
          "name": "",
          "type": "uint256"
        }
      ],
      "stateMutability": "view",
      "type": "function"
    },
    {
      "inputs": [],
      "name": "symbol",
      "outputs": [
        {
          "internalType": "string",
          "name": "",
          "type": "string"
        }
      ],
      "stateMutability": "view",
      "type": "function"
    },
    {
      "inputs": [],
      "name": "topStakerNumber",
      "outputs": [
        {
          "internalType": "uint256",
          "name": "",
          "type": "uint256"
        }
      ],
      "stateMutability": "view",
      "type": "function"
    },
    {
      "inputs": [],
      "name": "totalAllocPoint",
      "outputs": [
        {
          "internalType": "uint256",
          "name": "",
          "type": "uint256"
        }
      ],
      "stateMutability": "view",
      "type": "function"
    },
    {
      "inputs": [],
      "name": "totalGOLDStaked",
      "outputs": [
        {
          "internalType": "uint256",
          "name": "",
          "type": "uint256"
        }
      ],
      "stateMutability": "view",
      "type": "function"
    },
    {
      "inputs": [],
      "name": "totalGOLDUsedForPurchase",
      "outputs": [
        {
          "internalType": "uint256",
          "name": "",
          "type": "uint256"
        }
      ],
      "stateMutability": "view",
      "type": "function"
    },
    {
      "inputs": [],
      "name": "totalSupply",
      "outputs": [
        {
          "internalType": "uint256",
          "name": "",
          "type": "uint256"
        }
      ],
      "stateMutability": "view",
      "type": "function"
    },
    {
      "inputs": [
        {
          "internalType": "address",
          "name": "recipient",
          "type": "address"
        },
        {
          "internalType": "uint256",
          "name": "amount",
          "type": "uint256"
        }
      ],
      "name": "transfer",
      "outputs": [
        {
          "internalType": "bool",
          "name": "",
          "type": "bool"
        }
      ],
      "stateMutability": "nonpayable",
      "type": "function"
    },
    {
      "inputs": [
        {
          "internalType": "address",
          "name": "sender",
          "type": "address"
        },
        {
          "internalType": "address",
          "name": "recipient",
          "type": "address"
        },
        {
          "internalType": "uint256",
          "name": "amount",
          "type": "uint256"
        }
      ],
      "name": "transferFrom",
      "outputs": [
        {
          "internalType": "bool",
          "name": "",
          "type": "bool"
        }
      ],
      "stateMutability": "nonpayable",
      "type": "function"
    },
    {
      "inputs": [
        {
          "internalType": "address",
          "name": "newOwner",
          "type": "address"
        }
      ],
      "name": "transferOwnership",
      "outputs": [],
      "stateMutability": "nonpayable",
      "type": "function"
    },
    {
      "inputs": [
        {
          "internalType": "uint256",
          "name": "_pid",
          "type": "uint256"
        }
      ],
      "name": "updatePool",
      "outputs": [],
      "stateMutability": "nonpayable",
      "type": "function"
    },
    {
      "inputs": [
        {
          "internalType": "address",
          "name": "newImplementation",
          "type": "address"
        }
      ],
      "name": "upgradeTo",
      "outputs": [],
      "stateMutability": "nonpayable",
      "type": "function"
    },
    {
      "inputs": [
        {
          "internalType": "address",
          "name": "newImplementation",
          "type": "address"
        },
        {
          "internalType": "bytes",
          "name": "data",
          "type": "bytes"
        }
      ],
      "name": "upgradeToAndCall",
      "outputs": [],
      "stateMutability": "payable",
      "type": "function"
    },
    {
      "inputs": [
        {
          "internalType": "uint256",
          "name": "",
          "type": "uint256"
        },
        {
          "internalType": "address",
          "name": "",
          "type": "address"
        }
      ],
      "name": "userInfo",
      "outputs": [
        {
          "internalType": "uint256",
          "name": "amount",
          "type": "uint256"
        },
        {
          "internalType": "uint256",
          "name": "rewardDebt",
          "type": "uint256"
        },
        {
          "internalType": "uint256",
          "name": "rewargoldDebt",
          "type": "uint256"
        }
      ],
      "stateMutability": "view",
      "type": "function"
    },
    {
      "inputs": [
        {
          "internalType": "uint256",
          "name": "_pid",
          "type": "uint256"
        },
        {
          "internalType": "uint256",
          "name": "_amount",
          "type": "uint256"
        }
      ],
      "name": "withdraw",
      "outputs": [],
      "stateMutability": "nonpayable",
      "type": "function"
    }
  ],
  "bytecode": "0x60a06040523060601b60805234801561001757600080fd5b5060805160601c614d3a61004b6000396000818161134d0152818161138d0152818161169c01526116dc0152614d3a6000f3fe6080604052600436106103355760003560e01c806364482f79116101ab5780639ab24eb0116100f7578063eb990c5911610095578063f8b535ac1161006f578063f8b535ac14610a2e578063fbec6f2114610a45578063fc6f946814610a66578063ff793c2514610a8757610335565b8063eb990c59146109a4578063f1127ed8146109c4578063f2fde38b14610a0e57610335565b8063c3cda520116100d1578063c3cda520146108fe578063d505accf1461091e578063dd62ed3e1461093e578063e2bbb1581461098457610335565b80639ab24eb01461089e578063a457c2d7146108be578063a9059cbb146108de57610335565b80637ecebe00116101645780638dbb1e3a1161013e5780638dbb1e3a146107e65780638e539e8c1461080657806393f1a40b1461082657806395d89b411461088957610335565b80637ecebe00146107925780638aa28550146107b25780638da5cb5b146107c757610335565b806364482f79146106bb5780636e2e2d73146106db5780636f10947c146106fb5780636fcfff451461071257806370a0823114610747578063715018a61461077d57610335565b80633659cfe61161028557806351eb05a6116102235780635c19a95c116101fd5780635c19a95c1461064d5780635c975abb1461066d578063630b5ba11461068657806363a846f81461069b57610335565b806351eb05a6146105ed578063587cde1e1461060d5780635b3c25ce1461062d57610335565b80633e4bee381161025f5780633e4bee381461056a578063441a3e70146105a357806348cd4cb1146105c35780634f1ef286146105da57610335565b80633659cfe61461050a578063395093511461052a5780633a46b1a81461054a57610335565b80631526fe27116102f25780631eaaa045116102cc5780631eaaa0451461049957806323b872dd146104b9578063313ce567146104d95780633644e515146104f557610335565b80631526fe271461040e57806317caf6f11461046d57806318160ddd1461048457610335565b8063017e58ca1461033a57806306fdde0314610364578063081e3eda14610386578063095ea7b31461039c5780630bc1a005146103cc5780630d3c5df0146103ec575b600080fd5b34801561034657600080fd5b506103516101cf5481565b6040519081526020015b60405180910390f35b34801561037057600080fd5b50610379610ac4565b60405161035b9190614a42565b34801561039257600080fd5b506101cb54610351565b3480156103a857600080fd5b506103bc6103b7366004614803565b610b56565b604051901515815260200161035b565b3480156103d857600080fd5b506103516103e736600461494d565b610b6d565b3480156103f857600080fd5b5061040c610407366004614971565b610cff565b005b34801561041a57600080fd5b5061042e61042936600461491d565b611052565b604080516001600160a01b0390981688526020880196909652948601939093526060850191909152608084015260a083015260c082015260e00161035b565b34801561047957600080fd5b506103516101cd5481565b34801561049057600080fd5b50609954610351565b3480156104a557600080fd5b5061040c6104b4366004614997565b6110ac565b3480156104c557600080fd5b506103bc6104d4366004614697565b611287565b3480156104e557600080fd5b506040516012815260200161035b565b34801561050157600080fd5b50610351611333565b34801561051657600080fd5b5061040c610525366004614643565b611342565b34801561053657600080fd5b506103bc610545366004614803565b61140b565b34801561055657600080fd5b50610351610565366004614803565b611447565b34801561057657600080fd5b506101c85461058b906001600160a01b031681565b6040516001600160a01b03909116815260200161035b565b3480156105af57600080fd5b5061040c6105be3660046149d8565b6114bb565b3480156105cf57600080fd5b506103516101ce5481565b61040c6105e8366004614744565b611691565b3480156105f957600080fd5b5061040c61060836600461491d565b61174b565b34801561061957600080fd5b5061058b610628366004614643565b611892565b34801561063957600080fd5b5061040c61064836600461491d565b6118b4565b34801561065957600080fd5b5061040c610668366004614643565b61199b565b34801561067957600080fd5b506101945460ff166103bc565b34801561069257600080fd5b5061040c6119a5565b3480156106a757600080fd5b5061040c6106b6366004614643565b6119cd565b3480156106c757600080fd5b5061040c6106d63660046149f9565b611ab7565b3480156106e757600080fd5b506103bc6106f636600461494d565b611b87565b34801561070757600080fd5b506103516101ca5481565b34801561071e57600080fd5b5061073261072d366004614643565b611c13565b60405163ffffffff909116815260200161035b565b34801561075357600080fd5b50610351610762366004614643565b6001600160a01b031660009081526097602052604090205490565b34801561078957600080fd5b5061040c611c36565b34801561079e57600080fd5b506103516107ad366004614643565b611c6d565b3480156107be57600080fd5b50610351600181565b3480156107d357600080fd5b50610162546001600160a01b031661058b565b3480156107f257600080fd5b506103516108013660046149d8565b611c8b565b34801561081257600080fd5b5061035161082136600461491d565b611cba565b34801561083257600080fd5b5061086e61084136600461494d565b6101cc60209081526000928352604080842090915290825290208054600182015460029092015490919083565b6040805193845260208401929092529082015260600161035b565b34801561089557600080fd5b50610379611d17565b3480156108aa57600080fd5b506103516108b9366004614643565b611d26565b3480156108ca57600080fd5b506103bc6108d9366004614803565b611dbd565b3480156108ea57600080fd5b506103bc6108f9366004614803565b611e56565b34801561090a57600080fd5b5061040c61091936600461482e565b611e63565b34801561092a57600080fd5b5061040c6109393660046146d7565b611f99565b34801561094a57600080fd5b5061035161095936600461465f565b6001600160a01b03918216600090815260986020908152604080832093909416825291909152205490565b34801561099057600080fd5b5061040c61099f3660046149d8565b6120df565b3480156109b057600080fd5b5061040c6109bf3660046148d8565b612252565b3480156109d057600080fd5b506109e46109df366004614887565b61242a565b60408051825163ffffffff1681526020928301516001600160e01b0316928101929092520161035b565b348015610a1a57600080fd5b5061040c610a29366004614643565b6124bd565b348015610a3a57600080fd5b506103516101d05481565b348015610a5157600080fd5b506101c65461058b906001600160a01b031681565b348015610a7257600080fd5b506101c95461058b906001600160a01b031681565b348015610a9357600080fd5b50610aa7610aa23660046149d8565b612556565b604080519283526001600160a01b0390911660208301520161035b565b6060609a8054610ad390614c3e565b80601f0160208091040260200160405190810160405280929190818152602001828054610aff90614c3e565b8015610b4c5780601f10610b2157610100808354040283529160200191610b4c565b820191906000526020600020905b815481529060010190602001808311610b2f57829003601f168201915b5050505050905090565b6000610b6333848461259c565b5060015b92915050565b6000806101cb8481548110610b9257634e487b7160e01b600052603260045260246000fd5b600091825260208083208784526101cc825260408085206001600160a01b0389168652909252922060036007909202909201908101546101cf546002830154929450909143118015610be357508015155b15610ccc576000610c87610c066101d0546101cf546126c090919063ffffffff16565b86546040516370a0823160e01b81523060048201526001600160a01b03909116906370a08231906024015b60206040518083038186803b158015610c4957600080fd5b505afa158015610c5d573d6000803e3d6000fd5b505050506040513d601f19601f82011682018060405250810190610c819190614935565b906126c0565b90506000610ca28660050154836126c090919063ffffffff16565b9050610cc7610cc084610cba8464e8d4a510006126cc565b906126d8565b85906126e4565b935050505b610cf48360020154610c8164e8d4a51000610cba8688600001546126cc90919063ffffffff16565b979650505050505050565b6101c9546001600160a01b03163314610d5f5760405162461bcd60e51b815260206004820152601c60248201527f73656e646572206d7573742062652061646d696e20616464726573730000000060448201526064015b60405180910390fd5b80610d796101d0546101cf546126c090919063ffffffff16565b1015610ddb5760405162461bcd60e51b815260206004820152602b60248201527f416d6f756e74206d757374206265206c657373207468616e207374616b65642060448201526a11d3d31108185b5bdd5b9d60aa1b6064820152608401610d56565b60006101cb8481548110610dff57634e487b7160e01b600052603260045260246000fd5b6000918252602082206007919091020180546040516370a0823160e01b81523060048201529193506001600160a01b0316906370a082319060240160206040518083038186803b158015610e5257600080fd5b505afa158015610e66573d6000803e3d6000fd5b505050506040513d601f19601f82011682018060405250810190610e8a9190614935565b905080831115610f7157815460405163a9059cbb60e01b81526001600160a01b038681166004830152602482018490529091169063a9059cbb90604401602060405180830381600087803b158015610ee157600080fd5b505af1158015610ef5573d6000803e3d6000fd5b505050506040513d601f19601f82011682018060405250810190610f1991906148bc565b506101d054610f2890826126e4565b6101d05560405181815285906001600160a01b038616907fbb757047c2b5f3974fe26b7c10f732e7bce710b0952a71082702781e62ae05959060200160405180910390a361104b565b815460405163a9059cbb60e01b81526001600160a01b038681166004830152602482018690529091169063a9059cbb90604401602060405180830381600087803b158015610fbe57600080fd5b505af1158015610fd2573d6000803e3d6000fd5b505050506040513d601f19601f82011682018060405250810190610ff691906148bc565b506101d05461100590846126e4565b6101d05560405183815285906001600160a01b038616907fbb757047c2b5f3974fe26b7c10f732e7bce710b0952a71082702781e62ae0595906020015b60405180910390a35b5050505050565b6101cb818154811061106357600080fd5b600091825260209091206007909102018054600182015460028301546003840154600485015460058601546006909601546001600160a01b039095169650929491939092919087565b610162546001600160a01b031633146110d75760405162461bcd60e51b8152600401610d5690614b0d565b80156110e5576110e56119a5565b60006101ce5443116110fa576101ce546110fc565b435b6101cd5490915061110d90856126e4565b6101cd556040805160e0810182526001600160a01b039485168152602081019586529081019182526000606082018181526080830182815260a0840183815260c085018481526101cb8054600181018255955294517fe8bbfecd380c4167d6a1f763a233ec73e73f534b1970c4e1683f437ec23c1f44600790950294850180546001600160a01b031916919099161790975596517fe8bbfecd380c4167d6a1f763a233ec73e73f534b1970c4e1683f437ec23c1f4583015592517fe8bbfecd380c4167d6a1f763a233ec73e73f534b1970c4e1683f437ec23c1f4682015591517fe8bbfecd380c4167d6a1f763a233ec73e73f534b1970c4e1683f437ec23c1f4783015593517fe8bbfecd380c4167d6a1f763a233ec73e73f534b1970c4e1683f437ec23c1f4882015591517fe8bbfecd380c4167d6a1f763a233ec73e73f534b1970c4e1683f437ec23c1f498301555090517fe8bbfecd380c4167d6a1f763a233ec73e73f534b1970c4e1683f437ec23c1f4a90910155565b60006112948484846126f0565b6001600160a01b0384166000908152609860209081526040808320338452909152902054828110156113195760405162461bcd60e51b815260206004820152602860248201527f45524332303a207472616e7366657220616d6f756e74206578636565647320616044820152676c6c6f77616e636560c01b6064820152608401610d56565b611326853385840361259c565b60019150505b9392505050565b600061133d6128d5565b905090565b306001600160a01b037f000000000000000000000000000000000000000000000000000000000000000016141561138b5760405162461bcd60e51b8152600401610d5690614a75565b7f00000000000000000000000000000000000000000000000000000000000000006001600160a01b03166113bd612950565b6001600160a01b0316146113e35760405162461bcd60e51b8152600401610d5690614ac1565b6113ec8161297e565b60408051600080825260208201909252611408918391906129f6565b50565b3360008181526098602090815260408083206001600160a01b03871684529091528120549091610b63918590611442908690614b8d565b61259c565b60004382106114985760405162461bcd60e51b815260206004820152601f60248201527f4552433230566f7465733a20626c6f636b206e6f7420796574206d696e6564006044820152606401610d56565b6001600160a01b03831660009081526101316020526040902061132c9083612b3a565b60006101cb83815481106114df57634e487b7160e01b600052603260045260246000fd5b600091825260208083208684526101cc82526040808520338652909252922080546007909202909201925083111561154e5760405162461bcd60e51b81526020600482015260126024820152711dda5d1a191c985dce881b9bdd0819dbdbd960721b6044820152606401610d56565b6115578461174b565b60006115858260020154610c8164e8d4a51000610cba876003015487600001546126cc90919063ffffffff16565b835490915061159e906001600160a01b03163383612c13565b6115e96115ba6101d0546101cf546126c090919063ffffffff16565b84546040516370a0823160e01b81523060048201526001600160a01b03909116906370a0823190602401610c31565b600584015581546115fa90856126c0565b82556101cf5461160a90856126c0565b6101cf55600383015482546116299164e8d4a5100091610cba916126cc565b60028301558254611644906001600160a01b03163386612c13565b61165385836000015433612c7b565b61165d3385612d4f565b604051848152859033907ff279e6a1f5e320cca91135676d9cb6e44ca8a08c0b88342bcdb1144f6511b56890602001611042565b306001600160a01b037f00000000000000000000000000000000000000000000000000000000000000001614156116da5760405162461bcd60e51b8152600401610d5690614a75565b7f00000000000000000000000000000000000000000000000000000000000000006001600160a01b031661170c612950565b6001600160a01b0316146117325760405162461bcd60e51b8152600401610d5690614ac1565b61173b8261297e565b611747828260016129f6565b5050565b60006101cb828154811061176f57634e487b7160e01b600052603260045260246000fd5b600091825260208083208584526101cc825260408085203386529092529220600260079092029092019081015490925043116117ac575050611408565b60006117ca6115ba6101d0546101cf546126c090919063ffffffff16565b905060006117f36117e88560050154846126c090919063ffffffff16565b6006860154906126e4565b60058501839055600685018190556101cf5490915080611841575050436002808501919091556000600385018190556004850181905592018290555060058201819055600690910155611408565b600061185a8660040154846126c090919063ffffffff16565b905061187d61187283610cba8464e8d4a510006126cc565b6003880154906126e4565b60038701555050600490930192909255505050565b6001600160a01b0380821660009081526101306020526040902054165b919050565b60006101cb82815481106118d857634e487b7160e01b600052603260045260246000fd5b600091825260208083208584526101cc8252604080852033865290925292206007909102909101915061190a8361174b565b60006119388260020154610c8164e8d4a51000610cba876003015487600001546126cc90919063ffffffff16565b8354909150611951906001600160a01b03163383612c13565b61196d6115ba6101d0546101cf546126c090919063ffffffff16565b60058401556003830154825461198d9164e8d4a5100091610cba916126cc565b826002018190555050505050565b6114083382612d59565b6101cb5460005b81811015611747576119bd8161174b565b6119c681614c73565b90506119ac565b6001600160a01b038116611a195760405162461bcd60e51b815260206004820152601360248201527261646d696e3a205a65726f206164647265737360681b6044820152606401610d56565b6101c9546001600160a01b03163314611a625760405162461bcd60e51b815260206004820152600b60248201526a61646d696e3a207775743f60a81b6044820152606401610d56565b6101c980546001600160a01b0319166001600160a01b0383169081179091556040519081527f54e4612788f90384e6843298d7854436f3a585b2c3831ab66abf1de63bfa6c2d9060200160405180910390a150565b610162546001600160a01b03163314611ae25760405162461bcd60e51b8152600401610d5690614b0d565b8015611af057611af06119a5565b611b4382611b3d6101cb8681548110611b1957634e487b7160e01b600052603260045260246000fd5b9060005260206000209060070201600101546101cd546126c090919063ffffffff16565b906126e4565b6101cd81905550816101cb8481548110611b6d57634e487b7160e01b600052603260045260246000fd5b906000526020600020906007020160010181905550505050565b60008281526101c760205260408120815b8154811015611c0b57836001600160a01b0316828281548110611bcb57634e487b7160e01b600052603260045260246000fd5b60009182526020909120600160029092020101546001600160a01b03161415611bf957600192505050610b67565b80611c0381614c73565b915050611b98565b505092915050565b6001600160a01b03811660009081526101316020526040812054610b6790612dbb565b610162546001600160a01b03163314611c615760405162461bcd60e51b8152600401610d5690614b0d565b611c6b6000612e24565b565b6001600160a01b038116600090815260fd6020526040812054610b67565b6000828210611cb057611ca96001611ca384866126c0565b906126cc565b9050610b67565b611ca983836126c0565b6000438210611d0b5760405162461bcd60e51b815260206004820152601f60248201527f4552433230566f7465733a20626c6f636b206e6f7420796574206d696e6564006044820152606401610d56565b610b6761013283612b3a565b6060609b8054610ad390614c3e565b6001600160a01b038116600090815261013160205260408120548015611daa576001600160a01b038316600090815261013160205260409020611d6a600183614be4565b81548110611d8857634e487b7160e01b600052603260045260246000fd5b60009182526020909120015464010000000090046001600160e01b0316611dad565b60005b6001600160e01b03169392505050565b3360009081526098602090815260408083206001600160a01b038616845290915281205482811015611e3f5760405162461bcd60e51b815260206004820152602560248201527f45524332303a2064656372656173656420616c6c6f77616e63652062656c6f77604482015264207a65726f60d81b6064820152608401610d56565b611e4c338585840361259c565b5060019392505050565b6000610b633384846126f0565b83421115611eb35760405162461bcd60e51b815260206004820152601d60248201527f4552433230566f7465733a207369676e617475726520657870697265640000006044820152606401610d56565b604080517fe48329057bfd03d55e49b547132e39cffd9c1820ad7b9d4c5307691425d15adf60208201526001600160a01b038816918101919091526060810186905260808101859052600090611f2d90611f259060a00160405160208183030381529060405280519060200120612e77565b858585612ec5565b9050611f3881612eed565b8614611f865760405162461bcd60e51b815260206004820152601960248201527f4552433230566f7465733a20696e76616c6964206e6f6e6365000000000000006044820152606401610d56565b611f908188612d59565b50505050505050565b83421115611fe95760405162461bcd60e51b815260206004820152601d60248201527f45524332305065726d69743a206578706972656420646561646c696e650000006044820152606401610d56565b600060fe54888888611ffa8c612eed565b6040805160208101969096526001600160a01b0394851690860152929091166060840152608083015260a082015260c0810186905260e001604051602081830303815290604052805190602001209050600061205582612e77565b9050600061206582878787612ec5565b9050896001600160a01b0316816001600160a01b0316146120c85760405162461bcd60e51b815260206004820152601e60248201527f45524332305065726d69743a20696e76616c6964207369676e617475726500006044820152606401610d56565b6120d38a8a8a61259c565b50505050505050505050565b60006101cb838154811061210357634e487b7160e01b600052603260045260246000fd5b600091825260208083208684526101cc825260408085203386529092529220600790910290910191506121358461174b565b8054156121a657600061216a8260020154610c8164e8d4a51000610cba876003015487600001546126cc90919063ffffffff16565b8354909150612183906001600160a01b03163383612c13565b61219f6115ba6101d0546101cf546126c090919063ffffffff16565b6005840155505b81546121bd906001600160a01b0316333086612f15565b6101cf546121cb90846126e4565b6101cf5580546121db90846126e4565b80825560038301546121f89164e8d4a5100091610cba91906126cc565b6002820155805461220b90859033612f4d565b612215338461315c565b604051838152849033907f90890809c654f11d6e72a28fa60149770a0d11ec6c92319d6ceb2bb0a4ea1a159060200160405180910390a350505050565b600054610100900460ff1661226d5760005460ff1615612271565b303b155b6122d45760405162461bcd60e51b815260206004820152602e60248201527f496e697469616c697a61626c653a20636f6e747261637420697320616c72656160448201526d191e481a5b9a5d1a585b1a5e995960921b6064820152608401610d56565b600054610100900460ff161580156122ff576000805460ff1961ff0019909116610100171660011790555b6001600160a01b0384166123555760405162461bcd60e51b815260206004820152601860248201527f696e697469616c697a653a205a65726f206164647265737300000000000000006044820152606401610d56565b61235d613166565b61239f6040518060400160405280600481526020016319dbdb1960e21b8152506040518060400160405280600481526020016319dbdb1960e21b81525061319d565b6123a76131eb565b6123cc6040518060400160405280600481526020016319dbdb1960e21b81525061321f565b6123d461327a565b6101c880546001600160a01b038088166001600160a01b0319928316179092556101c98054928716929091169190911790556101ce8390556101ca829055801561104b576000805461ff00191690555050505050565b60408051808201909152600080825260208201526001600160a01b038316600090815261013160205260409020805463ffffffff841690811061247d57634e487b7160e01b600052603260045260246000fd5b60009182526020918290206040805180820190915291015463ffffffff8116825264010000000090046001600160e01b0316918101919091529392505050565b610162546001600160a01b031633146124e85760405162461bcd60e51b8152600401610d5690614b0d565b6001600160a01b03811661254d5760405162461bcd60e51b815260206004820152602660248201527f4f776e61626c653a206e6577206f776e657220697320746865207a65726f206160448201526564647265737360d01b6064820152608401610d56565b61140881612e24565b6101c7602052816000526040600020818154811061257357600080fd5b6000918252602090912060029091020180546001909101549092506001600160a01b0316905082565b6001600160a01b0383166125fe5760405162461bcd60e51b8152602060048201526024808201527f45524332303a20617070726f76652066726f6d20746865207a65726f206164646044820152637265737360e01b6064820152608401610d56565b6001600160a01b03821661265f5760405162461bcd60e51b815260206004820152602260248201527f45524332303a20617070726f766520746f20746865207a65726f206164647265604482015261737360f01b6064820152608401610d56565b6001600160a01b0383811660008181526098602090815260408083209487168084529482529182902085905590518481527f8c5be1e5ebec7d5bd14f71427d1e84f3dd0314c0f7b2291e5b200ac8c7c3b925910160405180910390a3505050565b600061132c8284614be4565b600061132c8284614bc5565b600061132c8284614ba5565b600061132c8284614b8d565b6001600160a01b0383166127545760405162461bcd60e51b815260206004820152602560248201527f45524332303a207472616e736665722066726f6d20746865207a65726f206164604482015264647265737360d81b6064820152608401610d56565b6001600160a01b0382166127b65760405162461bcd60e51b815260206004820152602360248201527f45524332303a207472616e7366657220746f20746865207a65726f206164647260448201526265737360e81b6064820152608401610d56565b6127c18383836132a1565b6001600160a01b038316600090815260976020526040902054818110156128395760405162461bcd60e51b815260206004820152602660248201527f45524332303a207472616e7366657220616d6f756e7420657863656564732062604482015265616c616e636560d01b6064820152608401610d56565b6001600160a01b03808516600090815260976020526040808220858503905591851681529081208054849290612870908490614b8d565b92505081905550826001600160a01b0316846001600160a01b03167fddf252ad1be2c89b69c2b068fc378daa952ba7f163c4a11628f55a4df523b3ef846040516128bc91815260200190565b60405180910390a36128cf848484613309565b50505050565b600061133d7f8b73c3c69bb8fe3d512ecc4cf759cc79239f7b179b0ffacaa9a75d522b39400f61290460c95490565b60ca546040805160208101859052908101839052606081018290524660808201523060a082015260009060c0016040516020818303038152906040528051906020012090509392505050565b7f360894a13ba1a3210667c828492db98dca3e2076cc3735a920a3ca505d382bbc546001600160a01b031690565b33612992610162546001600160a01b031690565b6001600160a01b0316146114085760405162461bcd60e51b815260206004820152602560248201527f4f6e6c79206f776e65722063616e207570677261646520696d706c656d656e7460448201526430ba34b7b760d91b6064820152608401610d56565b6000612a00612950565b9050612a0b84613314565b600083511180612a185750815b15612a2957612a2784846133b9565b505b7f4910fdfa16fed3260ed0e7147f7cc6da11a60208b5b9406d12a635614ffd9143805460ff1661104b57805460ff191660011781556040516001600160a01b0383166024820152612aa890869060440160408051601f198184030181529190526020810180516001600160e01b0316631b2ce7f360e11b1790526133b9565b50805460ff19168155612ab9612950565b6001600160a01b0316826001600160a01b031614612b315760405162461bcd60e51b815260206004820152602f60248201527f45524331393637557067726164653a207570677261646520627265616b73206660448201526e75727468657220757067726164657360881b6064820152608401610d56565b61104b856134a4565b8154600090815b81811015612bac576000612b5582846134e4565b905084868281548110612b7857634e487b7160e01b600052603260045260246000fd5b60009182526020909120015463ffffffff161115612b9857809250612ba6565b612ba3816001614b8d565b91505b50612b41565b8115612bfe5784612bbe600184614be4565b81548110612bdc57634e487b7160e01b600052603260045260246000fd5b60009182526020909120015464010000000090046001600160e01b0316612c01565b60005b6001600160e01b031695945050505050565b6040516001600160a01b038316602482015260448101829052612c7690849063a9059cbb60e01b906064015b60408051601f198184030181529190526020810180516001600160e01b03166001600160e01b0319909316929092179091526134ff565b505050565b60008381526101c760205260408120905b815481101561104b57826001600160a01b0316828281548110612cbf57634e487b7160e01b600052603260045260246000fd5b60009182526020909120600160029092020101546001600160a01b03161415612d3d57818181548110612d0257634e487b7160e01b600052603260045260246000fd5b60009182526020822060029091020190815560010180546001600160a01b03191690558315612d3657612d36858585612f4d565b5050612c76565b80612d4781614c73565b915050612c8c565b61174782826135d1565b612d64600083611b87565b15612db15760405162461bcd60e51b815260206004820152601a60248201527f546f70207374616b65722063616e6e6f742064656c65676174650000000000006044820152606401610d56565b61174782826135ea565b600063ffffffff821115612e205760405162461bcd60e51b815260206004820152602660248201527f53616665436173743a2076616c756520646f65736e27742066697420696e203360448201526532206269747360d01b6064820152608401610d56565b5090565b61016280546001600160a01b038381166001600160a01b0319831681179093556040519116919082907f8be0079c531659141344cd1fd0a4f28419497f9722a3daafe3b4186f6b6457e090600090a35050565b6000610b67612e846128d5565b8360405161190160f01b6020820152602281018390526042810182905260009060620160405160208183030381529060405280519060200120905092915050565b6000806000612ed687878787613681565b91509150612ee38161376e565b5095945050505050565b6001600160a01b038116600090815260fd602052604090208054600181018255905b50919050565b6040516001600160a01b03808516602483015283166044820152606481018290526128cf9085906323b872dd60e01b90608401612c3f565b60008381526101c7602052604081205b805482101561301257826001600160a01b0316818381548110612f9057634e487b7160e01b600052603260045260246000fd5b60009182526020909120600160029092020101546001600160a01b031614156130005783818381548110612fd457634e487b7160e01b600052603260045260246000fd5b600091825260208220600290910201919091558154612d36918791612ffb90600190614be4565b613971565b8161300a81614c73565b925050612f5d565b6101ca548154101561307c57604080518082019091528481526001600160a01b038481166020808401918252845460018082018755600087815292909220945160029091029094019384559051920180546001600160a01b03191692909116919091179055613145565b838160008154811061309e57634e487b7160e01b600052603260045260246000fd5b90600052602060002090600202016000015410156131455783816000815481106130d857634e487b7160e01b600052603260045260246000fd5b906000526020600020906002020160000181905550828160008154811061310f57634e487b7160e01b600052603260045260246000fd5b906000526020600020906002020160010160006101000a8154816001600160a01b0302191690836001600160a01b031602179055505b61104b85600060018480549050612ffb9190614be4565b6117478282613d23565b600054610100900460ff1661318d5760405162461bcd60e51b8152600401610d5690614b42565b61319561327a565b611c6b613dae565b600054610100900460ff166131c45760405162461bcd60e51b8152600401610d5690614b42565b81516131d790609a9060208501906145a2565b508051612c7690609b9060208401906145a2565b600054610100900460ff166132125760405162461bcd60e51b8152600401610d5690614b42565b610194805460ff19169055565b600054610100900460ff166132465760405162461bcd60e51b8152600401610d5690614b42565b61324e61327a565b61327181604051806040016040528060018152602001603160f81b815250613dde565b61140881613e1f565b600054610100900460ff16611c6b5760405162461bcd60e51b8152600401610d5690614b42565b6001600160a01b03831615806132be57506001600160a01b038216155b156132c857612c76565b60405162461bcd60e51b81526020600482015260166024820152752737b7103a3930b739b332b930b13632903a37b5b2b760511b6044820152606401610d56565b612c76838383613e6d565b803b6133785760405162461bcd60e51b815260206004820152602d60248201527f455243313936373a206e657720696d706c656d656e746174696f6e206973206e60448201526c1bdd08184818dbdb9d1c9858dd609a1b6064820152608401610d56565b7f360894a13ba1a3210667c828492db98dca3e2076cc3735a920a3ca505d382bbc80546001600160a01b0319166001600160a01b0392909216919091179055565b6060823b6134185760405162461bcd60e51b815260206004820152602660248201527f416464726573733a2064656c65676174652063616c6c20746f206e6f6e2d636f6044820152651b9d1c9858dd60d21b6064820152608401610d56565b600080846001600160a01b0316846040516134339190614a26565b600060405180830381855af49150503d806000811461346e576040519150601f19603f3d011682016040523d82523d6000602084013e613473565b606091505b509150915061349b8282604051806060016040528060278152602001614cde60279139613e88565b95945050505050565b6134ad81613314565b6040516001600160a01b038216907fbc7cd75a20ee27fd9adebab32041f755214dbc6bffa90cc0225b39da2e5c2d3b90600090a250565b60006134f36002848418614ba5565b61132c90848416614b8d565b6000613554826040518060400160405280602081526020017f5361666545524332303a206c6f772d6c6576656c2063616c6c206661696c6564815250856001600160a01b0316613ec19092919063ffffffff16565b805190915015612c76578080602001905181019061357291906148bc565b612c765760405162461bcd60e51b815260206004820152602a60248201527f5361666545524332303a204552433230206f7065726174696f6e20646964206e6044820152691bdd081cdd58d8d9595960b21b6064820152608401610d56565b6135db8282613ed8565b6128cf6101326126c083614039565b60006135f583611892565b90506000613618846001600160a01b031660009081526097602052604090205490565b6001600160a01b038581166000818152610130602052604080822080546001600160a01b031916898616908117909155905194955093928616927f3134e8a2e6d97e929a7e54011ea5485d7d196dd5f0ba4d4ef95803e8e3fc257f9190a46128cf8284836141ea565b6000807f7fffffffffffffffffffffffffffffff5d576e7357a4501ddfe92f46681b20a08311156136b85750600090506003613765565b8460ff16601b141580156136d057508460ff16601c14155b156136e15750600090506004613765565b6040805160008082526020820180845289905260ff881692820192909252606081018690526080810185905260019060a0016020604051602081039080840390855afa158015613735573d6000803e3d6000fd5b5050604051601f1901519150506001600160a01b03811661375e57600060019250925050613765565b9150600090505b94509492505050565b600081600481111561379057634e487b7160e01b600052602160045260246000fd5b141561379b57611408565b60018160048111156137bd57634e487b7160e01b600052602160045260246000fd5b141561380b5760405162461bcd60e51b815260206004820152601860248201527f45434453413a20696e76616c6964207369676e617475726500000000000000006044820152606401610d56565b600281600481111561382d57634e487b7160e01b600052602160045260246000fd5b141561387b5760405162461bcd60e51b815260206004820152601f60248201527f45434453413a20696e76616c6964207369676e6174757265206c656e677468006044820152606401610d56565b600381600481111561389d57634e487b7160e01b600052602160045260246000fd5b14156138f65760405162461bcd60e51b815260206004820152602260248201527f45434453413a20696e76616c6964207369676e6174757265202773272076616c604482015261756560f01b6064820152608401610d56565b600481600481111561391857634e487b7160e01b600052602160045260246000fd5b14156114085760405162461bcd60e51b815260206004820152602260248201527f45434453413a20696e76616c6964207369676e6174757265202776272076616c604482015261756560f01b6064820152608401610d56565b60008381526101c76020526040902081831061398d5750612c76565b60026000828261399d8688614b8d565b6139a79190614ba5565b815481106139c557634e487b7160e01b600052603260045260246000fd5b6000918252602090912060029091020154905084845b80821015613cec575b82858381548110613a0557634e487b7160e01b600052603260045260246000fd5b9060005260206000209060020201600001541015613a2d57613a2682614c73565b91506139e4565b82858281548110613a4e57634e487b7160e01b600052603260045260246000fd5b9060005260206000209060020201600001541115613a7657613a6f81614c27565b9050613a2d565b848181548110613a9657634e487b7160e01b600052603260045260246000fd5b906000526020600020906002020160000154858381548110613ac857634e487b7160e01b600052603260045260246000fd5b9060005260206000209060020201600001541115613cdb57848181548110613b0057634e487b7160e01b600052603260045260246000fd5b906000526020600020906002020160000154858381548110613b3257634e487b7160e01b600052603260045260246000fd5b906000526020600020906002020160000154868481548110613b6457634e487b7160e01b600052603260045260246000fd5b90600052602060002090600202016000016000888581548110613b9757634e487b7160e01b600052603260045260246000fd5b600091825260209091206002909102019290925591909155508454859082908110613bd257634e487b7160e01b600052603260045260246000fd5b906000526020600020906002020160010160009054906101000a90046001600160a01b0316858381548110613c1757634e487b7160e01b600052603260045260246000fd5b906000526020600020906002020160010160009054906101000a90046001600160a01b0316868481548110613c5c57634e487b7160e01b600052603260045260246000fd5b90600052602060002090600202016001016000888581548110613c8f57634e487b7160e01b600052603260045260246000fd5b6000918252602090912060016002909202010180546001600160a01b039485166001600160a01b031990911617905581549383166101009190910a908102920219909216179055613ce7565b613ce482614c73565b91505b6139db565b86811115613d0457613d048888612ffb600185614be4565b613d1988613d13836001614b8d565b88613971565b5050505050505050565b613d2d8282614329565b6099546001600160e01b031015613d9f5760405162461bcd60e51b815260206004820152603060248201527f4552433230566f7465733a20746f74616c20737570706c79207269736b73206f60448201526f766572666c6f77696e6720766f74657360801b6064820152608401610d56565b6128cf6101326126e483614039565b600054610100900460ff16613dd55760405162461bcd60e51b8152600401610d5690614b42565b611c6b33612e24565b600054610100900460ff16613e055760405162461bcd60e51b8152600401610d5690614b42565b81516020928301208151919092012060c99190915560ca55565b600054610100900460ff16613e465760405162461bcd60e51b8152600401610d5690614b42565b507f6e71edae12b1b97f4d1f60370fef10105fa2faae0126114a169c64845d6126c960fe55565b612c76613e7984611892565b613e8284611892565b836141ea565b60608315613e9757508161132c565b825115613ea75782518084602001fd5b8160405162461bcd60e51b8152600401610d569190614a42565b6060613ed0848460008561441c565b949350505050565b6001600160a01b038216613f385760405162461bcd60e51b815260206004820152602160248201527f45524332303a206275726e2066726f6d20746865207a65726f206164647265736044820152607360f81b6064820152608401610d56565b613f44826000836132a1565b6001600160a01b03821660009081526097602052604090205481811015613fb85760405162461bcd60e51b815260206004820152602260248201527f45524332303a206275726e20616d6f756e7420657863656564732062616c616e604482015261636560f01b6064820152608401610d56565b6001600160a01b0383166000908152609760205260408120838303905560998054849290613fe7908490614be4565b90915550506040518281526000906001600160a01b038516907fddf252ad1be2c89b69c2b068fc378daa952ba7f163c4a11628f55a4df523b3ef9060200160405180910390a3612c7683600084613309565b8254600090819080156140925785614052600183614be4565b8154811061407057634e487b7160e01b600052603260045260246000fd5b60009182526020909120015464010000000090046001600160e01b0316614095565b60005b6001600160e01b031692506140ae83858763ffffffff16565b91506000811180156140fa575043866140c8600184614be4565b815481106140e657634e487b7160e01b600052603260045260246000fd5b60009182526020909120015463ffffffff16145b156141685761410882614539565b86614114600184614be4565b8154811061413257634e487b7160e01b600052603260045260246000fd5b9060005260206000200160000160046101000a8154816001600160e01b0302191690836001600160e01b031602179055506141e1565b85604051806040016040528061417d43612dbb565b63ffffffff16815260200161419185614539565b6001600160e01b039081169091528254600181018455600093845260209384902083519101805493909401519091166401000000000263ffffffff91821663ffffffff1990931692909217161790555b50935093915050565b816001600160a01b0316836001600160a01b03161415801561420c5750600081115b15612c76576001600160a01b0383161561429b576001600160a01b0383166000908152610131602052604081208190614248906126c085614039565b91509150846001600160a01b03167fdec2bacdd2f05b59de34da9b523dff8be42e5e38e818c82fdb0bae774387a7248383604051614290929190918252602082015260400190565b60405180910390a250505b6001600160a01b03821615612c76576001600160a01b03821660009081526101316020526040812081906142d2906126e485614039565b91509150836001600160a01b03167fdec2bacdd2f05b59de34da9b523dff8be42e5e38e818c82fdb0bae774387a724838360405161431a929190918252602082015260400190565b60405180910390a25050505050565b6001600160a01b03821661437f5760405162461bcd60e51b815260206004820152601f60248201527f45524332303a206d696e7420746f20746865207a65726f2061646472657373006044820152606401610d56565b61438b600083836132a1565b806099600082825461439d9190614b8d565b90915550506001600160a01b038216600090815260976020526040812080548392906143ca908490614b8d565b90915550506040518181526001600160a01b038316906000907fddf252ad1be2c89b69c2b068fc378daa952ba7f163c4a11628f55a4df523b3ef9060200160405180910390a361174760008383613309565b60608247101561447d5760405162461bcd60e51b815260206004820152602660248201527f416464726573733a20696e73756666696369656e742062616c616e636520666f6044820152651c8818d85b1b60d21b6064820152608401610d56565b843b6144cb5760405162461bcd60e51b815260206004820152601d60248201527f416464726573733a2063616c6c20746f206e6f6e2d636f6e74726163740000006044820152606401610d56565b600080866001600160a01b031685876040516144e79190614a26565b60006040518083038185875af1925050503d8060008114614524576040519150601f19603f3d011682016040523d82523d6000602084013e614529565b606091505b5091509150610cf4828286613e88565b60006001600160e01b03821115612e205760405162461bcd60e51b815260206004820152602760248201527f53616665436173743a2076616c756520646f65736e27742066697420696e20326044820152663234206269747360c81b6064820152608401610d56565b8280546145ae90614c3e565b90600052602060002090601f0160209004810192826145d05760008555614616565b82601f106145e957805160ff1916838001178555614616565b82800160010185558215614616579182015b828111156146165782518255916020019190600101906145fb565b50612e209291505b80821115612e20576000815560010161461e565b803560ff811681146118af57600080fd5b600060208284031215614654578081fd5b813561132c81614cba565b60008060408385031215614671578081fd5b823561467c81614cba565b9150602083013561468c81614cba565b809150509250929050565b6000806000606084860312156146ab578081fd5b83356146b681614cba565b925060208401356146c681614cba565b929592945050506040919091013590565b600080600080600080600060e0888a0312156146f1578283fd5b87356146fc81614cba565b9650602088013561470c81614cba565b9550604088013594506060880135935061472860808901614632565b925060a0880135915060c0880135905092959891949750929550565b60008060408385031215614756578182fd5b823561476181614cba565b9150602083013567ffffffffffffffff8082111561477d578283fd5b818501915085601f830112614790578283fd5b8135818111156147a2576147a2614ca4565b604051601f8201601f19908116603f011681019083821181831017156147ca576147ca614ca4565b816040528281528860208487010111156147e2578586fd5b82602086016020830137856020848301015280955050505050509250929050565b60008060408385031215614815578182fd5b823561482081614cba565b946020939093013593505050565b60008060008060008060c08789031215614846578182fd5b863561485181614cba565b9550602087013594506040870135935061486d60608801614632565b92506080870135915060a087013590509295509295509295565b60008060408385031215614899578182fd5b82356148a481614cba565b9150602083013563ffffffff8116811461468c578182fd5b6000602082840312156148cd578081fd5b815161132c81614ccf565b600080600080608085870312156148ed578384fd5b84356148f881614cba565b9350602085013561490881614cba565b93969395505050506040820135916060013590565b60006020828403121561492e578081fd5b5035919050565b600060208284031215614946578081fd5b5051919050565b6000806040838503121561495f578182fd5b82359150602083013561468c81614cba565b600080600060608486031215614985578081fd5b8335925060208401356146c681614cba565b6000806000606084860312156149ab578081fd5b8335925060208401356149bd81614cba565b915060408401356149cd81614ccf565b809150509250925092565b600080604083850312156149ea578182fd5b50508035926020909101359150565b600080600060608486031215614a0d578081fd5b833592506020840135915060408401356149cd81614ccf565b60008251614a38818460208701614bfb565b9190910192915050565b6000602082528251806020840152614a61816040850160208701614bfb565b601f01601f19169190910160400192915050565b6020808252602c908201527f46756e6374696f6e206d7573742062652063616c6c6564207468726f7567682060408201526b19195b1959d85d1958d85b1b60a21b606082015260800190565b6020808252602c908201527f46756e6374696f6e206d7573742062652063616c6c6564207468726f7567682060408201526b6163746976652070726f787960a01b606082015260800190565b6020808252818101527f4f776e61626c653a2063616c6c6572206973206e6f7420746865206f776e6572604082015260600190565b6020808252602b908201527f496e697469616c697a61626c653a20636f6e7472616374206973206e6f74206960408201526a6e697469616c697a696e6760a81b606082015260800190565b60008219821115614ba057614ba0614c8e565b500190565b600082614bc057634e487b7160e01b81526012600452602481fd5b500490565b6000816000190483118215151615614bdf57614bdf614c8e565b500290565b600082821015614bf657614bf6614c8e565b500390565b60005b83811015614c16578181015183820152602001614bfe565b838111156128cf5750506000910152565b600081614c3657614c36614c8e565b506000190190565b600281046001821680614c5257607f821691505b60208210811415612f0f57634e487b7160e01b600052602260045260246000fd5b6000600019821415614c8757614c87614c8e565b5060010190565b634e487b7160e01b600052601160045260246000fd5b634e487b7160e01b600052604160045260246000fd5b6001600160a01b038116811461140857600080fd5b801515811461140857600080fdfe416464726573733a206c6f772d6c6576656c2064656c65676174652063616c6c206661696c6564a2646970667358221220321d26555e4cf40148aade1a1900aefb0d0b2d5cab79d79b70337a4dfebe756164736f6c63430008020033",
  "linkReferences": {},
  "deployedLinkReferences": {}
}