{
  "_format": "hh-sol-artifact-1",
  "contractName": "Maia",
  "sourceName": "contracts/Maia.sol",
  "abi": [
    {
      "anonymous": false,
      "inputs": [
        {
          "indexed": false,
          "internalType": "address",
          "name": "previousAdmin",
          "type": "address"
        },
        {
          "indexed": false,
          "internalType": "address",
          "name": "newAdmin",
          "type": "address"
        }
      ],
      "name": "AdminChanged",
      "type": "event"
    },
    {
      "anonymous": false,
      "inputs": [
        {
          "indexed": false,
          "internalType": "address",
          "name": "newAdmin",
          "type": "address"
        }
      ],
      "name": "AdminUpdated",
      "type": "event"
    },
    {
      "anonymous": false,
      "inputs": [
        {
          "indexed": true,
          "internalType": "address",
          "name": "owner",
          "type": "address"
        },
        {
          "indexed": true,
          "internalType": "address",
          "name": "spender",
          "type": "address"
        },
        {
          "indexed": false,
          "internalType": "uint256",
          "name": "value",
          "type": "uint256"
        }
      ],
      "name": "Approval",
      "type": "event"
    },
    {
      "anonymous": false,
      "inputs": [
        {
          "indexed": true,
          "internalType": "address",
          "name": "beacon",
          "type": "address"
        }
      ],
      "name": "BeaconUpgraded",
      "type": "event"
    },
    {
      "anonymous": false,
      "inputs": [
        {
          "indexed": true,
          "internalType": "address",
          "name": "delegator",
          "type": "address"
        },
        {
          "indexed": true,
          "internalType": "address",
          "name": "fromDelegate",
          "type": "address"
        },
        {
          "indexed": true,
          "internalType": "address",
          "name": "toDelegate",
          "type": "address"
        }
      ],
      "name": "DelegateChanged",
      "type": "event"
    },
    {
      "anonymous": false,
      "inputs": [
        {
          "indexed": true,
          "internalType": "address",
          "name": "delegate",
          "type": "address"
        },
        {
          "indexed": false,
          "internalType": "uint256",
          "name": "previousBalance",
          "type": "uint256"
        },
        {
          "indexed": false,
          "internalType": "uint256",
          "name": "newBalance",
          "type": "uint256"
        }
      ],
      "name": "DelegateVotesChanged",
      "type": "event"
    },
    {
      "anonymous": false,
      "inputs": [
        {
          "indexed": true,
          "internalType": "address",
          "name": "user",
          "type": "address"
        },
        {
          "indexed": true,
          "internalType": "uint256",
          "name": "pid",
          "type": "uint256"
        },
        {
          "indexed": false,
          "internalType": "uint256",
          "name": "amount",
          "type": "uint256"
        }
      ],
      "name": "Deposit",
      "type": "event"
    },
    {
      "anonymous": false,
      "inputs": [
        {
          "indexed": true,
          "internalType": "address",
          "name": "user",
          "type": "address"
        },
        {
          "indexed": true,
          "internalType": "uint256",
          "name": "pid",
          "type": "uint256"
        },
        {
          "indexed": false,
          "internalType": "uint256",
          "name": "amount",
          "type": "uint256"
        }
      ],
      "name": "EmergencyWithdraw",
      "type": "event"
    },
    {
      "anonymous": false,
      "inputs": [
        {
          "indexed": true,
          "internalType": "address",
          "name": "previousOwner",
          "type": "address"
        },
        {
          "indexed": true,
          "internalType": "address",
          "name": "newOwner",
          "type": "address"
        }
      ],
      "name": "OwnershipTransferred",
      "type": "event"
    },
    {
      "anonymous": false,
      "inputs": [
        {
          "indexed": false,
          "internalType": "address",
          "name": "account",
          "type": "address"
        }
      ],
      "name": "Paused",
      "type": "event"
    },
    {
      "anonymous": false,
      "inputs": [
        {
          "indexed": true,
          "internalType": "address",
          "name": "from",
          "type": "address"
        },
        {
          "indexed": true,
          "internalType": "address",
          "name": "to",
          "type": "address"
        },
        {
          "indexed": false,
          "internalType": "uint256",
          "name": "value",
          "type": "uint256"
        }
      ],
      "name": "Transfer",
      "type": "event"
    },
    {
      "anonymous": false,
      "inputs": [
        {
          "indexed": false,
          "internalType": "address",
          "name": "account",
          "type": "address"
        }
      ],
      "name": "Unpaused",
      "type": "event"
    },
    {
      "anonymous": false,
      "inputs": [
        {
          "indexed": true,
          "internalType": "address",
          "name": "implementation",
          "type": "address"
        }
      ],
      "name": "Upgraded",
      "type": "event"
    },
    {
      "anonymous": false,
      "inputs": [
        {
          "indexed": true,
          "internalType": "address",
          "name": "user",
          "type": "address"
        },
        {
          "indexed": true,
          "internalType": "uint256",
          "name": "pid",
          "type": "uint256"
        },
        {
          "indexed": false,
          "internalType": "uint256",
          "name": "amount",
          "type": "uint256"
        }
      ],
      "name": "Withdraw",
      "type": "event"
    },
    {
      "inputs": [],
      "name": "BONUS_MULTIPLIER",
      "outputs": [
        {
          "internalType": "uint256",
          "name": "",
          "type": "uint256"
        }
      ],
      "stateMutability": "view",
      "type": "function"
    },
    {
      "inputs": [],
      "name": "DOMAIN_SEPARATOR",
      "outputs": [
        {
          "internalType": "bytes32",
          "name": "",
          "type": "bytes32"
        }
      ],
      "stateMutability": "view",
      "type": "function"
    },
    {
      "inputs": [],
      "name": "GOLD",
      "outputs": [
        {
          "internalType": "contract IERC20",
          "name": "",
          "type": "address"
        }
      ],
      "stateMutability": "view",
      "type": "function"
    },
    {
      "inputs": [
        {
          "internalType": "uint256",
          "name": "_pid",
          "type": "uint256"
        },
        {
          "internalType": "address",
          "name": "_to",
          "type": "address"
        },
        {
          "internalType": "uint256",
          "name": "_amount",
          "type": "uint256"
        }
      ],
      "name": "accessGOLDTokens",
      "outputs": [],
      "stateMutability": "nonpayable",
      "type": "function"
    },
    {
      "inputs": [
        {
          "internalType": "uint256",
          "name": "_allocPoint",
          "type": "uint256"
        },
        {
          "internalType": "contract IERC20",
          "name": "_lpToken",
          "type": "address"
        },
        {
          "internalType": "bool",
          "name": "_withUpdate",
          "type": "bool"
        }
      ],
      "name": "add",
      "outputs": [],
      "stateMutability": "nonpayable",
      "type": "function"
    },
    {
      "inputs": [
        {
          "internalType": "address",
          "name": "_adminAddress",
          "type": "address"
        }
      ],
      "name": "admin",
      "outputs": [],
      "stateMutability": "nonpayable",
      "type": "function"
    },
    {
      "inputs": [],
      "name": "adminAddress",
      "outputs": [
        {
          "internalType": "address",
          "name": "",
          "type": "address"
        }
      ],
      "stateMutability": "view",
      "type": "function"
    },
    {
      "inputs": [
        {
          "internalType": "address",
          "name": "owner",
          "type": "address"
        },
        {
          "internalType": "address",
          "name": "spender",
          "type": "address"
        }
      ],
      "name": "allowance",
      "outputs": [
        {
          "internalType": "uint256",
          "name": "",
          "type": "uint256"
        }
      ],
      "stateMutability": "view",
      "type": "function"
    },
    {
      "inputs": [
        {
          "internalType": "address",
          "name": "spender",
          "type": "address"
        },
        {
          "internalType": "uint256",
          "name": "amount",
          "type": "uint256"
        }
      ],
      "name": "approve",
      "outputs": [
        {
          "internalType": "bool",
          "name": "",
          "type": "bool"
        }
      ],
      "stateMutability": "nonpayable",
      "type": "function"
    },
    {
      "inputs": [
        {
          "internalType": "address",
          "name": "account",
          "type": "address"
        }
      ],
      "name": "balanceOf",
      "outputs": [
        {
          "internalType": "uint256",
          "name": "",
          "type": "uint256"
        }
      ],
      "stateMutability": "view",
      "type": "function"
    },
    {
      "inputs": [
        {
          "internalType": "address",
          "name": "account",
          "type": "address"
        },
        {
          "internalType": "uint32",
          "name": "pos",
          "type": "uint32"
        }
      ],
      "name": "checkpoints",
      "outputs": [
        {
          "components": [
            {
              "internalType": "uint32",
              "name": "fromBlock",
              "type": "uint32"
            },
            {
              "internalType": "uint224",
              "name": "votes",
              "type": "uint224"
            }
          ],
          "internalType": "struct ERC20VotesUpgradeable.Checkpoint",
          "name": "",
          "type": "tuple"
        }
      ],
      "stateMutability": "view",
      "type": "function"
    },
    {
      "inputs": [
        {
          "internalType": "uint256",
          "name": "_pid",
          "type": "uint256"
        }
      ],
      "name": "claimGOLD",
      "outputs": [],
      "stateMutability": "nonpayable",
      "type": "function"
    },
    {
      "inputs": [],
      "name": "decimals",
      "outputs": [
        {
          "internalType": "uint8",
          "name": "",
          "type": "uint8"
        }
      ],
      "stateMutability": "view",
      "type": "function"
    },
    {
      "inputs": [
        {
          "internalType": "address",
          "name": "spender",
          "type": "address"
        },
        {
          "internalType": "uint256",
          "name": "subtractedValue",
          "type": "uint256"
        }
      ],
      "name": "decreaseAllowance",
      "outputs": [
        {
          "internalType": "bool",
          "name": "",
          "type": "bool"
        }
      ],
      "stateMutability": "nonpayable",
      "type": "function"
    },
    {
      "inputs": [
        {
          "internalType": "address",
          "name": "delegatee",
          "type": "address"
        }
      ],
      "name": "delegate",
      "outputs": [],
      "stateMutability": "nonpayable",
      "type": "function"
    },
    {
      "inputs": [
        {
          "internalType": "address",
          "name": "delegatee",
          "type": "address"
        },
        {
          "internalType": "uint256",
          "name": "nonce",
          "type": "uint256"
        },
        {
          "internalType": "uint256",
          "name": "expiry",
          "type": "uint256"
        },
        {
          "internalType": "uint8",
          "name": "v",
          "type": "uint8"
        },
        {
          "internalType": "bytes32",
          "name": "r",
          "type": "bytes32"
        },
        {
          "internalType": "bytes32",
          "name": "s",
          "type": "bytes32"
        }
      ],
      "name": "delegateBySig",
      "outputs": [],
      "stateMutability": "nonpayable",
      "type": "function"
    },
    {
      "inputs": [
        {
          "internalType": "address",
          "name": "account",
          "type": "address"
        }
      ],
      "name": "delegates",
      "outputs": [
        {
          "internalType": "address",
          "name": "",
          "type": "address"
        }
      ],
      "stateMutability": "view",
      "type": "function"
    },
    {
      "inputs": [
        {
          "internalType": "uint256",
          "name": "_pid",
          "type": "uint256"
        },
        {
          "internalType": "uint256",
          "name": "_amount",
          "type": "uint256"
        }
      ],
      "name": "deposit",
      "outputs": [],
      "stateMutability": "nonpayable",
      "type": "function"
    },
    {
      "inputs": [
        {
          "internalType": "uint256",
          "name": "_from",
          "type": "uint256"
        },
        {
          "internalType": "uint256",
          "name": "_to",
          "type": "uint256"
        }
      ],
      "name": "getMultiplier",
      "outputs": [
        {
          "internalType": "uint256",
          "name": "",
          "type": "uint256"
        }
      ],
      "stateMutability": "pure",
      "type": "function"
    },
    {
      "inputs": [
        {
          "internalType": "uint256",
          "name": "blockNumber",
          "type": "uint256"
        }
      ],
      "name": "getPastTotalSupply",
      "outputs": [
        {
          "internalType": "uint256",
          "name": "",
          "type": "uint256"
        }
      ],
      "stateMutability": "view",
      "type": "function"
    },
    {
      "inputs": [
        {
          "internalType": "address",
          "name": "account",
          "type": "address"
        },
        {
          "internalType": "uint256",
          "name": "blockNumber",
          "type": "uint256"
        }
      ],
      "name": "getPastVotes",
      "outputs": [
        {
          "internalType": "uint256",
          "name": "",
          "type": "uint256"
        }
      ],
      "stateMutability": "view",
      "type": "function"
    },
    {
      "inputs": [
        {
          "internalType": "uint256",
          "name": "_pid",
          "type": "uint256"
        }
      ],
      "name": "getPool",
      "outputs": [
        {
          "components": [
            {
              "internalType": "contract IERC20",
              "name": "lpToken",
              "type": "address"
            },
            {
              "internalType": "uint256",
              "name": "allocPoint",
              "type": "uint256"
            },
            {
              "internalType": "uint256",
              "name": "lastRewardBlock",
              "type": "uint256"
            },
            {
              "internalType": "uint256",
              "name": "accGOLDPerShare",
              "type": "uint256"
            },
            {
              "internalType": "uint256",
              "name": "lastTotalGOLDReward",
              "type": "uint256"
            },
            {
              "internalType": "uint256",
              "name": "lastGOLDRewardBalance",
              "type": "uint256"
            },
            {
              "internalType": "uint256",
              "name": "totalGOLDReward",
              "type": "uint256"
            }
          ],
          "internalType": "struct Maia.PoolInfo",
          "name": "",
          "type": "tuple"
        }
      ],
      "stateMutability": "view",
      "type": "function"
    },
    {
      "inputs": [
        {
          "internalType": "uint256",
          "name": "_pid",
          "type": "uint256"
        },
        {
          "internalType": "address",
          "name": "_user",
          "type": "address"
        }
      ],
      "name": "getUser",
      "outputs": [
        {
          "components": [
            {
              "internalType": "uint256",
              "name": "amount",
              "type": "uint256"
            },
            {
              "internalType": "uint256",
              "name": "rewardDebt",
              "type": "uint256"
            },
            {
              "internalType": "uint256",
              "name": "rewargoldDebt",
              "type": "uint256"
            },
            {
              "internalType": "uint256",
              "name": "stakeEnd",
              "type": "uint256"
            }
          ],
          "internalType": "struct Maia.UserInfo",
          "name": "",
          "type": "tuple"
        }
      ],
      "stateMutability": "view",
      "type": "function"
    },
    {
      "inputs": [
        {
          "internalType": "uint256",
          "name": "_pid",
          "type": "uint256"
        }
      ],
      "name": "getVPOOL",
      "outputs": [
        {
          "components": [
            {
              "internalType": "uint256",
              "name": "lastGOLDRewardBalance",
              "type": "uint256"
            },
            {
              "internalType": "uint256",
              "name": "totalGOLDReward",
              "type": "uint256"
            },
            {
              "internalType": "uint256",
              "name": "totalValar",
              "type": "uint256"
            }
          ],
          "internalType": "struct Maia.ValarPoolInfo",
          "name": "",
          "type": "tuple"
        }
      ],
      "stateMutability": "view",
      "type": "function"
    },
    {
      "inputs": [
        {
          "internalType": "address",
          "name": "account",
          "type": "address"
        }
      ],
      "name": "getVotes",
      "outputs": [
        {
          "internalType": "uint256",
          "name": "",
          "type": "uint256"
        }
      ],
      "stateMutability": "view",
      "type": "function"
    },
    {
      "inputs": [],
      "name": "gold",
      "outputs": [
        {
          "internalType": "contract IERC20",
          "name": "",
          "type": "address"
        }
      ],
      "stateMutability": "view",
      "type": "function"
    },
    {
      "inputs": [
        {
          "internalType": "address",
          "name": "spender",
          "type": "address"
        },
        {
          "internalType": "uint256",
          "name": "addedValue",
          "type": "uint256"
        }
      ],
      "name": "increaseAllowance",
      "outputs": [
        {
          "internalType": "bool",
          "name": "",
          "type": "bool"
        }
      ],
      "stateMutability": "nonpayable",
      "type": "function"
    },
    {
      "inputs": [
        {
          "internalType": "address",
          "name": "_GOLD",
          "type": "address"
        },
        {
          "internalType": "address",
          "name": "_adminAddress",
          "type": "address"
        },
        {
          "internalType": "uint256",
          "name": "_startBlock",
          "type": "uint256"
        },
        {
          "internalType": "uint256",
          "name": "_topStakerNumber",
          "type": "uint256"
        }
      ],
      "name": "initialize",
      "outputs": [],
      "stateMutability": "nonpayable",
      "type": "function"
    },
    {
      "inputs": [],
      "name": "massUpdatePools",
      "outputs": [],
      "stateMutability": "nonpayable",
      "type": "function"
    },
    {
      "inputs": [],
      "name": "name",
      "outputs": [
        {
          "internalType": "string",
          "name": "",
          "type": "string"
        }
      ],
      "stateMutability": "view",
      "type": "function"
    },
    {
      "inputs": [
        {
          "internalType": "address",
          "name": "owner",
          "type": "address"
        }
      ],
      "name": "nonces",
      "outputs": [
        {
          "internalType": "uint256",
          "name": "",
          "type": "uint256"
        }
      ],
      "stateMutability": "view",
      "type": "function"
    },
    {
      "inputs": [
        {
          "internalType": "address",
          "name": "account",
          "type": "address"
        }
      ],
      "name": "numCheckpoints",
      "outputs": [
        {
          "internalType": "uint32",
          "name": "",
          "type": "uint32"
        }
      ],
      "stateMutability": "view",
      "type": "function"
    },
    {
      "inputs": [],
      "name": "owner",
      "outputs": [
        {
          "internalType": "address",
          "name": "",
          "type": "address"
        }
      ],
      "stateMutability": "view",
      "type": "function"
    },
    {
      "inputs": [],
      "name": "paused",
      "outputs": [
        {
          "internalType": "bool",
          "name": "",
          "type": "bool"
        }
      ],
      "stateMutability": "view",
      "type": "function"
    },
    {
      "inputs": [
        {
          "internalType": "uint256",
          "name": "_pid",
          "type": "uint256"
        },
        {
          "internalType": "address",
          "name": "_user",
          "type": "address"
        }
      ],
      "name": "pendingGOLD",
      "outputs": [
        {
          "internalType": "uint256",
          "name": "",
          "type": "uint256"
        }
      ],
      "stateMutability": "view",
      "type": "function"
    },
    {
      "inputs": [
        {
          "internalType": "address",
          "name": "owner",
          "type": "address"
        },
        {
          "internalType": "address",
          "name": "spender",
          "type": "address"
        },
        {
          "internalType": "uint256",
          "name": "value",
          "type": "uint256"
        },
        {
          "internalType": "uint256",
          "name": "deadline",
          "type": "uint256"
        },
        {
          "internalType": "uint8",
          "name": "v",
          "type": "uint8"
        },
        {
          "internalType": "bytes32",
          "name": "r",
          "type": "bytes32"
        },
        {
          "internalType": "bytes32",
          "name": "s",
          "type": "bytes32"
        }
      ],
      "name": "permit",
      "outputs": [],
      "stateMutability": "nonpayable",
      "type": "function"
    },
    {
      "inputs": [
        {
          "internalType": "uint256",
          "name": "",
          "type": "uint256"
        }
      ],
      "name": "poolInfo",
      "outputs": [
        {
          "internalType": "contract IERC20",
          "name": "lpToken",
          "type": "address"
        },
        {
          "internalType": "uint256",
          "name": "allocPoint",
          "type": "uint256"
        },
        {
          "internalType": "uint256",
          "name": "lastRewardBlock",
          "type": "uint256"
        },
        {
          "internalType": "uint256",
          "name": "accGOLDPerShare",
          "type": "uint256"
        },
        {
          "internalType": "uint256",
          "name": "lastTotalGOLDReward",
          "type": "uint256"
        },
        {
          "internalType": "uint256",
          "name": "lastGOLDRewardBalance",
          "type": "uint256"
        },
        {
          "internalType": "uint256",
          "name": "totalGOLDReward",
          "type": "uint256"
        }
      ],
      "stateMutability": "view",
      "type": "function"
    },
    {
      "inputs": [],
      "name": "poolLength",
      "outputs": [
        {
          "internalType": "uint256",
          "name": "",
          "type": "uint256"
        }
      ],
      "stateMutability": "view",
      "type": "function"
    },
    {
      "inputs": [],
      "name": "renounceOwnership",
      "outputs": [],
      "stateMutability": "nonpayable",
      "type": "function"
    },
    {
      "inputs": [
        {
          "internalType": "uint256",
          "name": "_pid",
          "type": "uint256"
        },
        {
          "internalType": "uint256",
          "name": "_allocPoint",
          "type": "uint256"
        },
        {
          "internalType": "bool",
          "name": "_withUpdate",
          "type": "bool"
        }
      ],
      "name": "set",
      "outputs": [],
      "stateMutability": "nonpayable",
      "type": "function"
    },
    {
      "inputs": [],
      "name": "startBlock",
      "outputs": [
        {
          "internalType": "uint256",
          "name": "",
          "type": "uint256"
        }
      ],
      "stateMutability": "view",
      "type": "function"
    },
    {
      "inputs": [],
      "name": "symbol",
      "outputs": [
        {
          "internalType": "string",
          "name": "",
          "type": "string"
        }
      ],
      "stateMutability": "view",
      "type": "function"
    },
    {
      "inputs": [],
      "name": "topStakerNumber",
      "outputs": [
        {
          "internalType": "uint256",
          "name": "",
          "type": "uint256"
        }
      ],
      "stateMutability": "view",
      "type": "function"
    },
    {
      "inputs": [],
      "name": "totalAllocPoint",
      "outputs": [
        {
          "internalType": "uint256",
          "name": "",
          "type": "uint256"
        }
      ],
      "stateMutability": "view",
      "type": "function"
    },
    {
      "inputs": [],
      "name": "totalGOLDStaked",
      "outputs": [
        {
          "internalType": "uint256",
          "name": "",
          "type": "uint256"
        }
      ],
      "stateMutability": "view",
      "type": "function"
    },
    {
      "inputs": [],
      "name": "totalGOLDUsedForPurchase",
      "outputs": [
        {
          "internalType": "uint256",
          "name": "",
          "type": "uint256"
        }
      ],
      "stateMutability": "view",
      "type": "function"
    },
    {
      "inputs": [],
      "name": "totalSupply",
      "outputs": [
        {
          "internalType": "uint256",
          "name": "",
          "type": "uint256"
        }
      ],
      "stateMutability": "view",
      "type": "function"
    },
    {
      "inputs": [
        {
          "internalType": "address",
          "name": "recipient",
          "type": "address"
        },
        {
          "internalType": "uint256",
          "name": "amount",
          "type": "uint256"
        }
      ],
      "name": "transfer",
      "outputs": [
        {
          "internalType": "bool",
          "name": "",
          "type": "bool"
        }
      ],
      "stateMutability": "nonpayable",
      "type": "function"
    },
    {
      "inputs": [
        {
          "internalType": "address",
          "name": "sender",
          "type": "address"
        },
        {
          "internalType": "address",
          "name": "recipient",
          "type": "address"
        },
        {
          "internalType": "uint256",
          "name": "amount",
          "type": "uint256"
        }
      ],
      "name": "transferFrom",
      "outputs": [
        {
          "internalType": "bool",
          "name": "",
          "type": "bool"
        }
      ],
      "stateMutability": "nonpayable",
      "type": "function"
    },
    {
      "inputs": [
        {
          "internalType": "address",
          "name": "newOwner",
          "type": "address"
        }
      ],
      "name": "transferOwnership",
      "outputs": [],
      "stateMutability": "nonpayable",
      "type": "function"
    },
    {
      "inputs": [
        {
          "internalType": "uint256",
          "name": "_pid",
          "type": "uint256"
        }
      ],
      "name": "updatePool",
      "outputs": [],
      "stateMutability": "nonpayable",
      "type": "function"
    },
    {
      "inputs": [
        {
          "internalType": "uint256",
          "name": "_pid",
          "type": "uint256"
        }
      ],
      "name": "updatePoolHelper",
      "outputs": [
        {
          "internalType": "uint256",
          "name": "",
          "type": "uint256"
        }
      ],
      "stateMutability": "view",
      "type": "function"
    },
    {
      "inputs": [
        {
          "internalType": "address",
          "name": "newImplementation",
          "type": "address"
        }
      ],
      "name": "upgradeTo",
      "outputs": [],
      "stateMutability": "nonpayable",
      "type": "function"
    },
    {
      "inputs": [
        {
          "internalType": "address",
          "name": "newImplementation",
          "type": "address"
        },
        {
          "internalType": "bytes",
          "name": "data",
          "type": "bytes"
        }
      ],
      "name": "upgradeToAndCall",
      "outputs": [],
      "stateMutability": "payable",
      "type": "function"
    },
    {
      "inputs": [
        {
          "internalType": "uint256",
          "name": "",
          "type": "uint256"
        },
        {
          "internalType": "address",
          "name": "",
          "type": "address"
        }
      ],
      "name": "userInfo",
      "outputs": [
        {
          "internalType": "uint256",
          "name": "amount",
          "type": "uint256"
        },
        {
          "internalType": "uint256",
          "name": "rewardDebt",
          "type": "uint256"
        },
        {
          "internalType": "uint256",
          "name": "rewargoldDebt",
          "type": "uint256"
        },
        {
          "internalType": "uint256",
          "name": "stakeEnd",
          "type": "uint256"
        }
      ],
      "stateMutability": "view",
      "type": "function"
    },
    {
      "inputs": [
        {
          "internalType": "uint256",
          "name": "",
          "type": "uint256"
        }
      ],
      "name": "valarPoolInfo",
      "outputs": [
        {
          "internalType": "uint256",
          "name": "lastGOLDRewardBalance",
          "type": "uint256"
        },
        {
          "internalType": "uint256",
          "name": "totalGOLDReward",
          "type": "uint256"
        },
        {
          "internalType": "uint256",
          "name": "totalValar",
          "type": "uint256"
        }
      ],
      "stateMutability": "view",
      "type": "function"
    },
    {
      "inputs": [
        {
          "internalType": "uint256",
          "name": "",
          "type": "uint256"
        },
        {
          "internalType": "address",
          "name": "",
          "type": "address"
        }
      ],
      "name": "valarUserInfo",
      "outputs": [
        {
          "internalType": "uint256",
          "name": "rewardDebt",
          "type": "uint256"
        }
      ],
      "stateMutability": "view",
      "type": "function"
    },
    {
      "inputs": [
        {
          "internalType": "uint256",
          "name": "_pid",
          "type": "uint256"
        },
        {
          "internalType": "uint256",
          "name": "_amount",
          "type": "uint256"
        }
      ],
      "name": "withdraw",
      "outputs": [],
      "stateMutability": "nonpayable",
      "type": "function"
    }
  ],
  "bytecode": "0x60a06040523060601b60805234801561001757600080fd5b5060805160601c614cf961004b600039600081816117110152818161175101528181611c240152611c640152614cf96000f3fe6080604052600436106103815760003560e01c806364482f79116101d15780639ab24eb011610102578063dd62ed3e116100a0578063f2fde38b1161006f578063f2fde38b14610c02578063f8b535ac14610c22578063fbec6f2114610c39578063fc6f946814610c5a57610381565b8063dd62ed3e14610b32578063e2bbb15814610b78578063eb990c5914610b98578063f1127ed814610bb857610381565b8063a9059cbb116100dc578063a9059cbb14610a99578063c3cda52014610ab9578063d2371d5014610ad9578063d505accf14610b1257610381565b80639ab24eb014610a39578063a457c2d714610a59578063a87492c814610a7957610381565b806381fbc5a71161016f5780638dbb1e3a116101495780638dbb1e3a146109765780638e539e8c1461099657806393f1a40b146109b657806395d89b4114610a2457610381565b806381fbc5a7146109075780638aa28550146109425780638da5cb5b1461095757610381565b80636fcfff45116101ab5780636fcfff451461086757806370a082311461089c578063715018a6146108d25780637ecebe00146108e757610381565b806364482f79146107ee57806368b5ab2f1461080e5780636f10947c1461085057610381565b80633644e515116102b65780634f1ef286116102545780635c19a95c116102235780635c19a95c146107805780635c975abb146107a0578063630b5ba1146107b957806363a846f8146107ce57610381565b80634f1ef286146106f357806351eb05a614610706578063587cde1e146107265780635b3c25ce1461076057610381565b80633a46b1a8116102905780633a46b1a8146106635780633e4bee3814610683578063441a3e70146106bc57806348cd4cb1146106dc57610381565b80633644e5151461060e5780633659cfe614610623578063395093511461064357610381565b80631526fe27116103235780631eaaa045116102fd5780631eaaa0451461055f57806323b872dd1461057f578063257664a41461059f578063313ce567146105f257610381565b80631526fe27146104d457806317caf6f11461053357806318160ddd1461054a57610381565b8063081e3eda1161035f578063081e3eda1461044c578063095ea7b3146104625780630bc1a005146104925780630d3c5df0146104b257610381565b8063017e58ca14610386578063068bcd8d146103b057806306fdde031461042a575b600080fd5b34801561039257600080fd5b5061039d6101d05481565b6040519081526020015b60405180910390f35b3480156103bc57600080fd5b506103d06103cb3660046148f3565b610c7b565b6040516103a7919081516001600160a01b031681526020808301519082015260408083015190820152606080830151908201526080808301519082015260a0828101519082015260c0918201519181019190915260e00190565b34801561043657600080fd5b5061043f610d56565b6040516103a79190614a18565b34801561045857600080fd5b506101ca5461039d565b34801561046e57600080fd5b5061048261047d36600461481e565b610de8565b60405190151581526020016103a7565b34801561049e57600080fd5b5061039d6104ad366004614923565b610dff565b3480156104be57600080fd5b506104d26104cd366004614947565b610fa1565b005b3480156104e057600080fd5b506104f46104ef3660046148f3565b6112f3565b604080516001600160a01b0390981688526020880196909652948601939093526060850191909152608084015260a083015260c082015260e0016103a7565b34801561053f57600080fd5b5061039d6101ce5481565b34801561055657600080fd5b5060995461039d565b34801561056b57600080fd5b506104d261057a36600461496d565b61134d565b34801561058b57600080fd5b5061048261059a36600461466d565b6115c8565b3480156105ab57600080fd5b506105bf6105ba366004614923565b611674565b6040516103a791908151815260208083015190820152604080830151908201526060918201519181019190915260800190565b3480156105fe57600080fd5b50604051601281526020016103a7565b34801561061a57600080fd5b5061039d6116f7565b34801561062f57600080fd5b506104d261063e366004614619565b611706565b34801561064f57600080fd5b5061048261065e36600461481e565b6117cf565b34801561066f57600080fd5b5061039d61067e36600461481e565b61180b565b34801561068f57600080fd5b506101c7546106a4906001600160a01b031681565b6040516001600160a01b0390911681526020016103a7565b3480156106c857600080fd5b506104d26106d73660046149ae565b61187f565b3480156106e857600080fd5b5061039d6101cf5481565b6104d261070136600461475f565b611c19565b34801561071257600080fd5b506104d26107213660046148f3565b611cd3565b34801561073257600080fd5b506106a4610741366004614619565b6001600160a01b03908116600090815261013060205260409020541690565b34801561076c57600080fd5b506104d261077b3660046148f3565b611f14565b34801561078c57600080fd5b506104d261079b366004614619565b6120ef565b3480156107ac57600080fd5b506101945460ff16610482565b3480156107c557600080fd5b506104d26120f9565b3480156107da57600080fd5b506104d26107e9366004614619565b612121565b3480156107fa57600080fd5b506104d26108093660046149cf565b61220b565b34801561081a57600080fd5b5061082e6108293660046148f3565b6122db565b60408051825181526020808401519082015291810151908201526060016103a7565b34801561085c57600080fd5b5061039d6101c95481565b34801561087357600080fd5b50610887610882366004614619565b61235f565b60405163ffffffff90911681526020016103a7565b3480156108a857600080fd5b5061039d6108b7366004614619565b6001600160a01b031660009081526097602052604090205490565b3480156108de57600080fd5b506104d2612382565b3480156108f357600080fd5b5061039d610902366004614619565b6123b9565b34801561091357600080fd5b506109276109223660046148f3565b6123d7565b604080519384526020840192909252908201526060016103a7565b34801561094e57600080fd5b5061039d600181565b34801561096357600080fd5b50610162546001600160a01b03166106a4565b34801561098257600080fd5b5061039d6109913660046149ae565b61240b565b3480156109a257600080fd5b5061039d6109b13660046148f3565b612434565b3480156109c257600080fd5b50610a046109d1366004614923565b6101cc60209081526000928352604080842090915290825290208054600182015460028301546003909301549192909184565b6040805194855260208501939093529183015260608201526080016103a7565b348015610a3057600080fd5b5061043f612491565b348015610a4557600080fd5b5061039d610a54366004614619565b6124a0565b348015610a6557600080fd5b50610482610a7436600461481e565b612537565b348015610a8557600080fd5b5061039d610a943660046148f3565b6125d0565b348015610aa557600080fd5b50610482610ab436600461481e565b61268c565b348015610ac557600080fd5b506104d2610ad4366004614849565b612699565b348015610ae557600080fd5b5061039d610af4366004614923565b6101cd60209081526000928352604080842090915290825290205481565b348015610b1e57600080fd5b506104d2610b2d3660046146f2565b6127cf565b348015610b3e57600080fd5b5061039d610b4d366004614635565b6001600160a01b03918216600090815260986020908152604080832093909416825291909152205490565b348015610b8457600080fd5b506104d2610b933660046149ae565b612915565b348015610ba457600080fd5b506104d2610bb33660046146ad565b612c09565b348015610bc457600080fd5b50610bd8610bd33660046148a2565b612de1565b60408051825163ffffffff1681526020928301516001600160e01b031692810192909252016103a7565b348015610c0e57600080fd5b506104d2610c1d366004614619565b612e74565b348015610c2e57600080fd5b5061039d6101d15481565b348015610c4557600080fd5b506101c6546106a4906001600160a01b031681565b348015610c6657600080fd5b506101c8546106a4906001600160a01b031681565b610cc46040518060e0016040528060006001600160a01b031681526020016000815260200160008152602001600081526020016000815260200160008152602001600081525090565b6101ca8281548110610ce657634e487b7160e01b600052603260045260246000fd5b60009182526020918290206040805160e081018252600790930290910180546001600160a01b031683526001810154938301939093526002830154908201526003820154606082015260048201546080820152600582015460a082015260069091015460c082015290505b919050565b6060609a8054610d6590614bfd565b80601f0160208091040260200160405190810160405280929190818152602001828054610d9190614bfd565b8015610dde5780601f10610db357610100808354040283529160200191610dde565b820191906000526020600020905b815481529060010190602001808311610dc157829003601f168201915b5050505050905090565b6000610df5338484612f0d565b5060015b92915050565b6000806101ca8481548110610e2457634e487b7160e01b600052603260045260246000fd5b600091825260208083208784526101cc825260408085206001600160a01b0389168652909252922060036007909202909201908101546101d0546002830154929450909143118015610e7557508015155b15610f6e576000610f2f6064610f29605a610f23610ea26101d1546101d05461303190919063ffffffff16565b8a546040516370a0823160e01b81523060048201526001600160a01b03909116906370a08231906024015b60206040518083038186803b158015610ee557600080fd5b505afa158015610ef9573d6000803e3d6000fd5b505050506040513d601f19601f82011682018060405250810190610f1d919061490b565b90613031565b9061303d565b90613049565b90506000610f4a86600501548361303190919063ffffffff16565b9050610f69610f6284610f298464e8d4a5100061303d565b8590613055565b935050505b610f968360020154610f1d64e8d4a51000610f2986886000015461303d90919063ffffffff16565b979650505050505050565b6101c8546001600160a01b031633146110015760405162461bcd60e51b815260206004820152601c60248201527f73656e646572206d7573742062652061646d696e20616464726573730000000060448201526064015b60405180910390fd5b8061101b6101d1546101d05461303190919063ffffffff16565b101561107d5760405162461bcd60e51b815260206004820152602b60248201527f416d6f756e74206d757374206265206c657373207468616e207374616b65642060448201526a11d3d31108185b5bdd5b9d60aa1b6064820152608401610ff8565b60006101ca84815481106110a157634e487b7160e01b600052603260045260246000fd5b6000918252602082206007919091020180546040516370a0823160e01b81523060048201529193506001600160a01b0316906370a082319060240160206040518083038186803b1580156110f457600080fd5b505afa158015611108573d6000803e3d6000fd5b505050506040513d601f19601f8201168201806040525081019061112c919061490b565b90508083111561121357815460405163a9059cbb60e01b81526001600160a01b038681166004830152602482018490529091169063a9059cbb90604401602060405180830381600087803b15801561118357600080fd5b505af1158015611197573d6000803e3d6000fd5b505050506040513d601f19601f820116820180604052508101906111bb91906148d7565b506101d1546111ca9082613055565b6101d15560405181815285906001600160a01b038616907fbb757047c2b5f3974fe26b7c10f732e7bce710b0952a71082702781e62ae05959060200160405180910390a36112ec565b815460405163a9059cbb60e01b81526001600160a01b038681166004830152602482018690529091169063a9059cbb90604401602060405180830381600087803b15801561126057600080fd5b505af1158015611274573d6000803e3d6000fd5b505050506040513d601f19601f8201168201806040525081019061129891906148d7565b506101d1546112a79084613055565b6101d15560405183815285906001600160a01b038616907fbb757047c2b5f3974fe26b7c10f732e7bce710b0952a71082702781e62ae05959060200160405180910390a35b5050505050565b6101ca818154811061130457600080fd5b600091825260209091206007909102018054600182015460028301546003840154600485015460058601546006909601546001600160a01b039095169650929491939092919087565b610162546001600160a01b031633146113785760405162461bcd60e51b8152600401610ff890614ae3565b8015611386576113866120f9565b60006101cf54431161139b576101cf5461139d565b435b6101ce549091506113ae9085613055565b6101ce556040805160e0810182526001600160a01b0394851681526020808201968752818301938452600060608084018281526080850183815260a0860184815260c087018581526101ca80546001808201835591885298517f0faeda9012b7f59bd2a84ac2a33ead5fc9f720c38d8bbf90db1ac3c1518386eb6007909a02998a0180546001600160a01b03191691909e1617909c559b517f0faeda9012b7f59bd2a84ac2a33ead5fc9f720c38d8bbf90db1ac3c1518386ec88015597517f0faeda9012b7f59bd2a84ac2a33ead5fc9f720c38d8bbf90db1ac3c1518386ed87015590517f0faeda9012b7f59bd2a84ac2a33ead5fc9f720c38d8bbf90db1ac3c1518386ee860155517f0faeda9012b7f59bd2a84ac2a33ead5fc9f720c38d8bbf90db1ac3c1518386ef85015594517f0faeda9012b7f59bd2a84ac2a33ead5fc9f720c38d8bbf90db1ac3c1518386f084015596517f0faeda9012b7f59bd2a84ac2a33ead5fc9f720c38d8bbf90db1ac3c1518386f1909201919091558151928301825285835282018581529082018581526101cb8054958601815590955290517fe8bbfecd380c4167d6a1f763a233ec73e73f534b1970c4e1683f437ec23c1f44600390940293840155517fe8bbfecd380c4167d6a1f763a233ec73e73f534b1970c4e1683f437ec23c1f458301555090517fe8bbfecd380c4167d6a1f763a233ec73e73f534b1970c4e1683f437ec23c1f4690910155565b60006115d5848484613061565b6001600160a01b03841660009081526098602090815260408083203384529091529020548281101561165a5760405162461bcd60e51b815260206004820152602860248201527f45524332303a207472616e7366657220616d6f756e74206578636565647320616044820152676c6c6f77616e636560c01b6064820152608401610ff8565b6116678533858403612f0d565b60019150505b9392505050565b61169f6040518060800160405280600081526020016000815260200160008152602001600081525090565b5060009182526101cc602090815260408084206001600160a01b039390931684529181529181902081516080810183528154815260018201549381019390935260028101549183019190915260030154606082015290565b6000611701613246565b905090565b306001600160a01b037f000000000000000000000000000000000000000000000000000000000000000016141561174f5760405162461bcd60e51b8152600401610ff890614a4b565b7f00000000000000000000000000000000000000000000000000000000000000006001600160a01b03166117816132c1565b6001600160a01b0316146117a75760405162461bcd60e51b8152600401610ff890614a97565b6117b0816132ef565b604080516000808252602082019092526117cc91839190613367565b50565b3360008181526098602090815260408083206001600160a01b03871684529091528120549091610df5918590611806908690614b63565b612f0d565b600043821061185c5760405162461bcd60e51b815260206004820152601f60248201527f4552433230566f7465733a20626c6f636b206e6f7420796574206d696e6564006044820152606401610ff8565b6001600160a01b03831660009081526101316020526040902061166d90836134ab565b60006101ca83815481106118a357634e487b7160e01b600052603260045260246000fd5b9060005260206000209060070201905060006101cb84815481106118d757634e487b7160e01b600052603260045260246000fd5b600091825260208083208784526101cc82526040808520338087529084528186208a87526101cd8552828720918752935284206003909302019350916119236064610f2988600461303d565b61192d9087614bba565b905080836000015410156119785760405162461bcd60e51b81526020600482015260126024820152711dda5d1a191c985dce881b9bdd0819dbdbd960721b6044820152606401610ff8565b82600301544210156119c15760405162461bcd60e51b81526020600482015260126024820152713bb4ba34323930bb9d103a37b79039b7b7b760711b6044820152606401610ff8565b6119ca87611cd3565b60006119f88460020154610f1d64e8d4a51000610f298a60030154896000015461303d90919063ffffffff16565b90508015611a8557855460405163a9059cbb60e01b8152336004820152602481018390526001600160a01b039091169063a9059cbb90604401602060405180830381600087803b158015611a4b57600080fd5b505af1158015611a5f573d6000803e3d6000fd5b505050506040513d601f19601f82011682018060405250810190611a8391906148d7565b505b611ada6064610f29605a610f23611aab6101d1546101d05461303190919063ffffffff16565b8b546040516370a0823160e01b81523060048201526001600160a01b03909116906370a0823190602401610ecd565b8660050181905550611b086064610f29600a610f23611aab6101d1546101d05461303190919063ffffffff16565b85558354611b169083613031565b84556101d054611b269083613031565b6101d05560038601548454611b459164e8d4a5100091610f299161303d565b6002850155855460405163a9059cbb60e01b8152336004820152602481018490526001600160a01b039091169063a9059cbb90604401602060405180830381600087803b158015611b9557600080fd5b505af1158015611ba9573d6000803e3d6000fd5b505050506040513d601f19601f82011682018060405250810190611bcd91906148d7565b50611bd83383613584565b604051828152889033907ff279e6a1f5e320cca91135676d9cb6e44ca8a08c0b88342bcdb1144f6511b5689060200160405180910390a35050505050505050565b306001600160a01b037f0000000000000000000000000000000000000000000000000000000000000000161415611c625760405162461bcd60e51b8152600401610ff890614a4b565b7f00000000000000000000000000000000000000000000000000000000000000006001600160a01b0316611c946132c1565b6001600160a01b031614611cba5760405162461bcd60e51b8152600401610ff890614a97565b611cc3826132ef565b611ccf82826001613367565b5050565b60006101ca8281548110611cf757634e487b7160e01b600052603260045260246000fd5b9060005260206000209060070201905060006101cb8381548110611d2b57634e487b7160e01b600052603260045260246000fd5b600091825260208083208684526101cc82526040808520338087529084528186208987526101cd8552828720918752935290932060028601546003909302909301935091904311611d7f57505050506117cc565b6000611da76064610f29605a610f23610ea26101d1546101d05461303190919063ffffffff16565b90506000611dd0611dc587600501548461303190919063ffffffff16565b600688015490613055565b90508186600501819055508086600601819055506000611e3b6064610f29600a610f23611e0c6101d1546101d05461303190919063ffffffff16565b8c546040516370a0823160e01b81523060048201526001600160a01b03909116906370a0823190602401610ecd565b90506000611e64611e5988600001548461303190919063ffffffff16565b600189015490613055565b828855600188018190556101d05490915080611ebf57505043600280890191909155600060038901819055600489018190559501859055505050600584018290556006909301819055600182018190559081905590556117cc565b6000611ed88a600401548661303190919063ffffffff16565b9050611efb611ef083610f298464e8d4a5100061303d565b60038c015490613055565b60038b0155505050506004909501949094555050505050565b60006101ca8281548110611f3857634e487b7160e01b600052603260045260246000fd5b9060005260206000209060070201905060006101cb8381548110611f6c57634e487b7160e01b600052603260045260246000fd5b600091825260208083208684526101cc82526040808520338087529084528186208987526101cd8552828720918752935290932060039092029092019250611fb385611cd3565b6000611fe18360020154610f1d64e8d4a51000610f298960030154886000015461303d90919063ffffffff16565b9050801561206e57845460405163a9059cbb60e01b8152336004820152602481018390526001600160a01b039091169063a9059cbb90604401602060405180830381600087803b15801561203457600080fd5b505af1158015612048573d6000803e3d6000fd5b505050506040513d601f19601f8201168201806040525081019061206c91906148d7565b505b6120946064610f29605a610f23610ea26101d1546101d05461303190919063ffffffff16565b85600501819055506120c26064610f29600a610f23610ea26101d1546101d05461303190919063ffffffff16565b8455600385015483546120df9164e8d4a5100091610f299161303d565b8360020181905550505050505050565b6117cc338261358e565b6101ca5460005b81811015611ccf5761211181611cd3565b61211a81614c32565b9050612100565b6001600160a01b03811661216d5760405162461bcd60e51b815260206004820152601360248201527261646d696e3a205a65726f206164647265737360681b6044820152606401610ff8565b6101c8546001600160a01b031633146121b65760405162461bcd60e51b815260206004820152600b60248201526a61646d696e3a207775743f60a81b6044820152606401610ff8565b6101c880546001600160a01b0319166001600160a01b0383169081179091556040519081527f54e4612788f90384e6843298d7854436f3a585b2c3831ab66abf1de63bfa6c2d9060200160405180910390a150565b610162546001600160a01b031633146122365760405162461bcd60e51b8152600401610ff890614ae3565b8015612244576122446120f9565b612297826122916101ca868154811061226d57634e487b7160e01b600052603260045260246000fd5b9060005260206000209060070201600101546101ce5461303190919063ffffffff16565b90613055565b6101ce81905550816101ca84815481106122c157634e487b7160e01b600052603260045260246000fd5b906000526020600020906007020160010181905550505050565b6122ff60405180606001604052806000815260200160008152602001600081525090565b6101cb828154811061232157634e487b7160e01b600052603260045260246000fd5b906000526020600020906003020160405180606001604052908160008201548152602001600182015481526020016002820154815250509050919050565b6001600160a01b03811660009081526101316020526040812054610df990613598565b610162546001600160a01b031633146123ad5760405162461bcd60e51b8152600401610ff890614ae3565b6123b76000613601565b565b6001600160a01b038116600090815260fd6020526040812054610df9565b6101cb81815481106123e857600080fd5b600091825260209091206003909102018054600182015460029092015490925083565b600082821061242a576124236001610f238486613031565b9050610df9565b6124238383613031565b60004382106124855760405162461bcd60e51b815260206004820152601f60248201527f4552433230566f7465733a20626c6f636b206e6f7420796574206d696e6564006044820152606401610ff8565b610df9610132836134ab565b6060609b8054610d6590614bfd565b6001600160a01b038116600090815261013160205260408120548015612524576001600160a01b0383166000908152610131602052604090206124e4600183614bba565b8154811061250257634e487b7160e01b600052603260045260246000fd5b60009182526020909120015464010000000090046001600160e01b0316612527565b60005b6001600160e01b03169392505050565b3360009081526098602090815260408083206001600160a01b0386168452909152812054828110156125b95760405162461bcd60e51b815260206004820152602560248201527f45524332303a2064656372656173656420616c6c6f77616e63652062656c6f77604482015264207a65726f60d81b6064820152608401610ff8565b6125c63385858403612f0d565b5060019392505050565b6000806101ca83815481106125f557634e487b7160e01b600052603260045260246000fd5b600091825260208083208684526101cc8252604080852033865290925292206002600790920290920190810154909250431161263657600092505050610d51565b60006126836126546101d1546101d05461303190919063ffffffff16565b84546040516370a0823160e01b81523060048201526001600160a01b03909116906370a0823190602401610ecd565b95945050505050565b6000610df5338484613061565b834211156126e95760405162461bcd60e51b815260206004820152601d60248201527f4552433230566f7465733a207369676e617475726520657870697265640000006044820152606401610ff8565b604080517fe48329057bfd03d55e49b547132e39cffd9c1820ad7b9d4c5307691425d15adf60208201526001600160a01b0388169181019190915260608101869052608081018590526000906127639061275b9060a00160405160208183030381529060405280519060200120613654565b8585856136a2565b905061276e816136ca565b86146127bc5760405162461bcd60e51b815260206004820152601960248201527f4552433230566f7465733a20696e76616c6964206e6f6e6365000000000000006044820152606401610ff8565b6127c6818861358e565b50505050505050565b8342111561281f5760405162461bcd60e51b815260206004820152601d60248201527f45524332305065726d69743a206578706972656420646561646c696e650000006044820152606401610ff8565b600060fe548888886128308c6136ca565b6040805160208101969096526001600160a01b0394851690860152929091166060840152608083015260a082015260c0810186905260e001604051602081830303815290604052805190602001209050600061288b82613654565b9050600061289b828787876136a2565b9050896001600160a01b0316816001600160a01b0316146128fe5760405162461bcd60e51b815260206004820152601e60248201527f45524332305065726d69743a20696e76616c6964207369676e617475726500006044820152606401610ff8565b6129098a8a8a612f0d565b50505050505050505050565b60006101ca838154811061293957634e487b7160e01b600052603260045260246000fd5b9060005260206000209060070201905060006101cb848154811061296d57634e487b7160e01b600052603260045260246000fd5b600091825260208083208784526101cc82526040808520338087529084528186208a87526101cd85528287209187529352909320600390920290920192506129b486611cd3565b815415612ac65760006129e98360020154610f1d64e8d4a51000610f298960030154886000015461303d90919063ffffffff16565b855460405163a9059cbb60e01b8152336004820152602481018390529192506001600160a01b03169063a9059cbb90604401602060405180830381600087803b158015612a3557600080fd5b505af1158015612a49573d6000803e3d6000fd5b505050506040513d601f19601f82011682018060405250810190612a6d91906148d7565b50612a946064610f29605a610f23610ea26101d1546101d05461303190919063ffffffff16565b8560050181905550612ac26064610f29600a610f23610ea26101d1546101d05461303190919063ffffffff16565b8455505b6000612ae2612adb6064610f2989600461303d565b8790613031565b85546040516323b872dd60e01b8152336004820152306024820152604481018990529192506001600160a01b0316906323b872dd90606401602060405180830381600087803b158015612b3457600080fd5b505af1158015612b48573d6000803e3d6000fd5b505050506040513d601f19601f82011682018060405250810190612b6c91906148d7565b506101d054612b7b9082613055565b6101d0558254612b8b9082613055565b8084556003860154612ba89164e8d4a5100091610f29919061303d565b6002840155612bba4262093a80614b63565b6003840155612bc933826136f2565b604051818152879033907f90890809c654f11d6e72a28fa60149770a0d11ec6c92319d6ceb2bb0a4ea1a159060200160405180910390a350505050505050565b600054610100900460ff16612c245760005460ff1615612c28565b303b155b612c8b5760405162461bcd60e51b815260206004820152602e60248201527f496e697469616c697a61626c653a20636f6e747261637420697320616c72656160448201526d191e481a5b9a5d1a585b1a5e995960921b6064820152608401610ff8565b600054610100900460ff16158015612cb6576000805460ff1961ff0019909116610100171660011790555b6001600160a01b038416612d0c5760405162461bcd60e51b815260206004820152601860248201527f696e697469616c697a653a205a65726f206164647265737300000000000000006044820152606401610ff8565b612d146136fc565b612d566040518060400160405280600481526020016319dbdb1960e21b8152506040518060400160405280600481526020016319dbdb1960e21b815250613733565b612d5e613786565b612d836040518060400160405280600481526020016319dbdb1960e21b8152506137ba565b612d8b613815565b6101c780546001600160a01b038088166001600160a01b0319928316179092556101c88054928716929091169190911790556101cf8390556101c982905580156112ec576000805461ff00191690555050505050565b60408051808201909152600080825260208201526001600160a01b038316600090815261013160205260409020805463ffffffff8416908110612e3457634e487b7160e01b600052603260045260246000fd5b60009182526020918290206040805180820190915291015463ffffffff8116825264010000000090046001600160e01b0316918101919091529392505050565b610162546001600160a01b03163314612e9f5760405162461bcd60e51b8152600401610ff890614ae3565b6001600160a01b038116612f045760405162461bcd60e51b815260206004820152602660248201527f4f776e61626c653a206e6577206f776e657220697320746865207a65726f206160448201526564647265737360d01b6064820152608401610ff8565b6117cc81613601565b6001600160a01b038316612f6f5760405162461bcd60e51b8152602060048201526024808201527f45524332303a20617070726f76652066726f6d20746865207a65726f206164646044820152637265737360e01b6064820152608401610ff8565b6001600160a01b038216612fd05760405162461bcd60e51b815260206004820152602260248201527f45524332303a20617070726f766520746f20746865207a65726f206164647265604482015261737360f01b6064820152608401610ff8565b6001600160a01b0383811660008181526098602090815260408083209487168084529482529182902085905590518481527f8c5be1e5ebec7d5bd14f71427d1e84f3dd0314c0f7b2291e5b200ac8c7c3b925910160405180910390a3505050565b600061166d8284614bba565b600061166d8284614b9b565b600061166d8284614b7b565b600061166d8284614b63565b6001600160a01b0383166130c55760405162461bcd60e51b815260206004820152602560248201527f45524332303a207472616e736665722066726f6d20746865207a65726f206164604482015264647265737360d81b6064820152608401610ff8565b6001600160a01b0382166131275760405162461bcd60e51b815260206004820152602360248201527f45524332303a207472616e7366657220746f20746865207a65726f206164647260448201526265737360e81b6064820152608401610ff8565b61313283838361383c565b6001600160a01b038316600090815260976020526040902054818110156131aa5760405162461bcd60e51b815260206004820152602660248201527f45524332303a207472616e7366657220616d6f756e7420657863656564732062604482015265616c616e636560d01b6064820152608401610ff8565b6001600160a01b038085166000908152609760205260408082208585039055918516815290812080548492906131e1908490614b63565b92505081905550826001600160a01b0316846001600160a01b03167fddf252ad1be2c89b69c2b068fc378daa952ba7f163c4a11628f55a4df523b3ef8460405161322d91815260200190565b60405180910390a36132408484846138a4565b50505050565b60006117017f8b73c3c69bb8fe3d512ecc4cf759cc79239f7b179b0ffacaa9a75d522b39400f61327560c95490565b60ca546040805160208101859052908101839052606081018290524660808201523060a082015260009060c0016040516020818303038152906040528051906020012090509392505050565b7f360894a13ba1a3210667c828492db98dca3e2076cc3735a920a3ca505d382bbc546001600160a01b031690565b33613303610162546001600160a01b031690565b6001600160a01b0316146117cc5760405162461bcd60e51b815260206004820152602560248201527f4f6e6c79206f776e65722063616e207570677261646520696d706c656d656e7460448201526430ba34b7b760d91b6064820152608401610ff8565b60006133716132c1565b905061337c846138af565b6000835111806133895750815b1561339a576133988484613954565b505b7f4910fdfa16fed3260ed0e7147f7cc6da11a60208b5b9406d12a635614ffd9143805460ff166112ec57805460ff191660011781556040516001600160a01b038316602482015261341990869060440160408051601f198184030181529190526020810180516001600160e01b0316631b2ce7f360e11b179052613954565b50805460ff1916815561342a6132c1565b6001600160a01b0316826001600160a01b0316146134a25760405162461bcd60e51b815260206004820152602f60248201527f45524331393637557067726164653a207570677261646520627265616b73206660448201526e75727468657220757067726164657360881b6064820152608401610ff8565b6112ec85613a36565b8154600090815b8181101561351d5760006134c68284613a76565b9050848682815481106134e957634e487b7160e01b600052603260045260246000fd5b60009182526020909120015463ffffffff16111561350957809250613517565b613514816001614b63565b91505b506134b2565b811561356f578461352f600184614bba565b8154811061354d57634e487b7160e01b600052603260045260246000fd5b60009182526020909120015464010000000090046001600160e01b0316613572565b60005b6001600160e01b031695945050505050565b611ccf8282613a91565b611ccf8282613aaa565b600063ffffffff8211156135fd5760405162461bcd60e51b815260206004820152602660248201527f53616665436173743a2076616c756520646f65736e27742066697420696e203360448201526532206269747360d01b6064820152608401610ff8565b5090565b61016280546001600160a01b038381166001600160a01b0319831681179093556040519116919082907f8be0079c531659141344cd1fd0a4f28419497f9722a3daafe3b4186f6b6457e090600090a35050565b6000610df9613661613246565b8360405161190160f01b6020820152602281018390526042810182905260009060620160405160208183030381529060405280519060200120905092915050565b60008060006136b387878787613b25565b915091506136c081613c12565b5095945050505050565b6001600160a01b038116600090815260fd602052604090208054600181018255905b50919050565b611ccf8282613e15565b600054610100900460ff166137235760405162461bcd60e51b8152600401610ff890614b18565b61372b613815565b6123b7613ea0565b600054610100900460ff1661375a5760405162461bcd60e51b8152600401610ff890614b18565b815161376d90609a906020850190614578565b50805161378190609b906020840190614578565b505050565b600054610100900460ff166137ad5760405162461bcd60e51b8152600401610ff890614b18565b610194805460ff19169055565b600054610100900460ff166137e15760405162461bcd60e51b8152600401610ff890614b18565b6137e9613815565b61380c81604051806040016040528060018152602001603160f81b815250613ed0565b6117cc81613f11565b600054610100900460ff166123b75760405162461bcd60e51b8152600401610ff890614b18565b6001600160a01b038316158061385957506001600160a01b038216155b1561386357613781565b60405162461bcd60e51b81526020600482015260166024820152752737b7103a3930b739b332b930b13632903a37b5b2b760511b6044820152606401610ff8565b613781838383613f5f565b803b6139135760405162461bcd60e51b815260206004820152602d60248201527f455243313936373a206e657720696d706c656d656e746174696f6e206973206e60448201526c1bdd08184818dbdb9d1c9858dd609a1b6064820152608401610ff8565b7f360894a13ba1a3210667c828492db98dca3e2076cc3735a920a3ca505d382bbc80546001600160a01b0319166001600160a01b0392909216919091179055565b6060823b6139b35760405162461bcd60e51b815260206004820152602660248201527f416464726573733a2064656c65676174652063616c6c20746f206e6f6e2d636f6044820152651b9d1c9858dd60d21b6064820152608401610ff8565b600080846001600160a01b0316846040516139ce91906149fc565b600060405180830381855af49150503d8060008114613a09576040519150601f19603f3d011682016040523d82523d6000602084013e613a0e565b606091505b50915091506126838282604051806060016040528060278152602001614c9d60279139613f92565b613a3f816138af565b6040516001600160a01b038216907fbc7cd75a20ee27fd9adebab32041f755214dbc6bffa90cc0225b39da2e5c2d3b90600090a250565b6000613a856002848418614b7b565b61166d90848416614b63565b613a9b8282613fcb565b6132406101326130318361412c565b6001600160a01b0382811660008181526101306020818152604080842080546097845282862054949093528787166001600160a01b03198416811790915590519190951694919391928592917f3134e8a2e6d97e929a7e54011ea5485d7d196dd5f0ba4d4ef95803e8e3fc257f9190a46132408284836142dd565b6000807f7fffffffffffffffffffffffffffffff5d576e7357a4501ddfe92f46681b20a0831115613b5c5750600090506003613c09565b8460ff16601b14158015613b7457508460ff16601c14155b15613b855750600090506004613c09565b6040805160008082526020820180845289905260ff881692820192909252606081018690526080810185905260019060a0016020604051602081039080840390855afa158015613bd9573d6000803e3d6000fd5b5050604051601f1901519150506001600160a01b038116613c0257600060019250925050613c09565b9150600090505b94509492505050565b6000816004811115613c3457634e487b7160e01b600052602160045260246000fd5b1415613c3f576117cc565b6001816004811115613c6157634e487b7160e01b600052602160045260246000fd5b1415613caf5760405162461bcd60e51b815260206004820152601860248201527f45434453413a20696e76616c6964207369676e617475726500000000000000006044820152606401610ff8565b6002816004811115613cd157634e487b7160e01b600052602160045260246000fd5b1415613d1f5760405162461bcd60e51b815260206004820152601f60248201527f45434453413a20696e76616c6964207369676e6174757265206c656e677468006044820152606401610ff8565b6003816004811115613d4157634e487b7160e01b600052602160045260246000fd5b1415613d9a5760405162461bcd60e51b815260206004820152602260248201527f45434453413a20696e76616c6964207369676e6174757265202773272076616c604482015261756560f01b6064820152608401610ff8565b6004816004811115613dbc57634e487b7160e01b600052602160045260246000fd5b14156117cc5760405162461bcd60e51b815260206004820152602260248201527f45434453413a20696e76616c6964207369676e6174757265202776272076616c604482015261756560f01b6064820152608401610ff8565b613e1f828261441c565b6099546001600160e01b031015613e915760405162461bcd60e51b815260206004820152603060248201527f4552433230566f7465733a20746f74616c20737570706c79207269736b73206f60448201526f766572666c6f77696e6720766f74657360801b6064820152608401610ff8565b6132406101326130558361412c565b600054610100900460ff16613ec75760405162461bcd60e51b8152600401610ff890614b18565b6123b733613601565b600054610100900460ff16613ef75760405162461bcd60e51b8152600401610ff890614b18565b81516020928301208151919092012060c99190915560ca55565b600054610100900460ff16613f385760405162461bcd60e51b8152600401610ff890614b18565b507f6e71edae12b1b97f4d1f60370fef10105fa2faae0126114a169c64845d6126c960fe55565b6001600160a01b0383811660009081526101306020526040808220548584168352912054613781929182169116836142dd565b60608315613fa157508161166d565b825115613fb15782518084602001fd5b8160405162461bcd60e51b8152600401610ff89190614a18565b6001600160a01b03821661402b5760405162461bcd60e51b815260206004820152602160248201527f45524332303a206275726e2066726f6d20746865207a65726f206164647265736044820152607360f81b6064820152608401610ff8565b6140378260008361383c565b6001600160a01b038216600090815260976020526040902054818110156140ab5760405162461bcd60e51b815260206004820152602260248201527f45524332303a206275726e20616d6f756e7420657863656564732062616c616e604482015261636560f01b6064820152608401610ff8565b6001600160a01b03831660009081526097602052604081208383039055609980548492906140da908490614bba565b90915550506040518281526000906001600160a01b038516907fddf252ad1be2c89b69c2b068fc378daa952ba7f163c4a11628f55a4df523b3ef9060200160405180910390a3613781836000846138a4565b8254600090819080156141855785614145600183614bba565b8154811061416357634e487b7160e01b600052603260045260246000fd5b60009182526020909120015464010000000090046001600160e01b0316614188565b60005b6001600160e01b031692506141a183858763ffffffff16565b91506000811180156141ed575043866141bb600184614bba565b815481106141d957634e487b7160e01b600052603260045260246000fd5b60009182526020909120015463ffffffff16145b1561425b576141fb8261450f565b86614207600184614bba565b8154811061422557634e487b7160e01b600052603260045260246000fd5b9060005260206000200160000160046101000a8154816001600160e01b0302191690836001600160e01b031602179055506142d4565b85604051806040016040528061427043613598565b63ffffffff1681526020016142848561450f565b6001600160e01b039081169091528254600181018455600093845260209384902083519101805493909401519091166401000000000263ffffffff91821663ffffffff1990931692909217161790555b50935093915050565b816001600160a01b0316836001600160a01b0316141580156142ff5750600081115b15613781576001600160a01b0383161561438e576001600160a01b038316600090815261013160205260408120819061433b906130318561412c565b91509150846001600160a01b03167fdec2bacdd2f05b59de34da9b523dff8be42e5e38e818c82fdb0bae774387a7248383604051614383929190918252602082015260400190565b60405180910390a250505b6001600160a01b03821615613781576001600160a01b03821660009081526101316020526040812081906143c5906130558561412c565b91509150836001600160a01b03167fdec2bacdd2f05b59de34da9b523dff8be42e5e38e818c82fdb0bae774387a724838360405161440d929190918252602082015260400190565b60405180910390a25050505050565b6001600160a01b0382166144725760405162461bcd60e51b815260206004820152601f60248201527f45524332303a206d696e7420746f20746865207a65726f2061646472657373006044820152606401610ff8565b61447e6000838361383c565b80609960008282546144909190614b63565b90915550506001600160a01b038216600090815260976020526040812080548392906144bd908490614b63565b90915550506040518181526001600160a01b038316906000907fddf252ad1be2c89b69c2b068fc378daa952ba7f163c4a11628f55a4df523b3ef9060200160405180910390a3611ccf600083836138a4565b60006001600160e01b038211156135fd5760405162461bcd60e51b815260206004820152602760248201527f53616665436173743a2076616c756520646f65736e27742066697420696e20326044820152663234206269747360c81b6064820152608401610ff8565b82805461458490614bfd565b90600052602060002090601f0160209004810192826145a657600085556145ec565b82601f106145bf57805160ff19168380011785556145ec565b828001600101855582156145ec579182015b828111156145ec5782518255916020019190600101906145d1565b506135fd9291505b808211156135fd57600081556001016145f4565b803560ff81168114610d5157600080fd5b60006020828403121561462a578081fd5b813561166d81614c79565b60008060408385031215614647578081fd5b823561465281614c79565b9150602083013561466281614c79565b809150509250929050565b600080600060608486031215614681578081fd5b833561468c81614c79565b9250602084013561469c81614c79565b929592945050506040919091013590565b600080600080608085870312156146c2578081fd5b84356146cd81614c79565b935060208501356146dd81614c79565b93969395505050506040820135916060013590565b600080600080600080600060e0888a03121561470c578283fd5b873561471781614c79565b9650602088013561472781614c79565b9550604088013594506060880135935061474360808901614608565b925060a0880135915060c0880135905092959891949750929550565b60008060408385031215614771578182fd5b823561477c81614c79565b9150602083013567ffffffffffffffff80821115614798578283fd5b818501915085601f8301126147ab578283fd5b8135818111156147bd576147bd614c63565b604051601f8201601f19908116603f011681019083821181831017156147e5576147e5614c63565b816040528281528860208487010111156147fd578586fd5b82602086016020830137856020848301015280955050505050509250929050565b60008060408385031215614830578182fd5b823561483b81614c79565b946020939093013593505050565b60008060008060008060c08789031215614861578182fd5b863561486c81614c79565b9550602087013594506040870135935061488860608801614608565b92506080870135915060a087013590509295509295509295565b600080604083850312156148b4578182fd5b82356148bf81614c79565b9150602083013563ffffffff81168114614662578182fd5b6000602082840312156148e8578081fd5b815161166d81614c8e565b600060208284031215614904578081fd5b5035919050565b60006020828403121561491c578081fd5b5051919050565b60008060408385031215614935578182fd5b82359150602083013561466281614c79565b60008060006060848603121561495b578081fd5b83359250602084013561469c81614c79565b600080600060608486031215614981578081fd5b83359250602084013561499381614c79565b915060408401356149a381614c8e565b809150509250925092565b600080604083850312156149c0578182fd5b50508035926020909101359150565b6000806000606084860312156149e3578081fd5b833592506020840135915060408401356149a381614c8e565b60008251614a0e818460208701614bd1565b9190910192915050565b6000602082528251806020840152614a37816040850160208701614bd1565b601f01601f19169190910160400192915050565b6020808252602c908201527f46756e6374696f6e206d7573742062652063616c6c6564207468726f7567682060408201526b19195b1959d85d1958d85b1b60a21b606082015260800190565b6020808252602c908201527f46756e6374696f6e206d7573742062652063616c6c6564207468726f7567682060408201526b6163746976652070726f787960a01b606082015260800190565b6020808252818101527f4f776e61626c653a2063616c6c6572206973206e6f7420746865206f776e6572604082015260600190565b6020808252602b908201527f496e697469616c697a61626c653a20636f6e7472616374206973206e6f74206960408201526a6e697469616c697a696e6760a81b606082015260800190565b60008219821115614b7657614b76614c4d565b500190565b600082614b9657634e487b7160e01b81526012600452602481fd5b500490565b6000816000190483118215151615614bb557614bb5614c4d565b500290565b600082821015614bcc57614bcc614c4d565b500390565b60005b83811015614bec578181015183820152602001614bd4565b838111156132405750506000910152565b600281046001821680614c1157607f821691505b602082108114156136ec57634e487b7160e01b600052602260045260246000fd5b6000600019821415614c4657614c46614c4d565b5060010190565b634e487b7160e01b600052601160045260246000fd5b634e487b7160e01b600052604160045260246000fd5b6001600160a01b03811681146117cc57600080fd5b80151581146117cc57600080fdfe416464726573733a206c6f772d6c6576656c2064656c65676174652063616c6c206661696c6564a264697066735822122071a7207bf39684dfc392165cfc5cd14d37870950858e215b984d2004ac94ea2864736f6c63430008020033",
  "linkReferences": {},
  "deployedLinkReferences": {}
}