{
  "_format": "hh-sol-artifact-1",
  "contractName": "Maia",
  "sourceName": "contracts/Maia.sol",
  "abi": [
    {
      "anonymous": false,
      "inputs": [
        {
          "indexed": false,
          "internalType": "address",
          "name": "previousAdmin",
          "type": "address"
        },
        {
          "indexed": false,
          "internalType": "address",
          "name": "newAdmin",
          "type": "address"
        }
      ],
      "name": "AdminChanged",
      "type": "event"
    },
    {
      "anonymous": false,
      "inputs": [
        {
          "indexed": false,
          "internalType": "address",
          "name": "newAdmin",
          "type": "address"
        }
      ],
      "name": "AdminUpdated",
      "type": "event"
    },
    {
      "anonymous": false,
      "inputs": [
        {
          "indexed": true,
          "internalType": "address",
          "name": "owner",
          "type": "address"
        },
        {
          "indexed": true,
          "internalType": "address",
          "name": "spender",
          "type": "address"
        },
        {
          "indexed": false,
          "internalType": "uint256",
          "name": "value",
          "type": "uint256"
        }
      ],
      "name": "Approval",
      "type": "event"
    },
    {
      "anonymous": false,
      "inputs": [
        {
          "indexed": true,
          "internalType": "address",
          "name": "beacon",
          "type": "address"
        }
      ],
      "name": "BeaconUpgraded",
      "type": "event"
    },
    {
      "anonymous": false,
      "inputs": [
        {
          "indexed": true,
          "internalType": "address",
          "name": "delegator",
          "type": "address"
        },
        {
          "indexed": true,
          "internalType": "address",
          "name": "fromDelegate",
          "type": "address"
        },
        {
          "indexed": true,
          "internalType": "address",
          "name": "toDelegate",
          "type": "address"
        }
      ],
      "name": "DelegateChanged",
      "type": "event"
    },
    {
      "anonymous": false,
      "inputs": [
        {
          "indexed": true,
          "internalType": "address",
          "name": "delegate",
          "type": "address"
        },
        {
          "indexed": false,
          "internalType": "uint256",
          "name": "previousBalance",
          "type": "uint256"
        },
        {
          "indexed": false,
          "internalType": "uint256",
          "name": "newBalance",
          "type": "uint256"
        }
      ],
      "name": "DelegateVotesChanged",
      "type": "event"
    },
    {
      "anonymous": false,
      "inputs": [
        {
          "indexed": true,
          "internalType": "address",
          "name": "user",
          "type": "address"
        },
        {
          "indexed": true,
          "internalType": "uint256",
          "name": "pid",
          "type": "uint256"
        },
        {
          "indexed": false,
          "internalType": "uint256",
          "name": "amount",
          "type": "uint256"
        }
      ],
      "name": "Deposit",
      "type": "event"
    },
    {
      "anonymous": false,
      "inputs": [
        {
          "indexed": true,
          "internalType": "address",
          "name": "user",
          "type": "address"
        },
        {
          "indexed": true,
          "internalType": "uint256",
          "name": "pid",
          "type": "uint256"
        },
        {
          "indexed": false,
          "internalType": "uint256",
          "name": "amount",
          "type": "uint256"
        }
      ],
      "name": "EmergencyWithdraw",
      "type": "event"
    },
    {
      "anonymous": false,
      "inputs": [
        {
          "indexed": true,
          "internalType": "address",
          "name": "previousOwner",
          "type": "address"
        },
        {
          "indexed": true,
          "internalType": "address",
          "name": "newOwner",
          "type": "address"
        }
      ],
      "name": "OwnershipTransferred",
      "type": "event"
    },
    {
      "anonymous": false,
      "inputs": [
        {
          "indexed": false,
          "internalType": "address",
          "name": "account",
          "type": "address"
        }
      ],
      "name": "Paused",
      "type": "event"
    },
    {
      "anonymous": false,
      "inputs": [
        {
          "indexed": true,
          "internalType": "address",
          "name": "from",
          "type": "address"
        },
        {
          "indexed": true,
          "internalType": "address",
          "name": "to",
          "type": "address"
        },
        {
          "indexed": false,
          "internalType": "uint256",
          "name": "value",
          "type": "uint256"
        }
      ],
      "name": "Transfer",
      "type": "event"
    },
    {
      "anonymous": false,
      "inputs": [
        {
          "indexed": false,
          "internalType": "address",
          "name": "account",
          "type": "address"
        }
      ],
      "name": "Unpaused",
      "type": "event"
    },
    {
      "anonymous": false,
      "inputs": [
        {
          "indexed": true,
          "internalType": "address",
          "name": "implementation",
          "type": "address"
        }
      ],
      "name": "Upgraded",
      "type": "event"
    },
    {
      "anonymous": false,
      "inputs": [
        {
          "indexed": true,
          "internalType": "address",
          "name": "user",
          "type": "address"
        },
        {
          "indexed": true,
          "internalType": "uint256",
          "name": "pid",
          "type": "uint256"
        },
        {
          "indexed": false,
          "internalType": "uint256",
          "name": "amount",
          "type": "uint256"
        }
      ],
      "name": "Withdraw",
      "type": "event"
    },
    {
      "inputs": [],
      "name": "BONUS_MULTIPLIER",
      "outputs": [
        {
          "internalType": "uint256",
          "name": "",
          "type": "uint256"
        }
      ],
      "stateMutability": "view",
      "type": "function"
    },
    {
      "inputs": [],
      "name": "DOMAIN_SEPARATOR",
      "outputs": [
        {
          "internalType": "bytes32",
          "name": "",
          "type": "bytes32"
        }
      ],
      "stateMutability": "view",
      "type": "function"
    },
    {
      "inputs": [],
      "name": "GOLD",
      "outputs": [
        {
          "internalType": "contract IERC20",
          "name": "",
          "type": "address"
        }
      ],
      "stateMutability": "view",
      "type": "function"
    },
    {
      "inputs": [
        {
          "internalType": "uint256",
          "name": "_pid",
          "type": "uint256"
        },
        {
          "internalType": "address",
          "name": "_to",
          "type": "address"
        },
        {
          "internalType": "uint256",
          "name": "_amount",
          "type": "uint256"
        }
      ],
      "name": "accessGOLDTokens",
      "outputs": [],
      "stateMutability": "nonpayable",
      "type": "function"
    },
    {
      "inputs": [
        {
          "internalType": "uint256",
          "name": "_allocPoint",
          "type": "uint256"
        },
        {
          "internalType": "contract IERC20",
          "name": "_lpToken",
          "type": "address"
        },
        {
          "internalType": "bool",
          "name": "_withUpdate",
          "type": "bool"
        }
      ],
      "name": "add",
      "outputs": [],
      "stateMutability": "nonpayable",
      "type": "function"
    },
    {
      "inputs": [
        {
          "internalType": "address",
          "name": "_adminAddress",
          "type": "address"
        }
      ],
      "name": "admin",
      "outputs": [],
      "stateMutability": "nonpayable",
      "type": "function"
    },
    {
      "inputs": [],
      "name": "adminAddress",
      "outputs": [
        {
          "internalType": "address",
          "name": "",
          "type": "address"
        }
      ],
      "stateMutability": "view",
      "type": "function"
    },
    {
      "inputs": [
        {
          "internalType": "address",
          "name": "owner",
          "type": "address"
        },
        {
          "internalType": "address",
          "name": "spender",
          "type": "address"
        }
      ],
      "name": "allowance",
      "outputs": [
        {
          "internalType": "uint256",
          "name": "",
          "type": "uint256"
        }
      ],
      "stateMutability": "view",
      "type": "function"
    },
    {
      "inputs": [
        {
          "internalType": "address",
          "name": "spender",
          "type": "address"
        },
        {
          "internalType": "uint256",
          "name": "amount",
          "type": "uint256"
        }
      ],
      "name": "approve",
      "outputs": [
        {
          "internalType": "bool",
          "name": "",
          "type": "bool"
        }
      ],
      "stateMutability": "nonpayable",
      "type": "function"
    },
    {
      "inputs": [
        {
          "internalType": "address",
          "name": "account",
          "type": "address"
        }
      ],
      "name": "balanceOf",
      "outputs": [
        {
          "internalType": "uint256",
          "name": "",
          "type": "uint256"
        }
      ],
      "stateMutability": "view",
      "type": "function"
    },
    {
      "inputs": [
        {
          "internalType": "address",
          "name": "account",
          "type": "address"
        },
        {
          "internalType": "uint32",
          "name": "pos",
          "type": "uint32"
        }
      ],
      "name": "checkpoints",
      "outputs": [
        {
          "components": [
            {
              "internalType": "uint32",
              "name": "fromBlock",
              "type": "uint32"
            },
            {
              "internalType": "uint224",
              "name": "votes",
              "type": "uint224"
            }
          ],
          "internalType": "struct ERC20VotesUpgradeable.Checkpoint",
          "name": "",
          "type": "tuple"
        }
      ],
      "stateMutability": "view",
      "type": "function"
    },
    {
      "inputs": [
        {
          "internalType": "uint256",
          "name": "_pid",
          "type": "uint256"
        }
      ],
      "name": "claimGOLD",
      "outputs": [],
      "stateMutability": "nonpayable",
      "type": "function"
    },
    {
      "inputs": [],
      "name": "decimals",
      "outputs": [
        {
          "internalType": "uint8",
          "name": "",
          "type": "uint8"
        }
      ],
      "stateMutability": "view",
      "type": "function"
    },
    {
      "inputs": [
        {
          "internalType": "address",
          "name": "spender",
          "type": "address"
        },
        {
          "internalType": "uint256",
          "name": "subtractedValue",
          "type": "uint256"
        }
      ],
      "name": "decreaseAllowance",
      "outputs": [
        {
          "internalType": "bool",
          "name": "",
          "type": "bool"
        }
      ],
      "stateMutability": "nonpayable",
      "type": "function"
    },
    {
      "inputs": [
        {
          "internalType": "address",
          "name": "delegatee",
          "type": "address"
        }
      ],
      "name": "delegate",
      "outputs": [],
      "stateMutability": "nonpayable",
      "type": "function"
    },
    {
      "inputs": [
        {
          "internalType": "address",
          "name": "delegatee",
          "type": "address"
        },
        {
          "internalType": "uint256",
          "name": "nonce",
          "type": "uint256"
        },
        {
          "internalType": "uint256",
          "name": "expiry",
          "type": "uint256"
        },
        {
          "internalType": "uint8",
          "name": "v",
          "type": "uint8"
        },
        {
          "internalType": "bytes32",
          "name": "r",
          "type": "bytes32"
        },
        {
          "internalType": "bytes32",
          "name": "s",
          "type": "bytes32"
        }
      ],
      "name": "delegateBySig",
      "outputs": [],
      "stateMutability": "nonpayable",
      "type": "function"
    },
    {
      "inputs": [
        {
          "internalType": "address",
          "name": "account",
          "type": "address"
        }
      ],
      "name": "delegates",
      "outputs": [
        {
          "internalType": "address",
          "name": "",
          "type": "address"
        }
      ],
      "stateMutability": "view",
      "type": "function"
    },
    {
      "inputs": [
        {
          "internalType": "uint256",
          "name": "_pid",
          "type": "uint256"
        },
        {
          "internalType": "uint256",
          "name": "_amount",
          "type": "uint256"
        }
      ],
      "name": "deposit",
      "outputs": [],
      "stateMutability": "nonpayable",
      "type": "function"
    },
    {
      "inputs": [
        {
          "internalType": "uint256",
          "name": "_from",
          "type": "uint256"
        },
        {
          "internalType": "uint256",
          "name": "_to",
          "type": "uint256"
        }
      ],
      "name": "getMultiplier",
      "outputs": [
        {
          "internalType": "uint256",
          "name": "",
          "type": "uint256"
        }
      ],
      "stateMutability": "pure",
      "type": "function"
    },
    {
      "inputs": [
        {
          "internalType": "uint256",
          "name": "blockNumber",
          "type": "uint256"
        }
      ],
      "name": "getPastTotalSupply",
      "outputs": [
        {
          "internalType": "uint256",
          "name": "",
          "type": "uint256"
        }
      ],
      "stateMutability": "view",
      "type": "function"
    },
    {
      "inputs": [
        {
          "internalType": "address",
          "name": "account",
          "type": "address"
        },
        {
          "internalType": "uint256",
          "name": "blockNumber",
          "type": "uint256"
        }
      ],
      "name": "getPastVotes",
      "outputs": [
        {
          "internalType": "uint256",
          "name": "",
          "type": "uint256"
        }
      ],
      "stateMutability": "view",
      "type": "function"
    },
    {
      "inputs": [
        {
          "internalType": "uint256",
          "name": "_pid",
          "type": "uint256"
        }
      ],
      "name": "getPool",
      "outputs": [
        {
          "components": [
            {
              "internalType": "contract IERC20",
              "name": "lpToken",
              "type": "address"
            },
            {
              "internalType": "uint256",
              "name": "allocPoint",
              "type": "uint256"
            },
            {
              "internalType": "uint256",
              "name": "lastRewardBlock",
              "type": "uint256"
            },
            {
              "internalType": "uint256",
              "name": "accGOLDPerShare",
              "type": "uint256"
            },
            {
              "internalType": "uint256",
              "name": "lastTotalGOLDReward",
              "type": "uint256"
            },
            {
              "internalType": "uint256",
              "name": "lastGOLDRewardBalance",
              "type": "uint256"
            },
            {
              "internalType": "uint256",
              "name": "totalGOLDReward",
              "type": "uint256"
            }
          ],
          "internalType": "struct Maia.PoolInfo",
          "name": "",
          "type": "tuple"
        }
      ],
      "stateMutability": "view",
      "type": "function"
    },
    {
      "inputs": [
        {
          "internalType": "uint256",
          "name": "_pid",
          "type": "uint256"
        }
      ],
      "name": "getTS",
      "outputs": [
        {
          "internalType": "uint256",
          "name": "",
          "type": "uint256"
        }
      ],
      "stateMutability": "view",
      "type": "function"
    },
    {
      "inputs": [
        {
          "internalType": "uint256",
          "name": "_pid",
          "type": "uint256"
        },
        {
          "internalType": "address",
          "name": "_user",
          "type": "address"
        }
      ],
      "name": "getUser",
      "outputs": [
        {
          "components": [
            {
              "internalType": "uint256",
              "name": "amount",
              "type": "uint256"
            },
            {
              "internalType": "uint256",
              "name": "rewardDebt",
              "type": "uint256"
            },
            {
              "internalType": "uint256",
              "name": "rewargoldDebt",
              "type": "uint256"
            },
            {
              "internalType": "uint256",
              "name": "stakeEnd",
              "type": "uint256"
            }
          ],
          "internalType": "struct Maia.UserInfo",
          "name": "",
          "type": "tuple"
        }
      ],
      "stateMutability": "view",
      "type": "function"
    },
    {
      "inputs": [
        {
          "internalType": "address",
          "name": "account",
          "type": "address"
        }
      ],
      "name": "getVotes",
      "outputs": [
        {
          "internalType": "uint256",
          "name": "",
          "type": "uint256"
        }
      ],
      "stateMutability": "view",
      "type": "function"
    },
    {
      "inputs": [],
      "name": "gold",
      "outputs": [
        {
          "internalType": "contract IERC20",
          "name": "",
          "type": "address"
        }
      ],
      "stateMutability": "view",
      "type": "function"
    },
    {
      "inputs": [
        {
          "internalType": "address",
          "name": "spender",
          "type": "address"
        },
        {
          "internalType": "uint256",
          "name": "addedValue",
          "type": "uint256"
        }
      ],
      "name": "increaseAllowance",
      "outputs": [
        {
          "internalType": "bool",
          "name": "",
          "type": "bool"
        }
      ],
      "stateMutability": "nonpayable",
      "type": "function"
    },
    {
      "inputs": [
        {
          "internalType": "address",
          "name": "_GOLD",
          "type": "address"
        },
        {
          "internalType": "address",
          "name": "_adminAddress",
          "type": "address"
        },
        {
          "internalType": "uint256",
          "name": "_startBlock",
          "type": "uint256"
        },
        {
          "internalType": "uint256",
          "name": "_topStakerNumber",
          "type": "uint256"
        }
      ],
      "name": "initialize",
      "outputs": [],
      "stateMutability": "nonpayable",
      "type": "function"
    },
    {
      "inputs": [],
      "name": "massUpdatePools",
      "outputs": [],
      "stateMutability": "nonpayable",
      "type": "function"
    },
    {
      "inputs": [],
      "name": "name",
      "outputs": [
        {
          "internalType": "string",
          "name": "",
          "type": "string"
        }
      ],
      "stateMutability": "view",
      "type": "function"
    },
    {
      "inputs": [
        {
          "internalType": "address",
          "name": "owner",
          "type": "address"
        }
      ],
      "name": "nonces",
      "outputs": [
        {
          "internalType": "uint256",
          "name": "",
          "type": "uint256"
        }
      ],
      "stateMutability": "view",
      "type": "function"
    },
    {
      "inputs": [
        {
          "internalType": "address",
          "name": "account",
          "type": "address"
        }
      ],
      "name": "numCheckpoints",
      "outputs": [
        {
          "internalType": "uint32",
          "name": "",
          "type": "uint32"
        }
      ],
      "stateMutability": "view",
      "type": "function"
    },
    {
      "inputs": [],
      "name": "owner",
      "outputs": [
        {
          "internalType": "address",
          "name": "",
          "type": "address"
        }
      ],
      "stateMutability": "view",
      "type": "function"
    },
    {
      "inputs": [],
      "name": "paused",
      "outputs": [
        {
          "internalType": "bool",
          "name": "",
          "type": "bool"
        }
      ],
      "stateMutability": "view",
      "type": "function"
    },
    {
      "inputs": [
        {
          "internalType": "uint256",
          "name": "_pid",
          "type": "uint256"
        },
        {
          "internalType": "address",
          "name": "_user",
          "type": "address"
        }
      ],
      "name": "pendingGOLD",
      "outputs": [
        {
          "internalType": "uint256",
          "name": "",
          "type": "uint256"
        }
      ],
      "stateMutability": "view",
      "type": "function"
    },
    {
      "inputs": [
        {
          "internalType": "address",
          "name": "owner",
          "type": "address"
        },
        {
          "internalType": "address",
          "name": "spender",
          "type": "address"
        },
        {
          "internalType": "uint256",
          "name": "value",
          "type": "uint256"
        },
        {
          "internalType": "uint256",
          "name": "deadline",
          "type": "uint256"
        },
        {
          "internalType": "uint8",
          "name": "v",
          "type": "uint8"
        },
        {
          "internalType": "bytes32",
          "name": "r",
          "type": "bytes32"
        },
        {
          "internalType": "bytes32",
          "name": "s",
          "type": "bytes32"
        }
      ],
      "name": "permit",
      "outputs": [],
      "stateMutability": "nonpayable",
      "type": "function"
    },
    {
      "inputs": [
        {
          "internalType": "uint256",
          "name": "",
          "type": "uint256"
        }
      ],
      "name": "poolInfo",
      "outputs": [
        {
          "internalType": "contract IERC20",
          "name": "lpToken",
          "type": "address"
        },
        {
          "internalType": "uint256",
          "name": "allocPoint",
          "type": "uint256"
        },
        {
          "internalType": "uint256",
          "name": "lastRewardBlock",
          "type": "uint256"
        },
        {
          "internalType": "uint256",
          "name": "accGOLDPerShare",
          "type": "uint256"
        },
        {
          "internalType": "uint256",
          "name": "lastTotalGOLDReward",
          "type": "uint256"
        },
        {
          "internalType": "uint256",
          "name": "lastGOLDRewardBalance",
          "type": "uint256"
        },
        {
          "internalType": "uint256",
          "name": "totalGOLDReward",
          "type": "uint256"
        }
      ],
      "stateMutability": "view",
      "type": "function"
    },
    {
      "inputs": [],
      "name": "poolLength",
      "outputs": [
        {
          "internalType": "uint256",
          "name": "",
          "type": "uint256"
        }
      ],
      "stateMutability": "view",
      "type": "function"
    },
    {
      "inputs": [],
      "name": "renounceOwnership",
      "outputs": [],
      "stateMutability": "nonpayable",
      "type": "function"
    },
    {
      "inputs": [
        {
          "internalType": "uint256",
          "name": "_pid",
          "type": "uint256"
        },
        {
          "internalType": "uint256",
          "name": "_allocPoint",
          "type": "uint256"
        },
        {
          "internalType": "bool",
          "name": "_withUpdate",
          "type": "bool"
        }
      ],
      "name": "set",
      "outputs": [],
      "stateMutability": "nonpayable",
      "type": "function"
    },
    {
      "inputs": [],
      "name": "startBlock",
      "outputs": [
        {
          "internalType": "uint256",
          "name": "",
          "type": "uint256"
        }
      ],
      "stateMutability": "view",
      "type": "function"
    },
    {
      "inputs": [],
      "name": "symbol",
      "outputs": [
        {
          "internalType": "string",
          "name": "",
          "type": "string"
        }
      ],
      "stateMutability": "view",
      "type": "function"
    },
    {
      "inputs": [],
      "name": "topStakerNumber",
      "outputs": [
        {
          "internalType": "uint256",
          "name": "",
          "type": "uint256"
        }
      ],
      "stateMutability": "view",
      "type": "function"
    },
    {
      "inputs": [],
      "name": "totalAllocPoint",
      "outputs": [
        {
          "internalType": "uint256",
          "name": "",
          "type": "uint256"
        }
      ],
      "stateMutability": "view",
      "type": "function"
    },
    {
      "inputs": [],
      "name": "totalGOLDStaked",
      "outputs": [
        {
          "internalType": "uint256",
          "name": "",
          "type": "uint256"
        }
      ],
      "stateMutability": "view",
      "type": "function"
    },
    {
      "inputs": [],
      "name": "totalGOLDUsedForPurchase",
      "outputs": [
        {
          "internalType": "uint256",
          "name": "",
          "type": "uint256"
        }
      ],
      "stateMutability": "view",
      "type": "function"
    },
    {
      "inputs": [],
      "name": "totalSupply",
      "outputs": [
        {
          "internalType": "uint256",
          "name": "",
          "type": "uint256"
        }
      ],
      "stateMutability": "view",
      "type": "function"
    },
    {
      "inputs": [
        {
          "internalType": "address",
          "name": "recipient",
          "type": "address"
        },
        {
          "internalType": "uint256",
          "name": "amount",
          "type": "uint256"
        }
      ],
      "name": "transfer",
      "outputs": [
        {
          "internalType": "bool",
          "name": "",
          "type": "bool"
        }
      ],
      "stateMutability": "nonpayable",
      "type": "function"
    },
    {
      "inputs": [
        {
          "internalType": "address",
          "name": "sender",
          "type": "address"
        },
        {
          "internalType": "address",
          "name": "recipient",
          "type": "address"
        },
        {
          "internalType": "uint256",
          "name": "amount",
          "type": "uint256"
        }
      ],
      "name": "transferFrom",
      "outputs": [
        {
          "internalType": "bool",
          "name": "",
          "type": "bool"
        }
      ],
      "stateMutability": "nonpayable",
      "type": "function"
    },
    {
      "inputs": [
        {
          "internalType": "address",
          "name": "newOwner",
          "type": "address"
        }
      ],
      "name": "transferOwnership",
      "outputs": [],
      "stateMutability": "nonpayable",
      "type": "function"
    },
    {
      "inputs": [
        {
          "internalType": "uint256",
          "name": "_pid",
          "type": "uint256"
        }
      ],
      "name": "updatePool",
      "outputs": [],
      "stateMutability": "nonpayable",
      "type": "function"
    },
    {
      "inputs": [
        {
          "internalType": "uint256",
          "name": "_pid",
          "type": "uint256"
        }
      ],
      "name": "updatePoolHelper",
      "outputs": [
        {
          "internalType": "uint256",
          "name": "",
          "type": "uint256"
        }
      ],
      "stateMutability": "view",
      "type": "function"
    },
    {
      "inputs": [
        {
          "internalType": "address",
          "name": "newImplementation",
          "type": "address"
        }
      ],
      "name": "upgradeTo",
      "outputs": [],
      "stateMutability": "nonpayable",
      "type": "function"
    },
    {
      "inputs": [
        {
          "internalType": "address",
          "name": "newImplementation",
          "type": "address"
        },
        {
          "internalType": "bytes",
          "name": "data",
          "type": "bytes"
        }
      ],
      "name": "upgradeToAndCall",
      "outputs": [],
      "stateMutability": "payable",
      "type": "function"
    },
    {
      "inputs": [
        {
          "internalType": "uint256",
          "name": "",
          "type": "uint256"
        },
        {
          "internalType": "address",
          "name": "",
          "type": "address"
        }
      ],
      "name": "userInfo",
      "outputs": [
        {
          "internalType": "uint256",
          "name": "amount",
          "type": "uint256"
        },
        {
          "internalType": "uint256",
          "name": "rewardDebt",
          "type": "uint256"
        },
        {
          "internalType": "uint256",
          "name": "rewargoldDebt",
          "type": "uint256"
        },
        {
          "internalType": "uint256",
          "name": "stakeEnd",
          "type": "uint256"
        }
      ],
      "stateMutability": "view",
      "type": "function"
    },
    {
      "inputs": [
        {
          "internalType": "uint256",
          "name": "_pid",
          "type": "uint256"
        },
        {
          "internalType": "uint256",
          "name": "_amount",
          "type": "uint256"
        }
      ],
      "name": "withdraw",
      "outputs": [],
      "stateMutability": "nonpayable",
      "type": "function"
    }
  ],
  "bytecode": "0x60a06040523060601b60805234801561001757600080fd5b5060805160601c61491a61004b600039600081816115b6015281816115f601528181611a4b0152611a8b015261491a6000f3fe60806040526004361061036b5760003560e01c8063630b5ba1116101c65780639ab24eb0116100f7578063e2bbb15811610095578063f2fde38b1161006f578063f2fde38b14610b56578063f8b535ac14610b76578063fbec6f2114610b8d578063fc6f946814610bae5761036b565b8063e2bbb15814610acc578063eb990c5914610aec578063f1127ed814610b0c5761036b565b8063a9059cbb116100d1578063a9059cbb14610a26578063c3cda52014610a46578063d505accf14610a66578063dd62ed3e14610a865761036b565b80639ab24eb0146109c6578063a457c2d7146109e6578063a87492c814610a065761036b565b80637ecebe00116101645780638dbb1e3a1161013e5780638dbb1e3a146109035780638e539e8c1461092357806393f1a40b1461094357806395d89b41146109b15761036b565b80637ecebe00146108af5780638aa28550146108cf5780638da5cb5b146108e45761036b565b80636f10947c116101a05780636f10947c146108185780636fcfff451461082f57806370a0823114610864578063715018a61461089a5761036b565b8063630b5ba1146107c357806363a846f8146107d857806364482f79146107f85761036b565b80633644e515116102a05780634f1ef2861161023e578063587cde1e11610218578063587cde1e146107305780635b3c25ce1461076a5780635c19a95c1461078a5780635c975abb146107aa5761036b565b80634f1ef286146106dd57806351eb05a6146106f05780635366543d146107105761036b565b80633a46b1a81161027a5780633a46b1a81461064d5780633e4bee381461066d578063441a3e70146106a657806348cd4cb1146106c65761036b565b80633644e515146105f85780633659cfe61461060d578063395093511461062d5761036b565b80631526fe271161030d5780631eaaa045116102e75780631eaaa0451461054957806323b872dd14610569578063257664a414610589578063313ce567146105dc5761036b565b80631526fe27146104be57806317caf6f11461051d57806318160ddd146105345761036b565b8063081e3eda11610349578063081e3eda14610436578063095ea7b31461044c5780630bc1a0051461047c5780630d3c5df01461049c5761036b565b8063017e58ca14610370578063068bcd8d1461039a57806306fdde0314610414575b600080fd5b34801561037c57600080fd5b506103876101ce5481565b6040519081526020015b60405180910390f35b3480156103a657600080fd5b506103ba6103b5366004614514565b610bcf565b604051610391919081516001600160a01b031681526020808301519082015260408083015190820152606080830151908201526080808301519082015260a0828101519082015260c0918201519181019190915260e00190565b34801561042057600080fd5b50610429610caa565b6040516103919190614639565b34801561044257600080fd5b506101ca54610387565b34801561045857600080fd5b5061046c61046736600461443f565b610d3c565b6040519015158152602001610391565b34801561048857600080fd5b50610387610497366004614544565b610d53565b3480156104a857600080fd5b506104bc6104b7366004614568565b610ee5565b005b3480156104ca57600080fd5b506104de6104d9366004614514565b611238565b604080516001600160a01b0390981688526020880196909652948601939093526060850191909152608084015260a083015260c082015260e001610391565b34801561052957600080fd5b506103876101cc5481565b34801561054057600080fd5b50609954610387565b34801561055557600080fd5b506104bc61056436600461458e565b611292565b34801561057557600080fd5b5061046c61058436600461428e565b61146d565b34801561059557600080fd5b506105a96105a4366004614544565b611519565b60405161039191908151815260208083015190820152604080830151908201526060918201519181019190915260800190565b3480156105e857600080fd5b5060405160128152602001610391565b34801561060457600080fd5b5061038761159c565b34801561061957600080fd5b506104bc61062836600461423a565b6115ab565b34801561063957600080fd5b5061046c61064836600461443f565b611674565b34801561065957600080fd5b5061038761066836600461443f565b6116b0565b34801561067957600080fd5b506101c75461068e906001600160a01b031681565b6040516001600160a01b039091168152602001610391565b3480156106b257600080fd5b506104bc6106c13660046145cf565b611724565b3480156106d257600080fd5b506103876101cd5481565b6104bc6106eb366004614380565b611a40565b3480156106fc57600080fd5b506104bc61070b366004614514565b611afa565b34801561071c57600080fd5b5061038761072b366004614514565b611c70565b34801561073c57600080fd5b5061068e61074b36600461423a565b6001600160a01b03908116600090815261013060205260409020541690565b34801561077657600080fd5b506104bc610785366004614514565b611d20565b34801561079657600080fd5b506104bc6107a536600461423a565b611e7b565b3480156107b657600080fd5b506101945460ff1661046c565b3480156107cf57600080fd5b506104bc611e85565b3480156107e457600080fd5b506104bc6107f336600461423a565b611ead565b34801561080457600080fd5b506104bc6108133660046145f0565b611f97565b34801561082457600080fd5b506103876101c95481565b34801561083b57600080fd5b5061084f61084a36600461423a565b612067565b60405163ffffffff9091168152602001610391565b34801561087057600080fd5b5061038761087f36600461423a565b6001600160a01b031660009081526097602052604090205490565b3480156108a657600080fd5b506104bc61208a565b3480156108bb57600080fd5b506103876108ca36600461423a565b6120c1565b3480156108db57600080fd5b50610387600181565b3480156108f057600080fd5b50610162546001600160a01b031661068e565b34801561090f57600080fd5b5061038761091e3660046145cf565b6120df565b34801561092f57600080fd5b5061038761093e366004614514565b61210e565b34801561094f57600080fd5b5061099161095e366004614544565b6101cb60209081526000928352604080842090915290825290208054600182015460028301546003909301549192909184565b604080519485526020850193909352918301526060820152608001610391565b3480156109bd57600080fd5b5061042961216b565b3480156109d257600080fd5b506103876109e136600461423a565b61217a565b3480156109f257600080fd5b5061046c610a0136600461443f565b612211565b348015610a1257600080fd5b50610387610a21366004614514565b6122aa565b348015610a3257600080fd5b5061046c610a4136600461443f565b612337565b348015610a5257600080fd5b506104bc610a6136600461446a565b612344565b348015610a7257600080fd5b506104bc610a81366004614313565b61247a565b348015610a9257600080fd5b50610387610aa1366004614256565b6001600160a01b03918216600090815260986020908152604080832093909416825291909152205490565b348015610ad857600080fd5b506104bc610ae73660046145cf565b6125c0565b348015610af857600080fd5b506104bc610b073660046142ce565b61282a565b348015610b1857600080fd5b50610b2c610b273660046144c3565b612a02565b60408051825163ffffffff1681526020928301516001600160e01b03169281019290925201610391565b348015610b6257600080fd5b506104bc610b7136600461423a565b612a95565b348015610b8257600080fd5b506103876101cf5481565b348015610b9957600080fd5b506101c65461068e906001600160a01b031681565b348015610bba57600080fd5b506101c85461068e906001600160a01b031681565b610c186040518060e0016040528060006001600160a01b031681526020016000815260200160008152602001600081526020016000815260200160008152602001600081525090565b6101ca8281548110610c3a57634e487b7160e01b600052603260045260246000fd5b60009182526020918290206040805160e081018252600790930290910180546001600160a01b031683526001810154938301939093526002830154908201526003820154606082015260048201546080820152600582015460a082015260069091015460c082015290505b919050565b6060609a8054610cb99061481e565b80601f0160208091040260200160405190810160405280929190818152602001828054610ce59061481e565b8015610d325780601f10610d0757610100808354040283529160200191610d32565b820191906000526020600020905b815481529060010190602001808311610d1557829003601f168201915b5050505050905090565b6000610d49338484612b2e565b5060015b92915050565b6000806101ca8481548110610d7857634e487b7160e01b600052603260045260246000fd5b600091825260208083208784526101cb825260408085206001600160a01b0389168652909252922060036007909202909201908101546101ce546002830154929450909143118015610dc957508015155b15610eb2576000610e6d610dec6101cf546101ce54612c5290919063ffffffff16565b86546040516370a0823160e01b81523060048201526001600160a01b03909116906370a08231906024015b60206040518083038186803b158015610e2f57600080fd5b505afa158015610e43573d6000803e3d6000fd5b505050506040513d601f19601f82011682018060405250810190610e67919061452c565b90612c52565b90506000610e88866005015483612c5290919063ffffffff16565b9050610ead610ea684610ea08464e8d4a51000612c5e565b90612c6a565b8590612c76565b935050505b610eda8360020154610e6764e8d4a51000610ea0868860000154612c5e90919063ffffffff16565b979650505050505050565b6101c8546001600160a01b03163314610f455760405162461bcd60e51b815260206004820152601c60248201527f73656e646572206d7573742062652061646d696e20616464726573730000000060448201526064015b60405180910390fd5b80610f5f6101cf546101ce54612c5290919063ffffffff16565b1015610fc15760405162461bcd60e51b815260206004820152602b60248201527f416d6f756e74206d757374206265206c657373207468616e207374616b65642060448201526a11d3d31108185b5bdd5b9d60aa1b6064820152608401610f3c565b60006101ca8481548110610fe557634e487b7160e01b600052603260045260246000fd5b6000918252602082206007919091020180546040516370a0823160e01b81523060048201529193506001600160a01b0316906370a082319060240160206040518083038186803b15801561103857600080fd5b505afa15801561104c573d6000803e3d6000fd5b505050506040513d601f19601f82011682018060405250810190611070919061452c565b90508083111561115757815460405163a9059cbb60e01b81526001600160a01b038681166004830152602482018490529091169063a9059cbb90604401602060405180830381600087803b1580156110c757600080fd5b505af11580156110db573d6000803e3d6000fd5b505050506040513d601f19601f820116820180604052508101906110ff91906144f8565b506101cf5461110e9082612c76565b6101cf5560405181815285906001600160a01b038616907fbb757047c2b5f3974fe26b7c10f732e7bce710b0952a71082702781e62ae05959060200160405180910390a3611231565b815460405163a9059cbb60e01b81526001600160a01b038681166004830152602482018690529091169063a9059cbb90604401602060405180830381600087803b1580156111a457600080fd5b505af11580156111b8573d6000803e3d6000fd5b505050506040513d601f19601f820116820180604052508101906111dc91906144f8565b506101cf546111eb9084612c76565b6101cf5560405183815285906001600160a01b038616907fbb757047c2b5f3974fe26b7c10f732e7bce710b0952a71082702781e62ae0595906020015b60405180910390a35b5050505050565b6101ca818154811061124957600080fd5b600091825260209091206007909102018054600182015460028301546003840154600485015460058601546006909601546001600160a01b039095169650929491939092919087565b610162546001600160a01b031633146112bd5760405162461bcd60e51b8152600401610f3c90614704565b80156112cb576112cb611e85565b60006101cd5443116112e0576101cd546112e2565b435b6101cc549091506112f39085612c76565b6101cc556040805160e0810182526001600160a01b039485168152602081019586529081019182526000606082018181526080830182815260a0840183815260c085018481526101ca8054600181018255955294517f0faeda9012b7f59bd2a84ac2a33ead5fc9f720c38d8bbf90db1ac3c1518386eb600790950294850180546001600160a01b031916919099161790975596517f0faeda9012b7f59bd2a84ac2a33ead5fc9f720c38d8bbf90db1ac3c1518386ec83015592517f0faeda9012b7f59bd2a84ac2a33ead5fc9f720c38d8bbf90db1ac3c1518386ed82015591517f0faeda9012b7f59bd2a84ac2a33ead5fc9f720c38d8bbf90db1ac3c1518386ee83015593517f0faeda9012b7f59bd2a84ac2a33ead5fc9f720c38d8bbf90db1ac3c1518386ef82015591517f0faeda9012b7f59bd2a84ac2a33ead5fc9f720c38d8bbf90db1ac3c1518386f08301555090517f0faeda9012b7f59bd2a84ac2a33ead5fc9f720c38d8bbf90db1ac3c1518386f190910155565b600061147a848484612c82565b6001600160a01b0384166000908152609860209081526040808320338452909152902054828110156114ff5760405162461bcd60e51b815260206004820152602860248201527f45524332303a207472616e7366657220616d6f756e74206578636565647320616044820152676c6c6f77616e636560c01b6064820152608401610f3c565b61150c8533858403612b2e565b60019150505b9392505050565b6115446040518060800160405280600081526020016000815260200160008152602001600081525090565b5060009182526101cb602090815260408084206001600160a01b039390931684529181529181902081516080810183528154815260018201549381019390935260028101549183019190915260030154606082015290565b60006115a6612e67565b905090565b306001600160a01b037f00000000000000000000000000000000000000000000000000000000000000001614156115f45760405162461bcd60e51b8152600401610f3c9061466c565b7f00000000000000000000000000000000000000000000000000000000000000006001600160a01b0316611626612ee2565b6001600160a01b03161461164c5760405162461bcd60e51b8152600401610f3c906146b8565b61165581612f10565b6040805160008082526020820190925261167191839190612f88565b50565b3360008181526098602090815260408083206001600160a01b03871684529091528120549091610d499185906116ab908690614784565b612b2e565b60004382106117015760405162461bcd60e51b815260206004820152601f60248201527f4552433230566f7465733a20626c6f636b206e6f7420796574206d696e6564006044820152606401610f3c565b6001600160a01b03831660009081526101316020526040902061151290836130cc565b60006101ca838154811061174857634e487b7160e01b600052603260045260246000fd5b600091825260208083208684526101cb825260408085203386529092529083206007909202019250906117816064610ea0866004612c5e565b61178b90856147db565b905080826000015410156117d65760405162461bcd60e51b81526020600482015260126024820152711dda5d1a191c985dce881b9bdd0819dbdbd960721b6044820152606401610f3c565b816003015442101561181f5760405162461bcd60e51b81526020600482015260126024820152713bb4ba34323930bb9d103a37b79039b7b7b760711b6044820152606401610f3c565b61182885611afa565b60006118568360020154610e6764e8d4a51000610ea088600301548860000154612c5e90919063ffffffff16565b905080156118e357835460405163a9059cbb60e01b8152336004820152602481018390526001600160a01b039091169063a9059cbb90604401602060405180830381600087803b1580156118a957600080fd5b505af11580156118bd573d6000803e3d6000fd5b505050506040513d601f19601f820116820180604052508101906118e191906144f8565b505b61192e6118ff6101cf546101ce54612c5290919063ffffffff16565b85546040516370a0823160e01b81523060048201526001600160a01b03909116906370a0823190602401610e17565b6005850155825461193f9083612c52565b83556101ce5461194f9083612c52565b6101ce556003840154835461196e9164e8d4a5100091610ea091612c5e565b6002840155835460405163a9059cbb60e01b8152336004820152602481018490526001600160a01b039091169063a9059cbb90604401602060405180830381600087803b1580156119be57600080fd5b505af11580156119d2573d6000803e3d6000fd5b505050506040513d601f19601f820116820180604052508101906119f691906144f8565b50611a0133836131a5565b604051828152869033907ff279e6a1f5e320cca91135676d9cb6e44ca8a08c0b88342bcdb1144f6511b5689060200160405180910390a3505050505050565b306001600160a01b037f0000000000000000000000000000000000000000000000000000000000000000161415611a895760405162461bcd60e51b8152600401610f3c9061466c565b7f00000000000000000000000000000000000000000000000000000000000000006001600160a01b0316611abb612ee2565b6001600160a01b031614611ae15760405162461bcd60e51b8152600401610f3c906146b8565b611aea82612f10565b611af682826001612f88565b5050565b60006101ca8281548110611b1e57634e487b7160e01b600052603260045260246000fd5b600091825260208083208584526101cb82526040808520338652909252922060026007909202909201908101549092504311611b5b575050611671565b6000611ba8611b796101cf546101ce54612c5290919063ffffffff16565b84546040516370a0823160e01b81523060048201526001600160a01b03909116906370a0823190602401610e17565b90506000611bd1611bc6856005015484612c5290919063ffffffff16565b600686015490612c76565b60058501839055600685018190556101ce5490915080611c1f575050436002808501919091556000600385018190556004850181905592018290555060058201819055600690910155611671565b6000611c38866004015484612c5290919063ffffffff16565b9050611c5b611c5083610ea08464e8d4a51000612c5e565b600388015490612c76565b60038701555050600490930192909255505050565b6000806101ca8381548110611c9557634e487b7160e01b600052603260045260246000fd5b6000918252602090912060079091020180546040516370a0823160e01b81523060048201529192506001600160a01b0316906370a082319060240160206040518083038186803b158015611ce857600080fd5b505afa158015611cfc573d6000803e3d6000fd5b505050506040513d601f19601f82011682018060405250810190611512919061452c565b60006101ca8281548110611d4457634e487b7160e01b600052603260045260246000fd5b600091825260208083208584526101cb82526040808520338652909252922060079091029091019150611d7683611afa565b6000611da48260020154610e6764e8d4a51000610ea087600301548760000154612c5e90919063ffffffff16565b90508015611e3157825460405163a9059cbb60e01b8152336004820152602481018390526001600160a01b039091169063a9059cbb90604401602060405180830381600087803b158015611df757600080fd5b505af1158015611e0b573d6000803e3d6000fd5b505050506040513d601f19601f82011682018060405250810190611e2f91906144f8565b505b611e4d611b796101cf546101ce54612c5290919063ffffffff16565b600584015560038301548254611e6d9164e8d4a5100091610ea091612c5e565b826002018190555050505050565b61167133826131af565b6101ca5460005b81811015611af657611e9d81611afa565b611ea681614853565b9050611e8c565b6001600160a01b038116611ef95760405162461bcd60e51b815260206004820152601360248201527261646d696e3a205a65726f206164647265737360681b6044820152606401610f3c565b6101c8546001600160a01b03163314611f425760405162461bcd60e51b815260206004820152600b60248201526a61646d696e3a207775743f60a81b6044820152606401610f3c565b6101c880546001600160a01b0319166001600160a01b0383169081179091556040519081527f54e4612788f90384e6843298d7854436f3a585b2c3831ab66abf1de63bfa6c2d9060200160405180910390a150565b610162546001600160a01b03163314611fc25760405162461bcd60e51b8152600401610f3c90614704565b8015611fd057611fd0611e85565b6120238261201d6101ca8681548110611ff957634e487b7160e01b600052603260045260246000fd5b9060005260206000209060070201600101546101cc54612c5290919063ffffffff16565b90612c76565b6101cc81905550816101ca848154811061204d57634e487b7160e01b600052603260045260246000fd5b906000526020600020906007020160010181905550505050565b6001600160a01b03811660009081526101316020526040812054610d4d906131b9565b610162546001600160a01b031633146120b55760405162461bcd60e51b8152600401610f3c90614704565b6120bf6000613222565b565b6001600160a01b038116600090815260fd6020526040812054610d4d565b6000828210612104576120fd60016120f78486612c52565b90612c5e565b9050610d4d565b6120fd8383612c52565b600043821061215f5760405162461bcd60e51b815260206004820152601f60248201527f4552433230566f7465733a20626c6f636b206e6f7420796574206d696e6564006044820152606401610f3c565b610d4d610132836130cc565b6060609b8054610cb99061481e565b6001600160a01b0381166000908152610131602052604081205480156121fe576001600160a01b0383166000908152610131602052604090206121be6001836147db565b815481106121dc57634e487b7160e01b600052603260045260246000fd5b60009182526020909120015464010000000090046001600160e01b0316612201565b60005b6001600160e01b03169392505050565b3360009081526098602090815260408083206001600160a01b0386168452909152812054828110156122935760405162461bcd60e51b815260206004820152602560248201527f45524332303a2064656372656173656420616c6c6f77616e63652062656c6f77604482015264207a65726f60d81b6064820152608401610f3c565b6122a03385858403612b2e565b5060019392505050565b6000806101ca83815481106122cf57634e487b7160e01b600052603260045260246000fd5b600091825260208083208684526101cb8252604080852033865290925292206002600790920290920190810154909250431161231057600092505050610ca5565b600061232e611b796101cf546101ce54612c5290919063ffffffff16565b95945050505050565b6000610d49338484612c82565b834211156123945760405162461bcd60e51b815260206004820152601d60248201527f4552433230566f7465733a207369676e617475726520657870697265640000006044820152606401610f3c565b604080517fe48329057bfd03d55e49b547132e39cffd9c1820ad7b9d4c5307691425d15adf60208201526001600160a01b03881691810191909152606081018690526080810185905260009061240e906124069060a00160405160208183030381529060405280519060200120613275565b8585856132c3565b9050612419816132eb565b86146124675760405162461bcd60e51b815260206004820152601960248201527f4552433230566f7465733a20696e76616c6964206e6f6e6365000000000000006044820152606401610f3c565b61247181886131af565b50505050505050565b834211156124ca5760405162461bcd60e51b815260206004820152601d60248201527f45524332305065726d69743a206578706972656420646561646c696e650000006044820152606401610f3c565b600060fe548888886124db8c6132eb565b6040805160208101969096526001600160a01b0394851690860152929091166060840152608083015260a082015260c0810186905260e001604051602081830303815290604052805190602001209050600061253682613275565b90506000612546828787876132c3565b9050896001600160a01b0316816001600160a01b0316146125a95760405162461bcd60e51b815260206004820152601e60248201527f45524332305065726d69743a20696e76616c6964207369676e617475726500006044820152606401610f3c565b6125b48a8a8a612b2e565b50505050505050505050565b60006101ca83815481106125e457634e487b7160e01b600052603260045260246000fd5b600091825260208083208684526101cb8252604080852033865290925292206007909102909101915061261684611afa565b8054156126f357600061264b8260020154610e6764e8d4a51000610ea087600301548760000154612c5e90919063ffffffff16565b835460405163a9059cbb60e01b8152336004820152602481018390529192506001600160a01b03169063a9059cbb90604401602060405180830381600087803b15801561269757600080fd5b505af11580156126ab573d6000803e3d6000fd5b505050506040513d601f19601f820116820180604052508101906126cf91906144f8565b506126ec611b796101cf546101ce54612c5290919063ffffffff16565b6005840155505b600061270f6127086064610ea0876004612c5e565b8590612c52565b83546040516323b872dd60e01b8152336004820152306024820152604481018790529192506001600160a01b0316906323b872dd90606401602060405180830381600087803b15801561276157600080fd5b505af1158015612775573d6000803e3d6000fd5b505050506040513d601f19601f8201168201806040525081019061279991906144f8565b506101ce546127a89082612c76565b6101ce5581546127b89082612c76565b80835560038401546127d59164e8d4a5100091610ea09190612c5e565b60028301556127e74262093a80614784565b60038301556127f63382613313565b604051818152859033907f90890809c654f11d6e72a28fa60149770a0d11ec6c92319d6ceb2bb0a4ea1a1590602001611228565b600054610100900460ff166128455760005460ff1615612849565b303b155b6128ac5760405162461bcd60e51b815260206004820152602e60248201527f496e697469616c697a61626c653a20636f6e747261637420697320616c72656160448201526d191e481a5b9a5d1a585b1a5e995960921b6064820152608401610f3c565b600054610100900460ff161580156128d7576000805460ff1961ff0019909116610100171660011790555b6001600160a01b03841661292d5760405162461bcd60e51b815260206004820152601860248201527f696e697469616c697a653a205a65726f206164647265737300000000000000006044820152606401610f3c565b61293561331d565b6129776040518060400160405280600481526020016319dbdb1960e21b8152506040518060400160405280600481526020016319dbdb1960e21b815250613354565b61297f6133a7565b6129a46040518060400160405280600481526020016319dbdb1960e21b8152506133db565b6129ac613436565b6101c780546001600160a01b038088166001600160a01b0319928316179092556101c88054928716929091169190911790556101cd8390556101c98290558015611231576000805461ff00191690555050505050565b60408051808201909152600080825260208201526001600160a01b038316600090815261013160205260409020805463ffffffff8416908110612a5557634e487b7160e01b600052603260045260246000fd5b60009182526020918290206040805180820190915291015463ffffffff8116825264010000000090046001600160e01b0316918101919091529392505050565b610162546001600160a01b03163314612ac05760405162461bcd60e51b8152600401610f3c90614704565b6001600160a01b038116612b255760405162461bcd60e51b815260206004820152602660248201527f4f776e61626c653a206e6577206f776e657220697320746865207a65726f206160448201526564647265737360d01b6064820152608401610f3c565b61167181613222565b6001600160a01b038316612b905760405162461bcd60e51b8152602060048201526024808201527f45524332303a20617070726f76652066726f6d20746865207a65726f206164646044820152637265737360e01b6064820152608401610f3c565b6001600160a01b038216612bf15760405162461bcd60e51b815260206004820152602260248201527f45524332303a20617070726f766520746f20746865207a65726f206164647265604482015261737360f01b6064820152608401610f3c565b6001600160a01b0383811660008181526098602090815260408083209487168084529482529182902085905590518481527f8c5be1e5ebec7d5bd14f71427d1e84f3dd0314c0f7b2291e5b200ac8c7c3b925910160405180910390a3505050565b600061151282846147db565b600061151282846147bc565b6000611512828461479c565b60006115128284614784565b6001600160a01b038316612ce65760405162461bcd60e51b815260206004820152602560248201527f45524332303a207472616e736665722066726f6d20746865207a65726f206164604482015264647265737360d81b6064820152608401610f3c565b6001600160a01b038216612d485760405162461bcd60e51b815260206004820152602360248201527f45524332303a207472616e7366657220746f20746865207a65726f206164647260448201526265737360e81b6064820152608401610f3c565b612d5383838361345d565b6001600160a01b03831660009081526097602052604090205481811015612dcb5760405162461bcd60e51b815260206004820152602660248201527f45524332303a207472616e7366657220616d6f756e7420657863656564732062604482015265616c616e636560d01b6064820152608401610f3c565b6001600160a01b03808516600090815260976020526040808220858503905591851681529081208054849290612e02908490614784565b92505081905550826001600160a01b0316846001600160a01b03167fddf252ad1be2c89b69c2b068fc378daa952ba7f163c4a11628f55a4df523b3ef84604051612e4e91815260200190565b60405180910390a3612e618484846134c5565b50505050565b60006115a67f8b73c3c69bb8fe3d512ecc4cf759cc79239f7b179b0ffacaa9a75d522b39400f612e9660c95490565b60ca546040805160208101859052908101839052606081018290524660808201523060a082015260009060c0016040516020818303038152906040528051906020012090509392505050565b7f360894a13ba1a3210667c828492db98dca3e2076cc3735a920a3ca505d382bbc546001600160a01b031690565b33612f24610162546001600160a01b031690565b6001600160a01b0316146116715760405162461bcd60e51b815260206004820152602560248201527f4f6e6c79206f776e65722063616e207570677261646520696d706c656d656e7460448201526430ba34b7b760d91b6064820152608401610f3c565b6000612f92612ee2565b9050612f9d846134d0565b600083511180612faa5750815b15612fbb57612fb98484613575565b505b7f4910fdfa16fed3260ed0e7147f7cc6da11a60208b5b9406d12a635614ffd9143805460ff1661123157805460ff191660011781556040516001600160a01b038316602482015261303a90869060440160408051601f198184030181529190526020810180516001600160e01b0316631b2ce7f360e11b179052613575565b50805460ff1916815561304b612ee2565b6001600160a01b0316826001600160a01b0316146130c35760405162461bcd60e51b815260206004820152602f60248201527f45524331393637557067726164653a207570677261646520627265616b73206660448201526e75727468657220757067726164657360881b6064820152608401610f3c565b61123185613657565b8154600090815b8181101561313e5760006130e78284613697565b90508486828154811061310a57634e487b7160e01b600052603260045260246000fd5b60009182526020909120015463ffffffff16111561312a57809250613138565b613135816001614784565b91505b506130d3565b811561319057846131506001846147db565b8154811061316e57634e487b7160e01b600052603260045260246000fd5b60009182526020909120015464010000000090046001600160e01b0316613193565b60005b6001600160e01b031695945050505050565b611af682826136b2565b611af682826136cb565b600063ffffffff82111561321e5760405162461bcd60e51b815260206004820152602660248201527f53616665436173743a2076616c756520646f65736e27742066697420696e203360448201526532206269747360d01b6064820152608401610f3c565b5090565b61016280546001600160a01b038381166001600160a01b0319831681179093556040519116919082907f8be0079c531659141344cd1fd0a4f28419497f9722a3daafe3b4186f6b6457e090600090a35050565b6000610d4d613282612e67565b8360405161190160f01b6020820152602281018390526042810182905260009060620160405160208183030381529060405280519060200120905092915050565b60008060006132d487878787613746565b915091506132e181613833565b5095945050505050565b6001600160a01b038116600090815260fd602052604090208054600181018255905b50919050565b611af68282613a36565b600054610100900460ff166133445760405162461bcd60e51b8152600401610f3c90614739565b61334c613436565b6120bf613ac1565b600054610100900460ff1661337b5760405162461bcd60e51b8152600401610f3c90614739565b815161338e90609a906020850190614199565b5080516133a290609b906020840190614199565b505050565b600054610100900460ff166133ce5760405162461bcd60e51b8152600401610f3c90614739565b610194805460ff19169055565b600054610100900460ff166134025760405162461bcd60e51b8152600401610f3c90614739565b61340a613436565b61342d81604051806040016040528060018152602001603160f81b815250613af1565b61167181613b32565b600054610100900460ff166120bf5760405162461bcd60e51b8152600401610f3c90614739565b6001600160a01b038316158061347a57506001600160a01b038216155b15613484576133a2565b60405162461bcd60e51b81526020600482015260166024820152752737b7103a3930b739b332b930b13632903a37b5b2b760511b6044820152606401610f3c565b6133a2838383613b80565b803b6135345760405162461bcd60e51b815260206004820152602d60248201527f455243313936373a206e657720696d706c656d656e746174696f6e206973206e60448201526c1bdd08184818dbdb9d1c9858dd609a1b6064820152608401610f3c565b7f360894a13ba1a3210667c828492db98dca3e2076cc3735a920a3ca505d382bbc80546001600160a01b0319166001600160a01b0392909216919091179055565b6060823b6135d45760405162461bcd60e51b815260206004820152602660248201527f416464726573733a2064656c65676174652063616c6c20746f206e6f6e2d636f6044820152651b9d1c9858dd60d21b6064820152608401610f3c565b600080846001600160a01b0316846040516135ef919061461d565b600060405180830381855af49150503d806000811461362a576040519150601f19603f3d011682016040523d82523d6000602084013e61362f565b606091505b509150915061232e82826040518060600160405280602781526020016148be60279139613bb3565b613660816134d0565b6040516001600160a01b038216907fbc7cd75a20ee27fd9adebab32041f755214dbc6bffa90cc0225b39da2e5c2d3b90600090a250565b60006136a6600284841861479c565b61151290848416614784565b6136bc8282613bec565b612e61610132612c5283613d4d565b6001600160a01b0382811660008181526101306020818152604080842080546097845282862054949093528787166001600160a01b03198416811790915590519190951694919391928592917f3134e8a2e6d97e929a7e54011ea5485d7d196dd5f0ba4d4ef95803e8e3fc257f9190a4612e61828483613efe565b6000807f7fffffffffffffffffffffffffffffff5d576e7357a4501ddfe92f46681b20a083111561377d575060009050600361382a565b8460ff16601b1415801561379557508460ff16601c14155b156137a6575060009050600461382a565b6040805160008082526020820180845289905260ff881692820192909252606081018690526080810185905260019060a0016020604051602081039080840390855afa1580156137fa573d6000803e3d6000fd5b5050604051601f1901519150506001600160a01b0381166138235760006001925092505061382a565b9150600090505b94509492505050565b600081600481111561385557634e487b7160e01b600052602160045260246000fd5b141561386057611671565b600181600481111561388257634e487b7160e01b600052602160045260246000fd5b14156138d05760405162461bcd60e51b815260206004820152601860248201527f45434453413a20696e76616c6964207369676e617475726500000000000000006044820152606401610f3c565b60028160048111156138f257634e487b7160e01b600052602160045260246000fd5b14156139405760405162461bcd60e51b815260206004820152601f60248201527f45434453413a20696e76616c6964207369676e6174757265206c656e677468006044820152606401610f3c565b600381600481111561396257634e487b7160e01b600052602160045260246000fd5b14156139bb5760405162461bcd60e51b815260206004820152602260248201527f45434453413a20696e76616c6964207369676e6174757265202773272076616c604482015261756560f01b6064820152608401610f3c565b60048160048111156139dd57634e487b7160e01b600052602160045260246000fd5b14156116715760405162461bcd60e51b815260206004820152602260248201527f45434453413a20696e76616c6964207369676e6174757265202776272076616c604482015261756560f01b6064820152608401610f3c565b613a40828261403d565b6099546001600160e01b031015613ab25760405162461bcd60e51b815260206004820152603060248201527f4552433230566f7465733a20746f74616c20737570706c79207269736b73206f60448201526f766572666c6f77696e6720766f74657360801b6064820152608401610f3c565b612e61610132612c7683613d4d565b600054610100900460ff16613ae85760405162461bcd60e51b8152600401610f3c90614739565b6120bf33613222565b600054610100900460ff16613b185760405162461bcd60e51b8152600401610f3c90614739565b81516020928301208151919092012060c99190915560ca55565b600054610100900460ff16613b595760405162461bcd60e51b8152600401610f3c90614739565b507f6e71edae12b1b97f4d1f60370fef10105fa2faae0126114a169c64845d6126c960fe55565b6001600160a01b03838116600090815261013060205260408082205485841683529120546133a292918216911683613efe565b60608315613bc2575081611512565b825115613bd25782518084602001fd5b8160405162461bcd60e51b8152600401610f3c9190614639565b6001600160a01b038216613c4c5760405162461bcd60e51b815260206004820152602160248201527f45524332303a206275726e2066726f6d20746865207a65726f206164647265736044820152607360f81b6064820152608401610f3c565b613c588260008361345d565b6001600160a01b03821660009081526097602052604090205481811015613ccc5760405162461bcd60e51b815260206004820152602260248201527f45524332303a206275726e20616d6f756e7420657863656564732062616c616e604482015261636560f01b6064820152608401610f3c565b6001600160a01b0383166000908152609760205260408120838303905560998054849290613cfb9084906147db565b90915550506040518281526000906001600160a01b038516907fddf252ad1be2c89b69c2b068fc378daa952ba7f163c4a11628f55a4df523b3ef9060200160405180910390a36133a2836000846134c5565b825460009081908015613da65785613d666001836147db565b81548110613d8457634e487b7160e01b600052603260045260246000fd5b60009182526020909120015464010000000090046001600160e01b0316613da9565b60005b6001600160e01b03169250613dc283858763ffffffff16565b9150600081118015613e0e57504386613ddc6001846147db565b81548110613dfa57634e487b7160e01b600052603260045260246000fd5b60009182526020909120015463ffffffff16145b15613e7c57613e1c82614130565b86613e286001846147db565b81548110613e4657634e487b7160e01b600052603260045260246000fd5b9060005260206000200160000160046101000a8154816001600160e01b0302191690836001600160e01b03160217905550613ef5565b856040518060400160405280613e91436131b9565b63ffffffff168152602001613ea585614130565b6001600160e01b039081169091528254600181018455600093845260209384902083519101805493909401519091166401000000000263ffffffff91821663ffffffff1990931692909217161790555b50935093915050565b816001600160a01b0316836001600160a01b031614158015613f205750600081115b156133a2576001600160a01b03831615613faf576001600160a01b0383166000908152610131602052604081208190613f5c90612c5285613d4d565b91509150846001600160a01b03167fdec2bacdd2f05b59de34da9b523dff8be42e5e38e818c82fdb0bae774387a7248383604051613fa4929190918252602082015260400190565b60405180910390a250505b6001600160a01b038216156133a2576001600160a01b0382166000908152610131602052604081208190613fe690612c7685613d4d565b91509150836001600160a01b03167fdec2bacdd2f05b59de34da9b523dff8be42e5e38e818c82fdb0bae774387a724838360405161402e929190918252602082015260400190565b60405180910390a25050505050565b6001600160a01b0382166140935760405162461bcd60e51b815260206004820152601f60248201527f45524332303a206d696e7420746f20746865207a65726f2061646472657373006044820152606401610f3c565b61409f6000838361345d565b80609960008282546140b19190614784565b90915550506001600160a01b038216600090815260976020526040812080548392906140de908490614784565b90915550506040518181526001600160a01b038316906000907fddf252ad1be2c89b69c2b068fc378daa952ba7f163c4a11628f55a4df523b3ef9060200160405180910390a3611af6600083836134c5565b60006001600160e01b0382111561321e5760405162461bcd60e51b815260206004820152602760248201527f53616665436173743a2076616c756520646f65736e27742066697420696e20326044820152663234206269747360c81b6064820152608401610f3c565b8280546141a59061481e565b90600052602060002090601f0160209004810192826141c7576000855561420d565b82601f106141e057805160ff191683800117855561420d565b8280016001018555821561420d579182015b8281111561420d5782518255916020019190600101906141f2565b5061321e9291505b8082111561321e5760008155600101614215565b803560ff81168114610ca557600080fd5b60006020828403121561424b578081fd5b81356115128161489a565b60008060408385031215614268578081fd5b82356142738161489a565b915060208301356142838161489a565b809150509250929050565b6000806000606084860312156142a2578081fd5b83356142ad8161489a565b925060208401356142bd8161489a565b929592945050506040919091013590565b600080600080608085870312156142e3578081fd5b84356142ee8161489a565b935060208501356142fe8161489a565b93969395505050506040820135916060013590565b600080600080600080600060e0888a03121561432d578283fd5b87356143388161489a565b965060208801356143488161489a565b9550604088013594506060880135935061436460808901614229565b925060a0880135915060c0880135905092959891949750929550565b60008060408385031215614392578182fd5b823561439d8161489a565b9150602083013567ffffffffffffffff808211156143b9578283fd5b818501915085601f8301126143cc578283fd5b8135818111156143de576143de614884565b604051601f8201601f19908116603f0116810190838211818310171561440657614406614884565b8160405282815288602084870101111561441e578586fd5b82602086016020830137856020848301015280955050505050509250929050565b60008060408385031215614451578182fd5b823561445c8161489a565b946020939093013593505050565b60008060008060008060c08789031215614482578182fd5b863561448d8161489a565b955060208701359450604087013593506144a960608801614229565b92506080870135915060a087013590509295509295509295565b600080604083850312156144d5578182fd5b82356144e08161489a565b9150602083013563ffffffff81168114614283578182fd5b600060208284031215614509578081fd5b8151611512816148af565b600060208284031215614525578081fd5b5035919050565b60006020828403121561453d578081fd5b5051919050565b60008060408385031215614556578182fd5b8235915060208301356142838161489a565b60008060006060848603121561457c578081fd5b8335925060208401356142bd8161489a565b6000806000606084860312156145a2578081fd5b8335925060208401356145b48161489a565b915060408401356145c4816148af565b809150509250925092565b600080604083850312156145e1578182fd5b50508035926020909101359150565b600080600060608486031215614604578081fd5b833592506020840135915060408401356145c4816148af565b6000825161462f8184602087016147f2565b9190910192915050565b60006020825282518060208401526146588160408501602087016147f2565b601f01601f19169190910160400192915050565b6020808252602c908201527f46756e6374696f6e206d7573742062652063616c6c6564207468726f7567682060408201526b19195b1959d85d1958d85b1b60a21b606082015260800190565b6020808252602c908201527f46756e6374696f6e206d7573742062652063616c6c6564207468726f7567682060408201526b6163746976652070726f787960a01b606082015260800190565b6020808252818101527f4f776e61626c653a2063616c6c6572206973206e6f7420746865206f776e6572604082015260600190565b6020808252602b908201527f496e697469616c697a61626c653a20636f6e7472616374206973206e6f74206960408201526a6e697469616c697a696e6760a81b606082015260800190565b600082198211156147975761479761486e565b500190565b6000826147b757634e487b7160e01b81526012600452602481fd5b500490565b60008160001904831182151516156147d6576147d661486e565b500290565b6000828210156147ed576147ed61486e565b500390565b60005b8381101561480d5781810151838201526020016147f5565b83811115612e615750506000910152565b60028104600182168061483257607f821691505b6020821081141561330d57634e487b7160e01b600052602260045260246000fd5b60006000198214156148675761486761486e565b5060010190565b634e487b7160e01b600052601160045260246000fd5b634e487b7160e01b600052604160045260246000fd5b6001600160a01b038116811461167157600080fd5b801515811461167157600080fdfe416464726573733a206c6f772d6c6576656c2064656c65676174652063616c6c206661696c6564a2646970667358221220bea056183da042646417b9006b95f4e9bde4916ff817bc67cb4ce03ec73663ae64736f6c63430008020033",
  "linkReferences": {},
  "deployedLinkReferences": {}
}