{
  "_format": "hh-sol-artifact-1",
  "contractName": "Maia",
  "sourceName": "contracts/Maia.sol",
  "abi": [
    {
      "anonymous": false,
      "inputs": [
        {
          "indexed": false,
          "internalType": "address",
          "name": "previousAdmin",
          "type": "address"
        },
        {
          "indexed": false,
          "internalType": "address",
          "name": "newAdmin",
          "type": "address"
        }
      ],
      "name": "AdminChanged",
      "type": "event"
    },
    {
      "anonymous": false,
      "inputs": [
        {
          "indexed": false,
          "internalType": "address",
          "name": "newAdmin",
          "type": "address"
        }
      ],
      "name": "AdminUpdated",
      "type": "event"
    },
    {
      "anonymous": false,
      "inputs": [
        {
          "indexed": true,
          "internalType": "address",
          "name": "owner",
          "type": "address"
        },
        {
          "indexed": true,
          "internalType": "address",
          "name": "spender",
          "type": "address"
        },
        {
          "indexed": false,
          "internalType": "uint256",
          "name": "value",
          "type": "uint256"
        }
      ],
      "name": "Approval",
      "type": "event"
    },
    {
      "anonymous": false,
      "inputs": [
        {
          "indexed": true,
          "internalType": "address",
          "name": "beacon",
          "type": "address"
        }
      ],
      "name": "BeaconUpgraded",
      "type": "event"
    },
    {
      "anonymous": false,
      "inputs": [
        {
          "indexed": true,
          "internalType": "address",
          "name": "delegator",
          "type": "address"
        },
        {
          "indexed": true,
          "internalType": "address",
          "name": "fromDelegate",
          "type": "address"
        },
        {
          "indexed": true,
          "internalType": "address",
          "name": "toDelegate",
          "type": "address"
        }
      ],
      "name": "DelegateChanged",
      "type": "event"
    },
    {
      "anonymous": false,
      "inputs": [
        {
          "indexed": true,
          "internalType": "address",
          "name": "delegate",
          "type": "address"
        },
        {
          "indexed": false,
          "internalType": "uint256",
          "name": "previousBalance",
          "type": "uint256"
        },
        {
          "indexed": false,
          "internalType": "uint256",
          "name": "newBalance",
          "type": "uint256"
        }
      ],
      "name": "DelegateVotesChanged",
      "type": "event"
    },
    {
      "anonymous": false,
      "inputs": [
        {
          "indexed": true,
          "internalType": "address",
          "name": "user",
          "type": "address"
        },
        {
          "indexed": true,
          "internalType": "uint256",
          "name": "pid",
          "type": "uint256"
        },
        {
          "indexed": false,
          "internalType": "uint256",
          "name": "amount",
          "type": "uint256"
        }
      ],
      "name": "Deposit",
      "type": "event"
    },
    {
      "anonymous": false,
      "inputs": [
        {
          "indexed": true,
          "internalType": "address",
          "name": "user",
          "type": "address"
        },
        {
          "indexed": true,
          "internalType": "uint256",
          "name": "pid",
          "type": "uint256"
        },
        {
          "indexed": false,
          "internalType": "uint256",
          "name": "amount",
          "type": "uint256"
        }
      ],
      "name": "EmergencyWithdraw",
      "type": "event"
    },
    {
      "anonymous": false,
      "inputs": [
        {
          "indexed": true,
          "internalType": "address",
          "name": "previousOwner",
          "type": "address"
        },
        {
          "indexed": true,
          "internalType": "address",
          "name": "newOwner",
          "type": "address"
        }
      ],
      "name": "OwnershipTransferred",
      "type": "event"
    },
    {
      "anonymous": false,
      "inputs": [
        {
          "indexed": false,
          "internalType": "address",
          "name": "account",
          "type": "address"
        }
      ],
      "name": "Paused",
      "type": "event"
    },
    {
      "anonymous": false,
      "inputs": [
        {
          "indexed": true,
          "internalType": "address",
          "name": "from",
          "type": "address"
        },
        {
          "indexed": true,
          "internalType": "address",
          "name": "to",
          "type": "address"
        },
        {
          "indexed": false,
          "internalType": "uint256",
          "name": "value",
          "type": "uint256"
        }
      ],
      "name": "Transfer",
      "type": "event"
    },
    {
      "anonymous": false,
      "inputs": [
        {
          "indexed": false,
          "internalType": "address",
          "name": "account",
          "type": "address"
        }
      ],
      "name": "Unpaused",
      "type": "event"
    },
    {
      "anonymous": false,
      "inputs": [
        {
          "indexed": true,
          "internalType": "address",
          "name": "implementation",
          "type": "address"
        }
      ],
      "name": "Upgraded",
      "type": "event"
    },
    {
      "anonymous": false,
      "inputs": [
        {
          "indexed": true,
          "internalType": "address",
          "name": "user",
          "type": "address"
        },
        {
          "indexed": true,
          "internalType": "uint256",
          "name": "pid",
          "type": "uint256"
        },
        {
          "indexed": false,
          "internalType": "uint256",
          "name": "amount",
          "type": "uint256"
        }
      ],
      "name": "Withdraw",
      "type": "event"
    },
    {
      "inputs": [],
      "name": "BONUS_MULTIPLIER",
      "outputs": [
        {
          "internalType": "uint256",
          "name": "",
          "type": "uint256"
        }
      ],
      "stateMutability": "view",
      "type": "function"
    },
    {
      "inputs": [],
      "name": "DOMAIN_SEPARATOR",
      "outputs": [
        {
          "internalType": "bytes32",
          "name": "",
          "type": "bytes32"
        }
      ],
      "stateMutability": "view",
      "type": "function"
    },
    {
      "inputs": [],
      "name": "GOLD",
      "outputs": [
        {
          "internalType": "contract IERC20",
          "name": "",
          "type": "address"
        }
      ],
      "stateMutability": "view",
      "type": "function"
    },
    {
      "inputs": [
        {
          "internalType": "uint256",
          "name": "_pid",
          "type": "uint256"
        },
        {
          "internalType": "address",
          "name": "_to",
          "type": "address"
        },
        {
          "internalType": "uint256",
          "name": "_amount",
          "type": "uint256"
        }
      ],
      "name": "accessGOLDTokens",
      "outputs": [],
      "stateMutability": "nonpayable",
      "type": "function"
    },
    {
      "inputs": [
        {
          "internalType": "uint256",
          "name": "_allocPoint",
          "type": "uint256"
        },
        {
          "internalType": "contract IERC20",
          "name": "_lpToken",
          "type": "address"
        },
        {
          "internalType": "bool",
          "name": "_withUpdate",
          "type": "bool"
        }
      ],
      "name": "add",
      "outputs": [],
      "stateMutability": "nonpayable",
      "type": "function"
    },
    {
      "inputs": [
        {
          "internalType": "address",
          "name": "_adminAddress",
          "type": "address"
        }
      ],
      "name": "admin",
      "outputs": [],
      "stateMutability": "nonpayable",
      "type": "function"
    },
    {
      "inputs": [],
      "name": "adminAddress",
      "outputs": [
        {
          "internalType": "address",
          "name": "",
          "type": "address"
        }
      ],
      "stateMutability": "view",
      "type": "function"
    },
    {
      "inputs": [
        {
          "internalType": "address",
          "name": "owner",
          "type": "address"
        },
        {
          "internalType": "address",
          "name": "spender",
          "type": "address"
        }
      ],
      "name": "allowance",
      "outputs": [
        {
          "internalType": "uint256",
          "name": "",
          "type": "uint256"
        }
      ],
      "stateMutability": "view",
      "type": "function"
    },
    {
      "inputs": [
        {
          "internalType": "address",
          "name": "spender",
          "type": "address"
        },
        {
          "internalType": "uint256",
          "name": "amount",
          "type": "uint256"
        }
      ],
      "name": "approve",
      "outputs": [
        {
          "internalType": "bool",
          "name": "",
          "type": "bool"
        }
      ],
      "stateMutability": "nonpayable",
      "type": "function"
    },
    {
      "inputs": [
        {
          "internalType": "address",
          "name": "account",
          "type": "address"
        }
      ],
      "name": "balanceOf",
      "outputs": [
        {
          "internalType": "uint256",
          "name": "",
          "type": "uint256"
        }
      ],
      "stateMutability": "view",
      "type": "function"
    },
    {
      "inputs": [
        {
          "internalType": "address",
          "name": "account",
          "type": "address"
        },
        {
          "internalType": "uint32",
          "name": "pos",
          "type": "uint32"
        }
      ],
      "name": "checkpoints",
      "outputs": [
        {
          "components": [
            {
              "internalType": "uint32",
              "name": "fromBlock",
              "type": "uint32"
            },
            {
              "internalType": "uint224",
              "name": "votes",
              "type": "uint224"
            }
          ],
          "internalType": "struct ERC20VotesUpgradeable.Checkpoint",
          "name": "",
          "type": "tuple"
        }
      ],
      "stateMutability": "view",
      "type": "function"
    },
    {
      "inputs": [
        {
          "internalType": "uint256",
          "name": "_pid",
          "type": "uint256"
        }
      ],
      "name": "claimGOLD",
      "outputs": [],
      "stateMutability": "nonpayable",
      "type": "function"
    },
    {
      "inputs": [],
      "name": "decimals",
      "outputs": [
        {
          "internalType": "uint8",
          "name": "",
          "type": "uint8"
        }
      ],
      "stateMutability": "view",
      "type": "function"
    },
    {
      "inputs": [
        {
          "internalType": "address",
          "name": "spender",
          "type": "address"
        },
        {
          "internalType": "uint256",
          "name": "subtractedValue",
          "type": "uint256"
        }
      ],
      "name": "decreaseAllowance",
      "outputs": [
        {
          "internalType": "bool",
          "name": "",
          "type": "bool"
        }
      ],
      "stateMutability": "nonpayable",
      "type": "function"
    },
    {
      "inputs": [
        {
          "internalType": "address",
          "name": "delegatee",
          "type": "address"
        }
      ],
      "name": "delegate",
      "outputs": [],
      "stateMutability": "nonpayable",
      "type": "function"
    },
    {
      "inputs": [
        {
          "internalType": "address",
          "name": "delegatee",
          "type": "address"
        },
        {
          "internalType": "uint256",
          "name": "nonce",
          "type": "uint256"
        },
        {
          "internalType": "uint256",
          "name": "expiry",
          "type": "uint256"
        },
        {
          "internalType": "uint8",
          "name": "v",
          "type": "uint8"
        },
        {
          "internalType": "bytes32",
          "name": "r",
          "type": "bytes32"
        },
        {
          "internalType": "bytes32",
          "name": "s",
          "type": "bytes32"
        }
      ],
      "name": "delegateBySig",
      "outputs": [],
      "stateMutability": "nonpayable",
      "type": "function"
    },
    {
      "inputs": [
        {
          "internalType": "address",
          "name": "account",
          "type": "address"
        }
      ],
      "name": "delegates",
      "outputs": [
        {
          "internalType": "address",
          "name": "",
          "type": "address"
        }
      ],
      "stateMutability": "view",
      "type": "function"
    },
    {
      "inputs": [
        {
          "internalType": "uint256",
          "name": "_pid",
          "type": "uint256"
        },
        {
          "internalType": "uint256",
          "name": "_amount",
          "type": "uint256"
        }
      ],
      "name": "deposit",
      "outputs": [],
      "stateMutability": "nonpayable",
      "type": "function"
    },
    {
      "inputs": [
        {
          "internalType": "uint256",
          "name": "_from",
          "type": "uint256"
        },
        {
          "internalType": "uint256",
          "name": "_to",
          "type": "uint256"
        }
      ],
      "name": "getMultiplier",
      "outputs": [
        {
          "internalType": "uint256",
          "name": "",
          "type": "uint256"
        }
      ],
      "stateMutability": "pure",
      "type": "function"
    },
    {
      "inputs": [
        {
          "internalType": "uint256",
          "name": "blockNumber",
          "type": "uint256"
        }
      ],
      "name": "getPastTotalSupply",
      "outputs": [
        {
          "internalType": "uint256",
          "name": "",
          "type": "uint256"
        }
      ],
      "stateMutability": "view",
      "type": "function"
    },
    {
      "inputs": [
        {
          "internalType": "address",
          "name": "account",
          "type": "address"
        },
        {
          "internalType": "uint256",
          "name": "blockNumber",
          "type": "uint256"
        }
      ],
      "name": "getPastVotes",
      "outputs": [
        {
          "internalType": "uint256",
          "name": "",
          "type": "uint256"
        }
      ],
      "stateMutability": "view",
      "type": "function"
    },
    {
      "inputs": [
        {
          "internalType": "uint256",
          "name": "_pid",
          "type": "uint256"
        }
      ],
      "name": "getPool",
      "outputs": [
        {
          "components": [
            {
              "internalType": "contract IERC20",
              "name": "lpToken",
              "type": "address"
            },
            {
              "internalType": "uint256",
              "name": "allocPoint",
              "type": "uint256"
            },
            {
              "internalType": "uint256",
              "name": "lastRewardBlock",
              "type": "uint256"
            },
            {
              "internalType": "uint256",
              "name": "accGOLDPerShare",
              "type": "uint256"
            },
            {
              "internalType": "uint256",
              "name": "lastTotalGOLDReward",
              "type": "uint256"
            },
            {
              "internalType": "uint256",
              "name": "lastGOLDRewardBalance",
              "type": "uint256"
            },
            {
              "internalType": "uint256",
              "name": "totalGOLDReward",
              "type": "uint256"
            }
          ],
          "internalType": "struct Maia.PoolInfo",
          "name": "",
          "type": "tuple"
        }
      ],
      "stateMutability": "view",
      "type": "function"
    },
    {
      "inputs": [
        {
          "internalType": "uint256",
          "name": "_pid",
          "type": "uint256"
        },
        {
          "internalType": "address",
          "name": "_user",
          "type": "address"
        }
      ],
      "name": "getUser",
      "outputs": [
        {
          "components": [
            {
              "internalType": "uint256",
              "name": "amount",
              "type": "uint256"
            },
            {
              "internalType": "uint256",
              "name": "rewardDebt",
              "type": "uint256"
            },
            {
              "internalType": "uint256",
              "name": "rewargoldDebt",
              "type": "uint256"
            },
            {
              "internalType": "uint256",
              "name": "stakeEnd",
              "type": "uint256"
            }
          ],
          "internalType": "struct Maia.UserInfo",
          "name": "",
          "type": "tuple"
        }
      ],
      "stateMutability": "view",
      "type": "function"
    },
    {
      "inputs": [
        {
          "internalType": "address",
          "name": "account",
          "type": "address"
        }
      ],
      "name": "getVotes",
      "outputs": [
        {
          "internalType": "uint256",
          "name": "",
          "type": "uint256"
        }
      ],
      "stateMutability": "view",
      "type": "function"
    },
    {
      "inputs": [],
      "name": "gold",
      "outputs": [
        {
          "internalType": "contract IERC20",
          "name": "",
          "type": "address"
        }
      ],
      "stateMutability": "view",
      "type": "function"
    },
    {
      "inputs": [
        {
          "internalType": "address",
          "name": "spender",
          "type": "address"
        },
        {
          "internalType": "uint256",
          "name": "addedValue",
          "type": "uint256"
        }
      ],
      "name": "increaseAllowance",
      "outputs": [
        {
          "internalType": "bool",
          "name": "",
          "type": "bool"
        }
      ],
      "stateMutability": "nonpayable",
      "type": "function"
    },
    {
      "inputs": [
        {
          "internalType": "address",
          "name": "_GOLD",
          "type": "address"
        },
        {
          "internalType": "address",
          "name": "_adminAddress",
          "type": "address"
        },
        {
          "internalType": "uint256",
          "name": "_startBlock",
          "type": "uint256"
        },
        {
          "internalType": "uint256",
          "name": "_topStakerNumber",
          "type": "uint256"
        }
      ],
      "name": "initialize",
      "outputs": [],
      "stateMutability": "nonpayable",
      "type": "function"
    },
    {
      "inputs": [],
      "name": "massUpdatePools",
      "outputs": [],
      "stateMutability": "nonpayable",
      "type": "function"
    },
    {
      "inputs": [],
      "name": "name",
      "outputs": [
        {
          "internalType": "string",
          "name": "",
          "type": "string"
        }
      ],
      "stateMutability": "view",
      "type": "function"
    },
    {
      "inputs": [
        {
          "internalType": "address",
          "name": "owner",
          "type": "address"
        }
      ],
      "name": "nonces",
      "outputs": [
        {
          "internalType": "uint256",
          "name": "",
          "type": "uint256"
        }
      ],
      "stateMutability": "view",
      "type": "function"
    },
    {
      "inputs": [
        {
          "internalType": "address",
          "name": "account",
          "type": "address"
        }
      ],
      "name": "numCheckpoints",
      "outputs": [
        {
          "internalType": "uint32",
          "name": "",
          "type": "uint32"
        }
      ],
      "stateMutability": "view",
      "type": "function"
    },
    {
      "inputs": [],
      "name": "owner",
      "outputs": [
        {
          "internalType": "address",
          "name": "",
          "type": "address"
        }
      ],
      "stateMutability": "view",
      "type": "function"
    },
    {
      "inputs": [],
      "name": "paused",
      "outputs": [
        {
          "internalType": "bool",
          "name": "",
          "type": "bool"
        }
      ],
      "stateMutability": "view",
      "type": "function"
    },
    {
      "inputs": [
        {
          "internalType": "uint256",
          "name": "_pid",
          "type": "uint256"
        },
        {
          "internalType": "address",
          "name": "_user",
          "type": "address"
        }
      ],
      "name": "pendingGOLD",
      "outputs": [
        {
          "internalType": "uint256",
          "name": "",
          "type": "uint256"
        }
      ],
      "stateMutability": "view",
      "type": "function"
    },
    {
      "inputs": [
        {
          "internalType": "address",
          "name": "owner",
          "type": "address"
        },
        {
          "internalType": "address",
          "name": "spender",
          "type": "address"
        },
        {
          "internalType": "uint256",
          "name": "value",
          "type": "uint256"
        },
        {
          "internalType": "uint256",
          "name": "deadline",
          "type": "uint256"
        },
        {
          "internalType": "uint8",
          "name": "v",
          "type": "uint8"
        },
        {
          "internalType": "bytes32",
          "name": "r",
          "type": "bytes32"
        },
        {
          "internalType": "bytes32",
          "name": "s",
          "type": "bytes32"
        }
      ],
      "name": "permit",
      "outputs": [],
      "stateMutability": "nonpayable",
      "type": "function"
    },
    {
      "inputs": [
        {
          "internalType": "uint256",
          "name": "",
          "type": "uint256"
        }
      ],
      "name": "poolInfo",
      "outputs": [
        {
          "internalType": "contract IERC20",
          "name": "lpToken",
          "type": "address"
        },
        {
          "internalType": "uint256",
          "name": "allocPoint",
          "type": "uint256"
        },
        {
          "internalType": "uint256",
          "name": "lastRewardBlock",
          "type": "uint256"
        },
        {
          "internalType": "uint256",
          "name": "accGOLDPerShare",
          "type": "uint256"
        },
        {
          "internalType": "uint256",
          "name": "lastTotalGOLDReward",
          "type": "uint256"
        },
        {
          "internalType": "uint256",
          "name": "lastGOLDRewardBalance",
          "type": "uint256"
        },
        {
          "internalType": "uint256",
          "name": "totalGOLDReward",
          "type": "uint256"
        }
      ],
      "stateMutability": "view",
      "type": "function"
    },
    {
      "inputs": [],
      "name": "poolLength",
      "outputs": [
        {
          "internalType": "uint256",
          "name": "",
          "type": "uint256"
        }
      ],
      "stateMutability": "view",
      "type": "function"
    },
    {
      "inputs": [],
      "name": "renounceOwnership",
      "outputs": [],
      "stateMutability": "nonpayable",
      "type": "function"
    },
    {
      "inputs": [
        {
          "internalType": "uint256",
          "name": "_pid",
          "type": "uint256"
        },
        {
          "internalType": "uint256",
          "name": "_allocPoint",
          "type": "uint256"
        },
        {
          "internalType": "bool",
          "name": "_withUpdate",
          "type": "bool"
        }
      ],
      "name": "set",
      "outputs": [],
      "stateMutability": "nonpayable",
      "type": "function"
    },
    {
      "inputs": [],
      "name": "startBlock",
      "outputs": [
        {
          "internalType": "uint256",
          "name": "",
          "type": "uint256"
        }
      ],
      "stateMutability": "view",
      "type": "function"
    },
    {
      "inputs": [],
      "name": "symbol",
      "outputs": [
        {
          "internalType": "string",
          "name": "",
          "type": "string"
        }
      ],
      "stateMutability": "view",
      "type": "function"
    },
    {
      "inputs": [],
      "name": "topStakerNumber",
      "outputs": [
        {
          "internalType": "uint256",
          "name": "",
          "type": "uint256"
        }
      ],
      "stateMutability": "view",
      "type": "function"
    },
    {
      "inputs": [],
      "name": "totalAllocPoint",
      "outputs": [
        {
          "internalType": "uint256",
          "name": "",
          "type": "uint256"
        }
      ],
      "stateMutability": "view",
      "type": "function"
    },
    {
      "inputs": [],
      "name": "totalGOLDStaked",
      "outputs": [
        {
          "internalType": "uint256",
          "name": "",
          "type": "uint256"
        }
      ],
      "stateMutability": "view",
      "type": "function"
    },
    {
      "inputs": [],
      "name": "totalGOLDUsedForPurchase",
      "outputs": [
        {
          "internalType": "uint256",
          "name": "",
          "type": "uint256"
        }
      ],
      "stateMutability": "view",
      "type": "function"
    },
    {
      "inputs": [],
      "name": "totalSupply",
      "outputs": [
        {
          "internalType": "uint256",
          "name": "",
          "type": "uint256"
        }
      ],
      "stateMutability": "view",
      "type": "function"
    },
    {
      "inputs": [
        {
          "internalType": "address",
          "name": "recipient",
          "type": "address"
        },
        {
          "internalType": "uint256",
          "name": "amount",
          "type": "uint256"
        }
      ],
      "name": "transfer",
      "outputs": [
        {
          "internalType": "bool",
          "name": "",
          "type": "bool"
        }
      ],
      "stateMutability": "nonpayable",
      "type": "function"
    },
    {
      "inputs": [
        {
          "internalType": "address",
          "name": "sender",
          "type": "address"
        },
        {
          "internalType": "address",
          "name": "recipient",
          "type": "address"
        },
        {
          "internalType": "uint256",
          "name": "amount",
          "type": "uint256"
        }
      ],
      "name": "transferFrom",
      "outputs": [
        {
          "internalType": "bool",
          "name": "",
          "type": "bool"
        }
      ],
      "stateMutability": "nonpayable",
      "type": "function"
    },
    {
      "inputs": [
        {
          "internalType": "address",
          "name": "newOwner",
          "type": "address"
        }
      ],
      "name": "transferOwnership",
      "outputs": [],
      "stateMutability": "nonpayable",
      "type": "function"
    },
    {
      "inputs": [
        {
          "internalType": "uint256",
          "name": "_pid",
          "type": "uint256"
        }
      ],
      "name": "updatePool",
      "outputs": [],
      "stateMutability": "nonpayable",
      "type": "function"
    },
    {
      "inputs": [
        {
          "internalType": "address",
          "name": "newImplementation",
          "type": "address"
        }
      ],
      "name": "upgradeTo",
      "outputs": [],
      "stateMutability": "nonpayable",
      "type": "function"
    },
    {
      "inputs": [
        {
          "internalType": "address",
          "name": "newImplementation",
          "type": "address"
        },
        {
          "internalType": "bytes",
          "name": "data",
          "type": "bytes"
        }
      ],
      "name": "upgradeToAndCall",
      "outputs": [],
      "stateMutability": "payable",
      "type": "function"
    },
    {
      "inputs": [
        {
          "internalType": "uint256",
          "name": "",
          "type": "uint256"
        },
        {
          "internalType": "address",
          "name": "",
          "type": "address"
        }
      ],
      "name": "userInfo",
      "outputs": [
        {
          "internalType": "uint256",
          "name": "amount",
          "type": "uint256"
        },
        {
          "internalType": "uint256",
          "name": "rewardDebt",
          "type": "uint256"
        },
        {
          "internalType": "uint256",
          "name": "rewargoldDebt",
          "type": "uint256"
        },
        {
          "internalType": "uint256",
          "name": "stakeEnd",
          "type": "uint256"
        }
      ],
      "stateMutability": "view",
      "type": "function"
    },
    {
      "inputs": [
        {
          "internalType": "uint256",
          "name": "_pid",
          "type": "uint256"
        },
        {
          "internalType": "uint256",
          "name": "_amount",
          "type": "uint256"
        }
      ],
      "name": "withdraw",
      "outputs": [],
      "stateMutability": "nonpayable",
      "type": "function"
    }
  ],
  "bytecode": "0x60a06040523060601b60805234801561001757600080fd5b5060805160601c61470361004b6000396000818161154001528181611580015281816119ab01526119eb01526147036000f3fe6080604052600436106103355760003560e01c8063630b5ba1116101ab57806395d89b41116100f7578063e2bbb15811610095578063f2fde38b1161006f578063f2fde38b14610ae0578063f8b535ac14610b00578063fbec6f2114610b17578063fc6f946814610b3857610335565b8063e2bbb15814610a56578063eb990c5914610a76578063f1127ed814610a9657610335565b8063a9059cbb116100d1578063a9059cbb146109b0578063c3cda520146109d0578063d505accf146109f0578063dd62ed3e14610a1057610335565b806395d89b411461095b5780639ab24eb014610970578063a457c2d71461099057610335565b8063715018a6116101645780638da5cb5b1161013e5780638da5cb5b1461088e5780638dbb1e3a146108ad5780638e539e8c146108cd57806393f1a40b146108ed57610335565b8063715018a6146108445780637ecebe00146108595780638aa285501461087957610335565b8063630b5ba11461076d57806363a846f81461078257806364482f79146107a25780636f10947c146107c25780636fcfff45146107d957806370a082311461080e57610335565b8063313ce5671161028557806348cd4cb111610223578063587cde1e116101fd578063587cde1e146106da5780635b3c25ce146107145780635c19a95c146107345780635c975abb1461075457610335565b806348cd4cb1146106905780634f1ef286146106a757806351eb05a6146106ba57610335565b8063395093511161025f57806339509351146105f75780633a46b1a8146106175780633e4bee3814610637578063441a3e701461067057610335565b8063313ce567146105a65780633644e515146105c25780633659cfe6146105d757610335565b80630d3c5df0116102f257806318160ddd116102cc57806318160ddd146104fe5780631eaaa0451461051357806323b872dd14610533578063257664a41461055357610335565b80630d3c5df0146104665780631526fe271461048857806317caf6f1146104e757610335565b8063017e58ca1461033a578063068bcd8d1461036457806306fdde03146103de578063081e3eda14610400578063095ea7b3146104165780630bc1a00514610446575b600080fd5b34801561034657600080fd5b506103516101ce5481565b6040519081526020015b60405180910390f35b34801561037057600080fd5b5061038461037f3660046142fd565b610b59565b60405161035b919081516001600160a01b031681526020808301519082015260408083015190820152606080830151908201526080808301519082015260a0828101519082015260c0918201519181019190915260e00190565b3480156103ea57600080fd5b506103f3610c34565b60405161035b9190614422565b34801561040c57600080fd5b506101ca54610351565b34801561042257600080fd5b50610436610431366004614228565b610cc6565b604051901515815260200161035b565b34801561045257600080fd5b5061035161046136600461432d565b610cdd565b34801561047257600080fd5b50610486610481366004614351565b610e6f565b005b34801561049457600080fd5b506104a86104a33660046142fd565b6111c2565b604080516001600160a01b0390981688526020880196909652948601939093526060850191909152608084015260a083015260c082015260e00161035b565b3480156104f357600080fd5b506103516101cc5481565b34801561050a57600080fd5b50609954610351565b34801561051f57600080fd5b5061048661052e366004614377565b61121c565b34801561053f57600080fd5b5061043661054e366004614077565b6113f7565b34801561055f57600080fd5b5061057361056e36600461432d565b6114a3565b60405161035b91908151815260208083015190820152604080830151908201526060918201519181019190915260800190565b3480156105b257600080fd5b506040516012815260200161035b565b3480156105ce57600080fd5b50610351611526565b3480156105e357600080fd5b506104866105f2366004614023565b611535565b34801561060357600080fd5b50610436610612366004614228565b6115fe565b34801561062357600080fd5b50610351610632366004614228565b61163a565b34801561064357600080fd5b506101c754610658906001600160a01b031681565b6040516001600160a01b03909116815260200161035b565b34801561067c57600080fd5b5061048661068b3660046143b8565b6116ae565b34801561069c57600080fd5b506103516101cd5481565b6104866106b5366004614169565b6119a0565b3480156106c657600080fd5b506104866106d53660046142fd565b611a5a565b3480156106e657600080fd5b506106586106f5366004614023565b6001600160a01b03908116600090815261013060205260409020541690565b34801561072057600080fd5b5061048661072f3660046142fd565b611ba1565b34801561074057600080fd5b5061048661074f366004614023565b611cfc565b34801561076057600080fd5b506101945460ff16610436565b34801561077957600080fd5b50610486611d06565b34801561078e57600080fd5b5061048661079d366004614023565b611d2e565b3480156107ae57600080fd5b506104866107bd3660046143d9565b611e18565b3480156107ce57600080fd5b506103516101c95481565b3480156107e557600080fd5b506107f96107f4366004614023565b611ee8565b60405163ffffffff909116815260200161035b565b34801561081a57600080fd5b50610351610829366004614023565b6001600160a01b031660009081526097602052604090205490565b34801561085057600080fd5b50610486611f0b565b34801561086557600080fd5b50610351610874366004614023565b611f42565b34801561088557600080fd5b50610351600181565b34801561089a57600080fd5b50610162546001600160a01b0316610658565b3480156108b957600080fd5b506103516108c83660046143b8565b611f60565b3480156108d957600080fd5b506103516108e83660046142fd565b611f8f565b3480156108f957600080fd5b5061093b61090836600461432d565b6101cb60209081526000928352604080842090915290825290208054600182015460028301546003909301549192909184565b60408051948552602085019390935291830152606082015260800161035b565b34801561096757600080fd5b506103f3611fec565b34801561097c57600080fd5b5061035161098b366004614023565b611ffb565b34801561099c57600080fd5b506104366109ab366004614228565b612092565b3480156109bc57600080fd5b506104366109cb366004614228565b61212b565b3480156109dc57600080fd5b506104866109eb366004614253565b612138565b3480156109fc57600080fd5b50610486610a0b3660046140fc565b61226e565b348015610a1c57600080fd5b50610351610a2b36600461403f565b6001600160a01b03918216600090815260986020908152604080832093909416825291909152205490565b348015610a6257600080fd5b50610486610a713660046143b8565b6123b4565b348015610a8257600080fd5b50610486610a913660046140b7565b61260a565b348015610aa257600080fd5b50610ab6610ab13660046142ac565b6127e2565b60408051825163ffffffff1681526020928301516001600160e01b0316928101929092520161035b565b348015610aec57600080fd5b50610486610afb366004614023565b612875565b348015610b0c57600080fd5b506103516101cf5481565b348015610b2357600080fd5b506101c654610658906001600160a01b031681565b348015610b4457600080fd5b506101c854610658906001600160a01b031681565b610ba26040518060e0016040528060006001600160a01b031681526020016000815260200160008152602001600081526020016000815260200160008152602001600081525090565b6101ca8281548110610bc457634e487b7160e01b600052603260045260246000fd5b60009182526020918290206040805160e081018252600790930290910180546001600160a01b031683526001810154938301939093526002830154908201526003820154606082015260048201546080820152600582015460a082015260069091015460c082015290505b919050565b6060609a8054610c4390614607565b80601f0160208091040260200160405190810160405280929190818152602001828054610c6f90614607565b8015610cbc5780601f10610c9157610100808354040283529160200191610cbc565b820191906000526020600020905b815481529060010190602001808311610c9f57829003601f168201915b5050505050905090565b6000610cd333848461290e565b5060015b92915050565b6000806101ca8481548110610d0257634e487b7160e01b600052603260045260246000fd5b600091825260208083208784526101cb825260408085206001600160a01b0389168652909252922060036007909202909201908101546101ce546002830154929450909143118015610d5357508015155b15610e3c576000610df7610d766101cf546101ce54612a3290919063ffffffff16565b86546040516370a0823160e01b81523060048201526001600160a01b03909116906370a08231906024015b60206040518083038186803b158015610db957600080fd5b505afa158015610dcd573d6000803e3d6000fd5b505050506040513d601f19601f82011682018060405250810190610df19190614315565b90612a32565b90506000610e12866005015483612a3290919063ffffffff16565b9050610e37610e3084610e2a8464e8d4a51000612a3e565b90612a4a565b8590612a56565b935050505b610e648360020154610df164e8d4a51000610e2a868860000154612a3e90919063ffffffff16565b979650505050505050565b6101c8546001600160a01b03163314610ecf5760405162461bcd60e51b815260206004820152601c60248201527f73656e646572206d7573742062652061646d696e20616464726573730000000060448201526064015b60405180910390fd5b80610ee96101cf546101ce54612a3290919063ffffffff16565b1015610f4b5760405162461bcd60e51b815260206004820152602b60248201527f416d6f756e74206d757374206265206c657373207468616e207374616b65642060448201526a11d3d31108185b5bdd5b9d60aa1b6064820152608401610ec6565b60006101ca8481548110610f6f57634e487b7160e01b600052603260045260246000fd5b6000918252602082206007919091020180546040516370a0823160e01b81523060048201529193506001600160a01b0316906370a082319060240160206040518083038186803b158015610fc257600080fd5b505afa158015610fd6573d6000803e3d6000fd5b505050506040513d601f19601f82011682018060405250810190610ffa9190614315565b9050808311156110e157815460405163a9059cbb60e01b81526001600160a01b038681166004830152602482018490529091169063a9059cbb90604401602060405180830381600087803b15801561105157600080fd5b505af1158015611065573d6000803e3d6000fd5b505050506040513d601f19601f8201168201806040525081019061108991906142e1565b506101cf546110989082612a56565b6101cf5560405181815285906001600160a01b038616907fbb757047c2b5f3974fe26b7c10f732e7bce710b0952a71082702781e62ae05959060200160405180910390a36111bb565b815460405163a9059cbb60e01b81526001600160a01b038681166004830152602482018690529091169063a9059cbb90604401602060405180830381600087803b15801561112e57600080fd5b505af1158015611142573d6000803e3d6000fd5b505050506040513d601f19601f8201168201806040525081019061116691906142e1565b506101cf546111759084612a56565b6101cf5560405183815285906001600160a01b038616907fbb757047c2b5f3974fe26b7c10f732e7bce710b0952a71082702781e62ae0595906020015b60405180910390a35b5050505050565b6101ca81815481106111d357600080fd5b600091825260209091206007909102018054600182015460028301546003840154600485015460058601546006909601546001600160a01b039095169650929491939092919087565b610162546001600160a01b031633146112475760405162461bcd60e51b8152600401610ec6906144ed565b801561125557611255611d06565b60006101cd54431161126a576101cd5461126c565b435b6101cc5490915061127d9085612a56565b6101cc556040805160e0810182526001600160a01b039485168152602081019586529081019182526000606082018181526080830182815260a0840183815260c085018481526101ca8054600181018255955294517f0faeda9012b7f59bd2a84ac2a33ead5fc9f720c38d8bbf90db1ac3c1518386eb600790950294850180546001600160a01b031916919099161790975596517f0faeda9012b7f59bd2a84ac2a33ead5fc9f720c38d8bbf90db1ac3c1518386ec83015592517f0faeda9012b7f59bd2a84ac2a33ead5fc9f720c38d8bbf90db1ac3c1518386ed82015591517f0faeda9012b7f59bd2a84ac2a33ead5fc9f720c38d8bbf90db1ac3c1518386ee83015593517f0faeda9012b7f59bd2a84ac2a33ead5fc9f720c38d8bbf90db1ac3c1518386ef82015591517f0faeda9012b7f59bd2a84ac2a33ead5fc9f720c38d8bbf90db1ac3c1518386f08301555090517f0faeda9012b7f59bd2a84ac2a33ead5fc9f720c38d8bbf90db1ac3c1518386f190910155565b6000611404848484612a62565b6001600160a01b0384166000908152609860209081526040808320338452909152902054828110156114895760405162461bcd60e51b815260206004820152602860248201527f45524332303a207472616e7366657220616d6f756e74206578636565647320616044820152676c6c6f77616e636560c01b6064820152608401610ec6565b611496853385840361290e565b60019150505b9392505050565b6114ce6040518060800160405280600081526020016000815260200160008152602001600081525090565b5060009182526101cb602090815260408084206001600160a01b039390931684529181529181902081516080810183528154815260018201549381019390935260028101549183019190915260030154606082015290565b6000611530612c47565b905090565b306001600160a01b037f000000000000000000000000000000000000000000000000000000000000000016141561157e5760405162461bcd60e51b8152600401610ec690614455565b7f00000000000000000000000000000000000000000000000000000000000000006001600160a01b03166115b0612cc2565b6001600160a01b0316146115d65760405162461bcd60e51b8152600401610ec6906144a1565b6115df81612cf0565b604080516000808252602082019092526115fb91839190612d68565b50565b3360008181526098602090815260408083206001600160a01b03871684529091528120549091610cd391859061163590869061456d565b61290e565b600043821061168b5760405162461bcd60e51b815260206004820152601f60248201527f4552433230566f7465733a20626c6f636b206e6f7420796574206d696e6564006044820152606401610ec6565b6001600160a01b03831660009081526101316020526040902061149c9083612eac565b60006101ca83815481106116d257634e487b7160e01b600052603260045260246000fd5b600091825260208083208684526101cb8252604080852033865290925292208054600790920290920192508311156117415760405162461bcd60e51b81526020600482015260126024820152711dda5d1a191c985dce881b9bdd0819dbdbd960721b6044820152606401610ec6565b806003015442101561178a5760405162461bcd60e51b81526020600482015260126024820152713bb4ba34323930bb9d103a37b79039b7b7b760711b6044820152606401610ec6565b61179384611a5a565b60006117c18260020154610df164e8d4a51000610e2a87600301548760000154612a3e90919063ffffffff16565b9050801561184e57825460405163a9059cbb60e01b8152336004820152602481018390526001600160a01b039091169063a9059cbb90604401602060405180830381600087803b15801561181457600080fd5b505af1158015611828573d6000803e3d6000fd5b505050506040513d601f19601f8201168201806040525081019061184c91906142e1565b505b61189961186a6101cf546101ce54612a3290919063ffffffff16565b84546040516370a0823160e01b81523060048201526001600160a01b03909116906370a0823190602401610da1565b600584015581546118aa9085612a32565b82556101ce546118ba9085612a32565b6101ce55600383015482546118d99164e8d4a5100091610e2a91612a3e565b6002830155825460405163a9059cbb60e01b8152336004820152602481018690526001600160a01b039091169063a9059cbb90604401602060405180830381600087803b15801561192957600080fd5b505af115801561193d573d6000803e3d6000fd5b505050506040513d601f19601f8201168201806040525081019061196191906142e1565b5061196c3385612f85565b604051848152859033907ff279e6a1f5e320cca91135676d9cb6e44ca8a08c0b88342bcdb1144f6511b568906020016111b2565b306001600160a01b037f00000000000000000000000000000000000000000000000000000000000000001614156119e95760405162461bcd60e51b8152600401610ec690614455565b7f00000000000000000000000000000000000000000000000000000000000000006001600160a01b0316611a1b612cc2565b6001600160a01b031614611a415760405162461bcd60e51b8152600401610ec6906144a1565b611a4a82612cf0565b611a5682826001612d68565b5050565b60006101ca8281548110611a7e57634e487b7160e01b600052603260045260246000fd5b600091825260208083208584526101cb82526040808520338652909252922060026007909202909201908101549092504311611abb5750506115fb565b6000611ad961186a6101cf546101ce54612a3290919063ffffffff16565b90506000611b02611af7856005015484612a3290919063ffffffff16565b600686015490612a56565b60058501839055600685018190556101ce5490915080611b505750504360028085019190915560006003850181905560048501819055920182905550600582018190556006909101556115fb565b6000611b69866004015484612a3290919063ffffffff16565b9050611b8c611b8183610e2a8464e8d4a51000612a3e565b600388015490612a56565b60038701555050600490930192909255505050565b60006101ca8281548110611bc557634e487b7160e01b600052603260045260246000fd5b600091825260208083208584526101cb82526040808520338652909252922060079091029091019150611bf783611a5a565b6000611c258260020154610df164e8d4a51000610e2a87600301548760000154612a3e90919063ffffffff16565b90508015611cb257825460405163a9059cbb60e01b8152336004820152602481018390526001600160a01b039091169063a9059cbb90604401602060405180830381600087803b158015611c7857600080fd5b505af1158015611c8c573d6000803e3d6000fd5b505050506040513d601f19601f82011682018060405250810190611cb091906142e1565b505b611cce61186a6101cf546101ce54612a3290919063ffffffff16565b600584015560038301548254611cee9164e8d4a5100091610e2a91612a3e565b826002018190555050505050565b6115fb3382612f8f565b6101ca5460005b81811015611a5657611d1e81611a5a565b611d278161463c565b9050611d0d565b6001600160a01b038116611d7a5760405162461bcd60e51b815260206004820152601360248201527261646d696e3a205a65726f206164647265737360681b6044820152606401610ec6565b6101c8546001600160a01b03163314611dc35760405162461bcd60e51b815260206004820152600b60248201526a61646d696e3a207775743f60a81b6044820152606401610ec6565b6101c880546001600160a01b0319166001600160a01b0383169081179091556040519081527f54e4612788f90384e6843298d7854436f3a585b2c3831ab66abf1de63bfa6c2d9060200160405180910390a150565b610162546001600160a01b03163314611e435760405162461bcd60e51b8152600401610ec6906144ed565b8015611e5157611e51611d06565b611ea482611e9e6101ca8681548110611e7a57634e487b7160e01b600052603260045260246000fd5b9060005260206000209060070201600101546101cc54612a3290919063ffffffff16565b90612a56565b6101cc81905550816101ca8481548110611ece57634e487b7160e01b600052603260045260246000fd5b906000526020600020906007020160010181905550505050565b6001600160a01b03811660009081526101316020526040812054610cd790612f99565b610162546001600160a01b03163314611f365760405162461bcd60e51b8152600401610ec6906144ed565b611f406000613002565b565b6001600160a01b038116600090815260fd6020526040812054610cd7565b6000828210611f8557611f7e6001611f788486612a32565b90612a3e565b9050610cd7565b611f7e8383612a32565b6000438210611fe05760405162461bcd60e51b815260206004820152601f60248201527f4552433230566f7465733a20626c6f636b206e6f7420796574206d696e6564006044820152606401610ec6565b610cd761013283612eac565b6060609b8054610c4390614607565b6001600160a01b03811660009081526101316020526040812054801561207f576001600160a01b03831660009081526101316020526040902061203f6001836145c4565b8154811061205d57634e487b7160e01b600052603260045260246000fd5b60009182526020909120015464010000000090046001600160e01b0316612082565b60005b6001600160e01b03169392505050565b3360009081526098602090815260408083206001600160a01b0386168452909152812054828110156121145760405162461bcd60e51b815260206004820152602560248201527f45524332303a2064656372656173656420616c6c6f77616e63652062656c6f77604482015264207a65726f60d81b6064820152608401610ec6565b612121338585840361290e565b5060019392505050565b6000610cd3338484612a62565b834211156121885760405162461bcd60e51b815260206004820152601d60248201527f4552433230566f7465733a207369676e617475726520657870697265640000006044820152606401610ec6565b604080517fe48329057bfd03d55e49b547132e39cffd9c1820ad7b9d4c5307691425d15adf60208201526001600160a01b038816918101919091526060810186905260808101859052600090612202906121fa9060a00160405160208183030381529060405280519060200120613055565b8585856130a3565b905061220d816130cb565b861461225b5760405162461bcd60e51b815260206004820152601960248201527f4552433230566f7465733a20696e76616c6964206e6f6e6365000000000000006044820152606401610ec6565b6122658188612f8f565b50505050505050565b834211156122be5760405162461bcd60e51b815260206004820152601d60248201527f45524332305065726d69743a206578706972656420646561646c696e650000006044820152606401610ec6565b600060fe548888886122cf8c6130cb565b6040805160208101969096526001600160a01b0394851690860152929091166060840152608083015260a082015260c0810186905260e001604051602081830303815290604052805190602001209050600061232a82613055565b9050600061233a828787876130a3565b9050896001600160a01b0316816001600160a01b03161461239d5760405162461bcd60e51b815260206004820152601e60248201527f45524332305065726d69743a20696e76616c6964207369676e617475726500006044820152606401610ec6565b6123a88a8a8a61290e565b50505050505050505050565b60006101ca83815481106123d857634e487b7160e01b600052603260045260246000fd5b600091825260208083208684526101cb8252604080852033865290925292206007909102909101915061240a84611a5a565b8054156124e757600061243f8260020154610df164e8d4a51000610e2a87600301548760000154612a3e90919063ffffffff16565b835460405163a9059cbb60e01b8152336004820152602481018390529192506001600160a01b03169063a9059cbb90604401602060405180830381600087803b15801561248b57600080fd5b505af115801561249f573d6000803e3d6000fd5b505050506040513d601f19601f820116820180604052508101906124c391906142e1565b506124e061186a6101cf546101ce54612a3290919063ffffffff16565b6005840155505b81546040516323b872dd60e01b8152336004820152306024820152604481018590526001600160a01b03909116906323b872dd90606401602060405180830381600087803b15801561253857600080fd5b505af115801561254c573d6000803e3d6000fd5b505050506040513d601f19601f8201168201806040525081019061257091906142e1565b506101ce5461257f9084612a56565b6101ce55805461258f9084612a56565b80825560038301546125ac9164e8d4a5100091610e2a9190612a3e565b60028201556125be4262093a8061456d565b60038201556125cd33846130f3565b604051838152849033907f90890809c654f11d6e72a28fa60149770a0d11ec6c92319d6ceb2bb0a4ea1a159060200160405180910390a350505050565b600054610100900460ff166126255760005460ff1615612629565b303b155b61268c5760405162461bcd60e51b815260206004820152602e60248201527f496e697469616c697a61626c653a20636f6e747261637420697320616c72656160448201526d191e481a5b9a5d1a585b1a5e995960921b6064820152608401610ec6565b600054610100900460ff161580156126b7576000805460ff1961ff0019909116610100171660011790555b6001600160a01b03841661270d5760405162461bcd60e51b815260206004820152601860248201527f696e697469616c697a653a205a65726f206164647265737300000000000000006044820152606401610ec6565b6127156130fd565b6127576040518060400160405280600481526020016319dbdb1960e21b8152506040518060400160405280600481526020016319dbdb1960e21b815250613134565b61275f613187565b6127846040518060400160405280600481526020016319dbdb1960e21b8152506131bb565b61278c613216565b6101c780546001600160a01b038088166001600160a01b0319928316179092556101c88054928716929091169190911790556101cd8390556101c982905580156111bb576000805461ff00191690555050505050565b60408051808201909152600080825260208201526001600160a01b038316600090815261013160205260409020805463ffffffff841690811061283557634e487b7160e01b600052603260045260246000fd5b60009182526020918290206040805180820190915291015463ffffffff8116825264010000000090046001600160e01b0316918101919091529392505050565b610162546001600160a01b031633146128a05760405162461bcd60e51b8152600401610ec6906144ed565b6001600160a01b0381166129055760405162461bcd60e51b815260206004820152602660248201527f4f776e61626c653a206e6577206f776e657220697320746865207a65726f206160448201526564647265737360d01b6064820152608401610ec6565b6115fb81613002565b6001600160a01b0383166129705760405162461bcd60e51b8152602060048201526024808201527f45524332303a20617070726f76652066726f6d20746865207a65726f206164646044820152637265737360e01b6064820152608401610ec6565b6001600160a01b0382166129d15760405162461bcd60e51b815260206004820152602260248201527f45524332303a20617070726f766520746f20746865207a65726f206164647265604482015261737360f01b6064820152608401610ec6565b6001600160a01b0383811660008181526098602090815260408083209487168084529482529182902085905590518481527f8c5be1e5ebec7d5bd14f71427d1e84f3dd0314c0f7b2291e5b200ac8c7c3b925910160405180910390a3505050565b600061149c82846145c4565b600061149c82846145a5565b600061149c8284614585565b600061149c828461456d565b6001600160a01b038316612ac65760405162461bcd60e51b815260206004820152602560248201527f45524332303a207472616e736665722066726f6d20746865207a65726f206164604482015264647265737360d81b6064820152608401610ec6565b6001600160a01b038216612b285760405162461bcd60e51b815260206004820152602360248201527f45524332303a207472616e7366657220746f20746865207a65726f206164647260448201526265737360e81b6064820152608401610ec6565b612b3383838361323d565b6001600160a01b03831660009081526097602052604090205481811015612bab5760405162461bcd60e51b815260206004820152602660248201527f45524332303a207472616e7366657220616d6f756e7420657863656564732062604482015265616c616e636560d01b6064820152608401610ec6565b6001600160a01b03808516600090815260976020526040808220858503905591851681529081208054849290612be290849061456d565b92505081905550826001600160a01b0316846001600160a01b03167fddf252ad1be2c89b69c2b068fc378daa952ba7f163c4a11628f55a4df523b3ef84604051612c2e91815260200190565b60405180910390a3612c418484846132a5565b50505050565b60006115307f8b73c3c69bb8fe3d512ecc4cf759cc79239f7b179b0ffacaa9a75d522b39400f612c7660c95490565b60ca546040805160208101859052908101839052606081018290524660808201523060a082015260009060c0016040516020818303038152906040528051906020012090509392505050565b7f360894a13ba1a3210667c828492db98dca3e2076cc3735a920a3ca505d382bbc546001600160a01b031690565b33612d04610162546001600160a01b031690565b6001600160a01b0316146115fb5760405162461bcd60e51b815260206004820152602560248201527f4f6e6c79206f776e65722063616e207570677261646520696d706c656d656e7460448201526430ba34b7b760d91b6064820152608401610ec6565b6000612d72612cc2565b9050612d7d846132b0565b600083511180612d8a5750815b15612d9b57612d998484613355565b505b7f4910fdfa16fed3260ed0e7147f7cc6da11a60208b5b9406d12a635614ffd9143805460ff166111bb57805460ff191660011781556040516001600160a01b0383166024820152612e1a90869060440160408051601f198184030181529190526020810180516001600160e01b0316631b2ce7f360e11b179052613355565b50805460ff19168155612e2b612cc2565b6001600160a01b0316826001600160a01b031614612ea35760405162461bcd60e51b815260206004820152602f60248201527f45524331393637557067726164653a207570677261646520627265616b73206660448201526e75727468657220757067726164657360881b6064820152608401610ec6565b6111bb85613440565b8154600090815b81811015612f1e576000612ec78284613480565b905084868281548110612eea57634e487b7160e01b600052603260045260246000fd5b60009182526020909120015463ffffffff161115612f0a57809250612f18565b612f1581600161456d565b91505b50612eb3565b8115612f705784612f306001846145c4565b81548110612f4e57634e487b7160e01b600052603260045260246000fd5b60009182526020909120015464010000000090046001600160e01b0316612f73565b60005b6001600160e01b031695945050505050565b611a56828261349b565b611a5682826134b4565b600063ffffffff821115612ffe5760405162461bcd60e51b815260206004820152602660248201527f53616665436173743a2076616c756520646f65736e27742066697420696e203360448201526532206269747360d01b6064820152608401610ec6565b5090565b61016280546001600160a01b038381166001600160a01b0319831681179093556040519116919082907f8be0079c531659141344cd1fd0a4f28419497f9722a3daafe3b4186f6b6457e090600090a35050565b6000610cd7613062612c47565b8360405161190160f01b6020820152602281018390526042810182905260009060620160405160208183030381529060405280519060200120905092915050565b60008060006130b48787878761352f565b915091506130c18161361c565b5095945050505050565b6001600160a01b038116600090815260fd602052604090208054600181018255905b50919050565b611a56828261381f565b600054610100900460ff166131245760405162461bcd60e51b8152600401610ec690614522565b61312c613216565b611f406138aa565b600054610100900460ff1661315b5760405162461bcd60e51b8152600401610ec690614522565b815161316e90609a906020850190613f82565b50805161318290609b906020840190613f82565b505050565b600054610100900460ff166131ae5760405162461bcd60e51b8152600401610ec690614522565b610194805460ff19169055565b600054610100900460ff166131e25760405162461bcd60e51b8152600401610ec690614522565b6131ea613216565b61320d81604051806040016040528060018152602001603160f81b8152506138da565b6115fb8161391b565b600054610100900460ff16611f405760405162461bcd60e51b8152600401610ec690614522565b6001600160a01b038316158061325a57506001600160a01b038216155b1561326457613182565b60405162461bcd60e51b81526020600482015260166024820152752737b7103a3930b739b332b930b13632903a37b5b2b760511b6044820152606401610ec6565b613182838383613969565b803b6133145760405162461bcd60e51b815260206004820152602d60248201527f455243313936373a206e657720696d706c656d656e746174696f6e206973206e60448201526c1bdd08184818dbdb9d1c9858dd609a1b6064820152608401610ec6565b7f360894a13ba1a3210667c828492db98dca3e2076cc3735a920a3ca505d382bbc80546001600160a01b0319166001600160a01b0392909216919091179055565b6060823b6133b45760405162461bcd60e51b815260206004820152602660248201527f416464726573733a2064656c65676174652063616c6c20746f206e6f6e2d636f6044820152651b9d1c9858dd60d21b6064820152608401610ec6565b600080846001600160a01b0316846040516133cf9190614406565b600060405180830381855af49150503d806000811461340a576040519150601f19603f3d011682016040523d82523d6000602084013e61340f565b606091505b509150915061343782826040518060600160405280602781526020016146a76027913961399c565b95945050505050565b613449816132b0565b6040516001600160a01b038216907fbc7cd75a20ee27fd9adebab32041f755214dbc6bffa90cc0225b39da2e5c2d3b90600090a250565b600061348f6002848418614585565b61149c9084841661456d565b6134a582826139d5565b612c41610132612a3283613b36565b6001600160a01b0382811660008181526101306020818152604080842080546097845282862054949093528787166001600160a01b03198416811790915590519190951694919391928592917f3134e8a2e6d97e929a7e54011ea5485d7d196dd5f0ba4d4ef95803e8e3fc257f9190a4612c41828483613ce7565b6000807f7fffffffffffffffffffffffffffffff5d576e7357a4501ddfe92f46681b20a08311156135665750600090506003613613565b8460ff16601b1415801561357e57508460ff16601c14155b1561358f5750600090506004613613565b6040805160008082526020820180845289905260ff881692820192909252606081018690526080810185905260019060a0016020604051602081039080840390855afa1580156135e3573d6000803e3d6000fd5b5050604051601f1901519150506001600160a01b03811661360c57600060019250925050613613565b9150600090505b94509492505050565b600081600481111561363e57634e487b7160e01b600052602160045260246000fd5b1415613649576115fb565b600181600481111561366b57634e487b7160e01b600052602160045260246000fd5b14156136b95760405162461bcd60e51b815260206004820152601860248201527f45434453413a20696e76616c6964207369676e617475726500000000000000006044820152606401610ec6565b60028160048111156136db57634e487b7160e01b600052602160045260246000fd5b14156137295760405162461bcd60e51b815260206004820152601f60248201527f45434453413a20696e76616c6964207369676e6174757265206c656e677468006044820152606401610ec6565b600381600481111561374b57634e487b7160e01b600052602160045260246000fd5b14156137a45760405162461bcd60e51b815260206004820152602260248201527f45434453413a20696e76616c6964207369676e6174757265202773272076616c604482015261756560f01b6064820152608401610ec6565b60048160048111156137c657634e487b7160e01b600052602160045260246000fd5b14156115fb5760405162461bcd60e51b815260206004820152602260248201527f45434453413a20696e76616c6964207369676e6174757265202776272076616c604482015261756560f01b6064820152608401610ec6565b6138298282613e26565b6099546001600160e01b03101561389b5760405162461bcd60e51b815260206004820152603060248201527f4552433230566f7465733a20746f74616c20737570706c79207269736b73206f60448201526f766572666c6f77696e6720766f74657360801b6064820152608401610ec6565b612c41610132612a5683613b36565b600054610100900460ff166138d15760405162461bcd60e51b8152600401610ec690614522565b611f4033613002565b600054610100900460ff166139015760405162461bcd60e51b8152600401610ec690614522565b81516020928301208151919092012060c99190915560ca55565b600054610100900460ff166139425760405162461bcd60e51b8152600401610ec690614522565b507f6e71edae12b1b97f4d1f60370fef10105fa2faae0126114a169c64845d6126c960fe55565b6001600160a01b038381166000908152610130602052604080822054858416835291205461318292918216911683613ce7565b606083156139ab57508161149c565b8251156139bb5782518084602001fd5b8160405162461bcd60e51b8152600401610ec69190614422565b6001600160a01b038216613a355760405162461bcd60e51b815260206004820152602160248201527f45524332303a206275726e2066726f6d20746865207a65726f206164647265736044820152607360f81b6064820152608401610ec6565b613a418260008361323d565b6001600160a01b03821660009081526097602052604090205481811015613ab55760405162461bcd60e51b815260206004820152602260248201527f45524332303a206275726e20616d6f756e7420657863656564732062616c616e604482015261636560f01b6064820152608401610ec6565b6001600160a01b0383166000908152609760205260408120838303905560998054849290613ae49084906145c4565b90915550506040518281526000906001600160a01b038516907fddf252ad1be2c89b69c2b068fc378daa952ba7f163c4a11628f55a4df523b3ef9060200160405180910390a3613182836000846132a5565b825460009081908015613b8f5785613b4f6001836145c4565b81548110613b6d57634e487b7160e01b600052603260045260246000fd5b60009182526020909120015464010000000090046001600160e01b0316613b92565b60005b6001600160e01b03169250613bab83858763ffffffff16565b9150600081118015613bf757504386613bc56001846145c4565b81548110613be357634e487b7160e01b600052603260045260246000fd5b60009182526020909120015463ffffffff16145b15613c6557613c0582613f19565b86613c116001846145c4565b81548110613c2f57634e487b7160e01b600052603260045260246000fd5b9060005260206000200160000160046101000a8154816001600160e01b0302191690836001600160e01b03160217905550613cde565b856040518060400160405280613c7a43612f99565b63ffffffff168152602001613c8e85613f19565b6001600160e01b039081169091528254600181018455600093845260209384902083519101805493909401519091166401000000000263ffffffff91821663ffffffff1990931692909217161790555b50935093915050565b816001600160a01b0316836001600160a01b031614158015613d095750600081115b15613182576001600160a01b03831615613d98576001600160a01b0383166000908152610131602052604081208190613d4590612a3285613b36565b91509150846001600160a01b03167fdec2bacdd2f05b59de34da9b523dff8be42e5e38e818c82fdb0bae774387a7248383604051613d8d929190918252602082015260400190565b60405180910390a250505b6001600160a01b03821615613182576001600160a01b0382166000908152610131602052604081208190613dcf90612a5685613b36565b91509150836001600160a01b03167fdec2bacdd2f05b59de34da9b523dff8be42e5e38e818c82fdb0bae774387a7248383604051613e17929190918252602082015260400190565b60405180910390a25050505050565b6001600160a01b038216613e7c5760405162461bcd60e51b815260206004820152601f60248201527f45524332303a206d696e7420746f20746865207a65726f2061646472657373006044820152606401610ec6565b613e886000838361323d565b8060996000828254613e9a919061456d565b90915550506001600160a01b03821660009081526097602052604081208054839290613ec790849061456d565b90915550506040518181526001600160a01b038316906000907fddf252ad1be2c89b69c2b068fc378daa952ba7f163c4a11628f55a4df523b3ef9060200160405180910390a3611a56600083836132a5565b60006001600160e01b03821115612ffe5760405162461bcd60e51b815260206004820152602760248201527f53616665436173743a2076616c756520646f65736e27742066697420696e20326044820152663234206269747360c81b6064820152608401610ec6565b828054613f8e90614607565b90600052602060002090601f016020900481019282613fb05760008555613ff6565b82601f10613fc957805160ff1916838001178555613ff6565b82800160010185558215613ff6579182015b82811115613ff6578251825591602001919060010190613fdb565b50612ffe9291505b80821115612ffe5760008155600101613ffe565b803560ff81168114610c2f57600080fd5b600060208284031215614034578081fd5b813561149c81614683565b60008060408385031215614051578081fd5b823561405c81614683565b9150602083013561406c81614683565b809150509250929050565b60008060006060848603121561408b578081fd5b833561409681614683565b925060208401356140a681614683565b929592945050506040919091013590565b600080600080608085870312156140cc578081fd5b84356140d781614683565b935060208501356140e781614683565b93969395505050506040820135916060013590565b600080600080600080600060e0888a031215614116578283fd5b873561412181614683565b9650602088013561413181614683565b9550604088013594506060880135935061414d60808901614012565b925060a0880135915060c0880135905092959891949750929550565b6000806040838503121561417b578182fd5b823561418681614683565b9150602083013567ffffffffffffffff808211156141a2578283fd5b818501915085601f8301126141b5578283fd5b8135818111156141c7576141c761466d565b604051601f8201601f19908116603f011681019083821181831017156141ef576141ef61466d565b81604052828152886020848701011115614207578586fd5b82602086016020830137856020848301015280955050505050509250929050565b6000806040838503121561423a578182fd5b823561424581614683565b946020939093013593505050565b60008060008060008060c0878903121561426b578182fd5b863561427681614683565b9550602087013594506040870135935061429260608801614012565b92506080870135915060a087013590509295509295509295565b600080604083850312156142be578182fd5b82356142c981614683565b9150602083013563ffffffff8116811461406c578182fd5b6000602082840312156142f2578081fd5b815161149c81614698565b60006020828403121561430e578081fd5b5035919050565b600060208284031215614326578081fd5b5051919050565b6000806040838503121561433f578182fd5b82359150602083013561406c81614683565b600080600060608486031215614365578081fd5b8335925060208401356140a681614683565b60008060006060848603121561438b578081fd5b83359250602084013561439d81614683565b915060408401356143ad81614698565b809150509250925092565b600080604083850312156143ca578182fd5b50508035926020909101359150565b6000806000606084860312156143ed578081fd5b833592506020840135915060408401356143ad81614698565b600082516144188184602087016145db565b9190910192915050565b60006020825282518060208401526144418160408501602087016145db565b601f01601f19169190910160400192915050565b6020808252602c908201527f46756e6374696f6e206d7573742062652063616c6c6564207468726f7567682060408201526b19195b1959d85d1958d85b1b60a21b606082015260800190565b6020808252602c908201527f46756e6374696f6e206d7573742062652063616c6c6564207468726f7567682060408201526b6163746976652070726f787960a01b606082015260800190565b6020808252818101527f4f776e61626c653a2063616c6c6572206973206e6f7420746865206f776e6572604082015260600190565b6020808252602b908201527f496e697469616c697a61626c653a20636f6e7472616374206973206e6f74206960408201526a6e697469616c697a696e6760a81b606082015260800190565b6000821982111561458057614580614657565b500190565b6000826145a057634e487b7160e01b81526012600452602481fd5b500490565b60008160001904831182151516156145bf576145bf614657565b500290565b6000828210156145d6576145d6614657565b500390565b60005b838110156145f65781810151838201526020016145de565b83811115612c415750506000910152565b60028104600182168061461b57607f821691505b602082108114156130ed57634e487b7160e01b600052602260045260246000fd5b600060001982141561465057614650614657565b5060010190565b634e487b7160e01b600052601160045260246000fd5b634e487b7160e01b600052604160045260246000fd5b6001600160a01b03811681146115fb57600080fd5b80151581146115fb57600080fdfe416464726573733a206c6f772d6c6576656c2064656c65676174652063616c6c206661696c6564a2646970667358221220dbbbbbe2fda6c70da0a6ccfecf7bd63b39ef70861e317e2c91c1ad965d6e809c64736f6c63430008020033",
  "linkReferences": {},
  "deployedLinkReferences": {}
}