{
  "_format": "hh-sol-artifact-1",
  "contractName": "Maia",
  "sourceName": "contracts/Maia.sol",
  "abi": [
    {
      "anonymous": false,
      "inputs": [
        {
          "indexed": false,
          "internalType": "address",
          "name": "previousAdmin",
          "type": "address"
        },
        {
          "indexed": false,
          "internalType": "address",
          "name": "newAdmin",
          "type": "address"
        }
      ],
      "name": "AdminChanged",
      "type": "event"
    },
    {
      "anonymous": false,
      "inputs": [
        {
          "indexed": false,
          "internalType": "address",
          "name": "newAdmin",
          "type": "address"
        }
      ],
      "name": "AdminUpdated",
      "type": "event"
    },
    {
      "anonymous": false,
      "inputs": [
        {
          "indexed": true,
          "internalType": "address",
          "name": "owner",
          "type": "address"
        },
        {
          "indexed": true,
          "internalType": "address",
          "name": "spender",
          "type": "address"
        },
        {
          "indexed": false,
          "internalType": "uint256",
          "name": "value",
          "type": "uint256"
        }
      ],
      "name": "Approval",
      "type": "event"
    },
    {
      "anonymous": false,
      "inputs": [
        {
          "indexed": true,
          "internalType": "address",
          "name": "beacon",
          "type": "address"
        }
      ],
      "name": "BeaconUpgraded",
      "type": "event"
    },
    {
      "anonymous": false,
      "inputs": [
        {
          "indexed": true,
          "internalType": "address",
          "name": "delegator",
          "type": "address"
        },
        {
          "indexed": true,
          "internalType": "address",
          "name": "fromDelegate",
          "type": "address"
        },
        {
          "indexed": true,
          "internalType": "address",
          "name": "toDelegate",
          "type": "address"
        }
      ],
      "name": "DelegateChanged",
      "type": "event"
    },
    {
      "anonymous": false,
      "inputs": [
        {
          "indexed": true,
          "internalType": "address",
          "name": "delegate",
          "type": "address"
        },
        {
          "indexed": false,
          "internalType": "uint256",
          "name": "previousBalance",
          "type": "uint256"
        },
        {
          "indexed": false,
          "internalType": "uint256",
          "name": "newBalance",
          "type": "uint256"
        }
      ],
      "name": "DelegateVotesChanged",
      "type": "event"
    },
    {
      "anonymous": false,
      "inputs": [
        {
          "indexed": true,
          "internalType": "address",
          "name": "user",
          "type": "address"
        },
        {
          "indexed": true,
          "internalType": "uint256",
          "name": "pid",
          "type": "uint256"
        },
        {
          "indexed": false,
          "internalType": "uint256",
          "name": "amount",
          "type": "uint256"
        }
      ],
      "name": "Deposit",
      "type": "event"
    },
    {
      "anonymous": false,
      "inputs": [
        {
          "indexed": true,
          "internalType": "address",
          "name": "user",
          "type": "address"
        },
        {
          "indexed": true,
          "internalType": "uint256",
          "name": "pid",
          "type": "uint256"
        },
        {
          "indexed": false,
          "internalType": "uint256",
          "name": "amount",
          "type": "uint256"
        }
      ],
      "name": "EmergencyWithdraw",
      "type": "event"
    },
    {
      "anonymous": false,
      "inputs": [
        {
          "indexed": true,
          "internalType": "address",
          "name": "previousOwner",
          "type": "address"
        },
        {
          "indexed": true,
          "internalType": "address",
          "name": "newOwner",
          "type": "address"
        }
      ],
      "name": "OwnershipTransferred",
      "type": "event"
    },
    {
      "anonymous": false,
      "inputs": [
        {
          "indexed": false,
          "internalType": "address",
          "name": "account",
          "type": "address"
        }
      ],
      "name": "Paused",
      "type": "event"
    },
    {
      "anonymous": false,
      "inputs": [
        {
          "indexed": true,
          "internalType": "address",
          "name": "from",
          "type": "address"
        },
        {
          "indexed": true,
          "internalType": "address",
          "name": "to",
          "type": "address"
        },
        {
          "indexed": false,
          "internalType": "uint256",
          "name": "value",
          "type": "uint256"
        }
      ],
      "name": "Transfer",
      "type": "event"
    },
    {
      "anonymous": false,
      "inputs": [
        {
          "indexed": false,
          "internalType": "address",
          "name": "account",
          "type": "address"
        }
      ],
      "name": "Unpaused",
      "type": "event"
    },
    {
      "anonymous": false,
      "inputs": [
        {
          "indexed": true,
          "internalType": "address",
          "name": "implementation",
          "type": "address"
        }
      ],
      "name": "Upgraded",
      "type": "event"
    },
    {
      "anonymous": false,
      "inputs": [
        {
          "indexed": true,
          "internalType": "address",
          "name": "user",
          "type": "address"
        },
        {
          "indexed": true,
          "internalType": "uint256",
          "name": "pid",
          "type": "uint256"
        },
        {
          "indexed": false,
          "internalType": "uint256",
          "name": "amount",
          "type": "uint256"
        }
      ],
      "name": "Withdraw",
      "type": "event"
    },
    {
      "inputs": [],
      "name": "BONUS_MULTIPLIER",
      "outputs": [
        {
          "internalType": "uint256",
          "name": "",
          "type": "uint256"
        }
      ],
      "stateMutability": "view",
      "type": "function"
    },
    {
      "inputs": [],
      "name": "DOMAIN_SEPARATOR",
      "outputs": [
        {
          "internalType": "bytes32",
          "name": "",
          "type": "bytes32"
        }
      ],
      "stateMutability": "view",
      "type": "function"
    },
    {
      "inputs": [],
      "name": "GOLD",
      "outputs": [
        {
          "internalType": "contract IERC20",
          "name": "",
          "type": "address"
        }
      ],
      "stateMutability": "view",
      "type": "function"
    },
    {
      "inputs": [],
      "name": "Valar",
      "outputs": [
        {
          "internalType": "contract IERC20",
          "name": "",
          "type": "address"
        }
      ],
      "stateMutability": "view",
      "type": "function"
    },
    {
      "inputs": [
        {
          "internalType": "uint256",
          "name": "_pid",
          "type": "uint256"
        },
        {
          "internalType": "address",
          "name": "_to",
          "type": "address"
        },
        {
          "internalType": "uint256",
          "name": "_amount",
          "type": "uint256"
        }
      ],
      "name": "accessGOLDTokens",
      "outputs": [],
      "stateMutability": "nonpayable",
      "type": "function"
    },
    {
      "inputs": [
        {
          "internalType": "uint256",
          "name": "_allocPoint",
          "type": "uint256"
        },
        {
          "internalType": "contract IERC20",
          "name": "_lpToken",
          "type": "address"
        },
        {
          "internalType": "bool",
          "name": "_withUpdate",
          "type": "bool"
        }
      ],
      "name": "add",
      "outputs": [],
      "stateMutability": "nonpayable",
      "type": "function"
    },
    {
      "inputs": [
        {
          "internalType": "address",
          "name": "_adminAddress",
          "type": "address"
        }
      ],
      "name": "admin",
      "outputs": [],
      "stateMutability": "nonpayable",
      "type": "function"
    },
    {
      "inputs": [],
      "name": "adminAddress",
      "outputs": [
        {
          "internalType": "address",
          "name": "",
          "type": "address"
        }
      ],
      "stateMutability": "view",
      "type": "function"
    },
    {
      "inputs": [
        {
          "internalType": "address",
          "name": "owner",
          "type": "address"
        },
        {
          "internalType": "address",
          "name": "spender",
          "type": "address"
        }
      ],
      "name": "allowance",
      "outputs": [
        {
          "internalType": "uint256",
          "name": "",
          "type": "uint256"
        }
      ],
      "stateMutability": "view",
      "type": "function"
    },
    {
      "inputs": [
        {
          "internalType": "address",
          "name": "spender",
          "type": "address"
        },
        {
          "internalType": "uint256",
          "name": "amount",
          "type": "uint256"
        }
      ],
      "name": "approve",
      "outputs": [
        {
          "internalType": "bool",
          "name": "",
          "type": "bool"
        }
      ],
      "stateMutability": "nonpayable",
      "type": "function"
    },
    {
      "inputs": [
        {
          "internalType": "address",
          "name": "account",
          "type": "address"
        }
      ],
      "name": "balanceOf",
      "outputs": [
        {
          "internalType": "uint256",
          "name": "",
          "type": "uint256"
        }
      ],
      "stateMutability": "view",
      "type": "function"
    },
    {
      "inputs": [
        {
          "internalType": "address",
          "name": "account",
          "type": "address"
        },
        {
          "internalType": "uint32",
          "name": "pos",
          "type": "uint32"
        }
      ],
      "name": "checkpoints",
      "outputs": [
        {
          "components": [
            {
              "internalType": "uint32",
              "name": "fromBlock",
              "type": "uint32"
            },
            {
              "internalType": "uint224",
              "name": "votes",
              "type": "uint224"
            }
          ],
          "internalType": "struct ERC20VotesUpgradeable.Checkpoint",
          "name": "",
          "type": "tuple"
        }
      ],
      "stateMutability": "view",
      "type": "function"
    },
    {
      "inputs": [
        {
          "internalType": "uint256",
          "name": "_pid",
          "type": "uint256"
        }
      ],
      "name": "claimGOLD",
      "outputs": [],
      "stateMutability": "nonpayable",
      "type": "function"
    },
    {
      "inputs": [],
      "name": "decimals",
      "outputs": [
        {
          "internalType": "uint8",
          "name": "",
          "type": "uint8"
        }
      ],
      "stateMutability": "pure",
      "type": "function"
    },
    {
      "inputs": [
        {
          "internalType": "address",
          "name": "spender",
          "type": "address"
        },
        {
          "internalType": "uint256",
          "name": "subtractedValue",
          "type": "uint256"
        }
      ],
      "name": "decreaseAllowance",
      "outputs": [
        {
          "internalType": "bool",
          "name": "",
          "type": "bool"
        }
      ],
      "stateMutability": "nonpayable",
      "type": "function"
    },
    {
      "inputs": [
        {
          "internalType": "address",
          "name": "delegatee",
          "type": "address"
        }
      ],
      "name": "delegate",
      "outputs": [],
      "stateMutability": "nonpayable",
      "type": "function"
    },
    {
      "inputs": [
        {
          "internalType": "address",
          "name": "delegatee",
          "type": "address"
        },
        {
          "internalType": "uint256",
          "name": "nonce",
          "type": "uint256"
        },
        {
          "internalType": "uint256",
          "name": "expiry",
          "type": "uint256"
        },
        {
          "internalType": "uint8",
          "name": "v",
          "type": "uint8"
        },
        {
          "internalType": "bytes32",
          "name": "r",
          "type": "bytes32"
        },
        {
          "internalType": "bytes32",
          "name": "s",
          "type": "bytes32"
        }
      ],
      "name": "delegateBySig",
      "outputs": [],
      "stateMutability": "nonpayable",
      "type": "function"
    },
    {
      "inputs": [
        {
          "internalType": "address",
          "name": "account",
          "type": "address"
        }
      ],
      "name": "delegates",
      "outputs": [
        {
          "internalType": "address",
          "name": "",
          "type": "address"
        }
      ],
      "stateMutability": "view",
      "type": "function"
    },
    {
      "inputs": [
        {
          "internalType": "uint256",
          "name": "_pid",
          "type": "uint256"
        },
        {
          "internalType": "uint256",
          "name": "_amount",
          "type": "uint256"
        }
      ],
      "name": "deposit",
      "outputs": [],
      "stateMutability": "nonpayable",
      "type": "function"
    },
    {
      "inputs": [
        {
          "internalType": "uint256",
          "name": "_from",
          "type": "uint256"
        },
        {
          "internalType": "uint256",
          "name": "_to",
          "type": "uint256"
        }
      ],
      "name": "getMultiplier",
      "outputs": [
        {
          "internalType": "uint256",
          "name": "",
          "type": "uint256"
        }
      ],
      "stateMutability": "pure",
      "type": "function"
    },
    {
      "inputs": [
        {
          "internalType": "uint256",
          "name": "blockNumber",
          "type": "uint256"
        }
      ],
      "name": "getPastTotalSupply",
      "outputs": [
        {
          "internalType": "uint256",
          "name": "",
          "type": "uint256"
        }
      ],
      "stateMutability": "view",
      "type": "function"
    },
    {
      "inputs": [
        {
          "internalType": "address",
          "name": "account",
          "type": "address"
        },
        {
          "internalType": "uint256",
          "name": "blockNumber",
          "type": "uint256"
        }
      ],
      "name": "getPastVotes",
      "outputs": [
        {
          "internalType": "uint256",
          "name": "",
          "type": "uint256"
        }
      ],
      "stateMutability": "view",
      "type": "function"
    },
    {
      "inputs": [
        {
          "internalType": "uint256",
          "name": "_pid",
          "type": "uint256"
        }
      ],
      "name": "getPool",
      "outputs": [
        {
          "components": [
            {
              "internalType": "contract IERC20",
              "name": "lpToken",
              "type": "address"
            },
            {
              "internalType": "uint256",
              "name": "allocPoint",
              "type": "uint256"
            },
            {
              "internalType": "uint256",
              "name": "lastRewardBlock",
              "type": "uint256"
            },
            {
              "internalType": "uint256",
              "name": "accGOLDPerShare",
              "type": "uint256"
            },
            {
              "internalType": "uint256",
              "name": "lastTotalGOLDReward",
              "type": "uint256"
            },
            {
              "internalType": "uint256",
              "name": "lastGOLDRewardBalance",
              "type": "uint256"
            },
            {
              "internalType": "uint256",
              "name": "totalGOLDReward",
              "type": "uint256"
            }
          ],
          "internalType": "struct Maia.PoolInfo",
          "name": "",
          "type": "tuple"
        }
      ],
      "stateMutability": "view",
      "type": "function"
    },
    {
      "inputs": [
        {
          "internalType": "uint256",
          "name": "_pid",
          "type": "uint256"
        },
        {
          "internalType": "address",
          "name": "_user",
          "type": "address"
        }
      ],
      "name": "getUser",
      "outputs": [
        {
          "components": [
            {
              "internalType": "uint256",
              "name": "amount",
              "type": "uint256"
            },
            {
              "internalType": "uint256",
              "name": "rewardDebt",
              "type": "uint256"
            },
            {
              "internalType": "uint256",
              "name": "rewargoldDebt",
              "type": "uint256"
            },
            {
              "internalType": "uint256",
              "name": "stakeEnd",
              "type": "uint256"
            }
          ],
          "internalType": "struct Maia.UserInfo",
          "name": "",
          "type": "tuple"
        }
      ],
      "stateMutability": "view",
      "type": "function"
    },
    {
      "inputs": [
        {
          "internalType": "uint256",
          "name": "_pid",
          "type": "uint256"
        }
      ],
      "name": "getVPool",
      "outputs": [
        {
          "components": [
            {
              "internalType": "uint256",
              "name": "lastGOLDRewardBalance",
              "type": "uint256"
            },
            {
              "internalType": "uint256",
              "name": "totalGOLDReward",
              "type": "uint256"
            },
            {
              "internalType": "uint256",
              "name": "totalValar",
              "type": "uint256"
            }
          ],
          "internalType": "struct Maia.ValarPoolInfo",
          "name": "",
          "type": "tuple"
        }
      ],
      "stateMutability": "view",
      "type": "function"
    },
    {
      "inputs": [
        {
          "internalType": "address",
          "name": "account",
          "type": "address"
        }
      ],
      "name": "getVotes",
      "outputs": [
        {
          "internalType": "uint256",
          "name": "",
          "type": "uint256"
        }
      ],
      "stateMutability": "view",
      "type": "function"
    },
    {
      "inputs": [
        {
          "internalType": "address",
          "name": "spender",
          "type": "address"
        },
        {
          "internalType": "uint256",
          "name": "addedValue",
          "type": "uint256"
        }
      ],
      "name": "increaseAllowance",
      "outputs": [
        {
          "internalType": "bool",
          "name": "",
          "type": "bool"
        }
      ],
      "stateMutability": "nonpayable",
      "type": "function"
    },
    {
      "inputs": [
        {
          "internalType": "address",
          "name": "_GOLD",
          "type": "address"
        },
        {
          "internalType": "address",
          "name": "_Valar",
          "type": "address"
        },
        {
          "internalType": "address",
          "name": "_adminAddress",
          "type": "address"
        },
        {
          "internalType": "uint256",
          "name": "_startBlock",
          "type": "uint256"
        }
      ],
      "name": "initialize",
      "outputs": [],
      "stateMutability": "nonpayable",
      "type": "function"
    },
    {
      "inputs": [],
      "name": "massUpdatePools",
      "outputs": [],
      "stateMutability": "nonpayable",
      "type": "function"
    },
    {
      "inputs": [],
      "name": "name",
      "outputs": [
        {
          "internalType": "string",
          "name": "",
          "type": "string"
        }
      ],
      "stateMutability": "view",
      "type": "function"
    },
    {
      "inputs": [
        {
          "internalType": "address",
          "name": "owner",
          "type": "address"
        }
      ],
      "name": "nonces",
      "outputs": [
        {
          "internalType": "uint256",
          "name": "",
          "type": "uint256"
        }
      ],
      "stateMutability": "view",
      "type": "function"
    },
    {
      "inputs": [
        {
          "internalType": "address",
          "name": "account",
          "type": "address"
        }
      ],
      "name": "numCheckpoints",
      "outputs": [
        {
          "internalType": "uint32",
          "name": "",
          "type": "uint32"
        }
      ],
      "stateMutability": "view",
      "type": "function"
    },
    {
      "inputs": [],
      "name": "owner",
      "outputs": [
        {
          "internalType": "address",
          "name": "",
          "type": "address"
        }
      ],
      "stateMutability": "view",
      "type": "function"
    },
    {
      "inputs": [],
      "name": "paused",
      "outputs": [
        {
          "internalType": "bool",
          "name": "",
          "type": "bool"
        }
      ],
      "stateMutability": "view",
      "type": "function"
    },
    {
      "inputs": [
        {
          "internalType": "uint256",
          "name": "_pid",
          "type": "uint256"
        },
        {
          "internalType": "address",
          "name": "_user",
          "type": "address"
        }
      ],
      "name": "pendingGOLD",
      "outputs": [
        {
          "internalType": "uint256",
          "name": "",
          "type": "uint256"
        }
      ],
      "stateMutability": "view",
      "type": "function"
    },
    {
      "inputs": [
        {
          "internalType": "address",
          "name": "owner",
          "type": "address"
        },
        {
          "internalType": "address",
          "name": "spender",
          "type": "address"
        },
        {
          "internalType": "uint256",
          "name": "value",
          "type": "uint256"
        },
        {
          "internalType": "uint256",
          "name": "deadline",
          "type": "uint256"
        },
        {
          "internalType": "uint8",
          "name": "v",
          "type": "uint8"
        },
        {
          "internalType": "bytes32",
          "name": "r",
          "type": "bytes32"
        },
        {
          "internalType": "bytes32",
          "name": "s",
          "type": "bytes32"
        }
      ],
      "name": "permit",
      "outputs": [],
      "stateMutability": "nonpayable",
      "type": "function"
    },
    {
      "inputs": [
        {
          "internalType": "uint256",
          "name": "",
          "type": "uint256"
        }
      ],
      "name": "poolInfo",
      "outputs": [
        {
          "internalType": "contract IERC20",
          "name": "lpToken",
          "type": "address"
        },
        {
          "internalType": "uint256",
          "name": "allocPoint",
          "type": "uint256"
        },
        {
          "internalType": "uint256",
          "name": "lastRewardBlock",
          "type": "uint256"
        },
        {
          "internalType": "uint256",
          "name": "accGOLDPerShare",
          "type": "uint256"
        },
        {
          "internalType": "uint256",
          "name": "lastTotalGOLDReward",
          "type": "uint256"
        },
        {
          "internalType": "uint256",
          "name": "lastGOLDRewardBalance",
          "type": "uint256"
        },
        {
          "internalType": "uint256",
          "name": "totalGOLDReward",
          "type": "uint256"
        }
      ],
      "stateMutability": "view",
      "type": "function"
    },
    {
      "inputs": [],
      "name": "poolLength",
      "outputs": [
        {
          "internalType": "uint256",
          "name": "",
          "type": "uint256"
        }
      ],
      "stateMutability": "view",
      "type": "function"
    },
    {
      "inputs": [],
      "name": "renounceOwnership",
      "outputs": [],
      "stateMutability": "nonpayable",
      "type": "function"
    },
    {
      "inputs": [
        {
          "internalType": "uint256",
          "name": "_pid",
          "type": "uint256"
        },
        {
          "internalType": "uint256",
          "name": "_allocPoint",
          "type": "uint256"
        },
        {
          "internalType": "bool",
          "name": "_withUpdate",
          "type": "bool"
        }
      ],
      "name": "set",
      "outputs": [],
      "stateMutability": "nonpayable",
      "type": "function"
    },
    {
      "inputs": [
        {
          "internalType": "uint256",
          "name": "_delay",
          "type": "uint256"
        }
      ],
      "name": "setWithdrawDelay",
      "outputs": [],
      "stateMutability": "nonpayable",
      "type": "function"
    },
    {
      "inputs": [],
      "name": "startBlock",
      "outputs": [
        {
          "internalType": "uint256",
          "name": "",
          "type": "uint256"
        }
      ],
      "stateMutability": "view",
      "type": "function"
    },
    {
      "inputs": [],
      "name": "symbol",
      "outputs": [
        {
          "internalType": "string",
          "name": "",
          "type": "string"
        }
      ],
      "stateMutability": "view",
      "type": "function"
    },
    {
      "inputs": [],
      "name": "topStakerNumber",
      "outputs": [
        {
          "internalType": "uint256",
          "name": "",
          "type": "uint256"
        }
      ],
      "stateMutability": "view",
      "type": "function"
    },
    {
      "inputs": [],
      "name": "totalAllocPoint",
      "outputs": [
        {
          "internalType": "uint256",
          "name": "",
          "type": "uint256"
        }
      ],
      "stateMutability": "view",
      "type": "function"
    },
    {
      "inputs": [],
      "name": "totalGOLDStaked",
      "outputs": [
        {
          "internalType": "uint256",
          "name": "",
          "type": "uint256"
        }
      ],
      "stateMutability": "view",
      "type": "function"
    },
    {
      "inputs": [],
      "name": "totalGOLDUsedForPurchase",
      "outputs": [
        {
          "internalType": "uint256",
          "name": "",
          "type": "uint256"
        }
      ],
      "stateMutability": "view",
      "type": "function"
    },
    {
      "inputs": [],
      "name": "totalSupply",
      "outputs": [
        {
          "internalType": "uint256",
          "name": "",
          "type": "uint256"
        }
      ],
      "stateMutability": "view",
      "type": "function"
    },
    {
      "inputs": [
        {
          "internalType": "address",
          "name": "recipient",
          "type": "address"
        },
        {
          "internalType": "uint256",
          "name": "amount",
          "type": "uint256"
        }
      ],
      "name": "transfer",
      "outputs": [
        {
          "internalType": "bool",
          "name": "",
          "type": "bool"
        }
      ],
      "stateMutability": "nonpayable",
      "type": "function"
    },
    {
      "inputs": [
        {
          "internalType": "address",
          "name": "sender",
          "type": "address"
        },
        {
          "internalType": "address",
          "name": "recipient",
          "type": "address"
        },
        {
          "internalType": "uint256",
          "name": "amount",
          "type": "uint256"
        }
      ],
      "name": "transferFrom",
      "outputs": [
        {
          "internalType": "bool",
          "name": "",
          "type": "bool"
        }
      ],
      "stateMutability": "nonpayable",
      "type": "function"
    },
    {
      "inputs": [
        {
          "internalType": "address",
          "name": "newOwner",
          "type": "address"
        }
      ],
      "name": "transferOwnership",
      "outputs": [],
      "stateMutability": "nonpayable",
      "type": "function"
    },
    {
      "inputs": [
        {
          "internalType": "uint256",
          "name": "_pid",
          "type": "uint256"
        }
      ],
      "name": "updatePool",
      "outputs": [],
      "stateMutability": "nonpayable",
      "type": "function"
    },
    {
      "inputs": [
        {
          "internalType": "uint256",
          "name": "_pid",
          "type": "uint256"
        }
      ],
      "name": "updatePoolHelper",
      "outputs": [
        {
          "internalType": "uint256",
          "name": "",
          "type": "uint256"
        }
      ],
      "stateMutability": "view",
      "type": "function"
    },
    {
      "inputs": [
        {
          "internalType": "address",
          "name": "newImplementation",
          "type": "address"
        }
      ],
      "name": "upgradeTo",
      "outputs": [],
      "stateMutability": "nonpayable",
      "type": "function"
    },
    {
      "inputs": [
        {
          "internalType": "address",
          "name": "newImplementation",
          "type": "address"
        },
        {
          "internalType": "bytes",
          "name": "data",
          "type": "bytes"
        }
      ],
      "name": "upgradeToAndCall",
      "outputs": [],
      "stateMutability": "payable",
      "type": "function"
    },
    {
      "inputs": [
        {
          "internalType": "uint256",
          "name": "",
          "type": "uint256"
        },
        {
          "internalType": "address",
          "name": "",
          "type": "address"
        }
      ],
      "name": "userInfo",
      "outputs": [
        {
          "internalType": "uint256",
          "name": "amount",
          "type": "uint256"
        },
        {
          "internalType": "uint256",
          "name": "rewardDebt",
          "type": "uint256"
        },
        {
          "internalType": "uint256",
          "name": "rewargoldDebt",
          "type": "uint256"
        },
        {
          "internalType": "uint256",
          "name": "stakeEnd",
          "type": "uint256"
        }
      ],
      "stateMutability": "view",
      "type": "function"
    },
    {
      "inputs": [
        {
          "internalType": "uint256",
          "name": "",
          "type": "uint256"
        }
      ],
      "name": "valarPoolInfo",
      "outputs": [
        {
          "internalType": "uint256",
          "name": "lastGOLDRewardBalance",
          "type": "uint256"
        },
        {
          "internalType": "uint256",
          "name": "totalGOLDReward",
          "type": "uint256"
        },
        {
          "internalType": "uint256",
          "name": "totalValar",
          "type": "uint256"
        }
      ],
      "stateMutability": "view",
      "type": "function"
    },
    {
      "inputs": [
        {
          "internalType": "uint256",
          "name": "",
          "type": "uint256"
        },
        {
          "internalType": "address",
          "name": "",
          "type": "address"
        }
      ],
      "name": "valarUserInfo",
      "outputs": [
        {
          "internalType": "uint256",
          "name": "rewardDebt",
          "type": "uint256"
        }
      ],
      "stateMutability": "view",
      "type": "function"
    },
    {
      "inputs": [
        {
          "internalType": "uint256",
          "name": "_pid",
          "type": "uint256"
        },
        {
          "internalType": "uint256",
          "name": "_amount",
          "type": "uint256"
        }
      ],
      "name": "withdraw",
      "outputs": [],
      "stateMutability": "nonpayable",
      "type": "function"
    },
    {
      "inputs": [],
      "name": "withdrawDelay",
      "outputs": [
        {
          "internalType": "uint256",
          "name": "",
          "type": "uint256"
        }
      ],
      "stateMutability": "view",
      "type": "function"
    }
  ],
  "bytecode": "0x60a06040523060601b60805234801561001757600080fd5b5060805160601c614ca261004b6000396000818161187a015281816118ba01528181611ce70152611d270152614ca26000f3fe6080604052600436106103975760003560e01c8063630b5ba1116101dc57806395d89b4111610102578063d2371d50116100a0578063f1127ed81161006f578063f1127ed814610c26578063f2fde38b14610c70578063f8b535ac14610c90578063fc6f946814610ca757610397565b8063d2371d5014610b67578063d505accf14610ba0578063dd62ed3e14610bc0578063e2bbb15814610c0657610397565b8063a87492c8116100dc578063a87492c814610ae7578063a9059cbb14610b07578063c3cda52014610b27578063cf756fdf14610b4757610397565b806395d89b4114610a925780639ab24eb014610aa7578063a457c2d714610ac757610397565b806372f0cb301161017a5780638da5cb5b116101495780638da5cb5b146109c55780638dbb1e3a146109e45780638e539e8c14610a0457806393f1a40b14610a2457610397565b806372f0cb30146109355780637ecebe001461095557806381fbc5a7146109755780638aa28550146109b057610397565b80636f10947c116101b65780636f10947c1461089e5780636fcfff45146108b557806370a08231146108ea578063715018a61461092057610397565b8063630b5ba11461084957806363a846f81461085e57806364482f791461087e57610397565b8063313ce567116102c1578063477901661161025f578063587cde1e1161022e578063587cde1e146107b65780635b3c25ce146107f05780635c19a95c146108105780635c975abb1461083057610397565b8063477901661461074b57806348cd4cb11461076c5780634f1ef2861461078357806351eb05a61461079657610397565b8063395093511161029b57806339509351146106b25780633a46b1a8146106d25780633e4bee38146106f2578063441a3e701461072b57610397565b8063313ce567146106615780633644e5151461067d5780633659cfe61461069257610397565b80630d3c5df01161033957806318160ddd1161030857806318160ddd146105b95780631eaaa045146105ce57806323b872dd146105ee578063257664a41461060e57610397565b80630d3c5df0146104df578063101afee4146105015780631526fe271461054357806317caf6f1146105a257610397565b806306fdde031161037557806306fdde0314610457578063081e3eda14610479578063095ea7b31461048f5780630bc1a005146104bf57610397565b8063017e58ca1461039c5780630288a39c146103c6578063068bcd8d146103dd575b600080fd5b3480156103a857600080fd5b506103b36101d05481565b6040519081526020015b60405180910390f35b3480156103d257600080fd5b506103b36101d25481565b3480156103e957600080fd5b506103fd6103f836600461489c565b610cc8565b6040516103bd919081516001600160a01b031681526020808301519082015260408083015190820152606080830151908201526080808301519082015260a0828101519082015260c0918201519181019190915260e00190565b34801561046357600080fd5b5061046c610da3565b6040516103bd91906149c1565b34801561048557600080fd5b506101ca546103b3565b34801561049b57600080fd5b506104af6104aa3660046147c7565b610e35565b60405190151581526020016103bd565b3480156104cb57600080fd5b506103b36104da3660046148cc565b610e4c565b3480156104eb57600080fd5b506104ff6104fa3660046148f0565b611085565b005b34801561050d57600080fd5b5061052161051c36600461489c565b6113d8565b60408051825181526020808401519082015291810151908201526060016103bd565b34801561054f57600080fd5b5061056361055e36600461489c565b61145c565b604080516001600160a01b0390981688526020880196909652948601939093526060850191909152608084015260a083015260c082015260e0016103bd565b3480156105ae57600080fd5b506103b36101ce5481565b3480156105c557600080fd5b506099546103b3565b3480156105da57600080fd5b506104ff6105e9366004614916565b6114b6565b3480156105fa57600080fd5b506104af61060936600461465b565b611731565b34801561061a57600080fd5b5061062e6106293660046148cc565b6117dd565b6040516103bd91908151815260208083015190820152604080830151908201526060918201519181019190915260800190565b34801561066d57600080fd5b50604051600981526020016103bd565b34801561068957600080fd5b506103b3611860565b34801561069e57600080fd5b506104ff6106ad3660046145b7565b61186f565b3480156106be57600080fd5b506104af6106cd3660046147c7565b611938565b3480156106de57600080fd5b506103b36106ed3660046147c7565b611974565b3480156106fe57600080fd5b506101c654610713906001600160a01b031681565b6040516001600160a01b0390911681526020016103bd565b34801561073757600080fd5b506104ff610746366004614957565b6119e8565b34801561075757600080fd5b506101c754610713906001600160a01b031681565b34801561077857600080fd5b506103b36101cf5481565b6104ff610791366004614708565b611cdc565b3480156107a257600080fd5b506104ff6107b136600461489c565b611d96565b3480156107c257600080fd5b506107136107d13660046145b7565b6001600160a01b03908116600090815261013060205260409020541690565b3480156107fc57600080fd5b506104ff61080b36600461489c565b611edd565b34801561081c57600080fd5b506104ff61082b3660046145b7565b612161565b34801561083c57600080fd5b506101945460ff166104af565b34801561085557600080fd5b506104ff61216b565b34801561086a57600080fd5b506104ff6108793660046145b7565b612193565b34801561088a57600080fd5b506104ff610899366004614978565b61227d565b3480156108aa57600080fd5b506103b36101c95481565b3480156108c157600080fd5b506108d56108d03660046145b7565b61234d565b60405163ffffffff90911681526020016103bd565b3480156108f657600080fd5b506103b36109053660046145b7565b6001600160a01b031660009081526097602052604090205490565b34801561092c57600080fd5b506104ff612370565b34801561094157600080fd5b506104ff61095036600461489c565b6123a7565b34801561096157600080fd5b506103b36109703660046145b7565b6123d8565b34801561098157600080fd5b5061099561099036600461489c565b6123f6565b604080519384526020840192909252908201526060016103bd565b3480156109bc57600080fd5b506103b3600181565b3480156109d157600080fd5b50610162546001600160a01b0316610713565b3480156109f057600080fd5b506103b36109ff366004614957565b61242a565b348015610a1057600080fd5b506103b3610a1f36600461489c565b612459565b348015610a3057600080fd5b50610a72610a3f3660046148cc565b6101cc60209081526000928352604080842090915290825290208054600182015460028301546003909301549192909184565b6040805194855260208501939093529183015260608201526080016103bd565b348015610a9e57600080fd5b5061046c6124b6565b348015610ab357600080fd5b506103b3610ac23660046145b7565b6124c5565b348015610ad357600080fd5b506104af610ae23660046147c7565b61255c565b348015610af357600080fd5b506103b3610b0236600461489c565b6125f5565b348015610b1357600080fd5b506104af610b223660046147c7565b612694565b348015610b3357600080fd5b506104ff610b423660046147f2565b6126a1565b348015610b5357600080fd5b506104ff610b6236600461460b565b6127d7565b348015610b7357600080fd5b506103b3610b823660046148cc565b6101cd60209081526000928352604080842090915290825290205481565b348015610bac57600080fd5b506104ff610bbb36600461469b565b6129bd565b348015610bcc57600080fd5b506103b3610bdb3660046145d3565b6001600160a01b03918216600090815260986020908152604080832093909416825291909152205490565b348015610c1257600080fd5b506104ff610c21366004614957565b612b03565b348015610c3257600080fd5b50610c46610c4136600461484b565b612d76565b60408051825163ffffffff1681526020928301516001600160e01b031692810192909252016103bd565b348015610c7c57600080fd5b506104ff610c8b3660046145b7565b612e09565b348015610c9c57600080fd5b506103b36101d15481565b348015610cb357600080fd5b506101c854610713906001600160a01b031681565b610d116040518060e0016040528060006001600160a01b031681526020016000815260200160008152602001600081526020016000815260200160008152602001600081525090565b6101ca8281548110610d3357634e487b7160e01b600052603260045260246000fd5b60009182526020918290206040805160e081018252600790930290910180546001600160a01b031683526001810154938301939093526002830154908201526003820154606082015260048201546080820152600582015460a082015260069091015460c082015290505b919050565b6060609a8054610db290614ba6565b80601f0160208091040260200160405190810160405280929190818152602001828054610dde90614ba6565b8015610e2b5780601f10610e0057610100808354040283529160200191610e2b565b820191906000526020600020905b815481529060010190602001808311610e0e57829003601f168201915b5050505050905090565b6000610e42338484612ea2565b5060015b92915050565b6000806101ca8481548110610e7157634e487b7160e01b600052603260045260246000fd5b600091825260208083208784526101cc825260408085206001600160a01b0389168652909252922060036007909202909201908101546101d0546002830154929450909143118015610ec257508015155b15610fab576000610f66610ee56101d1546101d054612fc690919063ffffffff16565b86546040516370a0823160e01b81523060048201526001600160a01b03909116906370a08231906024015b60206040518083038186803b158015610f2857600080fd5b505afa158015610f3c573d6000803e3d6000fd5b505050506040513d601f19601f82011682018060405250810190610f6091906148b4565b90612fc6565b90506000610f81866005015483612fc690919063ffffffff16565b9050610fa6610f9f84610f998464e8d4a51000612fd2565b90612fde565b8590612fea565b935050505b6000610fd58460020154610f6064e8d4a51000610f99878960000154612fd290919063ffffffff16565b6101c7546040516370a0823160e01b81526001600160a01b038a811660048301529293509116906370a082319060240160206040518083038186803b15801561101d57600080fd5b505afa158015611031573d6000803e3d6000fd5b505050506040513d601f19601f8201168201806040525081019061105591906148b4565b60011415611069579450610e469350505050565b6110796064610f9983605a612fd2565b95505050505050610e46565b6101c8546001600160a01b031633146110e55760405162461bcd60e51b815260206004820152601c60248201527f73656e646572206d7573742062652061646d696e20616464726573730000000060448201526064015b60405180910390fd5b806110ff6101d1546101d054612fc690919063ffffffff16565b10156111615760405162461bcd60e51b815260206004820152602b60248201527f416d6f756e74206d757374206265206c657373207468616e207374616b65642060448201526a11d3d31108185b5bdd5b9d60aa1b60648201526084016110dc565b60006101ca848154811061118557634e487b7160e01b600052603260045260246000fd5b6000918252602082206007919091020180546040516370a0823160e01b81523060048201529193506001600160a01b0316906370a082319060240160206040518083038186803b1580156111d857600080fd5b505afa1580156111ec573d6000803e3d6000fd5b505050506040513d601f19601f8201168201806040525081019061121091906148b4565b9050808311156112f757815460405163a9059cbb60e01b81526001600160a01b038681166004830152602482018490529091169063a9059cbb90604401602060405180830381600087803b15801561126757600080fd5b505af115801561127b573d6000803e3d6000fd5b505050506040513d601f19601f8201168201806040525081019061129f9190614880565b506101d1546112ae9082612fea565b6101d15560405181815285906001600160a01b038616907fbb757047c2b5f3974fe26b7c10f732e7bce710b0952a71082702781e62ae05959060200160405180910390a36113d1565b815460405163a9059cbb60e01b81526001600160a01b038681166004830152602482018690529091169063a9059cbb90604401602060405180830381600087803b15801561134457600080fd5b505af1158015611358573d6000803e3d6000fd5b505050506040513d601f19601f8201168201806040525081019061137c9190614880565b506101d15461138b9084612fea565b6101d15560405183815285906001600160a01b038616907fbb757047c2b5f3974fe26b7c10f732e7bce710b0952a71082702781e62ae0595906020015b60405180910390a35b5050505050565b6113fc60405180606001604052806000815260200160008152602001600081525090565b6101cb828154811061141e57634e487b7160e01b600052603260045260246000fd5b906000526020600020906003020160405180606001604052908160008201548152602001600182015481526020016002820154815250509050919050565b6101ca818154811061146d57600080fd5b600091825260209091206007909102018054600182015460028301546003840154600485015460058601546006909601546001600160a01b039095169650929491939092919087565b610162546001600160a01b031633146114e15760405162461bcd60e51b81526004016110dc90614a8c565b80156114ef576114ef61216b565b60006101cf544311611504576101cf54611506565b435b6101ce549091506115179085612fea565b6101ce556040805160e0810182526001600160a01b0394851681526020808201968752818301938452600060608084018281526080850183815260a0860184815260c087018581526101ca80546001808201835591885298517f0faeda9012b7f59bd2a84ac2a33ead5fc9f720c38d8bbf90db1ac3c1518386eb6007909a02998a0180546001600160a01b03191691909e1617909c559b517f0faeda9012b7f59bd2a84ac2a33ead5fc9f720c38d8bbf90db1ac3c1518386ec88015597517f0faeda9012b7f59bd2a84ac2a33ead5fc9f720c38d8bbf90db1ac3c1518386ed87015590517f0faeda9012b7f59bd2a84ac2a33ead5fc9f720c38d8bbf90db1ac3c1518386ee860155517f0faeda9012b7f59bd2a84ac2a33ead5fc9f720c38d8bbf90db1ac3c1518386ef85015594517f0faeda9012b7f59bd2a84ac2a33ead5fc9f720c38d8bbf90db1ac3c1518386f084015596517f0faeda9012b7f59bd2a84ac2a33ead5fc9f720c38d8bbf90db1ac3c1518386f1909201919091558151928301825285835282018581529082018581526101cb8054958601815590955290517fe8bbfecd380c4167d6a1f763a233ec73e73f534b1970c4e1683f437ec23c1f44600390940293840155517fe8bbfecd380c4167d6a1f763a233ec73e73f534b1970c4e1683f437ec23c1f458301555090517fe8bbfecd380c4167d6a1f763a233ec73e73f534b1970c4e1683f437ec23c1f4690910155565b600061173e848484612ff6565b6001600160a01b0384166000908152609860209081526040808320338452909152902054828110156117c35760405162461bcd60e51b815260206004820152602860248201527f45524332303a207472616e7366657220616d6f756e74206578636565647320616044820152676c6c6f77616e636560c01b60648201526084016110dc565b6117d08533858403612ea2565b60019150505b9392505050565b6118086040518060800160405280600081526020016000815260200160008152602001600081525090565b5060009182526101cc602090815260408084206001600160a01b039390931684529181529181902081516080810183528154815260018201549381019390935260028101549183019190915260030154606082015290565b600061186a6131db565b905090565b306001600160a01b037f00000000000000000000000000000000000000000000000000000000000000001614156118b85760405162461bcd60e51b81526004016110dc906149f4565b7f00000000000000000000000000000000000000000000000000000000000000006001600160a01b03166118ea613256565b6001600160a01b0316146119105760405162461bcd60e51b81526004016110dc90614a40565b61191981613284565b60408051600080825260208201909252611935918391906132fc565b50565b3360008181526098602090815260408083206001600160a01b03871684529091528120549091610e4291859061196f908690614b0c565b612ea2565b60004382106119c55760405162461bcd60e51b815260206004820152601f60248201527f4552433230566f7465733a20626c6f636b206e6f7420796574206d696e65640060448201526064016110dc565b6001600160a01b0383166000908152610131602052604090206117d69083613440565b60006101ca8381548110611a0c57634e487b7160e01b600052603260045260246000fd5b600091825260208083208684526101cc825260408085203386529092529220600381015460079092029092019250421015611a7e5760405162461bcd60e51b81526020600482015260126024820152713bb4ba34323930bb9d103a37b79039b7b7b760711b60448201526064016110dc565b8054831115611ac65760405162461bcd60e51b815260206004820152601460248201527377697468647261773a20746f6f206c6974746c6560601b60448201526064016110dc565b611acf84611d96565b6000611afd8260020154610f6064e8d4a51000610f9987600301548760000154612fd290919063ffffffff16565b90508015611b8a57825460405163a9059cbb60e01b8152336004820152602481018390526001600160a01b039091169063a9059cbb90604401602060405180830381600087803b158015611b5057600080fd5b505af1158015611b64573d6000803e3d6000fd5b505050506040513d601f19601f82011682018060405250810190611b889190614880565b505b611bd5611ba66101d1546101d054612fc690919063ffffffff16565b84546040516370a0823160e01b81523060048201526001600160a01b03909116906370a0823190602401610f10565b60058401558154611be69085612fc6565b82556101d054611bf69085612fc6565b6101d05560038301548254611c159164e8d4a5100091610f9991612fd2565b6002830155825460405163a9059cbb60e01b8152336004820152602481018690526001600160a01b039091169063a9059cbb90604401602060405180830381600087803b158015611c6557600080fd5b505af1158015611c79573d6000803e3d6000fd5b505050506040513d601f19601f82011682018060405250810190611c9d9190614880565b50611ca83385613519565b604051848152859033907ff279e6a1f5e320cca91135676d9cb6e44ca8a08c0b88342bcdb1144f6511b568906020016113c8565b306001600160a01b037f0000000000000000000000000000000000000000000000000000000000000000161415611d255760405162461bcd60e51b81526004016110dc906149f4565b7f00000000000000000000000000000000000000000000000000000000000000006001600160a01b0316611d57613256565b6001600160a01b031614611d7d5760405162461bcd60e51b81526004016110dc90614a40565b611d8682613284565b611d92828260016132fc565b5050565b60006101ca8281548110611dba57634e487b7160e01b600052603260045260246000fd5b600091825260208083208584526101cc82526040808520338652909252922060026007909202909201908101549092504311611df7575050611935565b6000611e15611ba66101d1546101d054612fc690919063ffffffff16565b90506000611e3e611e33856005015484612fc690919063ffffffff16565b600686015490612fea565b60058501839055600685018190556101d05490915080611e8c575050436002808501919091556000600385018190556004850181905592018290555060058201819055600690910155611935565b6000611ea5866004015484612fc690919063ffffffff16565b9050611ec8611ebd83610f998464e8d4a51000612fd2565b600388015490612fea565b60038701555050600490930192909255505050565b60006101ca8281548110611f0157634e487b7160e01b600052603260045260246000fd5b600091825260208083208584526101cc82526040808520338652909252922060079091029091019150611f3383611d96565b6000611f618260020154610f6064e8d4a51000610f9987600301548760000154612fd290919063ffffffff16565b90508015612117576101c7546040516370a0823160e01b81523360048201526001600160a01b03909116906370a082319060240160206040518083038186803b158015611fad57600080fd5b505afa158015611fc1573d6000803e3d6000fd5b505050506040513d601f19601f82011682018060405250810190611fe591906148b4565b6001141561207657825460405163a9059cbb60e01b8152336004820152602481018390526001600160a01b039091169063a9059cbb90604401602060405180830381600087803b15801561203857600080fd5b505af115801561204c573d6000803e3d6000fd5b505050506040513d601f19601f820116820180604052508101906120709190614880565b50612117565b82546001600160a01b031663a9059cbb336120976064610f9986605a612fd2565b6040516001600160e01b031960e085901b1681526001600160a01b0390921660048301526024820152604401602060405180830381600087803b1580156120dd57600080fd5b505af11580156120f1573d6000803e3d6000fd5b505050506040513d601f19601f820116820180604052508101906121159190614880565b505b612133611ba66101d1546101d054612fc690919063ffffffff16565b6005840155600383015482546121539164e8d4a5100091610f9991612fd2565b826002018190555050505050565b6119353382613523565b6101ca5460005b81811015611d925761218381611d96565b61218c81614bdb565b9050612172565b6001600160a01b0381166121df5760405162461bcd60e51b815260206004820152601360248201527261646d696e3a205a65726f206164647265737360681b60448201526064016110dc565b6101c8546001600160a01b031633146122285760405162461bcd60e51b815260206004820152600b60248201526a61646d696e3a207775743f60a81b60448201526064016110dc565b6101c880546001600160a01b0319166001600160a01b0383169081179091556040519081527f54e4612788f90384e6843298d7854436f3a585b2c3831ab66abf1de63bfa6c2d9060200160405180910390a150565b610162546001600160a01b031633146122a85760405162461bcd60e51b81526004016110dc90614a8c565b80156122b6576122b661216b565b612309826123036101ca86815481106122df57634e487b7160e01b600052603260045260246000fd5b9060005260206000209060070201600101546101ce54612fc690919063ffffffff16565b90612fea565b6101ce81905550816101ca848154811061233357634e487b7160e01b600052603260045260246000fd5b906000526020600020906007020160010181905550505050565b6001600160a01b03811660009081526101316020526040812054610e469061352d565b610162546001600160a01b0316331461239b5760405162461bcd60e51b81526004016110dc90614a8c565b6123a56000613596565b565b610162546001600160a01b031633146123d25760405162461bcd60e51b81526004016110dc90614a8c565b6101d255565b6001600160a01b038116600090815260fd6020526040812054610e46565b6101cb818154811061240757600080fd5b600091825260209091206003909102018054600182015460029092015490925083565b600082821061244f5761244860016124428486612fc6565b90612fd2565b9050610e46565b6124488383612fc6565b60004382106124aa5760405162461bcd60e51b815260206004820152601f60248201527f4552433230566f7465733a20626c6f636b206e6f7420796574206d696e65640060448201526064016110dc565b610e4661013283613440565b6060609b8054610db290614ba6565b6001600160a01b038116600090815261013160205260408120548015612549576001600160a01b038316600090815261013160205260409020612509600183614b63565b8154811061252757634e487b7160e01b600052603260045260246000fd5b60009182526020909120015464010000000090046001600160e01b031661254c565b60005b6001600160e01b03169392505050565b3360009081526098602090815260408083206001600160a01b0386168452909152812054828110156125de5760405162461bcd60e51b815260206004820152602560248201527f45524332303a2064656372656173656420616c6c6f77616e63652062656c6f77604482015264207a65726f60d81b60648201526084016110dc565b6125eb3385858403612ea2565b5060019392505050565b6000806101ca838154811061261a57634e487b7160e01b600052603260045260246000fd5b906000526020600020906007020190508060020154431161263f576000915050610d9e565b600061268c61265d6101d1546101d054612fc690919063ffffffff16565b83546040516370a0823160e01b81523060048201526001600160a01b03909116906370a0823190602401610f10565b949350505050565b6000610e42338484612ff6565b834211156126f15760405162461bcd60e51b815260206004820152601d60248201527f4552433230566f7465733a207369676e6174757265206578706972656400000060448201526064016110dc565b604080517fe48329057bfd03d55e49b547132e39cffd9c1820ad7b9d4c5307691425d15adf60208201526001600160a01b03881691810191909152606081018690526080810185905260009061276b906127639060a001604051602081830303815290604052805190602001206135e9565b858585613637565b90506127768161365f565b86146127c45760405162461bcd60e51b815260206004820152601960248201527f4552433230566f7465733a20696e76616c6964206e6f6e63650000000000000060448201526064016110dc565b6127ce8188613523565b50505050505050565b600054610100900460ff166127f25760005460ff16156127f6565b303b155b6128595760405162461bcd60e51b815260206004820152602e60248201527f496e697469616c697a61626c653a20636f6e747261637420697320616c72656160448201526d191e481a5b9a5d1a585b1a5e995960921b60648201526084016110dc565b600054610100900460ff16158015612884576000805460ff1961ff0019909116610100171660011790555b6001600160a01b0383166128da5760405162461bcd60e51b815260206004820152601860248201527f696e697469616c697a653a205a65726f2061646472657373000000000000000060448201526064016110dc565b6128e2613687565b612924604051806040016040528060048152602001634d61696160e01b815250604051806040016040528060048152602001634d61696160e01b8152506136be565b61292c613711565b612951604051806040016040528060048152602001634d61696160e01b815250613745565b6129596137a0565b6101c680546001600160a01b038088166001600160a01b0319928316179092556101c780548784169083161790556101c88054928616929091169190911790556101cf82905560006101d25580156113d1576000805461ff00191690555050505050565b83421115612a0d5760405162461bcd60e51b815260206004820152601d60248201527f45524332305065726d69743a206578706972656420646561646c696e6500000060448201526064016110dc565b600060fe54888888612a1e8c61365f565b6040805160208101969096526001600160a01b0394851690860152929091166060840152608083015260a082015260c0810186905260e0016040516020818303038152906040528051906020012090506000612a79826135e9565b90506000612a8982878787613637565b9050896001600160a01b0316816001600160a01b031614612aec5760405162461bcd60e51b815260206004820152601e60248201527f45524332305065726d69743a20696e76616c6964207369676e6174757265000060448201526064016110dc565b612af78a8a8a612ea2565b50505050505050505050565b60006101ca8381548110612b2757634e487b7160e01b600052603260045260246000fd5b600091825260208083208684526101cc82526040808520338652909252922060079091029091019150612b5984611d96565b805415612c3e576000612b8e8260020154610f6064e8d4a51000610f9987600301548760000154612fd290919063ffffffff16565b90508015612c1b57825460405163a9059cbb60e01b8152336004820152602481018390526001600160a01b039091169063a9059cbb90604401602060405180830381600087803b158015612be157600080fd5b505af1158015612bf5573d6000803e3d6000fd5b505050506040513d601f19601f82011682018060405250810190612c199190614880565b505b612c37611ba66101d1546101d054612fc690919063ffffffff16565b6005840155505b6000612c5a612c536064610f99876004612fd2565b8590612fc6565b83546040516323b872dd60e01b8152336004820152306024820152604481018790529192506001600160a01b0316906323b872dd90606401602060405180830381600087803b158015612cac57600080fd5b505af1158015612cc0573d6000803e3d6000fd5b505050506040513d601f19601f82011682018060405250810190612ce49190614880565b506101d054612cf39082612fea565b6101d0558154612d039082612fea565b8083556003840154612d209164e8d4a5100091610f999190612fd2565b60028301556101d254612d339042614b0c565b6003830155612d4233826137c7565b604051818152859033907f90890809c654f11d6e72a28fa60149770a0d11ec6c92319d6ceb2bb0a4ea1a15906020016113c8565b60408051808201909152600080825260208201526001600160a01b038316600090815261013160205260409020805463ffffffff8416908110612dc957634e487b7160e01b600052603260045260246000fd5b60009182526020918290206040805180820190915291015463ffffffff8116825264010000000090046001600160e01b0316918101919091529392505050565b610162546001600160a01b03163314612e345760405162461bcd60e51b81526004016110dc90614a8c565b6001600160a01b038116612e995760405162461bcd60e51b815260206004820152602660248201527f4f776e61626c653a206e6577206f776e657220697320746865207a65726f206160448201526564647265737360d01b60648201526084016110dc565b61193581613596565b6001600160a01b038316612f045760405162461bcd60e51b8152602060048201526024808201527f45524332303a20617070726f76652066726f6d20746865207a65726f206164646044820152637265737360e01b60648201526084016110dc565b6001600160a01b038216612f655760405162461bcd60e51b815260206004820152602260248201527f45524332303a20617070726f766520746f20746865207a65726f206164647265604482015261737360f01b60648201526084016110dc565b6001600160a01b0383811660008181526098602090815260408083209487168084529482529182902085905590518481527f8c5be1e5ebec7d5bd14f71427d1e84f3dd0314c0f7b2291e5b200ac8c7c3b925910160405180910390a3505050565b60006117d68284614b63565b60006117d68284614b44565b60006117d68284614b24565b60006117d68284614b0c565b6001600160a01b03831661305a5760405162461bcd60e51b815260206004820152602560248201527f45524332303a207472616e736665722066726f6d20746865207a65726f206164604482015264647265737360d81b60648201526084016110dc565b6001600160a01b0382166130bc5760405162461bcd60e51b815260206004820152602360248201527f45524332303a207472616e7366657220746f20746865207a65726f206164647260448201526265737360e81b60648201526084016110dc565b6130c78383836137d1565b6001600160a01b0383166000908152609760205260409020548181101561313f5760405162461bcd60e51b815260206004820152602660248201527f45524332303a207472616e7366657220616d6f756e7420657863656564732062604482015265616c616e636560d01b60648201526084016110dc565b6001600160a01b03808516600090815260976020526040808220858503905591851681529081208054849290613176908490614b0c565b92505081905550826001600160a01b0316846001600160a01b03167fddf252ad1be2c89b69c2b068fc378daa952ba7f163c4a11628f55a4df523b3ef846040516131c291815260200190565b60405180910390a36131d5848484613839565b50505050565b600061186a7f8b73c3c69bb8fe3d512ecc4cf759cc79239f7b179b0ffacaa9a75d522b39400f61320a60c95490565b60ca546040805160208101859052908101839052606081018290524660808201523060a082015260009060c0016040516020818303038152906040528051906020012090509392505050565b7f360894a13ba1a3210667c828492db98dca3e2076cc3735a920a3ca505d382bbc546001600160a01b031690565b33613298610162546001600160a01b031690565b6001600160a01b0316146119355760405162461bcd60e51b815260206004820152602560248201527f4f6e6c79206f776e65722063616e207570677261646520696d706c656d656e7460448201526430ba34b7b760d91b60648201526084016110dc565b6000613306613256565b905061331184613844565b60008351118061331e5750815b1561332f5761332d84846138e9565b505b7f4910fdfa16fed3260ed0e7147f7cc6da11a60208b5b9406d12a635614ffd9143805460ff166113d157805460ff191660011781556040516001600160a01b03831660248201526133ae90869060440160408051601f198184030181529190526020810180516001600160e01b0316631b2ce7f360e11b1790526138e9565b50805460ff191681556133bf613256565b6001600160a01b0316826001600160a01b0316146134375760405162461bcd60e51b815260206004820152602f60248201527f45524331393637557067726164653a207570677261646520627265616b73206660448201526e75727468657220757067726164657360881b60648201526084016110dc565b6113d1856139d4565b8154600090815b818110156134b257600061345b8284613a14565b90508486828154811061347e57634e487b7160e01b600052603260045260246000fd5b60009182526020909120015463ffffffff16111561349e578092506134ac565b6134a9816001614b0c565b91505b50613447565b811561350457846134c4600184614b63565b815481106134e257634e487b7160e01b600052603260045260246000fd5b60009182526020909120015464010000000090046001600160e01b0316613507565b60005b6001600160e01b031695945050505050565b611d928282613a2f565b611d928282613a48565b600063ffffffff8211156135925760405162461bcd60e51b815260206004820152602660248201527f53616665436173743a2076616c756520646f65736e27742066697420696e203360448201526532206269747360d01b60648201526084016110dc565b5090565b61016280546001600160a01b038381166001600160a01b0319831681179093556040519116919082907f8be0079c531659141344cd1fd0a4f28419497f9722a3daafe3b4186f6b6457e090600090a35050565b6000610e466135f66131db565b8360405161190160f01b6020820152602281018390526042810182905260009060620160405160208183030381529060405280519060200120905092915050565b600080600061364887878787613ac3565b9150915061365581613bb0565b5095945050505050565b6001600160a01b038116600090815260fd602052604090208054600181018255905b50919050565b600054610100900460ff166136ae5760405162461bcd60e51b81526004016110dc90614ac1565b6136b66137a0565b6123a5613db3565b600054610100900460ff166136e55760405162461bcd60e51b81526004016110dc90614ac1565b81516136f890609a906020850190614516565b50805161370c90609b906020840190614516565b505050565b600054610100900460ff166137385760405162461bcd60e51b81526004016110dc90614ac1565b610194805460ff19169055565b600054610100900460ff1661376c5760405162461bcd60e51b81526004016110dc90614ac1565b6137746137a0565b61379781604051806040016040528060018152602001603160f81b815250613de3565b61193581613e24565b600054610100900460ff166123a55760405162461bcd60e51b81526004016110dc90614ac1565b611d928282613e72565b6001600160a01b03831615806137ee57506001600160a01b038216155b156137f85761370c565b60405162461bcd60e51b81526020600482015260166024820152752737b7103a3930b739b332b930b13632903a37b5b2b760511b60448201526064016110dc565b61370c838383613efd565b803b6138a85760405162461bcd60e51b815260206004820152602d60248201527f455243313936373a206e657720696d706c656d656e746174696f6e206973206e60448201526c1bdd08184818dbdb9d1c9858dd609a1b60648201526084016110dc565b7f360894a13ba1a3210667c828492db98dca3e2076cc3735a920a3ca505d382bbc80546001600160a01b0319166001600160a01b0392909216919091179055565b6060823b6139485760405162461bcd60e51b815260206004820152602660248201527f416464726573733a2064656c65676174652063616c6c20746f206e6f6e2d636f6044820152651b9d1c9858dd60d21b60648201526084016110dc565b600080846001600160a01b03168460405161396391906149a5565b600060405180830381855af49150503d806000811461399e576040519150601f19603f3d011682016040523d82523d6000602084013e6139a3565b606091505b50915091506139cb8282604051806060016040528060278152602001614c4660279139613f30565b95945050505050565b6139dd81613844565b6040516001600160a01b038216907fbc7cd75a20ee27fd9adebab32041f755214dbc6bffa90cc0225b39da2e5c2d3b90600090a250565b6000613a236002848418614b24565b6117d690848416614b0c565b613a398282613f69565b6131d5610132612fc6836140ca565b6001600160a01b0382811660008181526101306020818152604080842080546097845282862054949093528787166001600160a01b03198416811790915590519190951694919391928592917f3134e8a2e6d97e929a7e54011ea5485d7d196dd5f0ba4d4ef95803e8e3fc257f9190a46131d582848361427b565b6000807f7fffffffffffffffffffffffffffffff5d576e7357a4501ddfe92f46681b20a0831115613afa5750600090506003613ba7565b8460ff16601b14158015613b1257508460ff16601c14155b15613b235750600090506004613ba7565b6040805160008082526020820180845289905260ff881692820192909252606081018690526080810185905260019060a0016020604051602081039080840390855afa158015613b77573d6000803e3d6000fd5b5050604051601f1901519150506001600160a01b038116613ba057600060019250925050613ba7565b9150600090505b94509492505050565b6000816004811115613bd257634e487b7160e01b600052602160045260246000fd5b1415613bdd57611935565b6001816004811115613bff57634e487b7160e01b600052602160045260246000fd5b1415613c4d5760405162461bcd60e51b815260206004820152601860248201527f45434453413a20696e76616c6964207369676e6174757265000000000000000060448201526064016110dc565b6002816004811115613c6f57634e487b7160e01b600052602160045260246000fd5b1415613cbd5760405162461bcd60e51b815260206004820152601f60248201527f45434453413a20696e76616c6964207369676e6174757265206c656e6774680060448201526064016110dc565b6003816004811115613cdf57634e487b7160e01b600052602160045260246000fd5b1415613d385760405162461bcd60e51b815260206004820152602260248201527f45434453413a20696e76616c6964207369676e6174757265202773272076616c604482015261756560f01b60648201526084016110dc565b6004816004811115613d5a57634e487b7160e01b600052602160045260246000fd5b14156119355760405162461bcd60e51b815260206004820152602260248201527f45434453413a20696e76616c6964207369676e6174757265202776272076616c604482015261756560f01b60648201526084016110dc565b600054610100900460ff16613dda5760405162461bcd60e51b81526004016110dc90614ac1565b6123a533613596565b600054610100900460ff16613e0a5760405162461bcd60e51b81526004016110dc90614ac1565b81516020928301208151919092012060c99190915560ca55565b600054610100900460ff16613e4b5760405162461bcd60e51b81526004016110dc90614ac1565b507f6e71edae12b1b97f4d1f60370fef10105fa2faae0126114a169c64845d6126c960fe55565b613e7c82826143ba565b6099546001600160e01b031015613eee5760405162461bcd60e51b815260206004820152603060248201527f4552433230566f7465733a20746f74616c20737570706c79207269736b73206f60448201526f766572666c6f77696e6720766f74657360801b60648201526084016110dc565b6131d5610132612fea836140ca565b6001600160a01b038381166000908152610130602052604080822054858416835291205461370c9291821691168361427b565b60608315613f3f5750816117d6565b825115613f4f5782518084602001fd5b8160405162461bcd60e51b81526004016110dc91906149c1565b6001600160a01b038216613fc95760405162461bcd60e51b815260206004820152602160248201527f45524332303a206275726e2066726f6d20746865207a65726f206164647265736044820152607360f81b60648201526084016110dc565b613fd5826000836137d1565b6001600160a01b038216600090815260976020526040902054818110156140495760405162461bcd60e51b815260206004820152602260248201527f45524332303a206275726e20616d6f756e7420657863656564732062616c616e604482015261636560f01b60648201526084016110dc565b6001600160a01b0383166000908152609760205260408120838303905560998054849290614078908490614b63565b90915550506040518281526000906001600160a01b038516907fddf252ad1be2c89b69c2b068fc378daa952ba7f163c4a11628f55a4df523b3ef9060200160405180910390a361370c83600084613839565b82546000908190801561412357856140e3600183614b63565b8154811061410157634e487b7160e01b600052603260045260246000fd5b60009182526020909120015464010000000090046001600160e01b0316614126565b60005b6001600160e01b0316925061413f83858763ffffffff16565b915060008111801561418b57504386614159600184614b63565b8154811061417757634e487b7160e01b600052603260045260246000fd5b60009182526020909120015463ffffffff16145b156141f957614199826144ad565b866141a5600184614b63565b815481106141c357634e487b7160e01b600052603260045260246000fd5b9060005260206000200160000160046101000a8154816001600160e01b0302191690836001600160e01b03160217905550614272565b85604051806040016040528061420e4361352d565b63ffffffff168152602001614222856144ad565b6001600160e01b039081169091528254600181018455600093845260209384902083519101805493909401519091166401000000000263ffffffff91821663ffffffff1990931692909217161790555b50935093915050565b816001600160a01b0316836001600160a01b03161415801561429d5750600081115b1561370c576001600160a01b0383161561432c576001600160a01b03831660009081526101316020526040812081906142d990612fc6856140ca565b91509150846001600160a01b03167fdec2bacdd2f05b59de34da9b523dff8be42e5e38e818c82fdb0bae774387a7248383604051614321929190918252602082015260400190565b60405180910390a250505b6001600160a01b0382161561370c576001600160a01b038216600090815261013160205260408120819061436390612fea856140ca565b91509150836001600160a01b03167fdec2bacdd2f05b59de34da9b523dff8be42e5e38e818c82fdb0bae774387a72483836040516143ab929190918252602082015260400190565b60405180910390a25050505050565b6001600160a01b0382166144105760405162461bcd60e51b815260206004820152601f60248201527f45524332303a206d696e7420746f20746865207a65726f20616464726573730060448201526064016110dc565b61441c600083836137d1565b806099600082825461442e9190614b0c565b90915550506001600160a01b0382166000908152609760205260408120805483929061445b908490614b0c565b90915550506040518181526001600160a01b038316906000907fddf252ad1be2c89b69c2b068fc378daa952ba7f163c4a11628f55a4df523b3ef9060200160405180910390a3611d9260008383613839565b60006001600160e01b038211156135925760405162461bcd60e51b815260206004820152602760248201527f53616665436173743a2076616c756520646f65736e27742066697420696e20326044820152663234206269747360c81b60648201526084016110dc565b82805461452290614ba6565b90600052602060002090601f016020900481019282614544576000855561458a565b82601f1061455d57805160ff191683800117855561458a565b8280016001018555821561458a579182015b8281111561458a57825182559160200191906001019061456f565b506135929291505b808211156135925760008155600101614592565b803560ff81168114610d9e57600080fd5b6000602082840312156145c8578081fd5b81356117d681614c22565b600080604083850312156145e5578081fd5b82356145f081614c22565b9150602083013561460081614c22565b809150509250929050565b60008060008060808587031215614620578182fd5b843561462b81614c22565b9350602085013561463b81614c22565b9250604085013561464b81614c22565b9396929550929360600135925050565b60008060006060848603121561466f578283fd5b833561467a81614c22565b9250602084013561468a81614c22565b929592945050506040919091013590565b600080600080600080600060e0888a0312156146b5578283fd5b87356146c081614c22565b965060208801356146d081614c22565b955060408801359450606088013593506146ec608089016145a6565b925060a0880135915060c0880135905092959891949750929550565b6000806040838503121561471a578182fd5b823561472581614c22565b9150602083013567ffffffffffffffff80821115614741578283fd5b818501915085601f830112614754578283fd5b81358181111561476657614766614c0c565b604051601f8201601f19908116603f0116810190838211818310171561478e5761478e614c0c565b816040528281528860208487010111156147a6578586fd5b82602086016020830137856020848301015280955050505050509250929050565b600080604083850312156147d9578182fd5b82356147e481614c22565b946020939093013593505050565b60008060008060008060c0878903121561480a578182fd5b863561481581614c22565b95506020870135945060408701359350614831606088016145a6565b92506080870135915060a087013590509295509295509295565b6000806040838503121561485d578182fd5b823561486881614c22565b9150602083013563ffffffff81168114614600578182fd5b600060208284031215614891578081fd5b81516117d681614c37565b6000602082840312156148ad578081fd5b5035919050565b6000602082840312156148c5578081fd5b5051919050565b600080604083850312156148de578182fd5b82359150602083013561460081614c22565b600080600060608486031215614904578081fd5b83359250602084013561468a81614c22565b60008060006060848603121561492a578081fd5b83359250602084013561493c81614c22565b9150604084013561494c81614c37565b809150509250925092565b60008060408385031215614969578182fd5b50508035926020909101359150565b60008060006060848603121561498c578081fd5b8335925060208401359150604084013561494c81614c37565b600082516149b7818460208701614b7a565b9190910192915050565b60006020825282518060208401526149e0816040850160208701614b7a565b601f01601f19169190910160400192915050565b6020808252602c908201527f46756e6374696f6e206d7573742062652063616c6c6564207468726f7567682060408201526b19195b1959d85d1958d85b1b60a21b606082015260800190565b6020808252602c908201527f46756e6374696f6e206d7573742062652063616c6c6564207468726f7567682060408201526b6163746976652070726f787960a01b606082015260800190565b6020808252818101527f4f776e61626c653a2063616c6c6572206973206e6f7420746865206f776e6572604082015260600190565b6020808252602b908201527f496e697469616c697a61626c653a20636f6e7472616374206973206e6f74206960408201526a6e697469616c697a696e6760a81b606082015260800190565b60008219821115614b1f57614b1f614bf6565b500190565b600082614b3f57634e487b7160e01b81526012600452602481fd5b500490565b6000816000190483118215151615614b5e57614b5e614bf6565b500290565b600082821015614b7557614b75614bf6565b500390565b60005b83811015614b95578181015183820152602001614b7d565b838111156131d55750506000910152565b600281046001821680614bba57607f821691505b6020821081141561368157634e487b7160e01b600052602260045260246000fd5b6000600019821415614bef57614bef614bf6565b5060010190565b634e487b7160e01b600052601160045260246000fd5b634e487b7160e01b600052604160045260246000fd5b6001600160a01b038116811461193557600080fd5b801515811461193557600080fdfe416464726573733a206c6f772d6c6576656c2064656c65676174652063616c6c206661696c6564a2646970667358221220e32fa3d69ba374451a33b1850c0ca1c5d8bb24de362663dee48282fad374b9b464736f6c63430008020033",
  "linkReferences": {},
  "deployedLinkReferences": {}
}