{
  "_format": "hh-sol-artifact-1",
  "contractName": "Maia",
  "sourceName": "contracts/Maia.sol",
  "abi": [
    {
      "anonymous": false,
      "inputs": [
        {
          "indexed": false,
          "internalType": "address",
          "name": "previousAdmin",
          "type": "address"
        },
        {
          "indexed": false,
          "internalType": "address",
          "name": "newAdmin",
          "type": "address"
        }
      ],
      "name": "AdminChanged",
      "type": "event"
    },
    {
      "anonymous": false,
      "inputs": [
        {
          "indexed": false,
          "internalType": "address",
          "name": "newAdmin",
          "type": "address"
        }
      ],
      "name": "AdminUpdated",
      "type": "event"
    },
    {
      "anonymous": false,
      "inputs": [
        {
          "indexed": true,
          "internalType": "address",
          "name": "owner",
          "type": "address"
        },
        {
          "indexed": true,
          "internalType": "address",
          "name": "spender",
          "type": "address"
        },
        {
          "indexed": false,
          "internalType": "uint256",
          "name": "value",
          "type": "uint256"
        }
      ],
      "name": "Approval",
      "type": "event"
    },
    {
      "anonymous": false,
      "inputs": [
        {
          "indexed": true,
          "internalType": "address",
          "name": "beacon",
          "type": "address"
        }
      ],
      "name": "BeaconUpgraded",
      "type": "event"
    },
    {
      "anonymous": false,
      "inputs": [
        {
          "indexed": true,
          "internalType": "address",
          "name": "delegator",
          "type": "address"
        },
        {
          "indexed": true,
          "internalType": "address",
          "name": "fromDelegate",
          "type": "address"
        },
        {
          "indexed": true,
          "internalType": "address",
          "name": "toDelegate",
          "type": "address"
        }
      ],
      "name": "DelegateChanged",
      "type": "event"
    },
    {
      "anonymous": false,
      "inputs": [
        {
          "indexed": true,
          "internalType": "address",
          "name": "delegate",
          "type": "address"
        },
        {
          "indexed": false,
          "internalType": "uint256",
          "name": "previousBalance",
          "type": "uint256"
        },
        {
          "indexed": false,
          "internalType": "uint256",
          "name": "newBalance",
          "type": "uint256"
        }
      ],
      "name": "DelegateVotesChanged",
      "type": "event"
    },
    {
      "anonymous": false,
      "inputs": [
        {
          "indexed": true,
          "internalType": "address",
          "name": "user",
          "type": "address"
        },
        {
          "indexed": true,
          "internalType": "uint256",
          "name": "pid",
          "type": "uint256"
        },
        {
          "indexed": false,
          "internalType": "uint256",
          "name": "amount",
          "type": "uint256"
        }
      ],
      "name": "Deposit",
      "type": "event"
    },
    {
      "anonymous": false,
      "inputs": [
        {
          "indexed": true,
          "internalType": "address",
          "name": "user",
          "type": "address"
        },
        {
          "indexed": true,
          "internalType": "uint256",
          "name": "pid",
          "type": "uint256"
        },
        {
          "indexed": false,
          "internalType": "uint256",
          "name": "amount",
          "type": "uint256"
        }
      ],
      "name": "EmergencyWithdraw",
      "type": "event"
    },
    {
      "anonymous": false,
      "inputs": [
        {
          "indexed": true,
          "internalType": "address",
          "name": "previousOwner",
          "type": "address"
        },
        {
          "indexed": true,
          "internalType": "address",
          "name": "newOwner",
          "type": "address"
        }
      ],
      "name": "OwnershipTransferred",
      "type": "event"
    },
    {
      "anonymous": false,
      "inputs": [
        {
          "indexed": false,
          "internalType": "address",
          "name": "account",
          "type": "address"
        }
      ],
      "name": "Paused",
      "type": "event"
    },
    {
      "anonymous": false,
      "inputs": [
        {
          "indexed": true,
          "internalType": "address",
          "name": "from",
          "type": "address"
        },
        {
          "indexed": true,
          "internalType": "address",
          "name": "to",
          "type": "address"
        },
        {
          "indexed": false,
          "internalType": "uint256",
          "name": "value",
          "type": "uint256"
        }
      ],
      "name": "Transfer",
      "type": "event"
    },
    {
      "anonymous": false,
      "inputs": [
        {
          "indexed": false,
          "internalType": "address",
          "name": "account",
          "type": "address"
        }
      ],
      "name": "Unpaused",
      "type": "event"
    },
    {
      "anonymous": false,
      "inputs": [
        {
          "indexed": true,
          "internalType": "address",
          "name": "implementation",
          "type": "address"
        }
      ],
      "name": "Upgraded",
      "type": "event"
    },
    {
      "anonymous": false,
      "inputs": [
        {
          "indexed": true,
          "internalType": "address",
          "name": "user",
          "type": "address"
        },
        {
          "indexed": true,
          "internalType": "uint256",
          "name": "pid",
          "type": "uint256"
        },
        {
          "indexed": false,
          "internalType": "uint256",
          "name": "amount",
          "type": "uint256"
        }
      ],
      "name": "Withdraw",
      "type": "event"
    },
    {
      "inputs": [],
      "name": "BONUS_MULTIPLIER",
      "outputs": [
        {
          "internalType": "uint256",
          "name": "",
          "type": "uint256"
        }
      ],
      "stateMutability": "view",
      "type": "function"
    },
    {
      "inputs": [],
      "name": "DOMAIN_SEPARATOR",
      "outputs": [
        {
          "internalType": "bytes32",
          "name": "",
          "type": "bytes32"
        }
      ],
      "stateMutability": "view",
      "type": "function"
    },
    {
      "inputs": [],
      "name": "GOLD",
      "outputs": [
        {
          "internalType": "contract IERC20Upgradeable",
          "name": "",
          "type": "address"
        }
      ],
      "stateMutability": "view",
      "type": "function"
    },
    {
      "inputs": [
        {
          "internalType": "uint256",
          "name": "_pid",
          "type": "uint256"
        },
        {
          "internalType": "address",
          "name": "_to",
          "type": "address"
        },
        {
          "internalType": "uint256",
          "name": "_amount",
          "type": "uint256"
        }
      ],
      "name": "accessGOLDTokens",
      "outputs": [],
      "stateMutability": "nonpayable",
      "type": "function"
    },
    {
      "inputs": [
        {
          "internalType": "uint256",
          "name": "_allocPoint",
          "type": "uint256"
        },
        {
          "internalType": "contract IERC20Upgradeable",
          "name": "_lpToken",
          "type": "address"
        },
        {
          "internalType": "bool",
          "name": "_withUpdate",
          "type": "bool"
        }
      ],
      "name": "add",
      "outputs": [],
      "stateMutability": "nonpayable",
      "type": "function"
    },
    {
      "inputs": [
        {
          "internalType": "address",
          "name": "_adminAddress",
          "type": "address"
        }
      ],
      "name": "admin",
      "outputs": [],
      "stateMutability": "nonpayable",
      "type": "function"
    },
    {
      "inputs": [],
      "name": "adminAddress",
      "outputs": [
        {
          "internalType": "address",
          "name": "",
          "type": "address"
        }
      ],
      "stateMutability": "view",
      "type": "function"
    },
    {
      "inputs": [
        {
          "internalType": "address",
          "name": "owner",
          "type": "address"
        },
        {
          "internalType": "address",
          "name": "spender",
          "type": "address"
        }
      ],
      "name": "allowance",
      "outputs": [
        {
          "internalType": "uint256",
          "name": "",
          "type": "uint256"
        }
      ],
      "stateMutability": "view",
      "type": "function"
    },
    {
      "inputs": [
        {
          "internalType": "address",
          "name": "spender",
          "type": "address"
        },
        {
          "internalType": "uint256",
          "name": "amount",
          "type": "uint256"
        }
      ],
      "name": "approve",
      "outputs": [
        {
          "internalType": "bool",
          "name": "",
          "type": "bool"
        }
      ],
      "stateMutability": "nonpayable",
      "type": "function"
    },
    {
      "inputs": [
        {
          "internalType": "address",
          "name": "account",
          "type": "address"
        }
      ],
      "name": "balanceOf",
      "outputs": [
        {
          "internalType": "uint256",
          "name": "",
          "type": "uint256"
        }
      ],
      "stateMutability": "view",
      "type": "function"
    },
    {
      "inputs": [
        {
          "internalType": "address",
          "name": "account",
          "type": "address"
        },
        {
          "internalType": "uint32",
          "name": "pos",
          "type": "uint32"
        }
      ],
      "name": "checkpoints",
      "outputs": [
        {
          "components": [
            {
              "internalType": "uint32",
              "name": "fromBlock",
              "type": "uint32"
            },
            {
              "internalType": "uint224",
              "name": "votes",
              "type": "uint224"
            }
          ],
          "internalType": "struct ERC20VotesUpgradeable.Checkpoint",
          "name": "",
          "type": "tuple"
        }
      ],
      "stateMutability": "view",
      "type": "function"
    },
    {
      "inputs": [
        {
          "internalType": "uint256",
          "name": "_pid",
          "type": "uint256"
        }
      ],
      "name": "claimGOLD",
      "outputs": [],
      "stateMutability": "nonpayable",
      "type": "function"
    },
    {
      "inputs": [],
      "name": "decimals",
      "outputs": [
        {
          "internalType": "uint8",
          "name": "",
          "type": "uint8"
        }
      ],
      "stateMutability": "view",
      "type": "function"
    },
    {
      "inputs": [
        {
          "internalType": "address",
          "name": "spender",
          "type": "address"
        },
        {
          "internalType": "uint256",
          "name": "subtractedValue",
          "type": "uint256"
        }
      ],
      "name": "decreaseAllowance",
      "outputs": [
        {
          "internalType": "bool",
          "name": "",
          "type": "bool"
        }
      ],
      "stateMutability": "nonpayable",
      "type": "function"
    },
    {
      "inputs": [
        {
          "internalType": "address",
          "name": "delegatee",
          "type": "address"
        }
      ],
      "name": "delegate",
      "outputs": [],
      "stateMutability": "nonpayable",
      "type": "function"
    },
    {
      "inputs": [
        {
          "internalType": "address",
          "name": "delegatee",
          "type": "address"
        },
        {
          "internalType": "uint256",
          "name": "nonce",
          "type": "uint256"
        },
        {
          "internalType": "uint256",
          "name": "expiry",
          "type": "uint256"
        },
        {
          "internalType": "uint8",
          "name": "v",
          "type": "uint8"
        },
        {
          "internalType": "bytes32",
          "name": "r",
          "type": "bytes32"
        },
        {
          "internalType": "bytes32",
          "name": "s",
          "type": "bytes32"
        }
      ],
      "name": "delegateBySig",
      "outputs": [],
      "stateMutability": "nonpayable",
      "type": "function"
    },
    {
      "inputs": [
        {
          "internalType": "address",
          "name": "account",
          "type": "address"
        }
      ],
      "name": "delegates",
      "outputs": [
        {
          "internalType": "address",
          "name": "",
          "type": "address"
        }
      ],
      "stateMutability": "view",
      "type": "function"
    },
    {
      "inputs": [
        {
          "internalType": "uint256",
          "name": "_pid",
          "type": "uint256"
        },
        {
          "internalType": "uint256",
          "name": "_amount",
          "type": "uint256"
        }
      ],
      "name": "deposit",
      "outputs": [],
      "stateMutability": "nonpayable",
      "type": "function"
    },
    {
      "inputs": [
        {
          "internalType": "uint256",
          "name": "_from",
          "type": "uint256"
        },
        {
          "internalType": "uint256",
          "name": "_to",
          "type": "uint256"
        }
      ],
      "name": "getMultiplier",
      "outputs": [
        {
          "internalType": "uint256",
          "name": "",
          "type": "uint256"
        }
      ],
      "stateMutability": "pure",
      "type": "function"
    },
    {
      "inputs": [
        {
          "internalType": "uint256",
          "name": "blockNumber",
          "type": "uint256"
        }
      ],
      "name": "getPastTotalSupply",
      "outputs": [
        {
          "internalType": "uint256",
          "name": "",
          "type": "uint256"
        }
      ],
      "stateMutability": "view",
      "type": "function"
    },
    {
      "inputs": [
        {
          "internalType": "address",
          "name": "account",
          "type": "address"
        },
        {
          "internalType": "uint256",
          "name": "blockNumber",
          "type": "uint256"
        }
      ],
      "name": "getPastVotes",
      "outputs": [
        {
          "internalType": "uint256",
          "name": "",
          "type": "uint256"
        }
      ],
      "stateMutability": "view",
      "type": "function"
    },
    {
      "inputs": [
        {
          "internalType": "address",
          "name": "account",
          "type": "address"
        }
      ],
      "name": "getVotes",
      "outputs": [
        {
          "internalType": "uint256",
          "name": "",
          "type": "uint256"
        }
      ],
      "stateMutability": "view",
      "type": "function"
    },
    {
      "inputs": [],
      "name": "gold",
      "outputs": [
        {
          "internalType": "contract IERC20Upgradeable",
          "name": "",
          "type": "address"
        }
      ],
      "stateMutability": "view",
      "type": "function"
    },
    {
      "inputs": [
        {
          "internalType": "uint256",
          "name": "",
          "type": "uint256"
        },
        {
          "internalType": "uint256",
          "name": "",
          "type": "uint256"
        }
      ],
      "name": "highestStakerInPool",
      "outputs": [
        {
          "internalType": "uint256",
          "name": "deposited",
          "type": "uint256"
        },
        {
          "internalType": "address",
          "name": "addr",
          "type": "address"
        }
      ],
      "stateMutability": "view",
      "type": "function"
    },
    {
      "inputs": [
        {
          "internalType": "address",
          "name": "spender",
          "type": "address"
        },
        {
          "internalType": "uint256",
          "name": "addedValue",
          "type": "uint256"
        }
      ],
      "name": "increaseAllowance",
      "outputs": [
        {
          "internalType": "bool",
          "name": "",
          "type": "bool"
        }
      ],
      "stateMutability": "nonpayable",
      "type": "function"
    },
    {
      "inputs": [
        {
          "internalType": "contract IERC20Upgradeable",
          "name": "_GOLD",
          "type": "address"
        },
        {
          "internalType": "address",
          "name": "_adminAddress",
          "type": "address"
        },
        {
          "internalType": "uint256",
          "name": "_startBlock",
          "type": "uint256"
        },
        {
          "internalType": "uint256",
          "name": "_topStakerNumber",
          "type": "uint256"
        }
      ],
      "name": "initialize",
      "outputs": [],
      "stateMutability": "nonpayable",
      "type": "function"
    },
    {
      "inputs": [],
      "name": "massUpdatePools",
      "outputs": [],
      "stateMutability": "nonpayable",
      "type": "function"
    },
    {
      "inputs": [],
      "name": "name",
      "outputs": [
        {
          "internalType": "string",
          "name": "",
          "type": "string"
        }
      ],
      "stateMutability": "view",
      "type": "function"
    },
    {
      "inputs": [
        {
          "internalType": "address",
          "name": "owner",
          "type": "address"
        }
      ],
      "name": "nonces",
      "outputs": [
        {
          "internalType": "uint256",
          "name": "",
          "type": "uint256"
        }
      ],
      "stateMutability": "view",
      "type": "function"
    },
    {
      "inputs": [
        {
          "internalType": "address",
          "name": "account",
          "type": "address"
        }
      ],
      "name": "numCheckpoints",
      "outputs": [
        {
          "internalType": "uint32",
          "name": "",
          "type": "uint32"
        }
      ],
      "stateMutability": "view",
      "type": "function"
    },
    {
      "inputs": [],
      "name": "owner",
      "outputs": [
        {
          "internalType": "address",
          "name": "",
          "type": "address"
        }
      ],
      "stateMutability": "view",
      "type": "function"
    },
    {
      "inputs": [],
      "name": "paused",
      "outputs": [
        {
          "internalType": "bool",
          "name": "",
          "type": "bool"
        }
      ],
      "stateMutability": "view",
      "type": "function"
    },
    {
      "inputs": [
        {
          "internalType": "uint256",
          "name": "_pid",
          "type": "uint256"
        },
        {
          "internalType": "address",
          "name": "_user",
          "type": "address"
        }
      ],
      "name": "pendingGOLD",
      "outputs": [
        {
          "internalType": "uint256",
          "name": "",
          "type": "uint256"
        }
      ],
      "stateMutability": "view",
      "type": "function"
    },
    {
      "inputs": [
        {
          "internalType": "address",
          "name": "owner",
          "type": "address"
        },
        {
          "internalType": "address",
          "name": "spender",
          "type": "address"
        },
        {
          "internalType": "uint256",
          "name": "value",
          "type": "uint256"
        },
        {
          "internalType": "uint256",
          "name": "deadline",
          "type": "uint256"
        },
        {
          "internalType": "uint8",
          "name": "v",
          "type": "uint8"
        },
        {
          "internalType": "bytes32",
          "name": "r",
          "type": "bytes32"
        },
        {
          "internalType": "bytes32",
          "name": "s",
          "type": "bytes32"
        }
      ],
      "name": "permit",
      "outputs": [],
      "stateMutability": "nonpayable",
      "type": "function"
    },
    {
      "inputs": [
        {
          "internalType": "uint256",
          "name": "",
          "type": "uint256"
        }
      ],
      "name": "poolInfo",
      "outputs": [
        {
          "internalType": "contract IERC20Upgradeable",
          "name": "lpToken",
          "type": "address"
        },
        {
          "internalType": "uint256",
          "name": "allocPoint",
          "type": "uint256"
        },
        {
          "internalType": "uint256",
          "name": "lastRewardBlock",
          "type": "uint256"
        },
        {
          "internalType": "uint256",
          "name": "accGOLDPerShare",
          "type": "uint256"
        },
        {
          "internalType": "uint256",
          "name": "lastTotalGOLDReward",
          "type": "uint256"
        },
        {
          "internalType": "uint256",
          "name": "lastGOLDRewardBalance",
          "type": "uint256"
        },
        {
          "internalType": "uint256",
          "name": "totalGOLDReward",
          "type": "uint256"
        }
      ],
      "stateMutability": "view",
      "type": "function"
    },
    {
      "inputs": [],
      "name": "poolLength",
      "outputs": [
        {
          "internalType": "uint256",
          "name": "",
          "type": "uint256"
        }
      ],
      "stateMutability": "view",
      "type": "function"
    },
    {
      "inputs": [],
      "name": "renounceOwnership",
      "outputs": [],
      "stateMutability": "nonpayable",
      "type": "function"
    },
    {
      "inputs": [
        {
          "internalType": "uint256",
          "name": "_pid",
          "type": "uint256"
        },
        {
          "internalType": "uint256",
          "name": "_allocPoint",
          "type": "uint256"
        },
        {
          "internalType": "bool",
          "name": "_withUpdate",
          "type": "bool"
        }
      ],
      "name": "set",
      "outputs": [],
      "stateMutability": "nonpayable",
      "type": "function"
    },
    {
      "inputs": [],
      "name": "startBlock",
      "outputs": [
        {
          "internalType": "uint256",
          "name": "",
          "type": "uint256"
        }
      ],
      "stateMutability": "view",
      "type": "function"
    },
    {
      "inputs": [],
      "name": "symbol",
      "outputs": [
        {
          "internalType": "string",
          "name": "",
          "type": "string"
        }
      ],
      "stateMutability": "view",
      "type": "function"
    },
    {
      "inputs": [],
      "name": "topStakerNumber",
      "outputs": [
        {
          "internalType": "uint256",
          "name": "",
          "type": "uint256"
        }
      ],
      "stateMutability": "view",
      "type": "function"
    },
    {
      "inputs": [],
      "name": "totalAllocPoint",
      "outputs": [
        {
          "internalType": "uint256",
          "name": "",
          "type": "uint256"
        }
      ],
      "stateMutability": "view",
      "type": "function"
    },
    {
      "inputs": [],
      "name": "totalGOLDStaked",
      "outputs": [
        {
          "internalType": "uint256",
          "name": "",
          "type": "uint256"
        }
      ],
      "stateMutability": "view",
      "type": "function"
    },
    {
      "inputs": [],
      "name": "totalGOLDUsedForPurchase",
      "outputs": [
        {
          "internalType": "uint256",
          "name": "",
          "type": "uint256"
        }
      ],
      "stateMutability": "view",
      "type": "function"
    },
    {
      "inputs": [],
      "name": "totalSupply",
      "outputs": [
        {
          "internalType": "uint256",
          "name": "",
          "type": "uint256"
        }
      ],
      "stateMutability": "view",
      "type": "function"
    },
    {
      "inputs": [
        {
          "internalType": "address",
          "name": "recipient",
          "type": "address"
        },
        {
          "internalType": "uint256",
          "name": "amount",
          "type": "uint256"
        }
      ],
      "name": "transfer",
      "outputs": [
        {
          "internalType": "bool",
          "name": "",
          "type": "bool"
        }
      ],
      "stateMutability": "nonpayable",
      "type": "function"
    },
    {
      "inputs": [
        {
          "internalType": "address",
          "name": "sender",
          "type": "address"
        },
        {
          "internalType": "address",
          "name": "recipient",
          "type": "address"
        },
        {
          "internalType": "uint256",
          "name": "amount",
          "type": "uint256"
        }
      ],
      "name": "transferFrom",
      "outputs": [
        {
          "internalType": "bool",
          "name": "",
          "type": "bool"
        }
      ],
      "stateMutability": "nonpayable",
      "type": "function"
    },
    {
      "inputs": [
        {
          "internalType": "address",
          "name": "newOwner",
          "type": "address"
        }
      ],
      "name": "transferOwnership",
      "outputs": [],
      "stateMutability": "nonpayable",
      "type": "function"
    },
    {
      "inputs": [
        {
          "internalType": "uint256",
          "name": "_pid",
          "type": "uint256"
        }
      ],
      "name": "updatePool",
      "outputs": [],
      "stateMutability": "nonpayable",
      "type": "function"
    },
    {
      "inputs": [
        {
          "internalType": "address",
          "name": "newImplementation",
          "type": "address"
        }
      ],
      "name": "upgradeTo",
      "outputs": [],
      "stateMutability": "nonpayable",
      "type": "function"
    },
    {
      "inputs": [
        {
          "internalType": "address",
          "name": "newImplementation",
          "type": "address"
        },
        {
          "internalType": "bytes",
          "name": "data",
          "type": "bytes"
        }
      ],
      "name": "upgradeToAndCall",
      "outputs": [],
      "stateMutability": "payable",
      "type": "function"
    },
    {
      "inputs": [
        {
          "internalType": "uint256",
          "name": "",
          "type": "uint256"
        },
        {
          "internalType": "address",
          "name": "",
          "type": "address"
        }
      ],
      "name": "userInfo",
      "outputs": [
        {
          "internalType": "uint256",
          "name": "amount",
          "type": "uint256"
        },
        {
          "internalType": "uint256",
          "name": "rewardDebt",
          "type": "uint256"
        },
        {
          "internalType": "uint256",
          "name": "rewargoldDebt",
          "type": "uint256"
        }
      ],
      "stateMutability": "view",
      "type": "function"
    },
    {
      "inputs": [
        {
          "internalType": "uint256",
          "name": "_pid",
          "type": "uint256"
        },
        {
          "internalType": "uint256",
          "name": "_amount",
          "type": "uint256"
        }
      ],
      "name": "withdraw",
      "outputs": [],
      "stateMutability": "nonpayable",
      "type": "function"
    }
  ],
  "bytecode": "0x60a06040523060601b60805234801561001757600080fd5b5060805160601c614c1b61004b60003960008181611312015281816113520152818161166101526116a10152614c1b6000f3fe60806040526004361061031a5760003560e01c806363a846f8116101ab5780639ab24eb0116100f7578063eb990c5911610095578063f8b535ac1161006f578063f8b535ac146109f3578063fbec6f2114610a0a578063fc6f946814610a2b578063ff793c2514610a4c5761031a565b8063eb990c5914610969578063f1127ed814610989578063f2fde38b146109d35761031a565b8063c3cda520116100d1578063c3cda520146108c3578063d505accf146108e3578063dd62ed3e14610903578063e2bbb158146109495761031a565b80639ab24eb014610863578063a457c2d714610883578063a9059cbb146108a35761031a565b80637ecebe00116101645780638dbb1e3a1161013e5780638dbb1e3a146107ab5780638e539e8c146107cb57806393f1a40b146107eb57806395d89b411461084e5761031a565b80637ecebe00146107575780638aa28550146107775780638da5cb5b1461078c5761031a565b806363a846f81461068057806364482f79146106a05780636f10947c146106c05780636fcfff45146106d757806370a082311461070c578063715018a6146107425761031a565b80633659cfe61161026a5780634f1ef286116102235780635b3c25ce116101fd5780635b3c25ce146106125780635c19a95c146106325780635c975abb14610652578063630b5ba11461066b5761031a565b80634f1ef286146105bf57806351eb05a6146105d2578063587cde1e146105f25761031a565b80633659cfe6146104ef578063395093511461050f5780633a46b1a81461052f5780633e4bee381461054f578063441a3e701461058857806348cd4cb1146105a85761031a565b80631526fe27116102d75780631eaaa045116102b15780631eaaa0451461047e57806323b872dd1461049e578063313ce567146104be5780633644e515146104da5761031a565b80631526fe27146103f357806317caf6f11461045257806318160ddd146104695761031a565b8063017e58ca1461031f57806306fdde0314610349578063081e3eda1461036b578063095ea7b3146103815780630bc1a005146103b15780630d3c5df0146103d1575b600080fd5b34801561032b57600080fd5b506103366101cf5481565b6040519081526020015b60405180910390f35b34801561035557600080fd5b5061035e610a89565b6040516103409190614923565b34801561037757600080fd5b506101cb54610336565b34801561038d57600080fd5b506103a161039c3660046146e4565b610b1b565b6040519015158152602001610340565b3480156103bd57600080fd5b506103366103cc36600461482e565b610b32565b3480156103dd57600080fd5b506103f16103ec366004614852565b610cc4565b005b3480156103ff57600080fd5b5061041361040e3660046147fe565b611017565b604080516001600160a01b0390981688526020880196909652948601939093526060850191909152608084015260a083015260c082015260e001610340565b34801561045e57600080fd5b506103366101cd5481565b34801561047557600080fd5b50609954610336565b34801561048a57600080fd5b506103f1610499366004614878565b611071565b3480156104aa57600080fd5b506103a16104b9366004614578565b61124c565b3480156104ca57600080fd5b5060405160128152602001610340565b3480156104e657600080fd5b506103366112f8565b3480156104fb57600080fd5b506103f161050a366004614524565b611307565b34801561051b57600080fd5b506103a161052a3660046146e4565b6113d0565b34801561053b57600080fd5b5061033661054a3660046146e4565b61140c565b34801561055b57600080fd5b506101c854610570906001600160a01b031681565b6040516001600160a01b039091168152602001610340565b34801561059457600080fd5b506103f16105a33660046148b9565b611480565b3480156105b457600080fd5b506103366101ce5481565b6103f16105cd366004614625565b611656565b3480156105de57600080fd5b506103f16105ed3660046147fe565b611710565b3480156105fe57600080fd5b5061057061060d366004614524565b611857565b34801561061e57600080fd5b506103f161062d3660046147fe565b611879565b34801561063e57600080fd5b506103f161064d366004614524565b611960565b34801561065e57600080fd5b506101945460ff166103a1565b34801561067757600080fd5b506103f161196a565b34801561068c57600080fd5b506103f161069b366004614524565b611992565b3480156106ac57600080fd5b506103f16106bb3660046148da565b611a7c565b3480156106cc57600080fd5b506103366101ca5481565b3480156106e357600080fd5b506106f76106f2366004614524565b611b4c565b60405163ffffffff9091168152602001610340565b34801561071857600080fd5b50610336610727366004614524565b6001600160a01b031660009081526097602052604090205490565b34801561074e57600080fd5b506103f1611b6f565b34801561076357600080fd5b50610336610772366004614524565b611ba6565b34801561078357600080fd5b50610336600181565b34801561079857600080fd5b50610162546001600160a01b0316610570565b3480156107b757600080fd5b506103366107c63660046148b9565b611bc4565b3480156107d757600080fd5b506103366107e63660046147fe565b611bf3565b3480156107f757600080fd5b5061083361080636600461482e565b6101cc60209081526000928352604080842090915290825290208054600182015460029092015490919083565b60408051938452602084019290925290820152606001610340565b34801561085a57600080fd5b5061035e611c50565b34801561086f57600080fd5b5061033661087e366004614524565b611c5f565b34801561088f57600080fd5b506103a161089e3660046146e4565b611cf6565b3480156108af57600080fd5b506103a16108be3660046146e4565b611d8f565b3480156108cf57600080fd5b506103f16108de36600461470f565b611d9c565b3480156108ef57600080fd5b506103f16108fe3660046145b8565b611ed2565b34801561090f57600080fd5b5061033661091e366004614540565b6001600160a01b03918216600090815260986020908152604080832093909416825291909152205490565b34801561095557600080fd5b506103f16109643660046148b9565b612018565b34801561097557600080fd5b506103f16109843660046147b9565b61218b565b34801561099557600080fd5b506109a96109a4366004614768565b612363565b60408051825163ffffffff1681526020928301516001600160e01b03169281019290925201610340565b3480156109df57600080fd5b506103f16109ee366004614524565b6123f6565b3480156109ff57600080fd5b506103366101d05481565b348015610a1657600080fd5b506101c654610570906001600160a01b031681565b348015610a3757600080fd5b506101c954610570906001600160a01b031681565b348015610a5857600080fd5b50610a6c610a673660046148b9565b61248f565b604080519283526001600160a01b03909116602083015201610340565b6060609a8054610a9890614b1f565b80601f0160208091040260200160405190810160405280929190818152602001828054610ac490614b1f565b8015610b115780601f10610ae657610100808354040283529160200191610b11565b820191906000526020600020905b815481529060010190602001808311610af457829003601f168201915b5050505050905090565b6000610b283384846124d5565b5060015b92915050565b6000806101cb8481548110610b5757634e487b7160e01b600052603260045260246000fd5b600091825260208083208784526101cc825260408085206001600160a01b0389168652909252922060036007909202909201908101546101cf546002830154929450909143118015610ba857508015155b15610c91576000610c4c610bcb6101d0546101cf546125f990919063ffffffff16565b86546040516370a0823160e01b81523060048201526001600160a01b03909116906370a08231906024015b60206040518083038186803b158015610c0e57600080fd5b505afa158015610c22573d6000803e3d6000fd5b505050506040513d601f19601f82011682018060405250810190610c469190614816565b906125f9565b90506000610c678660050154836125f990919063ffffffff16565b9050610c8c610c8584610c7f8464e8d4a51000612605565b90612611565b859061261d565b935050505b610cb98360020154610c4664e8d4a51000610c7f86886000015461260590919063ffffffff16565b979650505050505050565b6101c9546001600160a01b03163314610d245760405162461bcd60e51b815260206004820152601c60248201527f73656e646572206d7573742062652061646d696e20616464726573730000000060448201526064015b60405180910390fd5b80610d3e6101d0546101cf546125f990919063ffffffff16565b1015610da05760405162461bcd60e51b815260206004820152602b60248201527f416d6f756e74206d757374206265206c657373207468616e207374616b65642060448201526a11d3d31108185b5bdd5b9d60aa1b6064820152608401610d1b565b60006101cb8481548110610dc457634e487b7160e01b600052603260045260246000fd5b6000918252602082206007919091020180546040516370a0823160e01b81523060048201529193506001600160a01b0316906370a082319060240160206040518083038186803b158015610e1757600080fd5b505afa158015610e2b573d6000803e3d6000fd5b505050506040513d601f19601f82011682018060405250810190610e4f9190614816565b905080831115610f3657815460405163a9059cbb60e01b81526001600160a01b038681166004830152602482018490529091169063a9059cbb90604401602060405180830381600087803b158015610ea657600080fd5b505af1158015610eba573d6000803e3d6000fd5b505050506040513d601f19601f82011682018060405250810190610ede919061479d565b506101d054610eed908261261d565b6101d05560405181815285906001600160a01b038616907fbb757047c2b5f3974fe26b7c10f732e7bce710b0952a71082702781e62ae05959060200160405180910390a3611010565b815460405163a9059cbb60e01b81526001600160a01b038681166004830152602482018690529091169063a9059cbb90604401602060405180830381600087803b158015610f8357600080fd5b505af1158015610f97573d6000803e3d6000fd5b505050506040513d601f19601f82011682018060405250810190610fbb919061479d565b506101d054610fca908461261d565b6101d05560405183815285906001600160a01b038616907fbb757047c2b5f3974fe26b7c10f732e7bce710b0952a71082702781e62ae0595906020015b60405180910390a35b5050505050565b6101cb818154811061102857600080fd5b600091825260209091206007909102018054600182015460028301546003840154600485015460058601546006909601546001600160a01b039095169650929491939092919087565b610162546001600160a01b0316331461109c5760405162461bcd60e51b8152600401610d1b906149ee565b80156110aa576110aa61196a565b60006101ce5443116110bf576101ce546110c1565b435b6101cd549091506110d2908561261d565b6101cd556040805160e0810182526001600160a01b039485168152602081019586529081019182526000606082018181526080830182815260a0840183815260c085018481526101cb8054600181018255955294517fe8bbfecd380c4167d6a1f763a233ec73e73f534b1970c4e1683f437ec23c1f44600790950294850180546001600160a01b031916919099161790975596517fe8bbfecd380c4167d6a1f763a233ec73e73f534b1970c4e1683f437ec23c1f4583015592517fe8bbfecd380c4167d6a1f763a233ec73e73f534b1970c4e1683f437ec23c1f4682015591517fe8bbfecd380c4167d6a1f763a233ec73e73f534b1970c4e1683f437ec23c1f4783015593517fe8bbfecd380c4167d6a1f763a233ec73e73f534b1970c4e1683f437ec23c1f4882015591517fe8bbfecd380c4167d6a1f763a233ec73e73f534b1970c4e1683f437ec23c1f498301555090517fe8bbfecd380c4167d6a1f763a233ec73e73f534b1970c4e1683f437ec23c1f4a90910155565b6000611259848484612629565b6001600160a01b0384166000908152609860209081526040808320338452909152902054828110156112de5760405162461bcd60e51b815260206004820152602860248201527f45524332303a207472616e7366657220616d6f756e74206578636565647320616044820152676c6c6f77616e636560c01b6064820152608401610d1b565b6112eb85338584036124d5565b60019150505b9392505050565b600061130261280e565b905090565b306001600160a01b037f00000000000000000000000000000000000000000000000000000000000000001614156113505760405162461bcd60e51b8152600401610d1b90614956565b7f00000000000000000000000000000000000000000000000000000000000000006001600160a01b0316611382612889565b6001600160a01b0316146113a85760405162461bcd60e51b8152600401610d1b906149a2565b6113b1816128b7565b604080516000808252602082019092526113cd9183919061292f565b50565b3360008181526098602090815260408083206001600160a01b03871684529091528120549091610b28918590611407908690614a6e565b6124d5565b600043821061145d5760405162461bcd60e51b815260206004820152601f60248201527f4552433230566f7465733a20626c6f636b206e6f7420796574206d696e6564006044820152606401610d1b565b6001600160a01b0383166000908152610131602052604090206112f19083612a73565b60006101cb83815481106114a457634e487b7160e01b600052603260045260246000fd5b600091825260208083208684526101cc8252604080852033865290925292208054600790920290920192508311156115135760405162461bcd60e51b81526020600482015260126024820152711dda5d1a191c985dce881b9bdd0819dbdbd960721b6044820152606401610d1b565b61151c84611710565b600061154a8260020154610c4664e8d4a51000610c7f8760030154876000015461260590919063ffffffff16565b8354909150611563906001600160a01b03163383612b4c565b6115ae61157f6101d0546101cf546125f990919063ffffffff16565b84546040516370a0823160e01b81523060048201526001600160a01b03909116906370a0823190602401610bf6565b600584015581546115bf90856125f9565b82556101cf546115cf90856125f9565b6101cf55600383015482546115ee9164e8d4a5100091610c7f91612605565b60028301558254611609906001600160a01b03163386612b4c565b61161885836000015433612bb4565b6116223385612c88565b604051848152859033907ff279e6a1f5e320cca91135676d9cb6e44ca8a08c0b88342bcdb1144f6511b56890602001611007565b306001600160a01b037f000000000000000000000000000000000000000000000000000000000000000016141561169f5760405162461bcd60e51b8152600401610d1b90614956565b7f00000000000000000000000000000000000000000000000000000000000000006001600160a01b03166116d1612889565b6001600160a01b0316146116f75760405162461bcd60e51b8152600401610d1b906149a2565b611700826128b7565b61170c8282600161292f565b5050565b60006101cb828154811061173457634e487b7160e01b600052603260045260246000fd5b600091825260208083208584526101cc825260408085203386529092529220600260079092029092019081015490925043116117715750506113cd565b600061178f61157f6101d0546101cf546125f990919063ffffffff16565b905060006117b86117ad8560050154846125f990919063ffffffff16565b60068601549061261d565b60058501839055600685018190556101cf54909150806118065750504360028085019190915560006003850181905560048501819055920182905550600582018190556006909101556113cd565b600061181f8660040154846125f990919063ffffffff16565b905061184261183783610c7f8464e8d4a51000612605565b60038801549061261d565b60038701555050600490930192909255505050565b6001600160a01b0380821660009081526101306020526040902054165b919050565b60006101cb828154811061189d57634e487b7160e01b600052603260045260246000fd5b600091825260208083208584526101cc825260408085203386529092529220600790910290910191506118cf83611710565b60006118fd8260020154610c4664e8d4a51000610c7f8760030154876000015461260590919063ffffffff16565b8354909150611916906001600160a01b03163383612b4c565b61193261157f6101d0546101cf546125f990919063ffffffff16565b6005840155600383015482546119529164e8d4a5100091610c7f91612605565b826002018190555050505050565b6113cd3382612c92565b6101cb5460005b8181101561170c5761198281611710565b61198b81614b54565b9050611971565b6001600160a01b0381166119de5760405162461bcd60e51b815260206004820152601360248201527261646d696e3a205a65726f206164647265737360681b6044820152606401610d1b565b6101c9546001600160a01b03163314611a275760405162461bcd60e51b815260206004820152600b60248201526a61646d696e3a207775743f60a81b6044820152606401610d1b565b6101c980546001600160a01b0319166001600160a01b0383169081179091556040519081527f54e4612788f90384e6843298d7854436f3a585b2c3831ab66abf1de63bfa6c2d9060200160405180910390a150565b610162546001600160a01b03163314611aa75760405162461bcd60e51b8152600401610d1b906149ee565b8015611ab557611ab561196a565b611b0882611b026101cb8681548110611ade57634e487b7160e01b600052603260045260246000fd5b9060005260206000209060070201600101546101cd546125f990919063ffffffff16565b9061261d565b6101cd81905550816101cb8481548110611b3257634e487b7160e01b600052603260045260246000fd5b906000526020600020906007020160010181905550505050565b6001600160a01b03811660009081526101316020526040812054610b2c90612c9c565b610162546001600160a01b03163314611b9a5760405162461bcd60e51b8152600401610d1b906149ee565b611ba46000612d05565b565b6001600160a01b038116600090815260fd6020526040812054610b2c565b6000828210611be957611be26001611bdc84866125f9565b90612605565b9050610b2c565b611be283836125f9565b6000438210611c445760405162461bcd60e51b815260206004820152601f60248201527f4552433230566f7465733a20626c6f636b206e6f7420796574206d696e6564006044820152606401610d1b565b610b2c61013283612a73565b6060609b8054610a9890614b1f565b6001600160a01b038116600090815261013160205260408120548015611ce3576001600160a01b038316600090815261013160205260409020611ca3600183614ac5565b81548110611cc157634e487b7160e01b600052603260045260246000fd5b60009182526020909120015464010000000090046001600160e01b0316611ce6565b60005b6001600160e01b03169392505050565b3360009081526098602090815260408083206001600160a01b038616845290915281205482811015611d785760405162461bcd60e51b815260206004820152602560248201527f45524332303a2064656372656173656420616c6c6f77616e63652062656c6f77604482015264207a65726f60d81b6064820152608401610d1b565b611d8533858584036124d5565b5060019392505050565b6000610b28338484612629565b83421115611dec5760405162461bcd60e51b815260206004820152601d60248201527f4552433230566f7465733a207369676e617475726520657870697265640000006044820152606401610d1b565b604080517fe48329057bfd03d55e49b547132e39cffd9c1820ad7b9d4c5307691425d15adf60208201526001600160a01b038816918101919091526060810186905260808101859052600090611e6690611e5e9060a00160405160208183030381529060405280519060200120612d58565b858585612da6565b9050611e7181612dce565b8614611ebf5760405162461bcd60e51b815260206004820152601960248201527f4552433230566f7465733a20696e76616c6964206e6f6e6365000000000000006044820152606401610d1b565b611ec98188612c92565b50505050505050565b83421115611f225760405162461bcd60e51b815260206004820152601d60248201527f45524332305065726d69743a206578706972656420646561646c696e650000006044820152606401610d1b565b600060fe54888888611f338c612dce565b6040805160208101969096526001600160a01b0394851690860152929091166060840152608083015260a082015260c0810186905260e0016040516020818303038152906040528051906020012090506000611f8e82612d58565b90506000611f9e82878787612da6565b9050896001600160a01b0316816001600160a01b0316146120015760405162461bcd60e51b815260206004820152601e60248201527f45524332305065726d69743a20696e76616c6964207369676e617475726500006044820152606401610d1b565b61200c8a8a8a6124d5565b50505050505050505050565b60006101cb838154811061203c57634e487b7160e01b600052603260045260246000fd5b600091825260208083208684526101cc8252604080852033865290925292206007909102909101915061206e84611710565b8054156120df5760006120a38260020154610c4664e8d4a51000610c7f8760030154876000015461260590919063ffffffff16565b83549091506120bc906001600160a01b03163383612b4c565b6120d861157f6101d0546101cf546125f990919063ffffffff16565b6005840155505b81546120f6906001600160a01b0316333086612df6565b6101cf54612104908461261d565b6101cf558054612114908461261d565b80825560038301546121319164e8d4a5100091610c7f9190612605565b6002820155805461214490859033612e2e565b61214e338461303d565b604051838152849033907f90890809c654f11d6e72a28fa60149770a0d11ec6c92319d6ceb2bb0a4ea1a159060200160405180910390a350505050565b600054610100900460ff166121a65760005460ff16156121aa565b303b155b61220d5760405162461bcd60e51b815260206004820152602e60248201527f496e697469616c697a61626c653a20636f6e747261637420697320616c72656160448201526d191e481a5b9a5d1a585b1a5e995960921b6064820152608401610d1b565b600054610100900460ff16158015612238576000805460ff1961ff0019909116610100171660011790555b6001600160a01b03841661228e5760405162461bcd60e51b815260206004820152601860248201527f696e697469616c697a653a205a65726f206164647265737300000000000000006044820152606401610d1b565b612296613047565b6122d86040518060400160405280600481526020016319dbdb1960e21b8152506040518060400160405280600481526020016319dbdb1960e21b81525061307e565b6122e06130cc565b6123056040518060400160405280600481526020016319dbdb1960e21b815250613100565b61230d61315b565b6101c880546001600160a01b038088166001600160a01b0319928316179092556101c98054928716929091169190911790556101ce8390556101ca8290558015611010576000805461ff00191690555050505050565b60408051808201909152600080825260208201526001600160a01b038316600090815261013160205260409020805463ffffffff84169081106123b657634e487b7160e01b600052603260045260246000fd5b60009182526020918290206040805180820190915291015463ffffffff8116825264010000000090046001600160e01b0316918101919091529392505050565b610162546001600160a01b031633146124215760405162461bcd60e51b8152600401610d1b906149ee565b6001600160a01b0381166124865760405162461bcd60e51b815260206004820152602660248201527f4f776e61626c653a206e6577206f776e657220697320746865207a65726f206160448201526564647265737360d01b6064820152608401610d1b565b6113cd81612d05565b6101c760205281600052604060002081815481106124ac57600080fd5b6000918252602090912060029091020180546001909101549092506001600160a01b0316905082565b6001600160a01b0383166125375760405162461bcd60e51b8152602060048201526024808201527f45524332303a20617070726f76652066726f6d20746865207a65726f206164646044820152637265737360e01b6064820152608401610d1b565b6001600160a01b0382166125985760405162461bcd60e51b815260206004820152602260248201527f45524332303a20617070726f766520746f20746865207a65726f206164647265604482015261737360f01b6064820152608401610d1b565b6001600160a01b0383811660008181526098602090815260408083209487168084529482529182902085905590518481527f8c5be1e5ebec7d5bd14f71427d1e84f3dd0314c0f7b2291e5b200ac8c7c3b925910160405180910390a3505050565b60006112f18284614ac5565b60006112f18284614aa6565b60006112f18284614a86565b60006112f18284614a6e565b6001600160a01b03831661268d5760405162461bcd60e51b815260206004820152602560248201527f45524332303a207472616e736665722066726f6d20746865207a65726f206164604482015264647265737360d81b6064820152608401610d1b565b6001600160a01b0382166126ef5760405162461bcd60e51b815260206004820152602360248201527f45524332303a207472616e7366657220746f20746865207a65726f206164647260448201526265737360e81b6064820152608401610d1b565b6126fa838383613182565b6001600160a01b038316600090815260976020526040902054818110156127725760405162461bcd60e51b815260206004820152602660248201527f45524332303a207472616e7366657220616d6f756e7420657863656564732062604482015265616c616e636560d01b6064820152608401610d1b565b6001600160a01b038085166000908152609760205260408082208585039055918516815290812080548492906127a9908490614a6e565b92505081905550826001600160a01b0316846001600160a01b03167fddf252ad1be2c89b69c2b068fc378daa952ba7f163c4a11628f55a4df523b3ef846040516127f591815260200190565b60405180910390a36128088484846131ea565b50505050565b60006113027f8b73c3c69bb8fe3d512ecc4cf759cc79239f7b179b0ffacaa9a75d522b39400f61283d60c95490565b60ca546040805160208101859052908101839052606081018290524660808201523060a082015260009060c0016040516020818303038152906040528051906020012090509392505050565b7f360894a13ba1a3210667c828492db98dca3e2076cc3735a920a3ca505d382bbc546001600160a01b031690565b336128cb610162546001600160a01b031690565b6001600160a01b0316146113cd5760405162461bcd60e51b815260206004820152602560248201527f4f6e6c79206f776e65722063616e207570677261646520696d706c656d656e7460448201526430ba34b7b760d91b6064820152608401610d1b565b6000612939612889565b9050612944846131f5565b6000835111806129515750815b1561296257612960848461329a565b505b7f4910fdfa16fed3260ed0e7147f7cc6da11a60208b5b9406d12a635614ffd9143805460ff1661101057805460ff191660011781556040516001600160a01b03831660248201526129e190869060440160408051601f198184030181529190526020810180516001600160e01b0316631b2ce7f360e11b17905261329a565b50805460ff191681556129f2612889565b6001600160a01b0316826001600160a01b031614612a6a5760405162461bcd60e51b815260206004820152602f60248201527f45524331393637557067726164653a207570677261646520627265616b73206660448201526e75727468657220757067726164657360881b6064820152608401610d1b565b61101085613385565b8154600090815b81811015612ae5576000612a8e82846133c5565b905084868281548110612ab157634e487b7160e01b600052603260045260246000fd5b60009182526020909120015463ffffffff161115612ad157809250612adf565b612adc816001614a6e565b91505b50612a7a565b8115612b375784612af7600184614ac5565b81548110612b1557634e487b7160e01b600052603260045260246000fd5b60009182526020909120015464010000000090046001600160e01b0316612b3a565b60005b6001600160e01b031695945050505050565b6040516001600160a01b038316602482015260448101829052612baf90849063a9059cbb60e01b906064015b60408051601f198184030181529190526020810180516001600160e01b03166001600160e01b0319909316929092179091526133e0565b505050565b60008381526101c760205260408120905b815481101561101057826001600160a01b0316828281548110612bf857634e487b7160e01b600052603260045260246000fd5b60009182526020909120600160029092020101546001600160a01b03161415612c7657818181548110612c3b57634e487b7160e01b600052603260045260246000fd5b60009182526020822060029091020190815560010180546001600160a01b03191690558315612c6f57612c6f858585612e2e565b5050612baf565b80612c8081614b54565b915050612bc5565b61170c82826134b2565b61170c82826134cb565b600063ffffffff821115612d015760405162461bcd60e51b815260206004820152602660248201527f53616665436173743a2076616c756520646f65736e27742066697420696e203360448201526532206269747360d01b6064820152608401610d1b565b5090565b61016280546001600160a01b038381166001600160a01b0319831681179093556040519116919082907f8be0079c531659141344cd1fd0a4f28419497f9722a3daafe3b4186f6b6457e090600090a35050565b6000610b2c612d6561280e565b8360405161190160f01b6020820152602281018390526042810182905260009060620160405160208183030381529060405280519060200120905092915050565b6000806000612db787878787613562565b91509150612dc48161364f565b5095945050505050565b6001600160a01b038116600090815260fd602052604090208054600181018255905b50919050565b6040516001600160a01b03808516602483015283166044820152606481018290526128089085906323b872dd60e01b90608401612b78565b60008381526101c7602052604081205b8054821015612ef357826001600160a01b0316818381548110612e7157634e487b7160e01b600052603260045260246000fd5b60009182526020909120600160029092020101546001600160a01b03161415612ee15783818381548110612eb557634e487b7160e01b600052603260045260246000fd5b600091825260208220600290910201919091558154612c6f918791612edc90600190614ac5565b613852565b81612eeb81614b54565b925050612e3e565b6101ca5481541015612f5d57604080518082019091528481526001600160a01b038481166020808401918252845460018082018755600087815292909220945160029091029094019384559051920180546001600160a01b03191692909116919091179055613026565b8381600081548110612f7f57634e487b7160e01b600052603260045260246000fd5b9060005260206000209060020201600001541015613026578381600081548110612fb957634e487b7160e01b600052603260045260246000fd5b9060005260206000209060020201600001819055508281600081548110612ff057634e487b7160e01b600052603260045260246000fd5b906000526020600020906002020160010160006101000a8154816001600160a01b0302191690836001600160a01b031602179055505b61101085600060018480549050612edc9190614ac5565b61170c8282613c04565b600054610100900460ff1661306e5760405162461bcd60e51b8152600401610d1b90614a23565b61307661315b565b611ba4613c8f565b600054610100900460ff166130a55760405162461bcd60e51b8152600401610d1b90614a23565b81516130b890609a906020850190614483565b508051612baf90609b906020840190614483565b600054610100900460ff166130f35760405162461bcd60e51b8152600401610d1b90614a23565b610194805460ff19169055565b600054610100900460ff166131275760405162461bcd60e51b8152600401610d1b90614a23565b61312f61315b565b61315281604051806040016040528060018152602001603160f81b815250613cbf565b6113cd81613d00565b600054610100900460ff16611ba45760405162461bcd60e51b8152600401610d1b90614a23565b6001600160a01b038316158061319f57506001600160a01b038216155b156131a957612baf565b60405162461bcd60e51b81526020600482015260166024820152752737b7103a3930b739b332b930b13632903a37b5b2b760511b6044820152606401610d1b565b612baf838383613d4e565b803b6132595760405162461bcd60e51b815260206004820152602d60248201527f455243313936373a206e657720696d706c656d656e746174696f6e206973206e60448201526c1bdd08184818dbdb9d1c9858dd609a1b6064820152608401610d1b565b7f360894a13ba1a3210667c828492db98dca3e2076cc3735a920a3ca505d382bbc80546001600160a01b0319166001600160a01b0392909216919091179055565b6060823b6132f95760405162461bcd60e51b815260206004820152602660248201527f416464726573733a2064656c65676174652063616c6c20746f206e6f6e2d636f6044820152651b9d1c9858dd60d21b6064820152608401610d1b565b600080846001600160a01b0316846040516133149190614907565b600060405180830381855af49150503d806000811461334f576040519150601f19603f3d011682016040523d82523d6000602084013e613354565b606091505b509150915061337c8282604051806060016040528060278152602001614bbf60279139613d69565b95945050505050565b61338e816131f5565b6040516001600160a01b038216907fbc7cd75a20ee27fd9adebab32041f755214dbc6bffa90cc0225b39da2e5c2d3b90600090a250565b60006133d46002848418614a86565b6112f190848416614a6e565b6000613435826040518060400160405280602081526020017f5361666545524332303a206c6f772d6c6576656c2063616c6c206661696c6564815250856001600160a01b0316613da29092919063ffffffff16565b805190915015612baf5780806020019051810190613453919061479d565b612baf5760405162461bcd60e51b815260206004820152602a60248201527f5361666545524332303a204552433230206f7065726174696f6e20646964206e6044820152691bdd081cdd58d8d9595960b21b6064820152608401610d1b565b6134bc8282613db9565b6128086101326125f983613f1a565b60006134d683611857565b905060006134f9846001600160a01b031660009081526097602052604090205490565b6001600160a01b038581166000818152610130602052604080822080546001600160a01b031916898616908117909155905194955093928616927f3134e8a2e6d97e929a7e54011ea5485d7d196dd5f0ba4d4ef95803e8e3fc257f9190a46128088284836140cb565b6000807f7fffffffffffffffffffffffffffffff5d576e7357a4501ddfe92f46681b20a08311156135995750600090506003613646565b8460ff16601b141580156135b157508460ff16601c14155b156135c25750600090506004613646565b6040805160008082526020820180845289905260ff881692820192909252606081018690526080810185905260019060a0016020604051602081039080840390855afa158015613616573d6000803e3d6000fd5b5050604051601f1901519150506001600160a01b03811661363f57600060019250925050613646565b9150600090505b94509492505050565b600081600481111561367157634e487b7160e01b600052602160045260246000fd5b141561367c576113cd565b600181600481111561369e57634e487b7160e01b600052602160045260246000fd5b14156136ec5760405162461bcd60e51b815260206004820152601860248201527f45434453413a20696e76616c6964207369676e617475726500000000000000006044820152606401610d1b565b600281600481111561370e57634e487b7160e01b600052602160045260246000fd5b141561375c5760405162461bcd60e51b815260206004820152601f60248201527f45434453413a20696e76616c6964207369676e6174757265206c656e677468006044820152606401610d1b565b600381600481111561377e57634e487b7160e01b600052602160045260246000fd5b14156137d75760405162461bcd60e51b815260206004820152602260248201527f45434453413a20696e76616c6964207369676e6174757265202773272076616c604482015261756560f01b6064820152608401610d1b565b60048160048111156137f957634e487b7160e01b600052602160045260246000fd5b14156113cd5760405162461bcd60e51b815260206004820152602260248201527f45434453413a20696e76616c6964207369676e6174757265202776272076616c604482015261756560f01b6064820152608401610d1b565b60008381526101c76020526040902081831061386e5750612baf565b60026000828261387e8688614a6e565b6138889190614a86565b815481106138a657634e487b7160e01b600052603260045260246000fd5b6000918252602090912060029091020154905084845b80821015613bcd575b828583815481106138e657634e487b7160e01b600052603260045260246000fd5b906000526020600020906002020160000154101561390e5761390782614b54565b91506138c5565b8285828154811061392f57634e487b7160e01b600052603260045260246000fd5b90600052602060002090600202016000015411156139575761395081614b08565b905061390e565b84818154811061397757634e487b7160e01b600052603260045260246000fd5b9060005260206000209060020201600001548583815481106139a957634e487b7160e01b600052603260045260246000fd5b9060005260206000209060020201600001541115613bbc578481815481106139e157634e487b7160e01b600052603260045260246000fd5b906000526020600020906002020160000154858381548110613a1357634e487b7160e01b600052603260045260246000fd5b906000526020600020906002020160000154868481548110613a4557634e487b7160e01b600052603260045260246000fd5b90600052602060002090600202016000016000888581548110613a7857634e487b7160e01b600052603260045260246000fd5b600091825260209091206002909102019290925591909155508454859082908110613ab357634e487b7160e01b600052603260045260246000fd5b906000526020600020906002020160010160009054906101000a90046001600160a01b0316858381548110613af857634e487b7160e01b600052603260045260246000fd5b906000526020600020906002020160010160009054906101000a90046001600160a01b0316868481548110613b3d57634e487b7160e01b600052603260045260246000fd5b90600052602060002090600202016001016000888581548110613b7057634e487b7160e01b600052603260045260246000fd5b6000918252602090912060016002909202010180546001600160a01b039485166001600160a01b031990911617905581549383166101009190910a908102920219909216179055613bc8565b613bc582614b54565b91505b6138bc565b86811115613be557613be58888612edc600185614ac5565b613bfa88613bf4836001614a6e565b88613852565b5050505050505050565b613c0e828261420a565b6099546001600160e01b031015613c805760405162461bcd60e51b815260206004820152603060248201527f4552433230566f7465733a20746f74616c20737570706c79207269736b73206f60448201526f766572666c6f77696e6720766f74657360801b6064820152608401610d1b565b61280861013261261d83613f1a565b600054610100900460ff16613cb65760405162461bcd60e51b8152600401610d1b90614a23565b611ba433612d05565b600054610100900460ff16613ce65760405162461bcd60e51b8152600401610d1b90614a23565b81516020928301208151919092012060c99190915560ca55565b600054610100900460ff16613d275760405162461bcd60e51b8152600401610d1b90614a23565b507f6e71edae12b1b97f4d1f60370fef10105fa2faae0126114a169c64845d6126c960fe55565b612baf613d5a84611857565b613d6384611857565b836140cb565b60608315613d785750816112f1565b825115613d885782518084602001fd5b8160405162461bcd60e51b8152600401610d1b9190614923565b6060613db184846000856142fd565b949350505050565b6001600160a01b038216613e195760405162461bcd60e51b815260206004820152602160248201527f45524332303a206275726e2066726f6d20746865207a65726f206164647265736044820152607360f81b6064820152608401610d1b565b613e2582600083613182565b6001600160a01b03821660009081526097602052604090205481811015613e995760405162461bcd60e51b815260206004820152602260248201527f45524332303a206275726e20616d6f756e7420657863656564732062616c616e604482015261636560f01b6064820152608401610d1b565b6001600160a01b0383166000908152609760205260408120838303905560998054849290613ec8908490614ac5565b90915550506040518281526000906001600160a01b038516907fddf252ad1be2c89b69c2b068fc378daa952ba7f163c4a11628f55a4df523b3ef9060200160405180910390a3612baf836000846131ea565b825460009081908015613f735785613f33600183614ac5565b81548110613f5157634e487b7160e01b600052603260045260246000fd5b60009182526020909120015464010000000090046001600160e01b0316613f76565b60005b6001600160e01b03169250613f8f83858763ffffffff16565b9150600081118015613fdb57504386613fa9600184614ac5565b81548110613fc757634e487b7160e01b600052603260045260246000fd5b60009182526020909120015463ffffffff16145b1561404957613fe98261441a565b86613ff5600184614ac5565b8154811061401357634e487b7160e01b600052603260045260246000fd5b9060005260206000200160000160046101000a8154816001600160e01b0302191690836001600160e01b031602179055506140c2565b85604051806040016040528061405e43612c9c565b63ffffffff1681526020016140728561441a565b6001600160e01b039081169091528254600181018455600093845260209384902083519101805493909401519091166401000000000263ffffffff91821663ffffffff1990931692909217161790555b50935093915050565b816001600160a01b0316836001600160a01b0316141580156140ed5750600081115b15612baf576001600160a01b0383161561417c576001600160a01b0383166000908152610131602052604081208190614129906125f985613f1a565b91509150846001600160a01b03167fdec2bacdd2f05b59de34da9b523dff8be42e5e38e818c82fdb0bae774387a7248383604051614171929190918252602082015260400190565b60405180910390a250505b6001600160a01b03821615612baf576001600160a01b03821660009081526101316020526040812081906141b39061261d85613f1a565b91509150836001600160a01b03167fdec2bacdd2f05b59de34da9b523dff8be42e5e38e818c82fdb0bae774387a72483836040516141fb929190918252602082015260400190565b60405180910390a25050505050565b6001600160a01b0382166142605760405162461bcd60e51b815260206004820152601f60248201527f45524332303a206d696e7420746f20746865207a65726f2061646472657373006044820152606401610d1b565b61426c60008383613182565b806099600082825461427e9190614a6e565b90915550506001600160a01b038216600090815260976020526040812080548392906142ab908490614a6e565b90915550506040518181526001600160a01b038316906000907fddf252ad1be2c89b69c2b068fc378daa952ba7f163c4a11628f55a4df523b3ef9060200160405180910390a361170c600083836131ea565b60608247101561435e5760405162461bcd60e51b815260206004820152602660248201527f416464726573733a20696e73756666696369656e742062616c616e636520666f6044820152651c8818d85b1b60d21b6064820152608401610d1b565b843b6143ac5760405162461bcd60e51b815260206004820152601d60248201527f416464726573733a2063616c6c20746f206e6f6e2d636f6e74726163740000006044820152606401610d1b565b600080866001600160a01b031685876040516143c89190614907565b60006040518083038185875af1925050503d8060008114614405576040519150601f19603f3d011682016040523d82523d6000602084013e61440a565b606091505b5091509150610cb9828286613d69565b60006001600160e01b03821115612d015760405162461bcd60e51b815260206004820152602760248201527f53616665436173743a2076616c756520646f65736e27742066697420696e20326044820152663234206269747360c81b6064820152608401610d1b565b82805461448f90614b1f565b90600052602060002090601f0160209004810192826144b157600085556144f7565b82601f106144ca57805160ff19168380011785556144f7565b828001600101855582156144f7579182015b828111156144f75782518255916020019190600101906144dc565b50612d019291505b80821115612d0157600081556001016144ff565b803560ff8116811461187457600080fd5b600060208284031215614535578081fd5b81356112f181614b9b565b60008060408385031215614552578081fd5b823561455d81614b9b565b9150602083013561456d81614b9b565b809150509250929050565b60008060006060848603121561458c578081fd5b833561459781614b9b565b925060208401356145a781614b9b565b929592945050506040919091013590565b600080600080600080600060e0888a0312156145d2578283fd5b87356145dd81614b9b565b965060208801356145ed81614b9b565b9550604088013594506060880135935061460960808901614513565b925060a0880135915060c0880135905092959891949750929550565b60008060408385031215614637578182fd5b823561464281614b9b565b9150602083013567ffffffffffffffff8082111561465e578283fd5b818501915085601f830112614671578283fd5b81358181111561468357614683614b85565b604051601f8201601f19908116603f011681019083821181831017156146ab576146ab614b85565b816040528281528860208487010111156146c3578586fd5b82602086016020830137856020848301015280955050505050509250929050565b600080604083850312156146f6578182fd5b823561470181614b9b565b946020939093013593505050565b60008060008060008060c08789031215614727578182fd5b863561473281614b9b565b9550602087013594506040870135935061474e60608801614513565b92506080870135915060a087013590509295509295509295565b6000806040838503121561477a578182fd5b823561478581614b9b565b9150602083013563ffffffff8116811461456d578182fd5b6000602082840312156147ae578081fd5b81516112f181614bb0565b600080600080608085870312156147ce578384fd5b84356147d981614b9b565b935060208501356147e981614b9b565b93969395505050506040820135916060013590565b60006020828403121561480f578081fd5b5035919050565b600060208284031215614827578081fd5b5051919050565b60008060408385031215614840578182fd5b82359150602083013561456d81614b9b565b600080600060608486031215614866578081fd5b8335925060208401356145a781614b9b565b60008060006060848603121561488c578081fd5b83359250602084013561489e81614b9b565b915060408401356148ae81614bb0565b809150509250925092565b600080604083850312156148cb578182fd5b50508035926020909101359150565b6000806000606084860312156148ee578081fd5b833592506020840135915060408401356148ae81614bb0565b60008251614919818460208701614adc565b9190910192915050565b6000602082528251806020840152614942816040850160208701614adc565b601f01601f19169190910160400192915050565b6020808252602c908201527f46756e6374696f6e206d7573742062652063616c6c6564207468726f7567682060408201526b19195b1959d85d1958d85b1b60a21b606082015260800190565b6020808252602c908201527f46756e6374696f6e206d7573742062652063616c6c6564207468726f7567682060408201526b6163746976652070726f787960a01b606082015260800190565b6020808252818101527f4f776e61626c653a2063616c6c6572206973206e6f7420746865206f776e6572604082015260600190565b6020808252602b908201527f496e697469616c697a61626c653a20636f6e7472616374206973206e6f74206960408201526a6e697469616c697a696e6760a81b606082015260800190565b60008219821115614a8157614a81614b6f565b500190565b600082614aa157634e487b7160e01b81526012600452602481fd5b500490565b6000816000190483118215151615614ac057614ac0614b6f565b500290565b600082821015614ad757614ad7614b6f565b500390565b60005b83811015614af7578181015183820152602001614adf565b838111156128085750506000910152565b600081614b1757614b17614b6f565b506000190190565b600281046001821680614b3357607f821691505b60208210811415612df057634e487b7160e01b600052602260045260246000fd5b6000600019821415614b6857614b68614b6f565b5060010190565b634e487b7160e01b600052601160045260246000fd5b634e487b7160e01b600052604160045260246000fd5b6001600160a01b03811681146113cd57600080fd5b80151581146113cd57600080fdfe416464726573733a206c6f772d6c6576656c2064656c65676174652063616c6c206661696c6564a2646970667358221220b6af788029e4b32006335ec2057e2d4ba13800426525f7352e34e4888249117364736f6c63430008020033",
  "linkReferences": {},
  "deployedLinkReferences": {}
}