{
  "_format": "hh-sol-artifact-1",
  "contractName": "Maia",
  "sourceName": "contracts/Maia.sol",
  "abi": [
    {
      "anonymous": false,
      "inputs": [
        {
          "indexed": false,
          "internalType": "address",
          "name": "previousAdmin",
          "type": "address"
        },
        {
          "indexed": false,
          "internalType": "address",
          "name": "newAdmin",
          "type": "address"
        }
      ],
      "name": "AdminChanged",
      "type": "event"
    },
    {
      "anonymous": false,
      "inputs": [
        {
          "indexed": false,
          "internalType": "address",
          "name": "newAdmin",
          "type": "address"
        }
      ],
      "name": "AdminUpdated",
      "type": "event"
    },
    {
      "anonymous": false,
      "inputs": [
        {
          "indexed": true,
          "internalType": "address",
          "name": "owner",
          "type": "address"
        },
        {
          "indexed": true,
          "internalType": "address",
          "name": "spender",
          "type": "address"
        },
        {
          "indexed": false,
          "internalType": "uint256",
          "name": "value",
          "type": "uint256"
        }
      ],
      "name": "Approval",
      "type": "event"
    },
    {
      "anonymous": false,
      "inputs": [
        {
          "indexed": true,
          "internalType": "address",
          "name": "beacon",
          "type": "address"
        }
      ],
      "name": "BeaconUpgraded",
      "type": "event"
    },
    {
      "anonymous": false,
      "inputs": [
        {
          "indexed": true,
          "internalType": "address",
          "name": "delegator",
          "type": "address"
        },
        {
          "indexed": true,
          "internalType": "address",
          "name": "fromDelegate",
          "type": "address"
        },
        {
          "indexed": true,
          "internalType": "address",
          "name": "toDelegate",
          "type": "address"
        }
      ],
      "name": "DelegateChanged",
      "type": "event"
    },
    {
      "anonymous": false,
      "inputs": [
        {
          "indexed": true,
          "internalType": "address",
          "name": "delegate",
          "type": "address"
        },
        {
          "indexed": false,
          "internalType": "uint256",
          "name": "previousBalance",
          "type": "uint256"
        },
        {
          "indexed": false,
          "internalType": "uint256",
          "name": "newBalance",
          "type": "uint256"
        }
      ],
      "name": "DelegateVotesChanged",
      "type": "event"
    },
    {
      "anonymous": false,
      "inputs": [
        {
          "indexed": true,
          "internalType": "address",
          "name": "user",
          "type": "address"
        },
        {
          "indexed": true,
          "internalType": "uint256",
          "name": "pid",
          "type": "uint256"
        },
        {
          "indexed": false,
          "internalType": "uint256",
          "name": "amount",
          "type": "uint256"
        }
      ],
      "name": "Deposit",
      "type": "event"
    },
    {
      "anonymous": false,
      "inputs": [
        {
          "indexed": true,
          "internalType": "address",
          "name": "user",
          "type": "address"
        },
        {
          "indexed": true,
          "internalType": "uint256",
          "name": "pid",
          "type": "uint256"
        },
        {
          "indexed": false,
          "internalType": "uint256",
          "name": "amount",
          "type": "uint256"
        }
      ],
      "name": "EmergencyWithdraw",
      "type": "event"
    },
    {
      "anonymous": false,
      "inputs": [
        {
          "indexed": true,
          "internalType": "address",
          "name": "previousOwner",
          "type": "address"
        },
        {
          "indexed": true,
          "internalType": "address",
          "name": "newOwner",
          "type": "address"
        }
      ],
      "name": "OwnershipTransferred",
      "type": "event"
    },
    {
      "anonymous": false,
      "inputs": [
        {
          "indexed": false,
          "internalType": "address",
          "name": "account",
          "type": "address"
        }
      ],
      "name": "Paused",
      "type": "event"
    },
    {
      "anonymous": false,
      "inputs": [
        {
          "indexed": true,
          "internalType": "address",
          "name": "from",
          "type": "address"
        },
        {
          "indexed": true,
          "internalType": "address",
          "name": "to",
          "type": "address"
        },
        {
          "indexed": false,
          "internalType": "uint256",
          "name": "value",
          "type": "uint256"
        }
      ],
      "name": "Transfer",
      "type": "event"
    },
    {
      "anonymous": false,
      "inputs": [
        {
          "indexed": false,
          "internalType": "address",
          "name": "account",
          "type": "address"
        }
      ],
      "name": "Unpaused",
      "type": "event"
    },
    {
      "anonymous": false,
      "inputs": [
        {
          "indexed": true,
          "internalType": "address",
          "name": "implementation",
          "type": "address"
        }
      ],
      "name": "Upgraded",
      "type": "event"
    },
    {
      "anonymous": false,
      "inputs": [
        {
          "indexed": true,
          "internalType": "address",
          "name": "user",
          "type": "address"
        },
        {
          "indexed": true,
          "internalType": "uint256",
          "name": "pid",
          "type": "uint256"
        },
        {
          "indexed": false,
          "internalType": "uint256",
          "name": "amount",
          "type": "uint256"
        }
      ],
      "name": "Withdraw",
      "type": "event"
    },
    {
      "inputs": [],
      "name": "BONUS_MULTIPLIER",
      "outputs": [
        {
          "internalType": "uint256",
          "name": "",
          "type": "uint256"
        }
      ],
      "stateMutability": "view",
      "type": "function"
    },
    {
      "inputs": [],
      "name": "DOMAIN_SEPARATOR",
      "outputs": [
        {
          "internalType": "bytes32",
          "name": "",
          "type": "bytes32"
        }
      ],
      "stateMutability": "view",
      "type": "function"
    },
    {
      "inputs": [],
      "name": "GOLD",
      "outputs": [
        {
          "internalType": "contract IERC20",
          "name": "",
          "type": "address"
        }
      ],
      "stateMutability": "view",
      "type": "function"
    },
    {
      "inputs": [],
      "name": "Valar",
      "outputs": [
        {
          "internalType": "contract IERC20",
          "name": "",
          "type": "address"
        }
      ],
      "stateMutability": "view",
      "type": "function"
    },
    {
      "inputs": [
        {
          "internalType": "uint256",
          "name": "_pid",
          "type": "uint256"
        },
        {
          "internalType": "address",
          "name": "_to",
          "type": "address"
        },
        {
          "internalType": "uint256",
          "name": "_amount",
          "type": "uint256"
        }
      ],
      "name": "accessGOLDTokens",
      "outputs": [],
      "stateMutability": "nonpayable",
      "type": "function"
    },
    {
      "inputs": [
        {
          "internalType": "uint256",
          "name": "_allocPoint",
          "type": "uint256"
        },
        {
          "internalType": "contract IERC20",
          "name": "_lpToken",
          "type": "address"
        },
        {
          "internalType": "bool",
          "name": "_withUpdate",
          "type": "bool"
        }
      ],
      "name": "add",
      "outputs": [],
      "stateMutability": "nonpayable",
      "type": "function"
    },
    {
      "inputs": [
        {
          "internalType": "address",
          "name": "_adminAddress",
          "type": "address"
        }
      ],
      "name": "admin",
      "outputs": [],
      "stateMutability": "nonpayable",
      "type": "function"
    },
    {
      "inputs": [],
      "name": "adminAddress",
      "outputs": [
        {
          "internalType": "address",
          "name": "",
          "type": "address"
        }
      ],
      "stateMutability": "view",
      "type": "function"
    },
    {
      "inputs": [
        {
          "internalType": "address",
          "name": "owner",
          "type": "address"
        },
        {
          "internalType": "address",
          "name": "spender",
          "type": "address"
        }
      ],
      "name": "allowance",
      "outputs": [
        {
          "internalType": "uint256",
          "name": "",
          "type": "uint256"
        }
      ],
      "stateMutability": "view",
      "type": "function"
    },
    {
      "inputs": [
        {
          "internalType": "address",
          "name": "spender",
          "type": "address"
        },
        {
          "internalType": "uint256",
          "name": "amount",
          "type": "uint256"
        }
      ],
      "name": "approve",
      "outputs": [
        {
          "internalType": "bool",
          "name": "",
          "type": "bool"
        }
      ],
      "stateMutability": "nonpayable",
      "type": "function"
    },
    {
      "inputs": [
        {
          "internalType": "address",
          "name": "account",
          "type": "address"
        }
      ],
      "name": "balanceOf",
      "outputs": [
        {
          "internalType": "uint256",
          "name": "",
          "type": "uint256"
        }
      ],
      "stateMutability": "view",
      "type": "function"
    },
    {
      "inputs": [
        {
          "internalType": "address",
          "name": "account",
          "type": "address"
        },
        {
          "internalType": "uint32",
          "name": "pos",
          "type": "uint32"
        }
      ],
      "name": "checkpoints",
      "outputs": [
        {
          "components": [
            {
              "internalType": "uint32",
              "name": "fromBlock",
              "type": "uint32"
            },
            {
              "internalType": "uint224",
              "name": "votes",
              "type": "uint224"
            }
          ],
          "internalType": "struct ERC20VotesUpgradeable.Checkpoint",
          "name": "",
          "type": "tuple"
        }
      ],
      "stateMutability": "view",
      "type": "function"
    },
    {
      "inputs": [
        {
          "internalType": "uint256",
          "name": "_pid",
          "type": "uint256"
        }
      ],
      "name": "claimGOLD",
      "outputs": [],
      "stateMutability": "nonpayable",
      "type": "function"
    },
    {
      "inputs": [],
      "name": "decimals",
      "outputs": [
        {
          "internalType": "uint8",
          "name": "",
          "type": "uint8"
        }
      ],
      "stateMutability": "view",
      "type": "function"
    },
    {
      "inputs": [
        {
          "internalType": "address",
          "name": "spender",
          "type": "address"
        },
        {
          "internalType": "uint256",
          "name": "subtractedValue",
          "type": "uint256"
        }
      ],
      "name": "decreaseAllowance",
      "outputs": [
        {
          "internalType": "bool",
          "name": "",
          "type": "bool"
        }
      ],
      "stateMutability": "nonpayable",
      "type": "function"
    },
    {
      "inputs": [
        {
          "internalType": "address",
          "name": "delegatee",
          "type": "address"
        }
      ],
      "name": "delegate",
      "outputs": [],
      "stateMutability": "nonpayable",
      "type": "function"
    },
    {
      "inputs": [
        {
          "internalType": "address",
          "name": "delegatee",
          "type": "address"
        },
        {
          "internalType": "uint256",
          "name": "nonce",
          "type": "uint256"
        },
        {
          "internalType": "uint256",
          "name": "expiry",
          "type": "uint256"
        },
        {
          "internalType": "uint8",
          "name": "v",
          "type": "uint8"
        },
        {
          "internalType": "bytes32",
          "name": "r",
          "type": "bytes32"
        },
        {
          "internalType": "bytes32",
          "name": "s",
          "type": "bytes32"
        }
      ],
      "name": "delegateBySig",
      "outputs": [],
      "stateMutability": "nonpayable",
      "type": "function"
    },
    {
      "inputs": [
        {
          "internalType": "address",
          "name": "account",
          "type": "address"
        }
      ],
      "name": "delegates",
      "outputs": [
        {
          "internalType": "address",
          "name": "",
          "type": "address"
        }
      ],
      "stateMutability": "view",
      "type": "function"
    },
    {
      "inputs": [
        {
          "internalType": "uint256",
          "name": "_pid",
          "type": "uint256"
        },
        {
          "internalType": "uint256",
          "name": "_amount",
          "type": "uint256"
        }
      ],
      "name": "deposit",
      "outputs": [],
      "stateMutability": "nonpayable",
      "type": "function"
    },
    {
      "inputs": [
        {
          "internalType": "uint256",
          "name": "_from",
          "type": "uint256"
        },
        {
          "internalType": "uint256",
          "name": "_to",
          "type": "uint256"
        }
      ],
      "name": "getMultiplier",
      "outputs": [
        {
          "internalType": "uint256",
          "name": "",
          "type": "uint256"
        }
      ],
      "stateMutability": "pure",
      "type": "function"
    },
    {
      "inputs": [
        {
          "internalType": "uint256",
          "name": "blockNumber",
          "type": "uint256"
        }
      ],
      "name": "getPastTotalSupply",
      "outputs": [
        {
          "internalType": "uint256",
          "name": "",
          "type": "uint256"
        }
      ],
      "stateMutability": "view",
      "type": "function"
    },
    {
      "inputs": [
        {
          "internalType": "address",
          "name": "account",
          "type": "address"
        },
        {
          "internalType": "uint256",
          "name": "blockNumber",
          "type": "uint256"
        }
      ],
      "name": "getPastVotes",
      "outputs": [
        {
          "internalType": "uint256",
          "name": "",
          "type": "uint256"
        }
      ],
      "stateMutability": "view",
      "type": "function"
    },
    {
      "inputs": [
        {
          "internalType": "uint256",
          "name": "_pid",
          "type": "uint256"
        }
      ],
      "name": "getPool",
      "outputs": [
        {
          "components": [
            {
              "internalType": "contract IERC20",
              "name": "lpToken",
              "type": "address"
            },
            {
              "internalType": "uint256",
              "name": "allocPoint",
              "type": "uint256"
            },
            {
              "internalType": "uint256",
              "name": "lastRewardBlock",
              "type": "uint256"
            },
            {
              "internalType": "uint256",
              "name": "accGOLDPerShare",
              "type": "uint256"
            },
            {
              "internalType": "uint256",
              "name": "lastTotalGOLDReward",
              "type": "uint256"
            },
            {
              "internalType": "uint256",
              "name": "lastGOLDRewardBalance",
              "type": "uint256"
            },
            {
              "internalType": "uint256",
              "name": "totalGOLDReward",
              "type": "uint256"
            }
          ],
          "internalType": "struct Maia.PoolInfo",
          "name": "",
          "type": "tuple"
        }
      ],
      "stateMutability": "view",
      "type": "function"
    },
    {
      "inputs": [
        {
          "internalType": "uint256",
          "name": "_pid",
          "type": "uint256"
        },
        {
          "internalType": "address",
          "name": "_user",
          "type": "address"
        }
      ],
      "name": "getUser",
      "outputs": [
        {
          "components": [
            {
              "internalType": "uint256",
              "name": "amount",
              "type": "uint256"
            },
            {
              "internalType": "uint256",
              "name": "rewardDebt",
              "type": "uint256"
            },
            {
              "internalType": "uint256",
              "name": "rewargoldDebt",
              "type": "uint256"
            },
            {
              "internalType": "uint256",
              "name": "stakeEnd",
              "type": "uint256"
            }
          ],
          "internalType": "struct Maia.UserInfo",
          "name": "",
          "type": "tuple"
        }
      ],
      "stateMutability": "view",
      "type": "function"
    },
    {
      "inputs": [
        {
          "internalType": "uint256",
          "name": "_pid",
          "type": "uint256"
        }
      ],
      "name": "getVPOOL",
      "outputs": [
        {
          "components": [
            {
              "internalType": "uint256",
              "name": "lastGOLDRewardBalance",
              "type": "uint256"
            },
            {
              "internalType": "uint256",
              "name": "totalGOLDReward",
              "type": "uint256"
            },
            {
              "internalType": "uint256",
              "name": "totalValar",
              "type": "uint256"
            }
          ],
          "internalType": "struct Maia.ValarPoolInfo",
          "name": "",
          "type": "tuple"
        }
      ],
      "stateMutability": "view",
      "type": "function"
    },
    {
      "inputs": [
        {
          "internalType": "address",
          "name": "account",
          "type": "address"
        }
      ],
      "name": "getVotes",
      "outputs": [
        {
          "internalType": "uint256",
          "name": "",
          "type": "uint256"
        }
      ],
      "stateMutability": "view",
      "type": "function"
    },
    {
      "inputs": [],
      "name": "gold",
      "outputs": [
        {
          "internalType": "contract IERC20",
          "name": "",
          "type": "address"
        }
      ],
      "stateMutability": "view",
      "type": "function"
    },
    {
      "inputs": [
        {
          "internalType": "address",
          "name": "spender",
          "type": "address"
        },
        {
          "internalType": "uint256",
          "name": "addedValue",
          "type": "uint256"
        }
      ],
      "name": "increaseAllowance",
      "outputs": [
        {
          "internalType": "bool",
          "name": "",
          "type": "bool"
        }
      ],
      "stateMutability": "nonpayable",
      "type": "function"
    },
    {
      "inputs": [
        {
          "internalType": "address",
          "name": "_GOLD",
          "type": "address"
        },
        {
          "internalType": "address",
          "name": "_Valar",
          "type": "address"
        },
        {
          "internalType": "address",
          "name": "_adminAddress",
          "type": "address"
        },
        {
          "internalType": "uint256",
          "name": "_startBlock",
          "type": "uint256"
        }
      ],
      "name": "initialize",
      "outputs": [],
      "stateMutability": "nonpayable",
      "type": "function"
    },
    {
      "inputs": [],
      "name": "massUpdatePools",
      "outputs": [],
      "stateMutability": "nonpayable",
      "type": "function"
    },
    {
      "inputs": [],
      "name": "name",
      "outputs": [
        {
          "internalType": "string",
          "name": "",
          "type": "string"
        }
      ],
      "stateMutability": "view",
      "type": "function"
    },
    {
      "inputs": [
        {
          "internalType": "address",
          "name": "owner",
          "type": "address"
        }
      ],
      "name": "nonces",
      "outputs": [
        {
          "internalType": "uint256",
          "name": "",
          "type": "uint256"
        }
      ],
      "stateMutability": "view",
      "type": "function"
    },
    {
      "inputs": [
        {
          "internalType": "address",
          "name": "account",
          "type": "address"
        }
      ],
      "name": "numCheckpoints",
      "outputs": [
        {
          "internalType": "uint32",
          "name": "",
          "type": "uint32"
        }
      ],
      "stateMutability": "view",
      "type": "function"
    },
    {
      "inputs": [],
      "name": "owner",
      "outputs": [
        {
          "internalType": "address",
          "name": "",
          "type": "address"
        }
      ],
      "stateMutability": "view",
      "type": "function"
    },
    {
      "inputs": [],
      "name": "paused",
      "outputs": [
        {
          "internalType": "bool",
          "name": "",
          "type": "bool"
        }
      ],
      "stateMutability": "view",
      "type": "function"
    },
    {
      "inputs": [
        {
          "internalType": "uint256",
          "name": "_pid",
          "type": "uint256"
        },
        {
          "internalType": "address",
          "name": "_user",
          "type": "address"
        }
      ],
      "name": "pendingGOLD",
      "outputs": [
        {
          "internalType": "uint256",
          "name": "",
          "type": "uint256"
        }
      ],
      "stateMutability": "view",
      "type": "function"
    },
    {
      "inputs": [
        {
          "internalType": "address",
          "name": "owner",
          "type": "address"
        },
        {
          "internalType": "address",
          "name": "spender",
          "type": "address"
        },
        {
          "internalType": "uint256",
          "name": "value",
          "type": "uint256"
        },
        {
          "internalType": "uint256",
          "name": "deadline",
          "type": "uint256"
        },
        {
          "internalType": "uint8",
          "name": "v",
          "type": "uint8"
        },
        {
          "internalType": "bytes32",
          "name": "r",
          "type": "bytes32"
        },
        {
          "internalType": "bytes32",
          "name": "s",
          "type": "bytes32"
        }
      ],
      "name": "permit",
      "outputs": [],
      "stateMutability": "nonpayable",
      "type": "function"
    },
    {
      "inputs": [
        {
          "internalType": "uint256",
          "name": "",
          "type": "uint256"
        }
      ],
      "name": "poolInfo",
      "outputs": [
        {
          "internalType": "contract IERC20",
          "name": "lpToken",
          "type": "address"
        },
        {
          "internalType": "uint256",
          "name": "allocPoint",
          "type": "uint256"
        },
        {
          "internalType": "uint256",
          "name": "lastRewardBlock",
          "type": "uint256"
        },
        {
          "internalType": "uint256",
          "name": "accGOLDPerShare",
          "type": "uint256"
        },
        {
          "internalType": "uint256",
          "name": "lastTotalGOLDReward",
          "type": "uint256"
        },
        {
          "internalType": "uint256",
          "name": "lastGOLDRewardBalance",
          "type": "uint256"
        },
        {
          "internalType": "uint256",
          "name": "totalGOLDReward",
          "type": "uint256"
        }
      ],
      "stateMutability": "view",
      "type": "function"
    },
    {
      "inputs": [],
      "name": "poolLength",
      "outputs": [
        {
          "internalType": "uint256",
          "name": "",
          "type": "uint256"
        }
      ],
      "stateMutability": "view",
      "type": "function"
    },
    {
      "inputs": [],
      "name": "renounceOwnership",
      "outputs": [],
      "stateMutability": "nonpayable",
      "type": "function"
    },
    {
      "inputs": [
        {
          "internalType": "uint256",
          "name": "_pid",
          "type": "uint256"
        },
        {
          "internalType": "uint256",
          "name": "_allocPoint",
          "type": "uint256"
        },
        {
          "internalType": "bool",
          "name": "_withUpdate",
          "type": "bool"
        }
      ],
      "name": "set",
      "outputs": [],
      "stateMutability": "nonpayable",
      "type": "function"
    },
    {
      "inputs": [
        {
          "internalType": "uint256",
          "name": "_delay",
          "type": "uint256"
        }
      ],
      "name": "setWithdrawDelay",
      "outputs": [],
      "stateMutability": "nonpayable",
      "type": "function"
    },
    {
      "inputs": [],
      "name": "startBlock",
      "outputs": [
        {
          "internalType": "uint256",
          "name": "",
          "type": "uint256"
        }
      ],
      "stateMutability": "view",
      "type": "function"
    },
    {
      "inputs": [],
      "name": "symbol",
      "outputs": [
        {
          "internalType": "string",
          "name": "",
          "type": "string"
        }
      ],
      "stateMutability": "view",
      "type": "function"
    },
    {
      "inputs": [],
      "name": "topStakerNumber",
      "outputs": [
        {
          "internalType": "uint256",
          "name": "",
          "type": "uint256"
        }
      ],
      "stateMutability": "view",
      "type": "function"
    },
    {
      "inputs": [],
      "name": "totalAllocPoint",
      "outputs": [
        {
          "internalType": "uint256",
          "name": "",
          "type": "uint256"
        }
      ],
      "stateMutability": "view",
      "type": "function"
    },
    {
      "inputs": [],
      "name": "totalGOLDStaked",
      "outputs": [
        {
          "internalType": "uint256",
          "name": "",
          "type": "uint256"
        }
      ],
      "stateMutability": "view",
      "type": "function"
    },
    {
      "inputs": [],
      "name": "totalGOLDUsedForPurchase",
      "outputs": [
        {
          "internalType": "uint256",
          "name": "",
          "type": "uint256"
        }
      ],
      "stateMutability": "view",
      "type": "function"
    },
    {
      "inputs": [],
      "name": "totalSupply",
      "outputs": [
        {
          "internalType": "uint256",
          "name": "",
          "type": "uint256"
        }
      ],
      "stateMutability": "view",
      "type": "function"
    },
    {
      "inputs": [
        {
          "internalType": "address",
          "name": "recipient",
          "type": "address"
        },
        {
          "internalType": "uint256",
          "name": "amount",
          "type": "uint256"
        }
      ],
      "name": "transfer",
      "outputs": [
        {
          "internalType": "bool",
          "name": "",
          "type": "bool"
        }
      ],
      "stateMutability": "nonpayable",
      "type": "function"
    },
    {
      "inputs": [
        {
          "internalType": "address",
          "name": "sender",
          "type": "address"
        },
        {
          "internalType": "address",
          "name": "recipient",
          "type": "address"
        },
        {
          "internalType": "uint256",
          "name": "amount",
          "type": "uint256"
        }
      ],
      "name": "transferFrom",
      "outputs": [
        {
          "internalType": "bool",
          "name": "",
          "type": "bool"
        }
      ],
      "stateMutability": "nonpayable",
      "type": "function"
    },
    {
      "inputs": [
        {
          "internalType": "address",
          "name": "newOwner",
          "type": "address"
        }
      ],
      "name": "transferOwnership",
      "outputs": [],
      "stateMutability": "nonpayable",
      "type": "function"
    },
    {
      "inputs": [
        {
          "internalType": "uint256",
          "name": "_pid",
          "type": "uint256"
        }
      ],
      "name": "updatePool",
      "outputs": [],
      "stateMutability": "nonpayable",
      "type": "function"
    },
    {
      "inputs": [
        {
          "internalType": "uint256",
          "name": "_pid",
          "type": "uint256"
        }
      ],
      "name": "updatePoolHelper",
      "outputs": [
        {
          "internalType": "uint256",
          "name": "",
          "type": "uint256"
        }
      ],
      "stateMutability": "view",
      "type": "function"
    },
    {
      "inputs": [
        {
          "internalType": "address",
          "name": "newImplementation",
          "type": "address"
        }
      ],
      "name": "upgradeTo",
      "outputs": [],
      "stateMutability": "nonpayable",
      "type": "function"
    },
    {
      "inputs": [
        {
          "internalType": "address",
          "name": "newImplementation",
          "type": "address"
        },
        {
          "internalType": "bytes",
          "name": "data",
          "type": "bytes"
        }
      ],
      "name": "upgradeToAndCall",
      "outputs": [],
      "stateMutability": "payable",
      "type": "function"
    },
    {
      "inputs": [
        {
          "internalType": "uint256",
          "name": "",
          "type": "uint256"
        },
        {
          "internalType": "address",
          "name": "",
          "type": "address"
        }
      ],
      "name": "userInfo",
      "outputs": [
        {
          "internalType": "uint256",
          "name": "amount",
          "type": "uint256"
        },
        {
          "internalType": "uint256",
          "name": "rewardDebt",
          "type": "uint256"
        },
        {
          "internalType": "uint256",
          "name": "rewargoldDebt",
          "type": "uint256"
        },
        {
          "internalType": "uint256",
          "name": "stakeEnd",
          "type": "uint256"
        }
      ],
      "stateMutability": "view",
      "type": "function"
    },
    {
      "inputs": [
        {
          "internalType": "uint256",
          "name": "",
          "type": "uint256"
        }
      ],
      "name": "valarPoolInfo",
      "outputs": [
        {
          "internalType": "uint256",
          "name": "lastGOLDRewardBalance",
          "type": "uint256"
        },
        {
          "internalType": "uint256",
          "name": "totalGOLDReward",
          "type": "uint256"
        },
        {
          "internalType": "uint256",
          "name": "totalValar",
          "type": "uint256"
        }
      ],
      "stateMutability": "view",
      "type": "function"
    },
    {
      "inputs": [
        {
          "internalType": "uint256",
          "name": "_pid",
          "type": "uint256"
        },
        {
          "internalType": "address",
          "name": "_user",
          "type": "address"
        }
      ],
      "name": "valarRewards",
      "outputs": [
        {
          "internalType": "uint256",
          "name": "",
          "type": "uint256"
        }
      ],
      "stateMutability": "nonpayable",
      "type": "function"
    },
    {
      "inputs": [
        {
          "internalType": "uint256",
          "name": "",
          "type": "uint256"
        },
        {
          "internalType": "address",
          "name": "",
          "type": "address"
        }
      ],
      "name": "valarUserInfo",
      "outputs": [
        {
          "internalType": "uint256",
          "name": "rewardDebt",
          "type": "uint256"
        }
      ],
      "stateMutability": "view",
      "type": "function"
    },
    {
      "inputs": [
        {
          "internalType": "uint256",
          "name": "_pid",
          "type": "uint256"
        },
        {
          "internalType": "uint256",
          "name": "_amount",
          "type": "uint256"
        }
      ],
      "name": "withdraw",
      "outputs": [],
      "stateMutability": "nonpayable",
      "type": "function"
    },
    {
      "inputs": [],
      "name": "withdrawDelay",
      "outputs": [
        {
          "internalType": "uint256",
          "name": "",
          "type": "uint256"
        }
      ],
      "stateMutability": "view",
      "type": "function"
    }
  ],
  "bytecode": "0x60a06040523060601b60805262093a806101d35534801561001f57600080fd5b5060805160601c615091610053600039600081816118d50152818161191501528181611d9f0152611ddf01526150916000f3fe6080604052600436106103ad5760003560e01c806364482f79116101e757806395d89b411161010d578063d505accf116100a0578063f2fde38b1161006f578063f2fde38b14610ca6578063f8b535ac14610cc6578063fbec6f2114610cdd578063fc6f946814610cfe576103ad565b8063d505accf14610bd6578063dd62ed3e14610bf6578063e2bbb15814610c3c578063f1127ed814610c5c576103ad565b8063a9059cbb116100dc578063a9059cbb14610b3d578063c3cda52014610b5d578063cf756fdf14610b7d578063d2371d5014610b9d576103ad565b806395d89b4114610ac85780639ab24eb014610add578063a457c2d714610afd578063a87492c814610b1d576103ad565b80637be7ce52116101855780638da5cb5b116101545780638da5cb5b146109fb5780638dbb1e3a14610a1a5780638e539e8c14610a3a57806393f1a40b14610a5a576103ad565b80637be7ce521461096b5780637ecebe001461098b57806381fbc5a7146109ab5780638aa28550146109e6576103ad565b80636fcfff45116101c15780636fcfff45146108cb57806370a0823114610900578063715018a61461093657806372f0cb301461094b576103ad565b806364482f791461085257806368b5ab2f146108725780636f10947c146108b4576103ad565b80633644e515116102d75780634f1ef2861161026a5780635c19a95c116102395780635c19a95c146107e45780635c975abb14610804578063630b5ba11461081d57806363a846f814610832576103ad565b80634f1ef2861461075757806351eb05a61461076a578063587cde1e1461078a5780635b3c25ce146107c4576103ad565b80633e4bee38116102a65780633e4bee38146106c6578063441a3e70146106ff578063477901661461071f57806348cd4cb114610740576103ad565b80633644e515146106515780633659cfe61461066657806339509351146106865780633a46b1a8146106a6576103ad565b80630d3c5df01161034f5780631eaaa0451161031e5780631eaaa045146105a257806323b872dd146105c2578063257664a4146105e2578063313ce56714610635576103ad565b80630d3c5df0146104f55780631526fe271461051757806317caf6f11461057657806318160ddd1461058d576103ad565b806306fdde031161038b57806306fdde031461046d578063081e3eda1461048f578063095ea7b3146104a55780630bc1a005146104d5576103ad565b8063017e58ca146103b25780630288a39c146103dc578063068bcd8d146103f3575b600080fd5b3480156103be57600080fd5b506103c96101d15481565b6040519081526020015b60405180910390f35b3480156103e857600080fd5b506103c96101d35481565b3480156103ff57600080fd5b5061041361040e366004614c8b565b610d1f565b6040516103d3919081516001600160a01b031681526020808301519082015260408083015190820152606080830151908201526080808301519082015260a0828101519082015260c0918201519181019190915260e00190565b34801561047957600080fd5b50610482610dfa565b6040516103d39190614db0565b34801561049b57600080fd5b506101cb546103c9565b3480156104b157600080fd5b506104c56104c0366004614bb6565b610e8c565b60405190151581526020016103d3565b3480156104e157600080fd5b506103c96104f0366004614cbb565b610ea3565b34801561050157600080fd5b50610515610510366004614cdf565b611165565b005b34801561052357600080fd5b50610537610532366004614c8b565b6114b7565b604080516001600160a01b0390981688526020880196909652948601939093526060850191909152608084015260a083015260c082015260e0016103d3565b34801561058257600080fd5b506103c96101cf5481565b34801561059957600080fd5b506099546103c9565b3480156105ae57600080fd5b506105156105bd366004614d05565b611511565b3480156105ce57600080fd5b506104c56105dd366004614a4a565b61178c565b3480156105ee57600080fd5b506106026105fd366004614cbb565b611838565b6040516103d391908151815260208083015190820152604080830151908201526060918201519181019190915260800190565b34801561064157600080fd5b50604051600981526020016103d3565b34801561065d57600080fd5b506103c96118bb565b34801561067257600080fd5b506105156106813660046149a6565b6118ca565b34801561069257600080fd5b506104c56106a1366004614bb6565b611993565b3480156106b257600080fd5b506103c96106c1366004614bb6565b6119cf565b3480156106d257600080fd5b506101c7546106e7906001600160a01b031681565b6040516001600160a01b0390911681526020016103d3565b34801561070b57600080fd5b5061051561071a366004614d46565b611a43565b34801561072b57600080fd5b506101c8546106e7906001600160a01b031681565b34801561074c57600080fd5b506103c96101d05481565b610515610765366004614af7565b611d94565b34801561077657600080fd5b50610515610785366004614c8b565b611e4e565b34801561079657600080fd5b506106e76107a53660046149a6565b6001600160a01b03908116600090815261013060205260409020541690565b3480156107d057600080fd5b506105156107df366004614c8b565b612112565b3480156107f057600080fd5b506105156107ff3660046149a6565b61230a565b34801561081057600080fd5b506101945460ff166104c5565b34801561082957600080fd5b50610515612314565b34801561083e57600080fd5b5061051561084d3660046149a6565b61233c565b34801561085e57600080fd5b5061051561086d366004614d67565b612426565b34801561087e57600080fd5b5061089261088d366004614c8b565b6124f0565b60408051825181526020808401519082015291810151908201526060016103d3565b3480156108c057600080fd5b506103c96101ca5481565b3480156108d757600080fd5b506108eb6108e63660046149a6565b612574565b60405163ffffffff90911681526020016103d3565b34801561090c57600080fd5b506103c961091b3660046149a6565b6001600160a01b031660009081526097602052604090205490565b34801561094257600080fd5b50610515612597565b34801561095757600080fd5b50610515610966366004614c8b565b6125ce565b34801561097757600080fd5b506103c9610986366004614cbb565b6125ff565b34801561099757600080fd5b506103c96109a63660046149a6565b61272c565b3480156109b757600080fd5b506109cb6109c6366004614c8b565b61274a565b604080519384526020840192909252908201526060016103d3565b3480156109f257600080fd5b506103c9600181565b348015610a0757600080fd5b50610162546001600160a01b03166106e7565b348015610a2657600080fd5b506103c9610a35366004614d46565b61277e565b348015610a4657600080fd5b506103c9610a55366004614c8b565b6127a7565b348015610a6657600080fd5b50610aa8610a75366004614cbb565b6101cd60209081526000928352604080842090915290825290208054600182015460028301546003909301549192909184565b6040805194855260208501939093529183015260608201526080016103d3565b348015610ad457600080fd5b50610482612804565b348015610ae957600080fd5b506103c9610af83660046149a6565b612813565b348015610b0957600080fd5b506104c5610b18366004614bb6565b6128aa565b348015610b2957600080fd5b506103c9610b38366004614c8b565b612943565b348015610b4957600080fd5b506104c5610b58366004614bb6565b6129e2565b348015610b6957600080fd5b50610515610b78366004614be1565b6129ef565b348015610b8957600080fd5b50610515610b983660046149fa565b612b25565b348015610ba957600080fd5b506103c9610bb8366004614cbb565b6101ce60209081526000928352604080842090915290825290205481565b348015610be257600080fd5b50610515610bf1366004614a8a565b612d05565b348015610c0257600080fd5b506103c9610c113660046149c2565b6001600160a01b03918216600090815260986020908152604080832093909416825291909152205490565b348015610c4857600080fd5b50610515610c57366004614d46565b612e4b565b348015610c6857600080fd5b50610c7c610c77366004614c3a565b613165565b60408051825163ffffffff1681526020928301516001600160e01b031692810192909252016103d3565b348015610cb257600080fd5b50610515610cc13660046149a6565b6131f8565b348015610cd257600080fd5b506103c96101d25481565b348015610ce957600080fd5b506101c6546106e7906001600160a01b031681565b348015610d0a57600080fd5b506101c9546106e7906001600160a01b031681565b610d686040518060e0016040528060006001600160a01b031681526020016000815260200160008152602001600081526020016000815260200160008152602001600081525090565b6101cb8281548110610d8a57634e487b7160e01b600052603260045260246000fd5b60009182526020918290206040805160e081018252600790930290910180546001600160a01b031683526001810154938301939093526002830154908201526003820154606082015260048201546080820152600582015460a082015260069091015460c082015290505b919050565b6060609a8054610e0990614f95565b80601f0160208091040260200160405190810160405280929190818152602001828054610e3590614f95565b8015610e825780601f10610e5757610100808354040283529160200191610e82565b820191906000526020600020905b815481529060010190602001808311610e6557829003601f168201915b5050505050905090565b6000610e99338484613291565b5060015b92915050565b6000806101cb8481548110610ec857634e487b7160e01b600052603260045260246000fd5b9060005260206000209060070201905060006101cc8581548110610efc57634e487b7160e01b600052603260045260246000fd5b600091825260208083208884526101cd825260408085206001600160a01b038a168087529084528186208b87526101ce8552828720918752935284206003878101546101d15460028a015492909602909301965092949093919243118015610f6357508115155b1561112557600061101d6064611017605a611011610f906101d2546101d1546133b590919063ffffffff16565b8d546040516370a0823160e01b81523060048201526001600160a01b03909116906370a08231906024015b60206040518083038186803b158015610fd357600080fd5b505afa158015610fe7573d6000803e3d6000fd5b505050506040513d601f19601f8201168201806040525081019061100b9190614ca3565b906133b5565b906133c1565b906133cd565b905060006110388960050154836133b590919063ffffffff16565b9050611057611050856110178464e8d4a510006133c1565b86906133d9565b6101c8546040516370a0823160e01b81526001600160a01b038e81166004830152929750600092909116906370a082319060240160206040518083038186803b1580156110a357600080fd5b505afa1580156110b7573d6000803e3d6000fd5b505050506040513d601f19601f820116820180604052508101906110db9190614ca3565b1180156110ec575060008860020154115b1561112257600061110e89600201548a600101546133cd90919063ffffffff16565b875490915061111e9082906133b5565b9350505b50505b61115781611151876002015461100b64e8d4a51000611017898c600001546133c190919063ffffffff16565b906133d9565b9a9950505050505050505050565b6101c9546001600160a01b031633146111c55760405162461bcd60e51b815260206004820152601c60248201527f73656e646572206d7573742062652061646d696e20616464726573730000000060448201526064015b60405180910390fd5b806111df6101d2546101d1546133b590919063ffffffff16565b10156112415760405162461bcd60e51b815260206004820152602b60248201527f416d6f756e74206d757374206265206c657373207468616e207374616b65642060448201526a11d3d31108185b5bdd5b9d60aa1b60648201526084016111bc565b60006101cb848154811061126557634e487b7160e01b600052603260045260246000fd5b6000918252602082206007919091020180546040516370a0823160e01b81523060048201529193506001600160a01b0316906370a082319060240160206040518083038186803b1580156112b857600080fd5b505afa1580156112cc573d6000803e3d6000fd5b505050506040513d601f19601f820116820180604052508101906112f09190614ca3565b9050808311156113d757815460405163a9059cbb60e01b81526001600160a01b038681166004830152602482018490529091169063a9059cbb90604401602060405180830381600087803b15801561134757600080fd5b505af115801561135b573d6000803e3d6000fd5b505050506040513d601f19601f8201168201806040525081019061137f9190614c6f565b506101d25461138e90826133d9565b6101d25560405181815285906001600160a01b038616907fbb757047c2b5f3974fe26b7c10f732e7bce710b0952a71082702781e62ae05959060200160405180910390a36114b0565b815460405163a9059cbb60e01b81526001600160a01b038681166004830152602482018690529091169063a9059cbb90604401602060405180830381600087803b15801561142457600080fd5b505af1158015611438573d6000803e3d6000fd5b505050506040513d601f19601f8201168201806040525081019061145c9190614c6f565b506101d25461146b90846133d9565b6101d25560405183815285906001600160a01b038616907fbb757047c2b5f3974fe26b7c10f732e7bce710b0952a71082702781e62ae05959060200160405180910390a35b5050505050565b6101cb81815481106114c857600080fd5b600091825260209091206007909102018054600182015460028301546003840154600485015460058601546006909601546001600160a01b039095169650929491939092919087565b610162546001600160a01b0316331461153c5760405162461bcd60e51b81526004016111bc90614e7b565b801561154a5761154a612314565b60006101d054431161155f576101d054611561565b435b6101cf5490915061157290856133d9565b6101cf556040805160e0810182526001600160a01b0394851681526020808201968752818301938452600060608084018281526080850183815260a0860184815260c087018581526101cb80546001808201835591885298517fe8bbfecd380c4167d6a1f763a233ec73e73f534b1970c4e1683f437ec23c1f446007909a02998a0180546001600160a01b03191691909e1617909c559b517fe8bbfecd380c4167d6a1f763a233ec73e73f534b1970c4e1683f437ec23c1f4588015597517fe8bbfecd380c4167d6a1f763a233ec73e73f534b1970c4e1683f437ec23c1f4687015590517fe8bbfecd380c4167d6a1f763a233ec73e73f534b1970c4e1683f437ec23c1f47860155517fe8bbfecd380c4167d6a1f763a233ec73e73f534b1970c4e1683f437ec23c1f4885015594517fe8bbfecd380c4167d6a1f763a233ec73e73f534b1970c4e1683f437ec23c1f4984015596517fe8bbfecd380c4167d6a1f763a233ec73e73f534b1970c4e1683f437ec23c1f4a909201919091558151928301825285835282018581529082018581526101cc8054958601815590955290517f9a37fbd5e796e9046c2f5f7e29046a230a4ba9ada48a80535ed93a51fec5cfbc600390940293840155517f9a37fbd5e796e9046c2f5f7e29046a230a4ba9ada48a80535ed93a51fec5cfbd8301555090517f9a37fbd5e796e9046c2f5f7e29046a230a4ba9ada48a80535ed93a51fec5cfbe90910155565b60006117998484846133e5565b6001600160a01b03841660009081526098602090815260408083203384529091529020548281101561181e5760405162461bcd60e51b815260206004820152602860248201527f45524332303a207472616e7366657220616d6f756e74206578636565647320616044820152676c6c6f77616e636560c01b60648201526084016111bc565b61182b8533858403613291565b60019150505b9392505050565b6118636040518060800160405280600081526020016000815260200160008152602001600081525090565b5060009182526101cd602090815260408084206001600160a01b039390931684529181529181902081516080810183528154815260018201549381019390935260028101549183019190915260030154606082015290565b60006118c56135ca565b905090565b306001600160a01b037f00000000000000000000000000000000000000000000000000000000000000001614156119135760405162461bcd60e51b81526004016111bc90614de3565b7f00000000000000000000000000000000000000000000000000000000000000006001600160a01b0316611945613645565b6001600160a01b03161461196b5760405162461bcd60e51b81526004016111bc90614e2f565b61197481613673565b60408051600080825260208201909252611990918391906136eb565b50565b3360008181526098602090815260408083206001600160a01b03871684529091528120549091610e999185906119ca908690614efb565b613291565b6000438210611a205760405162461bcd60e51b815260206004820152601f60248201527f4552433230566f7465733a20626c6f636b206e6f7420796574206d696e65640060448201526064016111bc565b6001600160a01b038316600090815261013160205260409020611831908361382f565b60006101cb8381548110611a6757634e487b7160e01b600052603260045260246000fd5b9060005260206000209060070201905060006101cc8481548110611a9b57634e487b7160e01b600052603260045260246000fd5b600091825260208083208784526101cd82526040808520338652909252922060038181015492029092019250421015611b0b5760405162461bcd60e51b81526020600482015260126024820152713bb4ba34323930bb9d103a37b79039b7b7b760711b60448201526064016111bc565b611b1485611e4e565b6000611b2086336125ff565b90506000611b50836002015461100b64e8d4a51000611017896003015488600001546133c190919063ffffffff16565b90506000811180611b615750600082115b15611c015784546001600160a01b031663a9059cbb33611b8184866133d9565b6040516001600160e01b031960e085901b1681526001600160a01b0390921660048301526024820152604401602060405180830381600087803b158015611bc757600080fd5b505af1158015611bdb573d6000803e3d6000fd5b505050506040513d601f19601f82011682018060405250810190611bff9190614c6f565b505b611c566064611017605a611011611c276101d2546101d1546133b590919063ffffffff16565b8a546040516370a0823160e01b81523060048201526001600160a01b03909116906370a0823190602401610fbb565b8560050181905550611c846064611017600a611011611c276101d2546101d1546133b590919063ffffffff16565b84558254611c9290876133b5565b83556101d154611ca290876133b5565b6101d15560038501548354611cc19164e8d4a5100091611017916133c1565b6002840155845460405163a9059cbb60e01b8152336004820152602481018890526001600160a01b039091169063a9059cbb90604401602060405180830381600087803b158015611d1157600080fd5b505af1158015611d25573d6000803e3d6000fd5b505050506040513d601f19601f82011682018060405250810190611d499190614c6f565b50611d543387613908565b604051868152879033907ff279e6a1f5e320cca91135676d9cb6e44ca8a08c0b88342bcdb1144f6511b5689060200160405180910390a350505050505050565b306001600160a01b037f0000000000000000000000000000000000000000000000000000000000000000161415611ddd5760405162461bcd60e51b81526004016111bc90614de3565b7f00000000000000000000000000000000000000000000000000000000000000006001600160a01b0316611e0f613645565b6001600160a01b031614611e355760405162461bcd60e51b81526004016111bc90614e2f565b611e3e82613673565b611e4a828260016136eb565b5050565b60006101cb8281548110611e7257634e487b7160e01b600052603260045260246000fd5b9060005260206000209060070201905060006101cc8381548110611ea657634e487b7160e01b600052603260045260246000fd5b600091825260208083208684526101cd82526040808520338087529084528186208987526101ce8552828720918752935290932060028601546003909302909301935091904311611efa5750505050611990565b6000611f226064611017605a611011611c276101d2546101d1546133b590919063ffffffff16565b90506000611f4b611f408760050154846133b590919063ffffffff16565b6006880154906133d9565b90508186600501819055508086600601819055506000611fb66064611017600a611011611f876101d2546101d1546133b590919063ffffffff16565b8c546040516370a0823160e01b81523060048201526001600160a01b03909116906370a0823190602401610fbb565b90506000611fdf611fd48860000154846133b590919063ffffffff16565b6001890154906133d9565b828855600188018190556101c854604080516318160ddd60e01b815290519293506001600160a01b03909116916318160ddd91600480820192602092909190829003018186803b15801561203257600080fd5b505afa158015612046573d6000803e3d6000fd5b505050506040513d601f19601f8201168201806040525081019061206a9190614ca3565b60028801556101d154806120bd5750504360028089019190915560006003890181905560048901819055950185905550505060058401829055600690930181905560018201819055908190559055611990565b60006120d68a60040154866133b590919063ffffffff16565b90506120f96120ee836110178464e8d4a510006133c1565b60038c0154906133d9565b60038b0155505050506004909501949094555050505050565b60006101cb828154811061213657634e487b7160e01b600052603260045260246000fd5b9060005260206000209060070201905060006101cc838154811061216a57634e487b7160e01b600052603260045260246000fd5b600091825260208083208684526101cd8252604080852033865290925292206003909102909101915061219c84611e4e565b60006121ca826002015461100b64e8d4a51000611017886003015487600001546133c190919063ffffffff16565b905060006121d886336125ff565b905060008211806121e95750600081115b156122895784546001600160a01b031663a9059cbb3361220985856133d9565b6040516001600160e01b031960e085901b1681526001600160a01b0390921660048301526024820152604401602060405180830381600087803b15801561224f57600080fd5b505af1158015612263573d6000803e3d6000fd5b505050506040513d601f19601f820116820180604052508101906122879190614c6f565b505b6122af6064611017605a611011611c276101d2546101d1546133b590919063ffffffff16565b85600501819055506122dd6064611017600a611011611c276101d2546101d1546133b590919063ffffffff16565b8455600385015483546122fa9164e8d4a5100091611017916133c1565b8360020181905550505050505050565b6119903382613912565b6101cb5460005b81811015611e4a5761232c81611e4e565b61233581614fca565b905061231b565b6001600160a01b0381166123885760405162461bcd60e51b815260206004820152601360248201527261646d696e3a205a65726f206164647265737360681b60448201526064016111bc565b6101c9546001600160a01b031633146123d15760405162461bcd60e51b815260206004820152600b60248201526a61646d696e3a207775743f60a81b60448201526064016111bc565b6101c980546001600160a01b0319166001600160a01b0383169081179091556040519081527f54e4612788f90384e6843298d7854436f3a585b2c3831ab66abf1de63bfa6c2d9060200160405180910390a150565b610162546001600160a01b031633146124515760405162461bcd60e51b81526004016111bc90614e7b565b801561245f5761245f612314565b6124ac826111516101cb868154811061248857634e487b7160e01b600052603260045260246000fd5b9060005260206000209060070201600101546101cf546133b590919063ffffffff16565b6101cf81905550816101cb84815481106124d657634e487b7160e01b600052603260045260246000fd5b906000526020600020906007020160010181905550505050565b61251460405180606001604052806000815260200160008152602001600081525090565b6101cc828154811061253657634e487b7160e01b600052603260045260246000fd5b906000526020600020906003020160405180606001604052908160008201548152602001600182015481526020016002820154815250509050919050565b6001600160a01b03811660009081526101316020526040812054610e9d9061391c565b610162546001600160a01b031633146125c25760405162461bcd60e51b81526004016111bc90614e7b565b6125cc6000613985565b565b610162546001600160a01b031633146125f95760405162461bcd60e51b81526004016111bc90614e7b565b6101d355565b6101c8546040516370a0823160e01b81526001600160a01b03838116600483015260009216906370a082319060240160206040518083038186803b15801561264657600080fd5b505afa15801561265a573d6000803e3d6000fd5b505050506040513d601f19601f8201168201806040525081019061267e9190614ca3565b61268a57506000610e9d565b60006101cc84815481106126ae57634e487b7160e01b600052603260045260246000fd5b600091825260208083208784526101ce82526040808520338652909252922060026003909202909201908101549092506126ed57600092505050610e9d565b600061270a836002015484600101546133cd90919063ffffffff16565b825490915060009061271d9083906133b5565b92839055509095945050505050565b6001600160a01b038116600090815260fd6020526040812054610e9d565b6101cc818154811061275b57600080fd5b600091825260209091206003909102018054600182015460029092015490925083565b600082821061279d57612796600161101184866133b5565b9050610e9d565b61279683836133b5565b60004382106127f85760405162461bcd60e51b815260206004820152601f60248201527f4552433230566f7465733a20626c6f636b206e6f7420796574206d696e65640060448201526064016111bc565b610e9d6101328361382f565b6060609b8054610e0990614f95565b6001600160a01b038116600090815261013160205260408120548015612897576001600160a01b038316600090815261013160205260409020612857600183614f52565b8154811061287557634e487b7160e01b600052603260045260246000fd5b60009182526020909120015464010000000090046001600160e01b031661289a565b60005b6001600160e01b03169392505050565b3360009081526098602090815260408083206001600160a01b03861684529091528120548281101561292c5760405162461bcd60e51b815260206004820152602560248201527f45524332303a2064656372656173656420616c6c6f77616e63652062656c6f77604482015264207a65726f60d81b60648201526084016111bc565b6129393385858403613291565b5060019392505050565b6000806101cb838154811061296857634e487b7160e01b600052603260045260246000fd5b906000526020600020906007020190508060020154431161298d576000915050610df5565b60006129da6129ab6101d2546101d1546133b590919063ffffffff16565b83546040516370a0823160e01b81523060048201526001600160a01b03909116906370a0823190602401610fbb565b949350505050565b6000610e993384846133e5565b83421115612a3f5760405162461bcd60e51b815260206004820152601d60248201527f4552433230566f7465733a207369676e6174757265206578706972656400000060448201526064016111bc565b604080517fe48329057bfd03d55e49b547132e39cffd9c1820ad7b9d4c5307691425d15adf60208201526001600160a01b038816918101919091526060810186905260808101859052600090612ab990612ab19060a001604051602081830303815290604052805190602001206139d8565b858585613a26565b9050612ac481613a4e565b8614612b125760405162461bcd60e51b815260206004820152601960248201527f4552433230566f7465733a20696e76616c6964206e6f6e63650000000000000060448201526064016111bc565b612b1c8188613912565b50505050505050565b600054610100900460ff16612b405760005460ff1615612b44565b303b155b612ba75760405162461bcd60e51b815260206004820152602e60248201527f496e697469616c697a61626c653a20636f6e747261637420697320616c72656160448201526d191e481a5b9a5d1a585b1a5e995960921b60648201526084016111bc565b600054610100900460ff16158015612bd2576000805460ff1961ff0019909116610100171660011790555b6001600160a01b038316612c285760405162461bcd60e51b815260206004820152601860248201527f696e697469616c697a653a205a65726f2061646472657373000000000000000060448201526064016111bc565b612c30613a76565b612c72604051806040016040528060048152602001634d61696160e01b815250604051806040016040528060048152602001634d61696160e01b815250613aad565b612c7a613b00565b612c9f604051806040016040528060048152602001634d61696160e01b815250613b34565b612ca7613b8f565b6101c780546001600160a01b038088166001600160a01b0319928316179092556101c880548784169083161790556101c98054928616929091169190911790556101d082905580156114b0576000805461ff00191690555050505050565b83421115612d555760405162461bcd60e51b815260206004820152601d60248201527f45524332305065726d69743a206578706972656420646561646c696e6500000060448201526064016111bc565b600060fe54888888612d668c613a4e565b6040805160208101969096526001600160a01b0394851690860152929091166060840152608083015260a082015260c0810186905260e0016040516020818303038152906040528051906020012090506000612dc1826139d8565b90506000612dd182878787613a26565b9050896001600160a01b0316816001600160a01b031614612e345760405162461bcd60e51b815260206004820152601e60248201527f45524332305065726d69743a20696e76616c6964207369676e6174757265000060448201526064016111bc565b612e3f8a8a8a613291565b50505050505050505050565b60006101cb8381548110612e6f57634e487b7160e01b600052603260045260246000fd5b9060005260206000209060070201905060006101cc8481548110612ea357634e487b7160e01b600052603260045260246000fd5b600091825260208083208784526101cd82526040808520338652909252922060039091029091019150612ed585611e4e565b805415613022576000612ee886336125ff565b90506000612f18836002015461100b64e8d4a51000611017896003015488600001546133c190919063ffffffff16565b90506000811180612f295750600082115b15612fc95784546001600160a01b031663a9059cbb33612f4984866133d9565b6040516001600160e01b031960e085901b1681526001600160a01b0390921660048301526024820152604401602060405180830381600087803b158015612f8f57600080fd5b505af1158015612fa3573d6000803e3d6000fd5b505050506040513d601f19601f82011682018060405250810190612fc79190614c6f565b505b612fef6064611017605a611011611c276101d2546101d1546133b590919063ffffffff16565b856005018190555061301d6064611017600a611011611c276101d2546101d1546133b590919063ffffffff16565b845550505b600061303e61303760646110178860046133c1565b86906133b5565b84546040516323b872dd60e01b8152336004820152306024820152604481018890529192506001600160a01b0316906323b872dd90606401602060405180830381600087803b15801561309057600080fd5b505af11580156130a4573d6000803e3d6000fd5b505050506040513d601f19601f820116820180604052508101906130c89190614c6f565b506101d1546130d790826133d9565b6101d15581546130e790826133d9565b80835560038501546131049164e8d4a510009161101791906133c1565b60028301556101d3546131179042614efb565b60038301556131263382613bb6565b604051818152869033907f90890809c654f11d6e72a28fa60149770a0d11ec6c92319d6ceb2bb0a4ea1a159060200160405180910390a3505050505050565b60408051808201909152600080825260208201526001600160a01b038316600090815261013160205260409020805463ffffffff84169081106131b857634e487b7160e01b600052603260045260246000fd5b60009182526020918290206040805180820190915291015463ffffffff8116825264010000000090046001600160e01b0316918101919091529392505050565b610162546001600160a01b031633146132235760405162461bcd60e51b81526004016111bc90614e7b565b6001600160a01b0381166132885760405162461bcd60e51b815260206004820152602660248201527f4f776e61626c653a206e6577206f776e657220697320746865207a65726f206160448201526564647265737360d01b60648201526084016111bc565b61199081613985565b6001600160a01b0383166132f35760405162461bcd60e51b8152602060048201526024808201527f45524332303a20617070726f76652066726f6d20746865207a65726f206164646044820152637265737360e01b60648201526084016111bc565b6001600160a01b0382166133545760405162461bcd60e51b815260206004820152602260248201527f45524332303a20617070726f766520746f20746865207a65726f206164647265604482015261737360f01b60648201526084016111bc565b6001600160a01b0383811660008181526098602090815260408083209487168084529482529182902085905590518481527f8c5be1e5ebec7d5bd14f71427d1e84f3dd0314c0f7b2291e5b200ac8c7c3b925910160405180910390a3505050565b60006118318284614f52565b60006118318284614f33565b60006118318284614f13565b60006118318284614efb565b6001600160a01b0383166134495760405162461bcd60e51b815260206004820152602560248201527f45524332303a207472616e736665722066726f6d20746865207a65726f206164604482015264647265737360d81b60648201526084016111bc565b6001600160a01b0382166134ab5760405162461bcd60e51b815260206004820152602360248201527f45524332303a207472616e7366657220746f20746865207a65726f206164647260448201526265737360e81b60648201526084016111bc565b6134b6838383613bc0565b6001600160a01b0383166000908152609760205260409020548181101561352e5760405162461bcd60e51b815260206004820152602660248201527f45524332303a207472616e7366657220616d6f756e7420657863656564732062604482015265616c616e636560d01b60648201526084016111bc565b6001600160a01b03808516600090815260976020526040808220858503905591851681529081208054849290613565908490614efb565b92505081905550826001600160a01b0316846001600160a01b03167fddf252ad1be2c89b69c2b068fc378daa952ba7f163c4a11628f55a4df523b3ef846040516135b191815260200190565b60405180910390a36135c4848484613c28565b50505050565b60006118c57f8b73c3c69bb8fe3d512ecc4cf759cc79239f7b179b0ffacaa9a75d522b39400f6135f960c95490565b60ca546040805160208101859052908101839052606081018290524660808201523060a082015260009060c0016040516020818303038152906040528051906020012090509392505050565b7f360894a13ba1a3210667c828492db98dca3e2076cc3735a920a3ca505d382bbc546001600160a01b031690565b33613687610162546001600160a01b031690565b6001600160a01b0316146119905760405162461bcd60e51b815260206004820152602560248201527f4f6e6c79206f776e65722063616e207570677261646520696d706c656d656e7460448201526430ba34b7b760d91b60648201526084016111bc565b60006136f5613645565b905061370084613c33565b60008351118061370d5750815b1561371e5761371c8484613cd8565b505b7f4910fdfa16fed3260ed0e7147f7cc6da11a60208b5b9406d12a635614ffd9143805460ff166114b057805460ff191660011781556040516001600160a01b038316602482015261379d90869060440160408051601f198184030181529190526020810180516001600160e01b0316631b2ce7f360e11b179052613cd8565b50805460ff191681556137ae613645565b6001600160a01b0316826001600160a01b0316146138265760405162461bcd60e51b815260206004820152602f60248201527f45524331393637557067726164653a207570677261646520627265616b73206660448201526e75727468657220757067726164657360881b60648201526084016111bc565b6114b085613dc3565b8154600090815b818110156138a157600061384a8284613e03565b90508486828154811061386d57634e487b7160e01b600052603260045260246000fd5b60009182526020909120015463ffffffff16111561388d5780925061389b565b613898816001614efb565b91505b50613836565b81156138f357846138b3600184614f52565b815481106138d157634e487b7160e01b600052603260045260246000fd5b60009182526020909120015464010000000090046001600160e01b03166138f6565b60005b6001600160e01b031695945050505050565b611e4a8282613e1e565b611e4a8282613e37565b600063ffffffff8211156139815760405162461bcd60e51b815260206004820152602660248201527f53616665436173743a2076616c756520646f65736e27742066697420696e203360448201526532206269747360d01b60648201526084016111bc565b5090565b61016280546001600160a01b038381166001600160a01b0319831681179093556040519116919082907f8be0079c531659141344cd1fd0a4f28419497f9722a3daafe3b4186f6b6457e090600090a35050565b6000610e9d6139e56135ca565b8360405161190160f01b6020820152602281018390526042810182905260009060620160405160208183030381529060405280519060200120905092915050565b6000806000613a3787878787613eb2565b91509150613a4481613f9f565b5095945050505050565b6001600160a01b038116600090815260fd602052604090208054600181018255905b50919050565b600054610100900460ff16613a9d5760405162461bcd60e51b81526004016111bc90614eb0565b613aa5613b8f565b6125cc6141a2565b600054610100900460ff16613ad45760405162461bcd60e51b81526004016111bc90614eb0565b8151613ae790609a906020850190614905565b508051613afb90609b906020840190614905565b505050565b600054610100900460ff16613b275760405162461bcd60e51b81526004016111bc90614eb0565b610194805460ff19169055565b600054610100900460ff16613b5b5760405162461bcd60e51b81526004016111bc90614eb0565b613b63613b8f565b613b8681604051806040016040528060018152602001603160f81b8152506141d2565b61199081614213565b600054610100900460ff166125cc5760405162461bcd60e51b81526004016111bc90614eb0565b611e4a8282614261565b6001600160a01b0383161580613bdd57506001600160a01b038216155b15613be757613afb565b60405162461bcd60e51b81526020600482015260166024820152752737b7103a3930b739b332b930b13632903a37b5b2b760511b60448201526064016111bc565b613afb8383836142ec565b803b613c975760405162461bcd60e51b815260206004820152602d60248201527f455243313936373a206e657720696d706c656d656e746174696f6e206973206e60448201526c1bdd08184818dbdb9d1c9858dd609a1b60648201526084016111bc565b7f360894a13ba1a3210667c828492db98dca3e2076cc3735a920a3ca505d382bbc80546001600160a01b0319166001600160a01b0392909216919091179055565b6060823b613d375760405162461bcd60e51b815260206004820152602660248201527f416464726573733a2064656c65676174652063616c6c20746f206e6f6e2d636f6044820152651b9d1c9858dd60d21b60648201526084016111bc565b600080846001600160a01b031684604051613d529190614d94565b600060405180830381855af49150503d8060008114613d8d576040519150601f19603f3d011682016040523d82523d6000602084013e613d92565b606091505b5091509150613dba82826040518060600160405280602781526020016150356027913961431f565b95945050505050565b613dcc81613c33565b6040516001600160a01b038216907fbc7cd75a20ee27fd9adebab32041f755214dbc6bffa90cc0225b39da2e5c2d3b90600090a250565b6000613e126002848418614f13565b61183190848416614efb565b613e288282614358565b6135c46101326133b5836144b9565b6001600160a01b0382811660008181526101306020818152604080842080546097845282862054949093528787166001600160a01b03198416811790915590519190951694919391928592917f3134e8a2e6d97e929a7e54011ea5485d7d196dd5f0ba4d4ef95803e8e3fc257f9190a46135c482848361466a565b6000807f7fffffffffffffffffffffffffffffff5d576e7357a4501ddfe92f46681b20a0831115613ee95750600090506003613f96565b8460ff16601b14158015613f0157508460ff16601c14155b15613f125750600090506004613f96565b6040805160008082526020820180845289905260ff881692820192909252606081018690526080810185905260019060a0016020604051602081039080840390855afa158015613f66573d6000803e3d6000fd5b5050604051601f1901519150506001600160a01b038116613f8f57600060019250925050613f96565b9150600090505b94509492505050565b6000816004811115613fc157634e487b7160e01b600052602160045260246000fd5b1415613fcc57611990565b6001816004811115613fee57634e487b7160e01b600052602160045260246000fd5b141561403c5760405162461bcd60e51b815260206004820152601860248201527f45434453413a20696e76616c6964207369676e6174757265000000000000000060448201526064016111bc565b600281600481111561405e57634e487b7160e01b600052602160045260246000fd5b14156140ac5760405162461bcd60e51b815260206004820152601f60248201527f45434453413a20696e76616c6964207369676e6174757265206c656e6774680060448201526064016111bc565b60038160048111156140ce57634e487b7160e01b600052602160045260246000fd5b14156141275760405162461bcd60e51b815260206004820152602260248201527f45434453413a20696e76616c6964207369676e6174757265202773272076616c604482015261756560f01b60648201526084016111bc565b600481600481111561414957634e487b7160e01b600052602160045260246000fd5b14156119905760405162461bcd60e51b815260206004820152602260248201527f45434453413a20696e76616c6964207369676e6174757265202776272076616c604482015261756560f01b60648201526084016111bc565b600054610100900460ff166141c95760405162461bcd60e51b81526004016111bc90614eb0565b6125cc33613985565b600054610100900460ff166141f95760405162461bcd60e51b81526004016111bc90614eb0565b81516020928301208151919092012060c99190915560ca55565b600054610100900460ff1661423a5760405162461bcd60e51b81526004016111bc90614eb0565b507f6e71edae12b1b97f4d1f60370fef10105fa2faae0126114a169c64845d6126c960fe55565b61426b82826147a9565b6099546001600160e01b0310156142dd5760405162461bcd60e51b815260206004820152603060248201527f4552433230566f7465733a20746f74616c20737570706c79207269736b73206f60448201526f766572666c6f77696e6720766f74657360801b60648201526084016111bc565b6135c46101326133d9836144b9565b6001600160a01b0383811660009081526101306020526040808220548584168352912054613afb9291821691168361466a565b6060831561432e575081611831565b82511561433e5782518084602001fd5b8160405162461bcd60e51b81526004016111bc9190614db0565b6001600160a01b0382166143b85760405162461bcd60e51b815260206004820152602160248201527f45524332303a206275726e2066726f6d20746865207a65726f206164647265736044820152607360f81b60648201526084016111bc565b6143c482600083613bc0565b6001600160a01b038216600090815260976020526040902054818110156144385760405162461bcd60e51b815260206004820152602260248201527f45524332303a206275726e20616d6f756e7420657863656564732062616c616e604482015261636560f01b60648201526084016111bc565b6001600160a01b0383166000908152609760205260408120838303905560998054849290614467908490614f52565b90915550506040518281526000906001600160a01b038516907fddf252ad1be2c89b69c2b068fc378daa952ba7f163c4a11628f55a4df523b3ef9060200160405180910390a3613afb83600084613c28565b82546000908190801561451257856144d2600183614f52565b815481106144f057634e487b7160e01b600052603260045260246000fd5b60009182526020909120015464010000000090046001600160e01b0316614515565b60005b6001600160e01b0316925061452e83858763ffffffff16565b915060008111801561457a57504386614548600184614f52565b8154811061456657634e487b7160e01b600052603260045260246000fd5b60009182526020909120015463ffffffff16145b156145e8576145888261489c565b86614594600184614f52565b815481106145b257634e487b7160e01b600052603260045260246000fd5b9060005260206000200160000160046101000a8154816001600160e01b0302191690836001600160e01b03160217905550614661565b8560405180604001604052806145fd4361391c565b63ffffffff1681526020016146118561489c565b6001600160e01b039081169091528254600181018455600093845260209384902083519101805493909401519091166401000000000263ffffffff91821663ffffffff1990931692909217161790555b50935093915050565b816001600160a01b0316836001600160a01b03161415801561468c5750600081115b15613afb576001600160a01b0383161561471b576001600160a01b03831660009081526101316020526040812081906146c8906133b5856144b9565b91509150846001600160a01b03167fdec2bacdd2f05b59de34da9b523dff8be42e5e38e818c82fdb0bae774387a7248383604051614710929190918252602082015260400190565b60405180910390a250505b6001600160a01b03821615613afb576001600160a01b0382166000908152610131602052604081208190614752906133d9856144b9565b91509150836001600160a01b03167fdec2bacdd2f05b59de34da9b523dff8be42e5e38e818c82fdb0bae774387a724838360405161479a929190918252602082015260400190565b60405180910390a25050505050565b6001600160a01b0382166147ff5760405162461bcd60e51b815260206004820152601f60248201527f45524332303a206d696e7420746f20746865207a65726f20616464726573730060448201526064016111bc565b61480b60008383613bc0565b806099600082825461481d9190614efb565b90915550506001600160a01b0382166000908152609760205260408120805483929061484a908490614efb565b90915550506040518181526001600160a01b038316906000907fddf252ad1be2c89b69c2b068fc378daa952ba7f163c4a11628f55a4df523b3ef9060200160405180910390a3611e4a60008383613c28565b60006001600160e01b038211156139815760405162461bcd60e51b815260206004820152602760248201527f53616665436173743a2076616c756520646f65736e27742066697420696e20326044820152663234206269747360c81b60648201526084016111bc565b82805461491190614f95565b90600052602060002090601f0160209004810192826149335760008555614979565b82601f1061494c57805160ff1916838001178555614979565b82800160010185558215614979579182015b8281111561497957825182559160200191906001019061495e565b506139819291505b808211156139815760008155600101614981565b803560ff81168114610df557600080fd5b6000602082840312156149b7578081fd5b813561183181615011565b600080604083850312156149d4578081fd5b82356149df81615011565b915060208301356149ef81615011565b809150509250929050565b60008060008060808587031215614a0f578182fd5b8435614a1a81615011565b93506020850135614a2a81615011565b92506040850135614a3a81615011565b9396929550929360600135925050565b600080600060608486031215614a5e578283fd5b8335614a6981615011565b92506020840135614a7981615011565b929592945050506040919091013590565b600080600080600080600060e0888a031215614aa4578283fd5b8735614aaf81615011565b96506020880135614abf81615011565b95506040880135945060608801359350614adb60808901614995565b925060a0880135915060c0880135905092959891949750929550565b60008060408385031215614b09578182fd5b8235614b1481615011565b9150602083013567ffffffffffffffff80821115614b30578283fd5b818501915085601f830112614b43578283fd5b813581811115614b5557614b55614ffb565b604051601f8201601f19908116603f01168101908382118183101715614b7d57614b7d614ffb565b81604052828152886020848701011115614b95578586fd5b82602086016020830137856020848301015280955050505050509250929050565b60008060408385031215614bc8578182fd5b8235614bd381615011565b946020939093013593505050565b60008060008060008060c08789031215614bf9578182fd5b8635614c0481615011565b95506020870135945060408701359350614c2060608801614995565b92506080870135915060a087013590509295509295509295565b60008060408385031215614c4c578182fd5b8235614c5781615011565b9150602083013563ffffffff811681146149ef578182fd5b600060208284031215614c80578081fd5b815161183181615026565b600060208284031215614c9c578081fd5b5035919050565b600060208284031215614cb4578081fd5b5051919050565b60008060408385031215614ccd578182fd5b8235915060208301356149ef81615011565b600080600060608486031215614cf3578081fd5b833592506020840135614a7981615011565b600080600060608486031215614d19578081fd5b833592506020840135614d2b81615011565b91506040840135614d3b81615026565b809150509250925092565b60008060408385031215614d58578182fd5b50508035926020909101359150565b600080600060608486031215614d7b578081fd5b83359250602084013591506040840135614d3b81615026565b60008251614da6818460208701614f69565b9190910192915050565b6000602082528251806020840152614dcf816040850160208701614f69565b601f01601f19169190910160400192915050565b6020808252602c908201527f46756e6374696f6e206d7573742062652063616c6c6564207468726f7567682060408201526b19195b1959d85d1958d85b1b60a21b606082015260800190565b6020808252602c908201527f46756e6374696f6e206d7573742062652063616c6c6564207468726f7567682060408201526b6163746976652070726f787960a01b606082015260800190565b6020808252818101527f4f776e61626c653a2063616c6c6572206973206e6f7420746865206f776e6572604082015260600190565b6020808252602b908201527f496e697469616c697a61626c653a20636f6e7472616374206973206e6f74206960408201526a6e697469616c697a696e6760a81b606082015260800190565b60008219821115614f0e57614f0e614fe5565b500190565b600082614f2e57634e487b7160e01b81526012600452602481fd5b500490565b6000816000190483118215151615614f4d57614f4d614fe5565b500290565b600082821015614f6457614f64614fe5565b500390565b60005b83811015614f84578181015183820152602001614f6c565b838111156135c45750506000910152565b600281046001821680614fa957607f821691505b60208210811415613a7057634e487b7160e01b600052602260045260246000fd5b6000600019821415614fde57614fde614fe5565b5060010190565b634e487b7160e01b600052601160045260246000fd5b634e487b7160e01b600052604160045260246000fd5b6001600160a01b038116811461199057600080fd5b801515811461199057600080fdfe416464726573733a206c6f772d6c6576656c2064656c65676174652063616c6c206661696c6564a264697066735822122024dfc16424b1aa7213550c2529ef5f2b28b509af726a3b27e1d1b8c8e8f9d13964736f6c63430008020033",
  "linkReferences": {},
  "deployedLinkReferences": {}
}