{
  "_format": "hh-sol-artifact-1",
  "contractName": "Maia",
  "sourceName": "contracts/Maia.sol",
  "abi": [
    {
      "anonymous": false,
      "inputs": [
        {
          "indexed": false,
          "internalType": "address",
          "name": "previousAdmin",
          "type": "address"
        },
        {
          "indexed": false,
          "internalType": "address",
          "name": "newAdmin",
          "type": "address"
        }
      ],
      "name": "AdminChanged",
      "type": "event"
    },
    {
      "anonymous": false,
      "inputs": [
        {
          "indexed": false,
          "internalType": "address",
          "name": "newAdmin",
          "type": "address"
        }
      ],
      "name": "AdminUpdated",
      "type": "event"
    },
    {
      "anonymous": false,
      "inputs": [
        {
          "indexed": true,
          "internalType": "address",
          "name": "owner",
          "type": "address"
        },
        {
          "indexed": true,
          "internalType": "address",
          "name": "spender",
          "type": "address"
        },
        {
          "indexed": false,
          "internalType": "uint256",
          "name": "value",
          "type": "uint256"
        }
      ],
      "name": "Approval",
      "type": "event"
    },
    {
      "anonymous": false,
      "inputs": [
        {
          "indexed": true,
          "internalType": "address",
          "name": "beacon",
          "type": "address"
        }
      ],
      "name": "BeaconUpgraded",
      "type": "event"
    },
    {
      "anonymous": false,
      "inputs": [
        {
          "indexed": true,
          "internalType": "address",
          "name": "delegator",
          "type": "address"
        },
        {
          "indexed": true,
          "internalType": "address",
          "name": "fromDelegate",
          "type": "address"
        },
        {
          "indexed": true,
          "internalType": "address",
          "name": "toDelegate",
          "type": "address"
        }
      ],
      "name": "DelegateChanged",
      "type": "event"
    },
    {
      "anonymous": false,
      "inputs": [
        {
          "indexed": true,
          "internalType": "address",
          "name": "delegate",
          "type": "address"
        },
        {
          "indexed": false,
          "internalType": "uint256",
          "name": "previousBalance",
          "type": "uint256"
        },
        {
          "indexed": false,
          "internalType": "uint256",
          "name": "newBalance",
          "type": "uint256"
        }
      ],
      "name": "DelegateVotesChanged",
      "type": "event"
    },
    {
      "anonymous": false,
      "inputs": [
        {
          "indexed": true,
          "internalType": "address",
          "name": "user",
          "type": "address"
        },
        {
          "indexed": true,
          "internalType": "uint256",
          "name": "pid",
          "type": "uint256"
        },
        {
          "indexed": false,
          "internalType": "uint256",
          "name": "amount",
          "type": "uint256"
        }
      ],
      "name": "Deposit",
      "type": "event"
    },
    {
      "anonymous": false,
      "inputs": [
        {
          "indexed": true,
          "internalType": "address",
          "name": "user",
          "type": "address"
        },
        {
          "indexed": true,
          "internalType": "uint256",
          "name": "pid",
          "type": "uint256"
        },
        {
          "indexed": false,
          "internalType": "uint256",
          "name": "amount",
          "type": "uint256"
        }
      ],
      "name": "EmergencyWithdraw",
      "type": "event"
    },
    {
      "anonymous": false,
      "inputs": [
        {
          "indexed": true,
          "internalType": "address",
          "name": "previousOwner",
          "type": "address"
        },
        {
          "indexed": true,
          "internalType": "address",
          "name": "newOwner",
          "type": "address"
        }
      ],
      "name": "OwnershipTransferred",
      "type": "event"
    },
    {
      "anonymous": false,
      "inputs": [
        {
          "indexed": false,
          "internalType": "address",
          "name": "account",
          "type": "address"
        }
      ],
      "name": "Paused",
      "type": "event"
    },
    {
      "anonymous": false,
      "inputs": [
        {
          "indexed": true,
          "internalType": "address",
          "name": "from",
          "type": "address"
        },
        {
          "indexed": true,
          "internalType": "address",
          "name": "to",
          "type": "address"
        },
        {
          "indexed": false,
          "internalType": "uint256",
          "name": "value",
          "type": "uint256"
        }
      ],
      "name": "Transfer",
      "type": "event"
    },
    {
      "anonymous": false,
      "inputs": [
        {
          "indexed": false,
          "internalType": "address",
          "name": "account",
          "type": "address"
        }
      ],
      "name": "Unpaused",
      "type": "event"
    },
    {
      "anonymous": false,
      "inputs": [
        {
          "indexed": true,
          "internalType": "address",
          "name": "implementation",
          "type": "address"
        }
      ],
      "name": "Upgraded",
      "type": "event"
    },
    {
      "anonymous": false,
      "inputs": [
        {
          "indexed": true,
          "internalType": "address",
          "name": "user",
          "type": "address"
        },
        {
          "indexed": true,
          "internalType": "uint256",
          "name": "pid",
          "type": "uint256"
        },
        {
          "indexed": false,
          "internalType": "uint256",
          "name": "amount",
          "type": "uint256"
        }
      ],
      "name": "Withdraw",
      "type": "event"
    },
    {
      "inputs": [],
      "name": "BONUS_MULTIPLIER",
      "outputs": [
        {
          "internalType": "uint256",
          "name": "",
          "type": "uint256"
        }
      ],
      "stateMutability": "view",
      "type": "function"
    },
    {
      "inputs": [],
      "name": "DOMAIN_SEPARATOR",
      "outputs": [
        {
          "internalType": "bytes32",
          "name": "",
          "type": "bytes32"
        }
      ],
      "stateMutability": "view",
      "type": "function"
    },
    {
      "inputs": [],
      "name": "GOLD",
      "outputs": [
        {
          "internalType": "contract IERC20",
          "name": "",
          "type": "address"
        }
      ],
      "stateMutability": "view",
      "type": "function"
    },
    {
      "inputs": [
        {
          "internalType": "uint256",
          "name": "_pid",
          "type": "uint256"
        },
        {
          "internalType": "address",
          "name": "_to",
          "type": "address"
        },
        {
          "internalType": "uint256",
          "name": "_amount",
          "type": "uint256"
        }
      ],
      "name": "accessGOLDTokens",
      "outputs": [],
      "stateMutability": "nonpayable",
      "type": "function"
    },
    {
      "inputs": [
        {
          "internalType": "uint256",
          "name": "_allocPoint",
          "type": "uint256"
        },
        {
          "internalType": "contract IERC20",
          "name": "_lpToken",
          "type": "address"
        },
        {
          "internalType": "bool",
          "name": "_withUpdate",
          "type": "bool"
        }
      ],
      "name": "add",
      "outputs": [],
      "stateMutability": "nonpayable",
      "type": "function"
    },
    {
      "inputs": [
        {
          "internalType": "address",
          "name": "_adminAddress",
          "type": "address"
        }
      ],
      "name": "admin",
      "outputs": [],
      "stateMutability": "nonpayable",
      "type": "function"
    },
    {
      "inputs": [],
      "name": "adminAddress",
      "outputs": [
        {
          "internalType": "address",
          "name": "",
          "type": "address"
        }
      ],
      "stateMutability": "view",
      "type": "function"
    },
    {
      "inputs": [
        {
          "internalType": "address",
          "name": "owner",
          "type": "address"
        },
        {
          "internalType": "address",
          "name": "spender",
          "type": "address"
        }
      ],
      "name": "allowance",
      "outputs": [
        {
          "internalType": "uint256",
          "name": "",
          "type": "uint256"
        }
      ],
      "stateMutability": "view",
      "type": "function"
    },
    {
      "inputs": [
        {
          "internalType": "address",
          "name": "spender",
          "type": "address"
        },
        {
          "internalType": "uint256",
          "name": "amount",
          "type": "uint256"
        }
      ],
      "name": "approve",
      "outputs": [
        {
          "internalType": "bool",
          "name": "",
          "type": "bool"
        }
      ],
      "stateMutability": "nonpayable",
      "type": "function"
    },
    {
      "inputs": [
        {
          "internalType": "address",
          "name": "account",
          "type": "address"
        }
      ],
      "name": "balanceOf",
      "outputs": [
        {
          "internalType": "uint256",
          "name": "",
          "type": "uint256"
        }
      ],
      "stateMutability": "view",
      "type": "function"
    },
    {
      "inputs": [
        {
          "internalType": "address",
          "name": "account",
          "type": "address"
        },
        {
          "internalType": "uint32",
          "name": "pos",
          "type": "uint32"
        }
      ],
      "name": "checkpoints",
      "outputs": [
        {
          "components": [
            {
              "internalType": "uint32",
              "name": "fromBlock",
              "type": "uint32"
            },
            {
              "internalType": "uint224",
              "name": "votes",
              "type": "uint224"
            }
          ],
          "internalType": "struct ERC20VotesUpgradeable.Checkpoint",
          "name": "",
          "type": "tuple"
        }
      ],
      "stateMutability": "view",
      "type": "function"
    },
    {
      "inputs": [
        {
          "internalType": "uint256",
          "name": "_pid",
          "type": "uint256"
        }
      ],
      "name": "claimGOLD",
      "outputs": [],
      "stateMutability": "nonpayable",
      "type": "function"
    },
    {
      "inputs": [],
      "name": "decimals",
      "outputs": [
        {
          "internalType": "uint8",
          "name": "",
          "type": "uint8"
        }
      ],
      "stateMutability": "view",
      "type": "function"
    },
    {
      "inputs": [
        {
          "internalType": "address",
          "name": "spender",
          "type": "address"
        },
        {
          "internalType": "uint256",
          "name": "subtractedValue",
          "type": "uint256"
        }
      ],
      "name": "decreaseAllowance",
      "outputs": [
        {
          "internalType": "bool",
          "name": "",
          "type": "bool"
        }
      ],
      "stateMutability": "nonpayable",
      "type": "function"
    },
    {
      "inputs": [
        {
          "internalType": "address",
          "name": "delegatee",
          "type": "address"
        }
      ],
      "name": "delegate",
      "outputs": [],
      "stateMutability": "nonpayable",
      "type": "function"
    },
    {
      "inputs": [
        {
          "internalType": "address",
          "name": "delegatee",
          "type": "address"
        },
        {
          "internalType": "uint256",
          "name": "nonce",
          "type": "uint256"
        },
        {
          "internalType": "uint256",
          "name": "expiry",
          "type": "uint256"
        },
        {
          "internalType": "uint8",
          "name": "v",
          "type": "uint8"
        },
        {
          "internalType": "bytes32",
          "name": "r",
          "type": "bytes32"
        },
        {
          "internalType": "bytes32",
          "name": "s",
          "type": "bytes32"
        }
      ],
      "name": "delegateBySig",
      "outputs": [],
      "stateMutability": "nonpayable",
      "type": "function"
    },
    {
      "inputs": [
        {
          "internalType": "address",
          "name": "account",
          "type": "address"
        }
      ],
      "name": "delegates",
      "outputs": [
        {
          "internalType": "address",
          "name": "",
          "type": "address"
        }
      ],
      "stateMutability": "view",
      "type": "function"
    },
    {
      "inputs": [
        {
          "internalType": "uint256",
          "name": "_pid",
          "type": "uint256"
        },
        {
          "internalType": "uint256",
          "name": "_amount",
          "type": "uint256"
        }
      ],
      "name": "deposit",
      "outputs": [],
      "stateMutability": "nonpayable",
      "type": "function"
    },
    {
      "inputs": [
        {
          "internalType": "uint256",
          "name": "_from",
          "type": "uint256"
        },
        {
          "internalType": "uint256",
          "name": "_to",
          "type": "uint256"
        }
      ],
      "name": "getMultiplier",
      "outputs": [
        {
          "internalType": "uint256",
          "name": "",
          "type": "uint256"
        }
      ],
      "stateMutability": "pure",
      "type": "function"
    },
    {
      "inputs": [
        {
          "internalType": "uint256",
          "name": "blockNumber",
          "type": "uint256"
        }
      ],
      "name": "getPastTotalSupply",
      "outputs": [
        {
          "internalType": "uint256",
          "name": "",
          "type": "uint256"
        }
      ],
      "stateMutability": "view",
      "type": "function"
    },
    {
      "inputs": [
        {
          "internalType": "address",
          "name": "account",
          "type": "address"
        },
        {
          "internalType": "uint256",
          "name": "blockNumber",
          "type": "uint256"
        }
      ],
      "name": "getPastVotes",
      "outputs": [
        {
          "internalType": "uint256",
          "name": "",
          "type": "uint256"
        }
      ],
      "stateMutability": "view",
      "type": "function"
    },
    {
      "inputs": [
        {
          "internalType": "address",
          "name": "account",
          "type": "address"
        }
      ],
      "name": "getVotes",
      "outputs": [
        {
          "internalType": "uint256",
          "name": "",
          "type": "uint256"
        }
      ],
      "stateMutability": "view",
      "type": "function"
    },
    {
      "inputs": [],
      "name": "gold",
      "outputs": [
        {
          "internalType": "contract IERC20",
          "name": "",
          "type": "address"
        }
      ],
      "stateMutability": "view",
      "type": "function"
    },
    {
      "inputs": [
        {
          "internalType": "uint256",
          "name": "",
          "type": "uint256"
        },
        {
          "internalType": "uint256",
          "name": "",
          "type": "uint256"
        }
      ],
      "name": "highestStakerInPool",
      "outputs": [
        {
          "internalType": "uint256",
          "name": "deposited",
          "type": "uint256"
        },
        {
          "internalType": "address",
          "name": "addr",
          "type": "address"
        }
      ],
      "stateMutability": "view",
      "type": "function"
    },
    {
      "inputs": [
        {
          "internalType": "address",
          "name": "spender",
          "type": "address"
        },
        {
          "internalType": "uint256",
          "name": "addedValue",
          "type": "uint256"
        }
      ],
      "name": "increaseAllowance",
      "outputs": [
        {
          "internalType": "bool",
          "name": "",
          "type": "bool"
        }
      ],
      "stateMutability": "nonpayable",
      "type": "function"
    },
    {
      "inputs": [
        {
          "internalType": "address",
          "name": "_GOLD",
          "type": "address"
        },
        {
          "internalType": "address",
          "name": "_adminAddress",
          "type": "address"
        },
        {
          "internalType": "uint256",
          "name": "_startBlock",
          "type": "uint256"
        },
        {
          "internalType": "uint256",
          "name": "_topStakerNumber",
          "type": "uint256"
        }
      ],
      "name": "initialize",
      "outputs": [],
      "stateMutability": "nonpayable",
      "type": "function"
    },
    {
      "inputs": [],
      "name": "massUpdatePools",
      "outputs": [],
      "stateMutability": "nonpayable",
      "type": "function"
    },
    {
      "inputs": [],
      "name": "name",
      "outputs": [
        {
          "internalType": "string",
          "name": "",
          "type": "string"
        }
      ],
      "stateMutability": "view",
      "type": "function"
    },
    {
      "inputs": [
        {
          "internalType": "address",
          "name": "owner",
          "type": "address"
        }
      ],
      "name": "nonces",
      "outputs": [
        {
          "internalType": "uint256",
          "name": "",
          "type": "uint256"
        }
      ],
      "stateMutability": "view",
      "type": "function"
    },
    {
      "inputs": [
        {
          "internalType": "address",
          "name": "account",
          "type": "address"
        }
      ],
      "name": "numCheckpoints",
      "outputs": [
        {
          "internalType": "uint32",
          "name": "",
          "type": "uint32"
        }
      ],
      "stateMutability": "view",
      "type": "function"
    },
    {
      "inputs": [],
      "name": "owner",
      "outputs": [
        {
          "internalType": "address",
          "name": "",
          "type": "address"
        }
      ],
      "stateMutability": "view",
      "type": "function"
    },
    {
      "inputs": [],
      "name": "paused",
      "outputs": [
        {
          "internalType": "bool",
          "name": "",
          "type": "bool"
        }
      ],
      "stateMutability": "view",
      "type": "function"
    },
    {
      "inputs": [
        {
          "internalType": "uint256",
          "name": "_pid",
          "type": "uint256"
        },
        {
          "internalType": "address",
          "name": "_user",
          "type": "address"
        }
      ],
      "name": "pendingGOLD",
      "outputs": [
        {
          "internalType": "uint256",
          "name": "",
          "type": "uint256"
        }
      ],
      "stateMutability": "view",
      "type": "function"
    },
    {
      "inputs": [
        {
          "internalType": "address",
          "name": "owner",
          "type": "address"
        },
        {
          "internalType": "address",
          "name": "spender",
          "type": "address"
        },
        {
          "internalType": "uint256",
          "name": "value",
          "type": "uint256"
        },
        {
          "internalType": "uint256",
          "name": "deadline",
          "type": "uint256"
        },
        {
          "internalType": "uint8",
          "name": "v",
          "type": "uint8"
        },
        {
          "internalType": "bytes32",
          "name": "r",
          "type": "bytes32"
        },
        {
          "internalType": "bytes32",
          "name": "s",
          "type": "bytes32"
        }
      ],
      "name": "permit",
      "outputs": [],
      "stateMutability": "nonpayable",
      "type": "function"
    },
    {
      "inputs": [
        {
          "internalType": "uint256",
          "name": "",
          "type": "uint256"
        }
      ],
      "name": "poolInfo",
      "outputs": [
        {
          "internalType": "contract IERC20",
          "name": "lpToken",
          "type": "address"
        },
        {
          "internalType": "uint256",
          "name": "allocPoint",
          "type": "uint256"
        },
        {
          "internalType": "uint256",
          "name": "lastRewardBlock",
          "type": "uint256"
        },
        {
          "internalType": "uint256",
          "name": "accGOLDPerShare",
          "type": "uint256"
        },
        {
          "internalType": "uint256",
          "name": "lastTotalGOLDReward",
          "type": "uint256"
        },
        {
          "internalType": "uint256",
          "name": "lastGOLDRewardBalance",
          "type": "uint256"
        },
        {
          "internalType": "uint256",
          "name": "totalGOLDReward",
          "type": "uint256"
        }
      ],
      "stateMutability": "view",
      "type": "function"
    },
    {
      "inputs": [],
      "name": "poolLength",
      "outputs": [
        {
          "internalType": "uint256",
          "name": "",
          "type": "uint256"
        }
      ],
      "stateMutability": "view",
      "type": "function"
    },
    {
      "inputs": [],
      "name": "renounceOwnership",
      "outputs": [],
      "stateMutability": "nonpayable",
      "type": "function"
    },
    {
      "inputs": [
        {
          "internalType": "uint256",
          "name": "_pid",
          "type": "uint256"
        },
        {
          "internalType": "uint256",
          "name": "_allocPoint",
          "type": "uint256"
        },
        {
          "internalType": "bool",
          "name": "_withUpdate",
          "type": "bool"
        }
      ],
      "name": "set",
      "outputs": [],
      "stateMutability": "nonpayable",
      "type": "function"
    },
    {
      "inputs": [],
      "name": "startBlock",
      "outputs": [
        {
          "internalType": "uint256",
          "name": "",
          "type": "uint256"
        }
      ],
      "stateMutability": "view",
      "type": "function"
    },
    {
      "inputs": [],
      "name": "symbol",
      "outputs": [
        {
          "internalType": "string",
          "name": "",
          "type": "string"
        }
      ],
      "stateMutability": "view",
      "type": "function"
    },
    {
      "inputs": [],
      "name": "topStakerNumber",
      "outputs": [
        {
          "internalType": "uint256",
          "name": "",
          "type": "uint256"
        }
      ],
      "stateMutability": "view",
      "type": "function"
    },
    {
      "inputs": [],
      "name": "totalAllocPoint",
      "outputs": [
        {
          "internalType": "uint256",
          "name": "",
          "type": "uint256"
        }
      ],
      "stateMutability": "view",
      "type": "function"
    },
    {
      "inputs": [],
      "name": "totalGOLDStaked",
      "outputs": [
        {
          "internalType": "uint256",
          "name": "",
          "type": "uint256"
        }
      ],
      "stateMutability": "view",
      "type": "function"
    },
    {
      "inputs": [],
      "name": "totalGOLDUsedForPurchase",
      "outputs": [
        {
          "internalType": "uint256",
          "name": "",
          "type": "uint256"
        }
      ],
      "stateMutability": "view",
      "type": "function"
    },
    {
      "inputs": [],
      "name": "totalSupply",
      "outputs": [
        {
          "internalType": "uint256",
          "name": "",
          "type": "uint256"
        }
      ],
      "stateMutability": "view",
      "type": "function"
    },
    {
      "inputs": [
        {
          "internalType": "address",
          "name": "recipient",
          "type": "address"
        },
        {
          "internalType": "uint256",
          "name": "amount",
          "type": "uint256"
        }
      ],
      "name": "transfer",
      "outputs": [
        {
          "internalType": "bool",
          "name": "",
          "type": "bool"
        }
      ],
      "stateMutability": "nonpayable",
      "type": "function"
    },
    {
      "inputs": [
        {
          "internalType": "address",
          "name": "sender",
          "type": "address"
        },
        {
          "internalType": "address",
          "name": "recipient",
          "type": "address"
        },
        {
          "internalType": "uint256",
          "name": "amount",
          "type": "uint256"
        }
      ],
      "name": "transferFrom",
      "outputs": [
        {
          "internalType": "bool",
          "name": "",
          "type": "bool"
        }
      ],
      "stateMutability": "nonpayable",
      "type": "function"
    },
    {
      "inputs": [
        {
          "internalType": "address",
          "name": "newOwner",
          "type": "address"
        }
      ],
      "name": "transferOwnership",
      "outputs": [],
      "stateMutability": "nonpayable",
      "type": "function"
    },
    {
      "inputs": [
        {
          "internalType": "uint256",
          "name": "_pid",
          "type": "uint256"
        }
      ],
      "name": "updatePool",
      "outputs": [],
      "stateMutability": "nonpayable",
      "type": "function"
    },
    {
      "inputs": [
        {
          "internalType": "address",
          "name": "newImplementation",
          "type": "address"
        }
      ],
      "name": "upgradeTo",
      "outputs": [],
      "stateMutability": "nonpayable",
      "type": "function"
    },
    {
      "inputs": [
        {
          "internalType": "address",
          "name": "newImplementation",
          "type": "address"
        },
        {
          "internalType": "bytes",
          "name": "data",
          "type": "bytes"
        }
      ],
      "name": "upgradeToAndCall",
      "outputs": [],
      "stateMutability": "payable",
      "type": "function"
    },
    {
      "inputs": [
        {
          "internalType": "uint256",
          "name": "",
          "type": "uint256"
        },
        {
          "internalType": "address",
          "name": "",
          "type": "address"
        }
      ],
      "name": "userInfo",
      "outputs": [
        {
          "internalType": "uint256",
          "name": "amount",
          "type": "uint256"
        },
        {
          "internalType": "uint256",
          "name": "rewardDebt",
          "type": "uint256"
        },
        {
          "internalType": "uint256",
          "name": "rewargoldDebt",
          "type": "uint256"
        },
        {
          "internalType": "uint256",
          "name": "stakeEnd",
          "type": "uint256"
        }
      ],
      "stateMutability": "view",
      "type": "function"
    },
    {
      "inputs": [
        {
          "internalType": "uint256",
          "name": "_pid",
          "type": "uint256"
        },
        {
          "internalType": "uint256",
          "name": "_amount",
          "type": "uint256"
        }
      ],
      "name": "withdraw",
      "outputs": [],
      "stateMutability": "nonpayable",
      "type": "function"
    }
  ],
  "bytecode": "0x60a06040523060601b60805234801561001757600080fd5b5060805160601c614c0561004b6000396000818161131d0152818161135d0152818161178f01526117cf0152614c056000f3fe60806040526004361061031a5760003560e01c806363a846f8116101ab5780639ab24eb0116100f7578063eb990c5911610095578063f8b535ac1161006f578063f8b535ac146109fe578063fbec6f2114610a15578063fc6f946814610a36578063ff793c2514610a575761031a565b8063eb990c5914610974578063f1127ed814610994578063f2fde38b146109de5761031a565b8063c3cda520116100d1578063c3cda520146108ce578063d505accf146108ee578063dd62ed3e1461090e578063e2bbb158146109545761031a565b80639ab24eb01461086e578063a457c2d71461088e578063a9059cbb146108ae5761031a565b80637ecebe00116101645780638dbb1e3a1161013e5780638dbb1e3a146107ab5780638e539e8c146107cb57806393f1a40b146107eb57806395d89b41146108595761031a565b80637ecebe00146107575780638aa28550146107775780638da5cb5b1461078c5761031a565b806363a846f81461068057806364482f79146106a05780636f10947c146106c05780636fcfff45146106d757806370a082311461070c578063715018a6146107425761031a565b80633659cfe61161026a5780634f1ef286116102235780635b3c25ce116101fd5780635b3c25ce146106125780635c19a95c146106325780635c975abb14610652578063630b5ba11461066b5761031a565b80634f1ef286146105bf57806351eb05a6146105d2578063587cde1e146105f25761031a565b80633659cfe6146104ef578063395093511461050f5780633a46b1a81461052f5780633e4bee381461054f578063441a3e701461058857806348cd4cb1146105a85761031a565b80631526fe27116102d75780631eaaa045116102b15780631eaaa0451461047e57806323b872dd1461049e578063313ce567146104be5780633644e515146104da5761031a565b80631526fe27146103f357806317caf6f11461045257806318160ddd146104695761031a565b8063017e58ca1461031f57806306fdde0314610349578063081e3eda1461036b578063095ea7b3146103815780630bc1a005146103b15780630d3c5df0146103d1575b600080fd5b34801561032b57600080fd5b506103366101cf5481565b6040519081526020015b60405180910390f35b34801561035557600080fd5b5061035e610a94565b604051610340919061490d565b34801561037757600080fd5b506101cb54610336565b34801561038d57600080fd5b506103a161039c366004614713565b610b26565b6040519015158152602001610340565b3480156103bd57600080fd5b506103366103cc366004614818565b610b3d565b3480156103dd57600080fd5b506103f16103ec36600461483c565b610ccf565b005b3480156103ff57600080fd5b5061041361040e3660046147e8565b611022565b604080516001600160a01b0390981688526020880196909652948601939093526060850191909152608084015260a083015260c082015260e001610340565b34801561045e57600080fd5b506103366101cd5481565b34801561047557600080fd5b50609954610336565b34801561048a57600080fd5b506103f1610499366004614862565b61107c565b3480156104aa57600080fd5b506103a16104b9366004614562565b611257565b3480156104ca57600080fd5b5060405160128152602001610340565b3480156104e657600080fd5b50610336611303565b3480156104fb57600080fd5b506103f161050a36600461450e565b611312565b34801561051b57600080fd5b506103a161052a366004614713565b6113db565b34801561053b57600080fd5b5061033661054a366004614713565b611417565b34801561055b57600080fd5b506101c854610570906001600160a01b031681565b6040516001600160a01b039091168152602001610340565b34801561059457600080fd5b506103f16105a33660046148a3565b61148b565b3480156105b457600080fd5b506103366101ce5481565b6103f16105cd366004614654565b611784565b3480156105de57600080fd5b506103f16105ed3660046147e8565b61183e565b3480156105fe57600080fd5b5061057061060d36600461450e565b611985565b34801561061e57600080fd5b506103f161062d3660046147e8565b6119a7565b34801561063e57600080fd5b506103f161064d36600461450e565b611afa565b34801561065e57600080fd5b506101945460ff166103a1565b34801561067757600080fd5b506103f1611b04565b34801561068c57600080fd5b506103f161069b36600461450e565b611b2c565b3480156106ac57600080fd5b506103f16106bb3660046148c4565b611c16565b3480156106cc57600080fd5b506103366101ca5481565b3480156106e357600080fd5b506106f76106f236600461450e565b611ce6565b60405163ffffffff9091168152602001610340565b34801561071857600080fd5b5061033661072736600461450e565b6001600160a01b031660009081526097602052604090205490565b34801561074e57600080fd5b506103f1611d09565b34801561076357600080fd5b5061033661077236600461450e565b611d40565b34801561078357600080fd5b50610336600181565b34801561079857600080fd5b50610162546001600160a01b0316610570565b3480156107b757600080fd5b506103366107c63660046148a3565b611d5e565b3480156107d757600080fd5b506103366107e63660046147e8565b611d8d565b3480156107f757600080fd5b50610839610806366004614818565b6101cc60209081526000928352604080842090915290825290208054600182015460028301546003909301549192909184565b604080519485526020850193909352918301526060820152608001610340565b34801561086557600080fd5b5061035e611dea565b34801561087a57600080fd5b5061033661088936600461450e565b611df9565b34801561089a57600080fd5b506103a16108a9366004614713565b611e90565b3480156108ba57600080fd5b506103a16108c9366004614713565b611f29565b3480156108da57600080fd5b506103f16108e936600461473e565b611f36565b3480156108fa57600080fd5b506103f16109093660046145e7565b61206c565b34801561091a57600080fd5b5061033661092936600461452a565b6001600160a01b03918216600090815260986020908152604080832093909416825291909152205490565b34801561096057600080fd5b506103f161096f3660046148a3565b6121b2565b34801561098057600080fd5b506103f161098f3660046145a2565b612416565b3480156109a057600080fd5b506109b46109af366004614797565b6125ee565b60408051825163ffffffff1681526020928301516001600160e01b03169281019290925201610340565b3480156109ea57600080fd5b506103f16109f936600461450e565b612681565b348015610a0a57600080fd5b506103366101d05481565b348015610a2157600080fd5b506101c654610570906001600160a01b031681565b348015610a4257600080fd5b506101c954610570906001600160a01b031681565b348015610a6357600080fd5b50610a77610a723660046148a3565b61271a565b604080519283526001600160a01b03909116602083015201610340565b6060609a8054610aa390614b09565b80601f0160208091040260200160405190810160405280929190818152602001828054610acf90614b09565b8015610b1c5780601f10610af157610100808354040283529160200191610b1c565b820191906000526020600020905b815481529060010190602001808311610aff57829003601f168201915b5050505050905090565b6000610b33338484612760565b5060015b92915050565b6000806101cb8481548110610b6257634e487b7160e01b600052603260045260246000fd5b600091825260208083208784526101cc825260408085206001600160a01b0389168652909252922060036007909202909201908101546101cf546002830154929450909143118015610bb357508015155b15610c9c576000610c57610bd66101d0546101cf5461288490919063ffffffff16565b86546040516370a0823160e01b81523060048201526001600160a01b03909116906370a08231906024015b60206040518083038186803b158015610c1957600080fd5b505afa158015610c2d573d6000803e3d6000fd5b505050506040513d601f19601f82011682018060405250810190610c519190614800565b90612884565b90506000610c7286600501548361288490919063ffffffff16565b9050610c97610c9084610c8a8464e8d4a51000612890565b9061289c565b85906128a8565b935050505b610cc48360020154610c5164e8d4a51000610c8a86886000015461289090919063ffffffff16565b979650505050505050565b6101c9546001600160a01b03163314610d2f5760405162461bcd60e51b815260206004820152601c60248201527f73656e646572206d7573742062652061646d696e20616464726573730000000060448201526064015b60405180910390fd5b80610d496101d0546101cf5461288490919063ffffffff16565b1015610dab5760405162461bcd60e51b815260206004820152602b60248201527f416d6f756e74206d757374206265206c657373207468616e207374616b65642060448201526a11d3d31108185b5bdd5b9d60aa1b6064820152608401610d26565b60006101cb8481548110610dcf57634e487b7160e01b600052603260045260246000fd5b6000918252602082206007919091020180546040516370a0823160e01b81523060048201529193506001600160a01b0316906370a082319060240160206040518083038186803b158015610e2257600080fd5b505afa158015610e36573d6000803e3d6000fd5b505050506040513d601f19601f82011682018060405250810190610e5a9190614800565b905080831115610f4157815460405163a9059cbb60e01b81526001600160a01b038681166004830152602482018490529091169063a9059cbb90604401602060405180830381600087803b158015610eb157600080fd5b505af1158015610ec5573d6000803e3d6000fd5b505050506040513d601f19601f82011682018060405250810190610ee991906147cc565b506101d054610ef890826128a8565b6101d05560405181815285906001600160a01b038616907fbb757047c2b5f3974fe26b7c10f732e7bce710b0952a71082702781e62ae05959060200160405180910390a361101b565b815460405163a9059cbb60e01b81526001600160a01b038681166004830152602482018690529091169063a9059cbb90604401602060405180830381600087803b158015610f8e57600080fd5b505af1158015610fa2573d6000803e3d6000fd5b505050506040513d601f19601f82011682018060405250810190610fc691906147cc565b506101d054610fd590846128a8565b6101d05560405183815285906001600160a01b038616907fbb757047c2b5f3974fe26b7c10f732e7bce710b0952a71082702781e62ae0595906020015b60405180910390a35b5050505050565b6101cb818154811061103357600080fd5b600091825260209091206007909102018054600182015460028301546003840154600485015460058601546006909601546001600160a01b039095169650929491939092919087565b610162546001600160a01b031633146110a75760405162461bcd60e51b8152600401610d26906149d8565b80156110b5576110b5611b04565b60006101ce5443116110ca576101ce546110cc565b435b6101cd549091506110dd90856128a8565b6101cd556040805160e0810182526001600160a01b039485168152602081019586529081019182526000606082018181526080830182815260a0840183815260c085018481526101cb8054600181018255955294517fe8bbfecd380c4167d6a1f763a233ec73e73f534b1970c4e1683f437ec23c1f44600790950294850180546001600160a01b031916919099161790975596517fe8bbfecd380c4167d6a1f763a233ec73e73f534b1970c4e1683f437ec23c1f4583015592517fe8bbfecd380c4167d6a1f763a233ec73e73f534b1970c4e1683f437ec23c1f4682015591517fe8bbfecd380c4167d6a1f763a233ec73e73f534b1970c4e1683f437ec23c1f4783015593517fe8bbfecd380c4167d6a1f763a233ec73e73f534b1970c4e1683f437ec23c1f4882015591517fe8bbfecd380c4167d6a1f763a233ec73e73f534b1970c4e1683f437ec23c1f498301555090517fe8bbfecd380c4167d6a1f763a233ec73e73f534b1970c4e1683f437ec23c1f4a90910155565b60006112648484846128b4565b6001600160a01b0384166000908152609860209081526040808320338452909152902054828110156112e95760405162461bcd60e51b815260206004820152602860248201527f45524332303a207472616e7366657220616d6f756e74206578636565647320616044820152676c6c6f77616e636560c01b6064820152608401610d26565b6112f68533858403612760565b60019150505b9392505050565b600061130d612a99565b905090565b306001600160a01b037f000000000000000000000000000000000000000000000000000000000000000016141561135b5760405162461bcd60e51b8152600401610d2690614940565b7f00000000000000000000000000000000000000000000000000000000000000006001600160a01b031661138d612b14565b6001600160a01b0316146113b35760405162461bcd60e51b8152600401610d269061498c565b6113bc81612b42565b604080516000808252602082019092526113d891839190612bba565b50565b3360008181526098602090815260408083206001600160a01b03871684529091528120549091610b33918590611412908690614a58565b612760565b60004382106114685760405162461bcd60e51b815260206004820152601f60248201527f4552433230566f7465733a20626c6f636b206e6f7420796574206d696e6564006044820152606401610d26565b6001600160a01b0383166000908152610131602052604090206112fc9083612cfe565b60006101cb83815481106114af57634e487b7160e01b600052603260045260246000fd5b600091825260208083208684526101cc82526040808520338652909252922080546007909202909201925083111561151e5760405162461bcd60e51b81526020600482015260126024820152711dda5d1a191c985dce881b9bdd0819dbdbd960721b6044820152606401610d26565b80600301544210156115675760405162461bcd60e51b81526020600482015260126024820152713bb4ba34323930bb9d103a37b79039b7b7b760711b6044820152606401610d26565b6115708461183e565b600061159e8260020154610c5164e8d4a51000610c8a8760030154876000015461289090919063ffffffff16565b835460405163a9059cbb60e01b8152336004820152602481018390529192506001600160a01b03169063a9059cbb90604401602060405180830381600087803b1580156115ea57600080fd5b505af11580156115fe573d6000803e3d6000fd5b505050506040513d601f19601f8201168201806040525081019061162291906147cc565b5061166e61163f6101d0546101cf5461288490919063ffffffff16565b84546040516370a0823160e01b81523060048201526001600160a01b03909116906370a0823190602401610c01565b6005840155815461167f9085612884565b82556101cf5461168f9085612884565b6101cf55600383015482546116ae9164e8d4a5100091610c8a91612890565b6002830155825460405163a9059cbb60e01b8152336004820152602481018690526001600160a01b039091169063a9059cbb90604401602060405180830381600087803b1580156116fe57600080fd5b505af1158015611712573d6000803e3d6000fd5b505050506040513d601f19601f8201168201806040525081019061173691906147cc565b5061174685836000015433612dd7565b6117503385612eb0565b604051848152859033907ff279e6a1f5e320cca91135676d9cb6e44ca8a08c0b88342bcdb1144f6511b56890602001611012565b306001600160a01b037f00000000000000000000000000000000000000000000000000000000000000001614156117cd5760405162461bcd60e51b8152600401610d2690614940565b7f00000000000000000000000000000000000000000000000000000000000000006001600160a01b03166117ff612b14565b6001600160a01b0316146118255760405162461bcd60e51b8152600401610d269061498c565b61182e82612b42565b61183a82826001612bba565b5050565b60006101cb828154811061186257634e487b7160e01b600052603260045260246000fd5b600091825260208083208584526101cc8252604080852033865290925292206002600790920290920190810154909250431161189f5750506113d8565b60006118bd61163f6101d0546101cf5461288490919063ffffffff16565b905060006118e66118db85600501548461288490919063ffffffff16565b6006860154906128a8565b60058501839055600685018190556101cf54909150806119345750504360028085019190915560006003850181905560048501819055920182905550600582018190556006909101556113d8565b600061194d86600401548461288490919063ffffffff16565b905061197061196583610c8a8464e8d4a51000612890565b6003880154906128a8565b60038701555050600490930192909255505050565b6001600160a01b0380821660009081526101306020526040902054165b919050565b60006101cb82815481106119cb57634e487b7160e01b600052603260045260246000fd5b600091825260208083208584526101cc825260408085203386529092529220600790910290910191506119fd8361183e565b6000611a2b8260020154610c5164e8d4a51000610c8a8760030154876000015461289090919063ffffffff16565b835460405163a9059cbb60e01b8152336004820152602481018390529192506001600160a01b03169063a9059cbb90604401602060405180830381600087803b158015611a7757600080fd5b505af1158015611a8b573d6000803e3d6000fd5b505050506040513d601f19601f82011682018060405250810190611aaf91906147cc565b50611acc61163f6101d0546101cf5461288490919063ffffffff16565b600584015560038301548254611aec9164e8d4a5100091610c8a91612890565b826002018190555050505050565b6113d83382612eba565b6101cb5460005b8181101561183a57611b1c8161183e565b611b2581614b3e565b9050611b0b565b6001600160a01b038116611b785760405162461bcd60e51b815260206004820152601360248201527261646d696e3a205a65726f206164647265737360681b6044820152606401610d26565b6101c9546001600160a01b03163314611bc15760405162461bcd60e51b815260206004820152600b60248201526a61646d696e3a207775743f60a81b6044820152606401610d26565b6101c980546001600160a01b0319166001600160a01b0383169081179091556040519081527f54e4612788f90384e6843298d7854436f3a585b2c3831ab66abf1de63bfa6c2d9060200160405180910390a150565b610162546001600160a01b03163314611c415760405162461bcd60e51b8152600401610d26906149d8565b8015611c4f57611c4f611b04565b611ca282611c9c6101cb8681548110611c7857634e487b7160e01b600052603260045260246000fd5b9060005260206000209060070201600101546101cd5461288490919063ffffffff16565b906128a8565b6101cd81905550816101cb8481548110611ccc57634e487b7160e01b600052603260045260246000fd5b906000526020600020906007020160010181905550505050565b6001600160a01b03811660009081526101316020526040812054610b3790612ec4565b610162546001600160a01b03163314611d345760405162461bcd60e51b8152600401610d26906149d8565b611d3e6000612f2d565b565b6001600160a01b038116600090815260fd6020526040812054610b37565b6000828210611d8357611d7c6001611d768486612884565b90612890565b9050610b37565b611d7c8383612884565b6000438210611dde5760405162461bcd60e51b815260206004820152601f60248201527f4552433230566f7465733a20626c6f636b206e6f7420796574206d696e6564006044820152606401610d26565b610b3761013283612cfe565b6060609b8054610aa390614b09565b6001600160a01b038116600090815261013160205260408120548015611e7d576001600160a01b038316600090815261013160205260409020611e3d600183614aaf565b81548110611e5b57634e487b7160e01b600052603260045260246000fd5b60009182526020909120015464010000000090046001600160e01b0316611e80565b60005b6001600160e01b03169392505050565b3360009081526098602090815260408083206001600160a01b038616845290915281205482811015611f125760405162461bcd60e51b815260206004820152602560248201527f45524332303a2064656372656173656420616c6c6f77616e63652062656c6f77604482015264207a65726f60d81b6064820152608401610d26565b611f1f3385858403612760565b5060019392505050565b6000610b333384846128b4565b83421115611f865760405162461bcd60e51b815260206004820152601d60248201527f4552433230566f7465733a207369676e617475726520657870697265640000006044820152606401610d26565b604080517fe48329057bfd03d55e49b547132e39cffd9c1820ad7b9d4c5307691425d15adf60208201526001600160a01b03881691810191909152606081018690526080810185905260009061200090611ff89060a00160405160208183030381529060405280519060200120612f80565b858585612fce565b905061200b81612ff6565b86146120595760405162461bcd60e51b815260206004820152601960248201527f4552433230566f7465733a20696e76616c6964206e6f6e6365000000000000006044820152606401610d26565b6120638188612eba565b50505050505050565b834211156120bc5760405162461bcd60e51b815260206004820152601d60248201527f45524332305065726d69743a206578706972656420646561646c696e650000006044820152606401610d26565b600060fe548888886120cd8c612ff6565b6040805160208101969096526001600160a01b0394851690860152929091166060840152608083015260a082015260c0810186905260e001604051602081830303815290604052805190602001209050600061212882612f80565b9050600061213882878787612fce565b9050896001600160a01b0316816001600160a01b03161461219b5760405162461bcd60e51b815260206004820152601e60248201527f45524332305065726d69743a20696e76616c6964207369676e617475726500006044820152606401610d26565b6121a68a8a8a612760565b50505050505050505050565b60006101cb83815481106121d657634e487b7160e01b600052603260045260246000fd5b600091825260208083208684526101cc825260408085203386529092529220600790910290910191506122088461183e565b8054156122e557600061223d8260020154610c5164e8d4a51000610c8a8760030154876000015461289090919063ffffffff16565b835460405163a9059cbb60e01b8152336004820152602481018390529192506001600160a01b03169063a9059cbb90604401602060405180830381600087803b15801561228957600080fd5b505af115801561229d573d6000803e3d6000fd5b505050506040513d601f19601f820116820180604052508101906122c191906147cc565b506122de61163f6101d0546101cf5461288490919063ffffffff16565b6005840155505b81546040516323b872dd60e01b8152336004820152306024820152604481018590526001600160a01b03909116906323b872dd90606401602060405180830381600087803b15801561233657600080fd5b505af115801561234a573d6000803e3d6000fd5b505050506040513d601f19601f8201168201806040525081019061236e91906147cc565b506101cf5461237d90846128a8565b6101cf55805461238d90846128a8565b80825560038301546123aa9164e8d4a5100091610c8a9190612890565b60028201556123bc4262093a80614a58565b600382015580546123cf9085903361301e565b6123d9338461322d565b604051838152849033907f90890809c654f11d6e72a28fa60149770a0d11ec6c92319d6ceb2bb0a4ea1a159060200160405180910390a350505050565b600054610100900460ff166124315760005460ff1615612435565b303b155b6124985760405162461bcd60e51b815260206004820152602e60248201527f496e697469616c697a61626c653a20636f6e747261637420697320616c72656160448201526d191e481a5b9a5d1a585b1a5e995960921b6064820152608401610d26565b600054610100900460ff161580156124c3576000805460ff1961ff0019909116610100171660011790555b6001600160a01b0384166125195760405162461bcd60e51b815260206004820152601860248201527f696e697469616c697a653a205a65726f206164647265737300000000000000006044820152606401610d26565b612521613237565b6125636040518060400160405280600481526020016319dbdb1960e21b8152506040518060400160405280600481526020016319dbdb1960e21b81525061326e565b61256b6132bc565b6125906040518060400160405280600481526020016319dbdb1960e21b8152506132f0565b61259861334b565b6101c880546001600160a01b038088166001600160a01b0319928316179092556101c98054928716929091169190911790556101ce8390556101ca829055801561101b576000805461ff00191690555050505050565b60408051808201909152600080825260208201526001600160a01b038316600090815261013160205260409020805463ffffffff841690811061264157634e487b7160e01b600052603260045260246000fd5b60009182526020918290206040805180820190915291015463ffffffff8116825264010000000090046001600160e01b0316918101919091529392505050565b610162546001600160a01b031633146126ac5760405162461bcd60e51b8152600401610d26906149d8565b6001600160a01b0381166127115760405162461bcd60e51b815260206004820152602660248201527f4f776e61626c653a206e6577206f776e657220697320746865207a65726f206160448201526564647265737360d01b6064820152608401610d26565b6113d881612f2d565b6101c7602052816000526040600020818154811061273757600080fd5b6000918252602090912060029091020180546001909101549092506001600160a01b0316905082565b6001600160a01b0383166127c25760405162461bcd60e51b8152602060048201526024808201527f45524332303a20617070726f76652066726f6d20746865207a65726f206164646044820152637265737360e01b6064820152608401610d26565b6001600160a01b0382166128235760405162461bcd60e51b815260206004820152602260248201527f45524332303a20617070726f766520746f20746865207a65726f206164647265604482015261737360f01b6064820152608401610d26565b6001600160a01b0383811660008181526098602090815260408083209487168084529482529182902085905590518481527f8c5be1e5ebec7d5bd14f71427d1e84f3dd0314c0f7b2291e5b200ac8c7c3b925910160405180910390a3505050565b60006112fc8284614aaf565b60006112fc8284614a90565b60006112fc8284614a70565b60006112fc8284614a58565b6001600160a01b0383166129185760405162461bcd60e51b815260206004820152602560248201527f45524332303a207472616e736665722066726f6d20746865207a65726f206164604482015264647265737360d81b6064820152608401610d26565b6001600160a01b03821661297a5760405162461bcd60e51b815260206004820152602360248201527f45524332303a207472616e7366657220746f20746865207a65726f206164647260448201526265737360e81b6064820152608401610d26565b612985838383613372565b6001600160a01b038316600090815260976020526040902054818110156129fd5760405162461bcd60e51b815260206004820152602660248201527f45524332303a207472616e7366657220616d6f756e7420657863656564732062604482015265616c616e636560d01b6064820152608401610d26565b6001600160a01b03808516600090815260976020526040808220858503905591851681529081208054849290612a34908490614a58565b92505081905550826001600160a01b0316846001600160a01b03167fddf252ad1be2c89b69c2b068fc378daa952ba7f163c4a11628f55a4df523b3ef84604051612a8091815260200190565b60405180910390a3612a938484846133da565b50505050565b600061130d7f8b73c3c69bb8fe3d512ecc4cf759cc79239f7b179b0ffacaa9a75d522b39400f612ac860c95490565b60ca546040805160208101859052908101839052606081018290524660808201523060a082015260009060c0016040516020818303038152906040528051906020012090509392505050565b7f360894a13ba1a3210667c828492db98dca3e2076cc3735a920a3ca505d382bbc546001600160a01b031690565b33612b56610162546001600160a01b031690565b6001600160a01b0316146113d85760405162461bcd60e51b815260206004820152602560248201527f4f6e6c79206f776e65722063616e207570677261646520696d706c656d656e7460448201526430ba34b7b760d91b6064820152608401610d26565b6000612bc4612b14565b9050612bcf846133e5565b600083511180612bdc5750815b15612bed57612beb848461348a565b505b7f4910fdfa16fed3260ed0e7147f7cc6da11a60208b5b9406d12a635614ffd9143805460ff1661101b57805460ff191660011781556040516001600160a01b0383166024820152612c6c90869060440160408051601f198184030181529190526020810180516001600160e01b0316631b2ce7f360e11b17905261348a565b50805460ff19168155612c7d612b14565b6001600160a01b0316826001600160a01b031614612cf55760405162461bcd60e51b815260206004820152602f60248201527f45524331393637557067726164653a207570677261646520627265616b73206660448201526e75727468657220757067726164657360881b6064820152608401610d26565b61101b85613575565b8154600090815b81811015612d70576000612d1982846135b5565b905084868281548110612d3c57634e487b7160e01b600052603260045260246000fd5b60009182526020909120015463ffffffff161115612d5c57809250612d6a565b612d67816001614a58565b91505b50612d05565b8115612dc25784612d82600184614aaf565b81548110612da057634e487b7160e01b600052603260045260246000fd5b60009182526020909120015464010000000090046001600160e01b0316612dc5565b60005b6001600160e01b031695945050505050565b60008381526101c760205260408120905b815481101561101b57826001600160a01b0316828281548110612e1b57634e487b7160e01b600052603260045260246000fd5b60009182526020909120600160029092020101546001600160a01b03161415612e9957818181548110612e5e57634e487b7160e01b600052603260045260246000fd5b60009182526020822060029091020190815560010180546001600160a01b03191690558315612e9257612e9285858561301e565b5050612eab565b80612ea381614b3e565b915050612de8565b505050565b61183a82826135d0565b61183a82826135e9565b600063ffffffff821115612f295760405162461bcd60e51b815260206004820152602660248201527f53616665436173743a2076616c756520646f65736e27742066697420696e203360448201526532206269747360d01b6064820152608401610d26565b5090565b61016280546001600160a01b038381166001600160a01b0319831681179093556040519116919082907f8be0079c531659141344cd1fd0a4f28419497f9722a3daafe3b4186f6b6457e090600090a35050565b6000610b37612f8d612a99565b8360405161190160f01b6020820152602281018390526042810182905260009060620160405160208183030381529060405280519060200120905092915050565b6000806000612fdf87878787613680565b91509150612fec8161376d565b5095945050505050565b6001600160a01b038116600090815260fd602052604090208054600181018255905b50919050565b60008381526101c7602052604081205b80548210156130e357826001600160a01b031681838154811061306157634e487b7160e01b600052603260045260246000fd5b60009182526020909120600160029092020101546001600160a01b031614156130d157838183815481106130a557634e487b7160e01b600052603260045260246000fd5b600091825260208220600290910201919091558154612e929187916130cc90600190614aaf565b613970565b816130db81614b3e565b92505061302e565b6101ca548154101561314d57604080518082019091528481526001600160a01b038481166020808401918252845460018082018755600087815292909220945160029091029094019384559051920180546001600160a01b03191692909116919091179055613216565b838160008154811061316f57634e487b7160e01b600052603260045260246000fd5b90600052602060002090600202016000015410156132165783816000815481106131a957634e487b7160e01b600052603260045260246000fd5b90600052602060002090600202016000018190555082816000815481106131e057634e487b7160e01b600052603260045260246000fd5b906000526020600020906002020160010160006101000a8154816001600160a01b0302191690836001600160a01b031602179055505b61101b856000600184805490506130cc9190614aaf565b61183a8282613d22565b600054610100900460ff1661325e5760405162461bcd60e51b8152600401610d2690614a0d565b61326661334b565b611d3e613dad565b600054610100900460ff166132955760405162461bcd60e51b8152600401610d2690614a0d565b81516132a890609a90602085019061446d565b508051612eab90609b90602084019061446d565b600054610100900460ff166132e35760405162461bcd60e51b8152600401610d2690614a0d565b610194805460ff19169055565b600054610100900460ff166133175760405162461bcd60e51b8152600401610d2690614a0d565b61331f61334b565b61334281604051806040016040528060018152602001603160f81b815250613ddd565b6113d881613e1e565b600054610100900460ff16611d3e5760405162461bcd60e51b8152600401610d2690614a0d565b6001600160a01b038316158061338f57506001600160a01b038216155b1561339957612eab565b60405162461bcd60e51b81526020600482015260166024820152752737b7103a3930b739b332b930b13632903a37b5b2b760511b6044820152606401610d26565b612eab838383613e6c565b803b6134495760405162461bcd60e51b815260206004820152602d60248201527f455243313936373a206e657720696d706c656d656e746174696f6e206973206e60448201526c1bdd08184818dbdb9d1c9858dd609a1b6064820152608401610d26565b7f360894a13ba1a3210667c828492db98dca3e2076cc3735a920a3ca505d382bbc80546001600160a01b0319166001600160a01b0392909216919091179055565b6060823b6134e95760405162461bcd60e51b815260206004820152602660248201527f416464726573733a2064656c65676174652063616c6c20746f206e6f6e2d636f6044820152651b9d1c9858dd60d21b6064820152608401610d26565b600080846001600160a01b03168460405161350491906148f1565b600060405180830381855af49150503d806000811461353f576040519150601f19603f3d011682016040523d82523d6000602084013e613544565b606091505b509150915061356c8282604051806060016040528060278152602001614ba960279139613e87565b95945050505050565b61357e816133e5565b6040516001600160a01b038216907fbc7cd75a20ee27fd9adebab32041f755214dbc6bffa90cc0225b39da2e5c2d3b90600090a250565b60006135c46002848418614a70565b6112fc90848416614a58565b6135da8282613ec0565b612a9361013261288483614021565b60006135f483611985565b90506000613617846001600160a01b031660009081526097602052604090205490565b6001600160a01b038581166000818152610130602052604080822080546001600160a01b031916898616908117909155905194955093928616927f3134e8a2e6d97e929a7e54011ea5485d7d196dd5f0ba4d4ef95803e8e3fc257f9190a4612a938284836141d2565b6000807f7fffffffffffffffffffffffffffffff5d576e7357a4501ddfe92f46681b20a08311156136b75750600090506003613764565b8460ff16601b141580156136cf57508460ff16601c14155b156136e05750600090506004613764565b6040805160008082526020820180845289905260ff881692820192909252606081018690526080810185905260019060a0016020604051602081039080840390855afa158015613734573d6000803e3d6000fd5b5050604051601f1901519150506001600160a01b03811661375d57600060019250925050613764565b9150600090505b94509492505050565b600081600481111561378f57634e487b7160e01b600052602160045260246000fd5b141561379a576113d8565b60018160048111156137bc57634e487b7160e01b600052602160045260246000fd5b141561380a5760405162461bcd60e51b815260206004820152601860248201527f45434453413a20696e76616c6964207369676e617475726500000000000000006044820152606401610d26565b600281600481111561382c57634e487b7160e01b600052602160045260246000fd5b141561387a5760405162461bcd60e51b815260206004820152601f60248201527f45434453413a20696e76616c6964207369676e6174757265206c656e677468006044820152606401610d26565b600381600481111561389c57634e487b7160e01b600052602160045260246000fd5b14156138f55760405162461bcd60e51b815260206004820152602260248201527f45434453413a20696e76616c6964207369676e6174757265202773272076616c604482015261756560f01b6064820152608401610d26565b600481600481111561391757634e487b7160e01b600052602160045260246000fd5b14156113d85760405162461bcd60e51b815260206004820152602260248201527f45434453413a20696e76616c6964207369676e6174757265202776272076616c604482015261756560f01b6064820152608401610d26565b60008381526101c76020526040902081831061398c5750612eab565b60026000828261399c8688614a58565b6139a69190614a70565b815481106139c457634e487b7160e01b600052603260045260246000fd5b6000918252602090912060029091020154905084845b80821015613ceb575b82858381548110613a0457634e487b7160e01b600052603260045260246000fd5b9060005260206000209060020201600001541015613a2c57613a2582614b3e565b91506139e3565b82858281548110613a4d57634e487b7160e01b600052603260045260246000fd5b9060005260206000209060020201600001541115613a7557613a6e81614af2565b9050613a2c565b848181548110613a9557634e487b7160e01b600052603260045260246000fd5b906000526020600020906002020160000154858381548110613ac757634e487b7160e01b600052603260045260246000fd5b9060005260206000209060020201600001541115613cda57848181548110613aff57634e487b7160e01b600052603260045260246000fd5b906000526020600020906002020160000154858381548110613b3157634e487b7160e01b600052603260045260246000fd5b906000526020600020906002020160000154868481548110613b6357634e487b7160e01b600052603260045260246000fd5b90600052602060002090600202016000016000888581548110613b9657634e487b7160e01b600052603260045260246000fd5b600091825260209091206002909102019290925591909155508454859082908110613bd157634e487b7160e01b600052603260045260246000fd5b906000526020600020906002020160010160009054906101000a90046001600160a01b0316858381548110613c1657634e487b7160e01b600052603260045260246000fd5b906000526020600020906002020160010160009054906101000a90046001600160a01b0316868481548110613c5b57634e487b7160e01b600052603260045260246000fd5b90600052602060002090600202016001016000888581548110613c8e57634e487b7160e01b600052603260045260246000fd5b6000918252602090912060016002909202010180546001600160a01b039485166001600160a01b031990911617905581549383166101009190910a908102920219909216179055613ce6565b613ce382614b3e565b91505b6139da565b86811115613d0357613d0388886130cc600185614aaf565b613d1888613d12836001614a58565b88613970565b5050505050505050565b613d2c8282614311565b6099546001600160e01b031015613d9e5760405162461bcd60e51b815260206004820152603060248201527f4552433230566f7465733a20746f74616c20737570706c79207269736b73206f60448201526f766572666c6f77696e6720766f74657360801b6064820152608401610d26565b612a936101326128a883614021565b600054610100900460ff16613dd45760405162461bcd60e51b8152600401610d2690614a0d565b611d3e33612f2d565b600054610100900460ff16613e045760405162461bcd60e51b8152600401610d2690614a0d565b81516020928301208151919092012060c99190915560ca55565b600054610100900460ff16613e455760405162461bcd60e51b8152600401610d2690614a0d565b507f6e71edae12b1b97f4d1f60370fef10105fa2faae0126114a169c64845d6126c960fe55565b612eab613e7884611985565b613e8184611985565b836141d2565b60608315613e965750816112fc565b825115613ea65782518084602001fd5b8160405162461bcd60e51b8152600401610d26919061490d565b6001600160a01b038216613f205760405162461bcd60e51b815260206004820152602160248201527f45524332303a206275726e2066726f6d20746865207a65726f206164647265736044820152607360f81b6064820152608401610d26565b613f2c82600083613372565b6001600160a01b03821660009081526097602052604090205481811015613fa05760405162461bcd60e51b815260206004820152602260248201527f45524332303a206275726e20616d6f756e7420657863656564732062616c616e604482015261636560f01b6064820152608401610d26565b6001600160a01b0383166000908152609760205260408120838303905560998054849290613fcf908490614aaf565b90915550506040518281526000906001600160a01b038516907fddf252ad1be2c89b69c2b068fc378daa952ba7f163c4a11628f55a4df523b3ef9060200160405180910390a3612eab836000846133da565b82546000908190801561407a578561403a600183614aaf565b8154811061405857634e487b7160e01b600052603260045260246000fd5b60009182526020909120015464010000000090046001600160e01b031661407d565b60005b6001600160e01b0316925061409683858763ffffffff16565b91506000811180156140e2575043866140b0600184614aaf565b815481106140ce57634e487b7160e01b600052603260045260246000fd5b60009182526020909120015463ffffffff16145b15614150576140f082614404565b866140fc600184614aaf565b8154811061411a57634e487b7160e01b600052603260045260246000fd5b9060005260206000200160000160046101000a8154816001600160e01b0302191690836001600160e01b031602179055506141c9565b85604051806040016040528061416543612ec4565b63ffffffff16815260200161417985614404565b6001600160e01b039081169091528254600181018455600093845260209384902083519101805493909401519091166401000000000263ffffffff91821663ffffffff1990931692909217161790555b50935093915050565b816001600160a01b0316836001600160a01b0316141580156141f45750600081115b15612eab576001600160a01b03831615614283576001600160a01b03831660009081526101316020526040812081906142309061288485614021565b91509150846001600160a01b03167fdec2bacdd2f05b59de34da9b523dff8be42e5e38e818c82fdb0bae774387a7248383604051614278929190918252602082015260400190565b60405180910390a250505b6001600160a01b03821615612eab576001600160a01b03821660009081526101316020526040812081906142ba906128a885614021565b91509150836001600160a01b03167fdec2bacdd2f05b59de34da9b523dff8be42e5e38e818c82fdb0bae774387a7248383604051614302929190918252602082015260400190565b60405180910390a25050505050565b6001600160a01b0382166143675760405162461bcd60e51b815260206004820152601f60248201527f45524332303a206d696e7420746f20746865207a65726f2061646472657373006044820152606401610d26565b61437360008383613372565b80609960008282546143859190614a58565b90915550506001600160a01b038216600090815260976020526040812080548392906143b2908490614a58565b90915550506040518181526001600160a01b038316906000907fddf252ad1be2c89b69c2b068fc378daa952ba7f163c4a11628f55a4df523b3ef9060200160405180910390a361183a600083836133da565b60006001600160e01b03821115612f295760405162461bcd60e51b815260206004820152602760248201527f53616665436173743a2076616c756520646f65736e27742066697420696e20326044820152663234206269747360c81b6064820152608401610d26565b82805461447990614b09565b90600052602060002090601f01602090048101928261449b57600085556144e1565b82601f106144b457805160ff19168380011785556144e1565b828001600101855582156144e1579182015b828111156144e15782518255916020019190600101906144c6565b50612f299291505b80821115612f2957600081556001016144e9565b803560ff811681146119a257600080fd5b60006020828403121561451f578081fd5b81356112fc81614b85565b6000806040838503121561453c578081fd5b823561454781614b85565b9150602083013561455781614b85565b809150509250929050565b600080600060608486031215614576578081fd5b833561458181614b85565b9250602084013561459181614b85565b929592945050506040919091013590565b600080600080608085870312156145b7578081fd5b84356145c281614b85565b935060208501356145d281614b85565b93969395505050506040820135916060013590565b600080600080600080600060e0888a031215614601578283fd5b873561460c81614b85565b9650602088013561461c81614b85565b95506040880135945060608801359350614638608089016144fd565b925060a0880135915060c0880135905092959891949750929550565b60008060408385031215614666578182fd5b823561467181614b85565b9150602083013567ffffffffffffffff8082111561468d578283fd5b818501915085601f8301126146a0578283fd5b8135818111156146b2576146b2614b6f565b604051601f8201601f19908116603f011681019083821181831017156146da576146da614b6f565b816040528281528860208487010111156146f2578586fd5b82602086016020830137856020848301015280955050505050509250929050565b60008060408385031215614725578182fd5b823561473081614b85565b946020939093013593505050565b60008060008060008060c08789031215614756578182fd5b863561476181614b85565b9550602087013594506040870135935061477d606088016144fd565b92506080870135915060a087013590509295509295509295565b600080604083850312156147a9578182fd5b82356147b481614b85565b9150602083013563ffffffff81168114614557578182fd5b6000602082840312156147dd578081fd5b81516112fc81614b9a565b6000602082840312156147f9578081fd5b5035919050565b600060208284031215614811578081fd5b5051919050565b6000806040838503121561482a578182fd5b82359150602083013561455781614b85565b600080600060608486031215614850578081fd5b83359250602084013561459181614b85565b600080600060608486031215614876578081fd5b83359250602084013561488881614b85565b9150604084013561489881614b9a565b809150509250925092565b600080604083850312156148b5578182fd5b50508035926020909101359150565b6000806000606084860312156148d8578081fd5b8335925060208401359150604084013561489881614b9a565b60008251614903818460208701614ac6565b9190910192915050565b600060208252825180602084015261492c816040850160208701614ac6565b601f01601f19169190910160400192915050565b6020808252602c908201527f46756e6374696f6e206d7573742062652063616c6c6564207468726f7567682060408201526b19195b1959d85d1958d85b1b60a21b606082015260800190565b6020808252602c908201527f46756e6374696f6e206d7573742062652063616c6c6564207468726f7567682060408201526b6163746976652070726f787960a01b606082015260800190565b6020808252818101527f4f776e61626c653a2063616c6c6572206973206e6f7420746865206f776e6572604082015260600190565b6020808252602b908201527f496e697469616c697a61626c653a20636f6e7472616374206973206e6f74206960408201526a6e697469616c697a696e6760a81b606082015260800190565b60008219821115614a6b57614a6b614b59565b500190565b600082614a8b57634e487b7160e01b81526012600452602481fd5b500490565b6000816000190483118215151615614aaa57614aaa614b59565b500290565b600082821015614ac157614ac1614b59565b500390565b60005b83811015614ae1578181015183820152602001614ac9565b83811115612a935750506000910152565b600081614b0157614b01614b59565b506000190190565b600281046001821680614b1d57607f821691505b6020821081141561301857634e487b7160e01b600052602260045260246000fd5b6000600019821415614b5257614b52614b59565b5060010190565b634e487b7160e01b600052601160045260246000fd5b634e487b7160e01b600052604160045260246000fd5b6001600160a01b03811681146113d857600080fd5b80151581146113d857600080fdfe416464726573733a206c6f772d6c6576656c2064656c65676174652063616c6c206661696c6564a2646970667358221220656cc5bb7ec509aba176d25679e1b06341b6a547be75ef9e6c13632da68d61d664736f6c63430008020033",
  "linkReferences": {},
  "deployedLinkReferences": {}
}