{
  "_format": "hh-sol-artifact-1",
  "contractName": "Maia",
  "sourceName": "contracts/Maia.sol",
  "abi": [
    {
      "anonymous": false,
      "inputs": [
        {
          "indexed": false,
          "internalType": "address",
          "name": "previousAdmin",
          "type": "address"
        },
        {
          "indexed": false,
          "internalType": "address",
          "name": "newAdmin",
          "type": "address"
        }
      ],
      "name": "AdminChanged",
      "type": "event"
    },
    {
      "anonymous": false,
      "inputs": [
        {
          "indexed": false,
          "internalType": "address",
          "name": "newAdmin",
          "type": "address"
        }
      ],
      "name": "AdminUpdated",
      "type": "event"
    },
    {
      "anonymous": false,
      "inputs": [
        {
          "indexed": true,
          "internalType": "address",
          "name": "owner",
          "type": "address"
        },
        {
          "indexed": true,
          "internalType": "address",
          "name": "spender",
          "type": "address"
        },
        {
          "indexed": false,
          "internalType": "uint256",
          "name": "value",
          "type": "uint256"
        }
      ],
      "name": "Approval",
      "type": "event"
    },
    {
      "anonymous": false,
      "inputs": [
        {
          "indexed": true,
          "internalType": "address",
          "name": "beacon",
          "type": "address"
        }
      ],
      "name": "BeaconUpgraded",
      "type": "event"
    },
    {
      "anonymous": false,
      "inputs": [
        {
          "indexed": true,
          "internalType": "address",
          "name": "delegator",
          "type": "address"
        },
        {
          "indexed": true,
          "internalType": "address",
          "name": "fromDelegate",
          "type": "address"
        },
        {
          "indexed": true,
          "internalType": "address",
          "name": "toDelegate",
          "type": "address"
        }
      ],
      "name": "DelegateChanged",
      "type": "event"
    },
    {
      "anonymous": false,
      "inputs": [
        {
          "indexed": true,
          "internalType": "address",
          "name": "delegate",
          "type": "address"
        },
        {
          "indexed": false,
          "internalType": "uint256",
          "name": "previousBalance",
          "type": "uint256"
        },
        {
          "indexed": false,
          "internalType": "uint256",
          "name": "newBalance",
          "type": "uint256"
        }
      ],
      "name": "DelegateVotesChanged",
      "type": "event"
    },
    {
      "anonymous": false,
      "inputs": [
        {
          "indexed": true,
          "internalType": "address",
          "name": "user",
          "type": "address"
        },
        {
          "indexed": true,
          "internalType": "uint256",
          "name": "pid",
          "type": "uint256"
        },
        {
          "indexed": false,
          "internalType": "uint256",
          "name": "amount",
          "type": "uint256"
        }
      ],
      "name": "Deposit",
      "type": "event"
    },
    {
      "anonymous": false,
      "inputs": [
        {
          "indexed": true,
          "internalType": "address",
          "name": "user",
          "type": "address"
        },
        {
          "indexed": true,
          "internalType": "uint256",
          "name": "pid",
          "type": "uint256"
        },
        {
          "indexed": false,
          "internalType": "uint256",
          "name": "amount",
          "type": "uint256"
        }
      ],
      "name": "EmergencyWithdraw",
      "type": "event"
    },
    {
      "anonymous": false,
      "inputs": [
        {
          "indexed": true,
          "internalType": "address",
          "name": "previousOwner",
          "type": "address"
        },
        {
          "indexed": true,
          "internalType": "address",
          "name": "newOwner",
          "type": "address"
        }
      ],
      "name": "OwnershipTransferred",
      "type": "event"
    },
    {
      "anonymous": false,
      "inputs": [
        {
          "indexed": false,
          "internalType": "address",
          "name": "account",
          "type": "address"
        }
      ],
      "name": "Paused",
      "type": "event"
    },
    {
      "anonymous": false,
      "inputs": [
        {
          "indexed": true,
          "internalType": "address",
          "name": "from",
          "type": "address"
        },
        {
          "indexed": true,
          "internalType": "address",
          "name": "to",
          "type": "address"
        },
        {
          "indexed": false,
          "internalType": "uint256",
          "name": "value",
          "type": "uint256"
        }
      ],
      "name": "Transfer",
      "type": "event"
    },
    {
      "anonymous": false,
      "inputs": [
        {
          "indexed": false,
          "internalType": "address",
          "name": "account",
          "type": "address"
        }
      ],
      "name": "Unpaused",
      "type": "event"
    },
    {
      "anonymous": false,
      "inputs": [
        {
          "indexed": true,
          "internalType": "address",
          "name": "implementation",
          "type": "address"
        }
      ],
      "name": "Upgraded",
      "type": "event"
    },
    {
      "anonymous": false,
      "inputs": [
        {
          "indexed": true,
          "internalType": "address",
          "name": "user",
          "type": "address"
        },
        {
          "indexed": true,
          "internalType": "uint256",
          "name": "pid",
          "type": "uint256"
        },
        {
          "indexed": false,
          "internalType": "uint256",
          "name": "amount",
          "type": "uint256"
        }
      ],
      "name": "Withdraw",
      "type": "event"
    },
    {
      "inputs": [],
      "name": "BONUS_MULTIPLIER",
      "outputs": [
        {
          "internalType": "uint256",
          "name": "",
          "type": "uint256"
        }
      ],
      "stateMutability": "view",
      "type": "function"
    },
    {
      "inputs": [],
      "name": "DOMAIN_SEPARATOR",
      "outputs": [
        {
          "internalType": "bytes32",
          "name": "",
          "type": "bytes32"
        }
      ],
      "stateMutability": "view",
      "type": "function"
    },
    {
      "inputs": [],
      "name": "GOLD",
      "outputs": [
        {
          "internalType": "contract IERC20",
          "name": "",
          "type": "address"
        }
      ],
      "stateMutability": "view",
      "type": "function"
    },
    {
      "inputs": [
        {
          "internalType": "uint256",
          "name": "_pid",
          "type": "uint256"
        },
        {
          "internalType": "address",
          "name": "_to",
          "type": "address"
        },
        {
          "internalType": "uint256",
          "name": "_amount",
          "type": "uint256"
        }
      ],
      "name": "accessGOLDTokens",
      "outputs": [],
      "stateMutability": "nonpayable",
      "type": "function"
    },
    {
      "inputs": [
        {
          "internalType": "uint256",
          "name": "_allocPoint",
          "type": "uint256"
        },
        {
          "internalType": "contract IERC20",
          "name": "_lpToken",
          "type": "address"
        },
        {
          "internalType": "bool",
          "name": "_withUpdate",
          "type": "bool"
        }
      ],
      "name": "add",
      "outputs": [],
      "stateMutability": "nonpayable",
      "type": "function"
    },
    {
      "inputs": [
        {
          "internalType": "address",
          "name": "_adminAddress",
          "type": "address"
        }
      ],
      "name": "admin",
      "outputs": [],
      "stateMutability": "nonpayable",
      "type": "function"
    },
    {
      "inputs": [],
      "name": "adminAddress",
      "outputs": [
        {
          "internalType": "address",
          "name": "",
          "type": "address"
        }
      ],
      "stateMutability": "view",
      "type": "function"
    },
    {
      "inputs": [
        {
          "internalType": "address",
          "name": "owner",
          "type": "address"
        },
        {
          "internalType": "address",
          "name": "spender",
          "type": "address"
        }
      ],
      "name": "allowance",
      "outputs": [
        {
          "internalType": "uint256",
          "name": "",
          "type": "uint256"
        }
      ],
      "stateMutability": "view",
      "type": "function"
    },
    {
      "inputs": [
        {
          "internalType": "address",
          "name": "spender",
          "type": "address"
        },
        {
          "internalType": "uint256",
          "name": "amount",
          "type": "uint256"
        }
      ],
      "name": "approve",
      "outputs": [
        {
          "internalType": "bool",
          "name": "",
          "type": "bool"
        }
      ],
      "stateMutability": "nonpayable",
      "type": "function"
    },
    {
      "inputs": [
        {
          "internalType": "address",
          "name": "account",
          "type": "address"
        }
      ],
      "name": "balanceOf",
      "outputs": [
        {
          "internalType": "uint256",
          "name": "",
          "type": "uint256"
        }
      ],
      "stateMutability": "view",
      "type": "function"
    },
    {
      "inputs": [
        {
          "internalType": "address",
          "name": "account",
          "type": "address"
        },
        {
          "internalType": "uint32",
          "name": "pos",
          "type": "uint32"
        }
      ],
      "name": "checkpoints",
      "outputs": [
        {
          "components": [
            {
              "internalType": "uint32",
              "name": "fromBlock",
              "type": "uint32"
            },
            {
              "internalType": "uint224",
              "name": "votes",
              "type": "uint224"
            }
          ],
          "internalType": "struct ERC20VotesUpgradeable.Checkpoint",
          "name": "",
          "type": "tuple"
        }
      ],
      "stateMutability": "view",
      "type": "function"
    },
    {
      "inputs": [
        {
          "internalType": "uint256",
          "name": "_pid",
          "type": "uint256"
        }
      ],
      "name": "claimGOLD",
      "outputs": [],
      "stateMutability": "nonpayable",
      "type": "function"
    },
    {
      "inputs": [],
      "name": "decimals",
      "outputs": [
        {
          "internalType": "uint8",
          "name": "",
          "type": "uint8"
        }
      ],
      "stateMutability": "view",
      "type": "function"
    },
    {
      "inputs": [
        {
          "internalType": "address",
          "name": "spender",
          "type": "address"
        },
        {
          "internalType": "uint256",
          "name": "subtractedValue",
          "type": "uint256"
        }
      ],
      "name": "decreaseAllowance",
      "outputs": [
        {
          "internalType": "bool",
          "name": "",
          "type": "bool"
        }
      ],
      "stateMutability": "nonpayable",
      "type": "function"
    },
    {
      "inputs": [
        {
          "internalType": "address",
          "name": "delegatee",
          "type": "address"
        }
      ],
      "name": "delegate",
      "outputs": [],
      "stateMutability": "nonpayable",
      "type": "function"
    },
    {
      "inputs": [
        {
          "internalType": "address",
          "name": "delegatee",
          "type": "address"
        },
        {
          "internalType": "uint256",
          "name": "nonce",
          "type": "uint256"
        },
        {
          "internalType": "uint256",
          "name": "expiry",
          "type": "uint256"
        },
        {
          "internalType": "uint8",
          "name": "v",
          "type": "uint8"
        },
        {
          "internalType": "bytes32",
          "name": "r",
          "type": "bytes32"
        },
        {
          "internalType": "bytes32",
          "name": "s",
          "type": "bytes32"
        }
      ],
      "name": "delegateBySig",
      "outputs": [],
      "stateMutability": "nonpayable",
      "type": "function"
    },
    {
      "inputs": [
        {
          "internalType": "address",
          "name": "account",
          "type": "address"
        }
      ],
      "name": "delegates",
      "outputs": [
        {
          "internalType": "address",
          "name": "",
          "type": "address"
        }
      ],
      "stateMutability": "view",
      "type": "function"
    },
    {
      "inputs": [
        {
          "internalType": "uint256",
          "name": "_pid",
          "type": "uint256"
        },
        {
          "internalType": "uint256",
          "name": "_amount",
          "type": "uint256"
        }
      ],
      "name": "deposit",
      "outputs": [],
      "stateMutability": "nonpayable",
      "type": "function"
    },
    {
      "inputs": [
        {
          "internalType": "uint256",
          "name": "_from",
          "type": "uint256"
        },
        {
          "internalType": "uint256",
          "name": "_to",
          "type": "uint256"
        }
      ],
      "name": "getMultiplier",
      "outputs": [
        {
          "internalType": "uint256",
          "name": "",
          "type": "uint256"
        }
      ],
      "stateMutability": "pure",
      "type": "function"
    },
    {
      "inputs": [
        {
          "internalType": "uint256",
          "name": "blockNumber",
          "type": "uint256"
        }
      ],
      "name": "getPastTotalSupply",
      "outputs": [
        {
          "internalType": "uint256",
          "name": "",
          "type": "uint256"
        }
      ],
      "stateMutability": "view",
      "type": "function"
    },
    {
      "inputs": [
        {
          "internalType": "address",
          "name": "account",
          "type": "address"
        },
        {
          "internalType": "uint256",
          "name": "blockNumber",
          "type": "uint256"
        }
      ],
      "name": "getPastVotes",
      "outputs": [
        {
          "internalType": "uint256",
          "name": "",
          "type": "uint256"
        }
      ],
      "stateMutability": "view",
      "type": "function"
    },
    {
      "inputs": [
        {
          "internalType": "uint256",
          "name": "_pid",
          "type": "uint256"
        }
      ],
      "name": "getPool",
      "outputs": [
        {
          "components": [
            {
              "internalType": "contract IERC20",
              "name": "lpToken",
              "type": "address"
            },
            {
              "internalType": "uint256",
              "name": "allocPoint",
              "type": "uint256"
            },
            {
              "internalType": "uint256",
              "name": "lastRewardBlock",
              "type": "uint256"
            },
            {
              "internalType": "uint256",
              "name": "accGOLDPerShare",
              "type": "uint256"
            },
            {
              "internalType": "uint256",
              "name": "lastTotalGOLDReward",
              "type": "uint256"
            },
            {
              "internalType": "uint256",
              "name": "lastGOLDRewardBalance",
              "type": "uint256"
            },
            {
              "internalType": "uint256",
              "name": "totalGOLDReward",
              "type": "uint256"
            }
          ],
          "internalType": "struct Maia.PoolInfo",
          "name": "",
          "type": "tuple"
        }
      ],
      "stateMutability": "view",
      "type": "function"
    },
    {
      "inputs": [
        {
          "internalType": "uint256",
          "name": "_pid",
          "type": "uint256"
        },
        {
          "internalType": "address",
          "name": "_user",
          "type": "address"
        }
      ],
      "name": "getUser",
      "outputs": [
        {
          "components": [
            {
              "internalType": "uint256",
              "name": "amount",
              "type": "uint256"
            },
            {
              "internalType": "uint256",
              "name": "rewardDebt",
              "type": "uint256"
            },
            {
              "internalType": "uint256",
              "name": "rewargoldDebt",
              "type": "uint256"
            },
            {
              "internalType": "uint256",
              "name": "stakeEnd",
              "type": "uint256"
            }
          ],
          "internalType": "struct Maia.UserInfo",
          "name": "",
          "type": "tuple"
        }
      ],
      "stateMutability": "view",
      "type": "function"
    },
    {
      "inputs": [
        {
          "internalType": "address",
          "name": "account",
          "type": "address"
        }
      ],
      "name": "getVotes",
      "outputs": [
        {
          "internalType": "uint256",
          "name": "",
          "type": "uint256"
        }
      ],
      "stateMutability": "view",
      "type": "function"
    },
    {
      "inputs": [],
      "name": "gold",
      "outputs": [
        {
          "internalType": "contract IERC20",
          "name": "",
          "type": "address"
        }
      ],
      "stateMutability": "view",
      "type": "function"
    },
    {
      "inputs": [
        {
          "internalType": "address",
          "name": "spender",
          "type": "address"
        },
        {
          "internalType": "uint256",
          "name": "addedValue",
          "type": "uint256"
        }
      ],
      "name": "increaseAllowance",
      "outputs": [
        {
          "internalType": "bool",
          "name": "",
          "type": "bool"
        }
      ],
      "stateMutability": "nonpayable",
      "type": "function"
    },
    {
      "inputs": [
        {
          "internalType": "address",
          "name": "_GOLD",
          "type": "address"
        },
        {
          "internalType": "address",
          "name": "_adminAddress",
          "type": "address"
        },
        {
          "internalType": "uint256",
          "name": "_startBlock",
          "type": "uint256"
        },
        {
          "internalType": "uint256",
          "name": "_topStakerNumber",
          "type": "uint256"
        }
      ],
      "name": "initialize",
      "outputs": [],
      "stateMutability": "nonpayable",
      "type": "function"
    },
    {
      "inputs": [],
      "name": "massUpdatePools",
      "outputs": [],
      "stateMutability": "nonpayable",
      "type": "function"
    },
    {
      "inputs": [],
      "name": "name",
      "outputs": [
        {
          "internalType": "string",
          "name": "",
          "type": "string"
        }
      ],
      "stateMutability": "view",
      "type": "function"
    },
    {
      "inputs": [
        {
          "internalType": "address",
          "name": "owner",
          "type": "address"
        }
      ],
      "name": "nonces",
      "outputs": [
        {
          "internalType": "uint256",
          "name": "",
          "type": "uint256"
        }
      ],
      "stateMutability": "view",
      "type": "function"
    },
    {
      "inputs": [
        {
          "internalType": "address",
          "name": "account",
          "type": "address"
        }
      ],
      "name": "numCheckpoints",
      "outputs": [
        {
          "internalType": "uint32",
          "name": "",
          "type": "uint32"
        }
      ],
      "stateMutability": "view",
      "type": "function"
    },
    {
      "inputs": [],
      "name": "owner",
      "outputs": [
        {
          "internalType": "address",
          "name": "",
          "type": "address"
        }
      ],
      "stateMutability": "view",
      "type": "function"
    },
    {
      "inputs": [],
      "name": "paused",
      "outputs": [
        {
          "internalType": "bool",
          "name": "",
          "type": "bool"
        }
      ],
      "stateMutability": "view",
      "type": "function"
    },
    {
      "inputs": [
        {
          "internalType": "uint256",
          "name": "_pid",
          "type": "uint256"
        },
        {
          "internalType": "address",
          "name": "_user",
          "type": "address"
        }
      ],
      "name": "pendingGOLD",
      "outputs": [
        {
          "internalType": "uint256",
          "name": "",
          "type": "uint256"
        }
      ],
      "stateMutability": "view",
      "type": "function"
    },
    {
      "inputs": [
        {
          "internalType": "address",
          "name": "owner",
          "type": "address"
        },
        {
          "internalType": "address",
          "name": "spender",
          "type": "address"
        },
        {
          "internalType": "uint256",
          "name": "value",
          "type": "uint256"
        },
        {
          "internalType": "uint256",
          "name": "deadline",
          "type": "uint256"
        },
        {
          "internalType": "uint8",
          "name": "v",
          "type": "uint8"
        },
        {
          "internalType": "bytes32",
          "name": "r",
          "type": "bytes32"
        },
        {
          "internalType": "bytes32",
          "name": "s",
          "type": "bytes32"
        }
      ],
      "name": "permit",
      "outputs": [],
      "stateMutability": "nonpayable",
      "type": "function"
    },
    {
      "inputs": [
        {
          "internalType": "uint256",
          "name": "",
          "type": "uint256"
        }
      ],
      "name": "poolInfo",
      "outputs": [
        {
          "internalType": "contract IERC20",
          "name": "lpToken",
          "type": "address"
        },
        {
          "internalType": "uint256",
          "name": "allocPoint",
          "type": "uint256"
        },
        {
          "internalType": "uint256",
          "name": "lastRewardBlock",
          "type": "uint256"
        },
        {
          "internalType": "uint256",
          "name": "accGOLDPerShare",
          "type": "uint256"
        },
        {
          "internalType": "uint256",
          "name": "lastTotalGOLDReward",
          "type": "uint256"
        },
        {
          "internalType": "uint256",
          "name": "lastGOLDRewardBalance",
          "type": "uint256"
        },
        {
          "internalType": "uint256",
          "name": "totalGOLDReward",
          "type": "uint256"
        }
      ],
      "stateMutability": "view",
      "type": "function"
    },
    {
      "inputs": [],
      "name": "poolLength",
      "outputs": [
        {
          "internalType": "uint256",
          "name": "",
          "type": "uint256"
        }
      ],
      "stateMutability": "view",
      "type": "function"
    },
    {
      "inputs": [],
      "name": "renounceOwnership",
      "outputs": [],
      "stateMutability": "nonpayable",
      "type": "function"
    },
    {
      "inputs": [
        {
          "internalType": "uint256",
          "name": "_pid",
          "type": "uint256"
        },
        {
          "internalType": "uint256",
          "name": "_allocPoint",
          "type": "uint256"
        },
        {
          "internalType": "bool",
          "name": "_withUpdate",
          "type": "bool"
        }
      ],
      "name": "set",
      "outputs": [],
      "stateMutability": "nonpayable",
      "type": "function"
    },
    {
      "inputs": [],
      "name": "startBlock",
      "outputs": [
        {
          "internalType": "uint256",
          "name": "",
          "type": "uint256"
        }
      ],
      "stateMutability": "view",
      "type": "function"
    },
    {
      "inputs": [],
      "name": "symbol",
      "outputs": [
        {
          "internalType": "string",
          "name": "",
          "type": "string"
        }
      ],
      "stateMutability": "view",
      "type": "function"
    },
    {
      "inputs": [],
      "name": "topStakerNumber",
      "outputs": [
        {
          "internalType": "uint256",
          "name": "",
          "type": "uint256"
        }
      ],
      "stateMutability": "view",
      "type": "function"
    },
    {
      "inputs": [],
      "name": "totalAllocPoint",
      "outputs": [
        {
          "internalType": "uint256",
          "name": "",
          "type": "uint256"
        }
      ],
      "stateMutability": "view",
      "type": "function"
    },
    {
      "inputs": [],
      "name": "totalGOLDStaked",
      "outputs": [
        {
          "internalType": "uint256",
          "name": "",
          "type": "uint256"
        }
      ],
      "stateMutability": "view",
      "type": "function"
    },
    {
      "inputs": [],
      "name": "totalGOLDUsedForPurchase",
      "outputs": [
        {
          "internalType": "uint256",
          "name": "",
          "type": "uint256"
        }
      ],
      "stateMutability": "view",
      "type": "function"
    },
    {
      "inputs": [],
      "name": "totalSupply",
      "outputs": [
        {
          "internalType": "uint256",
          "name": "",
          "type": "uint256"
        }
      ],
      "stateMutability": "view",
      "type": "function"
    },
    {
      "inputs": [
        {
          "internalType": "address",
          "name": "recipient",
          "type": "address"
        },
        {
          "internalType": "uint256",
          "name": "amount",
          "type": "uint256"
        }
      ],
      "name": "transfer",
      "outputs": [
        {
          "internalType": "bool",
          "name": "",
          "type": "bool"
        }
      ],
      "stateMutability": "nonpayable",
      "type": "function"
    },
    {
      "inputs": [
        {
          "internalType": "address",
          "name": "sender",
          "type": "address"
        },
        {
          "internalType": "address",
          "name": "recipient",
          "type": "address"
        },
        {
          "internalType": "uint256",
          "name": "amount",
          "type": "uint256"
        }
      ],
      "name": "transferFrom",
      "outputs": [
        {
          "internalType": "bool",
          "name": "",
          "type": "bool"
        }
      ],
      "stateMutability": "nonpayable",
      "type": "function"
    },
    {
      "inputs": [
        {
          "internalType": "address",
          "name": "newOwner",
          "type": "address"
        }
      ],
      "name": "transferOwnership",
      "outputs": [],
      "stateMutability": "nonpayable",
      "type": "function"
    },
    {
      "inputs": [
        {
          "internalType": "uint256",
          "name": "_pid",
          "type": "uint256"
        }
      ],
      "name": "updatePool",
      "outputs": [],
      "stateMutability": "nonpayable",
      "type": "function"
    },
    {
      "inputs": [
        {
          "internalType": "uint256",
          "name": "_pid",
          "type": "uint256"
        }
      ],
      "name": "updatePoolHelper",
      "outputs": [
        {
          "internalType": "uint256",
          "name": "",
          "type": "uint256"
        }
      ],
      "stateMutability": "view",
      "type": "function"
    },
    {
      "inputs": [
        {
          "internalType": "address",
          "name": "newImplementation",
          "type": "address"
        }
      ],
      "name": "upgradeTo",
      "outputs": [],
      "stateMutability": "nonpayable",
      "type": "function"
    },
    {
      "inputs": [
        {
          "internalType": "address",
          "name": "newImplementation",
          "type": "address"
        },
        {
          "internalType": "bytes",
          "name": "data",
          "type": "bytes"
        }
      ],
      "name": "upgradeToAndCall",
      "outputs": [],
      "stateMutability": "payable",
      "type": "function"
    },
    {
      "inputs": [
        {
          "internalType": "uint256",
          "name": "",
          "type": "uint256"
        },
        {
          "internalType": "address",
          "name": "",
          "type": "address"
        }
      ],
      "name": "userInfo",
      "outputs": [
        {
          "internalType": "uint256",
          "name": "amount",
          "type": "uint256"
        },
        {
          "internalType": "uint256",
          "name": "rewardDebt",
          "type": "uint256"
        },
        {
          "internalType": "uint256",
          "name": "rewargoldDebt",
          "type": "uint256"
        },
        {
          "internalType": "uint256",
          "name": "stakeEnd",
          "type": "uint256"
        }
      ],
      "stateMutability": "view",
      "type": "function"
    },
    {
      "inputs": [
        {
          "internalType": "uint256",
          "name": "_pid",
          "type": "uint256"
        },
        {
          "internalType": "uint256",
          "name": "_amount",
          "type": "uint256"
        }
      ],
      "name": "withdraw",
      "outputs": [],
      "stateMutability": "nonpayable",
      "type": "function"
    }
  ],
  "bytecode": "0x60a06040523060601b60805234801561001757600080fd5b5060805160601c61489061004b6000396000818161158b015281816115cb01528181611a2a0152611a6a01526148906000f3fe6080604052600436106103505760003560e01c8063630b5ba1116101c65780639ab24eb0116100f7578063e2bbb15811610095578063f2fde38b1161006f578063f2fde38b14610b1b578063f8b535ac14610b3b578063fbec6f2114610b52578063fc6f946814610b7357610350565b8063e2bbb15814610a91578063eb990c5914610ab1578063f1127ed814610ad157610350565b8063a9059cbb116100d1578063a9059cbb146109eb578063c3cda52014610a0b578063d505accf14610a2b578063dd62ed3e14610a4b57610350565b80639ab24eb01461098b578063a457c2d7146109ab578063a87492c8146109cb57610350565b80637ecebe00116101645780638dbb1e3a1161013e5780638dbb1e3a146108c85780638e539e8c146108e857806393f1a40b1461090857806395d89b411461097657610350565b80637ecebe00146108745780638aa28550146108945780638da5cb5b146108a957610350565b80636f10947c116101a05780636f10947c146107dd5780636fcfff45146107f457806370a0823114610829578063715018a61461085f57610350565b8063630b5ba11461078857806363a846f81461079d57806364482f79146107bd57610350565b8063313ce567116102a057806348cd4cb11161023e578063587cde1e11610218578063587cde1e146106f55780635b3c25ce1461072f5780635c19a95c1461074f5780635c975abb1461076f57610350565b806348cd4cb1146106ab5780634f1ef286146106c257806351eb05a6146106d557610350565b8063395093511161027a57806339509351146106125780633a46b1a8146106325780633e4bee3814610652578063441a3e701461068b57610350565b8063313ce567146105c15780633644e515146105dd5780633659cfe6146105f257610350565b80630d3c5df01161030d57806318160ddd116102e757806318160ddd146105195780631eaaa0451461052e57806323b872dd1461054e578063257664a41461056e57610350565b80630d3c5df0146104815780631526fe27146104a357806317caf6f11461050257610350565b8063017e58ca14610355578063068bcd8d1461037f57806306fdde03146103f9578063081e3eda1461041b578063095ea7b3146104315780630bc1a00514610461575b600080fd5b34801561036157600080fd5b5061036c6101ce5481565b6040519081526020015b60405180910390f35b34801561038b57600080fd5b5061039f61039a36600461448a565b610b94565b604051610376919081516001600160a01b031681526020808301519082015260408083015190820152606080830151908201526080808301519082015260a0828101519082015260c0918201519181019190915260e00190565b34801561040557600080fd5b5061040e610c6f565b60405161037691906145af565b34801561042757600080fd5b506101ca5461036c565b34801561043d57600080fd5b5061045161044c3660046143b5565b610d01565b6040519015158152602001610376565b34801561046d57600080fd5b5061036c61047c3660046144ba565b610d18565b34801561048d57600080fd5b506104a161049c3660046144de565b610eba565b005b3480156104af57600080fd5b506104c36104be36600461448a565b61120d565b604080516001600160a01b0390981688526020880196909652948601939093526060850191909152608084015260a083015260c082015260e001610376565b34801561050e57600080fd5b5061036c6101cc5481565b34801561052557600080fd5b5060995461036c565b34801561053a57600080fd5b506104a1610549366004614504565b611267565b34801561055a57600080fd5b50610451610569366004614204565b611442565b34801561057a57600080fd5b5061058e6105893660046144ba565b6114ee565b60405161037691908151815260208083015190820152604080830151908201526060918201519181019190915260800190565b3480156105cd57600080fd5b5060405160128152602001610376565b3480156105e957600080fd5b5061036c611571565b3480156105fe57600080fd5b506104a161060d3660046141b0565b611580565b34801561061e57600080fd5b5061045161062d3660046143b5565b611649565b34801561063e57600080fd5b5061036c61064d3660046143b5565b611685565b34801561065e57600080fd5b506101c754610673906001600160a01b031681565b6040516001600160a01b039091168152602001610376565b34801561069757600080fd5b506104a16106a6366004614545565b6116f9565b3480156106b757600080fd5b5061036c6101cd5481565b6104a16106d03660046142f6565b611a1f565b3480156106e157600080fd5b506104a16106f036600461448a565b611ad9565b34801561070157600080fd5b506106736107103660046141b0565b6001600160a01b03908116600090815261013060205260409020541690565b34801561073b57600080fd5b506104a161074a36600461448a565b611c59565b34801561075b57600080fd5b506104a161076a3660046141b0565b611dbe565b34801561077b57600080fd5b506101945460ff16610451565b34801561079457600080fd5b506104a1611dc8565b3480156107a957600080fd5b506104a16107b83660046141b0565b611df0565b3480156107c957600080fd5b506104a16107d8366004614566565b611eda565b3480156107e957600080fd5b5061036c6101c95481565b34801561080057600080fd5b5061081461080f3660046141b0565b611faa565b60405163ffffffff9091168152602001610376565b34801561083557600080fd5b5061036c6108443660046141b0565b6001600160a01b031660009081526097602052604090205490565b34801561086b57600080fd5b506104a1611fcd565b34801561088057600080fd5b5061036c61088f3660046141b0565b612004565b3480156108a057600080fd5b5061036c600181565b3480156108b557600080fd5b50610162546001600160a01b0316610673565b3480156108d457600080fd5b5061036c6108e3366004614545565b612022565b3480156108f457600080fd5b5061036c61090336600461448a565b61204b565b34801561091457600080fd5b506109566109233660046144ba565b6101cb60209081526000928352604080842090915290825290208054600182015460028301546003909301549192909184565b604080519485526020850193909352918301526060820152608001610376565b34801561098257600080fd5b5061040e6120a8565b34801561099757600080fd5b5061036c6109a63660046141b0565b6120b7565b3480156109b757600080fd5b506104516109c63660046143b5565b61214e565b3480156109d757600080fd5b5061036c6109e636600461448a565b6121e7565b3480156109f757600080fd5b50610451610a063660046143b5565b6122a3565b348015610a1757600080fd5b506104a1610a263660046143e0565b6122b0565b348015610a3757600080fd5b506104a1610a46366004614289565b6123e6565b348015610a5757600080fd5b5061036c610a663660046141cc565b6001600160a01b03918216600090815260986020908152604080832093909416825291909152205490565b348015610a9d57600080fd5b506104a1610aac366004614545565b61252c565b348015610abd57600080fd5b506104a1610acc366004614244565b6127a0565b348015610add57600080fd5b50610af1610aec366004614439565b612978565b60408051825163ffffffff1681526020928301516001600160e01b03169281019290925201610376565b348015610b2757600080fd5b506104a1610b363660046141b0565b612a0b565b348015610b4757600080fd5b5061036c6101cf5481565b348015610b5e57600080fd5b506101c654610673906001600160a01b031681565b348015610b7f57600080fd5b506101c854610673906001600160a01b031681565b610bdd6040518060e0016040528060006001600160a01b031681526020016000815260200160008152602001600081526020016000815260200160008152602001600081525090565b6101ca8281548110610bff57634e487b7160e01b600052603260045260246000fd5b60009182526020918290206040805160e081018252600790930290910180546001600160a01b031683526001810154938301939093526002830154908201526003820154606082015260048201546080820152600582015460a082015260069091015460c082015290505b919050565b6060609a8054610c7e90614794565b80601f0160208091040260200160405190810160405280929190818152602001828054610caa90614794565b8015610cf75780601f10610ccc57610100808354040283529160200191610cf7565b820191906000526020600020905b815481529060010190602001808311610cda57829003601f168201915b5050505050905090565b6000610d0e338484612aa4565b5060015b92915050565b6000806101ca8481548110610d3d57634e487b7160e01b600052603260045260246000fd5b600091825260208083208784526101cb825260408085206001600160a01b0389168652909252922060036007909202909201908101546101ce546002830154929450909143118015610d8e57508015155b15610e87576000610e486064610e42605a610e3c610dbb6101cf546101ce54612bc890919063ffffffff16565b8a546040516370a0823160e01b81523060048201526001600160a01b03909116906370a08231906024015b60206040518083038186803b158015610dfe57600080fd5b505afa158015610e12573d6000803e3d6000fd5b505050506040513d601f19601f82011682018060405250810190610e3691906144a2565b90612bc8565b90612bd4565b90612be0565b90506000610e63866005015483612bc890919063ffffffff16565b9050610e82610e7b84610e428464e8d4a51000612bd4565b8590612bec565b935050505b610eaf8360020154610e3664e8d4a51000610e42868860000154612bd490919063ffffffff16565b979650505050505050565b6101c8546001600160a01b03163314610f1a5760405162461bcd60e51b815260206004820152601c60248201527f73656e646572206d7573742062652061646d696e20616464726573730000000060448201526064015b60405180910390fd5b80610f346101cf546101ce54612bc890919063ffffffff16565b1015610f965760405162461bcd60e51b815260206004820152602b60248201527f416d6f756e74206d757374206265206c657373207468616e207374616b65642060448201526a11d3d31108185b5bdd5b9d60aa1b6064820152608401610f11565b60006101ca8481548110610fba57634e487b7160e01b600052603260045260246000fd5b6000918252602082206007919091020180546040516370a0823160e01b81523060048201529193506001600160a01b0316906370a082319060240160206040518083038186803b15801561100d57600080fd5b505afa158015611021573d6000803e3d6000fd5b505050506040513d601f19601f8201168201806040525081019061104591906144a2565b90508083111561112c57815460405163a9059cbb60e01b81526001600160a01b038681166004830152602482018490529091169063a9059cbb90604401602060405180830381600087803b15801561109c57600080fd5b505af11580156110b0573d6000803e3d6000fd5b505050506040513d601f19601f820116820180604052508101906110d4919061446e565b506101cf546110e39082612bec565b6101cf5560405181815285906001600160a01b038616907fbb757047c2b5f3974fe26b7c10f732e7bce710b0952a71082702781e62ae05959060200160405180910390a3611206565b815460405163a9059cbb60e01b81526001600160a01b038681166004830152602482018690529091169063a9059cbb90604401602060405180830381600087803b15801561117957600080fd5b505af115801561118d573d6000803e3d6000fd5b505050506040513d601f19601f820116820180604052508101906111b1919061446e565b506101cf546111c09084612bec565b6101cf5560405183815285906001600160a01b038616907fbb757047c2b5f3974fe26b7c10f732e7bce710b0952a71082702781e62ae0595906020015b60405180910390a35b5050505050565b6101ca818154811061121e57600080fd5b600091825260209091206007909102018054600182015460028301546003840154600485015460058601546006909601546001600160a01b039095169650929491939092919087565b610162546001600160a01b031633146112925760405162461bcd60e51b8152600401610f119061467a565b80156112a0576112a0611dc8565b60006101cd5443116112b5576101cd546112b7565b435b6101cc549091506112c89085612bec565b6101cc556040805160e0810182526001600160a01b039485168152602081019586529081019182526000606082018181526080830182815260a0840183815260c085018481526101ca8054600181018255955294517f0faeda9012b7f59bd2a84ac2a33ead5fc9f720c38d8bbf90db1ac3c1518386eb600790950294850180546001600160a01b031916919099161790975596517f0faeda9012b7f59bd2a84ac2a33ead5fc9f720c38d8bbf90db1ac3c1518386ec83015592517f0faeda9012b7f59bd2a84ac2a33ead5fc9f720c38d8bbf90db1ac3c1518386ed82015591517f0faeda9012b7f59bd2a84ac2a33ead5fc9f720c38d8bbf90db1ac3c1518386ee83015593517f0faeda9012b7f59bd2a84ac2a33ead5fc9f720c38d8bbf90db1ac3c1518386ef82015591517f0faeda9012b7f59bd2a84ac2a33ead5fc9f720c38d8bbf90db1ac3c1518386f08301555090517f0faeda9012b7f59bd2a84ac2a33ead5fc9f720c38d8bbf90db1ac3c1518386f190910155565b600061144f848484612bf8565b6001600160a01b0384166000908152609860209081526040808320338452909152902054828110156114d45760405162461bcd60e51b815260206004820152602860248201527f45524332303a207472616e7366657220616d6f756e74206578636565647320616044820152676c6c6f77616e636560c01b6064820152608401610f11565b6114e18533858403612aa4565b60019150505b9392505050565b6115196040518060800160405280600081526020016000815260200160008152602001600081525090565b5060009182526101cb602090815260408084206001600160a01b039390931684529181529181902081516080810183528154815260018201549381019390935260028101549183019190915260030154606082015290565b600061157b612ddd565b905090565b306001600160a01b037f00000000000000000000000000000000000000000000000000000000000000001614156115c95760405162461bcd60e51b8152600401610f11906145e2565b7f00000000000000000000000000000000000000000000000000000000000000006001600160a01b03166115fb612e58565b6001600160a01b0316146116215760405162461bcd60e51b8152600401610f119061462e565b61162a81612e86565b6040805160008082526020820190925261164691839190612efe565b50565b3360008181526098602090815260408083206001600160a01b03871684529091528120549091610d0e9185906116809086906146fa565b612aa4565b60004382106116d65760405162461bcd60e51b815260206004820152601f60248201527f4552433230566f7465733a20626c6f636b206e6f7420796574206d696e6564006044820152606401610f11565b6001600160a01b0383166000908152610131602052604090206114e79083613042565b60006101ca838154811061171d57634e487b7160e01b600052603260045260246000fd5b600091825260208083208684526101cb825260408085203386529092529083206007909202019250906117566064610e42866004612bd4565b6117609085614751565b905080826000015410156117ab5760405162461bcd60e51b81526020600482015260126024820152711dda5d1a191c985dce881b9bdd0819dbdbd960721b6044820152606401610f11565b81600301544210156117f45760405162461bcd60e51b81526020600482015260126024820152713bb4ba34323930bb9d103a37b79039b7b7b760711b6044820152606401610f11565b6117fd85611ad9565b600061182b8360020154610e3664e8d4a51000610e4288600301548860000154612bd490919063ffffffff16565b905080156118b857835460405163a9059cbb60e01b8152336004820152602481018390526001600160a01b039091169063a9059cbb90604401602060405180830381600087803b15801561187e57600080fd5b505af1158015611892573d6000803e3d6000fd5b505050506040513d601f19601f820116820180604052508101906118b6919061446e565b505b61190d6064610e42605a610e3c6118de6101cf546101ce54612bc890919063ffffffff16565b89546040516370a0823160e01b81523060048201526001600160a01b03909116906370a0823190602401610de6565b6005850155825461191e9083612bc8565b83556101ce5461192e9083612bc8565b6101ce556003840154835461194d9164e8d4a5100091610e4291612bd4565b6002840155835460405163a9059cbb60e01b8152336004820152602481018490526001600160a01b039091169063a9059cbb90604401602060405180830381600087803b15801561199d57600080fd5b505af11580156119b1573d6000803e3d6000fd5b505050506040513d601f19601f820116820180604052508101906119d5919061446e565b506119e0338361311b565b604051828152869033907ff279e6a1f5e320cca91135676d9cb6e44ca8a08c0b88342bcdb1144f6511b5689060200160405180910390a3505050505050565b306001600160a01b037f0000000000000000000000000000000000000000000000000000000000000000161415611a685760405162461bcd60e51b8152600401610f11906145e2565b7f00000000000000000000000000000000000000000000000000000000000000006001600160a01b0316611a9a612e58565b6001600160a01b031614611ac05760405162461bcd60e51b8152600401610f119061462e565b611ac982612e86565b611ad582826001612efe565b5050565b60006101ca8281548110611afd57634e487b7160e01b600052603260045260246000fd5b600091825260208083208584526101cb82526040808520338652909252922060026007909202909201908101549092504311611b3a575050611646565b6000611b916064610e42605a610e3c611b626101cf546101ce54612bc890919063ffffffff16565b88546040516370a0823160e01b81523060048201526001600160a01b03909116906370a0823190602401610de6565b90506000611bba611baf856005015484612bc890919063ffffffff16565b600686015490612bec565b60058501839055600685018190556101ce5490915080611c08575050436002808501919091556000600385018190556004850181905592018290555060058201819055600690910155611646565b6000611c21866004015484612bc890919063ffffffff16565b9050611c44611c3983610e428464e8d4a51000612bd4565b600388015490612bec565b60038701555050600490930192909255505050565b60006101ca8281548110611c7d57634e487b7160e01b600052603260045260246000fd5b600091825260208083208584526101cb82526040808520338652909252922060079091029091019150611caf83611ad9565b6000611cdd8260020154610e3664e8d4a51000610e4287600301548760000154612bd490919063ffffffff16565b90508015611d6a57825460405163a9059cbb60e01b8152336004820152602481018390526001600160a01b039091169063a9059cbb90604401602060405180830381600087803b158015611d3057600080fd5b505af1158015611d44573d6000803e3d6000fd5b505050506040513d601f19601f82011682018060405250810190611d68919061446e565b505b611d906064610e42605a610e3c611b626101cf546101ce54612bc890919063ffffffff16565b600584015560038301548254611db09164e8d4a5100091610e4291612bd4565b826002018190555050505050565b6116463382613125565b6101ca5460005b81811015611ad557611de081611ad9565b611de9816147c9565b9050611dcf565b6001600160a01b038116611e3c5760405162461bcd60e51b815260206004820152601360248201527261646d696e3a205a65726f206164647265737360681b6044820152606401610f11565b6101c8546001600160a01b03163314611e855760405162461bcd60e51b815260206004820152600b60248201526a61646d696e3a207775743f60a81b6044820152606401610f11565b6101c880546001600160a01b0319166001600160a01b0383169081179091556040519081527f54e4612788f90384e6843298d7854436f3a585b2c3831ab66abf1de63bfa6c2d9060200160405180910390a150565b610162546001600160a01b03163314611f055760405162461bcd60e51b8152600401610f119061467a565b8015611f1357611f13611dc8565b611f6682611f606101ca8681548110611f3c57634e487b7160e01b600052603260045260246000fd5b9060005260206000209060070201600101546101cc54612bc890919063ffffffff16565b90612bec565b6101cc81905550816101ca8481548110611f9057634e487b7160e01b600052603260045260246000fd5b906000526020600020906007020160010181905550505050565b6001600160a01b03811660009081526101316020526040812054610d129061312f565b610162546001600160a01b03163314611ff85760405162461bcd60e51b8152600401610f119061467a565b6120026000613198565b565b6001600160a01b038116600090815260fd6020526040812054610d12565b60008282106120415761203a6001610e3c8486612bc8565b9050610d12565b61203a8383612bc8565b600043821061209c5760405162461bcd60e51b815260206004820152601f60248201527f4552433230566f7465733a20626c6f636b206e6f7420796574206d696e6564006044820152606401610f11565b610d1261013283613042565b6060609b8054610c7e90614794565b6001600160a01b03811660009081526101316020526040812054801561213b576001600160a01b0383166000908152610131602052604090206120fb600183614751565b8154811061211957634e487b7160e01b600052603260045260246000fd5b60009182526020909120015464010000000090046001600160e01b031661213e565b60005b6001600160e01b03169392505050565b3360009081526098602090815260408083206001600160a01b0386168452909152812054828110156121d05760405162461bcd60e51b815260206004820152602560248201527f45524332303a2064656372656173656420616c6c6f77616e63652062656c6f77604482015264207a65726f60d81b6064820152608401610f11565b6121dd3385858403612aa4565b5060019392505050565b6000806101ca838154811061220c57634e487b7160e01b600052603260045260246000fd5b600091825260208083208684526101cb8252604080852033865290925292206002600790920290920190810154909250431161224d57600092505050610c6a565b600061229a61226b6101cf546101ce54612bc890919063ffffffff16565b84546040516370a0823160e01b81523060048201526001600160a01b03909116906370a0823190602401610de6565b95945050505050565b6000610d0e338484612bf8565b834211156123005760405162461bcd60e51b815260206004820152601d60248201527f4552433230566f7465733a207369676e617475726520657870697265640000006044820152606401610f11565b604080517fe48329057bfd03d55e49b547132e39cffd9c1820ad7b9d4c5307691425d15adf60208201526001600160a01b03881691810191909152606081018690526080810185905260009061237a906123729060a001604051602081830303815290604052805190602001206131eb565b858585613239565b905061238581613261565b86146123d35760405162461bcd60e51b815260206004820152601960248201527f4552433230566f7465733a20696e76616c6964206e6f6e6365000000000000006044820152606401610f11565b6123dd8188613125565b50505050505050565b834211156124365760405162461bcd60e51b815260206004820152601d60248201527f45524332305065726d69743a206578706972656420646561646c696e650000006044820152606401610f11565b600060fe548888886124478c613261565b6040805160208101969096526001600160a01b0394851690860152929091166060840152608083015260a082015260c0810186905260e00160405160208183030381529060405280519060200120905060006124a2826131eb565b905060006124b282878787613239565b9050896001600160a01b0316816001600160a01b0316146125155760405162461bcd60e51b815260206004820152601e60248201527f45524332305065726d69743a20696e76616c6964207369676e617475726500006044820152606401610f11565b6125208a8a8a612aa4565b50505050505050505050565b60006101ca838154811061255057634e487b7160e01b600052603260045260246000fd5b600091825260208083208684526101cb8252604080852033865290925292206007909102909101915061258284611ad9565b8054156126695760006125b78260020154610e3664e8d4a51000610e4287600301548760000154612bd490919063ffffffff16565b835460405163a9059cbb60e01b8152336004820152602481018390529192506001600160a01b03169063a9059cbb90604401602060405180830381600087803b15801561260357600080fd5b505af1158015612617573d6000803e3d6000fd5b505050506040513d601f19601f8201168201806040525081019061263b919061446e565b506126626064610e42605a610e3c611b626101cf546101ce54612bc890919063ffffffff16565b6005840155505b600061268561267e6064610e42876004612bd4565b8590612bc8565b83546040516323b872dd60e01b8152336004820152306024820152604481018790529192506001600160a01b0316906323b872dd90606401602060405180830381600087803b1580156126d757600080fd5b505af11580156126eb573d6000803e3d6000fd5b505050506040513d601f19601f8201168201806040525081019061270f919061446e565b506101ce5461271e9082612bec565b6101ce55815461272e9082612bec565b808355600384015461274b9164e8d4a5100091610e429190612bd4565b600283015561275d4262093a806146fa565b600383015561276c3382613289565b604051818152859033907f90890809c654f11d6e72a28fa60149770a0d11ec6c92319d6ceb2bb0a4ea1a15906020016111fd565b600054610100900460ff166127bb5760005460ff16156127bf565b303b155b6128225760405162461bcd60e51b815260206004820152602e60248201527f496e697469616c697a61626c653a20636f6e747261637420697320616c72656160448201526d191e481a5b9a5d1a585b1a5e995960921b6064820152608401610f11565b600054610100900460ff1615801561284d576000805460ff1961ff0019909116610100171660011790555b6001600160a01b0384166128a35760405162461bcd60e51b815260206004820152601860248201527f696e697469616c697a653a205a65726f206164647265737300000000000000006044820152606401610f11565b6128ab613293565b6128ed6040518060400160405280600481526020016319dbdb1960e21b8152506040518060400160405280600481526020016319dbdb1960e21b8152506132ca565b6128f561331d565b61291a6040518060400160405280600481526020016319dbdb1960e21b815250613351565b6129226133ac565b6101c780546001600160a01b038088166001600160a01b0319928316179092556101c88054928716929091169190911790556101cd8390556101c98290558015611206576000805461ff00191690555050505050565b60408051808201909152600080825260208201526001600160a01b038316600090815261013160205260409020805463ffffffff84169081106129cb57634e487b7160e01b600052603260045260246000fd5b60009182526020918290206040805180820190915291015463ffffffff8116825264010000000090046001600160e01b0316918101919091529392505050565b610162546001600160a01b03163314612a365760405162461bcd60e51b8152600401610f119061467a565b6001600160a01b038116612a9b5760405162461bcd60e51b815260206004820152602660248201527f4f776e61626c653a206e6577206f776e657220697320746865207a65726f206160448201526564647265737360d01b6064820152608401610f11565b61164681613198565b6001600160a01b038316612b065760405162461bcd60e51b8152602060048201526024808201527f45524332303a20617070726f76652066726f6d20746865207a65726f206164646044820152637265737360e01b6064820152608401610f11565b6001600160a01b038216612b675760405162461bcd60e51b815260206004820152602260248201527f45524332303a20617070726f766520746f20746865207a65726f206164647265604482015261737360f01b6064820152608401610f11565b6001600160a01b0383811660008181526098602090815260408083209487168084529482529182902085905590518481527f8c5be1e5ebec7d5bd14f71427d1e84f3dd0314c0f7b2291e5b200ac8c7c3b925910160405180910390a3505050565b60006114e78284614751565b60006114e78284614732565b60006114e78284614712565b60006114e782846146fa565b6001600160a01b038316612c5c5760405162461bcd60e51b815260206004820152602560248201527f45524332303a207472616e736665722066726f6d20746865207a65726f206164604482015264647265737360d81b6064820152608401610f11565b6001600160a01b038216612cbe5760405162461bcd60e51b815260206004820152602360248201527f45524332303a207472616e7366657220746f20746865207a65726f206164647260448201526265737360e81b6064820152608401610f11565b612cc98383836133d3565b6001600160a01b03831660009081526097602052604090205481811015612d415760405162461bcd60e51b815260206004820152602660248201527f45524332303a207472616e7366657220616d6f756e7420657863656564732062604482015265616c616e636560d01b6064820152608401610f11565b6001600160a01b03808516600090815260976020526040808220858503905591851681529081208054849290612d789084906146fa565b92505081905550826001600160a01b0316846001600160a01b03167fddf252ad1be2c89b69c2b068fc378daa952ba7f163c4a11628f55a4df523b3ef84604051612dc491815260200190565b60405180910390a3612dd784848461343b565b50505050565b600061157b7f8b73c3c69bb8fe3d512ecc4cf759cc79239f7b179b0ffacaa9a75d522b39400f612e0c60c95490565b60ca546040805160208101859052908101839052606081018290524660808201523060a082015260009060c0016040516020818303038152906040528051906020012090509392505050565b7f360894a13ba1a3210667c828492db98dca3e2076cc3735a920a3ca505d382bbc546001600160a01b031690565b33612e9a610162546001600160a01b031690565b6001600160a01b0316146116465760405162461bcd60e51b815260206004820152602560248201527f4f6e6c79206f776e65722063616e207570677261646520696d706c656d656e7460448201526430ba34b7b760d91b6064820152608401610f11565b6000612f08612e58565b9050612f1384613446565b600083511180612f205750815b15612f3157612f2f84846134eb565b505b7f4910fdfa16fed3260ed0e7147f7cc6da11a60208b5b9406d12a635614ffd9143805460ff1661120657805460ff191660011781556040516001600160a01b0383166024820152612fb090869060440160408051601f198184030181529190526020810180516001600160e01b0316631b2ce7f360e11b1790526134eb565b50805460ff19168155612fc1612e58565b6001600160a01b0316826001600160a01b0316146130395760405162461bcd60e51b815260206004820152602f60248201527f45524331393637557067726164653a207570677261646520627265616b73206660448201526e75727468657220757067726164657360881b6064820152608401610f11565b611206856135cd565b8154600090815b818110156130b457600061305d828461360d565b90508486828154811061308057634e487b7160e01b600052603260045260246000fd5b60009182526020909120015463ffffffff1611156130a0578092506130ae565b6130ab8160016146fa565b91505b50613049565b811561310657846130c6600184614751565b815481106130e457634e487b7160e01b600052603260045260246000fd5b60009182526020909120015464010000000090046001600160e01b0316613109565b60005b6001600160e01b031695945050505050565b611ad58282613628565b611ad58282613641565b600063ffffffff8211156131945760405162461bcd60e51b815260206004820152602660248201527f53616665436173743a2076616c756520646f65736e27742066697420696e203360448201526532206269747360d01b6064820152608401610f11565b5090565b61016280546001600160a01b038381166001600160a01b0319831681179093556040519116919082907f8be0079c531659141344cd1fd0a4f28419497f9722a3daafe3b4186f6b6457e090600090a35050565b6000610d126131f8612ddd565b8360405161190160f01b6020820152602281018390526042810182905260009060620160405160208183030381529060405280519060200120905092915050565b600080600061324a878787876136bc565b91509150613257816137a9565b5095945050505050565b6001600160a01b038116600090815260fd602052604090208054600181018255905b50919050565b611ad582826139ac565b600054610100900460ff166132ba5760405162461bcd60e51b8152600401610f11906146af565b6132c26133ac565b612002613a37565b600054610100900460ff166132f15760405162461bcd60e51b8152600401610f11906146af565b815161330490609a90602085019061410f565b50805161331890609b90602084019061410f565b505050565b600054610100900460ff166133445760405162461bcd60e51b8152600401610f11906146af565b610194805460ff19169055565b600054610100900460ff166133785760405162461bcd60e51b8152600401610f11906146af565b6133806133ac565b6133a381604051806040016040528060018152602001603160f81b815250613a67565b61164681613aa8565b600054610100900460ff166120025760405162461bcd60e51b8152600401610f11906146af565b6001600160a01b03831615806133f057506001600160a01b038216155b156133fa57613318565b60405162461bcd60e51b81526020600482015260166024820152752737b7103a3930b739b332b930b13632903a37b5b2b760511b6044820152606401610f11565b613318838383613af6565b803b6134aa5760405162461bcd60e51b815260206004820152602d60248201527f455243313936373a206e657720696d706c656d656e746174696f6e206973206e60448201526c1bdd08184818dbdb9d1c9858dd609a1b6064820152608401610f11565b7f360894a13ba1a3210667c828492db98dca3e2076cc3735a920a3ca505d382bbc80546001600160a01b0319166001600160a01b0392909216919091179055565b6060823b61354a5760405162461bcd60e51b815260206004820152602660248201527f416464726573733a2064656c65676174652063616c6c20746f206e6f6e2d636f6044820152651b9d1c9858dd60d21b6064820152608401610f11565b600080846001600160a01b0316846040516135659190614593565b600060405180830381855af49150503d80600081146135a0576040519150601f19603f3d011682016040523d82523d6000602084013e6135a5565b606091505b509150915061229a828260405180606001604052806027815260200161483460279139613b29565b6135d681613446565b6040516001600160a01b038216907fbc7cd75a20ee27fd9adebab32041f755214dbc6bffa90cc0225b39da2e5c2d3b90600090a250565b600061361c6002848418614712565b6114e7908484166146fa565b6136328282613b62565b612dd7610132612bc883613cc3565b6001600160a01b0382811660008181526101306020818152604080842080546097845282862054949093528787166001600160a01b03198416811790915590519190951694919391928592917f3134e8a2e6d97e929a7e54011ea5485d7d196dd5f0ba4d4ef95803e8e3fc257f9190a4612dd7828483613e74565b6000807f7fffffffffffffffffffffffffffffff5d576e7357a4501ddfe92f46681b20a08311156136f357506000905060036137a0565b8460ff16601b1415801561370b57508460ff16601c14155b1561371c57506000905060046137a0565b6040805160008082526020820180845289905260ff881692820192909252606081018690526080810185905260019060a0016020604051602081039080840390855afa158015613770573d6000803e3d6000fd5b5050604051601f1901519150506001600160a01b038116613799576000600192509250506137a0565b9150600090505b94509492505050565b60008160048111156137cb57634e487b7160e01b600052602160045260246000fd5b14156137d657611646565b60018160048111156137f857634e487b7160e01b600052602160045260246000fd5b14156138465760405162461bcd60e51b815260206004820152601860248201527f45434453413a20696e76616c6964207369676e617475726500000000000000006044820152606401610f11565b600281600481111561386857634e487b7160e01b600052602160045260246000fd5b14156138b65760405162461bcd60e51b815260206004820152601f60248201527f45434453413a20696e76616c6964207369676e6174757265206c656e677468006044820152606401610f11565b60038160048111156138d857634e487b7160e01b600052602160045260246000fd5b14156139315760405162461bcd60e51b815260206004820152602260248201527f45434453413a20696e76616c6964207369676e6174757265202773272076616c604482015261756560f01b6064820152608401610f11565b600481600481111561395357634e487b7160e01b600052602160045260246000fd5b14156116465760405162461bcd60e51b815260206004820152602260248201527f45434453413a20696e76616c6964207369676e6174757265202776272076616c604482015261756560f01b6064820152608401610f11565b6139b68282613fb3565b6099546001600160e01b031015613a285760405162461bcd60e51b815260206004820152603060248201527f4552433230566f7465733a20746f74616c20737570706c79207269736b73206f60448201526f766572666c6f77696e6720766f74657360801b6064820152608401610f11565b612dd7610132612bec83613cc3565b600054610100900460ff16613a5e5760405162461bcd60e51b8152600401610f11906146af565b61200233613198565b600054610100900460ff16613a8e5760405162461bcd60e51b8152600401610f11906146af565b81516020928301208151919092012060c99190915560ca55565b600054610100900460ff16613acf5760405162461bcd60e51b8152600401610f11906146af565b507f6e71edae12b1b97f4d1f60370fef10105fa2faae0126114a169c64845d6126c960fe55565b6001600160a01b038381166000908152610130602052604080822054858416835291205461331892918216911683613e74565b60608315613b385750816114e7565b825115613b485782518084602001fd5b8160405162461bcd60e51b8152600401610f1191906145af565b6001600160a01b038216613bc25760405162461bcd60e51b815260206004820152602160248201527f45524332303a206275726e2066726f6d20746865207a65726f206164647265736044820152607360f81b6064820152608401610f11565b613bce826000836133d3565b6001600160a01b03821660009081526097602052604090205481811015613c425760405162461bcd60e51b815260206004820152602260248201527f45524332303a206275726e20616d6f756e7420657863656564732062616c616e604482015261636560f01b6064820152608401610f11565b6001600160a01b0383166000908152609760205260408120838303905560998054849290613c71908490614751565b90915550506040518281526000906001600160a01b038516907fddf252ad1be2c89b69c2b068fc378daa952ba7f163c4a11628f55a4df523b3ef9060200160405180910390a36133188360008461343b565b825460009081908015613d1c5785613cdc600183614751565b81548110613cfa57634e487b7160e01b600052603260045260246000fd5b60009182526020909120015464010000000090046001600160e01b0316613d1f565b60005b6001600160e01b03169250613d3883858763ffffffff16565b9150600081118015613d8457504386613d52600184614751565b81548110613d7057634e487b7160e01b600052603260045260246000fd5b60009182526020909120015463ffffffff16145b15613df257613d92826140a6565b86613d9e600184614751565b81548110613dbc57634e487b7160e01b600052603260045260246000fd5b9060005260206000200160000160046101000a8154816001600160e01b0302191690836001600160e01b03160217905550613e6b565b856040518060400160405280613e074361312f565b63ffffffff168152602001613e1b856140a6565b6001600160e01b039081169091528254600181018455600093845260209384902083519101805493909401519091166401000000000263ffffffff91821663ffffffff1990931692909217161790555b50935093915050565b816001600160a01b0316836001600160a01b031614158015613e965750600081115b15613318576001600160a01b03831615613f25576001600160a01b0383166000908152610131602052604081208190613ed290612bc885613cc3565b91509150846001600160a01b03167fdec2bacdd2f05b59de34da9b523dff8be42e5e38e818c82fdb0bae774387a7248383604051613f1a929190918252602082015260400190565b60405180910390a250505b6001600160a01b03821615613318576001600160a01b0382166000908152610131602052604081208190613f5c90612bec85613cc3565b91509150836001600160a01b03167fdec2bacdd2f05b59de34da9b523dff8be42e5e38e818c82fdb0bae774387a7248383604051613fa4929190918252602082015260400190565b60405180910390a25050505050565b6001600160a01b0382166140095760405162461bcd60e51b815260206004820152601f60248201527f45524332303a206d696e7420746f20746865207a65726f2061646472657373006044820152606401610f11565b614015600083836133d3565b806099600082825461402791906146fa565b90915550506001600160a01b038216600090815260976020526040812080548392906140549084906146fa565b90915550506040518181526001600160a01b038316906000907fddf252ad1be2c89b69c2b068fc378daa952ba7f163c4a11628f55a4df523b3ef9060200160405180910390a3611ad56000838361343b565b60006001600160e01b038211156131945760405162461bcd60e51b815260206004820152602760248201527f53616665436173743a2076616c756520646f65736e27742066697420696e20326044820152663234206269747360c81b6064820152608401610f11565b82805461411b90614794565b90600052602060002090601f01602090048101928261413d5760008555614183565b82601f1061415657805160ff1916838001178555614183565b82800160010185558215614183579182015b82811115614183578251825591602001919060010190614168565b506131949291505b80821115613194576000815560010161418b565b803560ff81168114610c6a57600080fd5b6000602082840312156141c1578081fd5b81356114e781614810565b600080604083850312156141de578081fd5b82356141e981614810565b915060208301356141f981614810565b809150509250929050565b600080600060608486031215614218578081fd5b833561422381614810565b9250602084013561423381614810565b929592945050506040919091013590565b60008060008060808587031215614259578081fd5b843561426481614810565b9350602085013561427481614810565b93969395505050506040820135916060013590565b600080600080600080600060e0888a0312156142a3578283fd5b87356142ae81614810565b965060208801356142be81614810565b955060408801359450606088013593506142da6080890161419f565b925060a0880135915060c0880135905092959891949750929550565b60008060408385031215614308578182fd5b823561431381614810565b9150602083013567ffffffffffffffff8082111561432f578283fd5b818501915085601f830112614342578283fd5b813581811115614354576143546147fa565b604051601f8201601f19908116603f0116810190838211818310171561437c5761437c6147fa565b81604052828152886020848701011115614394578586fd5b82602086016020830137856020848301015280955050505050509250929050565b600080604083850312156143c7578182fd5b82356143d281614810565b946020939093013593505050565b60008060008060008060c087890312156143f8578182fd5b863561440381614810565b9550602087013594506040870135935061441f6060880161419f565b92506080870135915060a087013590509295509295509295565b6000806040838503121561444b578182fd5b823561445681614810565b9150602083013563ffffffff811681146141f9578182fd5b60006020828403121561447f578081fd5b81516114e781614825565b60006020828403121561449b578081fd5b5035919050565b6000602082840312156144b3578081fd5b5051919050565b600080604083850312156144cc578182fd5b8235915060208301356141f981614810565b6000806000606084860312156144f2578081fd5b83359250602084013561423381614810565b600080600060608486031215614518578081fd5b83359250602084013561452a81614810565b9150604084013561453a81614825565b809150509250925092565b60008060408385031215614557578182fd5b50508035926020909101359150565b60008060006060848603121561457a578081fd5b8335925060208401359150604084013561453a81614825565b600082516145a5818460208701614768565b9190910192915050565b60006020825282518060208401526145ce816040850160208701614768565b601f01601f19169190910160400192915050565b6020808252602c908201527f46756e6374696f6e206d7573742062652063616c6c6564207468726f7567682060408201526b19195b1959d85d1958d85b1b60a21b606082015260800190565b6020808252602c908201527f46756e6374696f6e206d7573742062652063616c6c6564207468726f7567682060408201526b6163746976652070726f787960a01b606082015260800190565b6020808252818101527f4f776e61626c653a2063616c6c6572206973206e6f7420746865206f776e6572604082015260600190565b6020808252602b908201527f496e697469616c697a61626c653a20636f6e7472616374206973206e6f74206960408201526a6e697469616c697a696e6760a81b606082015260800190565b6000821982111561470d5761470d6147e4565b500190565b60008261472d57634e487b7160e01b81526012600452602481fd5b500490565b600081600019048311821515161561474c5761474c6147e4565b500290565b600082821015614763576147636147e4565b500390565b60005b8381101561478357818101518382015260200161476b565b83811115612dd75750506000910152565b6002810460018216806147a857607f821691505b6020821081141561328357634e487b7160e01b600052602260045260246000fd5b60006000198214156147dd576147dd6147e4565b5060010190565b634e487b7160e01b600052601160045260246000fd5b634e487b7160e01b600052604160045260246000fd5b6001600160a01b038116811461164657600080fd5b801515811461164657600080fdfe416464726573733a206c6f772d6c6576656c2064656c65676174652063616c6c206661696c6564a264697066735822122091412edabf0b61d8522f090e18e6c162a337b2893b640b32e9baf9736984001b64736f6c63430008020033",
  "linkReferences": {},
  "deployedLinkReferences": {}
}