{
  "_format": "hh-sol-artifact-1",
  "contractName": "GovernorBravoDelegatorStorage",
  "sourceName": "contracts/GovernorBravoInterfaces.sol",
  "abi": [
    {
      "inputs": [],
      "name": "admin",
      "outputs": [
        {
          "internalType": "address",
          "name": "",
          "type": "address"
        }
      ],
      "stateMutability": "view",
      "type": "function"
    },
    {
      "inputs": [],
      "name": "implementation",
      "outputs": [
        {
          "internalType": "address",
          "name": "",
          "type": "address"
        }
      ],
      "stateMutability": "view",
      "type": "function"
    },
    {
      "inputs": [],
      "name": "pendingAdmin",
      "outputs": [
        {
          "internalType": "address",
          "name": "",
          "type": "address"
        }
      ],
      "stateMutability": "view",
      "type": "function"
    }
  ],
  "bytecode": "0x608060405234801561001057600080fd5b5060c98061001f6000396000f3fe6080604052348015600f57600080fd5b5060043610603c5760003560e01c8063267822471460415780635c60da1b14606f578063f851a440146081575b600080fd5b6001546053906001600160a01b031681565b6040516001600160a01b03909116815260200160405180910390f35b6002546053906001600160a01b031681565b6000546053906001600160a01b03168156fea26469706673582212209a8186d108aad3d36c8f01cc1a67a0b1fa1054b54ff92c512a3175a42ec7fdf764736f6c63430008020033",
  "linkReferences": {},
  "deployedLinkReferences": {}
}