{
  "_format": "hh-sol-artifact-1",
  "contractName": "Gold1",
  "sourceName": "contracts/Gold1.sol",
  "abi": [
    {
      "inputs": [],
      "stateMutability": "nonpayable",
      "type": "constructor"
    },
    {
      "anonymous": false,
      "inputs": [
        {
          "indexed": true,
          "internalType": "address",
          "name": "owner",
          "type": "address"
        },
        {
          "indexed": true,
          "internalType": "address",
          "name": "spender",
          "type": "address"
        },
        {
          "indexed": false,
          "internalType": "uint256",
          "name": "value",
          "type": "uint256"
        }
      ],
      "name": "Approval",
      "type": "event"
    },
    {
      "anonymous": false,
      "inputs": [
        {
          "indexed": false,
          "internalType": "uint256",
          "name": "_maxBuyAmount",
          "type": "uint256"
        }
      ],
      "name": "MaxBuyAmountUpdated",
      "type": "event"
    },
    {
      "anonymous": false,
      "inputs": [
        {
          "indexed": false,
          "internalType": "uint256",
          "name": "_maxSellAmount",
          "type": "uint256"
        }
      ],
      "name": "MaxSellAmountUpdated",
      "type": "event"
    },
    {
      "anonymous": false,
      "inputs": [
        {
          "indexed": true,
          "internalType": "address",
          "name": "previousOwner",
          "type": "address"
        },
        {
          "indexed": true,
          "internalType": "address",
          "name": "newOwner",
          "type": "address"
        }
      ],
      "name": "OwnershipTransferred",
      "type": "event"
    },
    {
      "anonymous": false,
      "inputs": [
        {
          "indexed": false,
          "internalType": "uint256",
          "name": "tokensSwapped",
          "type": "uint256"
        },
        {
          "indexed": false,
          "internalType": "uint256",
          "name": "ethReceived",
          "type": "uint256"
        },
        {
          "indexed": false,
          "internalType": "uint256",
          "name": "tokensIntoLiquidity",
          "type": "uint256"
        }
      ],
      "name": "SwapAndLiquify",
      "type": "event"
    },
    {
      "anonymous": false,
      "inputs": [
        {
          "indexed": true,
          "internalType": "address",
          "name": "from",
          "type": "address"
        },
        {
          "indexed": true,
          "internalType": "address",
          "name": "to",
          "type": "address"
        },
        {
          "indexed": false,
          "internalType": "uint256",
          "name": "value",
          "type": "uint256"
        }
      ],
      "name": "Transfer",
      "type": "event"
    },
    {
      "inputs": [
        {
          "internalType": "address",
          "name": "owner",
          "type": "address"
        },
        {
          "internalType": "address",
          "name": "spender",
          "type": "address"
        }
      ],
      "name": "allowance",
      "outputs": [
        {
          "internalType": "uint256",
          "name": "",
          "type": "uint256"
        }
      ],
      "stateMutability": "view",
      "type": "function"
    },
    {
      "inputs": [
        {
          "internalType": "address",
          "name": "spender",
          "type": "address"
        },
        {
          "internalType": "uint256",
          "name": "amount",
          "type": "uint256"
        }
      ],
      "name": "approve",
      "outputs": [
        {
          "internalType": "bool",
          "name": "",
          "type": "bool"
        }
      ],
      "stateMutability": "nonpayable",
      "type": "function"
    },
    {
      "inputs": [
        {
          "internalType": "address",
          "name": "account",
          "type": "address"
        }
      ],
      "name": "balanceOf",
      "outputs": [
        {
          "internalType": "uint256",
          "name": "",
          "type": "uint256"
        }
      ],
      "stateMutability": "view",
      "type": "function"
    },
    {
      "inputs": [],
      "name": "decimals",
      "outputs": [
        {
          "internalType": "uint8",
          "name": "",
          "type": "uint8"
        }
      ],
      "stateMutability": "pure",
      "type": "function"
    },
    {
      "inputs": [
        {
          "internalType": "address",
          "name": "notbot",
          "type": "address"
        }
      ],
      "name": "delBot",
      "outputs": [],
      "stateMutability": "nonpayable",
      "type": "function"
    },
    {
      "inputs": [
        {
          "internalType": "address",
          "name": "account",
          "type": "address"
        }
      ],
      "name": "excludeFromFee",
      "outputs": [],
      "stateMutability": "nonpayable",
      "type": "function"
    },
    {
      "inputs": [
        {
          "internalType": "address",
          "name": "account",
          "type": "address"
        }
      ],
      "name": "includeInFee",
      "outputs": [],
      "stateMutability": "nonpayable",
      "type": "function"
    },
    {
      "inputs": [],
      "name": "manualsend",
      "outputs": [],
      "stateMutability": "nonpayable",
      "type": "function"
    },
    {
      "inputs": [],
      "name": "manualswap",
      "outputs": [],
      "stateMutability": "nonpayable",
      "type": "function"
    },
    {
      "inputs": [],
      "name": "name",
      "outputs": [
        {
          "internalType": "string",
          "name": "",
          "type": "string"
        }
      ],
      "stateMutability": "pure",
      "type": "function"
    },
    {
      "inputs": [],
      "name": "openTrading",
      "outputs": [],
      "stateMutability": "nonpayable",
      "type": "function"
    },
    {
      "inputs": [],
      "name": "owner",
      "outputs": [
        {
          "internalType": "address",
          "name": "",
          "type": "address"
        }
      ],
      "stateMutability": "view",
      "type": "function"
    },
    {
      "inputs": [],
      "name": "renounceOwnership",
      "outputs": [],
      "stateMutability": "nonpayable",
      "type": "function"
    },
    {
      "inputs": [
        {
          "internalType": "uint256",
          "name": "blocks",
          "type": "uint256"
        }
      ],
      "name": "setBlocksToBlacklist",
      "outputs": [],
      "stateMutability": "nonpayable",
      "type": "function"
    },
    {
      "inputs": [
        {
          "internalType": "address[]",
          "name": "bots_",
          "type": "address[]"
        }
      ],
      "name": "setBots",
      "outputs": [],
      "stateMutability": "nonpayable",
      "type": "function"
    },
    {
      "inputs": [
        {
          "internalType": "uint256",
          "name": "buyFourFee",
          "type": "uint256"
        },
        {
          "internalType": "uint256",
          "name": "buyLiquidityFee",
          "type": "uint256"
        },
        {
          "internalType": "uint256",
          "name": "buyRewardFee",
          "type": "uint256"
        }
      ],
      "name": "setBuyFee",
      "outputs": [],
      "stateMutability": "nonpayable",
      "type": "function"
    },
    {
      "inputs": [
        {
          "internalType": "bool",
          "name": "onoff",
          "type": "bool"
        }
      ],
      "name": "setCooldownEnabled",
      "outputs": [],
      "stateMutability": "nonpayable",
      "type": "function"
    },
    {
      "inputs": [
        {
          "internalType": "address",
          "name": "FourWallet",
          "type": "address"
        }
      ],
      "name": "setFourWallet",
      "outputs": [],
      "stateMutability": "nonpayable",
      "type": "function"
    },
    {
      "inputs": [
        {
          "internalType": "address",
          "name": "liquidityWallet",
          "type": "address"
        }
      ],
      "name": "setLiquidityWallet",
      "outputs": [],
      "stateMutability": "nonpayable",
      "type": "function"
    },
    {
      "inputs": [
        {
          "internalType": "uint256",
          "name": "maxBuy",
          "type": "uint256"
        }
      ],
      "name": "setMaxBuyAmount",
      "outputs": [],
      "stateMutability": "nonpayable",
      "type": "function"
    },
    {
      "inputs": [
        {
          "internalType": "uint256",
          "name": "maxSell",
          "type": "uint256"
        }
      ],
      "name": "setMaxSellAmount",
      "outputs": [],
      "stateMutability": "nonpayable",
      "type": "function"
    },
    {
      "inputs": [
        {
          "internalType": "uint256",
          "name": "maxToken",
          "type": "uint256"
        }
      ],
      "name": "setMaxWalletAmount",
      "outputs": [],
      "stateMutability": "nonpayable",
      "type": "function"
    },
    {
      "inputs": [
        {
          "internalType": "address",
          "name": "rewardWallet",
          "type": "address"
        }
      ],
      "name": "setRewardWallet",
      "outputs": [],
      "stateMutability": "nonpayable",
      "type": "function"
    },
    {
      "inputs": [
        {
          "internalType": "uint256",
          "name": "sellFourFee",
          "type": "uint256"
        },
        {
          "internalType": "uint256",
          "name": "sellLiquidityFee",
          "type": "uint256"
        },
        {
          "internalType": "uint256",
          "name": "sellRewardFee",
          "type": "uint256"
        }
      ],
      "name": "setSellFee",
      "outputs": [],
      "stateMutability": "nonpayable",
      "type": "function"
    },
    {
      "inputs": [
        {
          "internalType": "bool",
          "name": "onoff",
          "type": "bool"
        }
      ],
      "name": "setSwapEnabled",
      "outputs": [],
      "stateMutability": "nonpayable",
      "type": "function"
    },
    {
      "inputs": [
        {
          "internalType": "uint256",
          "name": "newAmount",
          "type": "uint256"
        }
      ],
      "name": "setSwapTokensAtAmount",
      "outputs": [],
      "stateMutability": "nonpayable",
      "type": "function"
    },
    {
      "inputs": [],
      "name": "symbol",
      "outputs": [
        {
          "internalType": "string",
          "name": "",
          "type": "string"
        }
      ],
      "stateMutability": "pure",
      "type": "function"
    },
    {
      "inputs": [],
      "name": "totalSupply",
      "outputs": [
        {
          "internalType": "uint256",
          "name": "",
          "type": "uint256"
        }
      ],
      "stateMutability": "pure",
      "type": "function"
    },
    {
      "inputs": [
        {
          "internalType": "address",
          "name": "recipient",
          "type": "address"
        },
        {
          "internalType": "uint256",
          "name": "amount",
          "type": "uint256"
        }
      ],
      "name": "transfer",
      "outputs": [
        {
          "internalType": "bool",
          "name": "",
          "type": "bool"
        }
      ],
      "stateMutability": "nonpayable",
      "type": "function"
    },
    {
      "inputs": [
        {
          "internalType": "address",
          "name": "sender",
          "type": "address"
        },
        {
          "internalType": "address",
          "name": "recipient",
          "type": "address"
        },
        {
          "internalType": "uint256",
          "name": "amount",
          "type": "uint256"
        }
      ],
      "name": "transferFrom",
      "outputs": [
        {
          "internalType": "bool",
          "name": "",
          "type": "bool"
        }
      ],
      "stateMutability": "nonpayable",
      "type": "function"
    },
    {
      "inputs": [],
      "name": "withdrawStuckETH",
      "outputs": [],
      "stateMutability": "nonpayable",
      "type": "function"
    },
    {
      "stateMutability": "payable",
      "type": "receive"
    }
  ],
  "bytecode": "0x608060405260026007819055600881905560016009819055600a818155600b829055600c829055600d839055600e92909255600f81905560108190556011819055601255601a805462ffffff60b01b191690556000601b819055601c91909155678ac7230489e80000601d819055601e819055601f5560205534801561008457600080fd5b50600080546001600160a01b031916339081178255604051909182917f8be0079c531659141344cd1fd0a4f28419497f9722a3daafe3b4186f6b6457e0908290a350601780546001600160a01b031990811673a3998ffea36240f51496c3dabf159f428d37d953908117835560188054831661dead178155601680549093169091178255336000818152600260209081526040808320678ac7230489e80000905582546001600160a01b0390811684526004909252808320805460ff1990811660019081179092553085528285208054821683179055975483168452818420805489168217905594548216835280832080548816861790559454168152929092208054909316179091556001600160a01b0316733188e04c9743691576175ee935bbf07cb4dd829d6001600160a01b03167fddf252ad1be2c89b69c2b068fc378daa952ba7f163c4a11628f55a4df523b3ef678ac7230489e800006040516101ee91815260200190565b60405180910390a361234b806102056000396000f3fe6080604052600436106101dc5760003560e01c8063715018a611610102578063c9567bf911610095578063e99c9d0911610064578063e99c9d09146105ab578063ea2f0b37146105cb578063f34eb0b8146105eb578063f5648a4f1461060b57600080fd5b8063c9567bf914610510578063dd62ed3e14610525578063e01af92c1461056b578063e6f7ef4d1461058b57600080fd5b8063afa4f3b2116100d1578063afa4f3b21461049b578063b4060493146104bb578063b515566a146104db578063c3c8cd80146104fb57600080fd5b8063715018a61461040f5780638da5cb5b1461042457806395d89b411461044c578063a9059cbb1461047b57600080fd5b806327a14fc21161017a5780635932ead1116101495780635932ead1146103845780635958621e146103a45780636fc3eaec146103c457806370a08231146103d957600080fd5b806327a14fc214610308578063296f0a0c14610328578063313ce56714610348578063437823ec1461036457600080fd5b80631d865c30116101b65780631d865c301461028657806323b872dd146102a857806325519cf2146102c8578063273123b7146102e857600080fd5b806306fdde03146101e8578063095ea7b31461023157806318160ddd1461026157600080fd5b366101e357005b600080fd5b3480156101f457600080fd5b5060408051808201909152600e81526d54656820476f6c64656e204f6e6560901b60208201525b604051610228919061215c565b60405180910390f35b34801561023d57600080fd5b5061025161024c366004611fc2565b610620565b6040519015158152602001610228565b34801561026d57600080fd5b50678ac7230489e800005b604051908152602001610228565b34801561029257600080fd5b506102a66102a1366004612104565b610636565b005b3480156102b457600080fd5b506102516102c3366004611f82565b6106dc565b3480156102d457600080fd5b506102a66102e3366004612104565b610745565b3480156102f457600080fd5b506102a6610303366004611f12565b6107e2565b34801561031457600080fd5b506102a66103233660046120ec565b61082d565b34801561033457600080fd5b506102a6610343366004611f12565b61085c565b34801561035457600080fd5b5060405160098152602001610228565b34801561037057600080fd5b506102a661037f366004611f12565b610938565b34801561039057600080fd5b506102a661039f3660046120b4565b610986565b3480156103b057600080fd5b506102a66103bf366004611f12565b6109ce565b3480156103d057600080fd5b506102a6610a9e565b3480156103e557600080fd5b506102786103f4366004611f12565b6001600160a01b031660009081526002602052604090205490565b34801561041b57600080fd5b506102a6610ad5565b34801561043057600080fd5b506000546040516001600160a01b039091168152602001610228565b34801561045857600080fd5b50604080518082019091526006815265476f6c64203160d01b602082015261021b565b34801561048757600080fd5b50610251610496366004611fc2565b610b49565b3480156104a757600080fd5b506102a66104b63660046120ec565b610b56565b3480156104c757600080fd5b506102a66104d6366004611f12565b610c6c565b3480156104e757600080fd5b506102a66104f6366004611fed565b610d3c565b34801561050757600080fd5b506102a6610de0565b34801561051c57600080fd5b506102a6610e23565b34801561053157600080fd5b50610278610540366004611f4a565b6001600160a01b03918216600090815260036020908152604080832093909416825291909152205490565b34801561057757600080fd5b506102a66105863660046120b4565b61121e565b34801561059757600080fd5b506102a66105a63660046120ec565b611266565b3480156105b757600080fd5b506102a66105c63660046120ec565b611295565b3480156105d757600080fd5b506102a66105e6366004611f12565b6112c4565b3480156105f757600080fd5b506102a66106063660046120ec565b61130f565b34801561061757600080fd5b506102a661133e565b600061062d338484611423565b50600192915050565b6000546001600160a01b031633146106695760405162461bcd60e51b8152600401610660906121af565b60405180910390fd5b603c816106768486612254565b6106809190612254565b11156106ce5760405162461bcd60e51b815260206004820152601e60248201527f4d757374206b6565702073656c6c2074617865732062656c6f772036302500006044820152606401610660565b600d92909255600f55601155565b60006106e9848484611548565b61073b8433610736856040518060600160405280602881526020016122ee602891396001600160a01b038a1660009081526003602090815260408083203384529091529020549190611ac6565b611423565b5060019392505050565b6000546001600160a01b0316331461076f5760405162461bcd60e51b8152600401610660906121af565b601e8161077c8486612254565b6107869190612254565b11156107d45760405162461bcd60e51b815260206004820152601d60248201527f4d757374206b656570206275792074617865732062656c6f77203330250000006044820152606401610660565b600792909255600955600b55565b6000546001600160a01b0316331461080c5760405162461bcd60e51b8152600401610660906121af565b6001600160a01b03166000908152600560205260409020805460ff19169055565b6000546001600160a01b031633146108575760405162461bcd60e51b8152600401610660906121af565b601f55565b6000546001600160a01b031633146108865760405162461bcd60e51b8152600401610660906121af565b6001600160a01b0381166108e85760405162461bcd60e51b815260206004820152602360248201527f6c697175696469747957616c6c657420616464726573732063616e6e6f74206260448201526206520360ec1b6064820152608401610660565b601880546001600160a01b03908116600090815260046020526040808220805460ff1990811690915584546001600160a01b03191695909316948517909355928352912080549091166001179055565b6000546001600160a01b031633146109625760405162461bcd60e51b8152600401610660906121af565b6001600160a01b03166000908152600460205260409020805460ff19166001179055565b6000546001600160a01b031633146109b05760405162461bcd60e51b8152600401610660906121af565b601a8054911515600160c01b0260ff60c01b19909216919091179055565b6000546001600160a01b031633146109f85760405162461bcd60e51b8152600401610660906121af565b6001600160a01b038116610a4e5760405162461bcd60e51b815260206004820181905260248201527f72657761726457616c6c657420616464726573732063616e6e6f7420626520306044820152606401610660565b601680546001600160a01b03908116600090815260046020526040808220805460ff1990811690915584546001600160a01b03191695909316948517909355928352912080549091166001179055565b6000546001600160a01b03163314610ac85760405162461bcd60e51b8152600401610660906121af565b47610ad281611b00565b50565b6000546001600160a01b03163314610aff5760405162461bcd60e51b8152600401610660906121af565b600080546040516001600160a01b03909116907f8be0079c531659141344cd1fd0a4f28419497f9722a3daafe3b4186f6b6457e0908390a3600080546001600160a01b0319169055565b600061062d338484611548565b6000546001600160a01b03163314610b805760405162461bcd60e51b8152600401610660906121af565b64e8d4a51000811015610bf35760405162461bcd60e51b815260206004820152603560248201527f5377617020616d6f756e742063616e6e6f74206265206c6f776572207468616e60448201527410181718181892903a37ba30b61039bab838363c9760591b6064820152608401610660565b6611c37937e08000811115610c675760405162461bcd60e51b815260206004820152603460248201527f5377617020616d6f756e742063616e6e6f742062652068696768657220746861604482015273371018171a92903a37ba30b61039bab838363c9760611b6064820152608401610660565b602055565b6000546001600160a01b03163314610c965760405162461bcd60e51b8152600401610660906121af565b6001600160a01b038116610cec5760405162461bcd60e51b815260206004820152601e60248201527f466f757257616c6c657420616464726573732063616e6e6f74206265203000006044820152606401610660565b601780546001600160a01b03908116600090815260046020526040808220805460ff1990811690915584546001600160a01b03191695909316948517909355928352912080549091166001179055565b6000546001600160a01b03163314610d665760405162461bcd60e51b8152600401610660906121af565b60005b8151811015610ddc57600160056000848481518110610d9857634e487b7160e01b600052603260045260246000fd5b6020908102919091018101516001600160a01b03168252810191909152604001600020805460ff191691151591909117905580610dd481612283565b915050610d69565b5050565b6000546001600160a01b03163314610e0a5760405162461bcd60e51b8152600401610660906121af565b30600090815260026020526040902054610ad281611b3a565b6000546001600160a01b03163314610e4d5760405162461bcd60e51b8152600401610660906121af565b601a54600160a01b900460ff1615610ea75760405162461bcd60e51b815260206004820152601760248201527f74726164696e6720697320616c7265616479206f70656e0000000000000000006044820152606401610660565b601980546001600160a01b031916737a250d5630b4cf539739df2c5dacb4c659f2488d908117909155610ee33082678ac7230489e80000611423565b806001600160a01b031663c45a01556040518163ffffffff1660e01b815260040160206040518083038186803b158015610f1c57600080fd5b505afa158015610f30573d6000803e3d6000fd5b505050506040513d601f19601f82011682018060405250810190610f549190611f2e565b6001600160a01b031663c9c6539630836001600160a01b031663ad5c46486040518163ffffffff1660e01b815260040160206040518083038186803b158015610f9c57600080fd5b505afa158015610fb0573d6000803e3d6000fd5b505050506040513d601f19601f82011682018060405250810190610fd49190611f2e565b6040516001600160e01b031960e085901b1681526001600160a01b03928316600482015291166024820152604401602060405180830381600087803b15801561101c57600080fd5b505af1158015611030573d6000803e3d6000fd5b505050506040513d601f19601f820116820180604052508101906110549190611f2e565b601a80546001600160a01b039283166001600160a01b03199091161790556019541663f305d719473061109c816001600160a01b031660009081526002602052604090205490565b6000806110b16000546001600160a01b031690565b60405160e088901b6001600160e01b03191681526001600160a01b03958616600482015260248101949094526044840192909252606483015290911660848201524260a482015260c4016060604051808303818588803b15801561111457600080fd5b505af1158015611128573d6000803e3d6000fd5b50505050506040513d601f19601f8201168201806040525081019061114d919061212f565b5050601a805466b1a2bc2ec50000601d819055601e5567016345785d8a0000601f556611c37937e0800060205564ffff0000ff60a01b19811664010100000160a01b1790915543601b5560195460405163095ea7b360e01b81526001600160a01b03918216600482015260001960248201529116915063095ea7b390604401602060405180830381600087803b1580156111e657600080fd5b505af11580156111fa573d6000803e3d6000fd5b505050506040513d601f19601f82011682018060405250810190610ddc91906120d0565b6000546001600160a01b031633146112485760405162461bcd60e51b8152600401610660906121af565b601a8054911515600160b81b0260ff60b81b19909216919091179055565b6000546001600160a01b031633146112905760405162461bcd60e51b8152600401610660906121af565b601c55565b6000546001600160a01b031633146112bf5760405162461bcd60e51b8152600401610660906121af565b601e55565b6000546001600160a01b031633146112ee5760405162461bcd60e51b8152600401610660906121af565b6001600160a01b03166000908152600460205260409020805460ff19169055565b6000546001600160a01b031633146113395760405162461bcd60e51b8152600401610660906121af565b601d55565b6000546001600160a01b031633146113685760405162461bcd60e51b8152600401610660906121af565b601a54600160a01b900460ff16156113d65760405162461bcd60e51b815260206004820152602b60248201527f43616e206f6e6c792077697468647261772069662074726164696e672068617360448201526a1b89dd081cdd185c9d195960aa1b6064820152608401610660565b604051600090339047908381818185875af1925050503d8060008114611418576040519150601f19603f3d011682016040523d82523d6000602084013e61141d565b606091505b50505050565b6001600160a01b0383166114855760405162461bcd60e51b8152602060048201526024808201527f45524332303a20617070726f76652066726f6d20746865207a65726f206164646044820152637265737360e01b6064820152608401610660565b6001600160a01b0382166114e65760405162461bcd60e51b815260206004820152602260248201527f45524332303a20617070726f766520746f20746865207a65726f206164647265604482015261737360f01b6064820152608401610660565b6001600160a01b0383811660008181526003602090815260408083209487168084529482529182902085905590518481527f8c5be1e5ebec7d5bd14f71427d1e84f3dd0314c0f7b2291e5b200ac8c7c3b92591015b60405180910390a3505050565b6001600160a01b0383166115ac5760405162461bcd60e51b815260206004820152602560248201527f45524332303a207472616e736665722066726f6d20746865207a65726f206164604482015264647265737360d81b6064820152608401610660565b6001600160a01b03821661160e5760405162461bcd60e51b815260206004820152602360248201527f45524332303a207472616e7366657220746f20746865207a65726f206164647260448201526265737360e81b6064820152608401610660565b600081116116705760405162461bcd60e51b815260206004820152602960248201527f5472616e7366657220616d6f756e74206d7573742062652067726561746572206044820152687468616e207a65726f60b81b6064820152608401610660565b6000806116856000546001600160a01b031690565b6001600160a01b0316856001600160a01b0316141580156116b457506000546001600160a01b03858116911614155b80156116c857506001600160a01b03841615155b80156116df57506001600160a01b03841661dead14155b80156116f55750601a54600160a81b900460ff16155b156119ba576001600160a01b03851660009081526005602052604090205460ff1615801561173c57506001600160a01b03841660009081526005602052604090205460ff16155b61174557600080fd5b601a54600192506001600160a01b03868116911614801561177457506019546001600160a01b03858116911614155b801561179957506001600160a01b03841660009081526004602052604090205460ff16155b80156117ae5750601a54600160c01b900460ff165b156118e757601d548311156118175760405162461bcd60e51b815260206004820152602960248201527f5472616e7366657220616d6f756e74206578636565647320746865206d6178426044820152683abca0b6b7bab73a1760b91b6064820152608401610660565b601f548361183a866001600160a01b031660009081526002602052604090205490565b6118449190612254565b111561189e5760405162461bcd60e51b8152602060048201526024808201527f45786365656473206d6178696d756d2077616c6c657420746f6b656e20616d6f6044820152633ab73a1760e11b6064820152608401610660565b6001600160a01b03841660009081526006602052604090205442116118c257600080fd5b6118cd42601e612254565b6001600160a01b0385166000908152600660205260409020555b601a546001600160a01b03858116911614801561191257506019546001600160a01b03868116911614155b801561193757506001600160a01b03851660009081526004602052604090205460ff16155b801561194c5750601a54600160c01b900460ff165b156119ba57601e548311156119b65760405162461bcd60e51b815260206004820152602a60248201527f5472616e7366657220616d6f756e74206578636565647320746865206d61785360448201526932b63620b6b7bab73a1760b11b6064820152608401610660565b5060015b6001600160a01b03851660009081526004602052604090205460ff16806119f957506001600160a01b03841660009081526004602052604090205460ff165b15611a0357600091505b306000908152600260205260408120549050600060205482118015611a255750825b9050808015611a3d5750601a54600160b81b900460ff165b8015611a535750601a54600160a81b900460ff16155b8015611a7857506001600160a01b03871660009081526004602052604090205460ff16155b8015611a9d57506001600160a01b03861660009081526004602052604090205460ff16155b15611ab057601a805460ff60a81b191690555b611abd8787878787611cdf565b50505050505050565b60008184841115611aea5760405162461bcd60e51b8152600401610660919061215c565b506000611af7848661226c565b95945050505050565b6017546040516001600160a01b039091169082156108fc029083906000818181858888f19350505050158015610ddc573d6000803e3d6000fd5b601a805460ff60b01b1916600160b01b1790556040805160028082526060820183526000926020830190803683370190505090503081600081518110611b9057634e487b7160e01b600052603260045260246000fd5b6001600160a01b03928316602091820292909201810191909152601954604080516315ab88c960e31b81529051919093169263ad5c4648926004808301939192829003018186803b158015611be457600080fd5b505afa158015611bf8573d6000803e3d6000fd5b505050506040513d601f19601f82011682018060405250810190611c1c9190611f2e565b81600181518110611c3d57634e487b7160e01b600052603260045260246000fd5b6001600160a01b039283166020918202929092010152601954611c639130911684611423565b60195460405163791ac94760e01b81526001600160a01b039091169063791ac94790611c9c9085906000908690309042906004016121e4565b600060405180830381600087803b158015611cb657600080fd5b505af1158015611cca573d6000803e3d6000fd5b5050601a805460ff60b01b1916905550505050565b81611cec57611cec611d2c565b611cf7858585611db4565b81611d2557611d25600854600755600a54600955600c54600b55600e54600d55601054600f55601254601155565b5050505050565b600754158015611d3c5750600954155b8015611d485750600b54155b8015611d545750600d54155b8015611d605750600f54155b8015611d6c5750601154155b15611d7357565b6007805460085560098054600a55600b8054600c55600d8054600e55600f805460105560118054601255600095869055938590559184905583905582905555565b6001600160a01b038316600090815260026020526040902054611dd79082611e5a565b6001600160a01b038085166000908152600260205260408082209390935590841681522054611e069082611ea3565b6001600160a01b0380841660008181526002602052604090819020939093559151908516907fddf252ad1be2c89b69c2b068fc378daa952ba7f163c4a11628f55a4df523b3ef9061153b9085815260200190565b6000611e9c83836040518060400160405280601e81526020017f536166654d6174683a207375627472616374696f6e206f766572666c6f770000815250611ac6565b9392505050565b600080611eb08385612254565b905083811015611e9c5760405162461bcd60e51b815260206004820152601b60248201527f536166654d6174683a206164646974696f6e206f766572666c6f7700000000006044820152606401610660565b8035611f0d816122ca565b919050565b600060208284031215611f23578081fd5b8135611e9c816122ca565b600060208284031215611f3f578081fd5b8151611e9c816122ca565b60008060408385031215611f5c578081fd5b8235611f67816122ca565b91506020830135611f77816122ca565b809150509250929050565b600080600060608486031215611f96578081fd5b8335611fa1816122ca565b92506020840135611fb1816122ca565b929592945050506040919091013590565b60008060408385031215611fd4578182fd5b8235611fdf816122ca565b946020939093013593505050565b60006020808385031215611fff578182fd5b823567ffffffffffffffff80821115612016578384fd5b818501915085601f830112612029578384fd5b81358181111561203b5761203b6122b4565b8060051b604051601f19603f83011681018181108582111715612060576120606122b4565b604052828152858101935084860182860187018a101561207e578788fd5b8795505b838610156120a75761209381611f02565b855260019590950194938601938601612082565b5098975050505050505050565b6000602082840312156120c5578081fd5b8135611e9c816122df565b6000602082840312156120e1578081fd5b8151611e9c816122df565b6000602082840312156120fd578081fd5b5035919050565b600080600060608486031215612118578283fd5b505081359360208301359350604090920135919050565b600080600060608486031215612143578283fd5b8351925060208401519150604084015190509250925092565b6000602080835283518082850152825b818110156121885785810183015185820160400152820161216c565b818111156121995783604083870101525b50601f01601f1916929092016040019392505050565b6020808252818101527f4f776e61626c653a2063616c6c6572206973206e6f7420746865206f776e6572604082015260600190565b600060a082018783526020878185015260a0604085015281875180845260c0860191508289019350845b818110156122335784516001600160a01b03168352938301939183019160010161220e565b50506001600160a01b03969096166060850152505050608001529392505050565b600082198211156122675761226761229e565b500190565b60008282101561227e5761227e61229e565b500390565b60006000198214156122975761229761229e565b5060010190565b634e487b7160e01b600052601160045260246000fd5b634e487b7160e01b600052604160045260246000fd5b6001600160a01b0381168114610ad257600080fd5b8015158114610ad257600080fdfe45524332303a207472616e7366657220616d6f756e74206578636565647320616c6c6f77616e6365a2646970667358221220f7747f6b43a5dc652c66e9484446eaff6ee49f4af2b663f829fc6c7e6662d54d64736f6c63430008040033",
  "linkReferences": {},
  "deployedLinkReferences": {}
}