{
  "_format": "hh-sol-artifact-1",
  "contractName": "Gold1",
  "sourceName": "contracts/Gold1.sol",
  "abi": [
    {
      "anonymous": false,
      "inputs": [
        {
          "indexed": false,
          "internalType": "address",
          "name": "previousAdmin",
          "type": "address"
        },
        {
          "indexed": false,
          "internalType": "address",
          "name": "newAdmin",
          "type": "address"
        }
      ],
      "name": "AdminChanged",
      "type": "event"
    },
    {
      "anonymous": false,
      "inputs": [
        {
          "indexed": true,
          "internalType": "address",
          "name": "owner",
          "type": "address"
        },
        {
          "indexed": true,
          "internalType": "address",
          "name": "spender",
          "type": "address"
        },
        {
          "indexed": false,
          "internalType": "uint256",
          "name": "value",
          "type": "uint256"
        }
      ],
      "name": "Approval",
      "type": "event"
    },
    {
      "anonymous": false,
      "inputs": [
        {
          "indexed": true,
          "internalType": "address",
          "name": "beacon",
          "type": "address"
        }
      ],
      "name": "BeaconUpgraded",
      "type": "event"
    },
    {
      "anonymous": false,
      "inputs": [
        {
          "indexed": true,
          "internalType": "address",
          "name": "delegator",
          "type": "address"
        },
        {
          "indexed": true,
          "internalType": "address",
          "name": "fromDelegate",
          "type": "address"
        },
        {
          "indexed": true,
          "internalType": "address",
          "name": "toDelegate",
          "type": "address"
        }
      ],
      "name": "DelegateChanged",
      "type": "event"
    },
    {
      "anonymous": false,
      "inputs": [
        {
          "indexed": true,
          "internalType": "address",
          "name": "delegate",
          "type": "address"
        },
        {
          "indexed": false,
          "internalType": "uint256",
          "name": "previousBalance",
          "type": "uint256"
        },
        {
          "indexed": false,
          "internalType": "uint256",
          "name": "newBalance",
          "type": "uint256"
        }
      ],
      "name": "DelegateVotesChanged",
      "type": "event"
    },
    {
      "anonymous": false,
      "inputs": [
        {
          "indexed": true,
          "internalType": "address",
          "name": "previousOwner",
          "type": "address"
        },
        {
          "indexed": true,
          "internalType": "address",
          "name": "newOwner",
          "type": "address"
        }
      ],
      "name": "OwnershipTransferred",
      "type": "event"
    },
    {
      "anonymous": false,
      "inputs": [
        {
          "indexed": false,
          "internalType": "address",
          "name": "account",
          "type": "address"
        }
      ],
      "name": "Paused",
      "type": "event"
    },
    {
      "anonymous": false,
      "inputs": [
        {
          "indexed": false,
          "internalType": "uint256",
          "name": "taxAmount",
          "type": "uint256"
        }
      ],
      "name": "TaxUpdated",
      "type": "event"
    },
    {
      "anonymous": false,
      "inputs": [
        {
          "indexed": true,
          "internalType": "address",
          "name": "from",
          "type": "address"
        },
        {
          "indexed": true,
          "internalType": "address",
          "name": "to",
          "type": "address"
        },
        {
          "indexed": false,
          "internalType": "uint256",
          "name": "value",
          "type": "uint256"
        }
      ],
      "name": "Transfer",
      "type": "event"
    },
    {
      "anonymous": false,
      "inputs": [
        {
          "indexed": false,
          "internalType": "address",
          "name": "newTreasury",
          "type": "address"
        }
      ],
      "name": "TreasuryAddressUpdated",
      "type": "event"
    },
    {
      "anonymous": false,
      "inputs": [
        {
          "indexed": false,
          "internalType": "address",
          "name": "account",
          "type": "address"
        }
      ],
      "name": "Unpaused",
      "type": "event"
    },
    {
      "anonymous": false,
      "inputs": [
        {
          "indexed": true,
          "internalType": "address",
          "name": "implementation",
          "type": "address"
        }
      ],
      "name": "Upgraded",
      "type": "event"
    },
    {
      "anonymous": false,
      "inputs": [
        {
          "indexed": false,
          "internalType": "address",
          "name": "whitelistAccount",
          "type": "address"
        },
        {
          "indexed": false,
          "internalType": "bool",
          "name": "value",
          "type": "bool"
        }
      ],
      "name": "WhitelistAddressUpdated",
      "type": "event"
    },
    {
      "inputs": [],
      "name": "DOMAIN_SEPARATOR",
      "outputs": [
        {
          "internalType": "bytes32",
          "name": "",
          "type": "bytes32"
        }
      ],
      "stateMutability": "view",
      "type": "function"
    },
    {
      "inputs": [
        {
          "internalType": "address",
          "name": "owner",
          "type": "address"
        },
        {
          "internalType": "address",
          "name": "spender",
          "type": "address"
        }
      ],
      "name": "allowance",
      "outputs": [
        {
          "internalType": "uint256",
          "name": "",
          "type": "uint256"
        }
      ],
      "stateMutability": "view",
      "type": "function"
    },
    {
      "inputs": [
        {
          "internalType": "address",
          "name": "spender",
          "type": "address"
        },
        {
          "internalType": "uint256",
          "name": "amount",
          "type": "uint256"
        }
      ],
      "name": "approve",
      "outputs": [
        {
          "internalType": "bool",
          "name": "",
          "type": "bool"
        }
      ],
      "stateMutability": "nonpayable",
      "type": "function"
    },
    {
      "inputs": [
        {
          "internalType": "address",
          "name": "account",
          "type": "address"
        }
      ],
      "name": "balanceOf",
      "outputs": [
        {
          "internalType": "uint256",
          "name": "",
          "type": "uint256"
        }
      ],
      "stateMutability": "view",
      "type": "function"
    },
    {
      "inputs": [
        {
          "internalType": "address",
          "name": "account",
          "type": "address"
        },
        {
          "internalType": "uint32",
          "name": "pos",
          "type": "uint32"
        }
      ],
      "name": "checkpoints",
      "outputs": [
        {
          "components": [
            {
              "internalType": "uint32",
              "name": "fromBlock",
              "type": "uint32"
            },
            {
              "internalType": "uint224",
              "name": "votes",
              "type": "uint224"
            }
          ],
          "internalType": "struct ERC20VotesUpgradeable.Checkpoint",
          "name": "",
          "type": "tuple"
        }
      ],
      "stateMutability": "view",
      "type": "function"
    },
    {
      "inputs": [],
      "name": "decimals",
      "outputs": [
        {
          "internalType": "uint8",
          "name": "",
          "type": "uint8"
        }
      ],
      "stateMutability": "view",
      "type": "function"
    },
    {
      "inputs": [
        {
          "internalType": "address",
          "name": "spender",
          "type": "address"
        },
        {
          "internalType": "uint256",
          "name": "subtractedValue",
          "type": "uint256"
        }
      ],
      "name": "decreaseAllowance",
      "outputs": [
        {
          "internalType": "bool",
          "name": "",
          "type": "bool"
        }
      ],
      "stateMutability": "nonpayable",
      "type": "function"
    },
    {
      "inputs": [
        {
          "internalType": "address",
          "name": "delegatee",
          "type": "address"
        }
      ],
      "name": "delegate",
      "outputs": [],
      "stateMutability": "nonpayable",
      "type": "function"
    },
    {
      "inputs": [
        {
          "internalType": "address",
          "name": "delegatee",
          "type": "address"
        },
        {
          "internalType": "uint256",
          "name": "nonce",
          "type": "uint256"
        },
        {
          "internalType": "uint256",
          "name": "expiry",
          "type": "uint256"
        },
        {
          "internalType": "uint8",
          "name": "v",
          "type": "uint8"
        },
        {
          "internalType": "bytes32",
          "name": "r",
          "type": "bytes32"
        },
        {
          "internalType": "bytes32",
          "name": "s",
          "type": "bytes32"
        }
      ],
      "name": "delegateBySig",
      "outputs": [],
      "stateMutability": "nonpayable",
      "type": "function"
    },
    {
      "inputs": [
        {
          "internalType": "address",
          "name": "account",
          "type": "address"
        }
      ],
      "name": "delegates",
      "outputs": [
        {
          "internalType": "address",
          "name": "",
          "type": "address"
        }
      ],
      "stateMutability": "view",
      "type": "function"
    },
    {
      "inputs": [
        {
          "internalType": "address",
          "name": "account",
          "type": "address"
        }
      ],
      "name": "getCurrentVotes",
      "outputs": [
        {
          "internalType": "uint96",
          "name": "",
          "type": "uint96"
        }
      ],
      "stateMutability": "view",
      "type": "function"
    },
    {
      "inputs": [
        {
          "internalType": "uint256",
          "name": "blockNumber",
          "type": "uint256"
        }
      ],
      "name": "getPastTotalSupply",
      "outputs": [
        {
          "internalType": "uint256",
          "name": "",
          "type": "uint256"
        }
      ],
      "stateMutability": "view",
      "type": "function"
    },
    {
      "inputs": [
        {
          "internalType": "address",
          "name": "account",
          "type": "address"
        },
        {
          "internalType": "uint256",
          "name": "blockNumber",
          "type": "uint256"
        }
      ],
      "name": "getPastVotes",
      "outputs": [
        {
          "internalType": "uint256",
          "name": "",
          "type": "uint256"
        }
      ],
      "stateMutability": "view",
      "type": "function"
    },
    {
      "inputs": [
        {
          "internalType": "address",
          "name": "account",
          "type": "address"
        },
        {
          "internalType": "uint256",
          "name": "blockNumber",
          "type": "uint256"
        }
      ],
      "name": "getPriorVotes",
      "outputs": [
        {
          "internalType": "uint96",
          "name": "",
          "type": "uint96"
        }
      ],
      "stateMutability": "view",
      "type": "function"
    },
    {
      "inputs": [
        {
          "internalType": "address",
          "name": "account",
          "type": "address"
        }
      ],
      "name": "getVotes",
      "outputs": [
        {
          "internalType": "uint256",
          "name": "",
          "type": "uint256"
        }
      ],
      "stateMutability": "view",
      "type": "function"
    },
    {
      "inputs": [
        {
          "internalType": "address",
          "name": "spender",
          "type": "address"
        },
        {
          "internalType": "uint256",
          "name": "addedValue",
          "type": "uint256"
        }
      ],
      "name": "increaseAllowance",
      "outputs": [
        {
          "internalType": "bool",
          "name": "",
          "type": "bool"
        }
      ],
      "stateMutability": "nonpayable",
      "type": "function"
    },
    {
      "inputs": [
        {
          "internalType": "address",
          "name": "initialHolder",
          "type": "address"
        },
        {
          "internalType": "uint256",
          "name": "initialSupply",
          "type": "uint256"
        }
      ],
      "name": "initialize",
      "outputs": [],
      "stateMutability": "nonpayable",
      "type": "function"
    },
    {
      "inputs": [],
      "name": "name",
      "outputs": [
        {
          "internalType": "string",
          "name": "",
          "type": "string"
        }
      ],
      "stateMutability": "view",
      "type": "function"
    },
    {
      "inputs": [
        {
          "internalType": "address",
          "name": "owner",
          "type": "address"
        }
      ],
      "name": "nonces",
      "outputs": [
        {
          "internalType": "uint256",
          "name": "",
          "type": "uint256"
        }
      ],
      "stateMutability": "view",
      "type": "function"
    },
    {
      "inputs": [
        {
          "internalType": "address",
          "name": "account",
          "type": "address"
        }
      ],
      "name": "numCheckpoints",
      "outputs": [
        {
          "internalType": "uint32",
          "name": "",
          "type": "uint32"
        }
      ],
      "stateMutability": "view",
      "type": "function"
    },
    {
      "inputs": [],
      "name": "owner",
      "outputs": [
        {
          "internalType": "address",
          "name": "",
          "type": "address"
        }
      ],
      "stateMutability": "view",
      "type": "function"
    },
    {
      "inputs": [],
      "name": "paused",
      "outputs": [
        {
          "internalType": "bool",
          "name": "",
          "type": "bool"
        }
      ],
      "stateMutability": "view",
      "type": "function"
    },
    {
      "inputs": [
        {
          "internalType": "address",
          "name": "owner",
          "type": "address"
        },
        {
          "internalType": "address",
          "name": "spender",
          "type": "address"
        },
        {
          "internalType": "uint256",
          "name": "value",
          "type": "uint256"
        },
        {
          "internalType": "uint256",
          "name": "deadline",
          "type": "uint256"
        },
        {
          "internalType": "uint8",
          "name": "v",
          "type": "uint8"
        },
        {
          "internalType": "bytes32",
          "name": "r",
          "type": "bytes32"
        },
        {
          "internalType": "bytes32",
          "name": "s",
          "type": "bytes32"
        }
      ],
      "name": "permit",
      "outputs": [],
      "stateMutability": "nonpayable",
      "type": "function"
    },
    {
      "inputs": [],
      "name": "renounceOwnership",
      "outputs": [],
      "stateMutability": "nonpayable",
      "type": "function"
    },
    {
      "inputs": [
        {
          "internalType": "uint256",
          "name": "_tax",
          "type": "uint256"
        }
      ],
      "name": "setTax",
      "outputs": [],
      "stateMutability": "nonpayable",
      "type": "function"
    },
    {
      "inputs": [
        {
          "internalType": "address",
          "name": "_treasury",
          "type": "address"
        }
      ],
      "name": "setTreasuryAddress",
      "outputs": [],
      "stateMutability": "nonpayable",
      "type": "function"
    },
    {
      "inputs": [
        {
          "internalType": "address",
          "name": "_whitelist",
          "type": "address"
        },
        {
          "internalType": "bool",
          "name": "_status",
          "type": "bool"
        }
      ],
      "name": "setWhitelistAddress",
      "outputs": [],
      "stateMutability": "nonpayable",
      "type": "function"
    },
    {
      "inputs": [],
      "name": "symbol",
      "outputs": [
        {
          "internalType": "string",
          "name": "",
          "type": "string"
        }
      ],
      "stateMutability": "view",
      "type": "function"
    },
    {
      "inputs": [],
      "name": "tax",
      "outputs": [
        {
          "internalType": "uint256",
          "name": "",
          "type": "uint256"
        }
      ],
      "stateMutability": "view",
      "type": "function"
    },
    {
      "inputs": [],
      "name": "totalSupply",
      "outputs": [
        {
          "internalType": "uint256",
          "name": "",
          "type": "uint256"
        }
      ],
      "stateMutability": "view",
      "type": "function"
    },
    {
      "inputs": [
        {
          "internalType": "address",
          "name": "recipient",
          "type": "address"
        },
        {
          "internalType": "uint256",
          "name": "amount",
          "type": "uint256"
        }
      ],
      "name": "transfer",
      "outputs": [
        {
          "internalType": "bool",
          "name": "",
          "type": "bool"
        }
      ],
      "stateMutability": "nonpayable",
      "type": "function"
    },
    {
      "inputs": [
        {
          "internalType": "address",
          "name": "sender",
          "type": "address"
        },
        {
          "internalType": "address",
          "name": "recipient",
          "type": "address"
        },
        {
          "internalType": "uint256",
          "name": "amount",
          "type": "uint256"
        }
      ],
      "name": "transferFrom",
      "outputs": [
        {
          "internalType": "bool",
          "name": "",
          "type": "bool"
        }
      ],
      "stateMutability": "nonpayable",
      "type": "function"
    },
    {
      "inputs": [
        {
          "internalType": "address",
          "name": "newOwner",
          "type": "address"
        }
      ],
      "name": "transferOwnership",
      "outputs": [],
      "stateMutability": "nonpayable",
      "type": "function"
    },
    {
      "inputs": [],
      "name": "treasury",
      "outputs": [
        {
          "internalType": "address",
          "name": "",
          "type": "address"
        }
      ],
      "stateMutability": "view",
      "type": "function"
    },
    {
      "inputs": [
        {
          "internalType": "address",
          "name": "newImplementation",
          "type": "address"
        }
      ],
      "name": "upgradeTo",
      "outputs": [],
      "stateMutability": "nonpayable",
      "type": "function"
    },
    {
      "inputs": [
        {
          "internalType": "address",
          "name": "newImplementation",
          "type": "address"
        },
        {
          "internalType": "bytes",
          "name": "data",
          "type": "bytes"
        }
      ],
      "name": "upgradeToAndCall",
      "outputs": [],
      "stateMutability": "payable",
      "type": "function"
    },
    {
      "inputs": [
        {
          "internalType": "address",
          "name": "",
          "type": "address"
        }
      ],
      "name": "whitelistedAddress",
      "outputs": [
        {
          "internalType": "bool",
          "name": "",
          "type": "bool"
        }
      ],
      "stateMutability": "view",
      "type": "function"
    }
  ],
  "bytecode": "0x60a06040523060601b60805234801561001757600080fd5b5060805160601c61318861004b600039600081816109350152818161097501528181610b9d0152610bdd01526131886000f3fe60806040526004361061021a5760003560e01c806370a0823111610123578063a457c2d7116100ab578063cd6dc6871161006f578063cd6dc6871461066a578063d505accf1461068a578063dd62ed3e146106aa578063f1127ed8146106f0578063f2fde38b1461073a5761021a565b8063a457c2d7146105b9578063a9059cbb146105d9578063b4b5ea57146105f9578063c30796ab14610619578063c3cda5201461064a5761021a565b80638da5cb5b116100f25780638da5cb5b1461052e5780638e539e8c1461054d57806395d89b411461056d57806399c8d556146105825780639ab24eb0146105995761021a565b806370a0823114610486578063715018a6146104bc578063782d6fe1146104d15780637ecebe001461050e5761021a565b80633a46b1a8116101a65780635c19a95c116101755780635c19a95c146103d75780635c975abb146103f757806361d027b3146104105780636605bfda146104315780636fcfff45146104515761021a565b80633a46b1a81461034c5780633f914aef1461036c5780634f1ef2861461038c578063587cde1e1461039f5761021a565b80632e5bb6ff116101ed5780632e5bb6ff146102b9578063313ce567146102db5780633644e515146102f75780633659cfe61461030c578063395093511461032c5761021a565b806306fdde031461021f578063095ea7b31461024a57806318160ddd1461027a57806323b872dd14610299575b600080fd5b34801561022b57600080fd5b5061023461075a565b6040516102419190612ee5565b60405180910390f35b34801561025657600080fd5b5061026a610265366004612dfe565b6107ec565b6040519015158152602001610241565b34801561028657600080fd5b506099545b604051908152602001610241565b3480156102a557600080fd5b5061026a6102b4366004612c63565b610802565b3480156102c557600080fd5b506102d96102d4366004612eb1565b6108b3565b005b3480156102e757600080fd5b5060405160128152602001610241565b34801561030357600080fd5b5061028b61091b565b34801561031857600080fd5b506102d9610327366004612c17565b61092a565b34801561033857600080fd5b5061026a610347366004612dfe565b6109f3565b34801561035857600080fd5b5061028b610367366004612dfe565b610a2f565b34801561037857600080fd5b506102d9610387366004612d07565b610aa3565b6102d961039a366004612d41565b610b92565b3480156103ab57600080fd5b506103bf6103ba366004612c17565b610c4c565b6040516001600160a01b039091168152602001610241565b3480156103e357600080fd5b506102d96103f2366004612c17565b610c6e565b34801561040357600080fd5b506101c65460ff1661026a565b34801561041c57600080fd5b506101f8546103bf906001600160a01b031681565b34801561043d57600080fd5b506102d961044c366004612c17565b610c78565b34801561045d57600080fd5b5061047161046c366004612c17565b610d63565b60405163ffffffff9091168152602001610241565b34801561049257600080fd5b5061028b6104a1366004612c17565b6001600160a01b031660009081526097602052604090205490565b3480156104c857600080fd5b506102d9610d8c565b3480156104dd57600080fd5b506104f16104ec366004612dfe565b610dc3565b6040516bffffffffffffffffffffffff9091168152602001610241565b34801561051a57600080fd5b5061028b610529366004612c17565b610dd7565b34801561053a57600080fd5b50610194546001600160a01b03166103bf565b34801561055957600080fd5b5061028b610568366004612eb1565b610df5565b34801561057957600080fd5b50610234610e52565b34801561058e57600080fd5b5061028b6101f95481565b3480156105a557600080fd5b5061028b6105b4366004612c17565b610e61565b3480156105c557600080fd5b5061026a6105d4366004612dfe565b610ef8565b3480156105e557600080fd5b5061026a6105f4366004612dfe565b610f91565b34801561060557600080fd5b506104f1610614366004612c17565b610f9e565b34801561062557600080fd5b5061026a610634366004612c17565b6101fa6020526000908152604090205460ff1681565b34801561065657600080fd5b506102d9610665366004612e27565b610fac565b34801561067657600080fd5b506102d9610685366004612dfe565b6110e2565b34801561069657600080fd5b506102d96106a5366004612c9e565b611243565b3480156106b657600080fd5b5061028b6106c5366004612c31565b6001600160a01b03918216600090815260986020908152604080832093909416825291909152205490565b3480156106fc57600080fd5b5061071061070b366004612e7e565b611389565b60408051825163ffffffff1681526020928301516001600160e01b03169281019290925201610241565b34801561074657600080fd5b506102d9610755366004612c17565b61141c565b6060609a8054610769906130ca565b80601f0160208091040260200160405190810160405280929190818152602001828054610795906130ca565b80156107e25780601f106107b7576101008083540402835291602001916107e2565b820191906000526020600020905b8154815290600101906020018083116107c557829003601f168201915b5050505050905090565b60006107f93384846114b5565b50600192915050565b600061080f8484846115d9565b6001600160a01b0384166000908152609860209081526040808320338452909152902054828110156108995760405162461bcd60e51b815260206004820152602860248201527f45524332303a207472616e7366657220616d6f756e74206578636565647320616044820152676c6c6f77616e636560c01b60648201526084015b60405180910390fd5b6108a685338584036114b5565b60019150505b9392505050565b610194546001600160a01b031633146108de5760405162461bcd60e51b815260040161089090612fb0565b6101f98190556040518181527f35ad15e7f5e4a16b548e8916bd02c51847dde8d106f334b4edaaacf140e43c91906020015b60405180910390a150565b60006109256116f2565b905090565b306001600160a01b037f00000000000000000000000000000000000000000000000000000000000000001614156109735760405162461bcd60e51b815260040161089090612f18565b7f00000000000000000000000000000000000000000000000000000000000000006001600160a01b03166109a561176d565b6001600160a01b0316146109cb5760405162461bcd60e51b815260040161089090612f64565b6109d48161179b565b604080516000808252602082019092526109f091839190611813565b50565b3360008181526098602090815260408083206001600160a01b038716845290915281205490916107f9918590610a2a908690613030565b6114b5565b6000438210610a805760405162461bcd60e51b815260206004820152601f60248201527f4552433230566f7465733a20626c6f636b206e6f7420796574206d696e6564006044820152606401610890565b6001600160a01b0383166000908152610131602052604090206108ac908361195e565b610194546001600160a01b03163314610ace5760405162461bcd60e51b815260040161089090612fb0565b6001600160a01b038216610b2e5760405162461bcd60e51b815260206004820152602160248201527f73657457686974656c697374416464726573733a205a65726f206164647265736044820152607360f81b6064820152608401610890565b6001600160a01b03821660008181526101fa6020908152604091829020805460ff19168515159081179091558251938452908301527fc03feb136ee85ef1974671b8c663f063c37bc61afb187b94ddfb1a959d73d180910160405180910390a15050565b306001600160a01b037f0000000000000000000000000000000000000000000000000000000000000000161415610bdb5760405162461bcd60e51b815260040161089090612f18565b7f00000000000000000000000000000000000000000000000000000000000000006001600160a01b0316610c0d61176d565b6001600160a01b031614610c335760405162461bcd60e51b815260040161089090612f64565b610c3c8261179b565b610c4882826001611813565b5050565b6001600160a01b0380821660009081526101306020526040902054165b919050565b6109f03382611a37565b610194546001600160a01b03163314610ca35760405162461bcd60e51b815260040161089090612fb0565b6001600160a01b038116610cf95760405162461bcd60e51b815260206004820181905260248201527f7365745472656173757279416464726573733a205a65726f20616464726573736044820152606401610890565b6101f880546001600160a01b0319166001600160a01b03831690811790915560008181526101fa6020908152604091829020805460ff1916600117905590519182527fb6a5e89655cf506139085f051af608195ed056f8dc550b180a1c38d401e2b6c49101610910565b6001600160a01b03811660009081526101316020526040812054610d8690611ad4565b92915050565b610194546001600160a01b03163314610db75760405162461bcd60e51b815260040161089090612fb0565b610dc16000611b3d565b565b60006108ac610dd28484610a2f565b611b90565b6001600160a01b038116600090815260fd6020526040812054610d86565b6000438210610e465760405162461bcd60e51b815260206004820152601f60248201527f4552433230566f7465733a20626c6f636b206e6f7420796574206d696e6564006044820152606401610890565b610d866101328361195e565b6060609b8054610769906130ca565b6001600160a01b038116600090815261013160205260408120548015610ee5576001600160a01b038316600090815261013160205260409020610ea5600183613087565b81548110610ec357634e487b7160e01b600052603260045260246000fd5b60009182526020909120015464010000000090046001600160e01b0316610ee8565b60005b6001600160e01b03169392505050565b3360009081526098602090815260408083206001600160a01b038616845290915281205482811015610f7a5760405162461bcd60e51b815260206004820152602560248201527f45524332303a2064656372656173656420616c6c6f77616e63652062656c6f77604482015264207a65726f60d81b6064820152608401610890565b610f8733858584036114b5565b5060019392505050565b60006107f93384846115d9565b6000610d86610dd283610e61565b83421115610ffc5760405162461bcd60e51b815260206004820152601d60248201527f4552433230566f7465733a207369676e617475726520657870697265640000006044820152606401610890565b604080517fe48329057bfd03d55e49b547132e39cffd9c1820ad7b9d4c5307691425d15adf60208201526001600160a01b0388169181019190915260608101869052608081018590526000906110769061106e9060a00160405160208183030381529060405280519060200120611bfd565b858585611c4b565b905061108181611c73565b86146110cf5760405162461bcd60e51b815260206004820152601960248201527f4552433230566f7465733a20696e76616c6964206e6f6e6365000000000000006044820152606401610890565b6110d98188611a37565b50505050505050565b600054610100900460ff166110fd5760005460ff1615611101565b303b155b6111645760405162461bcd60e51b815260206004820152602e60248201527f496e697469616c697a61626c653a20636f6e747261637420697320616c72656160448201526d191e481a5b9a5d1a585b1a5e995960921b6064820152608401610890565b600054610100900460ff1615801561118f576000805460ff1961ff0019909116610100171660011790555b611197611c9b565b6111dd60405180604001604052806006815260200165476f6c64203160d01b81525060405180604001604052806006815260200165474f4c44203160d01b815250611cd2565b61120460405180604001604052806006815260200165476f6c64203160d01b815250611d0b565b61120c611d66565b611214611d8d565b61121c611d66565b6112268383611dc1565b60046101f955801561123e576000805461ff00191690555b505050565b834211156112935760405162461bcd60e51b815260206004820152601d60248201527f45524332305065726d69743a206578706972656420646561646c696e650000006044820152606401610890565b600060fe548888886112a48c611c73565b6040805160208101969096526001600160a01b0394851690860152929091166060840152608083015260a082015260c0810186905260e00160405160208183030381529060405280519060200120905060006112ff82611bfd565b9050600061130f82878787611c4b565b9050896001600160a01b0316816001600160a01b0316146113725760405162461bcd60e51b815260206004820152601e60248201527f45524332305065726d69743a20696e76616c6964207369676e617475726500006044820152606401610890565b61137d8a8a8a6114b5565b50505050505050505050565b60408051808201909152600080825260208201526001600160a01b038316600090815261013160205260409020805463ffffffff84169081106113dc57634e487b7160e01b600052603260045260246000fd5b60009182526020918290206040805180820190915291015463ffffffff8116825264010000000090046001600160e01b0316918101919091529392505050565b610194546001600160a01b031633146114475760405162461bcd60e51b815260040161089090612fb0565b6001600160a01b0381166114ac5760405162461bcd60e51b815260206004820152602660248201527f4f776e61626c653a206e6577206f776e657220697320746865207a65726f206160448201526564647265737360d01b6064820152608401610890565b6109f081611b3d565b6001600160a01b0383166115175760405162461bcd60e51b8152602060048201526024808201527f45524332303a20617070726f76652066726f6d20746865207a65726f206164646044820152637265737360e01b6064820152608401610890565b6001600160a01b0382166115785760405162461bcd60e51b815260206004820152602260248201527f45524332303a20617070726f766520746f20746865207a65726f206164647265604482015261737360f01b6064820152608401610890565b6001600160a01b0383811660008181526098602090815260408083209487168084529482529182902085905590518481527f8c5be1e5ebec7d5bd14f71427d1e84f3dd0314c0f7b2291e5b200ac8c7c3b925910160405180910390a3505050565b6001600160a01b03831660009081526101fa602052604090205460ff168061161a57506001600160a01b03821660009081526101fa602052604090205460ff165b1561162f5761162a838383611dcb565b61123e565b60006116536103e861164d6101f95485611faa90919063ffffffff16565b90611fb6565b6101f85490915061166f9085906001600160a01b031683611dcb565b611683848461167e8585611fc2565b611dcb565b6101f860009054906101000a90046001600160a01b03166001600160a01b031663a1485f646040518163ffffffff1660e01b8152600401600060405180830381600087803b1580156116d457600080fd5b505af11580156116e8573d6000803e3d6000fd5b5050505050505050565b60006109257f8b73c3c69bb8fe3d512ecc4cf759cc79239f7b179b0ffacaa9a75d522b39400f61172160c95490565b60ca546040805160208101859052908101839052606081018290524660808201523060a082015260009060c0016040516020818303038152906040528051906020012090509392505050565b7f360894a13ba1a3210667c828492db98dca3e2076cc3735a920a3ca505d382bbc546001600160a01b031690565b336117af610194546001600160a01b031690565b6001600160a01b0316146109f05760405162461bcd60e51b815260206004820152602560248201527f4f6e6c79206f776e65722063616e207570677261646520696d706c656d656e7460448201526430ba34b7b760d91b6064820152608401610890565b600061181d61176d565b905061182884611fce565b6000835111806118355750815b15611846576118448484612073565b505b7f4910fdfa16fed3260ed0e7147f7cc6da11a60208b5b9406d12a635614ffd9143805460ff1661195757805460ff191660011781556040516001600160a01b03831660248201526118c590869060440160408051601f198184030181529190526020810180516001600160e01b0316631b2ce7f360e11b179052612073565b50805460ff191681556118d661176d565b6001600160a01b0316826001600160a01b03161461194e5760405162461bcd60e51b815260206004820152602f60248201527f45524331393637557067726164653a207570677261646520627265616b73206660448201526e75727468657220757067726164657360881b6064820152608401610890565b6119578561215e565b5050505050565b8154600090815b818110156119d0576000611979828461219e565b90508486828154811061199c57634e487b7160e01b600052603260045260246000fd5b60009182526020909120015463ffffffff1611156119bc578092506119ca565b6119c7816001613030565b91505b50611965565b8115611a2257846119e2600184613087565b81548110611a0057634e487b7160e01b600052603260045260246000fd5b60009182526020909120015464010000000090046001600160e01b0316611a25565b60005b6001600160e01b031695945050505050565b6000611a4283610c4c565b90506000611a65846001600160a01b031660009081526097602052604090205490565b6001600160a01b038581166000818152610130602052604080822080546001600160a01b031916898616908117909155905194955093928616927f3134e8a2e6d97e929a7e54011ea5485d7d196dd5f0ba4d4ef95803e8e3fc257f9190a4611ace8284836121b9565b50505050565b600063ffffffff821115611b395760405162461bcd60e51b815260206004820152602660248201527f53616665436173743a2076616c756520646f65736e27742066697420696e203360448201526532206269747360d01b6064820152608401610890565b5090565b61019480546001600160a01b038381166001600160a01b0319831681179093556040519116919082907f8be0079c531659141344cd1fd0a4f28419497f9722a3daafe3b4186f6b6457e090600090a35050565b60006bffffffffffffffffffffffff821115611b395760405162461bcd60e51b815260206004820152602660248201527f53616665436173743a2076616c756520646f65736e27742066697420696e203960448201526536206269747360d01b6064820152608401610890565b6000610d86611c0a6116f2565b8360405161190160f01b6020820152602281018390526042810182905260009060620160405160208183030381529060405280519060200120905092915050565b6000806000611c5c878787876122f8565b91509150611c69816123e5565b5095945050505050565b6001600160a01b038116600090815260fd602052604090208054600181018255905b50919050565b600054610100900460ff16611cc25760405162461bcd60e51b815260040161089090612fe5565b611cca611d66565b610dc16125e8565b600054610100900460ff16611cf95760405162461bcd60e51b815260040161089090612fe5565b611d01611d66565b610c488282612618565b600054610100900460ff16611d325760405162461bcd60e51b815260040161089090612fe5565b611d3a611d66565b611d5d81604051806040016040528060018152602001603160f81b815250612666565b6109f0816126a7565b600054610100900460ff16610dc15760405162461bcd60e51b815260040161089090612fe5565b600054610100900460ff16611db45760405162461bcd60e51b815260040161089090612fe5565b6101c6805460ff19169055565b610c4882826126f5565b6001600160a01b038316611e2f5760405162461bcd60e51b815260206004820152602560248201527f45524332303a207472616e736665722066726f6d20746865207a65726f206164604482015264647265737360d81b6064820152608401610890565b6001600160a01b038216611e915760405162461bcd60e51b815260206004820152602360248201527f45524332303a207472616e7366657220746f20746865207a65726f206164647260448201526265737360e81b6064820152608401610890565b611e9c838383612780565b6001600160a01b03831660009081526097602052604090205481811015611f145760405162461bcd60e51b815260206004820152602660248201527f45524332303a207472616e7366657220616d6f756e7420657863656564732062604482015265616c616e636560d01b6064820152608401610890565b6001600160a01b03808516600090815260976020526040808220858503905591851681529081208054849290611f4b908490613030565b92505081905550826001600160a01b0316846001600160a01b03167fddf252ad1be2c89b69c2b068fc378daa952ba7f163c4a11628f55a4df523b3ef84604051611f9791815260200190565b60405180910390a3611ace8484846127e7565b60006108ac8284613068565b60006108ac8284613048565b60006108ac8284613087565b803b6120325760405162461bcd60e51b815260206004820152602d60248201527f455243313936373a206e657720696d706c656d656e746174696f6e206973206e60448201526c1bdd08184818dbdb9d1c9858dd609a1b6064820152608401610890565b7f360894a13ba1a3210667c828492db98dca3e2076cc3735a920a3ca505d382bbc80546001600160a01b0319166001600160a01b0392909216919091179055565b6060823b6120d25760405162461bcd60e51b815260206004820152602660248201527f416464726573733a2064656c65676174652063616c6c20746f206e6f6e2d636f6044820152651b9d1c9858dd60d21b6064820152608401610890565b600080846001600160a01b0316846040516120ed9190612ec9565b600060405180830381855af49150503d8060008114612128576040519150601f19603f3d011682016040523d82523d6000602084013e61212d565b606091505b5091509150612155828260405180606001604052806027815260200161312c602791396127f2565b95945050505050565b61216781611fce565b6040516001600160a01b038216907fbc7cd75a20ee27fd9adebab32041f755214dbc6bffa90cc0225b39da2e5c2d3b90600090a250565b60006121ad6002848418613048565b6108ac90848416613030565b816001600160a01b0316836001600160a01b0316141580156121db5750600081115b1561123e576001600160a01b0383161561226a576001600160a01b038316600090815261013160205260408120819061221790611fc28561282b565b91509150846001600160a01b03167fdec2bacdd2f05b59de34da9b523dff8be42e5e38e818c82fdb0bae774387a724838360405161225f929190918252602082015260400190565b60405180910390a250505b6001600160a01b0382161561123e576001600160a01b03821660009081526101316020526040812081906122a1906129dc8561282b565b91509150836001600160a01b03167fdec2bacdd2f05b59de34da9b523dff8be42e5e38e818c82fdb0bae774387a72483836040516122e9929190918252602082015260400190565b60405180910390a25050505050565b6000807f7fffffffffffffffffffffffffffffff5d576e7357a4501ddfe92f46681b20a083111561232f57506000905060036123dc565b8460ff16601b1415801561234757508460ff16601c14155b1561235857506000905060046123dc565b6040805160008082526020820180845289905260ff881692820192909252606081018690526080810185905260019060a0016020604051602081039080840390855afa1580156123ac573d6000803e3d6000fd5b5050604051601f1901519150506001600160a01b0381166123d5576000600192509250506123dc565b9150600090505b94509492505050565b600081600481111561240757634e487b7160e01b600052602160045260246000fd5b1415612412576109f0565b600181600481111561243457634e487b7160e01b600052602160045260246000fd5b14156124825760405162461bcd60e51b815260206004820152601860248201527f45434453413a20696e76616c6964207369676e617475726500000000000000006044820152606401610890565b60028160048111156124a457634e487b7160e01b600052602160045260246000fd5b14156124f25760405162461bcd60e51b815260206004820152601f60248201527f45434453413a20696e76616c6964207369676e6174757265206c656e677468006044820152606401610890565b600381600481111561251457634e487b7160e01b600052602160045260246000fd5b141561256d5760405162461bcd60e51b815260206004820152602260248201527f45434453413a20696e76616c6964207369676e6174757265202773272076616c604482015261756560f01b6064820152608401610890565b600481600481111561258f57634e487b7160e01b600052602160045260246000fd5b14156109f05760405162461bcd60e51b815260206004820152602260248201527f45434453413a20696e76616c6964207369676e6174757265202776272076616c604482015261756560f01b6064820152608401610890565b600054610100900460ff1661260f5760405162461bcd60e51b815260040161089090612fe5565b610dc133611b3d565b600054610100900460ff1661263f5760405162461bcd60e51b815260040161089090612fe5565b815161265290609a906020850190612b5f565b50805161123e90609b906020840190612b5f565b600054610100900460ff1661268d5760405162461bcd60e51b815260040161089090612fe5565b81516020928301208151919092012060c99190915560ca55565b600054610100900460ff166126ce5760405162461bcd60e51b815260040161089090612fe5565b507f6e71edae12b1b97f4d1f60370fef10105fa2faae0126114a169c64845d6126c960fe55565b6126ff82826129e8565b6099546001600160e01b0310156127715760405162461bcd60e51b815260206004820152603060248201527f4552433230566f7465733a20746f74616c20737570706c79207269736b73206f60448201526f766572666c6f77696e6720766f74657360801b6064820152608401610890565b611ace6101326129dc8361282b565b6101c65460ff161561123e5760405162461bcd60e51b815260206004820152602a60248201527f45524332305061757361626c653a20746f6b656e207472616e736665722077686044820152691a5b19481c185d5cd95960b21b6064820152608401610890565b61123e838383612adb565b606083156128015750816108ac565b8251156128115782518084602001fd5b8160405162461bcd60e51b81526004016108909190612ee5565b8254600090819080156128845785612844600183613087565b8154811061286257634e487b7160e01b600052603260045260246000fd5b60009182526020909120015464010000000090046001600160e01b0316612887565b60005b6001600160e01b031692506128a083858763ffffffff16565b91506000811180156128ec575043866128ba600184613087565b815481106128d857634e487b7160e01b600052603260045260246000fd5b60009182526020909120015463ffffffff16145b1561295a576128fa82612af6565b86612906600184613087565b8154811061292457634e487b7160e01b600052603260045260246000fd5b9060005260206000200160000160046101000a8154816001600160e01b0302191690836001600160e01b031602179055506129d3565b85604051806040016040528061296f43611ad4565b63ffffffff16815260200161298385612af6565b6001600160e01b039081169091528254600181018455600093845260209384902083519101805493909401519091166401000000000263ffffffff91821663ffffffff1990931692909217161790555b50935093915050565b60006108ac8284613030565b6001600160a01b038216612a3e5760405162461bcd60e51b815260206004820152601f60248201527f45524332303a206d696e7420746f20746865207a65726f2061646472657373006044820152606401610890565b612a4a60008383612780565b8060996000828254612a5c9190613030565b90915550506001600160a01b03821660009081526097602052604081208054839290612a89908490613030565b90915550506040518181526001600160a01b038316906000907fddf252ad1be2c89b69c2b068fc378daa952ba7f163c4a11628f55a4df523b3ef9060200160405180910390a3610c48600083836127e7565b61123e612ae784610c4c565b612af084610c4c565b836121b9565b60006001600160e01b03821115611b395760405162461bcd60e51b815260206004820152602760248201527f53616665436173743a2076616c756520646f65736e27742066697420696e20326044820152663234206269747360c81b6064820152608401610890565b828054612b6b906130ca565b90600052602060002090601f016020900481019282612b8d5760008555612bd3565b82601f10612ba657805160ff1916838001178555612bd3565b82800160010185558215612bd3579182015b82811115612bd3578251825591602001919060010190612bb8565b50611b399291505b80821115611b395760008155600101612bdb565b80356001600160a01b0381168114610c6957600080fd5b803560ff81168114610c6957600080fd5b600060208284031215612c28578081fd5b6108ac82612bef565b60008060408385031215612c43578081fd5b612c4c83612bef565b9150612c5a60208401612bef565b90509250929050565b600080600060608486031215612c77578081fd5b612c8084612bef565b9250612c8e60208501612bef565b9150604084013590509250925092565b600080600080600080600060e0888a031215612cb8578283fd5b612cc188612bef565b9650612ccf60208901612bef565b95506040880135945060608801359350612ceb60808901612c06565b925060a0880135915060c0880135905092959891949750929550565b60008060408385031215612d19578182fd5b612d2283612bef565b915060208301358015158114612d36578182fd5b809150509250929050565b60008060408385031215612d53578182fd5b612d5c83612bef565b9150602083013567ffffffffffffffff80821115612d78578283fd5b818501915085601f830112612d8b578283fd5b813581811115612d9d57612d9d613115565b604051601f8201601f19908116603f01168101908382118183101715612dc557612dc5613115565b81604052828152886020848701011115612ddd578586fd5b82602086016020830137856020848301015280955050505050509250929050565b60008060408385031215612e10578182fd5b612e1983612bef565b946020939093013593505050565b60008060008060008060c08789031215612e3f578182fd5b612e4887612bef565b95506020870135945060408701359350612e6460608801612c06565b92506080870135915060a087013590509295509295509295565b60008060408385031215612e90578182fd5b612e9983612bef565b9150602083013563ffffffff81168114612d36578182fd5b600060208284031215612ec2578081fd5b5035919050565b60008251612edb81846020870161309e565b9190910192915050565b6000602082528251806020840152612f0481604085016020870161309e565b601f01601f19169190910160400192915050565b6020808252602c908201527f46756e6374696f6e206d7573742062652063616c6c6564207468726f7567682060408201526b19195b1959d85d1958d85b1b60a21b606082015260800190565b6020808252602c908201527f46756e6374696f6e206d7573742062652063616c6c6564207468726f7567682060408201526b6163746976652070726f787960a01b606082015260800190565b6020808252818101527f4f776e61626c653a2063616c6c6572206973206e6f7420746865206f776e6572604082015260600190565b6020808252602b908201527f496e697469616c697a61626c653a20636f6e7472616374206973206e6f74206960408201526a6e697469616c697a696e6760a81b606082015260800190565b60008219821115613043576130436130ff565b500190565b60008261306357634e487b7160e01b81526012600452602481fd5b500490565b6000816000190483118215151615613082576130826130ff565b500290565b600082821015613099576130996130ff565b500390565b60005b838110156130b95781810151838201526020016130a1565b83811115611ace5750506000910152565b6002810460018216806130de57607f821691505b60208210811415611c9557634e487b7160e01b600052602260045260246000fd5b634e487b7160e01b600052601160045260246000fd5b634e487b7160e01b600052604160045260246000fdfe416464726573733a206c6f772d6c6576656c2064656c65676174652063616c6c206661696c6564a2646970667358221220f6895435cf71bb1e87a4cd71302e81a86a9307c675b6fdbd403482f19dbf465964736f6c63430008020033",
  "linkReferences": {},
  "deployedLinkReferences": {}
}