{
  "_format": "hh-sol-artifact-1",
  "contractName": "Gold1",
  "sourceName": "contracts/Gold1Live.sol",
  "abi": [
    {
      "inputs": [],
      "stateMutability": "nonpayable",
      "type": "constructor"
    },
    {
      "anonymous": false,
      "inputs": [
        {
          "indexed": true,
          "internalType": "address",
          "name": "owner",
          "type": "address"
        },
        {
          "indexed": true,
          "internalType": "address",
          "name": "spender",
          "type": "address"
        },
        {
          "indexed": false,
          "internalType": "uint256",
          "name": "value",
          "type": "uint256"
        }
      ],
      "name": "Approval",
      "type": "event"
    },
    {
      "anonymous": false,
      "inputs": [
        {
          "indexed": false,
          "internalType": "uint256",
          "name": "_maxBuyAmount",
          "type": "uint256"
        }
      ],
      "name": "MaxBuyAmountUpdated",
      "type": "event"
    },
    {
      "anonymous": false,
      "inputs": [
        {
          "indexed": false,
          "internalType": "uint256",
          "name": "_maxSellAmount",
          "type": "uint256"
        }
      ],
      "name": "MaxSellAmountUpdated",
      "type": "event"
    },
    {
      "anonymous": false,
      "inputs": [
        {
          "indexed": true,
          "internalType": "address",
          "name": "previousOwner",
          "type": "address"
        },
        {
          "indexed": true,
          "internalType": "address",
          "name": "newOwner",
          "type": "address"
        }
      ],
      "name": "OwnershipTransferred",
      "type": "event"
    },
    {
      "anonymous": false,
      "inputs": [
        {
          "indexed": false,
          "internalType": "uint256",
          "name": "tokensSwapped",
          "type": "uint256"
        },
        {
          "indexed": false,
          "internalType": "uint256",
          "name": "ethReceived",
          "type": "uint256"
        },
        {
          "indexed": false,
          "internalType": "uint256",
          "name": "tokensIntoLiquidity",
          "type": "uint256"
        }
      ],
      "name": "SwapAndLiquify",
      "type": "event"
    },
    {
      "anonymous": false,
      "inputs": [
        {
          "indexed": true,
          "internalType": "address",
          "name": "from",
          "type": "address"
        },
        {
          "indexed": true,
          "internalType": "address",
          "name": "to",
          "type": "address"
        },
        {
          "indexed": false,
          "internalType": "uint256",
          "name": "value",
          "type": "uint256"
        }
      ],
      "name": "Transfer",
      "type": "event"
    },
    {
      "inputs": [
        {
          "internalType": "address",
          "name": "owner",
          "type": "address"
        },
        {
          "internalType": "address",
          "name": "spender",
          "type": "address"
        }
      ],
      "name": "allowance",
      "outputs": [
        {
          "internalType": "uint256",
          "name": "",
          "type": "uint256"
        }
      ],
      "stateMutability": "view",
      "type": "function"
    },
    {
      "inputs": [
        {
          "internalType": "address",
          "name": "spender",
          "type": "address"
        },
        {
          "internalType": "uint256",
          "name": "amount",
          "type": "uint256"
        }
      ],
      "name": "approve",
      "outputs": [
        {
          "internalType": "bool",
          "name": "",
          "type": "bool"
        }
      ],
      "stateMutability": "nonpayable",
      "type": "function"
    },
    {
      "inputs": [
        {
          "internalType": "address",
          "name": "account",
          "type": "address"
        }
      ],
      "name": "balanceOf",
      "outputs": [
        {
          "internalType": "uint256",
          "name": "",
          "type": "uint256"
        }
      ],
      "stateMutability": "view",
      "type": "function"
    },
    {
      "inputs": [],
      "name": "decimals",
      "outputs": [
        {
          "internalType": "uint8",
          "name": "",
          "type": "uint8"
        }
      ],
      "stateMutability": "pure",
      "type": "function"
    },
    {
      "inputs": [
        {
          "internalType": "address",
          "name": "notbot",
          "type": "address"
        }
      ],
      "name": "delBot",
      "outputs": [],
      "stateMutability": "nonpayable",
      "type": "function"
    },
    {
      "inputs": [
        {
          "internalType": "address",
          "name": "account",
          "type": "address"
        }
      ],
      "name": "excludeFromFee",
      "outputs": [],
      "stateMutability": "nonpayable",
      "type": "function"
    },
    {
      "inputs": [
        {
          "internalType": "address",
          "name": "account",
          "type": "address"
        }
      ],
      "name": "includeInFee",
      "outputs": [],
      "stateMutability": "nonpayable",
      "type": "function"
    },
    {
      "inputs": [],
      "name": "manualsend",
      "outputs": [],
      "stateMutability": "nonpayable",
      "type": "function"
    },
    {
      "inputs": [],
      "name": "manualswap",
      "outputs": [],
      "stateMutability": "nonpayable",
      "type": "function"
    },
    {
      "inputs": [],
      "name": "name",
      "outputs": [
        {
          "internalType": "string",
          "name": "",
          "type": "string"
        }
      ],
      "stateMutability": "pure",
      "type": "function"
    },
    {
      "inputs": [],
      "name": "openTrading",
      "outputs": [],
      "stateMutability": "nonpayable",
      "type": "function"
    },
    {
      "inputs": [],
      "name": "owner",
      "outputs": [
        {
          "internalType": "address",
          "name": "",
          "type": "address"
        }
      ],
      "stateMutability": "view",
      "type": "function"
    },
    {
      "inputs": [],
      "name": "renounceOwnership",
      "outputs": [],
      "stateMutability": "nonpayable",
      "type": "function"
    },
    {
      "inputs": [
        {
          "internalType": "uint256",
          "name": "blocks",
          "type": "uint256"
        }
      ],
      "name": "setBlocksToBlacklist",
      "outputs": [],
      "stateMutability": "nonpayable",
      "type": "function"
    },
    {
      "inputs": [
        {
          "internalType": "address[]",
          "name": "bots_",
          "type": "address[]"
        }
      ],
      "name": "setBots",
      "outputs": [],
      "stateMutability": "nonpayable",
      "type": "function"
    },
    {
      "inputs": [
        {
          "internalType": "uint256",
          "name": "buyFourFee",
          "type": "uint256"
        },
        {
          "internalType": "uint256",
          "name": "buyLiquidityFee",
          "type": "uint256"
        },
        {
          "internalType": "uint256",
          "name": "buyRewardFee",
          "type": "uint256"
        }
      ],
      "name": "setBuyFee",
      "outputs": [],
      "stateMutability": "nonpayable",
      "type": "function"
    },
    {
      "inputs": [
        {
          "internalType": "bool",
          "name": "onoff",
          "type": "bool"
        }
      ],
      "name": "setCooldownEnabled",
      "outputs": [],
      "stateMutability": "nonpayable",
      "type": "function"
    },
    {
      "inputs": [
        {
          "internalType": "address",
          "name": "FourWallet",
          "type": "address"
        }
      ],
      "name": "setFourWallet",
      "outputs": [],
      "stateMutability": "nonpayable",
      "type": "function"
    },
    {
      "inputs": [
        {
          "internalType": "address",
          "name": "liquidityWallet",
          "type": "address"
        }
      ],
      "name": "setLiquidityWallet",
      "outputs": [],
      "stateMutability": "nonpayable",
      "type": "function"
    },
    {
      "inputs": [
        {
          "internalType": "uint256",
          "name": "maxBuy",
          "type": "uint256"
        }
      ],
      "name": "setMaxBuyAmount",
      "outputs": [],
      "stateMutability": "nonpayable",
      "type": "function"
    },
    {
      "inputs": [
        {
          "internalType": "uint256",
          "name": "maxSell",
          "type": "uint256"
        }
      ],
      "name": "setMaxSellAmount",
      "outputs": [],
      "stateMutability": "nonpayable",
      "type": "function"
    },
    {
      "inputs": [
        {
          "internalType": "uint256",
          "name": "maxToken",
          "type": "uint256"
        }
      ],
      "name": "setMaxWalletAmount",
      "outputs": [],
      "stateMutability": "nonpayable",
      "type": "function"
    },
    {
      "inputs": [
        {
          "internalType": "address",
          "name": "rewardWallet",
          "type": "address"
        }
      ],
      "name": "setRewardWallet",
      "outputs": [],
      "stateMutability": "nonpayable",
      "type": "function"
    },
    {
      "inputs": [
        {
          "internalType": "uint256",
          "name": "sellFourFee",
          "type": "uint256"
        },
        {
          "internalType": "uint256",
          "name": "sellLiquidityFee",
          "type": "uint256"
        },
        {
          "internalType": "uint256",
          "name": "sellRewardFee",
          "type": "uint256"
        }
      ],
      "name": "setSellFee",
      "outputs": [],
      "stateMutability": "nonpayable",
      "type": "function"
    },
    {
      "inputs": [
        {
          "internalType": "bool",
          "name": "onoff",
          "type": "bool"
        }
      ],
      "name": "setSwapEnabled",
      "outputs": [],
      "stateMutability": "nonpayable",
      "type": "function"
    },
    {
      "inputs": [
        {
          "internalType": "uint256",
          "name": "newAmount",
          "type": "uint256"
        }
      ],
      "name": "setSwapTokensAtAmount",
      "outputs": [],
      "stateMutability": "nonpayable",
      "type": "function"
    },
    {
      "inputs": [],
      "name": "symbol",
      "outputs": [
        {
          "internalType": "string",
          "name": "",
          "type": "string"
        }
      ],
      "stateMutability": "pure",
      "type": "function"
    },
    {
      "inputs": [],
      "name": "totalSupply",
      "outputs": [
        {
          "internalType": "uint256",
          "name": "",
          "type": "uint256"
        }
      ],
      "stateMutability": "pure",
      "type": "function"
    },
    {
      "inputs": [
        {
          "internalType": "address",
          "name": "recipient",
          "type": "address"
        },
        {
          "internalType": "uint256",
          "name": "amount",
          "type": "uint256"
        }
      ],
      "name": "transfer",
      "outputs": [
        {
          "internalType": "bool",
          "name": "",
          "type": "bool"
        }
      ],
      "stateMutability": "nonpayable",
      "type": "function"
    },
    {
      "inputs": [
        {
          "internalType": "address",
          "name": "sender",
          "type": "address"
        },
        {
          "internalType": "address",
          "name": "recipient",
          "type": "address"
        },
        {
          "internalType": "uint256",
          "name": "amount",
          "type": "uint256"
        }
      ],
      "name": "transferFrom",
      "outputs": [
        {
          "internalType": "bool",
          "name": "",
          "type": "bool"
        }
      ],
      "stateMutability": "nonpayable",
      "type": "function"
    },
    {
      "inputs": [],
      "name": "withdrawStuckETH",
      "outputs": [],
      "stateMutability": "nonpayable",
      "type": "function"
    },
    {
      "stateMutability": "payable",
      "type": "receive"
    }
  ],
  "bytecode": "0x608060405260026007819055600881905560016009819055600a818155600b829055600c829055600d839055600e92909255600f81905560108190556011819055601255601a805462ffffff60b01b191690556000601b819055601c91909155678ac7230489e80000601d819055601e819055601f5560205534801561008457600080fd5b50600080546001600160a01b031916339081178255604051909182917f8be0079c531659141344cd1fd0a4f28419497f9722a3daafe3b4186f6b6457e0908290a350601780546001600160a01b031990811673a3998ffea36240f51496c3dabf159f428d37d953908117835560188054831661dead178155601680549093169091178255336000818152600260209081526040808320678ac7230489e80000905582546001600160a01b0390811684526004909252808320805460ff1990811660019081179092553085528285208054821683179055975483168452818420805489168217905594548216835280832080548816861790559454168152929092208054909316179091556001600160a01b0316733188e04c9743691576175ee935bbf07cb4dd829d6001600160a01b03167fddf252ad1be2c89b69c2b068fc378daa952ba7f163c4a11628f55a4df523b3ef678ac7230489e800006040516101ee91815260200190565b60405180910390a36128fb806102056000396000f3fe6080604052600436106101dc5760003560e01c8063715018a611610102578063c9567bf911610095578063e99c9d0911610064578063e99c9d09146105ab578063ea2f0b37146105cb578063f34eb0b8146105eb578063f5648a4f1461060b57600080fd5b8063c9567bf914610510578063dd62ed3e14610525578063e01af92c1461056b578063e6f7ef4d1461058b57600080fd5b8063afa4f3b2116100d1578063afa4f3b21461049b578063b4060493146104bb578063b515566a146104db578063c3c8cd80146104fb57600080fd5b8063715018a61461040f5780638da5cb5b1461042457806395d89b411461044c578063a9059cbb1461047b57600080fd5b806327a14fc21161017a5780635932ead1116101495780635932ead1146103845780635958621e146103a45780636fc3eaec146103c457806370a08231146103d957600080fd5b806327a14fc214610308578063296f0a0c14610328578063313ce56714610348578063437823ec1461036457600080fd5b80631d865c30116101b65780631d865c301461028657806323b872dd146102a857806325519cf2146102c8578063273123b7146102e857600080fd5b806306fdde03146101e8578063095ea7b31461023157806318160ddd1461026157600080fd5b366101e357005b600080fd5b3480156101f457600080fd5b5060408051808201909152600e81526d54656820476f6c64656e204f6e6560901b60208201525b60405161022891906126cd565b60405180910390f35b34801561023d57600080fd5b5061025161024c3660046124f8565b610620565b6040519015158152602001610228565b34801561026d57600080fd5b50678ac7230489e800005b604051908152602001610228565b34801561029257600080fd5b506102a66102a136600461263a565b610637565b005b3480156102b457600080fd5b506102516102c33660046124b8565b6106dd565b3480156102d457600080fd5b506102a66102e336600461263a565b610746565b3480156102f457600080fd5b506102a6610303366004612448565b6107e3565b34801561031457600080fd5b506102a6610323366004612622565b61082e565b34801561033457600080fd5b506102a6610343366004612448565b61085d565b34801561035457600080fd5b5060405160098152602001610228565b34801561037057600080fd5b506102a661037f366004612448565b610939565b34801561039057600080fd5b506102a661039f3660046125ea565b610987565b3480156103b057600080fd5b506102a66103bf366004612448565b6109cf565b3480156103d057600080fd5b506102a6610a9f565b3480156103e557600080fd5b506102786103f4366004612448565b6001600160a01b031660009081526002602052604090205490565b34801561041b57600080fd5b506102a6610ad6565b34801561043057600080fd5b506000546040516001600160a01b039091168152602001610228565b34801561045857600080fd5b50604080518082019091526006815265476f6c64203160d01b602082015261021b565b34801561048757600080fd5b506102516104963660046124f8565b610b4a565b3480156104a757600080fd5b506102a66104b6366004612622565b610b57565b3480156104c757600080fd5b506102a66104d6366004612448565b610c6d565b3480156104e757600080fd5b506102a66104f6366004612523565b610d3d565b34801561050757600080fd5b506102a6610de1565b34801561051c57600080fd5b506102a6610e24565b34801561053157600080fd5b50610278610540366004612480565b6001600160a01b03918216600090815260036020908152604080832093909416825291909152205490565b34801561057757600080fd5b506102a66105863660046125ea565b6111f7565b34801561059757600080fd5b506102a66105a6366004612622565b61123f565b3480156105b757600080fd5b506102a66105c6366004612622565b61126e565b3480156105d757600080fd5b506102a66105e6366004612448565b61129d565b3480156105f757600080fd5b506102a6610606366004612622565b6112e8565b34801561061757600080fd5b506102a6611317565b600061062d3384846113fc565b5060015b92915050565b6000546001600160a01b0316331461066a5760405162461bcd60e51b815260040161066190612720565b60405180910390fd5b603c8161067784866127c5565b61068191906127c5565b11156106cf5760405162461bcd60e51b815260206004820152601e60248201527f4d757374206b6565702073656c6c2074617865732062656c6f772036302500006044820152606401610661565b600d92909255600f55601155565b60006106ea848484611521565b61073c84336107378560405180606001604052806028815260200161289e602891396001600160a01b038a1660009081526003602090815260408083203384529091529020549190611aba565b6113fc565b5060019392505050565b6000546001600160a01b031633146107705760405162461bcd60e51b815260040161066190612720565b601e8161077d84866127c5565b61078791906127c5565b11156107d55760405162461bcd60e51b815260206004820152601d60248201527f4d757374206b656570206275792074617865732062656c6f77203330250000006044820152606401610661565b600792909255600955600b55565b6000546001600160a01b0316331461080d5760405162461bcd60e51b815260040161066190612720565b6001600160a01b03166000908152600560205260409020805460ff19169055565b6000546001600160a01b031633146108585760405162461bcd60e51b815260040161066190612720565b601f55565b6000546001600160a01b031633146108875760405162461bcd60e51b815260040161066190612720565b6001600160a01b0381166108e95760405162461bcd60e51b815260206004820152602360248201527f6c697175696469747957616c6c657420616464726573732063616e6e6f74206260448201526206520360ec1b6064820152608401610661565b601880546001600160a01b03908116600090815260046020526040808220805460ff1990811690915584546001600160a01b03191695909316948517909355928352912080549091166001179055565b6000546001600160a01b031633146109635760405162461bcd60e51b815260040161066190612720565b6001600160a01b03166000908152600460205260409020805460ff19166001179055565b6000546001600160a01b031633146109b15760405162461bcd60e51b815260040161066190612720565b601a8054911515600160c01b0260ff60c01b19909216919091179055565b6000546001600160a01b031633146109f95760405162461bcd60e51b815260040161066190612720565b6001600160a01b038116610a4f5760405162461bcd60e51b815260206004820181905260248201527f72657761726457616c6c657420616464726573732063616e6e6f7420626520306044820152606401610661565b601680546001600160a01b03908116600090815260046020526040808220805460ff1990811690915584546001600160a01b03191695909316948517909355928352912080549091166001179055565b6000546001600160a01b03163314610ac95760405162461bcd60e51b815260040161066190612720565b47610ad381611af4565b50565b6000546001600160a01b03163314610b005760405162461bcd60e51b815260040161066190612720565b600080546040516001600160a01b03909116907f8be0079c531659141344cd1fd0a4f28419497f9722a3daafe3b4186f6b6457e0908390a3600080546001600160a01b0319169055565b600061062d338484611521565b6000546001600160a01b03163314610b815760405162461bcd60e51b815260040161066190612720565b64e8d4a51000811015610bf45760405162461bcd60e51b815260206004820152603560248201527f5377617020616d6f756e742063616e6e6f74206265206c6f776572207468616e60448201527410181718181892903a37ba30b61039bab838363c9760591b6064820152608401610661565b6611c37937e08000811115610c685760405162461bcd60e51b815260206004820152603460248201527f5377617020616d6f756e742063616e6e6f742062652068696768657220746861604482015273371018171a92903a37ba30b61039bab838363c9760611b6064820152608401610661565b602055565b6000546001600160a01b03163314610c975760405162461bcd60e51b815260040161066190612720565b6001600160a01b038116610ced5760405162461bcd60e51b815260206004820152601e60248201527f466f757257616c6c657420616464726573732063616e6e6f74206265203000006044820152606401610661565b601780546001600160a01b03908116600090815260046020526040808220805460ff1990811690915584546001600160a01b03191695909316948517909355928352912080549091166001179055565b6000546001600160a01b03163314610d675760405162461bcd60e51b815260040161066190612720565b60005b8151811015610ddd57600160056000848481518110610d9957634e487b7160e01b600052603260045260246000fd5b6020908102919091018101516001600160a01b03168252810191909152604001600020805460ff191691151591909117905580610dd581612833565b915050610d6a565b5050565b6000546001600160a01b03163314610e0b5760405162461bcd60e51b815260040161066190612720565b30600090815260026020526040902054610ad381611b2e565b6000546001600160a01b03163314610e4e5760405162461bcd60e51b815260040161066190612720565b601a54600160a01b900460ff1615610ea85760405162461bcd60e51b815260206004820152601760248201527f74726164696e6720697320616c7265616479206f70656e0000000000000000006044820152606401610661565b601980546001600160a01b031916737a250d5630b4cf539739df2c5dacb4c659f2488d908117909155610ee43082678ac7230489e800006113fc565b806001600160a01b031663c45a01556040518163ffffffff1660e01b815260040160206040518083038186803b158015610f1d57600080fd5b505afa158015610f31573d6000803e3d6000fd5b505050506040513d601f19601f82011682018060405250810190610f559190612464565b6001600160a01b031663c9c6539630836001600160a01b031663ad5c46486040518163ffffffff1660e01b815260040160206040518083038186803b158015610f9d57600080fd5b505afa158015610fb1573d6000803e3d6000fd5b505050506040513d601f19601f82011682018060405250810190610fd59190612464565b6040516001600160e01b031960e085901b1681526001600160a01b03928316600482015291166024820152604401602060405180830381600087803b15801561101d57600080fd5b505af1158015611031573d6000803e3d6000fd5b505050506040513d601f19601f820116820180604052508101906110559190612464565b601a80546001600160a01b039283166001600160a01b03199091161790556019541663f305d719473061109d816001600160a01b031660009081526002602052604090205490565b6000806110b26000546001600160a01b031690565b426040518863ffffffff1660e01b81526004016110d496959493929190612692565b6060604051808303818588803b1580156110ed57600080fd5b505af1158015611101573d6000803e3d6000fd5b50505050506040513d601f19601f820116820180604052508101906111269190612665565b5050601a805466b1a2bc2ec50000601d819055601e5567016345785d8a0000601f556611c37937e0800060205564ffff0000ff60a01b19811664010100000160a01b1790915543601b5560195460405163095ea7b360e01b81526001600160a01b03918216600482015260001960248201529116915063095ea7b390604401602060405180830381600087803b1580156111bf57600080fd5b505af11580156111d3573d6000803e3d6000fd5b505050506040513d601f19601f82011682018060405250810190610ddd9190612606565b6000546001600160a01b031633146112215760405162461bcd60e51b815260040161066190612720565b601a8054911515600160b81b0260ff60b81b19909216919091179055565b6000546001600160a01b031633146112695760405162461bcd60e51b815260040161066190612720565b601c55565b6000546001600160a01b031633146112985760405162461bcd60e51b815260040161066190612720565b601e55565b6000546001600160a01b031633146112c75760405162461bcd60e51b815260040161066190612720565b6001600160a01b03166000908152600460205260409020805460ff19169055565b6000546001600160a01b031633146113125760405162461bcd60e51b815260040161066190612720565b601d55565b6000546001600160a01b031633146113415760405162461bcd60e51b815260040161066190612720565b601a54600160a01b900460ff16156113af5760405162461bcd60e51b815260206004820152602b60248201527f43616e206f6e6c792077697468647261772069662074726164696e672068617360448201526a1b89dd081cdd185c9d195960aa1b6064820152608401610661565b604051600090339047908381818185875af1925050503d80600081146113f1576040519150601f19603f3d011682016040523d82523d6000602084013e6113f6565b606091505b50505050565b6001600160a01b03831661145e5760405162461bcd60e51b8152602060048201526024808201527f45524332303a20617070726f76652066726f6d20746865207a65726f206164646044820152637265737360e01b6064820152608401610661565b6001600160a01b0382166114bf5760405162461bcd60e51b815260206004820152602260248201527f45524332303a20617070726f766520746f20746865207a65726f206164647265604482015261737360f01b6064820152608401610661565b6001600160a01b0383811660008181526003602090815260408083209487168084529482529182902085905590518481527f8c5be1e5ebec7d5bd14f71427d1e84f3dd0314c0f7b2291e5b200ac8c7c3b92591015b60405180910390a3505050565b6001600160a01b0383166115855760405162461bcd60e51b815260206004820152602560248201527f45524332303a207472616e736665722066726f6d20746865207a65726f206164604482015264647265737360d81b6064820152608401610661565b6001600160a01b0382166115e75760405162461bcd60e51b815260206004820152602360248201527f45524332303a207472616e7366657220746f20746865207a65726f206164647260448201526265737360e81b6064820152608401610661565b600081116116495760405162461bcd60e51b815260206004820152602960248201527f5472616e7366657220616d6f756e74206d7573742062652067726561746572206044820152687468616e207a65726f60b81b6064820152608401610661565b60008061165e6000546001600160a01b031690565b6001600160a01b0316856001600160a01b03161415801561168d57506000546001600160a01b03858116911614155b80156116a157506001600160a01b03841615155b80156116b857506001600160a01b03841661dead14155b80156116ce5750601a54600160a81b900460ff16155b15611993576001600160a01b03851660009081526005602052604090205460ff1615801561171557506001600160a01b03841660009081526005602052604090205460ff16155b61171e57600080fd5b601a54600192506001600160a01b03868116911614801561174d57506019546001600160a01b03858116911614155b801561177257506001600160a01b03841660009081526004602052604090205460ff16155b80156117875750601a54600160c01b900460ff165b156118c057601d548311156117f05760405162461bcd60e51b815260206004820152602960248201527f5472616e7366657220616d6f756e74206578636565647320746865206d6178426044820152683abca0b6b7bab73a1760b91b6064820152608401610661565b601f5483611813866001600160a01b031660009081526002602052604090205490565b61181d91906127c5565b11156118775760405162461bcd60e51b8152602060048201526024808201527f45786365656473206d6178696d756d2077616c6c657420746f6b656e20616d6f6044820152633ab73a1760e11b6064820152608401610661565b6001600160a01b038416600090815260066020526040902054421161189b57600080fd5b6118a642601e6127c5565b6001600160a01b0385166000908152600660205260409020555b601a546001600160a01b0385811691161480156118eb57506019546001600160a01b03868116911614155b801561191057506001600160a01b03851660009081526004602052604090205460ff16155b80156119255750601a54600160c01b900460ff165b1561199357601e5483111561198f5760405162461bcd60e51b815260206004820152602a60248201527f5472616e7366657220616d6f756e74206578636565647320746865206d61785360448201526932b63620b6b7bab73a1760b11b6064820152608401610661565b5060015b6001600160a01b03851660009081526004602052604090205460ff16806119d257506001600160a01b03841660009081526004602052604090205460ff165b156119dc57600091505b3060009081526002602052604081205490506000602054821180156119fe5750825b9050808015611a165750601a54600160b81b900460ff165b8015611a2c5750601a54600160a81b900460ff16155b8015611a5157506001600160a01b03871660009081526004602052604090205460ff16155b8015611a7657506001600160a01b03861660009081526004602052604090205460ff16155b15611aa457601a805460ff60a81b1916600160a81b179055611a96611cd3565b601a805460ff60a81b191690555b611ab18787878787611f13565b50505050505050565b60008184841115611ade5760405162461bcd60e51b815260040161066191906126cd565b506000611aeb848661281c565b95945050505050565b6017546040516001600160a01b039091169082156108fc029083906000818181858888f19350505050158015610ddd573d6000803e3d6000fd5b601a805460ff60b01b1916600160b01b1790556040805160028082526060820183526000926020830190803683370190505090503081600081518110611b8457634e487b7160e01b600052603260045260246000fd5b6001600160a01b03928316602091820292909201810191909152601954604080516315ab88c960e31b81529051919093169263ad5c4648926004808301939192829003018186803b158015611bd857600080fd5b505afa158015611bec573d6000803e3d6000fd5b505050506040513d601f19601f82011682018060405250810190611c109190612464565b81600181518110611c3157634e487b7160e01b600052603260045260246000fd5b6001600160a01b039283166020918202929092010152601954611c5791309116846113fc565b60195460405163791ac94760e01b81526001600160a01b039091169063791ac94790611c90908590600090869030904290600401612755565b600060405180830381600087803b158015611caa57600080fd5b505af1158015611cbe573d6000803e3d6000fd5b5050601a805460ff60b01b1916905550505050565b3060009081526002602052604081205490506000601454601354601554611cfa91906127c5565b611d0491906127c5565b90506000821580611d13575081155b15611d1d57505050565b602054611d2b90600a6127fd565b831115611d4357602054611d4090600a6127fd565b92505b600060028360155486611d5691906127fd565b611d6091906127dd565b611d6a91906127dd565b90506000611d788583611f73565b905047611d8482611b2e565b6000611d904783611f73565b90506000611db387611dad60135485611fbc90919063ffffffff16565b9061203b565b90506000611dd088611dad60145486611fbc90919063ffffffff16565b9050600081611ddf848661281c565b611de9919061281c565b60006015819055601381905560148190556016546040519293506001600160a01b031691859181818185875af1925050503d8060008114611e46576040519150601f19603f3d011682016040523d82523d6000602084013e611e4b565b606091505b50909850508615801590611e5f5750600081115b15611eb257611e6e878261207d565b601554604080518881526020810184905280820192909252517f17bbfb9a6069321b6ded73bd96327c9e6b7212a5cd51ff219cd61370acafb5619181900360600190a15b6017546040516001600160a01b03909116904790600081818185875af1925050503d8060008114611eff576040519150601f19603f3d011682016040523d82523d6000602084013e611f04565b606091505b50505050505050505050505050565b81611f2557611f20612127565b611f33565b611f308584836121af565b92505b611f3e8585856122cd565b81611f6c57611f6c600854600755600a54600955600c54600b55600e54600d55601054600f55601254601155565b5050505050565b6000611fb583836040518060400160405280601e81526020017f536166654d6174683a207375627472616374696f6e206f766572666c6f770000815250611aba565b9392505050565b600082611fcb57506000610631565b6000611fd783856127fd565b905082611fe485836127dd565b14611fb55760405162461bcd60e51b815260206004820152602160248201527f536166654d6174683a206d756c7469706c69636174696f6e206f766572666c6f6044820152607760f81b6064820152608401610661565b6000611fb583836040518060400160405280601a81526020017f536166654d6174683a206469766973696f6e206279207a65726f000000000000815250612373565b6019546120959030906001600160a01b0316846113fc565b60195460185460405163f305d71960e01b81526001600160a01b039283169263f305d7199285926120d59230928992600092839216904290600401612692565b6060604051808303818588803b1580156120ee57600080fd5b505af1158015612102573d6000803e3d6000fd5b50505050506040513d601f19601f82011682018060405250810190611f6c9190612665565b6007541580156121375750600954155b80156121435750600b54155b801561214f5750600d54155b801561215b5750600f54155b80156121675750601154155b1561216e57565b6007805460085560098054600a55600b8054600c55600d8054600e55600f805460105560118054601255600095869055938590559184905583905582905555565b600080600080600043601c54601b546121c891906127c5565b106121da5760639350605c915061220f565b6121e3866123a1565b935085156121ff57600d549250600f549150601154905061220f565b60075492506009549150600b5490505b60006122206064611dad8a88611fbc565b90508461222d83836127fd565b61223791906127dd565b6013600082825461224891906127c5565b9091555085905061225985836127fd565b61226391906127dd565b6014600082825461227491906127c5565b9091555085905061228584836127fd565b61228f91906127dd565b601560008282546122a091906127c5565b909155505080156122b6576122b68930836122cd565b6122c0818961281c565b9998505050505050505050565b6001600160a01b0383166000908152600260205260409020546122f09082611f73565b6001600160a01b03808516600090815260026020526040808220939093559084168152205461231f90826123d9565b6001600160a01b0380841660008181526002602052604090819020939093559151908516907fddf252ad1be2c89b69c2b068fc378daa952ba7f163c4a11628f55a4df523b3ef906115149085815260200190565b600081836123945760405162461bcd60e51b815260040161066191906126cd565b506000611aeb84866127dd565b600081156123c657601154600f54600d546123bc91906127c5565b61063191906127c5565b600b546009546007546123bc91906127c5565b6000806123e683856127c5565b905083811015611fb55760405162461bcd60e51b815260206004820152601b60248201527f536166654d6174683a206164646974696f6e206f766572666c6f7700000000006044820152606401610661565b80356124438161287a565b919050565b600060208284031215612459578081fd5b8135611fb58161287a565b600060208284031215612475578081fd5b8151611fb58161287a565b60008060408385031215612492578081fd5b823561249d8161287a565b915060208301356124ad8161287a565b809150509250929050565b6000806000606084860312156124cc578081fd5b83356124d78161287a565b925060208401356124e78161287a565b929592945050506040919091013590565b6000806040838503121561250a578182fd5b82356125158161287a565b946020939093013593505050565b60006020808385031215612535578182fd5b823567ffffffffffffffff8082111561254c578384fd5b818501915085601f83011261255f578384fd5b81358181111561257157612571612864565b8060051b604051601f19603f8301168101818110858211171561259657612596612864565b604052828152858101935084860182860187018a10156125b4578788fd5b8795505b838610156125dd576125c981612438565b8552600195909501949386019386016125b8565b5098975050505050505050565b6000602082840312156125fb578081fd5b8135611fb58161288f565b600060208284031215612617578081fd5b8151611fb58161288f565b600060208284031215612633578081fd5b5035919050565b60008060006060848603121561264e578283fd5b505081359360208301359350604090920135919050565b600080600060608486031215612679578283fd5b8351925060208401519150604084015190509250925092565b6001600160a01b039687168152602081019590955260408501939093526060840191909152909216608082015260a081019190915260c00190565b6000602080835283518082850152825b818110156126f9578581018301518582016040015282016126dd565b8181111561270a5783604083870101525b50601f01601f1916929092016040019392505050565b6020808252818101527f4f776e61626c653a2063616c6c6572206973206e6f7420746865206f776e6572604082015260600190565b600060a082018783526020878185015260a0604085015281875180845260c0860191508289019350845b818110156127a45784516001600160a01b03168352938301939183019160010161277f565b50506001600160a01b03969096166060850152505050608001529392505050565b600082198211156127d8576127d861284e565b500190565b6000826127f857634e487b7160e01b81526012600452602481fd5b500490565b60008160001904831182151516156128175761281761284e565b500290565b60008282101561282e5761282e61284e565b500390565b60006000198214156128475761284761284e565b5060010190565b634e487b7160e01b600052601160045260246000fd5b634e487b7160e01b600052604160045260246000fd5b6001600160a01b0381168114610ad357600080fd5b8015158114610ad357600080fdfe45524332303a207472616e7366657220616d6f756e74206578636565647320616c6c6f77616e6365a26469706673582212208fdb9d0494bf851b34cea50d0f61cb5626f3de7ac57c466679c6b9e077722f9c64736f6c63430008040033",
  "linkReferences": {},
  "deployedLinkReferences": {}
}